:100000000040012079550000895B00006F59000015
:10001000835B0000835B0000835B00000000000046
:10002000000000000000000000000000835B0000F2
:10003000835B000000000000835B0000835B000026
:10004000835B0000835B0000835B0000835B000038
:10005000835B0000835B0000835B0000835B000028
:10006000835B0000835B0000835B0000835B000018
:10007000835B0000835B0000835B0000835B000008
:10008000835B0000835B0000835B0000835B0000F8
:10009000835B0000835B0000835B0000835B0000E8
:1000A000835B0000835B0000835B0000835B0000D8
:1000B000835B0000835B0000835B0000835B0000C8
:1000C000835B0000835B0000835B0000835B0000B8
:0800D000835B0000835B00006C
:1000D8009EB005F0D7FA05F03AFD02F029FB04F0CE
:1000E800BBFBDFF86866062000214FF00008B04728
:1000F80007200021B04718200021B04711AC204646
:1001080005F0AAFC02202146ADF844004FF4E13086
:100118001790002001F030FCDFF83496DFF83856ED
:10012800C9F80800DFF82C06A847DFF83006A8470A
:10013800DFF82C06A847DFF82C06A847DFF82806C2
:10014800A847DFF82806A84709AC204605F066FC52
:10015800012021468DF830808DF83C00CB480D9069
:10016800002004F0DBFBCA4C0028C9F80C0000F0A2
:10017800D582DFF8FC05A84715200121B0471E20CD
:100188000121B0470F200121B0470B200121B047C2
:1001980018200021B047BF48DFF8D8758046B84717
:1001A800DFF8D405A84716200021B04742F21070A6
:1001B800B84716200121B047DFF8C005A8472046F8
:1001C800B847112004F044FC6420B847DFF8B005B4
:1001D800A847002004F01AF889F80000DFF8A40501
:1001E800A84799F8000004F037FF99F80010DFF8E5
:1001F8009805DFF89825532908BF0246DFF89005CF
:10020800732918BF1046A84799F800000138FE283E
:1002180080F08E82DFF88405A847DFF88425DFF8B0
:1002280084650220E021B0478346DFF87C05A847B3
:100238004046B847DFF8742501200121B047DFF8B0
:100248007025049003201021B047DFF8682503903B
:1002580004204021B047DFF86025029005200021E6
:10026800B047DFF85825814606202C21B047DFF833
:100278005025824607200C21B047DFF8482507465D
:1002880009200021B047DFF8402504460A208721CD
:10029800B0478046DFF83405A8470120BBF1000FBE
:1002A80018BF02200499002908BF58460399DFF8AF
:1002B800A0B40844029908444844504438442044AF
:1002C800404403F0F1FCDFF80805A847092003F0D3
:1002D800EBFCDFF80005A847DFF8FC04A847182066
:1002E80005F01EFCDFF88C5444F62060A847DFF8C0
:1002F800EC441120A0474FF47A70A8471A20A04771
:100308006548A8471120A0474FF47A70A847DFF83E
:10031800D4240A200721B047DFF8CC04002104F0D8
:1003280073F8DFF8C8A428210AF1200005F04FFA75
:100338001E2005F0F5FB41F28830A84703F017FAB4
:100348001AAC204605F034FB012021468DF87000D8
:10035800002001F09BFECBF8100058B12420712139
:1003680004F0CCF930B1012000218BF80300002003
:1003780003F0FEF95C46DFF87804DFF8DCB3D84711
:10038800207804F069FEDFF8CC03D847042001F098
:10039800D1FDDFF86004D84707AF0DF123080DF150
:1003A800680906AE0020CDE90300DFF8A4030024A5
:1003B800414601224B468DF823401A94806805F087
:1003C80001F8B0B91A98A0B19DF82300A0F1310145
:1003D800032900F22481DFE801F002080406012065
:1003E80004E0032002E0042000E0022001F0A2FD66
:1003F8000024002031460DF11702CDE906008DF8E2
:100408001700384602F05CFE80B3D14E9DF81750B5
:1004180006207178A84381F004010843B0FA80F0FF
:100428004109062005F0E8F90498DDF81880002352
:10043800CDF800A0013041464FEA80090490DFF86A
:10044800A8034A4600F0E4F9B3889AF80B106FF055
:10045800220252FA81F21F46972A38BFCFB2002BE8
:1004680018BF1F46B17830B159B118E04FF47A700F
:1004780005F081FB99E7C8B2B0FA80F04009044260
:100488000CD023200124B0700EE000BF90D00300F0
:1004980040420F00A086010020A1070061B1481E5C
:1004A800B070000608D100240720214605F0A4F901
:1004B8003846214603F05CF97078DDF81CA0042862
:1004C8004AD14FEAEA701AEB680140EBE8700B0278
:1004D800000240EA1162C54991F83000A8B3D1F88A
:1004E80034E0D1E90847D1E90A6C0EF10100029025
:1004F8004863181B62EB070BC00940EA4B60001900
:100508004FEAEB147C419B1BC1E9080462EB0C0227
:100518005B0A43EAC25352129B1942EB0C02C01AFF
:10052800C1E90A3264EB0202000A40EA026291F869
:100538003100002800F08880DFF81CB212F1B50FF6
:10054800DCBF002081F8310006E00120C1E9083253
:10055800C1E90A3281F83000A848EFB2D8474846C6
:1005680003F0D8FEA64C2046D847504603F09CFB23
:100578002046D847404603F097FB2046D8473846E0
:1005880003F0C8FE7348D8470398F92804D201300D
:10059800DFF858A203903BE0DFF850A299486E4973
:1005A80005F00F089AF80A409AF80B509AF810606C
:1005B8008847002D18BF2C460020934DDFF898B1CE
:1005C8000021039016F0900F18BF0C462046A8474C
:1005D8008B4C2046D847BAF80800A8472046D84789
:1005E800BAF84200A8472046D8474046A8472046C0
:1005F800D847BAF80C00A8472046D847BAF80E00E2
:10060800A8472046D8479AF81000A8475148D84725
:1006180007AF0DF123080DF1680906AEC5E641B232
:10062800B1F1FF3F3ADD42283BD043283BD0632855
:1006380039D052287FF4DCAE45480024002184805C
:10064800002003F095F8D4E6DFF80CB1B52AFFF6E0
:1006580083AF664F012087F83100AEF2F310B0F592
:10066800FA6F58D897F8401097F84100029B07EBAB
:100678004102013101F003010328138707F1380211
:1006880087F840109CBF013087F8410000210346DD
:1006980083B332F8024B013B2144F9E72C49643813
:1006A80088800124A5E64D4D1120A847314C4FF410
:1006B8007A70A0470A20872103F01CFF42F21070CD
:1006C800A0471A20A8474648A0471120A8474FF43A
:1006D8007A70A0470A20072103F00CFF42F210703D
:1006E800A0471020A8474FF47A70A047424804F06A
:1006F80035FE7DE681420ED3B1FBF0F040F2FD728B
:10070800A0F2C711914206D880B243F69821B1FBF6
:10071800F0F0A7F84200002078631DE73B4804F09A
:100728001DFE062005F0FCF9204605F024FAFBE73B
:10073800184804F013FE184804F010FE062005F0CF
:10074800EFF9204605F017FAFBE700BF0158000053
:10075800A80B0020315F000065530000FC5C00001E
:100768003B5D0000A65D0000BC5C0000385C00003A
:10077800EE5E00007F5B00008A5F0000725D000093
:10078800545F0000DE6000006F5F0000B060000092
:10079800A85E0000095E0000D85D0000105F000040
:1007A8009261000059410000355E00008061000040
:1007B800AD61000089610000B66100009B61000026
:1007C800BF610000C8610000A4610000FC60000077
:1007D8001E620000ED6000005D5E0000594A0000E6
:1007E80020A107006C61000000000020400B0020E1
:1007F80004600000C06000000A610000795C00002D
:100808001C620000176200001D430000CC5E00005F
:100818002DE9FC470027002800F00682DDF828A013
:10082800BAF1000F00F0008291460546D0E96C202D
:10083800571C461C95F81822C5E96C769BB1002711
:1008480042F0200051461C22AAF80A708AF81000CB
:1008580085F8180205F50770CAE905778AF8007067
:1008680005F08CF9E0E140F2EE2302F0DF029F424E
:1008780085F8182206D3002342F01002A5F8263284
:1008880085F81822A0B900200D2803D045F82010BB
:100898000130F9E701EBC100102382006A63312BB4
:1008A80003D045F823200133F9E7C001C5F8C40097
:1008B80095F83C2095F8C80045F82210561C6B6B3B
:1008C800D5F8C4C0AB630D23B6FBF3F707FB13667B
:1008D80085F83C6002F10C06B6FBF3F707FB1366DC
:1008E800171DB7FBF3F155F8266001FB137155F896
:1008F8002110314402F10D06B6FBF3F707FB13662E
:10090800D71CB7FBF3F455F8266004FB137455F8AD
:100918002440344404EB410102F10B04B4FBF3F628
:1009280006FB1344561DB6FBF3F755F8244007FBA6
:10093800136655F82660344404EB4404214402F15C
:100948000A04B4FBF3F606FB1344961DB6FBF3F753
:1009580055F8244007FB136655F82660344401EB2C
:10096800840102F10904B4FBF3F606FB1344D61D17
:100978000832B6FBF3F755F8244007FB136600F17D
:10098800110755F82660344404EB84042144B2FB73
:10099800F3F404FB1322212355F8222002EB420230
:1009A80001EB4201421CB2FBF3F4B7FBF3F36963BA
:1009B80044EA441403EB4313121B05F14004FB1AE9
:1009C80054F8226054F8233085F8C8208E1B6644FA
:1009D800C5F8C46044F82010D5F8C400D5F8B4119F
:1009E800A3EB6013052908D805F1CC0000210529DF
:1009F80003D040F821300131F9E705F1CC0405F1C5
:100A0800D406002717CC16C68AF80070191BC5E94A
:100A18003330801A00EB4100C01080FB0001000B4E
:100A280040EA015095F8881105EB81020131D2F8AE
:100A3800E440C2F8E400B5F83A22CAF80490B1FBE1
:100A4800F2F6001BD5F8804106FB121185F88811D3
:100A580067F100010019D5F88441C5F880016141AA
:100A6800B5F8FE41CAF814300023C5F88411AAF875
:100A7800084095F826428AF80A4095F827428AF8ED
:100A88000B40B5F82842AAF80C40B5F82A42AAF853
:100A98000E4004F07BFED5E9631395F81822CAF8D6
:100AA800180005F50778C5E9630181424FF0000099
:100AB8008AF8102028BF0120994288BF012795F89D
:100AC800B831012B2FD1D5F8B431292B27D3D5F83C
:100AD800AC01814284BFC5F8AC110846B3F5967FD6
:100AE8001DD3002185F8B811C5F8B01102F07F01B7
:100AF80064285D4A85F81812014698BF64214908A0
:100B0800904288BF42F210710A20B1FBF0F00A1A35
:100B1800C5E9651000EB92025308C5E9672304F0A4
:100B2800B1FF002780E0D5F8B0213840B2F5967FB4
:100B38001ED91923B2FBF3F404FB1323C3B9D5F868
:100B48009431292B14D3D5F89841A3EBD303C5F8D6
:100B58009431A4EBD4041B1BC5F8984104EB930310
:100B68000F2B98BF0F23C5F89C315B08C5F8A0313F
:100B780010B3B5F8FC315F208D2B0AD303EB831338
:100B88006424B3FBF4F34FF6E0741C405F2C88BF79
:100B98001846824236D2D5E9650202EBD101A1EBB3
:100BA800D201401A0A4688BF02EB9002C5E96612D4
:100BB80050084FF4D0716850B5F8FC0180B3A621F5
:100BC80048436421B0FBF1F1D5F8B001884227D938
:100BD800D5E96821914223D311B3D5F8A821D5F8D6
:100BE800B4319F1AC21BB5F83C02824206D30120D9
:100BF800A9EB870304F04BFFC5F8B0710020C5F8D6
:100C0800A4010DE0282913D3D5F89C0181420FD304
:100C180000204B4604F03BFF9AF800000028CBD098
:100C280004F030FF9AF8007007F00100BDE8FC8777
:100C3800D5E96502D5F8A43102EBD104A4EBD202C0
:100C4800801A144688BF04EB90046008C5E966243E
:100C58009942C5F8A001AFD9D5F8B401C5F8A411D7
:100C68004FF4D471A7E700BFA18601002DE9FE4F1C
:100C7800074608680024B0B1D7E9018A0E4604F097
:100C880033FE8146D8F8E800082888BF0124B068F8
:100C9800204202D17068204208D0032030744846B0
:100CA80004F009FF00242046BDE8FE8FD8F8C010E4
:100CB80069B198F8F8100029EFD006213174D8F8F6
:100CC800C410C8F8C4604E6198F8FC100DE000210B
:100CD8000522C8E93066C8E93411C8E9361198F820
:100CE800FC10002908BF0122327400220129726118
:100CF80009D102204FF4E02188F8FC0098F8FB00A5
:100D080004F0ACF8706889490138884205D8042095
:100D180004F0BCF8062004F0B9F8022004F0B6F894
:100D280098F8F80040B9DAF83C003168814203D2FB
:100D380098F8FC0000286CD0D8E9361009B118B929
:100D480000E028B304F0CBFEDAF80000416941F076
:100D580001014161484604F0AEFE98F8F80008B178
:100D68000124A0E708F16C05D8F8EC10284602F039
:100D78004DFD0028F4D0D8F8C0000321017438468E
:100D880002F090FD28460021002402F03FFD8AE78A
:100D98009AF8040004F0FAFD654CDAF81010022203
:100DA800206991FAA1F1B1FA81F14368D8F8CC0031
:100DB8004068006898472069DAF8141002224368EE
:100DC800D8F8CC0091FAA1F1B1FA81F14068006835
:100DD80098479AF8040004F0D3FD9AF8040004F048
:100DE800DBFD04F07CFE0020C8F8E000D8F8C00065
:100DF8000068B0F5806F01D904F071FE98F8FE0024
:100E08000028A1D1DAF80000416841F002014160F0
:100E18009AE798F8F90020B1D8F8EC0001307FF48F
:100E28008BAF484604F047FEB2683AB1D8F8E800FC
:100E38000221092838BF0121009103E008F1F402DA
:100E480000200090746834B1D8F8E8000227092817
:100E580038BF012702E008F1F6040027DAF800009D
:100E6800334D416841F002014160D6F800B0D946DF
:100E7800BBF1000F40D0D8F8E800019209284FF0E4
:100E8800010011D22A68B9F1000F1FD0C0071DD088
:100E98002178DAF800009268904700281EBF3C4489
:100EA800A9F101090120EDE72A68B9F1000F16D070
:100EB800C00714D02188DAF800009268904700280B
:100EC8001EBF3C44A9F101090120EDE7DAF8000052
:100ED800D26802A99047DDE90120107007E0DAF82E
:100EE8000000D26802A99047DDE90120108000982F
:100EF800ABF1010B0244BBE7D8F8F000DAF80010B8
:100F0800CA680240102802D1002AF9D101E0002A5B
:100F1800F6D0706804F010FAD8F8C0100020C8F8AD
:100F2800C400C8F8C00008741AE700BFFEFFFF0F2E
:100F3800C40100102DE9FC47D0E900588246D8F8D2
:100F48000000D0F8409019F4F06FC0F8449035D004
:100F58005FEA495117D5D5E91401411A504604F002
:100F68004FF8D8F800008169C90605D401688DF8E2
:100F780007109DF80710F6E7296801312960A97B59
:100F880009B90121A973696C40684FF0004600F067
:100F98000F0404EA0100B0FA80F126FA01F10140D9
:100FA80005D02F6C1FB12A68AB6C5046B847B4FA0D
:100FB80084F026FA00F020404042A863D5F8580192
:100FC800D8F83C1009F0400740680068D0F80425BC
:100FD8001140394347D0DAE90064504602F0EEFF89
:100FE800D7B1F07C90B90BE0316F69B10068B16E90
:100FF800B26F8854306FB16F01310138B167306713
:1010080020688169C906EFD5F07C28B1D6E91401BA
:10101800411A504603F0F4FF96F86400E0B13079C5
:10102800022819D017B1B179012901D0316F99B9C6
:101038000024B16E0128346786F86440B46607D18D
:10104800B36CB26FD6F8CC6050460094B04703E05A
:1010580006F17C0003F082FC504601F067FCD5F8ED
:1010680058014068006800F204500068D8F8381049
:10107800084228D0D5F8F80028B3DAE900765046B7
:1010880002F0A0FC504601F0BBFF7879012812D18C
:10109800D7F8F40078B997F8E80060B1002087F82D
:1010A800E800BB6CD7F8EC10D7F8FC20D7F8504113
:1010B80000905046A047D7F8F80020B93068816BF7
:1010C80041F4006181635FEA095023D5D8F8000034
:1010D80081690907FCD4016B21F480710163297AC5
:1010E80091B10020287295F84400800606D52C6C32
:1010F80024B1AB6C504620210022A0475046012164
:1011080003F0D5FFD8F80000816B21F400618163FA
:10111800687908B1BDE8FC8705F58070BDE8FC4733
:1011280003F01CBC2DE9FE4FD0F800809946144608
:101138000E46824613B10020C9F8000004F0D4FB23
:10114800834698F8070038B198F8640048B104F06D
:10115800EAFC6FF00805B4E004F0E5FC6FF00E055A
:10116800AFE0002C4AD0504602F028FF00200121B1
:10117800C8E91A64C8F87040C8F87800C8F8380098
:1011880088F80C0088F80A00504688F8641003F0C4
:1011980079FD504601F0CAFB08F14C0402AD204627
:1011A800294604F0EDF8D8F87810D8F8707072185D
:1011B800B84238BF0746029910463A4604F0DEFCAA
:1011C8002046394603F0C2FED8F87000D8F87810E7
:1011D800C21B3944012FC8F87020C8F8781001DB09
:1011E800B842DCD198F8041002290CD10020C8F8C4
:1011F800680088F86400C8F870001CE004F093FCEC
:101208006FF009055DE0B84215D10020D8F8686094
:10121800012988F86400C8F868000CD101245846F0
:1012280088F8104004F047FC98F80F0000284BD0CD
:1012380004F05AFB834604F076FC98F8040008B1E1
:1012480000252FE0D8F8701008F17C0031B30C9914
:1012580002F0DCFA10B1012088F80C0004F044FB1D
:101268000446504602F0AAFE0020C8F86800C8F8F4
:10127800700088F86400504601F058FB98F80A603E
:1012880098F80C50204604F016FC002D18BF6FF09B
:101298000C05002E18BF6FF00D0503E00021002596
:1012A80002F0B4FA04F020FBB9F1000F07D098F867
:1012B800041001291CBFD8F87810C9F8001004F0F0
:1012C800FAFB2846BDE8FE8F002598F81000002894
:1012D800AED004F009FBA8F80F4004F0ECFBD8F8F6
:1012E8004830D8F87820D8F8CC7050463146009568
:1012F800B84788F80F50E8E72DE9FE4FD0E9019884
:10130800D8F80010CA690A62D20740F0AF80D8E95D
:1013180004014FF0000A4FF0000B0843D9F8CC1035
:1013280049680968C1F8040509F13000029009F11B
:10133800C8000190BBF1010F00F2A180D9F8C000EC
:10134800002800F09C80D9F8E010DC22D9F8CC7095
:101358002023002908BFD82208BF182358F80340C3
:101368004FF0240308BF1C237F68D8F8146058F88E
:1013780003303F68D7F80455354211D0A468640794
:101388000ED10468D9F8D050A54209D144693CB9B6
:10139800D8F80040656A25F002056562C7F804655B
:1013A8009B685B0702D00BF1010BC3E759F80230C9
:1013B800002BF8D049F802A0B1FA81F1D9E93442FA
:1013C8004909006849011A448442C9F8D420C9F877
:1013D800E01028BF82420CD24846414600F048FC43
:1013E80099F8FE000028DED004F094F918BF88624E
:1013F800D9E704F079FAD9F8C820D9F8C010019BC8
:1014080081F810A022B113465269002AFBD1143387
:101418001960C9F8D4A04A69C1F814A0D9F8E01035
:1014280000294FF0DC01C9F8C02008BFD82159F8BD
:101438000110C9F8D01004F03EFBD9F8C00058B12B
:101448004846414600F014FC99F8FE0050B104F0FB
:1014580061F918BF886205E0D8F80000416A21F0F8
:1014680003014162029802F0A3FE9CE7D9F8C0206C
:101478003AB103211174BDE8FE4F02F013BABDE87A
:10148800FE8F486820F002004860486A20F0030098
:101498004862D8E904021043D9F8CC20526812688F
:1014A800D062C2F80405486920F0010048610120B3
:1014B80008624046BDE8FE4F03F09BBE2DE9F84F99
:1014C80094008046DDF828C0200408BF4FF4487413
:1014D80008F2022298F81202032522F8104001307F
:1014E80000F00700BCF1000F88F8120218BF0225AF
:1014F800D8E96567E94026FA05F03144081AC8F8C2
:101508009401C01B88BF07EB900798F8131278085E
:10151800C8E9677007290B9F9CBF013188F813122F
:101528000E46002526B132F8020B013E0544F9E7C4
:10153800B5FBF1F098F8FBA108F5DD7981B2A8F8C0
:10154800FE018808A8F8FC0198F8FA0129F810406B
:10155800013000F01F02BAF1200F88F8FA213CBFD1
:101568000AF1010A88F8FBA101203C817B605FFA3F
:101578008AFB38704EF66020B0FBF1F1F97298F8EA
:10158800181221F050016CF38611397488F818127A
:10159800A1B200EB5100B0FBF1F0C0B21E28014629
:1015A80098BF1E21DC2888BF6FF02301BBF1020F12
:1015B800B97202D20020B88142E01746002059468D
:1015C8004A4621B132F8023B01391844F9E7B0FB29
:1015D800FBF200205B464E46002133B136F8025B31
:1015E800013BAD1AC5FB0501F7E75A4600230094F5
:1015F800002604F0CBF803F06FFD0B99ABF1010264
:101608000025D3B28881A7EB0A000021ECB29C42E6
:101618000ED22C18013504F01F07013404F01F0402
:1016280039F8177039F81440E41BC4FB0461EDE77E
:101638003046002304F0AAF803F04EFD0B9F009CEF
:10164800F8810020A8F80042C8F8B001C8F8A40141
:10165800BDE8F88FB0B560480021604C016094F88F
:101668003A01032812D002282ED0012840F0AF807A
:1016780094F8400102F054FB002084F840015948D6
:10168800817B0220002908BF06209EE0544801689B
:10169800B1F5C060C4F82C01B8BFC1F5C060D4F87A
:1016A8001011002900D5494288422ADDD4F81401D6
:1016B80003F0E8FDD4F8180103F0F6FDD4F828018A
:1016C80003F016FE01201DE04548056804F0ACF85B
:1016D800C4F8140104F0B0F8C4F8180104F0B4F820
:1016E800B5F5C061C4F82801C4F8101109D094F800
:1016F80030215AB1D4F81401D4F82021D4F82C118F
:101708000AE0002084F8300106205EE0C4F82401D5
:10171800D4E94502C4F82C110223C4F81C0100299D
:1017280001EB410148BF6FF001031944042391FB09
:10173800F3F111440029C4F820110FDD1F2931D31A
:10174800D4F824212AB33E28A8BF3E2001302929F5
:10175800A8BF2921C4F81C010B3909E0D4F82421B9
:10176800032A09D111F1140FD8BF6FF013011531F5
:10177800C4F82011002113E00128D8BF0120013846
:1017880011F10A0FD8BF6FF00901C4F81C010B3121
:1017980003E03329A8BF33211539C4F820110321E8
:1017A800C4F8241103F06EFD012003F08FFDD4F876
:1017B800200103F079FDD4F8240103F099FDA5F286
:1017C800FF510420032938BF0620C4F83C01BDE8B6
:1017D800B04000F0A5BE00BF3C500C4028080020D7
:1017E80008400C40486000002DE9FF47D0E9015946
:1017F8000E46044604F078F895F8FD1021B9716991
:10180800102901D8032906D804F055F900242046E8
:1018180004B0BDE8F087012785F8FD7004F04BF9A6
:1018280000204E4A85F8FC00C5E93000C5F8C8001C
:1018380085F8FE003069C5F8E4007069C5F8E8006D
:10184800307B85F8F9000028317885F8F810716840
:10185800C5F8EC10B9F80E10A5F8F610317E52F85C
:10186800211085F8FA1008BF1027C5F8F07099F80C
:101878000C0001F0DDFC204602F062FE99F83B0006
:10188800374985F8FB008A46D4E901873A6B97F80F
:101898003A0001F075FC7A6B98F8FB00514601F0AC
:1018A8006FFC98F8F91097F83800012915D1FA6AF1
:1018B800514601F065FCBA6A97F8390046F2020110
:1018C80001F05EFC98F8FB00264903F00BFE98F83F
:1018D800FB00214603F0F6FE0AE0BA6A46F202016E
:1018E80001F04EFCFA6A97F83900514601F048FCBD
:1018F800E846404603F054FF99F805001A4A434663
:10190800CDE90040284699F8041002F0D9F840467D
:1019180003F0CAFFD9F8080014494246009402901F
:1019280005F1300001F00AFB02F0E0FB104AC5F8AF
:10193800CC0005F11C000421234603F0EBFC95F8CC
:10194800F80008B1B06805E005F16C00002103F06B
:101958009BFD0848C5F8BC0059E700BFD45F0000EC
:10196800026000203928000001130000E145000052
:101978006D5A0000F75A0000FEB504465A48007830
:10198800A04213D908780D46012801D1686868B1CA
:101998006878012801D1A86840B1544F57F83460DD
:1019A80003F0A2FFF17921B104F085F80024204664
:1019B800FEBD07EBC40401216768F17104F07BF8F0
:1019C800002005F1040C7074F081B0603060298843
:1019D800B180A98BC6E93D00C6E90E0086F864000F
:1019E800B186297D2B69B1719CE80610C6F8502193
:1019F800BCF1000FC6E910C34FF0FF32C6F8CC1097
:101A0800A969C6E93B203163A97F86F83610296A9F
:101A1800C6E91A00C6E91C00B16486F8E800C6F8F1
:101A2800580102D13249C6E9101097F8400001F078
:101A3800FFFBD7E9031206F14C0003F02DFFD7E9AD
:101A4800051206F1D00003F027FF2A493868096813
:101A5800C96888477A6C97F8240046F2020101F0B9
:101A68008FFB254DBA6C97F82000294601F088FBBA
:101A7800F86901280CD1FA6C97F82800294601F07A
:101A88007FFB3A6D97F82C0046F2020101F078FBD3
:101A980002F02CFBC6F85801204600F0C7FD174A93
:101AA80006F5AE700421234603F034FC6D46284643
:101AB80003F076FE387A7968114A2B460094019033
:101AC80006F1140001F0FCFF06F17C00002103F090
:101AD800DBFC06F58070002103F0D6FC3868D7E9F6
:101AE8000C121060486062E724620000DC610000AC
:101AF80093470000D00100100260002059570000F1
:101B08003D0F00002DE9F84FD0E900B7984616467A
:101B18008946054613B10020C8F800008EB103F0CD
:101B2800EAFE824603F0E0FE04469BF8070060B137
:101B38009BF8E80078B103F0F0FF6FF00800BDE80B
:101B4800F88F6FF00900BDE8F88F03F0E6FF6FF03B
:101B58000E00BDE8F88F00200121CBE93B96CBF8B9
:101B6800F460CBF8FC008BF8E810CBF83C008BF85D
:101B78000D008BF80B000BF580700021009001F030
:101B880045FE384603F062FFBAF1000F02D19BF818
:101B9800050070B3284601F033FA03F0BEFF9BF846
:101BA800050068B90A99009801F030FE10B10120CB
:101BB8008BF80D00284601F005FF00208BF8E8009F
:101BC800B8F1000F1CBFDBF8FC00C8F800009BF858
:101BD8000B0030B100208BF80B006FF00D00BDE852
:101BE800F88F9BF80D00002818BF6FF00C00BDE8B7
:101BF800F88F03F092FFD5E9007497F84400C00607
:101C080015D5D7F840C0BB6C284610210022E04704
:101C18000DE0D7F8FC00314609EB0002204603F03E
:101C2800D3F8D7F8FC10361A0144C7F8FC10002E78
:101C3800EFD1204603F048FE0028FAD0204603F0F2
:101C4800F9FE97F84400800605D53C6CBB6C284625
:101C580020210022A0470020B8F1000F87F8E800F3
:101C6800C5D0D7F8FC00C8F800000020BDE8F88F00
:101C78002DE9FC4FD0F8C080D0F8D0C0D0F8E820CB
:101C8800D8F80030C346E6469C4511D3D8F814B0BE
:101C9800BBF1000F00F0898090F8FC3005244FF06C
:101CA800000E002B08BF0124DBF800308BF8104031
:101CB800A3EB0E05A2F1080AB5F5806F28BF4FF413
:101CC8008065D0F8D82032B101F1200301F1240257
:101CD800C0F8DC5005E0C0F8D85001F1180301F154
:101CE8001C020026BAF1000FC8BF0126DBF8044029
:101CF80012681F68CDF800E07CB1354B53F82630E8
:101D0800BB6005FA06F30126BAF1000FC8BF022628
:101D18000EFB06332344013B05E02E4B53F82630D7
:101D2800BB6000F1F6033B6043F6F0740191D1F813
:101D3800009004EB0516264009F1080EC7F804E0E8
:101D4800BC683443BC600024BAF1000FC8BF01244A
:101D5800DBF808709FB16146DFF87CC05CF824307E
:101D68008C46936005FA04F30124BAF1000FC8BF4A
:101D78000224009901FB043139444C1E05E0154941
:101D880051F8241000F1F40491605460C2F800E0A6
:101D9800916831439160C34504BF05EB0C01C0F85D
:101DA800D01090F8FE10019A09B1BDE8FC8FD9F85F
:101DB800241041F00301C9F82410D0F8CC00D2E96E
:101DC80004124068114300688162BDE8FC8F00BFBF
:101DD800BC5F0000C45F0000CC5F00002DE9F04745
:101DE800012816D1DFF830A1DAF83401012813D11F
:101DF8000220CAF8340103F037FD0120012403F062
:101E080075F860B1CAF8344103F0F6FD4FF0FF34BD
:101E18007FE06FF001047CE06FF0040479E09AF849
:101E28005A419AF859119AF85801002C18BF012400
:101E3800002918BF0234002818BF0434012003F019
:101E4800C3FD013818BF01209AF83811B1FA81F1A1
:101E5800490910EA010902D1002001F007F8DAF86F
:101E680008002E4D10F0010807D12D4F286A81680F
:101E7800384688470428F9D00646404603F00CFE49
:101E8800B8F1000F08D1012E04D1286A0121426857
:101E98002348904703F0C0FC2868416920468847DA
:101EA8009AF8540118B14FF4806003F093FD9AF842
:101EB800530118B14FF4816003F08CFD19480121DA
:101EC800016003200021CAF8340117480160204648
:101ED80002F0A0FC0128FAD1144E3068042003F067
:101EE80005F8044612480125B9F1000F056030686D
:101EF80002D1012000F0BAFF03F0EDFD082002F046
:101F0800F5FF0443CAF8345118BF4FF0FF3403F00B
:101F180073FD2046BDE8F08728080020B8010010AE
:101F280000400340282008600C2008402C2009406D
:101F38000C4009402DE9FE430446112002F088FDBB
:101F48004FF47A7003F017FE0120012102F0D2FA53
:101F5800032C1DD0022C0ED0012C27D1414C02207D
:101F6800A321A04704200521A04705200521A0475B
:101F78003F4C012618E03B4C0220A0210226A04736
:101F880004200121A04705200121A047374C0BE080
:101F9800344C0220A021A04704200421A04705209A
:101FA8000421A047304C0326832515E02D4C022040
:101FB800E021A04703201021A04704201021042677
:101FC800A04705200021A04706202C21A047072074
:101FD8000C210725A047274C09200021002702F0E3
:101FE80089FA0A20294602F085FA234846702046D5
:101FF80003F0B4F92148224CA0471820012103F02E
:10200800FBFB42F21070A047102002F021FD4FF4B4
:102018007A70A04744F61F640DF108080DF1040911
:102028000DF10306032F12D00025172003F040FB03
:1020380030B1A54204D80A2003F09DFD0A35F4E723
:1020480040464946324601F03BF80137EAE70D4879
:1020580001F074FD0C482821203003F0B8FBBDE8DE
:10206800FE8300BFFD440000CF6000003160000027
:102078001B6000005C600000A80B0020A086010027
:102088007F5B000000000020400B00202DE9FF4787
:10209800044645480078A0420AD9444F0D4657F8EF
:1020A800346003F021FC96F8E01031B103F003FD31
:1020B8000024204604B0BDE8F08707EBC4044FF0C5
:1020C8000109D4F804A086F8E09003F0F4FC9AF82B
:1020D800100001F0ADF8364F002D18BF2F46354DD2
:1020E800F868411C002808BF0AF11301097808BFE5
:1020F8000AF11100007886F82511294686F824018E
:102108009AF8122001F03CF89AF8142096F8250164
:10211800294601F035F8DAF800004FF000086D465E
:10212800C0F810883978317079687160397AC6F8E2
:102138002011C0F81C98284603F032FBDAF8080092
:102148001D4A2B46CDE9004006F11400DAF80410C8
:1021580001F0B6FC284603F0A7FBDAF80C00174993
:102168002A460094029006F1E40000F0E7FE06F12A
:102178003000012103F088F9307830B906F1800089
:10218800002103F081F90E4870602046C6F81080DF
:10219800C6F80C8002F094F80A4A06F596700421F5
:1021A800234603F0B7F884E722620000D4610000F8
:1021B8009060000000400024252A000099350000A6
:1021C800C75A0000F55600002DE9F04790460C4626
:1021D80006464FF001096068D6E9007A10B9E06850
:1021E800002848D003F080FB3978012901D1F9682B
:1021F800B9BBFC603C61C4F8149003F05CFC07F1C7
:1022080030050021284601F001FB013008D138785B
:102218000128E0D02846414601F0F8FA013030D0D4
:10222800387820B907F18000002101F0EFFA03F0B7
:102238006BFCDAF8040003F0A9FB3046214601F0F4
:102248001BFE8146DAF8040003F0A6FBB9F1000F83
:1022580002D003F056FC44E0387808B34FF0000988
:102268003FE0F96849690A3110D16FF00A016161EC
:10227800D4F8149011E06FF00A006061D4F814905B
:1022880032E06FF00209C4F814902DE001214FF0FC
:102298000009616139693C61CC6103F00CFC23E001
:1022A80007F180094146484601F0B0FA013016D1DD
:1022B80003F01AFB8046F86870B1304602F021FF3F
:1022C800404603F0F8FB48464FF0FF3101F09EFA14
:1022D8006FF00200606102E0404603F0ECFBD4F8C6
:1022E8001490284602F03AFB4846BDE8F08770474C
:1022F8002DE9FF413B4E96F8420100286AD10120A2
:1023080086F8420103F06CFB374F86F87001374DB1
:102318007868C6F86C01387B86F84101A86810F423
:10232800402F13D1386988B128686421C0F306604A
:1023380000FB01F403F01EFBB4FBF0F22C4906F19C
:102348009400002302F06EF903F05EFA01AC204617
:1023580003F08EFB2749A846002506F10C00002251
:1023680003F0D0FA204603F083FB234906F150001E
:10237800082203F0C7FA214A06F1D80032210023C7
:1023880001F09EFB1E4C1F4A06F1F4002C2100238D
:102398002560454601F094FBD8F80800797BC0F326
:1023A800815021B1032804BF012186F8391103287F
:1023B80003D040F00200022810D1206840F040000D
:1023C8002060022002F062FD6868400702D4002005
:1023D80002F05CFD002004B0BDE8F08102F0E2FBF1
:1023E800F2E700BF2808002048600000AC4F00500A
:1023F80045590000DF570000A5480000F13E0000E5
:10240800902208405D1600002DE9FE4FD0E90085B6
:10241800994614460F46834613B10020C9F80000B8
:1024280074B103F061FA064698F8070058B198F8B5
:10243800E80070B1304603F03EFB6FF008046CE032
:102448006FF0090469E0304603F035FB6FF00E04C5
:1024580063E000200121C8E93B74C8F8F440C8F8DB
:10246800FC0088F8E810C8F83C0088F80D0088F8E7
:102478000B002846019503F0E9FA304603F01BFBF0
:1024880008F1D0060DF1080A03F02EFA044630468A
:10249800514602F072FDD8F8F450D8F8FC10A84262
:1024A800394438BF054602982A4603F067FB304690
:1024B800294602F093FBD8F8F400D8F8FC10401B2A
:1024C800C8F8F4004819C8F8FC00204603F0F3FAED
:1024D800012D03DBD8F8F4000028D5D103F004FA65
:1024E8000746D8F8FC0050B1019803F0AFFA5846F7
:1024F80000F086FDD8F8FC0010B1002402E00020AE
:102508006FF00F04B9F1000F18BFC9F800000020E0
:1025180088F8E800384603F0CEFA2046BDE8FE8F7A
:102528002DE9F84F3C4C3D4E3D4D42F62A294FF0DF
:10253800010A4FF0030B00274FF00508D4F83C01BF
:10254800062833D8DFE800F00433183B203D4B0061
:102558000F20F060C6F8109002F05CFA45F804AC61
:1025680055F8040C8007FBD5C6F81CA094F839016F
:1025780090B10120EF6210E02F60C4F83CB12868E8
:102588008007FCD40320DBE72F60C4F83C8128686F
:102598008007FCD40520D3E70320C6F800B0C4F8B0
:1025A8003C012F6029688907FCD4C9E7FEE70126AA
:1025B800022084F83A6102F091F92E6009E00220C5
:1025C80000E0032084F83A01002002F087F9012096
:1025D800286004F15000BDE8F84F01F015BC002058
:1025E80045F8040C286055F8040C8007FBD42868CB
:1025F8008007FCD40B480025012105600A480160CA
:102608000D2000F01DFF022002F0AAFBC4F83C5187
:1026180084F83B51BDE8F88F2808002000400C40A2
:1026280058600C403C500C4004800C40FEB5D0E98A
:10263800005401A803F0D0F895F834003649374A19
:10264800384E085C95F83510515C354A084395F8C2
:102658003610515C2A6B40EA0103316820684F68E4
:102668000299B847206840F2F272E1692E4B2F4F69
:10267800426494F854209A5C94F85530FB5C1A43F1
:102688000129426311D10146D4E90A2351F8307F68
:10269800FF2A27F4004718BF07F50047FF2B0F60F4
:1026A80009D00A6842F4804208E0014651F8302F08
:1026B80022F400420A600A6822F480420A60C16A71
:1026C80041F01001C162016B41F001010163E16B4E
:1026D80009B3A16BF9B1012102F0BCFFD5F858018B
:1026E800E16B40680068C162C0F8041591FAA1F175
:1026F8007268B1FA81F15368022298477068A16B39
:1027080002224368D5F8580191FAA1F1B1FA81F192
:10271800406800689847FEBD13620000266100000B
:1027280004620000D00100100E620000096200007F
:102738002DE9F047A4B003F0D7F833490A78012A05
:1027480004D124B0BDE8F04703F0B5B94FF0010952
:1027580081F8009003F0AFF9FFF7CAFD082000F0F8
:1027680067FD21AC204603F01BF8DFF8A0A0294A3A
:1027780010212346DAF80C002290254801F0A0F930
:102788002548002501AE0478244890F80080474683
:10279800A74213D8DAF8000050F8271021F0FF00FC
:1027A80046F82700880707D4F8B201F0010103F0C2
:1027B80023F809FA07F005430137E9E718480560E7
:1027C8001848C16801F44001B1F5800F07D10068CD
:1027D800000E56F8201041F0070146F82010124864
:1027E800A4EB0802042306EB880103EB820240EA0B
:1027F800880003F0C3F90D482022016862F30D2117
:10280800016024B0BDE8F087FE0B00208060000066
:10281800F80700209547000047600000835E00002D
:10282800D0200240A84F0050001008400030094056
:10283800F8B5044602F0D8FF07464568204602F07E
:1028480037FFB8B1D7E9014603F04EF80546D4F88A
:10285800C000B8B104210174384600F039FFD4F83B
:10286800C800B0B1014640690028FBD1D4F8C000C7
:10287800486112E003F038F80446D5F8C00078B390
:10288800103034E03068416821F002014160284688
:1028980030E0D4F8C000C4F8C80041690027476197
:1028A800C4E93477C4E93677C4F8C01031B3204698
:1028B8003146FFF7DDF9D4F8C000C4F8E0700068CD
:1028C800B0F5806F03D920463146FFF7D1F994F867
:1028D800FE0010BB3068416841F0020141601CE015
:1028E80095F8FB00002102F0B9FA05F1FC0001217E
:1028F80001702046BDE8F84003F0DDB894F8FB000D
:102908000021C4F8C47002F0A9FA012084F8FC0080
:102918003068416A21F003014162284603F0CBF890
:1029280004F13000BDE8F84001F042BC2DE9FC4755
:1029380006680446707A00286BD0D4F80490D6F85C
:102948005801D0F80480D9F83470204601F036FBDD
:10295800706F20B306F14C05284603F004F9316F77
:10296800884221D2307902281ED0B06E002850D07B
:10297800204601F023FB346F284603F0F4F8201AB0
:10298800D6F868A0B46F7067284603F0ECF8002109
:10299800F1740AEB040108440190706F0CE0B06E0A
:1029A80010B1306F0028D5D106F14C0001A902F012
:1029B800E4FA01217067F17458B30021B0F5806F13
:1029C800B17384BF4FF4806070670123019901449B
:1029D800013979601049B96043F6F07101EB0010D4
:1029E8000840B9680843B860D9F83C10D9F8000025
:1029F80091FAA1F2B2FA82F203FA02F2D8F80030A0
:102A08009A61D6F85821526812689162012102F041
:102A18002DFEBDE8FC8700BF0180000C70B5D0E931
:102A28000052044601211068C0F81C18D0F8041898
:102A3800C90718BF70BDD0F80438A9684E690A36AE
:102A480014D0D5F8D46013F0120F17D01EB903F0C4
:102A58001F060A2E21D05A076FF0040258BF6FF0E4
:102A68000502DB0648BF6FF006024A61042103F045
:102A780004F82046BDE8704002F095BD6EB1721EA4
:102A8800C5F8D4202CD0D5F8D0104A1CC5F8D020D1
:102A98000978C0F80818012117E0D5F8DC10C1B191
:102AA8000139C5F8DC10D5F8D8104B1CC5F8D8305A
:102AB800D0F8080808700121D5F8DC00002808BF04
:102AC8000421012888BF09211068BDE8704002F080
:102AD800D4BF042102F0D1FFA86800214161C8E7F2
:102AE800D5F8DC2052B1098B012361F348030B218F
:102AF800012AC0F8003808BF0321E6E70421E4E70B
:102B08002DE9F84315460C46804601F055F82C4847
:102B180000212D4F01602B48814600683868816983
:102B280027208847294E2A49306B08403063B06F08
:102B380020F48070B0673868016B4FF48060884774
:102B48003868016B4FF4816088473868016B4FF42F
:102B5800C06088471F48012101601F48C6F88041AE
:102B680031600168890704D4691C08BF4FF04045EB
:102B7800C560D9F80000F0698007FCD5072001F08E
:102B880027FE0228FAD1B8F1000F13D1134C386A86
:102B98008168204688470428F9D0012804D1386A7A
:102BA8000321426820469047D6F8180220F0030017
:102BB800C6F818023868806BBDE8F843004700BFC4
:102BC8000C4009402C200940B80100100C20084096
:102BD800FFFFFEFE28200860100009400040034067
:102BE80070B52039062918D8DFE801F01A23042D1A
:102BF80038404800147800222321FF2CF1D0D0E976
:102C0800015695F8FB0001F0C9FE726B2B4920466E
:102C180085F8FB4000F0B4FA49E06FF001044AE09F
:102C2800406890F8F910012943D1012180F8FC107F
:102C38003DE045680021002495F8FB0002F00EF9FC
:102C480085F8FC4037E0446894F8FB00FF282ED054
:102C580001F0A4FEFF2084F8FB0028E04068D0F8CB
:102C6800C01031BB012180F8FE1020E04068D0F888
:102C7800C010F1B9002480F8FE401CE04168D1F88A
:102C8800C020B2B191F8FE209AB180680268D0E9FC
:102C98000430546A184344F003045462D1F8CC1049
:102CA800496809688862506840F002005060002452
:102CB80001E04FF0FF34204670BD00BF02600020E5
:102CC8002DE9F84302F010FE2F4F044697F8410112
:102CD800002854D002F08AFE02F094FE054600F067
:102CE8000C000C2803D100BF00BF30BF45E06807C7
:102CF80028D402F09BF8DFF8948081460121D8F8A7
:102D0800000000FB09F6012002F016FC864219D9E2
:102D1800D8F80000F02107F10C05B1FBF0F0A9EBA1
:102D28000001284602F00DFF284601F06DF800BFAB
:102D380000BF0120FFF752F800BF00BF284602F08D
:102D4800DAFE1CE000BF00BF280715D4104F114E53
:102D580038688168304688470428F9D0B0FA80F08E
:102D680005F01001400940EA111002F0F4FE0A488B
:102D780001210160006800E030BF00BF00BF2046AD
:102D8800BDE8F84302F097BE28080020F40B0020A5
:102D9800D8010010004003402C20094070B5254898
:102DA800066802F0EBF924480025244C0560206CE5
:102DB800806C80472248006838B122480068B6F124
:102DC800FF3018BF304600F08BFA1F4840F2391226
:102DD80005601E48016862F31B4101601C480168D8
:102DE80001F44051B1F5805F06D10168194A1140DC
:102DF80001F5003202600160174D0126EE6120687E
:102E0800016A142088471548016841F4E0210160EF
:102E180013482E60006800F44000B0F5000F03D19D
:102E2800206C416C0F4888470F4801680029FCD185
:102E380070BD00BF1C13005084046042B001001034
:102E480080012843800520438C2108404820034006
:102E580028000940EFFFFCFC000024430020094043
:102E6800B44F0050BD3786000C00684270B5F8B109
:102E7800012858D1012002F0A7FD012853D02D4C7C
:102E880094F8380100284ED12848294E0569306841
:102E980010F4402F30D17DB302F0D6FA502002F062
:102EA80036FE0120A84704F1940000F0ADFF25E0AC
:102EB80002F04FFE1E48006810F4402F0AD11B484C
:102EC80004693CB11B48943002F015FE02F0ACFADC
:102ED8000020A047174C94F8380120B31648016821
:102EE80021F08001016080218160032001F038FF1A
:102EF800002084F8380116E002F02FFE012084F843
:102F08003801306810F4402F00D14DB9207A80067E
:102F180006D4094880218160016841F08001016080
:102F2800032001F0B3FF002070BD00BF486000001F
:102F3800B44F005028080020902208402DE9FE4F89
:102F480098B116468A46804602F0CEFCDFF89C907F
:102F5800834699F8000000BB254D2C274C2F06D03E
:102F6800E81902F0E3FD0837F8E700263AE0002008
:102F780001276C466860A860EF602870204602F060
:102F88000FFCE0201C4A234601901A48016805F10D
:102F9800100000F095FD89F80070584602F08BFD8E
:102FA800164D002E18BF3546AF68781C08BF03279A
:102FB8000026032F16D8404602F0B8FD95E81E00FB
:102FC80008F10C001EC0C8F824604646C8F8147002
:102FD800074800EBC7002C30C8F80800D8F81800DC
:102FE800C8E907A03046BDE8FE8F00BFFC0B0020F3
:102FF800F00A00203C0B0020A3560000A06000004F
:10300800F8B505680446D5F8F80000B1F8BD687948
:103018006668022807D105F1D000694602F0B0F9C8
:10302800C5F8F80009E0D5F8EC10D5F8FC20D5F87B
:10303800F4001144C5F8F80000910028E6D0316882
:103048008A6B22F400628A6395F84410C9060AD58F
:103058002F6C47B1297A31B9AB6C20461021002278
:10306800B847D5F8F800B0F5806F84BF4FF480609A
:10307800C5F8F8000099336B01444A1E3168B66BF5
:103088001A600E4A9A6043F6F07202EB0010104084
:103098009A6810439860D5F85801406800688662BD
:1030A8000846022102F0E2FA287A0028AED120462A
:1030B8000121012602F08AF82E72F8BD018000C0B5
:1030C8002DE9F0418CB0164688460546002444F6A2
:1030D8001F67172002F0ECFA30B1BC4204D80A206E
:1030E80002F049FD0A34F4E7002744F61F608442E1
:1030F8003FD868468DF81470CDE90377CDE9097794
:103108000B97089003A88DF80870CDE90077079011
:103118000920069002F030FB1848C06806A902F0A2
:1031280008FD074602F059FA1FB39DF800009DF804
:1031380005209DF804109DF8073030709DF90300B4
:10314800C4B2002842EA044242EA012148BF01F120
:103158007F419DF906009DF808202960C1B200282A
:1031680042EA014141EA032148BF01F17F41C8F821
:10317800001038460CB0BDE8F08100BFA80B002055
:103188002DE9F84FFF2831D0264B0C4605464FF461
:10319800BE21AF0004F0020843EA80004158C9B2DA
:1031A800914227D121489A464FEA142947EA000656
:1031B800834602F099FB0BF10101220C86F800907E
:1031C80039430A7046F00201220E0A7002F073FCBD
:1031D800B8F1000F02BF45EA0A0004F001010170CE
:1031E8001148012181EA5801384316E04FF0FF30B9
:1031F800BDE8F88F00F5BE2024F0FF0162B9B8F1F0
:10320800000F02BF2B4304F001041C70064B01247D
:1032180084EA58043B431C60114301600020BDE868
:10322800F88F00BF00200240001A444201100840F5
:103238002DE9F041254E0546371802F055FB0446A6
:1032480097F84A01411C87F84A1128B1204602F034
:1032580032FC0020BDE8F081DFF8748018F8257092
:1032680007F03F00142898BFFFF7E2FF08EB85003E
:10327800458878B2B0F1FF3F0CDD78061FD41548B9
:103288000068416928468847284601F0C3FA0128A2
:10329800FAD1DBE70F4E3068C169284688473068A5
:1032A800416A284688473068C16A284688470A48DC
:1032B80001210160094801688907FCD5C6E706EBCA
:1032C8008500D0F8601101208847BFE72808002052
:1032D800E45B0000B801001028200860282008409E
:1032E800F8B505462248234E4168890705D4016888
:1032F800F02242EA114186F84D101F494FF0012291
:103308001F4F0A601D490988396809688468204682
:103318008847A00105D4E00103D5307840F00200C9
:1033280030703868214642682846904701F012FFFD
:103338001448154A0068C0F305311170C1054FF0F3
:10334800130158BF232140237354382101EA9010F8
:1033580000F56050A2F85C0038688168204688470C
:10336800022001F0AFFB094801210160F8BD00BF50
:10337800AC4F00500962084004A40C4000A00C4067
:10338800F00100100C1400500EB00C409404604280
:103398008B4208BF824207D9009A002A01D01060E8
:1033A8005160002100207047002B08BF002A10D16F
:1033B800009A002A01D01060516002000B00002121
:1033C8000020002B08BF002A1CBFC943C04301F0DE
:1033D800C0BEF0B51C4615460B460246002000212B
:1033E800B4FA84F6202E04BFB5FA85F62036B3FA6F
:1033F80083F7202F04BFB2FA82F72037F61BB6F105
:10340800200727BF05FA07F400257F42B4403EBFD6
:1034180025FA07F73C43B540A34208BFAA4201D3A7
:10342800521BA341404149416D0845EAC4756408EF
:10343800761EF1D5059F002F01D03A607B60F0BD64
:10344800F8B5254F05463E1802F04EFA044696F8A0
:103458004A01013886F84A01000637D11F4810F999
:10346800251000EB85004588CEB2B1F1FF3F0CDD99
:1034780070061FD41A48006881692846884728467C
:1034880001F0A6F90228FAD11AE0154F3868016A46
:10349800284688473868816A284688473868016B13
:1034A800284688470F48012101600F4801688907AD
:1034B800FCD505E007EB8500D0F8601100208847AF
:1034C80006F03F00142898BFFFF7BAFF204602F025
:1034D800F2FA0020F8BD00BF28080020E45B0000D5
:1034E800B801001028200860282008402DE9F04184
:1034F80002F0FAF9254F804601210124D7F89000FF
:1035080001F048FCA7F8A0400646B868D7F89840EC
:10351800B968711A201A884203D9002087F8A000D8
:103528002EE0404602F0C7FA351B0026B54207D305
:1035380034440120AD1B214600F00CFD0646F5E79A
:1035480002F0D2F9804697F8A10020B10020214668
:1035580000F000FD0646701C06D0D7F89C00711BD1
:10356800814238BF084601E0D7F89C00011901F0F4
:103578004BFF002087F8A000012087F8A200BC605C
:103588004046BDE8F04102F096BA00BFF8050020B9
:1035980070B505680446A96848690A301BD16B688C
:1035A800204600229847A8686FF009064661022065
:1035B80001F0D6FBE8682969884213D06B68E8688F
:1035C8000022C069E860E86846612046E9689847D3
:1035D800E8684661EEE74869033008D100202861B1
:1035E800E86020E00020E860A860286170BDE86815
:1035F8002A69904211D06B68E868C069E86002F0F7
:10360800DDF9E968204600F037FC0028EED005F126
:10361800E400BDE8704000F0CBBD0020E860286100
:103628006B6802F0CBF90220BDE8704001F098BB4E
:103638002DE9FF470446E0B315460E4602F054F95B
:10364800DFF87890074699F80000A0B90DF1040852
:10365800404602F0A5F8DFF868A08020194A142136
:10366800434602900AF1040000F02AFA0120CAF841
:10367800004089F80000384602F01DFA0020E66094
:10368800124AE0626062C4E90500E0610E48002D5C
:1036980018BF28460023017821704168A16081681D
:1036A800002002F073F8A06220622061606002F0DE
:1036B80045F8204604B0BDE8F08700BFFD0B0020A8
:1036C800880B0020455600004061000040420F0072
:1036D800F8B5D0E901650446287902F057F9D6F81B
:1036E800CC206969286852681268D16296F8F93066
:1036F80013B9C368DB06FCD4436823F002034360B4
:103708002B69D3621943476A27F003074762C2F857
:103718000415416921F00101416101210162D6E9E5
:103728003512D6F8C00001604AB1EB699B68C3F353
:1037380009139A4203D91144DA4311440160D6F8B7
:10374800DC204AB16B6A9B68C3F309139A4203D918
:10375800DB431A4411440160204600F0F1FE287949
:1037680002F00EF92879BDE8F84002F015B9704763
:10377800F8B50C462249C978012918BFF8BD1E289A
:1037880001D3DD2807D34025002C18BF6FF03F0573
:103798002E46284620E0C2B20A2564262746B2FBF8
:1037A800F5F1B2FBF6F3642801EB8101A2EB4101CC
:1037B80003FB160226BF1348C05C0020114B002CE7
:1037C800D2B2595C18BF80273843B2FBF5F241EA00
:1037D8000705995C41EA07060B4FC1B23420B84788
:1037E800F1B23520B847E9B23620B84701213A4648
:1037F800002C18BF0F213720BDE8F840104700BF44
:10380800A80B002062610000054700002DE9F04385
:1038180091B00E4621490446684600234FF000083F
:10382800324601F0E1FD701E10F1030F02D8684620
:1038380000F0EAFA02F058F8194F0546012001365F
:10384800E9467870E068A0B91EB1484602F077F9F9
:1038580078B1606800B18047284602F02CF9B87842
:1038680018B102F009F887F8028002F03DF8054621
:10387800E8E700207870E06820B1E0680138E0608F
:10388800002400E0FF24284602F015F9684601F0FC
:103898007DFE60B211B0BDE8F08300BFEF530000B9
:1038A800D00B0020F8B5D0E90167054602F01CF8F6
:1038B8000446D6F8C00098B396F8F81019B9007CF9
:1038C8000338012831D82846FFF702FFD6F8C00090
:1038D80000220223016805463DB12F7C033F022FD9
:1038E80028BF2B742A606D69F6E73246016052F8EA
:1038F800C81F21B10A4649690029FBD1143210605A
:103908000020C6E93000C6E93400C6E93600204682
:1039180002F0D1F806F13000BDE8F84000F048BCEC
:103928003868416821F0020141602046BDE8F8404E
:1039380002F0C1B82DE9F84F214F83464FF0010836
:103948004FF002094FF0000A7868A0B3F868012820
:1039580031D178680324082121B1014203D14908F3
:10396800013CF9E7002407EBC40000F12C063046BF
:1039780001F026FE0546304602F04AF828B179687B
:1039880008FA04F021EA00007860A869296AC5F8F5
:10399800249028625846B96002F08DF8D5E90301F1
:1039A800EA69904701F0A0FF8346686A022808BFC9
:1039B800C5F824A0C8E700203870BDE8F88F00BF1C
:1039C800F00A002070B50568D5F8F81031B3D5F8BD
:1039D800582144685668A16B20683268D162022178
:1039E80001F038FED5F85801A16B154A4068006807
:1039F800C0F8041591FAA1F112683068B1FA81F1A2
:103A0800926990470446D5F8F800011B68790228A6
:103A180006D105F1D00001F099FA0BE000240CE082
:103A2800D5F8F400D5F8FC200A44401AC5F8FC2063
:103A3800C5F8F4000020C5F8F800204670BD00BFA6
:103A4800D4010010F0B587B0194E307868BB194C16
:103A5800204602F06BF800200127A060C4E9267018
:103A6800C4F89F00C4F8947003AD284601F01CFF09
:103A78004FF0FF3010492A46059004F10C00FFF77B
:103A88005DFA6D46A064284601F016FF70680B4980
:103A98002A46029004F15000FFF7CAFDC4F89000CE
:103AA80001F07FFCC4F89C00377007B0F0BD00BF80
:103AB800F00B0020F8050020F534000071590000D3
:103AC800FEB568B11E460D4604465BB17068C1B2CA
:103AD800FF2910D015490968A9420ED0E0280CD159
:103AE800002421E001206E468DF808004FF0FF30D9
:103AF800019000200090C02070600D480D4940F8EA
:103B080025403068C4E90052A060284601F04CFA0C
:103B1800094F31793868826828469047307A18B159
:103B280038680169284688472046FEBD3C0B0020BE
:103B38009C09002025550000B0010010C8B3B0B59D
:103B48000446E430982101F042FE00203D21C4E9FA
:103B5800600084F88801204601F039FE04F1400035
:103B6800892101F034FE04F1CC00152101F02FFE6B
:103B780004F5C6702C2101F02AFE0120422184F8A8
:103B8800B80104F5DD7001F022FE0A481821C4F8D6
:103B9800FC0104F5007001F01AFE802504F5077099
:103BA8001C2184F8185201F012FE84F82C52BDE84A
:103BB800B0407047C800200310B51748016889074E
:103BC80026D417480468A00221D416480068006863
:103BD8008047C0F13E000722C1100729B8BFC210B4
:103BE800012000EB24718A42D8BF0A460E490968B1
:103BF800C1F30321891A0F29A8BF0F210129D8BFB2
:103C0800014641F0F000094981F84D00087810BDDF
:103C18000249C16010BD00BF10000940FD0000400E
:103C2800B44F0050EC0100100C1300500D62084016
:103C38002DE9F041D0E901480546D8F8000041686F
:103C480021F002014160204601F05AFCD4F8CC0072
:103C580001F034F804F1300000F0DCFF94F8F800CB
:103C680018B904F16C0000F0DCFCD5E901750D4EC3
:103C780095F83800B04795F83900B04795F83A00FC
:103C8800B04797F8FB00B04798F80C00FFF7D8FB4F
:103C980004F11C0001F0E8FB002084F8FD00BDE8F9
:103CA800F08100BFA5490000BFB50446B0F1FF3F51
:103CB80002DD54B9164825E0164801F04FFBB4F16F
:103CC800004F01D115481DE0644200210A2201A8D5
:103CD800002C0BDDB4FBF2F303EB8305A4EB4504E6
:103CE80044F03004445401311C46F1E70A4A0138D3
:103CF8000B4623B1C45C013B02F8014BF9E70648C7
:103D08000022425404B0BDE8B04001F027BB00BF18
:103D18001A620000206200001408002057610000A9
:103D2800F8B5054616484BF2F521174E006800FB1A
:103D380001F714483C0A006800F44020B0F5802FD1
:103D480010D11248006880030CD4F06800688047DE
:103D580000F042FE3168C9688847C010390B4843F3
:103D680004EBE0342DB90A48006820F07F40204475
:103D780044083069416C2046BDE8F840084700BF58
:103D880008400C40B44F0050E00100108C13005064
:103D980010200940F0B540F6FF7C10F8013B0024E4
:103DA800082CFAD00646DF0716F8015B0DD14778D4
:103DB80007F00F060336122E0DD190F90220D6B265
:103DC800B2F1FF3F09DD03300DE001F8015B304639
:103DD80001345B08E4E7023006E0C27806F07F06AB
:103DE800043046EAC21612363F0947EA0512624510
:103DF80008BFF0BD2A013A44D543002EE8D04A5DF9
:103E0800013E0A700131F8E7F8B5054601F06CFD8E
:103E1800184E044696F8A20080B196F8A00068B93A
:103E2800D6F890000121012700F0B4FFB168D6F858
:103E38009830B268411A9A1A91420CD901F0ECF9FB
:103E480001212975AA681044E86096F8A00060B1BD
:103E580086F8A11009E02F75AA681118181A82426D
:103E6800E96002D2104601F0CFFA2046BDE8F840DA
:103E780001F021BEF805002070B56FF007024A6115
:103E8800D0E90020CC6891E8680002F1D00C006805
:103E98009160C2F8DC40ACE86800D0F804687606A7
:103EA80042BF6FF00800486170BD0126C0F8106875
:103EB8004FF4FF76098B06EA410145B1C0F80018B6
:103EC800591CC2F8D0101978C0F8081805E041F05C
:103ED8000101012CC0F8001801D1032100E00B21D9
:103EE80001F0CBFD002070BDB0B5174C60682168AB
:103EF80001EA000521EA0002680622601DD5134880
:103F0800006800F44000B0F5000F03D110480068C5
:103F180000F00CFF042001F057FD811E022905D294
:103F280000F040FE022000F01BFF03E0012808BF5C
:103F380000F038FE202000F0D9FF280648BF00F026
:103F480025FBA560B0BD00BF90220840B44F0050CB
:103F5800CC0B00202DE9F047174E05468946304620
:103F680001F0FDFD04464FF0FF384FF0000AB4425F
:103F78001FD02046274601F0F4FD0446387D00286E
:103F8800F5D065B1F868484509D1386910B1484499
:103F9800F86001E087F814A0D7E906108847387D53
:103FA8000028E4D0F868A0EB0900404538BF8046F7
:103FB800DDE74046BDE8F087F805002070B50468E5
:103FC800616F59B3D4F8582145685668E96B286879
:103FD8003268D162012101F03DFBD4F85801E96B48
:103FE8000F4A40680068C0F8041591FAA1F11268F8
:103FF8003068B1FA81F192699047616F091AE07CE3
:1040080020B104F14C0000F0E9FD05E0206FA26F3B
:10401800401A20675018A0670020606770BD00BF75
:10402800D4010010B0B5134D0124E86B01680120DC
:10403800884701281BD028683C210122002300243E
:10404800C5680D48A84790B100F090FD0B480C4991
:104058000068D1E900238860C01A0A4BA2EB9202DB
:104068005843B2EB104F98BF020C01240A60204657
:10407800B0BD00BFA401001000A00C4030200940D2
:10408800BC0B002040420F00B0B51448144D807B93
:1040980095F83911084306D001F026FC95F83B1134
:1040A80021B101F008FD00242046B0BD012485F8A7
:1040B8003B4101F000FD022000F0E8FE0D20FFF773
:1040C800B7F8084801680029EED1074940220A607C
:1040D8004A60002185F83A11C461E4E748600000AD
:1040E8002808002004800C4038500C402DE9FF417E
:1040F800144DD5E900673879FFF79AF801F0F4FB19
:1041080004463078B0B90DF10408404601F048FB88
:10411800B87979790C4A434601950290301DFFF72A
:10412800CFFC38684FF0FF31C16208498160012136
:1041380031704160204601F0BEFC024804B0BDE881
:10414800F08100BFE4610000B55A000000180020AB
:10415800F8B516460C46054600F0CCF9284600F09E
:1041680055F805460C480D4FB8473046B8470C4837
:10417800B847204600F070FF0A48B847284600F0C4
:104188006BFF0A480849A54208BF0846B847281BDC
:10419800B0FA80F04009F8BDD16100006553000015
:1041A8004C61000076610000F461000018610000B5
:1041B800F8B5054601F098FB0446686A01280FD057
:1041C8006869104F012629466E6207EBC0002C3043
:1041D80001F06AF96869796806FA00F008437860BE
:1041E800084D287840B9E868012805D106480068D4
:1041F80001F0D8FB012028702046BDE8F84001F006
:104208005ABC00BFF00A00203C0B002010B588B053
:10421800144C01460020E2680AB341F02001ADF8D1
:104228000600CDE9050007908DF80400ADF80200FE
:104238008DF805100DF1020104910DF105010391AE
:104248000321029101F098FAE06802A901F071FCDB
:1042580001F0C3F90A2001F08EFC9DF8040008B0B3
:1042680010BD00BFA80B00202DE9F0410646FFF75E
:10427800E9FB114FD7F8900001F0D6FB04460F4830
:104288000D4641F2C6084068C0EB0011B14207D89C
:10429800A0EBC00106EB4101B1FBF0F000F082FF9A
:1042A800E6FB0845D7F8900001F0BEFB001B71EB58
:1042B8000500F7D3BDE8F081F8050020F00B0020D9
:1042C8007CB5D0E90056002101243068C0F81018E8
:1042D800C0F81C48684601F07FFA0C49D5F820213F
:1042E80030680968002A0B68019918BF01229847AD
:1042F8003068074A00F5026102EA411301F0704193
:10430800194411440C63C0F804487CBDAC0100108A
:10431800E0FFFF0100B3BEB500210A236A4658B189
:10432800B0FBF3F404EB8405A0EB450040F030004B
:10433800505401312046F2E7501E094A0B4623B17A
:10434800C45C013B02F8014BF9E7054800224254DE
:10435800BDE8BE4001F002B8024800F0FFBF00BF50
:10436800140800201A620000B0B500F047FD0E4C9A
:104378000E4D1420611CA8470A202146A847092091
:104388002146A8470A490820A847B92000F064F840
:10439800084C1420A0470A20A0470920A04708205D
:1043A8002146BDE8B040084700640020055B0000D6
:1043B80002200020A5490000F8B5124F0446164611
:1043C8000D46387818B9FFF73DFB01203870B4B1B5
:1043D8002EB13078207070686060307804E0D7E9DA
:1043E8000201C4E90001C0B228B10120A06005B9EA
:1043F8000020E06003E04FF6FF70A060E560204613
:10440800F8BD00BFD00B0020B0B50446C8B10D46BA
:1044180020464FF4127101F0DAF935B104F50E7047
:1044280029460C2201F0AAFB08E00848C4F840021B
:104438000748C4F83C020748C4F838022046FFF78A
:104448007DFB002C18BF01242046B0BD32001905A1
:1044580032006400FA002600B0B50446142000219A
:1044680001F0CAF907250A20002101F0C5F9681CE6
:104478000FD024FA05F000F00101092001F0BCF981
:104488000A20012101F0B8F9082001F040FB013DA4
:10449800E9E71420012101F0AFF94FF42F70BDE8CE
:1044A800B04001F034BBFEE70E480F4A0F4B0168DD
:1044B800825800680340D0B20D4A7F2888BF002088
:1044C800934207D1090F022906D307D0032901D146
:1044D800153004E0FF2002E00A2000E00B3040B273
:1044E800704700BF1813005088FDFFFF00F0FF0F52
:1044F8000010B40B10B588B0104CE268E2B10DF1B1
:104508000503002240F040008DF8071003930323B1
:10451800CDE90422CDE906228DF806208DF80500A4
:10452800029301F029F9E06802A901F002FB01F009
:1045380054F80A2001F01FFB08B010BDA80B00209A
:104548007FB5D0E90154204600F053FE2068416849
:1045580021F002014160416921F00F01416103210D
:10456800016202A801F038F9074995F8F93095F881
:10457800FA202068D5E9396509680C680399CDE9FE
:104588000065A0477FBD00BFC4010010B0B501F0B1
:10459800ABF9044601F0A7FA0028FBD0032000F08D
:1045A800DFFB0B48002180F83811204601F083FA20
:1045B8000848816802200D4688470446102000F00C
:1045C80095FC24B103202946BDE8B0400847B0BD9A
:1045D80028080020486000002DE9F041476804469B
:1045E80001F082F905464FF00008D7F8C8609EB17F
:1045F80071697068C6F81480C7F8C81000F09CFE8E
:10460800284601F058FAD7F8BC2020463146904792
:1046180001F06AF90546E8E72846BDE8F04101F0EF
:104628004ABA7047F8B50446C8B11D4616460F4643
:10463800FFF708FA0020A6600A4EA761002D207532
:1046480018BF2E46D6E9010120610748E1612146DD
:1046580000F02AFF307810B12046FFF7D5FB20463E
:10466800F8BD00BF28610000F805002070B50446B9
:1046780001F03AF905460C480126C16A06606268ED
:10468800130CB2F5802F38BF042319444161074841
:1046980023210068026800209047054806602846E4
:1046A800BDE8704001F007BA0420094084010010F9
:1046B800800224432DE9FC479846AAB115460E46C8
:1046C800074600244FF0FF3A0DF1040931192A1B5F
:1046D80038464B46CDF800A0FCF724FD01990C4460
:1046E80028B96D1AF2D102E000246FF00900B8F180
:1046F800000F18BFC8F80040BDE8FC8780B58AB035
:1047080003460F4800228DF827100069A0B1012147
:10471800CDE90722CDE90522CDE90322ADF81C3009
:104728004FF4FA6202910DF12701019101A9FDF7F9
:104738004BFDB0FA80F0420910460AB080BD00BFB8
:10474800A80B002070B50D46044601F0CDF8D4E959
:1047580001128A4204D101F0AEF94FF0FF3070BD6A
:10476800E36822680133B3FBF1F606FB11315554B7
:10477800E160A168626901319142A16088BF0A467F
:10478800626101F098F9A06870BD7047F8B50D48EE
:104798000D4D0E4F0126046804608CB1B4FA84F004
:1047A800696880F01F0006FA00F251F8201094435F
:1047B8000029F2D057F820205203EED58847ECE7BD
:1047C800F8BD00BFE02002408060000000100840F3
:1047D8000F49C3070A68496D01D1002106E001F0BD
:1047E800040102F00103C91818BF0121830744BF5F
:1047F80002F0020341EA5301400744BF02F00400FB
:1048080041EA90010220002918BF0120704700BF2B
:10481800402108400F49C3070A68496D01D10121A9
:1048280006E001F0040102F00103C91818BF0121D4
:10483800830744BF02F0020301EA5301400744BF63
:1048480002F0040001EA90010220002918BF0120AB
:10485800704700BF4021084070B501F045F8044694
:104868000B48017821B12046BDE8704001F023B91A
:1048780001210170074805780748002DF3D0064646
:1048880056F80C1B89688847013D3046F5E700BF9C
:10489800FF0B002023620000346100000B48016810
:1048A8008907FCD50A4801210A4AD0F83C010128A9
:1048B8004FF0010008BF20200823906100201060FD
:1048C8000548036043601160704700BF58600C40A2
:1048D8002808002000400C4038500C4040F00201ED
:1048E800022918BF70477CB50A4D0B4C80B2702264
:1048F800042329684E68009020460021B0472868A4
:10490800002170227023D0F80CC0204602B0BDE808
:1049180070406047A401001000A00C400C4A1278B7
:10492800012A11D1094A127882420DD9094A00296F
:10493800094B18BF0A4600EB400103EB810053F80E
:104948002110CB68114618470020704723620000E9
:10495800FF0B0020345F000034610000B0B505464D
:1049680000F0C2FF0446A868E968814202D2E868FC
:104978000130E86000F0B0FE40B1074D68780128CA
:1049880004D1A87810B900F0CFFEA8702046BDE881
:10499800B04001F090B800BFD00B0020FF2817D01E
:1049A800B0B5044600F026FE0A4D286850F82410D9
:1049B800204601F0A3F8686850F8241011B10021CE
:1049C80040F82410A868002140F82410BDE8B04041
:1049D800704700BF8060000070B50D4B1B3800FBAE
:1049E80000F193E87000DB6801FB00F283FB02230F
:1049F800C6FB0123C5FB00231009190940EA03700F
:104A0800001941EBE471000C40EA014070BD00BFA1
:104A1800E00B00207CB50C4D0C4C00214FF4C0720B
:104A2800072328684668022000902046B047286877
:104A380000214FF4C0720723D0F80CC0204602B002
:104A4800BDE87040604700BFA401001000A00C4002
:104A580010B588B00C4C8DF81F00E06888B10020B4
:104A6800CDE90500CDE903000DF11F0002900120FA
:104A7800019000F081FEE06801A901F05AF800F009
:104A8800ACFD08B010BD00BFA80B002010F1240F2A
:104A9800D8BF6FF023001B28A8BF1B2003210F22BB
:104AA8002430A1EB101122EA000022FA01F14FF69E
:104AB800FF7222FA00F040EA01400149086070479D
:104AC80018A00C40B0B50A490A4A0B4B0C684D684F
:104AD800AC42FCD1844208BFB0BD155C145DAC4249
:104AE8004FF0FF3538BF01252C441C5D0C60EDE705
:104AF80000600C40EC610000F061000010B50A4C49
:104B08000021206842680120904720680168012040
:104B1800884708B100F02AF804480068E06800688F
:104B280080470349C86010BDE001001030200940EB
:104B3800BC0B002010B50A490A4C0860D1F898004F
:104B480040F00300C1F89800206881692020884758
:104B5800054800682068806BBDE81040004700BF2A
:104B68008C210840B80100102C20094010B50A48D3
:104B78000B4C0188C907094907D14FF0012222606F
:104B880000880868BDE810400047086880474FF073
:104B98008070206010BD00BF00A00C408000001095
:104BA80004A40C407CB50B4D0B4C00214FF0405237
:104BB8001C2328684668032000902046B0472868D0
:104BC80000214FF400720923456801200090204617
:104BD800A8477CBDA401001000A00C40F8B50C4605
:104BE800054600F081FE2B1D6E690ECB8F1AA74279
:104BF80038BF3C4622442344B24288BF16466E6101
:104C0800B3FBF1F606FB1131C5E9022100F053FFB1
:104C18002046F8BDB0B5054600F066FE04462846B5
:104C280000F077FEA86800F0F3FE40B16869012142
:104C380001FA00F004494A6822EA00004860204668
:104C4800BDE8B04000F037BFF00A002070B50B4E49
:104C5800054600F049FEF5600446012D706808D14C
:104C680038B1307828B90648006800F09BFE01206A
:104C780030702046BDE8704000F01DBFF00A0020EB
:104C88003C0B002070B50668054600F02DFE044672
:104C9800707A70B901207072284600F0C7F9686808
:104CA80000F0CEFE2846FDF741FE2846002100F020
:104CB8008DFA2046BDE8704000F0FDBEF8B5D0E999
:104CC800006500F011FE0446307870B1287900F0D4
:104CD800DBFD012806D1286800274760301D00F059
:104CE8000FFC37702879FEF7ABFB2046BDE8F8408B
:104CF80000F0E1BE70B50948094C84420BD0094D5B
:104D0800094EB54207D0F5E8020110F8012B54F816
:104D180022209047F5E700BF00BF70BDA4620000E5
:104D280098620000DC6200001C63000008490A4B1E
:104D3800421808499A42096808D801F44001B1F5B7
:104D4800000F03D105490968496C0847704700BF3F
:104D58005C8F82FFB44F0050B71E0500F0010010B1
:104D680070B50B4D04462E1800F0BEFD96F84311A1
:104D7800013986F84311090605D10121AA68A14025
:104D880022EA0101A96000F096FE002070BD00BF74
:104D980028080020F8B504460A480F460068006B4A
:104DA8008047D4E904562A46334600F0EFFC3FB169
:104DB800A0FB052300FB063301FB0531C4E90621EE
:104DC800F8BD00BF8C0100102DE9F04106460A48E5
:104DD80015460C4600278046BC4209D0D8F800206A
:104DE800E95D30689269904708B10137F4E73C46BD
:104DF8002046BDE8F08100BFD001001080B50A4907
:104E0800142000F07BFE1420002100F0F5FC0120A6
:104E180000F07DFE1420012100F0EEFC4FF40C7030
:104E2800BDE8804000F073BE01640020F8B500F0D2
:104E38005BFD094E04460021D6F89000FFF7AAFF53
:104E48000546D6E92667204600F035FE701BB842B5
:104E580088BF0020F8BD00BFF8050020FF2808BF64
:104E68007047B0B50D46044600F03EFD0649C5F34F
:104E7800024311F8242002F0F8021A4401F8242011
:104E8800BDE8B04000F017BE02100840B0B50446B7
:104E9800012000FA04F500F027FD07498A682A4333
:104EA8008A60214491F84321013281F8432100F0BE
:104EB80002FE0020B0BD00BF280800200748006897
:104EC800C00608D4064807490068084006498842D1
:104ED80004BF012070470020704700BFB04F00504A
:104EE8005013005000C4FF3F00C0071CB0B5044673
:104EF8000948056855B1A868204205D0D5E90332AC
:104F080020460021984718B92D68F3E70020B0BD66
:104F18004FF0FF30B0BD00BF28080020094880F3DB
:104F280008880948016841F47001016000BF00BFAA
:104F380000F01BFE08B1FFF7DDFE00F013FC0120B6
:104F480000F0FAFD0040012088ED00E0B0B50C4605
:104F5800054600F0C9FCD5E901122B69A24238BF09
:104F68001446121BAA601A19B2FBF1F303FB1121B4
:104F7800296100F0A0FD2046B0BDF8B50C460546F5
:104F880000F0B2FCEA6895E8C2000132B2FBF6F321
:104F980003FB16252944216000F08DFD701BF11BD1
:104FA800814238BF0846F8BD70B5084A084B1468F6
:104FB8009C4208D014680025D82D03D066595E514C
:104FC8000435F9E7136043F8201070BD08ED00E0E0
:104FD800000C0020094882698B1A0432B3F1004F93
:104FE80009D8531AB3F1FF3F0B46C8BF13468A428C
:104FF80098BF0B461A460260704700BF1820094048
:10500800F8B50C46D0E90016002701F14C053068C8
:10501800013C47F100018269D20606D429B1006833
:10502800C1B22846FFF78EFBF1E7F8BDD0E90010C2
:105038000A6C5AB191F84410090707D501684FF472
:1050480080624A648A6B42F480628A630068816B7A
:1050580041F0400181637047E0B50021084A8DF8AE
:10506800071000F00F010009105C515C8DF8050075
:105078000DF105008DF8061000F070F98CBD00BF29
:105088006F60000070B50446006904F114052CCD6A
:10509800A0FB010602FB0161C6184D41300C00223D
:1050A80040EA0541FFF796FFC4E9086570BDB0B551
:1050B800056802200C46FFF753FE64B1D5F8EC00F2
:1050C8000021B1EB107F06D10420FFF749FE4FF015
:1050D800FF30C5F8EC00B0BD4FF080410A468908A2
:1050E8008242FBD810B500214AB1541802EB510393
:1050F800A04234BF4B08001B19469208F4E7084643
:1051080010BD70B5D0E9006500F0EEFB0446F0680C
:1051180030B1284600F0D7FCB0686FF00901416152
:105128002046BDE8704000F0C6BCB0B50D46044648
:1051380000F0DAFBD5E9001211B14A606A6800E0B4
:105148006260002A18BF14462160BDE8B04000F034
:10515800B2BC704780B5FFF7B1FE60B10648006881
:1051680081034FEA00414FF0000058BF0816BDE820
:105178008040FFF78BBC80BDB44F005080B5064817
:105188000649006808400649884204D1FFF78CF9AF
:105198001328C8BF80BDFEE71813005000F0FF0FAA
:1051A8000010B40B88B1B0B594B06D460446002128
:1051B80000222846FFF700F92146FEF727FB28467C
:1051C800FFF72FFA14B0BDE8B0407047B0B50568D6
:1051D80002200C46FFF75AFE54B1D5F8EC00002126
:1051E800B1EB107F04D10420BDE8B040FFF74EBEFC
:1051F800B0BD0068C168490701D58168FAE7022196
:10520800C0F88010C168C90702D1D0F88C10F9E73E
:105218000021C0F880107047B0B500F065FB044667
:1052280005480021D0F89000FFF7B4FD0546204658
:1052380000F041FC2846B0BDF8050020B0B50C468A
:10524800054600F051FB0021216069680029616072
:1052580008BF29460C606C60BDE8B04000F02BBC6C
:1052680080B505480121006842680120904703483D
:1052780003490068486080BDE00100103020094003
:10528800BC0B00201CB5064980B24FF47F420823AE
:1052980009684C68009003483021A0471CBD00BF36
:1052A800A401001000A00C401CB5064980B24FF4C0
:1052B800F802122309684C68009003480421A047AB
:1052C8001CBD00BFA401001000A00C401CB506497D
:1052D80080B24FF40032112309684C6800900348EB
:1052E8000421A0471CBD00BFA401001000A00C4071
:1052F8001CB5064980B24FF440620A2309684C681D
:10530800009003482021A0471CBD00BFA401001045
:1053180000A00C4050B14AB110B5044608300EC088
:1053280021460448FFF78AFF002010BD6FF00200F5
:10533800704700BF2808002080B507490138884217
:1053480005D80620FFF70CFD0420FFF709FD022011
:10535800BDE88040FFF704BDFEFFFF0FBCB5044663
:105368000648856845B1204600F0E1FA024601ABDF
:105378002846214600F0D4FABCBD00BFA80B002087
:10538800F8B50C46054600F0AFFA95E8C2002D695D
:105398002944216000F08FFB701B874238BF3846D4
:1053A800F8BD80B5D0E9042347F69160101A73F16F
:1053B800000031BF4FF0FF30002047F6906100F049
:1053C800E5F980BDBCB5046825790DB9A4792CB17F
:1053D8004FF0FF340094FBF7A5FEBCBD02B0BDE85A
:1053E800B040FFF767B9704710B50446C0E9061327
:1053F800826000202061207502482146BDE81040E7
:1054080000F052B8F805002070B5064E05460C4667
:105418002946D6F89000FFF735FEC6F89840C6F83A
:10542800945070BDF805002005484FF4825100687B
:105438000028044848BF4FF441510160704700BF3D
:10544800AC4F005028A10C4005484FF4805100682B
:105458000028044848BF4FF440510160704700BF1E
:10546800AC4F0050A8A00C40B0B5044600F03CFA80
:10547800054604482146FFF758FE2846BDE8B040D7
:1054880000F019BB28080020E0B5064AD2E902233B
:10549800CDE9002301228DF800206A46FEF78CFF33
:1054A8008CBD00BFD00B0020B0B50C46054600F0FF
:1054B8001BFA25606968616069680C606C60BDE80A
:1054C800B04000F0F8BA1CB504686479022C02D127
:1054D800FCF79AFF1CBD049C049402B0BDE8104080
:1054E800FCF710BBFF2807D0044A526852F8203056
:1054F8008B4218BF42F82010704700BF8060000040
:1055080010B5054904460068096849698847206854
:10551800BDE8104000F0F4B8B00100100448054997
:10552800007851F8200010B1D0E901100847704701
:1055380004ED00E09C090020002201284FF0000043
:1055480004BF40F2EE204FF47A72022908BF0246E7
:105558001046704710B500F0C7F904490022CC681E
:10556800CA6000F0A8FA204610BD00BFF00A00206B
:1055780000F0ADFAFDF712FC0348016841F4700130
:105588000160FFF7CBBCFEE788ED00E0B0B504464C
:1055980000F0AAF90546204600F0BBF92846BDE808
:1055A800B04000F088BAD0E9001000220068C0F8C6
:1055B80010280122C0F81C2801F1E400FEF7F8BD0C
:1055C800B0B5044600F090F925682968216029687B
:1055D8004C6000F070FA2846B0BD80B50A2000F093
:1055E800CAFA0B20012100F007F90A20BDE8804023
:1055F80000F0C1BAFF2806D0034911F8202002F0B4
:10560800FB0201F82020704702100840022807D04A
:10561800032804D180B5FCF783FF002080BDFEE796
:10562800FEF732BD044890F8411119B1D0F86C0169
:1056380000B10047704700BF280800200348012137
:10564800016003480068D0E90201084704200940C6
:10565800880B0020B0B50C46054600F045F9A96C4A
:10566800A143A964BDE8B04000F025BAB0B50C4626
:10567800054600F039F9A96C2143A964BDE8B0409A
:1056880000F019BA80B5FCF733FEFDF751F8FEF7C4
:105698006BFEBDE88040FCF72ABE10B500F024F987
:1056A8000446FEF747F92046BDE8104000F003BA6B
:1056B8000349096821FA00F000F00100704700BFB3
:1056C800C0200240FF2803D0024A926842F8201006
:1056D800704700BF80600000034800886FF35F20B8
:1056E800002818BF0120704704ED00E0042805D108
:1056F80080B51046FEF7E4FDBDE880400020704705
:105708000249034A41F82020704700BF000C0020DE
:10571800AF440000D9F8CC10D8F8140049680968DB
:10572800D1F80425024270470349002291F841014B
:1057380081F84121704700BF28080020034800680D
:1057480008B1017801B17047FEF790BF880B0020BF
:10575800042805D180B51046FCF768FFBDE88040F5
:10576800002070470349002912BF01C90020002109
:10577800FAF7AEBC2862000080B50B20002100F0CB
:105788003BF80A20BDE8804000F0F5B940B584B088
:1057980002AE0096FDF7FCFD029A039B04B040BDE3
:1057A80030B10121002201724FF0FF31C0E9002120
:1057B800704710B500239A4208BF10BDCC5CC45492
:1057C8000133F8E70B4611461A4600F0BEB80A4600
:1057D800002100F0BAB87047024A0021C0E900125F
:1057E800704700BF006CDC020249896851F820004C
:1057F800704700BF80600000FF281CBF014A815429
:10580800704700BF0020024002484FF0004101608D
:10581800704700BF00A10C400248016841F0030135
:10582800016070472422084002480068C0F307203E
:10583800704700BF30A00C4002480068C0F38440A5
:10584800704700BF04A00C4002480068C0F38120E4
:10585800704700BF20A00C40024840210160FFF7BC
:10586800FFBC00BFA8A00C4080B5FFF773FE01493C
:10587800086080BD240800200248012180F84111F9
:10588800704700BF280800200249084490F84A01E0
:10589800704700BF2808002010B50023541E80E878
:1058A8001E00C0E9043310BDB0B5024991E83C00C0
:1058B8003CC0B0BDA060000010B5024991E81C00D2
:1058C8001CC010BD4061000000680121806900F023
:1058D800080081EAD000704780B50A46D0F8031066
:1058E8001046FFF774FF80BD80B500F0F0F800287F
:1058F80018BF012080BD80B500F00CF9B0FA80F027
:10590800400980BD234603958DF804500295FEF7A3
:1059180089BE01684268116041680068416070474B
:105928001CB54FF0FF340094FFF7CDFD1CBD0021DE
:10593800425C0131002AFBD1481E704780B5FFF751
:105948008BFFBDE88040FEF721BE00239A4208BFC6
:105958007047C1540133F9E70B46D0F80320C11D45
:10596800184600F00BB9FEE70148806CFEF720BC32
:10597800F805002001484068704700BFF00B002080
:1059880001490968096A0847B00100100149096816
:1059980049690847B00100100149096809690847C1
:1059A800B00100100149096889690847B001001071
:1059B8000021C0E90011C0E9021170474869B0FA36
:1059C80080F04209204618470149096809680847D4
:1059D800E001001001490968C96A0847B8010010C8
:1059E8000148006800680047E801001001480068A5
:1059F80040680047E801001001480068FFF726B931
:105A08002408002001488068704700BF280800204B
:105A18000168081AB0FA80F040097047014920224D
:105A280000F0ACB8345F000001480068006B004724
:105A38008C0100100068016B21F4807101637047CC
:105A48000068016B41F40071016370470068016BE5
:105A580041F48071016370470149242200F08EB837
:105A6800845E000080B51046FEF76AFD002080BD08
:105A78000021C0E9001181607047C0F804180220B5
:105A880000F045B8404651461C2200F077B8CDE9F1
:105A9800000A2846FBF712BD00214FF0FF32FDF740
:105AA8002FB84068002180F8FD1070474068012138
:105AB8000068C164704700B1704700F00CB8006816
:105AC8008030FEF74BBF00680421FFF7D6BFEFF325
