:1000000000400120BD3F000039450000354500009B
:10001000374500003745000037450000000000006C
:100020000000000000000000000000003745000054
:10003000374500000000000037450000374500004C
:1000400037450000374500003745000037450000C0
:1000500037450000374500003745000037450000B0
:1000600037450000374500003745000037450000A0
:100070003745000037450000374500003745000090
:100080003745000037450000374500003745000080
:100090003745000037450000374500003745000070
:1000A0003745000037450000374500003745000060
:1000B0003745000037450000374500003745000050
:1000C0003745000037450000374500003745000040
:0800D000374500003745000030
:1000D800A2B003F0EDFF04F011FA01F071FB03F098
:1000E80049F9DFF8A8B2152001210125D8471E20BB
:1000F8000121D8470F200121D8470B200121D847DB
:10010800182000210026D84716200121D847A048EA
:1001180004F008FA19AC204604F098F902202146A8
:100128008DF864004FF4E1301F90002000F04AFE83
:10013800984FDFF868A238609748D047984C204617
:10014800D0479848D0472046D04711AC204604F005
:1001580065F9954821468DF85C508DF850601590EA
:10016800002003F069F90028786000F00B818F48BF
:10017800D04716200021D8478D4C42F21070A04776
:1001880016200121D8478B48A0478B491120884762
:100198004FF47A70A0478948D047002002F0DEFE6D
:1001A800044603F09BFB87488549732C08BF084623
:1001B800D0478548D047854A854F01200221B84756
:1001C800844A81460220E021B847834A04900320EC
:1001D8001021B847814A039004201021B847804A6B
:1001E800029005200021B8477E4A019006202C2164
:1001F800B8477D4A804607200321B8477B4A044612
:100208000920EA21B8477A4A05460A208321B847D7
:1002180007467848D0470120B9F1000F18BF0220DF
:100228000499002908BF48460399084402990844DC
:1002380001990844404420442844384402F000FD11
:100248006D48D047092002F0FBFC6C48D0476C4849
:10025800D04718200121D847554C44F62060A047C4
:10026800554D1120A8474FF47A70A0471A20A84787
:100278004D48A0471120A8474FF47A70A04761481D
:10028800D0476148D0476148D0476148D047614866
:10029800D0471020A8476420A04718200121D8473C
:1002A8000DF12C09DFF8F48044F61F6A0DF1200BDC
:1002B800002709F10C040025172003F00FFF30B1C7
:1002C800554504D80A2004F02DF90A35F4E78DF8CD
:1002D8002860CDE90866C4E90066A66005A8002183
:1002E8008DF81C60CDE90566CDE90CB009200B90AE
:1002F8000B2003F08DFF27484946406804F0F0F8CA
:100308000B20012103F084FFF80739D09DF81C0069
:100318009DF81B109DF91AB09DF917509DF81860AB
:100328009DF819900497039002919DF814003A499A
:1003380088473A4F3846C047E8B23749002D49EA5E
:10034800004040EA062048BF00F17F408847384611
:10035800C04703995FFA8BF000260DF12C09BBF119
:10036800000F0DF1200B41EA0040029940EA0120FC
:10037800294948BF00F17F4088470748049FC04784
:10038800013798E7264803F01DFDFEE719420000F3
:10039800A0860100040800203D480000CD3D000073
:1003A800644600002846000020A107000448000019
:1003B8002D45000040420F00A5370000E848000026
:1003C8008848000080470000C34700007C490000BF
:1003D80025250000734900006A490000854900008E
:1003E800A9490000A04900005849000097490000A9
:1003F800614900001649000031490000F848000032
:1004080033470000D5460000A24700009F46000081
:100418000A47000024490000492C0000F94900005F
:10042800244800002DE9FE4F074608680024B0B1B3
:10043800D7E9018A0E4603F063FF8146D8F8E80041
:10044800082888BF0124B068204202D17068204281
:1004580008D003203074484604F018F800242046D9
:10046800BDE8FE8FD8F8C01069B198F8F8100029D7
:10047800EFD006213174D8F8C410C8F8C4604E61B2
:1004880098F8FC100DE000210522C8E93066C8E99B
:100498003411C8E9361198F8FC10002908BF012268
:1004A800327400220129726109D102204FF4E0213F
:1004B80088F8FC0098F8FB0003F05AFA706889493C
:1004C8000138884205D8042003F06AFA062003F0B0
:1004D80067FA022003F064FA98F8F80040B9DAF8ED
:1004E8003C003168814203D298F8FC0000286CD0A7
:1004F800D8E9361009B118B900E028B303F0D2FFE3
:10050800DAF80000416941F001014161484603F011
:10051800BDFF98F8F80008B10124A0E708F16C05C0
:10052800D8F8EC10284602F099F80028F4D0D8F84A
:10053800C00003210174384602F0DCF82846002187
:10054800002402F08BF88AE79AF8040003F02AFFE7
:10055800654CDAF810100222206991FAA1F1B1FA7B
:1005680081F14368D8F8CC00406800689847206952
:10057800DAF8141002224368D8F8CC0091FAA1F1F5
:10058800B1FA81F14068006898479AF8040003F0CE
:1005980003FF9AF8040003F00BFF03F083FF002029
:1005A800C8F8E000D8F8C0000068B0F5806F01D93D
:1005B80003F078FF98F8FE000028A1D1DAF80000CF
:1005C800416841F0020141609AE798F8F90020B1CA
:1005D800D8F8EC0001307FF48BAF484603F056FFA3
:1005E800B2683AB1D8F8E8000221092838BF0121D9
:1005F800009103E008F1F40200200090746834B11F
:10060800D8F8E8000227092838BF012702E008F1D6
:10061800F6040027DAF80000334D416841F0020182
:100628004160D6F800B0D946BBF1000F40D0D8F8E9
:10063800E800019209284FF0010011D22A68B9F1A7
:10064800000F1FD0C0071DD02178DAF8000092688B
:10065800904700281EBF3C44A9F101090120EDE79D
:100668002A68B9F1000F16D0C00714D02188DAF82B
:1006780000009268904700281EBF3C44A9F1010978
:100688000120EDE7DAF80000D26802A99047DDE919
:100698000120107007E0DAF80000D26802A990473C
:1006A800DDE9012010800098ABF1010B0244BBE7A3
:1006B800D8F8F000DAF80010CA680240102802D111
:1006C800002AF9D101E0002AF6D0706803F068FB2F
:1006D800D8F8C0100020C8F8C400C8F8C0000874D2
:1006E8001AE700BFFEFFFF0FC40100102DE9FC4709
:1006F800D0E900588246D8F80000D0F8409019F4A4
:10070800F06FC0F8449035D05FEA495117D5D5E964
:100718001401411A504603F0FDF9D8F80000816928
:10072800C90605D401688DF807109DF80710F6E78B
:10073800296801312960A97B09B90121A973696C6C
:1007480040684FF0004600F00F0404EA0100B0FAD8
:1007580080F126FA01F1014005D02F6C1FB12A68FB
:10076800AB6C5046B847B4FA84F026FA00F0204043
:100778004042A863D5F85801D8F83C1009F0400762
:1007880040680068D0F804251140394347D0DAE9B9
:100798000064504602F0BEFAD7B1F07C90B90BE085
:1007A800316F69B10068B16EB26F8854306FB16F44
:1007B80001310138B167306720688169C906EFD512
:1007C800F07C28B1D6E91401411A504603F0A2F989
:1007D80096F86400E0B13079022819D017B1B179E0
:1007E800012901D0316F99B90024B16E012834670D
:1007F80086F86440B46607D1B36CB26FD6F8CC60A3
:1008080050460094B04703E006F17C0002F034FE45
:10081800504601F0D3F8D5F858014068006800F256
:1008280004500068D8F83810084228D0D5F8F800E5
:1008380028B3DAE90076504601F0ECFF504601F0A3
:10084800B5FB7879012812D1D7F8F40078B997F870
:10085800E80060B1002087F8E800BB6CD7F8EC101E
:10086800D7F8FC20D7F8504100905046A047D7F859
:10087800F80020B93068816B41F4006181635FEA58
:10088800095023D5D8F8000081690907FCD4016B09
:1008980021F480710163297A91B10020287295F8BA
:1008A8004400800606D52C6C24B1AB6C5046202140
:1008B8000022A0475046012103F057F9D8F800005C
:1008C800816B21F400618163687908B1BDE8FC8718
:1008D80005F58070BDE8FC4702F0CEBD2DE9FE4F5E
:1008E800D0E90198D8F80010CA690A62D20740F026
:1008F800AF80D8E904014FF0000A4FF0000B08431D
:10090800D9F8CC1049680968C1F8040509F1300024
:10091800029009F1C8000190BBF1010F00F2A1801B
:10092800D9F8C000002800F09C80D9F8E010DC223B
:10093800D9F8CC702023002908BFD82208BF182373
:1009480058F803404FF0240308BF1C237F68D8F8E9
:10095800146058F803303F68D7F80455354211D071
:10096800A46864070ED10468D9F8D050A54209D10B
:1009780044693CB9D8F80040656A25F0020565620B
:10098800C7F804659B685B0702D00BF1010BC3E74E
:1009980059F80230002BF8D049F802A0B1FA81F1D9
:1009A800D9E934424909006849011A448442C9F81E
:1009B800D420C9F8E01028BF82420CD248464146EC
:1009C80000F07CFB99F8FE000028DED003F0AEFBB7
:1009D80018BF8862D9E703F093FCD9F8C820D9F882
:1009E800C010019B81F810A022B113465269002A59
:1009F800FBD114331960C9F8D4A04A69C1F814A00E
:100A0800D9F8E01000294FF0DC01C9F8C02008BF70
:100A1800D82159F80110C9F8D01003F037FDD9F8DA
:100A2800C00058B14846414600F048FB99F8FE001E
:100A380050B103F07BFB18BF886205E0D8F80000CE
:100A4800416A21F003014162029802F02DFA9CE705
:100A5800D9F8C0203AB103211174BDE8FE4F01F066
:100A680049BEBDE8FE8F486820F002004860486A29
:100A780020F003004862D8E904021043D9F8CC20DA
:100A880052681268D062C2F80405486920F0010073
:100A98004861012008624046BDE8FE4F03F0DDB81A
:100AA800B0B560480021604C016094F83A01032811
:100AB80012D002282ED0012840F0AF8094F84001CF
:100AC80001F0DCFF002084F840015948817B0220B6
:100AD800002908BF06209EE054480168B1F5C060AF
:100AE800C4F82C01B8BFC1F5C060D4F810110029B2
:100AF80000D5494288422ADDD4F8140103F0F6F8FB
:100B0800D4F8180103F004F9D4F8280103F024F903
:100B180001201DE04548056803F092FBC4F8140164
:100B280003F096FBC4F8180103F09AFBB5F5C06111
:100B3800C4F82801C4F8101109D094F830215AB12A
:100B4800D4F81401D4F82021D4F82C110AE000209C
:100B580084F8300106205EE0C4F82401D4E9450297
:100B6800C4F82C110223C4F81C01002901EB41012F
:100B780048BF6FF001031944042391FBF3F11144BA
:100B88000029C4F820110FDD1F2931D3D4F82421FE
:100B98002AB33E28A8BF3E2001302929A8BF292111
:100BA800C4F81C010B3909E0D4F82421032A09D11F
:100BB80011F1140FD8BF6FF013011531C4F82011CB
:100BC800002113E00128D8BF0120013811F10A0FD4
:100BD800D8BF6FF00901C4F81C010B3103E03329B9
:100BE800A8BF33211539C4F820110321C4F82411F2
:100BF80003F07CF8012003F09DF8D4F8200103F0FD
:100C080087F8D4F8240103F0A7F8A5F2FF510420CF
:100C1800032938BF0620C4F83C01BDE8B04000F005
:100C2800C7BC00BF3C500C409004002008400C405A
:100C3800A04800002DE9FF47D0E901590E460446B7
:100C480003F05EFB95F8FD1021B97169102901D8F0
:100C5800032906D803F01AFC0024204604B0BDE896
:100C6800F087012785F8FD7003F010FC00204E4A3C
:100C780085F8FC00C5E93000C5F8C80085F8FE0015
:100C88003069C5F8E4007069C5F8E800307B85F87C
:100C9800F9000028317885F8F8107168C5F8EC106B
:100CA800B9F80E10A5F8F610317E52F8211085F823
:100CB800FA1008BF1027C5F8F07099F80C0001F079
:100CC8002DFA204602F012FA99F83B00374985F8C8
:100CD800FB008A46D4E901873A6B97F83A0001F09D
:100CE800C5F97A6B98F8FB00514601F0BFF998F8FE
:100CF800F91097F83800012915D1FA6A514601F020
:100D0800B5F9BA6A97F8390046F2020101F0AEF96E
:100D180098F8FB00264903F007F998F8FB002146EC
:100D280003F0E6F90AE0BA6A46F2020101F09EF918
:100D3800FA6A97F83900514601F098F9E8464046B2
:100D480003F03AFA99F805001A4A4346CDE90040FB
:100D5800284699F8041001F0DBFD404603F0B0FA8C
:100D6800D9F80800144942460094029005F1300071
:100D780001F0BAF802F066F8104AC5F8CC0005F19F
:100D88001C000421234602F0F9FF95F8F80008B189
:100D9800B06805E005F16C00002103F097F80848F9
:100DA800C5F8BC0059E700BF704800000260002089
:100DB800C9180000E50800008D31000061440000FA
:100DC800BD440000FEB504465A480078A04213D935
:100DD80008780D46012801D1686868B1687801284B
:100DE80001D1A86840B1544F57F8346003F088FA2D
:100DF800F17921B103F04AFB00242046FEBD07EB40
:100E0800C40401216768F17103F040FB002005F17B
:100E1800040C7074F081B06030602988B180A98BAF
:100E2800C6E93D00C6E90E0086F86400B186297D52
:100E38002B69B1719CE80610C6F85021BCF1000F6F
:100E4800C6E910C34FF0FF32C6F8CC10A969C6E94D
:100E58003B203163A97F86F83610296AC6E91A0053
:100E6800C6E91C00B16486F8E800C6F8580102D14A
:100E78003249C6E9101097F8400001F04FF9D7E958
:100E8800031206F14C0003F013FAD7E9051206F134
:100E9800D00003F00DFA2A4938680968C9688847FC
:100EA8007A6C97F8240046F2020101F0DFF8254D2C
:100EB800BA6C97F82000294601F0D8F8F86901289B
:100EC8000CD1FA6C97F82800294601F0CFF83A6D52
:100ED80097F82C0046F2020101F0C8F801F0B2FFC1
:100EE800C6F85801204600F0E9FB174A06F5AE702F
:100EF8000421234602F042FF6D46284603F05CF9C0
:100F0800387A7968114A2B460094019006F114004A
:100F180001F0FEFC06F17C00002102F0D7FF06F587
:100F28008070002102F0D2FF3868D7E90C121060F7
:100F3800486062E7FC490000B4490000AF32000095
:100F4800D00100100260002071410000F506000089
:100F58002DE9F84FD0E900B7984616468946054668
:100F680013B10020C8F800008EB103F0D0F9824612
:100F780003F0C6F904469BF8070060B19BF8E80047
:100F880078B103F0A7FA6FF00800BDE8F88F6FF0AA
:100F98000900BDE8F88F03F09DFA6FF00E00BDE878
:100FA800F88F00200121CBE93B96CBF8F460CBF811
:100FB800FC008BF8E810CBF83C008BF80D008BF8A0
:100FC8000B000BF580700021009001F047FB3846BC
:100FD80003F036FABAF1000F02D19BF8050070B39E
:100FE800284600F0E3FF03F075FA9BF8050068B99E
:100FF8000A99009801F032FB10B101208BF80D001E
:10100800284601F007FC00208BF8E800B8F1000F33
:101018001CBFDBF8FC00C8F800009BF80B0030B1DF
:1010280000208BF80B006FF00D00BDE8F88F9BF8DF
:101038000D00002818BF6FF00C00BDE8F88F03F012
:1010480049FAD5E9007497F84400C00615D5D7F8D1
:1010580040C0BB6C284610210022E0470DE0D7F8BD
:10106800FC00314609EB0002204602F01DFCD7F8CF
:10107800FC10361A0144C7F8FC10002EEFD12046A8
:1010880003F02EF90028FAD0204603F0D3F997F898
:101098004400800605D53C6CBB6C28462021002204
:1010A800A0470020B8F1000F87F8E800C5D0D7F8AE
:1010B800FC00C8F800000020BDE8F88F2DE9FC4FBF
:1010C800D0F8C080D0F8D0C0D0F8E820D8F80030E8
:1010D800C346E6469C4511D3D8F814B0BBF1000FBF
:1010E80000F0898090F8FC3005244FF0000E002BAA
:1010F80008BF0124DBF800308BF81040A3EB0E0585
:10110800A2F1080AB5F5806F28BF4FF48065D0F8C2
:10111800D82032B101F1200301F12402C0F8DC50DB
:1011280005E0C0F8D85001F1180301F11C020026AF
:10113800BAF1000FC8BF0126DBF8044012681F6827
:10114800CDF800E07CB1354B53F82630BB6005FA8A
:1011580006F30126BAF1000FC8BF02260EFB0633BC
:101168002344013B05E02E4B53F82630BB6000F1C9
:10117800F6033B6043F6F0740191D1F8009004EB5C
:101188000516264009F1080EC7F804E0BC68344388
:10119800BC600024BAF1000FC8BF0124DBF8087056
:1011A8009FB16146DFF87CC05CF824308C469360C0
:1011B80005FA04F30124BAF1000FC8BF022400990C
:1011C80001FB043139444C1E05E0154951F824103F
:1011D80000F1F40491605460C2F800E09168314372
:1011E8009160C34504BF05EB0C01C0F8D01090F81E
:1011F800FE10019A09B1BDE8FC8FD9F8241041F01E
:101208000301C9F82410D0F8CC00D2E904124068D0
:10121800114300688162BDE8FC8F00BF5848000098
:1012280060480000684800002DE9F047012816D101
:10123800DFF830A1DAF83401012813D10220CAF806
:10124800340103F01DF80120012402F0D9FB60B13C
:10125800CAF8344103F0D0F84FF0FF347FE06FF064
:1012680001047CE06FF0040479E09AF85A419AF896
:1012780059119AF85801002C18BF0124002918BFE9
:101288000234002818BF0434012003F09DF8013807
:1012980018BF01209AF83811B1FA81F1490910EA0A
:1012A800010902D1002000F0B7FDDAF808002E4D40
:1012B80010F0010807D12D4F286A81683846884701
:1012C8000428F9D00646404603F0D1F8B8F1000FDB
:1012D80008D1012E04D1286A012142682348904789
:1012E80002F0A6FF28684169204688479AF8540109
:1012F80018B14FF4806003F06DF89AF8530118B1F3
:101308004FF4816003F066F8194801210160032059
:101318000021CAF8340117480160204602F008F895
:101328000128FAD1144E3068042002F069FB044603
:1013380012480125B9F1000F0560306802D101207B
:1013480000F06AFD03F0AAF8082002F059FB0443F4
:10135800CAF8345118BF4FF0FF3403F04DF8204657
:10136800BDE8F08790040020B80100100040034059
:10137800282008600C2008402C2009400C40094017
:101388002DE9FF413B4E96F8420100286AD1012021
:1013980086F8420103F024F8374F86F87001374D7C
:1013A8007868C6F86C01387B86F84101A86810F4A3
:1013B800402F13D1386988B128686421C0F30660CA
:1013C80000FB01F402F0E2FFB4FBF0F22C4906F155
:1013D8009400002301F0FCFE02F022FF01AC20463D
:1013E80003F040F82749A846002506F10C00002222
:1013F80002F094FF204603F035F8234906F1500027
:10140800082202F08BFF214A06F1D800322100237E
:1014180001F07EFA1E4C1F4A06F1F4002C2100232D
:101428002560454601F074FAD8F80800797BC0F3C6
:10143800815021B1032804BF012186F839110328FE
:1014480003D040F00200022810D1206840F040008C
:101458002060022002F0A4FA6868400702D4002045
:1014680002F09EFA002004B0BDE8F08102F00AF90B
:10147800F2E700BF90040020A0480000AC4F0050E5
:101488005D43000087430000C1330000DD2B0000EE
:1014980090220840A90A00002DE9FE4FD0E90085F6
:1014A800994614460F46834613B10020C9F8000038
:1014B80074B102F025FF064698F8070058B198F86D
:1014C800E80070B1304602F0E1FF6FF008046CE00C
:1014D8006FF0090469E0304602F0D8FF6FF00E049F
:1014E80063E000200121C8E93B74C8F8F440C8F85B
:1014F800FC0088F8E810C8F83C0088F80D0088F867
:101508000B002846019502F09BFF304602F0BEFF13
:1015180008F1D0060DF1080A02F0F2FE0446304642
:10152800514602F0B4FAD8F8F450D8F8FC10A842A2
:10153800394438BF054602982A4602F0F5FF30467E
:10154800294602F0BBF8D8F8F400D8F8FC10401B84
:10155800C8F8F4004819C8F8FC00204602F096FFC5
:10156800012D03DBD8F8F4000028D5D102F0C8FE1D
:101578000746D8F8FC0050B1019802F061FF5846C0
:1015880000F014FDD8F8FC0010B1002402E000209F
:101598006FF00F04B9F1000F18BFC9F80000002060
:1015A80088F8E800384602F071FF2046BDE8FE8F53
:1015B8002DE9F84F3C4C3D4E3D4D42F62A294FF05F
:1015C800010A4FF0030B00274FF00508D4F83C013F
:1015D800062833D8DFE800F00433183B203D4B00E1
:1015E8000F20F060C6F8109001F0A2FF45F804AC97
:1015F80055F8040C8007FBD5C6F81CA094F83901EF
:1016080090B10120EF6210E02F60C4F83CB1286867
:101618008007FCD40320DBE72F60C4F83C812868EE
:101628008007FCD40520D3E70320C6F800B0C4F82F
:101638003C012F6029688907FCD4C9E7FEE7012629
:10164800022084F83A6101F0D7FE2E6009E00220FA
:1016580000E0032084F83A01002001F0CDFE0120CB
:10166800286004F15000BDE8F84F01F07BBA002073
:1016780045F8040C286055F8040C8007FBD428684A
:101688008007FCD40B480025012105600A48016049
:101698000D2000F04BFE022002F0D2F8C4F83C51B5
:1016A80084F83B51BDE8F88F9004002000400C40BE
:1016B80058600C403C500C4004800C40FEB5D0E90A
:1016C800005401A802F094FD95F834003649374AD1
:1016D800384E085C95F83510515C354A084395F842
:1016E8003610515C2A6B40EA0103316820684F6864
:1016F8000299B847206840F2F272E1692E4B2F4FE9
:10170800426494F854209A5C94F85530FB5C1A4370
:101718000129426311D10146D4E90A2351F8307FE7
:10172800FF2A27F4004718BF07F50047FF2B0F6073
:1017380009D00A6842F4804208E0014651F8302F87
:1017480022F400420A600A6822F480420A60C16AF0
:1017580041F01001C162016B41F001010163E16BCD
:1017680009B3A16BF9B1012102F08AFCD5F858013F
:10177800E16B40680068C162C0F8041591FAA1F1F4
:101788007268B1FA81F15368022298477068A16BB8
:1017980002224368D5F8580191FAA1F1B1FA81F112
:1017A800406800689847FEBDF3490000C54800003E
:1017B800E4490000D0010010EE490000E9490000AA
:1017C8002DE9F047A4B002F09BFD33490A78012ABD
:1017D80004D124B0BDE8F04702F058BE4FF001092B
:1017E80081F8009002F052FEFFF7CAFD082000F0D1
:1017F80095FC21AC204602F0DFFCDFF8A0A0294AC6
:1018080010212346DAF80C002290254801F080F8D0
:101818002548002501AE0478244890F80080474602
:10182800A74213D8DAF8000050F8271021F0FF007B
:1018380046F82700880707D4F8B201F0010102F042
:10184800E7FC09FA07F005430137E9E7184805609E
:101858001848C16801F44001B1F5800F07D100684C
:10186800000E56F8201041F0070146F820101248E3
:10187800A4EB0802042306EB880103EB820240EA8A
:10188800880002F051FE0D482022016862F30D2104
:10189800016024B0BDE8F08712080020C8480000A5
:1018A80070040020B132000033490000C74800002E
:1018B800D0200240A84F00500010084000300940D6
:1018C800F8B5044602F09CFC07464568204602F03D
:1018D80005FCB8B1D7E9014602F012FD0546D4F877
:1018E800C000B8B104210174384600F067FED4F88E
:1018F800C800B0B1014640690028FBD1D4F8C00047
:10190800486112E002F0FCFC0446D5F8C00078B348
:10191800103034E03068416821F002014160284607
:1019280030E0D4F8C000C4F8C80041690027476116
:10193800C4E93477C4E93677C4F8C01031B3204617
:101948003146FFF7BBFBD4F8C000C4F8E07000686C
:10195800B0F5806F03D920463146FFF7AFFB94F806
:10196800FE0010BB3068416841F0020141601CE094
:1019780095F8FB00002101F0FBFF05F1FC000121B7
:1019880001702046BDE8F84002F080BD94F8FB00E5
:101998000021C4F8C47001F0EBFF012084F8FC00BA
:1019A8003068416A21F003014162284602F06EFD69
:1019B80004F13000BDE8F84001F076BA2DE9FC47A3
:1019C80006680446707A00286BD0D4F80490D6F8DC
:1019D8005801D0F80480D9F83470204601F09AF9FB
:1019E800706F20B306F14C05284602F093FD316F65
:1019F800884221D2307902281ED0B06E002850D0FB
:101A0800204601F087F9346F284602F083FD201A3A
:101A1800D6F868A0B46F7067284602F07BFD0021F5
:101A2800F1740AEB040108440190706F0CE0B06E89
:101A380010B1306F0028D5D106F14C0001A902F091
:101A480026F801217067F17458B30021B0F5806F52
:101A5800B17384BF4FF4806070670123019901441A
:101A6800013979601049B96043F6F07101EB001053
:101A78000840B9680843B860D9F83C10D9F80000A4
:101A880091FAA1F2B2FA82F203FA02F2D8F800301F
:101A98009A61D6F85821526812689162012102F0C1
:101AA800FBFABDE8FC8700BF0180000C2DE9F84374
:101AB80015460C46804600F069FF2C4800212D4F42
:101AC80001602B488146006838688169272088476B
:101AD800294E2A49306B08403063B06F20F480707B
:101AE800B0673868016B4FF4806088473868016BCD
:101AF8004FF4816088473868016B4FF4C0608847AD
:101B08001F48012101601F48C6F880413160016803
:101B1800890704D4691C08BF4FF04045C560D9F84F
:101B28000000F0698007FCD5072001F0DFFB0228E0
:101B3800FAD1B8F1000F13D1134C386A81682046E6
:101B480088470428F9D0012804D1386A032142685B
:101B580020469047D6F8180220F00300C6F818026D
:101B68003868806BBDE8F843004700BF0C40094067
:101B78002C200940B80100100C200840FFFFFEFE91
:101B880028200860100009400040034070B5203943
:101B9800062918D8DFE801F01A23042D3840480038
:101BA800147800222321FF2CF1D0D0E9015695F8B2
:101BB800FB0001F081FC726B2B49204685F8FB4045
:101BC80000F054FA49E06FF001044AE0406890F8E8
:101BD800F910012943D1012180F8FC103DE0456846
:101BE8000021002495F8FB0001F0C2FE85F8FC40B6
:101BF80037E0446894F8FB00FF282ED001F05CFC25
:101C0800FF2084F8FB0028E04068D0F8C01031BB02
:101C1800012180F8FE1020E04068D0F8C010F1B92A
:101C2800002480F8FE401CE04168D1F8C020B2B121
:101C380091F8FE209AB180680268D0E90430546AAD
:101C4800184344F003045462D1F8CC104968096879
:101C58008862506840F002005060002401E04FF0B4
:101C6800FF34204670BD00BF026000202DE9F84314
:101C780002F046FB2F4F044697F84101002854D044
:101C880002F0B4FB02F0BEFB054600F00C000C2885
:101C980003D100BF00BF30BF45E0680728D401F07A
:101CA8004FFEDFF8948081460121D8F8000000FB40
:101CB80009F6012002F062F9864219D9D8F8000025
:101CC800F02107F10C05B1FBF0F0A9EB0001284663
:101CD80002F00EFC284600F045FF00BF00BF0120BF
:101CE800FFF7A2FA00BF00BF284602F0E7FB1CE09E
:101CF80000BF00BF280715D4104F114E38688168FF
:101D0800304688470428F9D0B0FA80F005F0100171
:101D1800400940EA111002F0F5FB0A480121016070
:101D2800006800E030BF00BF00BF2046BDE8F843B0
:101D380002F0ACBB90040020FC070020D801001082
:101D4800004003402C20094070B52548066801F082
:101D580049FF24480025244C0560206C806C80478E
:101D68002248006838B122480068B6F1FF3018BF31
:101D7800304600F02BFA1F4840F2391205601E4821
:101D8800016862F31B4101601C48016801F440517D
:101D9800B1F5805F06D10168194A114001F500329A
:101DA80002600160174D0126EE612068016A142067
:101DB80088471548016841F4E021016013482E6006
:101DC800006800F44000B0F5000F03D1206C416CAE
:101DD8000F4888470F4801680029FCD170BD00BF33
:101DE8001C13005084046042B00100108001284395
:101DF800800520438C2108404820034028000940E2
:101E0800EFFFFCFC0000244300200940B44F0050C1
:101E1800BD3786000C00684270B5F8B1012858D16A
:101E2800012002F0D1FA012853D02D4C94F8380142
:101E380000284ED12848294E0569306810F4402FF3
:101E480030D17DB302F022F8502002F03DFB012092
:101E5800A84704F1940000F085FE25E002F050FB4D
:101E68001E48006810F4402F0AD11B4804693CB191
:101E78001B48943002F022FB01F0F8FF0020A04735
:101E8800174C94F8380120B31648016821F08001F6
:101E9800016080218160032001F0D2FC002084F8D9
:101EA800380116E002F030FB012084F83801306870
:101EB80010F4402F00D14DB9207A800606D4094885
:101EC80080218160016841F080010160032001F0F8
:101ED80067FD002070BD00BFA0480000B44F00504F
:101EE80090040020902208402DE9FE4F98B1164634
:101EF8008A46804602F004FADFF89C90834699F8F7
:101F0800000000BB254D2C274C2F06D0E81902F005
:101F1800E4FA0837F8E700263AE0002001276C4683
:101F28006860A860EF602870204602F045F9E0205C
:101F38001C4A234601901A48016805F1100000F078
:101F4800E7FC89F80070584602F0A0FA164D002EFA
:101F580018BF3546AF68781C08BF03270026032F33
:101F680016D8404602F0B9FA95E81E0008F10C00B0
:101F78001EC0C8F824604646C8F81470074800EB2D
:101F8800C7002C30C8F80800D8F81800C8E907A01E
:101F98003046BDE8FE8F00BF10080020580700201B
:101FA800D4070020CF400000D8480000F8B50568E5
:101FB8000446D5F8F80000B1F8BD687966680228CB
:101FC80007D105F1D000694601F00EFFC5F8F80009
:101FD80009E0D5F8EC10D5F8FC20D5F8F400114448
:101FE800C5F8F80000910028E6D031688A6B22F421
:101FF80000628A6395F84410C9060AD52F6C47B168
:10200800297A31B9AB6C204610210022B847D5F89F
:10201800F800B0F5806F84BF4FF48060C5F8F80011
:102028000099336B01444A1E3168B66B1A600E4A38
:102038009A6043F6F07202EB001010409A68104361
:102048009860D5F858014068006886620846022101
:1020580002F022F8287A0028AED120460121012674
:1020680001F0E8FD2E72F8BD018000C02DE9F84F9F
:10207800FF2831D0264B0C4605464FF4BE21AF0051
:1020880004F0020843EA80004158C9B2914227D1BE
:1020980021489A464FEA142947EA0006834602F087
:1020A8002FF90BF10101220C86F8009039430A70D0
:1020B80046F00201220E0A7002F0E8F9B8F1000FAA
:1020C80002BF45EA0A0004F001010170114801212C
:1020D80081EA5801384316E04FF0FF30BDE8F88F29
:1020E80000F5BE2024F0FF0162B9B8F1000F02BF6D
:1020F8002B4304F001041C70064B012484EA5804A5
:102108003B431C60114301600020BDE8F88F00BF0D
:1021180000200240001A4442011008402DE9F04115
:10212800254E0546371802F0EBF8044697F84A01A1
:10213800411C87F84A1128B1204602F0A7F900206F
:10214800BDE8F081DFF8748018F8257007F03F00CB
:10215800142898BFFFF7E2FF08EB8500458878B29E
:10216800B0F1FF3F0CDD78061FD4154800684169BF
:1021780028468847284601F0DBF80128FAD1DBE732
:102188000F4E3068C169284688473068416A28463A
:1021980088473068C16A284688470A480121016093
:1021A800094801688907FCD5C6E706EB8500D0F821
:1021B800601101208847BFE7900400209445000083
:1021C800B80100102820086028200840F8B5054606
:1021D8002248234E4168890705D40168F02242EA63
:1021E800114186F84D101F494FF001221F4F0A6018
:1021F8001D49098839680968846820468847A0010C
:1022080005D4E00103D5307840F00200307038681A
:10221800214642682846904701F0D0FC1448154AE8
:102228000068C0F305311170C1054FF0130158BFA4
:10223800232140237354382101EA901000F560509F
:10224800A2F85C003868816820468847022001F0BF
:10225800A9F9094801210160F8BD00BFAC4F005041
:102268000962084004A40C4000A00C40F0010010D2
:102278000C1400500EB00C40940460428B4208BF0E
:10228800824207D9009A002A01D0106051600021CB
:1022980000207047002B08BF002A10D1009A002A9E
:1022A80001D01060516002000B0000210020002BBB
:1022B80008BF002A1CBFC943C04301F0B0BEF0B537
:1022C8001C4615460B46024600200021B4FA84F647
:1022D800202E04BFB5FA85F62036B3FA83F7202FEF
:1022E80004BFB2FA82F72037F61BB6F1200727BFE2
:1022F80005FA07F400257F42B4403EBF25FA07F7E8
:102308003C43B540A34208BFAA4201D3521BA34194
:10231800404149416D0845EAC4756408761EF1D507
:10232800059F002F01D03A607B60F0BDF8B5254FBE
:1023380005463E1801F0E4FF044696F84A010138C4
:1023480086F84A01000637D11F4810F9251000EB1E
:1023580085004588CEB2B1F1FF3F0CDD70061FD471
:102368001A480068816928468847284600F0BEFF59
:102378000228FAD11AE0154F3868016A28468847BA
:102388003868816A284688473868016B2846884734
:102398000F48012101600F4801688907FCD505E055
:1023A80007EB8500D0F860110020884706F03F0051
:1023B800142898BFFFF7BAFF204602F067F80020FC
:1023C800F8BD00BF9004002094450000B80100103B
:1023D80028200860282008402DE9F04101F090FFEE
:1023E800254F804601210124D7F8900001F042FAD8
:1023F800A7F8A0400646B868D7F89840B968711A97
:10240800201A884203D9002087F8A0002EE0404611
:1024180002F03CF8351B0026B54207D334440120AE
:10242800AD1B214600F042FC0646F5E701F068FFC7
:10243800804697F8A10020B10020214600F036FC24
:102448000646701C06D0D7F89C00711B814238BF25
:10245800084601E0D7F89C00011901F0F7FC0020BC
:1024680087F8A000012087F8A200BC604046BDE8BC
:10247800F04102F00BB800BF700200202DE9FF47C1
:102488000446E0B315460E4601F03AFFDFF87890AF
:10249800074699F80000A0B90DF10408404601F07C
:1024A8008BFEDFF868A08020194A14214346029069
:1024B8000AF1040000F02CFA0120CAF8004089F85B
:1024C8000000384601F0E2FF0020E660124AE062B0
:1024D8006062C4E90500E0610E48002D18BF284677
:1024E8000023017821704168A1608168002001F013
:1024F80059FEA06220622061606001F02BFE204638
:1025080004B0BDE8F08700BF11080020A407002030
:10251800714000004C49000040420F00F0B587B000
:102528000C46064600200DF10101154602910321D3
:10253800CDE90300CDE905008DF8020046F0400022
:102548008DF8034001918DF8010001F021FE144837
:10255800406801A901F0C4FF01F054FD0A2001F010
:10256800E1FF304600F0FAFC06460E480E4FB84729
:102578002846B8470D48B847204601F0AFF90C483F
:10258800B847304601F0AAF90B480A49A64208BFE5
:102598000846B847301BB0FA80F0400907B0F0BDD4
:1025A8000408002059470000CD3D00008E49000076
:1025B800CC490000D449000007490000F8B5D0E92B
:1025C80001650446287901F0EDFED6F8CC2069694A
:1025D800286852681268D16296F8F93013B9C3684E
:1025E800DB06FCD4436823F0020343602B69D36203
:1025F8001943476A27F003074762C2F8041541697F
:1026080021F00101416101210162D6E93512D6F8B4
:10261800C00001604AB1EB699B68C3F309139A4291
:1026280003D91144DA4311440160D6F8DC204AB1D9
:102638006B6A9B68C3F309139A4203D9DB431A44B4
:1026480011440160204600F051FD287901F0A4FEF4
:102658002879BDE8F84001F0ABBE70472DE9F0439A
:1026680091B00E4621490446684600234FF0000801
:10267800324601F0DBFB701E10F1030F02D86846EA
:1026880000F070FA01F03CFE194F054601200136B2
:10269800E9467870E068A0B91EB1484601F026FF07
:1026A80078B1606800B18047284601F0EFFEB8783D
:1026B80018B101F0EDFD87F8028001F021FE054612
:1026C800E8E700207870E06820B1E0680138E06051
:1026D800002400E0FF24284601F0D8FE684601F0F7
:1026E80077FC60B211B0BDE8F08300BFF74100008D
:1026F800D8070020F8B5D0E90167054601F000FECB
:102708000446D6F8C00098B396F8F81019B9007CBA
:102718000338012831D82846FFF750FFD6F8C00003
:1027280000220223016805463DB12F7C033F022F9A
:1027380028BF2B742A606D69F6E73246016052F8AB
:10274800C81F21B10A4649690029FBD1143210601B
:102758000020C6E93000C6E93400C6E93600204644
:1027680001F094FE06F13000BDE8F84000F09CBB93
:102778003868416821F0020141602046BDE8F84010
:1027880001F084BE2DE9F84F214F83464FF0010830
:102798004FF002094FF0000A7868A0B3F8680128E2
:1027A80031D178680324082121B1014203D14908B5
:1027B800013CF9E7002407EBC40000F12C06304681
:1027C80001F013FC0546304601F022FE28B1796875
:1027D80008FA04F021EA00007860A869296AC5F8B7
:1027E800249028625846B96001F050FED5E90301EB
:1027F800EA69904701F084FD8346686A022808BFA9
:10280800C5F824A0C8E700203870BDE8F88F00BFDD
:102818005807002070B50568D5F8F81031B3D5F819
:10282800582144685668A16B20683268D162022139
:1028380001F026FCD5F85801A16B154A40680068DC
:10284800C0F8041591FAA1F112683068B1FA81F163
:10285800926990470446D5F8F800011B6879022868
:1028680006D105F1D00001F0FBF80BE000240CE0E4
:10287800D5F8F400D5F8FC200A44401AC5F8FC2025
:10288800C5F8F4000020C5F8F800204670BD00BF68
:10289800D4010010F0B587B0194E307868BB194CD8
:1028A800204601F01AFE00200127A060C4E9267026
:1028B800C4F89F00C4F8947003AD284601F000FDE9
:1028C8004FF0FF3010492A46059004F10C00FFF73D
:1028D8000BFB6D46A064284601F0FAFC70680B49B2
:1028E8002A46029004F15000FFF7C8FDC4F8900092
:1028F80001F08BFAC4F89C00377007B0F0BD00BF38
:10290800F807002070020020E1230000894300003E
:10291800FEB568B11E460D4604465BB17068C1B28B
:10292800FF2910D015490968A9420ED0E0280CD11A
:10293800002421E001206E468DF808004FF0FF309A
:10294800019000200090C02070600D480D4940F8AB
:1029580025403068C4E90052A060284601F0AEF86E
:10296800094F31793868826828469047307A18B11B
:1029780038680169284688472046FEBDD4070020EC
:1029880004060020693F0000B001001010B5174888
:102998000168890726D417480468A00221D416487C
:1029A800006800688047C0F13E000722C11007296F
:1029B800B8BFC210012000EB24718A42D8BF0A4672
:1029C8000E490968C1F30321891A0F29A8BF0F21ED
:1029D8000129D8BF014641F0F000094981F84D00AE
:1029E800087810BD0249C16010BD00BF1000094041
:1029F800FD000040B44F0050EC0100100C130050D3
:102A08000D6208402DE9F041D0E901480546D8F8A3
:102A18000000416821F002014160204601F092FA6D
:102A2800D4F8CC0000F09EFE04F1300000F062FE05
:102A380094F8F80018B904F16C0000F0C8FBD5E967
:102A480001750D4E95F83800B04795F83900B04734
:102A580095F83A00B04797F8FB00B04798F80C0093
:102A6800FFF764FC04F11C0001F020FA002084F850
:102A7800FD00BDE8F08100BFC1340000F8B505468F
:102A880016484BF2F521174E006800FB01F7144871
:102A98003C0A006800F44020B0F5802F10D112489D
:102AA800006880030CD4F0680068804700F022FDBD
:102AB8003168C9688847C010390B484304EBE034D3
:102AC8002DB90A48006820F07F4020444408306946
:102AD800416C2046BDE8F840084700BF08400C405C
:102AE800B44F0050E00100108C1300501020094032
:102AF800F0B540F6FF7C10F8013B0024082CFAD012
:102B08000646DF0716F8015B0DD1477807F00F0678
:102B18000336122E0DD190F90220D6B2B2F1FF3F42
:102B280009DD03300DE001F8015B304601345B0834
:102B3800E4E7023006E0C27806F07F06043046EA91
:102B4800C21612363F0947EA0512624508BFF0BDB2
:102B58002A013A44D543002EE8D04A5D013E0A7066
:102B68000131F8E7F8B5054601F0CAFB184E0446EE
:102B780096F8A20080B196F8A00068B9D6F890003F
:102B88000121012700F076FEB168D6F89830B268C6
:102B9800411A9A1A91420CD901F072F8012129754B
:102BA800AA681044E86096F8A00060B186F8A11001
:102BB80009E02F75AA681118181A8242E96002D232
:102BC800104601F043F92046BDE8F84001F05EBC2C
:102BD80070020020B0B5174C6068216801EA000552
:102BE80021EA0002680622601DD51348006800F437
:102BF8004000B0F5000F03D11048006800F006FE51
:102C0800042001F0E1FB811E022905D200F03AFD03
:102C1800022000F015FE03E0012808BF00F032FD95
:102C2800202000F0EDFE280648BF00F085FAA560D8
:102C3800B0BD00BF90220840B44F00500C080020DF
:102C4800B0B588B00446B0F1FF3F06DD4CB9154871
:102C580008B0BDE8B04001F0B5B8134801F0B2F8CB
:102C6800644200210A2268465CB1B4FBF2F303EB2C
:102C78008305A4EB450444F03004445401311C4658
:102C8800F2E7421E002304A8994204D0545C013A9A
:102C9800C4540133F8E70022425401F093F808B015
:102CA800B0BD00BFB2490000F74900002DE9F04768
:102CB800174E05468946304601F028FC04464FF079
:102CC800FF384FF0000AB4421FD02046274601F0D3
:102CD8001FFC0446387D0028F5D065B1F8684845E2
:102CE80009D1386910B14844F86001E087F814A0A8
:102CF800D7E906108847387D0028E4D0F868A0EBAB
:102D08000900404538BF8046DDE74046BDE8F0870A
:102D18007002002070B50468616F59B3D4F8582167
:102D280045685668E96B28683268D162012101F06C
:102D3800A7F9D4F85801E96B0F4A40680068C0F851
:102D4800041591FAA1F112683068B1FA81F192691B
:102D58009047616F091AE07C20B104F14C0000F043
:102D6800ADFC05E0206FA26F401A20675018A067DD
:102D78000020606770BD00BFD4010010B0B5134DCE
:102D88000124E86B01680120884701281BD02868C6
:102D98003C21012200230024C5680D48A84790B1B2
:102DA80000F054FC0B480C490068D1E90023886006
:102DB800C01A0A4BA2EB92025843B2EB104F98BFCD
:102DC800020C01240A602046B0BD00BFA401001017
:102DD80000A00C4030200940C407002040420F00EA
:102DE800B0B51448144D807B95F83911084306D0C6
:102DF80001F086FA95F83B1121B101F047FB002458
:102E08002046B0BD012485F83B4101F03FFB02207C
:102E180000F0C6FD0D20FFF781F908480168002978
:102E2800EED1074940220A604A60002185F83A112C
:102E3800C461E4E7A04800009004002004800C402E
:102E480038500C402DE9FF41144DD5E90067387919
:102E5800FFF764F901F054FA04463078B0B90DF17F
:102E68000408404601F0A8F9B87979790C4A434634
:102E780001950290301DFFF74BFD38684FF0FF3188
:102E8800C16208498160012131704160204601F02A
:102E9800FDFA024804B0BDE8F08100BFBC4900005B
:102EA8008B44000000180020F8B5054601F028FA08
:102EB8000446686A01280FD06869104F0126294620
:102EC8006E6207EBC0002C3001F010F86869796871
:102ED80006FA00F008437860084D287840B9E86899
:102EE800012805D10648006801F068FA0120287019
:102EF8002046BDE8F84001F0C9BA00BF58070020D5
:102F0800D40700202DE9F0410646FFF7C3FC114F16
:102F1800D7F8900001F088FA04460F480D4641F2B0
:102F2800C6084068C0EB0011B14207D8A0EBC00149
:102F380006EB4101B1FBF0F000F068FEE6FB084546
:102F4800D7F8900001F070FA001B71EB0500F7D379
:102F5800BDE8F08170020020F807002080B588B035
:102F680040F0200000218DF805000DF10200ADF8B9
:102F78000610CDE9051107918DF80410ADF802107F
:102F880004900DF1050003900320029001F000F970
:102F98000648406802A901F0A3FA01F033F80A20B4
:102FA80001F0C0FA9DF8040008B080BD04080020B4
:102FB800B0B500F0ADFC0E4C0E4D1420611CA847B6
:102FC8000A202146A84709202146A8470A4908207F
:102FD800A847B92000F03CF8084C1420A0470A2064
:102FE800A0470920A04708202146BDE8B04008476F
:102FF80000640020CB44000002200020C1340000FF
:10300800F8B5124F044616460D46387818B9FFF73A
:1030180041FC01203870B4B12EB13078207070684E
:103028006060307804E0D7E90201C4E90001C0B269
:1030380028B10120A06005B90020E06003E04FF648
:10304800FF70A060E5602046F8BD00BFD8070020EB
:10305800B0B504461420002101F0DAF807250A204B
:10306800002101F0D5F8681C0FD024FA05F000F013
:103078000101092001F0CCF80A20012101F0C8F86B
:10308800082001F021FA013DE9E71420012101F0AF
:10309800BFF84FF42F70BDE8B04001F015BAFEE755
:1030A8000E480F4A0F4B0168825800680340D0B29F
:1030B8000D4A7F2888BF0020934207D1090F0229B3
:1030C80006D307D0032901D1153004E0FF2002E020
:1030D8000A2000E00B3040B2704700BF18130050C0
:1030E80088FDFFFF00F0FF0F0010B40B7FB5D0E99B
:1030F8000154204600F0B1FD2068416821F002012A
:103108004160416921F00F0141610321016202A878
:1031180001F06EF8074995F8F93095F8FA2020681B
:10312800D5E9396509680C680399CDE90065A047B8
:103138007FBD00BFC4010010B0B501F0E1F804463E
:1031480001F0B4F90028FBD0032000F079FB0B480C
:10315800002180F83811204601F098F90848816864
:1031680002200D4688470446102000F049FC24B18F
:1031780003202946BDE8B0400847B0BD90040020B0
:10318800A04800002DE9F0414768044601F0B8F86E
:1031980005464FF00008D7F8C8609EB1716970689D
:1031A800C6F81480C7F8C81000F0FAFD284601F0E8
:1031B8006DF9D7F8BC2020463146904701F0A0F8B9
:1031C8000546E8E72846BDE8F04101F05FB97047D9
:1031D800F8B50446C8B11D4616460F46FFF75AFB18
:1031E8000020A6600A4EA761002D207518BF2E4644
:1031F800D6E9010120610748E161214600F076FE29
:10320800307810B12046FFF7ADFC2046F8BD00BF6E
:10321800344900007002002070B5044601F070F8CF
:1032280005460C480126C16A06606268130CB2F5AF
:10323800802F38BF042319444161074823210068BF
:10324800026800209047054806602846BDE870409F
:1032580001F01CB9042009408401001080022443B5
:1032680070B50D46044601F04BF8D4E901128A42C4
:1032780004D101F00BF94FF0FF3070BDE36822680C
:103288000133B3FBF1F606FB11315554E160A16837
:10329800626901319142A16088BF0A46626101F00A
:1032A800F5F8A06870BD7047F8B50D480D4D0E4F84
:1032B8000126046804608CB1B4FA84F0696880F06F
:1032C8001F0006FA00F251F8201094430029F2D0AA
:1032D80057F820205203EED58847ECE7F8BD00BF29
:1032E800E0200240C8480000001008400F49C3070A
:1032F8000A68496D01D1002106E001F0040102F0DD
:103308000103C91818BF0121830744BF02F0020353
:1033180041EA5301400744BF02F0040041EA90012A
:103328000220002918BF0120704700BF4021084033
:103338000F49C3070A68496D01D1012106E001F070
:10334800040102F00103C91818BF0121830744BF13
:1033580002F0020301EA5301400744BF02F00400EF
:1033680001EA90010220002918BF0120704700BF20
:103378004021084070B500F0C3FF04460B480178AF
:1033880021B12046BDE8704001F080B801210170EC
:10339800074805780748002DF3D0064656F80C1B59
:1033A80089688847013D3046F5E700BF13080020CB
:1033B800FB490000404900000B4801688907FCD51B
:1033C8000A4801210A4AD0F83C0101284FF00100BF
:1033D80008BF202008239061002010600548036082
:1033E80043601160704700BF58600C409004002093
:1033F80000400C4038500C4040F00201022918BF30
:1034080070477CB50A4D0B4C80B2702204232968A2
:103418004E68009020460021B0472868002170229D
:103428007023D0F80CC0204602B0BDE87040604759
:10343800A401001000A00C400C4A1278012A11D1F6
:10344800094A127882420DD9094A0029094B18BF46
:103458000A4600EB400103EB810053F82110CB68CA
:103468001146184700207047FB4900001308002048
:10347800E447000040490000B0B5054600F040FFB1
:103488000446A868E968814202D2E8680130E86029
:1034980000F038FE40B1074D6878012804D1A878BB
:1034A80010B900F04DFEA8702046BDE8B04000F00D
:1034B800EDBF00BFD8070020FF2817D0B0B50446DD
:1034C80000F0AEFD0A4D286850F82410204600F0A0
:1034D800F8FF686850F8241011B1002140F8241052
:1034E800A868002140F82410BDE8B040704700BF2C
:1034F800C848000070B50D4B1B3800FB00F193E87D
:103508007000DB6801FB00F283FB0223C6FB01238A
:10351800C5FB00231009190940EA0370001941EBA3
:10352800E471000C40EA014070BD00BFE8070020CC
:103538007CB50C4D0C4C00214FF4C0720723286851
:103548004668022000902046B047286800214FF4C2
:10355800C0720723D0F80CC0204602B0BDE8704006
:10356800604700BFA401001000A00C4010F1240F18
:10357800D8BF6FF023001B28A8BF1B2003210F22F0
:103588002430A1EB101122EA000022FA01F14FF6D3
:10359800FF7222FA00F040EA0140014908607047D2
:1035A80018A00C40B0B50A490A4A0B4B0C684D6884
:1035B800AC42FCD1844208BFB0BD155C145DAC427E
:1035C8004FF0FF3538BF01252C441C5D0C60EDE73A
:1035D80000600C40C4490000C849000010B50A4CFE
:1035E8000021206842680120904720680168012076
:1035F800884708B100F02AF804480068E0680068C5
:1036080080470349C86010BDE00100103020094020
:10361800C407002010B50A490A4C0860D1F8980080
:1036280040F00300C1F8980020688169202088478D
:10363800054800682068806BBDE81040004700BF5F
:103648008C210840B80100102C20094010B50A4808
:103658000B4C0188C907094907D14FF001222260A4
:1036680000880868BDE810400047086880474FF0A8
:103678008070206010BD00BF00A00C4080000010CA
:1036880004A40C407CB50B4D0B4C00214FF040526C
:103698001C2328684668032000902046B047286805
:1036A80000214FF40072092345680120009020464C
:1036B800A8477CBDA401001000A00C40F8B50C463A
:1036C800054600F01DFE2B1D6E690ECB8F1AA74212
:1036D80038BF3C4622442344B24288BF16466E6136
:1036E800B3FBF1F606FB1131C5E9022100F0CEFE6D
:1036F8002046F8BDB0B5054600F002FE044628464F
:1037080000F013FEA86800F083FE40B1686901214B
:1037180001FA00F004494A6822EA0000486020469D
:10372800BDE8B04000F0B2BE5807002070B50B4E9F
:10373800054600F0E5FDF5600446012D706808D1E6
:1037480038B1307828B90648006800F037FE012003
:1037580030702046BDE8704000F098BE5807002041
:10376800D4070020F8B5D0E9006500F0C9FD04468B
:10377800307870B1287900F093FD012806D12868C7
:1037880000274760301D00F0DDFB37702879FEF711
:10379800CDFD2046BDE8F84000F078BE80B588B081
:1037A8008DF81F000020CDE90500CDE903000DF1DB
:1037B8001F0002900120019000F0EAFC04484068D4
:1037C80001A900F08DFE00F01DFC08B080BD00BF0F
:1037D8000408002070B50948094C84420BD0094DF3
:1037E800094EB54207D0F5E8020110F8012B54F84C
:1037F80022209047F5E700BF00BF70BD784A00005F
:103808006C4A0000B04A0000F04A000008490A4B20
:10381800421808499A42096808D801F44001B1F5EC
:10382800000F03D105490968496C0847704700BF74
:103838005C8F82FFB44F0050B71E0500F0010010E6
:1038480070B50B4D04462E1800F05AFD96F843113A
:10385800013986F84311090605D10121AA68A1405A
:1038680022EA0101A96000F011FE002070BD00BF2E
:1038780090040020F8B504460A480F460068006B1B
:103888008047D4E904562A46334600F08BFC3FB102
:10389800A0FB052300FB063301FB0531C4E9062123
:1038A800F8BD00BF8C0100102DE9F04106460A481A
:1038B80015460C4600278046BC4209D0D8F800209F
:1038C800E95D30689269904708B10137F4E73C46F2
:1038D8002046BDE8F08100BFD0010010E0B500210E
:1038E8000A4A8DF8071047F63001ADF8031000F0CA
:1038F8000F010009105C515C8DF805000DF1030003
:103908008DF8061000F05EFA8CBD00BFB4480000C8
:1039180080B50A49142000F0D4FD1420002100F0DD
:1039280077FC012000F0D0FD1420012100F070FC8C
:103938004FF40C70BDE8804000F0C6BD0164002063
:10394800F8B500F0DDFC094E04460021D6F89000D9
:10395800FFF790FF0546D6E92667204600F096FD5A
:10396800701BB84288BF0020F8BD00BF700200205D
:10397800FF2808BF7047B0B50D46044600F0C0FCEC
:103988000649C5F3024311F8242002F0F8021A444C
:1039980001F82420BDE8B04000F078BD02100840CE
:1039A800B0B50446012000FA04F500F0A9FC074967
:1039B8008A682A438A60214491F84321013281F8B8
:1039C800432100F063FD0020B0BD00BF900400203B
:1039D80007480068C00608D4064807490068084038
:1039E8000649884204BF012070470020704700BF85
:1039F800B04F00505013005000C4FF3F00C0071CD8
:103A0800B0B504460948056855B1A868204205D0F4
:103A1800D5E9033220460021984718B92D68F3E705
:103A28000020B0BD4FF0FF30B0BD00BF90040020B3
:103A3800094880F308880948016841F47001016069
:103A480000BF00BF00F068FD08B1FFF7C3FE00F03B
:103A580095FB012000F047FD0040012088ED00E0C3
:103A6800B0B50C46054600F04BFCD5E901122B69B0
:103A7800A24238BF1446121BAA601A19B2FBF1F30E
:103A880003FB1121296100F001FD2046B0BDF8B506
:103A98000C46054600F034FCEA6895E8C20001329D
:103AA800B2FBF6F303FB16252944216000F0EEFC77
:103AB800701BF11B814238BF0846F8BD70B5084A33
:103AC800084B14689C4208D014680025D82D03D0F0
:103AD80066595E510435F9E7136043F8201070BD4C
:103AE80008ED00E000090020094882698B1A0432B9
:103AF800B3F1004F09D8531AB3F1FF3F0B46C8BFC3
:103B080013468A4298BF0B461A460260704700BFA8
:103B180018200940F8B50C46D0E90016002701F135
:103B28004C053068013C47F100018269D20606D491
:103B380029B10068C1B22846FFF792FBF1E7F8BD4A
:103B480070B50446006904F114052CCDA0FB0106EC
:103B580002FB0161C6184D41300C002240EA0541C4
:103B6800FFF7C2FFC4E9086570BDB0B5056802205B
:103B78000C46FFF765FE64B1D5F8EC000021B1EB07
:103B8800107F06D10420FFF75BFE4FF0FF30C5F829
:103B9800EC00B0BDB0B50D46044600F0B1FBD5E968
:103BA800001211B14A606A6800E06260002A18BF1A
:103BB80014462160BDE8B04000F068BC80B5FFF74E
:103BC80007FF60B10648006881034FEA00414FF0E3
:103BD800000058BF0816BDE88040FFF7C7BC80BD8D
:103BE800B44F005080B506480649006808400649A9
:103BF800884204D1FFF754FA1328C8BF80BDFEE7F6
:103C08001813005000F0FF0F0010B40B88B1B0B5C6
:103C180094B06D460446002100222846FFF7F0F9CB
:103C28002146FEF71BFD2846FFF7D1FA14B0BDE880
:103C3800B0407047B0B5056802200C46FFF7B0FEEB
:103C480054B1D5F8EC000021B1EB107F04D1042069
:103C5800BDE8B040FFF7A4BEB0BD0068C168490721
:103C680001D58168FAE70221C0F88010C168C90748
:103C780002D1D0F88C10F9E70021C0F88010704705
:103C8800B0B500F03DFB044605480021D0F890008F
:103C9800FFF7F0FD0546204600F0F8FB2846B0BDCA
:103CA80070020020B0B50C46054600F029FB002143
:103CB800216069680029616008BF29460C606C6052
:103CC800BDE8B04000F0E2BB80B5054801210068BE
:103CD800426801209047034803490068486080BD56
:103CE800E001001030200940C40700201CB5064937
:103CF80080B24FF47F42082309684C68009003485B
:103D08003021A0471CBD00BFA401001000A00C403A
:103D18001CB5064980B24FF4F802122309684C68B2
:103D2800009003480421A0471CBD00BFA401001057
:103D380000A00C401CB5064980B24FF40032112394
:103D480009684C68009003480421A0471CBD00BFC7
:103D5800A401001000A00C401CB5064980B24FF425
:103D680040620A2309684C68009003482021A04754
:103D78001CBD00BFA401001000A00C4050B14AB106
:103D880010B5044608300EC021460448FFF78AFFE4
:103D9800002010BD6FF00200704700BF90040020A3
:103DA80080B507490138884205D80620FFF748FD45
:103DB8000420FFF745FD0220BDE88040FFF740BD25
:103DC800FEFFFF0FBCB504460648056845B120460E
:103DD80000F0B9FA024601AB2846214600F0ACFAD9
:103DE800BCBD00BF04080020F8B50C46054600F02D
:103DF80087FA95E8C2002D692944216000F046FB46
:103E0800701B874238BF3846F8BD80B5D0E9042317
:103E180047F69160101A73F1000031BF4FF0FF3080
:103E2800002047F6906100F0BDF980BD10B504464A
:103E3800C0E90613826000202061207502482146EF
:103E4800BDE8104000F052B87002002070B5064E70
:103E580005460C462946D6F89000FFF771FEC6F8CD
:103E68009840C6F8945070BD7002002005484FF481
:103E7800825100680028044848BF4FF4415101604E
:103E8800704700BFAC4F005028A10C4005484FF4C4
:103E9800805100680028044848BF4FF44051016031
:103EA800704700BFAC4F0050A8A00C40B0B5044606
:103EB80000F026FA054604482146FFF76BFE28461F
:103EC800BDE8B04000F0E2BA90040020E0B5064A30
:103ED800D2E90223CDE9002301228DF800206A46A9
:103EE800FFF78EF88CBD00BFD8070020B0B50C4690
:103EF800054600F005FA25606968616069680C602C
:103F08006C60BDE8B04000F0C1BA1CB504686479C3
:103F1800022C02D1FDF7C0FA1CBD049C049402B027
:103F2800BDE81040FDF714B8FF2807D0044A5268CE
:103F380052F820308B4218BF42F82010704700BF5B
:103F4800C848000010B50549044600680968496971
:103F580088472068BDE8104000F0DEB8B0010010C6
:103F680004480549007851F8200010B1D0E9011043
:103F78000847704704ED00E00406002000220128ED
:103F88004FF0000004BF40F2EE204FF47A7202298D
:103F980008BF02461046704710B500F0B1F9044951
:103FA8000022CC68CA6000F071FA204610BD00BF3C
:103FB8005807002000F06EFAFDF7C6FE03480168B6
:103FC80041F470010160FFF733BDFEE788ED00E0C2
:103FD800B0B5044600F094F90546204600F0A5F96E
:103FE8002846BDE8B04000F051BAB0B5044600F02C
:103FF80087F925682968216029684C6000F046FA2D
:104008002846B0BD80B50A2000F08CFA0B200121AB
:1040180000F0FEF80A20BDE8804000F083BA70473F
:10402800FF2806D0034911F8202002F0FB0201F80E
:104038002020704702100840022807D0032804D126
:1040480080B5FDF7B5FA002080BDFEE7FEF7C8BED3
:10405800044890F8411119B1D0F86C0100B100473B
:10406800704700BF90040020034801210160034805
:104078000068D0E90201084704200940A40700208D
:10408800B0B50C46054600F03BF9A96CA143A964FC
:10409800BDE8B04000F0FAB9B0B50C46054600F0EE
:1040A8002FF9A96C2143A964BDE8B04000F0EEB92E
:1040B80080B5FDF765F9FDF783FBFEF779FFBDE8ED
:1040C8008040FEF7CABA10B500F01AF90446FEF7A8
:1040D80059FB2046BDE8104000F0D8B903490968EB
:1040E80021FA00F000F00100704700BFC020024034
:1040F800FF2803D0024A926842F82010704700BF98
:10410800C8480000034800886FF35F20002818BFE4
:104118000120704704ED00E00249034A41F82020DD
:10412800704700BF00090020A7300000D9F8CC1064
:10413800D8F8140049680968D1F804250242704784
:104148000349002291F8410181F84121704700BFDD
:10415800900400200348006808B1017801B1704755
:10416800FFF75AB8A4070020042805D180B51046E7
:10417800FDF7A4FABDE880400020704703490029F4
:1041880012BF01C900200021FBF7A2BF004A0000AE
:1041980080B50B20002100F03BF80A20BDE88040E4
:1041A80000F0C0B940B584B002AE0096FEF766F8DC
:1041B800029A039B04B040BD30B101210022017274
:1041C8004FF0FF31C0E90021704710B500239A4233
:1041D80008BF10BDCC5CC4540133F8E70B46114648
:1041E8001A4600F0BEB80A46002100F0BAB8704777
:1041F800024A0021C0E90012704700BF006CDC02CF
:104208000249896851F82000704700BFC84800007B
:10421800FF281CBF014A8154704700BF002002409C
:1042280002484FF000410160704700BF00A10C40F8
:104238000248016841F003010160704724220840E8
:1042480002480068C0F30720704700BF30A00C4048
:1042580002480068C0F38440704700BF04A00C40C7
:1042680002480068C0F38120704700BF20A00C40BE
:10427800024840210160FFF727BD00BFA8A00C40FD
:1042880080B5FFF789FE0149086080BD8C040020D5
:104298000248012180F84111704700BF90040020B6
:1042A8000249084490F84A01704700BF9004002072
:1042B80010B50023541E80E81E00C0E9043310BD69
:1042C800B0B5024991E83C003CC0B0BDD8480000F8
:1042D80010B5024991E81C001CC010BD4C490000F3
:1042E80000680121806900F0080081EAD000704769
:1042F80080B50A46D0F803101046FFF774FF80BD5A
:1043080080B500F0C7F8002818BF012080BD80B52F
:1043180000F0DDF8B0FA80F0400980BD234603952F
:104328008DF804500295FEF753BF0168426811608A
:1043380041680068416070471CB54FF0FF34009435
:10434800FFF7E3FD1CBD0021425C0131002AFBD1CF
:10435800481E704780B5FFF78BFFBDE88040FEF729
:10436800EBBE00239A4208BF7047C1540133F9E7F6
:104378000B46D0F80320C11D184600F0D5B8704789
:104388000148806CFEF790BD70020020014840682B
:10439800704700BFF807002001490968096A084703
:1043A800B00100100149096849690847B0010010C7
:1043B8000149096809690847B001001001490968FD
:1043C80089690847B0010010014909680968084768
:1043D800E001001001490968C96A0847B8010010DE
:1043E8000148006800680047E801001001480068BB
:1043F80040680047E801001001480068FFF796B9D7
:104408008C04002001488068704700BF9004002099
:104418000168081AB0FA80F0400970470149202263
:1044280000F082B8E447000001480068006B0047CC
:104438008C0100100068016B21F4807101637047E2
:104448000068016B41F480710163704701492422BF
:1044580000F06AB85C47000080B51046FEF746FEDB
:10446800002080BD0021C0E9001181607047002153
:104478004FF0FF32FDF71ABB4068002180F8FD10AD
:104488007047406801210068C164704700B17047F7
:1044980000F004B8EFF3108072B67047EFF31080A5
:1044A80062B6704740465146FCF708BE80B5FEF735
:1044B80065FC80BD40686C30FEF7DEBF00210175E9
:1044C80070470022FDF7D2BD0138FDD17047EFF3E8
:1044D800108070472046FFF7D9BF406000607047E2
:1044E80002681269104700F005F8FEE7007D704782
:1044F8008160704700BF7047FFF7D0BFFFF7FCBF70
:10450800FFF76CB8FFF786B8FFF7DEBB00687047A7
:104518000068704780687047012070470020704726
:1045280000207047FEF7EEBCFFF74FBEFEE7FEE740
:02453800FEE79C
:10453C0000B0004034000000FF0000001004002018
:10454C0020000000300400202000000000000000CB
:10455C000200000003000000FF000000FF0000004C
:10456C0060180020501800204000000020000000BF
:10457C0013000000140000001300000015000000E0
:10458C0016000000000200008E0000008E000100EA
:10459C008E0002008E0003008F0000018F000002CD
:1045AC008F0000038E0001048E0000058E000804AD
:1045BC008E00000489000006500000007F000100FE
:1045CC003F0004003F0002003F0001007F0002009A
:1045DC008E0002048E0001028E00010100000040DA
:1045EC0017FF0000000000000400FFFF080000009F
:1045FC00100000004018002030180020401A002045
:10460C00301A00200A000000090000000C00000015
:10461C000B00000009080AFF0A00000023202053A9
:10462C006D61727442414E204543472026205265ED
:10463C00737069726174696F6E204D6F6E69746FFF
:10464C0072205632202020202020202020202020C4
:10465C0020202020230D0A0023232323232323237C
:10466C00232323232323232323232323232323230E
:10467C0023232323232323232323232323232323FE
:10468C0023232323232323232323232323232323EE
:10469C000D0A0053544154555320627974653A20E5
:1046AC0030784378203D204F4B2E20426974735B49
:1046BC00333A305D203D206C6561642D6F66662059
:1046CC00666C6167732E0D0A005B352F355D2053C8
:1046DC0074617274696E6720636F6E74696E756F46
:1046EC00757320646174612073747265616D2061EF
:1046FC00742032353020487A2E2E2E0D0A002020C0
:10470C00626974333D494E324E28524129206F66FE
:10471C00662C20626974323D494E3250284C412936
:10472C00206F66660D0A005B342F355D2052756E66
:10473C006E696E67206F66667365742063616C6961
:10474C0062726174696F6E2E2E2E0D0A002020008D
:10475C00000000000000000000000000000000004D
:10476C00000000000100000000C201000300000076
:10477C00000000002028554E4558504543544544F0
:10478C0020E28094206578706563746564203078CD
:10479C003733290D0A00464F524D41543A20737459
:1047AC00617475732C6368315F7261772C63683246
:1047BC005F7261770D0A005B332F355D20436F6E9E
:1047CC006669677572696E6720726567697374656F
:1047DC0072732E2E2E0D0A0000000000FFFFFFFF4B
:1047EC00000000000000000040420F000800000024
:1047FC0000000000000000000D0A5B312F355D2029
:10480C00526573657474696E672041445331323953
:10481C0032522E2E2E0D0A00464154414C3A205352
:10482C005049206F70656E206661696C65640D0A75
:10483C00000D0A000D2A0000951B000081440000A9
:10484C003D0C00002D040000FD260000038000C07C
:10485C00038000D5038000CC038000DD0380000CB6
:10486C000380005D00000000020000000100000059
:10487C00030000001000000020000000202841442C
:10488C0053313239325220636F6E6669726D6564D2
:10489C00290D0A0000000000751C000041400000BA
:1048AC00010101000000000030313233343536375D
:1048BC00383941424344454600000800DC060020DC
:1048CC001803002094030020FFFFFFFF00000000EE
:1048DC0000000000FFFFFFFF000000005B322F35DF
:1048EC005D20436869702049443A20002076657247
:1048FC006966696564204F4B0D0A00205B4D495376
:10490C004D41544348215D0D0A00202052656769D2
:10491C0073746572733A2000444154415F5354419F
:10492C0052540D0A002F001E000000000000000071
:10493C00000000004048000070010020E845000025
:10494C0000000000000000000A0000004C4F46462A
:10495C005F53454E005245535032202020004C4F9F
:10496C0046462020202000434F4E46494732200027
:10497C00434F4E464947312000434831534554205C
:10498C0020003A2077726F746520005245535031E5
:10499C0020202000524C445F53454E530043483274
:1049AC005345542020003000000000203C450000FE
:1049BC0050040020DC490000010200030200010346
:1049CC002C20726561642000205B4F4B5D0D0A004A
:1049DC00000002400929FF00000602868200081030
:1049EC0018200001020304002040602D002C00015F
:0149FC0001B9
:084A00000000000000000000AE
:104A080000E500000FA1020100BF0514BF02254503
:104A1800003F00211E000029007016BFCE01FB02D6
:104A28006000342000200104CF002002400034013F
:104A38007560004320000170003101F20177000029
:104A4800F94001F9047104B5033F0606B12C7F6AE9
:104A58000E344C2B5940355F040A36CE8037E2FFBE
:104A6800F0000000F92A000079430000F942000034
:104A7800020000001000000002000000100000000A
:104A880002000000100000000200000010000000FA
:104A980002000000100000000200000010000000EA
:104AA8000200000090040000084A00009004002062
:104AB800784A0000301A0020804A00003018002090
:104AC800884A0000401A0020904A00004018002040
:104AD800984A000050180020A04A000060180020E2
:084AE800A84A000000000020B4
:020000025000AC
:107FA80000008001100080FFFDFF5800FFFFBBF3B9
:107FB800FFFFFFFFFFFFFFFFFFFFFFFFFFFFFFFFC9
:107FC800FFFFFFFFFFFFFFFFFFFFFFFFFFFFFFFFB9
:107FD800FFFFFF00FFFFFFFF00FFFFFF00C5C5FF1A
:107FE800000000FF00000000FFFFFFFFFFFFFFFF92
:087FF800FFFFFFFFFFFFFFFF89
:0400000300003FBDFD
:00000001FF
