:100000000040012095440000634A0000D3460000F0
:10001000E7460000E7460000E74600000000000059
:10002000000000000000000000000000E7460000A3
:10003000E746000000000000E7460000E746000039
:10004000E7460000E7460000E7460000E7460000FC
:10005000E7460000E7460000E7460000E7460000EC
:10006000E7460000E7460000E7460000E7460000DC
:10007000E7460000E7460000E7460000E7460000CC
:10008000E7460000E7460000E7460000E7460000BC
:10009000E7460000E7460000E7460000E7460000AC
:1000A000E7460000E7460000E7460000E74600009C
:1000B000E7460000E7460000E7460000E74600008C
:1000C000E7460000E7460000E7460000E74600007C
:0800D000E7460000E7460000CE
:1000D800A4B001F0D9FD01F0B6FB03F0A7FBAD4CCD
:1000E800152001210127A0471E200121A047122029
:1000F8000121A04716200121A0470F200121A04778
:100108000B200121A047182000210026A047A24863
:1001180004F076FC1BAD284604F01CFC4FF4E130DB
:100128002946ADF86C602190002000F07DFFDFF8D3
:100138006CB2CBF8000017AD284604F0C3FB294683
:1001480000208DF864603D4601F04CFACBF80400BD
:100158000FAF384604F0ECFB914839468DF85460EF
:100168008DF848601390002003F0C2FB0DF1180AC7
:10017800914C4FF00109CBF808000AF110088948A2
:10018800894FB8478948B84789484946CDF800900B
:1001980003F01CFF8748B8472046B8478748B84748
:1001A8008748B8478748B8478748B8478748B8470F
:1001B8008748B8478748B84700274FF008090DF126
:1001C8003B04B9F1780F3CD0DBF804005146C8E98C
:1001D8000266C8E90066CDE90845CDE90666ADF8CE
:1001E800309004F060FA48B3A9F1200002281BD32C
:1001F800A9F12400022815D3A9F1760002280FD30B
:10020800754AB9F13A0F14D0B9F1600F10D0B9F1AD
:10021800550F0BD0B9F1440F14BF764A744A08E061
:10022800704A06E06D4A04E06D4A02E06F4A00E059
:100238006D4A71484946013703F0C8FE09F10109C2
:10024800BFE7380604D06D48F9B203F0BFFE02E0FC
:100258006B4804F0A7F86B4804F0A4F86A4804F067
:10026800A1F80B200021CDE9046004A8089005A896
:100278000790042006900F2004F042FA04F080FB57
:1002880007460F20012104F03BFA5FB19DF8127078
:100298009DF813205E48394603F098FEAD2F05D12E
:1002A8005D4800E0594804F07DF803E059483946B4
:1002B80003F08CFEDBF8080004F0AEFB8DF8545018
:1002C80000200FA903F014FBCBF808001120A94661
:1002D8000695304D00218DF80F000DF10E000890A5
:1002E8000DF10F0007900B20A84704F049FB0B20E5
:1002F8000121A847494804F083FB202000218DF8FC
:100308000C608DF80860ADF80660ADF80A000DF1D4
:10031800060008900DF10A000790032006900B20B4
:10032800A84704F02DFB07460B200121A8477FB101
:100338009DF808703B48394603F048FEF84310F032
:10034800730F03D047F0200073281DD1374800E011
:10035800334804F027F84D46DDF80090DBF8080034
:1003680009F1010904F058FB8DF8546000200FA929
:1003780003F0BEFA104CCBF80800204604F012F83F
:100388002B4804F03DFBFAE62748394603F01EFEE9
:10039800E1E700BF09470000009F2400380900205A
:1003A80040420F00534C0000AD430000954E000042
:1003B800974C000043500000DA4C00009C510000AC
:1003C8001D4E0000DD4F0000765000001050000068
:1003D800A94F0000404F00002A510000245200009D
:1003E800BF510000754F000052510000D650000068
:1003F80001510000F8520000E25100005A4E00007E
:10040800784B0000C5520000E04D0000D04E0000BF
:10041800684A00001C4D00005E4D00008038010055
:10042800084F0000C54B0000A95000000E4C00000A
:10043800005A62022DE9FE4F074608680024B0B151
:10044800D7E9018A0E4604F0D3F98146D8F8E800C6
:10045800082888BF0124B068204202D17068204271
:1004680008D003203074484604F09EFA0024204641
:10047800BDE8FE8FD8F8C01069B198F8F8100029C7
:10048800EFD006213174D8F8C410C8F8C4604E61A2
:1004980098F8FC100DE000210522C8E93066C8E98B
:1004A8003411C8E9361198F8FC10002908BF012258
:1004B800327400220129726109D102204FF4E0212F
:1004C80088F8FC0098F8FB0003F080FC7068894904
:1004D8000138884205D8042003F090FC062003F078
:1004E8008DFC022003F08AFC98F8F80040B9DAF88D
:1004F8003C003168814203D298F8FC0000286CD097
:10050800D8E9361009B118B900E028B304F060FA48
:10051800DAF80000416941F001014161484604F000
:1005280043FA98F8F80008B10124A0E708F16C052F
:10053800D8F8EC10284602F067FB0028F4D0D8F869
:10054800C00003210174384602F0AAFB28460021A6
:10055800002402F059FB8AE79AF8040004F0A0F995
:10056800654CDAF810100222206991FAA1F1B1FA6B
:1005780081F14368D8F8CC00406800689847206942
:10058800DAF8141002224368D8F8CC0091FAA1F1E5
:10059800B1FA81F14068006898479AF8040004F0BD
:1005A80079F99AF8040004F081F904F011FA0020AE
:1005B800C8F8E000D8F8C0000068B0F5806F01D92D
:1005C80004F006FA98F8FE000028A1D1DAF8000035
:1005D800416841F0020141609AE798F8F90020B1BA
:1005E800D8F8EC0001307FF48BAF484604F0DCF912
:1005F800B2683AB1D8F8E8000221092838BF0121C9
:10060800009103E008F1F40200200090746834B10E
:10061800D8F8E8000227092838BF012702E008F1C6
:10062800F6040027DAF80000334D416841F0020172
:100638004160D6F800B0D946BBF1000F40D0D8F8D9
:10064800E800019209284FF0010011D22A68B9F197
:10065800000F1FD0C0071DD02178DAF8000092687B
:10066800904700281EBF3C44A9F101090120EDE78D
:100678002A68B9F1000F16D0C00714D02188DAF81B
:1006880000009268904700281EBF3C44A9F1010968
:100698000120EDE7DAF80000D26802A99047DDE909
:1006A8000120107007E0DAF80000D26802A990472C
:1006B800DDE9012010800098ABF1010B0244BBE793
:1006C800D8F8F000DAF80010CA680240102802D101
:1006D800002AF9D101E0002AF6D0706803F0BCFDC9
:1006E800D8F8C0100020C8F8C400C8F8C0000874C2
:1006F8001AE700BFFEFFFF0FC40100102DE9F04FFD
:10070800ADF5077DD0F8008006461C461546869153
:10071800404604F090F84FF0000A08EB00090DF18C
:10072800060B0027CDF814A2C84535D208F10101FF
:100738008DF810A2CDF804A211F8010C60B3252899
:1007480001F1010805D031602946A047013741462B
:10075800F2E7C6F800808597087873288DF81002AC
:1007680007D186A9284685AA234600F01AF8859F4E
:100778000EE081A9584686AA00F033F8909B0246FD
:10078800584629469847411C18BF38440746859063
:10079800781CC9D14FF0FF3738460DF5077DBDE805
:1007A800F08F2DE9F041804608681746021D0A605F
:1007B80005688DB128461C4604F03DF806463868A1
:1007C800304438600027B742A8BFBDE8F081E85D33
:1007D8004146A0470137F6E700204146BDE8F04111
:1007E80018472DE9FC4115460E46002740F2FD1139
:1007F80020220446009703F069FF84F8FD7104F590
:10080800FE70317B019025294AD004F2FD18782921
:1008180003D0642918BF6F2933D1694601AA30462D
:100828002B4600F042F8DDE9001011B12D2100F847
:1008380001190027A8EB000125464FF4FF73621A3F
:100848000029D8BF551C411C28460022002603F069
:1008580037FD0FB100F8016BA04207D8211A013803
:100868002022013103F032FF00202070291B20468E
:10087800202203F02BFF204603F0DDFF3844BDE8BB
:10088800FC816329D6D12868011D2960016804F21A
:10089800FB1084F8FC11C9B2B1FA81F14F09C9E71C
:1008A800252020800120BDE8FC81F8B50D46077B96
:1008B80019461446064600F014F8317B642905D120
:1008C800B0F1FF3FDEBF0121296040420A212246E4
:1008D8006F2F08BF0821782F08BF1021BDE8F84006
:1008E80010E0007B642807D06F2805D0782803D053
:1008F80070281CBF002070470868021D0A60006845
:10090800704700BF70B514460D46064620B9302121
:100918002068421E226001704EB13046294600F020
:100928000DF800FB1561044A0646515CF0E72068A3
:10093800BDE8704003F07FBFB4520000102904BF27
:1009480000097047082914BFB0FBF1F0C0087047D0
:100958002DE9FC47D0E900588246D8F80000D0F8C5
:10096800409019F4F06FC0F8449035D05FEA4951CF
:1009780017D5D5E91401411A504603F011FBD8F8F0
:1009880000008169C90605D401688DF807109DF833
:100998000710F6E7296801312960A97B09B9012107
:1009A800A973696C40684FF0004600F00F0404EA30
:1009B8000100B0FA80F126FA01F1014005D02F6C50
:1009C8001FB12A68AB6C5046B847B4FA84F026FACF
:1009D80000F020404042A863D5F85801D8F83C10F0
:1009E80009F0400740680068D0F8042511403943F1
:1009F80047D0DAE90064504602F064FCD7B1F07CD5
:100A080090B90BE0316F69B10068B16EB26F88546C
:100A1800306FB16F01310138B16730672068816983
:100A2800C906EFD5F07C28B1D6E91401411A504621
:100A380003F0B6FA96F86400E0B13079022819D0CC
:100A480017B1B179012901D0316F99B90024B16E7C
:100A58000128346786F86440B46607D1B36CB26F76
:100A6800D6F8CC6050460094B04703E006F17C000D
:100A780002F05EFF504601F005FAD5F858014068CB
:100A8800006800F204500068D8F83810084228D0EE
:100A9800D5F8F80028B3DAE90076504602F090F964
:100AA800504601F059FD7879012812D1D7F8F400A1
:100AB80078B997F8E80060B1002087F8E800BB6CC7
:100AC800D7F8EC10D7F8FC20D7F8504100905046E2
:100AD800A047D7F8F80020B93068816B41F400616D
:100AE80081635FEA095023D5D8F8000081690907B6
:100AF800FCD4016B21F480710163297A91B1002043
:100B0800287295F84400800606D52C6C24B1AB6C8D
:100B1800504620210022A0475046012103F081FAC7
:100B2800D8F80000816B21F400618163687908B10D
:100B3800BDE8FC8705F58070BDE8FC4702F0F8BE0B
:100B48002DE9FE4FD0E90198D8F80010CA690A6269
:100B5800D20740F0AF80D8E904014FF0000A4FF007
:100B6800000B0843D9F8CC1049680968C1F8040596
:100B780009F13000029009F1C8000190BBF1010FA2
:100B880000F2A180D9F8C000002800F09C80D9F8B4
:100B9800E010DC22D9F8CC702023002908BFD82225
:100BA80008BF182358F803404FF0240308BF1C233C
:100BB8007F68D8F8146058F803303F68D7F80455B0
:100BC800354211D0A46864070ED10468D9F8D05012
:100BD800A54209D144693CB9D8F80040656A25F0B6
:100BE80002056562C7F804659B685B0702D00BF1D4
:100BF800010BC3E759F80230002BF8D049F802A0DE
:100C0800B1FA81F1D9E934424909006849011A4425
:100C18008442C9F8D420C9F8E01028BF82420CD217
:100C28004846414600F07CFB99F8FE000028DED0DB
:100C380003F0F4FC18BF8862D9E703F0D9FDD9F8AE
:100C4800C820D9F8C010019B81F810A022B1134622
:100C58005269002AFBD114331960C9F8D4A04A6933
:100C6800C1F814A0D9F8E01000294FF0DC01C9F848
:100C7800C02008BFD82159F80110C9F8D01003F0D6
:100C880093FED9F8C00058B14846414600F048FBE9
:100C980099F8FE0050B103F0C1FC18BF886205E066
:100CA800D8F80000416A21F003014162029802F07D
:100CB800D3FB9CE7D9F8C0203AB103211174BDE8F1
:100CC800FE4F01F0EDBFBDE8FE8F486820F002003E
:100CD8004860486A20F003004862D8E904021043DB
:100CE800D9F8CC2052681268D062C2F80405486965
:100CF80020F001004861012008624046BDE8FE4F2F
:100D080003F007BAB0B560480021604C016094F860
:100D18003A01032812D002282ED0012840F0AF80D3
:100D280094F8400102F080F9002084F84001594805
:100D3800817B0220002908BF06209EE054480168F4
:100D4800B1F5C060C4F82C01B8BFC1F5C060D4F8D3
:100D58001011002900D5494288422ADDD4F814012F
:100D680003F020FAD4F8180103F02EFAD4F8280179
:100D780003F04EFA01201DE04548056803F0D8FC51
:100D8800C4F8140103F0DCFCC4F8180103F0E0FC1B
:100D9800B5F5C061C4F82801C4F8101109D094F859
:100DA80030215AB1D4F81401D4F82021D4F82C11E8
:100DB8000AE0002084F8300106205EE0C4F824012F
:100DC800D4E94502C4F82C110223C4F81C010029F7
:100DD80001EB410148BF6FF001031944042391FB63
:100DE800F3F111440029C4F820110FDD1F2931D374
:100DF800D4F824212AB33E28A8BF3E20013029294F
:100E0800A8BF2921C4F81C010B3909E0D4F8242112
:100E1800032A09D111F1140FD8BF6FF0130115314E
:100E2800C4F82011002113E00128D8BF012001389F
:100E380011F10A0FD8BF6FF00901C4F81C010B317A
:100E480003E03329A8BF33211539C4F82011032141
:100E5800C4F8241103F0A6F9012003F0C7F9D4F867
:100E6800200103F0B1F9D4F8240103F0D1F9A5F277
:100E7800FF510420032938BF0620C4F83C01BDE80F
:100E8800B04000F0F9BD00BF3C500C40D005002038
:100E980008400C40A05200002DE9FF47D0E9015955
:100EA8000E46044603F0A4FC95F8FD1021B97169BB
:100EB800102901D8032906D803F076FD002420461E
:100EC80004B0BDE8F087012785F8FD7003F06CFDDC
:100ED80000204E4A85F8FC00C5E93000C5F8C80076
:100EE80085F8FE003069C5F8E4007069C5F8E800C7
:100EF800307B85F8F9000028317885F8F81071689A
:100F0800C5F8EC10B9F80E10A5F8F610317E52F8B5
:100F1800211085F8FA1008BF1027C5F8F07099F865
:100F28000C0001F0D1FB204602F03CFB99F83B0095
:100F3800374985F8FB008A46D4E901873A6B97F868
:100F48003A0001F069FB7A6B98F8FB00514601F012
:100F580063FB98F8F91097F83800012915D1FA6A57
:100F6800514601F059FBBA6A97F8390046F2020176
:100F780001F052FB98F8FB00264903F041FA98F873
:100F8800FB00214603F022FB0AE0BA6A46F202019E
:100F980001F042FBFA6A97F83900514601F03CFB30
:100FA800E846404603F076FB99F805001A4A43469E
:100FB800CDE90040284699F8041001F07FFF40462B
:100FC80003F0F6FBD9F80800144942460094029051
:100FD80005F1300001F05EFA02F00CFA104AC5F88B
:100FE800CC0005F11C000421234603F023F995F8F1
:100FF800F80008B1B06805E005F16C00002103F0C5
:10100800C1F90848C5F8BC0059E700BF7052000094
:1010180002600020911D0000490B000045360000C9
:1010280069490000E9490000FEB504465A480078BD
:10103800A04213D908780D46012801D1686868B123
:101048006878012801D1A86840B1544F57F8346036
:1010580003F0CEFBF17921B103F0A6FC0024204671
:10106800FEBD07EBC40401216768F17103F09CFC25
:10107800002005F1040C7074F081B060306029889C
:10108800B180A98BC6E93D00C6E90E0086F8640068
:10109800B186297D2B69B1719CE80610C6F85021EC
:1010A800BCF1000FC6E910C34FF0FF32C6F8CC10F0
:1010B800A969C6E93B203163A97F86F83610296AF9
:1010C800C6E91A00C6E91C00B16486F8E800C6F84B
:1010D800580102D13249C6E9101097F8400001F0D2
:1010E800F3FAD7E9031206F14C0003F059FBD7E9EC
:1010F800051206F1D00003F053FB2A493868096845
:10110800C96888477A6C97F8240046F2020101F012
:1011180083FA254DBA6C97F82000294601F07CFA2D
:10112800F86901280CD1FA6C97F82800294601F0D3
:1011380073FA3A6D97F82C0046F2020101F06CFA46
:1011480002F058F9C6F85801204600F01BFD174A6E
:1011580006F5AE700421234603F06CF86D46284668
:1011680003F098FA387A7968114A2B46009401906E
:1011780006F1140001F0A2FE06F17C00002103F044
:1011880001F906F58070002103F0FCF83868D7E90A
:101198000C121060486062E76A5300003453000084
:1011A80067370000D001001002600020614600008F
:1011B800590900002DE9F84FD0E900B798461646BE
:1011C8008946054613B10020C8F800008EB103F027
:1011D80016FB824603F00CFB04469BF8070060B13F
:1011E8009BF8E80078B103F011FC6FF00800BDE847
:1011F800F88F6FF00900BDE8F88F03F007FC6FF077
:101208000E00BDE8F88F00200121CBE93B96CBF812
:10121800F460CBF8FC008BF8E810CBF83C008BF8B6
:101228000D008BF80B000BF580700021009001F089
:10123800EBFC384603F088FBBAF1000F02D19BF8AB
:10124800050070B3284601F087F903F0DFFB9BF82F
:10125800050068B90A99009801F0D6FC10B1012080
:101268008BF80D00284601F0ABFD00208BF8E80054
:10127800B8F1000F1CBFDBF8FC00C8F800009BF8B1
:101288000B0030B100208BF80B006FF00D00BDE8AB
:10129800F88F9BF80D00002818BF6FF00C00BDE810
:1012A800F88F03F0B3FBD5E9007497F84400C00643
:1012B80015D5D7F840C0BB6C284610210022E0475E
:1012C8000DE0D7F8FC00314609EB0002204602F099
:1012D8004BFDD7F8FC10361A0144C7F8FC10002E55
:1012E800EFD1204603F074FA0028FAD0204603F024
:1012F80025FB97F84400800605D53C6CBB6C284656
:1013080020210022A0470020B8F1000F87F8E8004C
:10131800C5D0D7F8FC00C8F800000020BDE8F88F59
:101328002DE9FC4FD0F8C080D0F8D0C0D0F8E82024
:10133800D8F80030C346E6469C4511D3D8F814B017
:10134800BBF1000F00F0898090F8FC3005244FF0C5
:10135800000E002B08BF0124DBF800308BF810408A
:10136800A3EB0E05A2F1080AB5F5806F28BF4FF46C
:101378008065D0F8D82032B101F1200301F12402B0
:10138800C0F8DC5005E0C0F8D85001F1180301F1AD
:101398001C020026BAF1000FC8BF0126DBF8044082
:1013A80012681F68CDF800E07CB1354B53F8263041
:1013B800BB6005FA06F30126BAF1000FC8BF022682
:1013C8000EFB06332344013B05E02E4B53F8263031
:1013D800BB6000F1F6033B6043F6F0740191D1F86D
:1013E800009004EB0516264009F1080EC7F804E042
:1013F800BC683443BC600024BAF1000FC8BF0124A4
:10140800DBF808709FB16146DFF87CC05CF82430D7
:101418008C46936005FA04F30124BAF1000FC8BFA3
:101428000224009901FB043139444C1E05E015499A
:1014380051F8241000F1F40491605460C2F800E0FF
:10144800916831439160C34504BF05EB0C01C0F8B6
:10145800D01090F8FE10019A09B1BDE8FC8FD9F8B8
:10146800241041F00301C9F82410D0F8CC00D2E9C7
:1014780004124068114300688162BDE8FC8F00BF18
:101488005852000060520000685200002DE9F047F1
:10149800012816D1DFF830A1DAF83401012813D178
:1014A8000220CAF8340103F063F90120012402F094
:1014B800EDFC60B1CAF8344103F028FA4FF0FF346C
:1014C8007FE06FF001047CE06FF0040479E09AF8A3
:1014D8005A419AF859119AF85801002C18BF01245A
:1014E800002918BF0234002818BF0434012003F073
:1014F800F5F9013818BF01209AF83811B1FA81F1CD
:10150800490910EA010902D1002000F05BFFDAF86E
:1015180008002E4D10F0010807D12D4F286A816868
:10152800384688470428F9D00646404603F02DFA85
:10153800B8F1000F08D1012E04D1286A01214268B0
:101548002348904703F0ECF828684169204688470B
:101558009AF8540118B14FF4806003F0C5F99AF86D
:10156800530118B14FF4816003F0BEF91948012105
:10157800016003200021CAF83401174801602046A1
:1015880002F032F90128FAD1144E3068042002F032
:101598007DFC044612480125B9F1000F056030684A
:1015A80002D1012000F00EFF03F00EFA082002F02D
:1015B8006DFC0443CAF8345118BF4FF0FF3403F0F0
:1015C800A5F92046BDE8F087D0050020B801001035
:1015D80000400340282008600C2008402C200940C7
:1015E8000C4009402DE9FF47044645480078A042D1
:1015F8000AD9444F0D4657F8346003F0F9F896F8C5
:10160800E01031B103F0D0F90024204604B0BDE861
:10161800F08707EBC4044FF00109D4F804A086F85A
:10162800E09003F0C1F99AF8100001F04DF8364F38
:10163800002D18BF2F46354DF868411C002808BFFB
:101648000AF11301097808BF0AF11100007886F839
:101658002511294686F824019AF8122000F0DCFFAB
:101668009AF8142096F82501294600F0D5FFDAF8F3
:1016780000004FF000086D46C0F8108839783170C6
:1016880079687160397AC6F82011C0F81C98284624
:1016980003F000F8DAF808001D4A2B46CDE90040AF
:1016A80006F11400DAF8041001F008FC284603F0EB
:1016B8007FF8DAF80C0017492A460094029006F1E0
:1016C800E40000F0E7FE06F13000012102F05AFEC6
:1016D800307830B906F18000002102F053FE0E4840
:1016E80070602046C6F81080C6F80C8001F0E2FE53
:1016F8000A4A06F596700421234602F09BFD84E70A
:10170800075300002C530000D8520000004000246A
:101718007D1F0000312A0000B9490000FD45000086
:101728002DE9F04790460C4606464FF001096068DF
:10173800D6E9007A10B9E068002848D003F058F8D4
:101748003978012901D1F968B9BBFC603C61C4F85A
:10175800149003F029F907F130050021284601F01B
:1017680053FA013008D138780128E0D0284641469C
:1017780001F04AFA013030D0387820B907F18000FA
:10178800002101F041FA03F038F9DAF8040003F017
:1017980087F83046214601F0F3FC8146DAF8040068
:1017A80003F084F8B9F1000F02D003F023F944E004
:1017B800387808B34FF000093FE0F96849690A3101
:1017C80010D16FF00A016161D4F8149011E06FF044
:1017D8000A006061D4F8149032E06FF00209C4F88E
:1017E80014902DE001214FF00009616139693C61D5
:1017F800CC6103F0D9F823E007F180094146484657
:1018080001F002FA013016D102F0F2FF8046F868C2
:1018180070B1304602F01AFC404603F0C5F848465D
:101828004FF0FF3101F0F0F96FF00200606102E063
:10183800404603F0B9F8D4F81490284602F078F836
:101848004846BDE8F08770472DE9FF413B4E96F8C2
:10185800420100286AD1012086F8420103F04AF8C3
:10186800374F86F87001374D7868C6F86C01387BB9
:1018780086F84101A86810F4402F13D1386988B15F
:1018880028686421C0F3066000FB01F402F0FCFF45
:10189800B4FBF0F22C4906F19400002301F0F4FEA9
:1018A80002F036FF01AC204603F060F82749A8464D
:1018B800002506F10C00002202F0A8FF204603F0E4
:1018C80055F8234906F15000082202F09FFF214AEB
:1018D80006F1D8003221002301F0F0FA1E4C1F4A0D
:1018E80006F1F4002C2100232560454601F0E6FAB4
:1018F800D8F80800797BC0F3815021B1032804BFD0
:10190800012186F83911032803D040F0020002288B
:1019180010D1206840F040002060022002F06EFAEA
:101928006868400702D4002002F068FA002004B07A
:10193800BDE8F08102F022F9F2E700BFD0050020EF
:10194800A0520000AC4F00505B480000BF450000AB
:1019580079380000F9310000902208400D0D000090
:101968002DE9FE4FD0E90085994614460F46834677
:1019780013B10020C9F8000074B102F039FF06461F
:1019880098F8070058B198F8E80070B1304603F0AD
:101998000BF86FF008046CE06FF0090469E030465A
:1019A80003F002F86FF00E0463E000200121C8E99B
:1019B8003B74C8F8F440C8F8FC0088F8E810C8F888
:1019C8003C0088F80D0088F80B002846019502F0C5
:1019D800BBFF304602F0E8FF08F1D0060DF1080A17
:1019E80002F006FF04463046514602F096FAD8F84F
:1019F800F450D8F8FC10A842394438BF054602987C
:101A08002A4603F02BF83046294602F0D3F8D8F8D6
:101A1800F400D8F8FC10401BC8F8F4004819C8F8BE
:101A2800FC00204602F0C0FF012D03DBD8F8F400CB
:101A38000028D5D102F0DCFE0746D8F8FC0050B1EA
:101A4800019802F081FF584600F086FDD8F8FC00A6
:101A580010B1002402E000206FF00F04B9F1000F6C
:101A680018BFC9F80000002088F8E800384602F0DE
:101A78009BFF2046BDE8FE8F2DE9F84F3C4C3D4EBC
:101A88003D4D42F62A294FF0010A4FF0030B00277B
:101A98004FF00508D4F83C01062833D8DFE800F0F9
:101AA8000433183B203D4B000F20F060C6F810901F
:101AB80001F0BAFF45F804AC55F8040C8007FBD5D3
:101AC800C6F81CA094F8390190B10120EF6210E02B
:101AD8002F60C4F83CB128688007FCD40320DBE7FA
:101AE8002F60C4F83C8128688007FCD40520D3E720
:101AF8000320C6F800B0C4F83C012F6029688907A4
:101B0800FCD4C9E7FEE70126022084F83A6101F017
:101B1800CFFE2E6009E0022000E0032084F83A019D
:101B2800002001F0C5FE0120286004F15000BDE846
:101B3800F84F01F0EDBA002045F8040C286055F87C
:101B4800040C8007FBD428688007FCD40B480025C8
:101B5800012105600A4801600D2000F0BDFE022049
:101B680002F0CEF8C4F83C5184F83B51BDE8F88F38
:101B7800D005002000400C4058600C403C500C4000
:101B880004800C40FEB5D0E9005401A802F0A8FD7D
:101B980095F834003649374A384E085C95F83510C0
:101BA800515C354A084395F83610515C2A6B40EA77
:101BB8000103316820684F680299B847206840F2ED
:101BC800F272E1692E4B2F4F426494F854209A5CCC
:101BD80094F85530FB5C1A430129426311D1014640
:101BE800D4E90A2351F8307FFF2A27F4004718BFA9
:101BF80007F50047FF2B0F6009D00A6842F48042BE
:101C080008E0014651F8302F22F400420A600A68C1
:101C180022F480420A60C16A41F01001C162016B7E
:101C280041F001010163E16B09B3A16BF9B1012135
:101C380002F09EFCD5F85801E16B40680068C1626B
:101C4800C0F8041591FAA1F17268B1FA81F15368EC
:101C5800022298477068A16B02224368D5F85801A0
:101C680091FAA1F1B1FA81F1406800689847FEBD88
:101C7800635300006753000054530000D001001064
:101C88005E530000595300002DE9F047A4B002F05C
:101C9800AFFD33490A78012A04D124B0BDE8F047E2
:101CA80002F082BE4FF0010981F8009002F07CFE3C
:101CB800FFF7CAFD082000F007FD21AC204602F01E
:101CC800E9FCDFF8A0A0294A10212346DAF80C0025
:101CD8002290254801F0F2F82548002501AE047845
:101CE800244890F800804746A74213D8DAF8000045
:101CF80050F8271021F0FF0046F82700880707D47E
:101D0800F8B201F0010102F0FBFC09FA07F0054303
:101D18000137E9E7184805601848C16801F440012F
:101D2800B1F5800F07D10068000E56F8201041F079
:101D3800070146F820101248A4EB0802042306EB1A
:101D4800880103EB820240EA880002F087FE0D4812
:101D58002022016862F30D21016024B0BDE8F087FC
:101D680056090020C8520000B0050020693700005D
:101D7800775100009F4D0000D0200240A84F00502E
:101D88000010084000300940F8B5044602F0B0FCE5
:101D980007464568204602F00FFCB8B1D7E901466E
:101DA80002F026FD0546D4F8C000B8B1042101743C
:101DB800384600F0D9FED4F8C800B0B101464069F1
:101DC8000028FBD1D4F8C000486112E002F010FDF1
:101DD8000446D5F8C00078B3103034E03068416864
:101DE80021F002014160284630E0D4F8C000C4F870
:101DF800C800416900274761C4E93477C4E93677E8
:101E0800C4F8C01031B320463146FFF789FAD4F838
:101E1800C000C4F8E0700068B0F5806F03D92046B0
:101E28003146FFF77DFA94F8FE0010BB3068416830
:101E380041F0020141601CE095F8FB00002101F02F
:101E4800C5FF05F1FC00012101702046BDE8F840FE
:101E580002F0AABD94F8FB000021C4F8C47001F098
:101E6800B5FF012084F8FC003068416A21F00301C5
:101E78004162284602F098FD04F13000BDE8F840C0
:101E880001F0EABA2DE9FC4706680446707A002892
:101E98006BD0D4F80490D6F85801D0F80480D9F85B
:101EA8003470204601F00EFA706F20B306F14C052D
:101EB800284602F0CAFD316F884221D230790228C3
:101EC8001ED0B06E002850D0204601F0FBF9346FC8
:101ED800284602F0BAFD201AD6F868A0B46F7067D9
:101EE800284602F0B2FD0021F1740AEB040108440F
:101EF8000190706F0CE0B06E10B1306F0028D5D132
:101F080006F14C0001A902F008F801217067F1748C
:101F180058B30021B0F5806FB17384BF4FF480606F
:101F28007067012301990144013979601049B9604A
:101F380043F6F07101EB00100840B9680843B86037
:101F4800D9F83C10D9F8000091FAA1F2B2FA82F25D
:101F580003FA02F2D8F800309A61D6F8582152688C
:101F680012689162012102F00FFBBDE8FC8700BFF7
:101F78000180000C70B5D0E90052044601211068B8
:101F8800C0F81C18D0F80418C90718BF70BDD0F8DD
:101F98000438A9684E690A3614D0D5F8D46013F00D
:101FA800120F17D01EB903F01F060A2E21D05A07A8
:101FB8006FF0040258BF6FF00502DB0648BF6FF0F0
:101FC80006024A61042102F0D6FC2046BDE87040B2
:101FD80002F077BA6EB1721EC5F8D4202CD0D5F8AD
:101FE800D0104A1CC5F8D0200978C0F8081801217B
:101FF80017E0D5F8DC10C1B10139C5F8DC10D5F807
:10200800D8104B1CC5F8D830D0F808080870012142
:10201800D5F8DC00002808BF0421012888BF092161
:102028001068BDE8704002F0A6BC042102F0A3FCD1
:10203800A86800214161C8E7D5F8DC2052B1098BB6
:10204800012361F348030B21012AC0F8003808BFB7
:102058000321E6E70421E4E72DE9F84315460C4699
:10206800804600F069FF2C4800212D4F01602B4865
:10207800814600683868816927208847294E2A499F
:10208800306B08403063B06F20F48070B0673868F8
:10209800016B4FF4806088473868016B4FF48160AA
:1020A80088473868016B4FF4C06088471F48012192
:1020B80001601F48C6F8804131600168890704D46F
:1020C800691C08BF4FF04045C560D9F80000F069A9
:1020D8008007FCD5072001F065FB0228FAD1B8F18A
:1020E800000F13D1134C386A8168204688470428AA
:1020F800F9D0012804D1386A032142682046904764
:10210800D6F8180220F00300C6F818023868806B69
:10211800BDE8F843004700BF0C4009402C200940A7
:10212800B80100100C200840FFFFFEFE28200860C0
:10213800100009400040034070B52039062918D81E
:10214800DFE801F01A23042D3840480014780022F3
:102158002321FF2CF1D0D0E9015695F8FB0001F0BE
:1021680027FC726B2B49204685F8FB4000F054FA97
:1021780049E06FF001044AE0406890F8F91001293D
:1021880043D1012180F8FC103DE04568002100247E
:1021980095F8FB0001F01AFE85F8FC4037E044682A
:1021A80094F8FB00FF282ED001F002FCFF2084F8F1
:1021B800FB0028E04068D0F8C01031BB012180F84E
:1021C800FE1020E04068D0F8C010F1B9002480F873
:1021D800FE401CE04168D1F8C020B2B191F8FE2061
:1021E8009AB180680268D0E90430546A184344F010
:1021F80003045462D1F8CC104968096888625068B1
:1022080040F002005060002401E04FF0FF34204607
:1022180070BD00BF026000202DE9F84302F0E8FA23
:102228002F4F044697F84101002854D002F068FB6C
:1022380002F072FB054600F00C000C2803D100BF29
:1022480000BF30BF45E0680728D401F0A7FDDFF8DC
:10225800948081460121D8F8000000FB09F601208E
:1022680002F0F8F8864219D9D8F80000F02107F1F1
:102278000C05B1FBF0F0A9EB0001284602F0D7FBF2
:10228800284600F045FF00BF00BF0120FFF7FEF819
:1022980000BF00BF284602F0A7FB1CE000BF00BF3C
:1022A800280715D4104F114E386881683046884782
:1022B8000428F9D0B0FA80F005F01001400940EA8E
:1022C800111002F0BAFB0A4801210160006800E021
:1022D80030BF00BF00BF2046BDE8F84302F064BB32
:1022E800D005002048090020D80100100040034014
:1022F8002C20094070B52548066801F0E3FE244803
:102308000025244C0560206C806C804722480068BA
:1023180038B122480068B6F1FF3018BF304600F0E7
:102328002BFA1F4840F2391205601E48016862F313
:102338001B4101601C48016801F44051B1F5805F00
:1023480006D10168194A114001F5003202600160A6
:10235800174D0126EE612068016A14208847154848
:10236800016841F4E021016013482E60006800F420
:102378004000B0F5000F03D1206C416C0F4888472E
:102388000F4801680029FCD170BD00BF1C13005024
:1023980084046042B0010010800128438005204376
:1023A8008C2108404820034028000940EFFFFCFC2E
:1023B8000000244300200940B44F0050BD37860078
:1023C8000C00684270B5F8B1012858D1012002F01C
:1023D80085FA012853D02D4C94F8380100284ED1A5
:1023E8002848294E0569306810F4402F30D17DB354
:1023F80001F0A8FF502002F003FB0120A84704F1D8
:10240800940000F085FE25E002F015FB1E480068E8
:1024180010F4402F0AD11B4804693CB11B48943082
:1024280002F0E2FA01F07EFF0020A047174C94F872
:10243800380120B31648016821F08001016080212D
:102448008160032001F05CFC002084F8380116E06C
:1024580002F0F5FA012084F83801306810F4402FB2
:1024680000D14DB9207A800606D4094880218160C0
:10247800016841F080010160032001F0BFFC0020E9
:1024880070BD00BFA0520000B44F0050D00500201E
:10249800902208402DE9FE4F98B116468A4680469C
:1024A80002F0A6F9DFF89C90834699F8000000BB7B
:1024B800254D2C274C2F06D0E81902F0AAFA083728
:1024C800F8E700263AE0002001276C466860A8601B
:1024D800EF602870204602F0DDF8E0201C4A234611
:1024E80001901A48016805F1100000F0E7FC89F82E
:1024F8000070584602F058FA164D002E18BF35469F
:10250800AF68781C08BF03270026032F16D840465B
:1025180002F07FFA95E81E0008F10C001EC0C8F80A
:1025280024604646C8F81470074800EBC7002C30F2
:10253800C8F80800D8F81800C8E907A03046BDE870
:10254800FE8F00BF540900209808002014090020BD
:10255800A9450000E8520000F8B505680446D5F81A
:10256800F80000B1F8BD68796668022807D105F15E
:10257800D000694601F082FEC5F8F80009E0D5F8F8
:10258800EC10D5F8FC20D5F8F4001144C5F8F80093
:1025980000910028E6D031688A6B22F400628A63D1
:1025A80095F84410C9060AD52F6C47B1297A31B974
:1025B800AB6C204610210022B847D5F8F800B0F5DA
:1025C800806F84BF4FF48060C5F8F8000099336BC2
:1025D80001444A1E3168B66B1A600E4A9A6043F687
:1025E800F07202EB001010409A6810439860D5F81A
:1025F80058014068006886620846022101F0C4FF5D
:10260800287A0028AED120460121012601F06EFD6E
:102618002E72F8BD018000C02DE9F84FFF2831D097
:10262800264B0C4605464FF4BE21AF0004F00208C5
:1026380043EA80004158C9B2914227D121489A46BD
:102648004FEA142947EA0006834602F0D1F80BF155
:102658000101220C86F8009039430A7046F0020105
:10266800220E0A7002F0A0F9B8F1000F02BF45EA85
:102678000A0004F0010101701148012181EA5801A2
:10268800384316E04FF0FF30BDE8F88F00F5BE2064
:1026980024F0FF0162B9B8F1000F02BF2B4304F028
:1026A80001041C70064B012484EA58043B431C6057
:1026B800114301600020BDE8F88F00BF00200240F0
:1026C800001A4442011008402DE9F041254E054604
:1026D800371802F08DF8044697F84A01411C87F82C
:1026E8004A1128B1204602F05FF90020BDE8F081C8
:1026F800DFF8748018F8257007F03F00142898BF99
:10270800FFF7E2FF08EB8500458878B2B0F1FF3F9C
:102718000CDD78061FD415480068416928468847AB
:10272800284601F061F80128FAD1DBE70F4E30683E
:10273800C169284688473068416A28468847306812
:10274800C16A284688470A4801210160094801688A
:102758008907FCD5C6E706EB8500D0F86011012093
:102768008847BFE7D0050020244B0000B8010010BF
:102778002820086028200840F8B505462248234E3E
:102788004168890705D40168F02242EA114186F8B8
:102798004D101F494FF001221F4F0A601D4909883B
:1027A80039680968846820468847A00105D4E00193
:1027B80003D5307840F0020030703868214642680E
:1027C8002846904701F06AFC1448154A0068C0F38F
:1027D80005311170C1054FF0130158BF2321402363
:1027E8007354382101EA901000F56050A2F85C009B
:1027F8003868816820468847022001F04FF9094867
:1028080001210160F8BD00BFAC4F005009620840CB
:1028180004A40C4000A00C40F00100100C1400505F
:102828000EB00C40940460428B4208BF824207D924
:10283800009A002A01D010605160002100207047E2
:10284800002B08BF002A10D1009A002A01D010607E
:10285800516002000B0000210020002B08BF002A55
:102868001CBFC943C04301F03CBDF0B51C4615462A
:102878000B46024600200021B4FA84F6202E04BF3D
:10288800B5FA85F62036B3FA83F7202F04BFB2FADB
:1028980082F72037F61BB6F1200727BF05FA07F4A1
:1028A80000257F42B4403EBF25FA07F73C43B540B8
:1028B800A34208BFAA4201D3521BA3414041494148
:1028C8006D0845EAC4756408761EF1D5059F002F8A
:1028D80001D03A607B60F0BDF8B5254F05463E183B
:1028E80001F086FF044696F84A01013886F84A0145
:1028F800000637D11F4810F9251000EB85004588E0
:10290800CEB2B1F1FF3F0CDD70061FD41A48006843
:10291800816928468847284600F044FF0228FAD1F2
:102928001AE0154F3868016A284688473868816A6E
:10293800284688473868016B284688470F48012190
:1029480001600F4801688907FCD505E007EB8500A1
:10295800D0F860110020884706F03F00142898BF7F
:10296800FFF7BAFF204602F01FF80020F8BD00BFAD
:10297800D0050020244B0000B80100102820086072
:10298800282008402DE9F04101F032FF254F80460C
:1029980001210124D7F8900001F0CCF9A7F8A04054
:1029A8000646B868D7F89840B968711A201A88425C
:1029B80003D9002087F8A0002EE0404601F0F4FF7C
:1029C800351B0026B54207D334440120AD1B2146F0
:1029D80000F044FC0646F5E701F00AFF804697F848
:1029E800A10020B10020214600F038FC0646701CEA
:1029F80006D0D7F89C00711B814238BF084601E019
:102A0800D7F89C00011901F07DFC002087F8A00090
:102A1800012087F8A200BC604046BDE8F04101F003
:102A2800C3BF00BFB003002070B505680446A9689D
:102A380048690A301BD16B68204600229847A8686D
:102A48006FF009064661022001F05AF9E868296921
:102A5800884213D06B68E8680022C069E860E868BB
:102A680046612046E9689847E8684661EEE74869A4
:102A7800033008D100202861E86020E00020E860E9
:102A8800A860286170BDE8682A69904211D06B6817
:102A9800E868C069E86001F01BFFE968204600F0BB
:102AA8006FFB0028EED005F1E400BDE8704000F0AF
:102AB800D3BC0020E86028616B6801F009FF0220A0
:102AC800BDE8704001F01CB92DE9FF470446E0B3AA
:102AD80015460E4601F08CFEDFF87890074699F807
:102AE8000000A0B90DF10408404601F0D3FDDFF85D
:102AF80068A08020194A1421434602900AF1040074
:102B080000F0DCF90120CAF8004089F800003846D6
:102B180001F04AFF0020E660124AE0626062C4E900
:102B28000500E0610E48002D18BF284600230178F3
:102B380021704168A1608168002001F0A1FDA062B8
:102B480020622061606001F07DFD204604B0BDE890
:102B5800F08700BF55090020E4080020494500001F
:102B68002053000040420F00F8B5D0E90165044643
:102B7800287901F095FED6F8CC2069692868526852
:102B88001268D16296F8F93013B9C368DB06FCD431
:102B9800436823F0020343602B69D3621943476AF1
:102BA80027F003074762C2F80415416921F00101C3
:102BB800416101210162D6E93512D6F8C0000160F1
:102BC8004AB1EB699B68C3F309139A4203D91144CC
:102BD800DA4311440160D6F8DC204AB16B6A9B687D
:102BE800C3F309139A4203D9DB431A441144016021
:102BF800204600F0D7FC287901F04CFE2879BDE882
:102C0800F84001F053BEFEE72DE9F04391B00E46BF
:102C180021490446684600234FF00008324601F077
:102C280061FB701E10F1030F02D8684600F070FABD
:102C380001F0DEFD194F054601200136E94678709E
:102C4800E068A0B91EB1484601F0EFFE78B16068AF
:102C580000B18047284601F0A7FEB87818B101F006
:102C68008FFD87F8028001F0C3FD0546E8E70020E4
:102C78007870E06820B1E0680138E060002400E086
:102C8800FF24284601F090FE684601F00DFC60B272
:102C980011B0BDE8F08300BFFF4400001809002010
:102CA800F8B5D0E90167054601F0A2FD0446D6F85B
:102CB800C00098B396F8F81019B9007C03380128B9
:102CC80031D82846FFF750FFD6F8C000002202236B
:102CD800016805463DB12F7C033F022F28BF2B74A6
:102CE8002A606D69F6E73246016052F8C81F21B1C3
:102CF8000A4649690029FBD1143210600020C6E950
:102D08003000C6E93400C6E93600204601F04CFE22
:102D180006F13000BDE8F84000F09EBB3868416815
:102D280021F0020141602046BDE8F84001F03CBEB8
:102D38002DE9F84F214F83464FF001084FF0020963
:102D48004FF0000A7868A0B3F868012831D1786894
:102D58000324082121B1014203D14908013CF9E7C4
:102D6800002407EBC40000F12C06304601F0B6FB46
:102D78000546304601F0D6FD28B1796808FA04F016
:102D880021EA00007860A869296AC5F824902862B9
:102D98005846B96001F008FED5E90301EA69904791
:102DA80001F026FD8346686A022808BFC5F824A0FA
:102DB800C8E700203870BDE8F88F00BF98080020E9
:102DC80070B50568D5F8F81031B3D5F858214468BE
:102DD8005668A16B20683268D162022101F0C8FBF5
:102DE800D5F85801A16B154A40680068C0F8041569
:102DF80091FAA1F112683068B1FA81F192699047AD
:102E08000446D5F8F800011B6879022806D105F1B7
:102E1800D00001F06BF80BE000240CE0D5F8F400CA
:102E2800D5F8FC200A44401AC5F8FC20C5F8F4007F
:102E38000020C5F8F800204670BD00BFD40100107E
:102E4800F0B587B0194E307868BB194C204601F0B0
:102E5800E0FD00200127A060C4E92670C4F89F00A7
:102E6800C4F8947003AD284601F0A2FC4FF0FF307F
:102E780010492A46059004F10C00FFF70BFB6D463C
:102E8800A064284601F09CFC70680B492A46029011
:102E980004F15000FFF718FEC4F8900001F0FFF9A4
:102EA800C4F89C00377007B0F0BD00BF440900208B
:102EB800B00300208D29000085480000FEB568B1E8
:102EC8001E460D4604465BB17068C1B2FF2910D09A
:102ED80015490968A9420ED0E0280CD1002421E048
:102EE80001206E468DF808004FF0FF300190002059
:102EF8000090C02070600D480D4940F825403068AA
:102F0800C4E90052A060284601F01EF8094F317943
:102F18003868826828469047307A18B1386801695D
:102F2800284688472046FEBD140900204407002093
:102F380041440000B001001010B517480168890726
:102F480026D417480468A00221D4164800680068EF
:102F58008047C0F13E000722C1100729B8BFC21040
:102F6800012000EB24718A42D8BF0A460E4909683D
:102F7800C1F30321891A0F29A8BF0F210129D8BF3E
:102F8800014641F0F000094981F84D00087810BD6C
:102F98000249C16010BD00BF10000940FD0000409B
:102FA800B44F0050EC0100100C1300500D620840A3
:102FB8002DE9F041D0E901480546D8F800004168FC
:102FC80021F002014160204601F028FAD4F8CC0033
:102FD80000F044FE04F1300000F008FE94F8F80018
:102FE80018B904F16C0000F04EFBD5E901750D4EDF
:102FF80095F83800B04795F83900B04795F83A0089
:10300800B04797F8FB00B04798F80C00FFF764FC4E
:1030180004F11C0001F0A6F9002084F8FD00BDE8C9
:10302800F08100BFB9390000F8B5054616484BF2E3
:10303800F521174E006800FB01F714483C0A0068A8
:1030480000F44020B0F5802F10D1124800688003AA
:103058000CD4F0680068804700F0C8FC3168C96883
:103068008847C010390B484304EBE0342DB90A48AF
:10307800006820F07F40204444083069416C2046B5
:10308800BDE8F840084700BF08400C40B44F005066
:10309800E00100108C13005010200940F0B540F6F4
:1030A800FF7C10F8013B0024082CFAD00646DF0705
:1030B80016F8015B0DD1477807F00F060336122E7C
:1030C8000DD190F90220D6B2B2F1FF3F09DD0330ED
:1030D8000DE001F8015B304601345B08E4E702309B
:1030E80006E0C27806F07F06043046EAC2161236B9
:1030F8003F0947EA0512624508BFF0BD2A013A4474
:10310800D543002EE8D04A5D013E0A700131F8E748
:10311800F8B5054601F06CFB184E044696F8A20077
:1031280080B196F8A00068B9D6F89000012101276F
:1031380000F000FEB168D6F89830B268411A9A1AC1
:1031480091420CD900F0F8FF01212975AA681044B2
:10315800E86096F8A00060B186F8A11009E02F7524
:10316800AA681118181A8242E96002D2104601F0C2
:10317800C9F82046BDE8F84001F016BCB0030020AD
:1031880070B56FF007024A61D0E90020CC6891E879
:10319800680002F1D00C00689160C2F8DC40ACE82D
:1031A8006800D0F80468760642BF6FF008004861EE
:1031B80070BD0126C0F810684FF4FF76098B06EA47
:1031C800410145B1C0F80018591CC2F8D01019784F
:1031D800C0F8081805E041F00101012CC0F80018FA
:1031E80001D1032100E00B2101F0C5FB002070BDD7
:1031F800B0B5174C6068216801EA000521EA0002B1
:10320800680622601DD51348006800F44000B0F538
:10321800000F03D11048006800F058FD042001F0A9
:103228005DFB811E022905D200F0A8FC022000F0F7
:1032380067FD03E0012808BF00F0A0FC202000F093
:1032480025FE280648BF00F0D3F9A560B0BD00BF31
:1032580090220840B44F0050500900202DE9F04753
:10326800174E05468946304601F0EBFB04464FF001
:10327800FF384FF0000AB4421FD02046274601F01D
:10328800E2FB0446387D0028F5D065B1F86848456A
:1032980009D1386910B14844F86001E087F814A0F2
:1032A800D7E906108847387D0028E4D0F868A0EBF5
:1032B8000900404538BF8046DDE74046BDE8F08755
:1032C800B003002070B50468616F59B3D4F8582171
:1032D80045685668E96B28683268D162012101F0B7
:1032E80047F9D4F85801E96B0F4A40680068C0F8FC
:1032F800041591FAA1F112683068B1FA81F1926966
:103308009047616F091AE07C20B104F14C0000F08D
:1033180051FC05E0206FA26F401A20675018A06783
:103328000020606770BD00BFD4010010B0B5134D18
:103338000124E86B01680120884701281BD0286810
:103348003C21012200230024C5680D48A84790B1FC
:1033580000F0F8FB0B480C490068D1E900238860AD
:10336800C01A0A4BA2EB92025843B2EB104F98BF17
:10337800020C01240A602046B0BD00BFA401001061
:1033880000A00C40302009400409002040420F00F2
:10339800B0B51448144D807B95F83911084306D010
:1033A80001F026FA95F83B1121B101F0FDFA00244D
:1033B8002046B0BD012485F83B4101F0F5FA022012
:1033C80000F01CFD0D20FFF77FF90848016800296F
:1033D800EED1074940220A604A60002185F83A1177
:1033E800C461E4E7A0520000D005002004800C402E
:1033F80038500C402DE9FF41144DD5E90067387964
:10340800FFF762F901F0F4F904463078B0B90DF12C
:103418000408404601F03EF9B87979790C4A4346E8
:1034280001950290301DFFF749FD38684FF0FF31D4
:10343800C16208498160012131704160204601F074
:10344800B3FA024804B0BDE8F08100BF3C53000065
:10345800A749000000180020F8B5054601F0C8F992
:103468000446686A01280FD06869104F012629466A
:103478006E6207EBC0002C3000F0A4FF6869796821
:1034880006FA00F008437860084D287840B9E868E3
:10349800012805D10648006801F00EFA01202870BD
:1034A8002046BDE8F84001F07FBA00BF9808002028
:1034B800140900207CB5D0E90056002101243068A9
:1034C800C0F81018C0F81C48684601F009F90C4902
:1034D800D5F8202130680968002A0B68019918BFBF
:1034E800012298473068074A00F5026102EA411351
:1034F80001F07041194411440C63C0F804487CBDC4
:10350800AC010010E0FFFF01F8B5124F0446164663
:103518000D46387818B9FFF793FC01203870B4B11C
:103528002EB13078207070686060307804E0D7E998
:103538000201C4E90001C0B228B10120A06005B9A8
:103548000020E06003E04FF6FF70A060E5602046D1
:10355800F8BD00BF180900200E480F4A0F4B01683C
:10356800825800680340D0B20D4A7F2888BF0020E7
:10357800934207D1090F022906D307D0032901D1A5
:10358800153004E0FF2002E00A2000E00B3040B2D2
:10359800704700BF1813005088FDFFFF00F0FF0FB1
:1035A8000010B40B7FB5D0E90154204600F0B1FDFE
:1035B8002068416821F002014160416921F00F0152
:1035C80041610321016202A801F08AF8074995F8D0
:1035D800F93095F8FA202068D5E9396509680C684A
:1035E8000399CDE90065A0477FBD00BFC401001065
:1035F800B0B501F0FDF8044601F0EEF90028FBD063
:10360800032000F07DFB0B48002180F8381120468C
:1036180001F0CAF90848816802200D468847044627
:10362800102000F033FC24B103202946BDE8B04047
:103638000847B0BDD0050020A05200002DE9F04198
:103648004768044601F0D4F805464FF00008D7F85B
:10365800C8609EB171697068C6F81480C7F8C81050
:1036680000F0FAFD284601F09FF9D7F8BC20204663
:103678003146904701F0BCF80546E8E72846BDE822
:10368800F04101F091B97047F8B50446C8B11D463C
:1036980016460F46FFF7D4FB0020A6600A4EA76126
:1036A800002D207518BF2E46D6E901012061074874
:1036B800E161214600F086FE307810B12046FFF720
:1036C80027FD2046F8BD00BF08530000B0030020C6
:1036D80070B5044601F08CF805460C480126C16A0D
:1036E80006606268130CB2F5802F38BF04231944B2
:1036F8004161074823210068026800209047054877
:1037080006602846BDE8704001F04EB90420094023
:10371800840100108002244370B50D46044601F070
:1037280067F8D4E901128A4204D101F03DF94FF05B
:10373800FF3070BDE36822680133B3FBF1F606FB86
:1037480011315554E160A168626901319142A1606B
:1037580088BF0A46626101F027F9A06870BD70470A
:10376800F8B50D480D4D0E4F0126046804608CB164
:10377800B4FA84F0696880F01F0006FA00F251F884
:10378800201094430029F2D057F820205203EED598
:103798008847ECE7F8BD00BFE0200240C8520000AF
:1037A800001008400F49C3070A68496D01D100217C
:1037B80006E001F0040102F00103C91818BF012155
:1037C800830744BF02F0020341EA5301400744BFA4
:1037D80002F0040041EA90010220002918BF0120EC
:1037E800704700BF402108400F49C3070A68496D68
:1037F80001D1012106E001F0040102F00103C9181A
:1038080018BF0121830744BF02F0020301EA5301F4
:10381800400744BF02F0040001EA90010220002999
:1038280018BF0120704700BF4021084070B500F064
:10383800DFFF04460B48017821B12046BDE87040FF
:1038480001F0B2B801210170074805780748002D3A
:10385800F3D0064656F80C1B89688847013D304668
:10386800F5E700BF57090020695300001453000012
:103878000B4801688907FCD50A4801210A4AD0F893
:103888003C0101284FF0010008BF20200823906167
:10389800002010600548036043601160704700BF56
:1038A80058600C40D005002000400C4038500C40B7
:1038B80040F00201022918BF70477CB50A4D0B4C35
:1038C80080B27022042329684E68009020460021A7
:1038D800B0472868002170227023D0F80CC0204619
:1038E80002B0BDE870406047A401001000A00C4081
:1038F8000C4A1278012A11D1094A127882420DD94C
:10390800094A0029094B18BF0A4600EB400103EB9E
:10391800810053F82110CB681146184700207047E2
:103928006953000057090020045200001453000096
:10393800B0B5054600F05CFF0446A868E968814216
:1039480002D2E8680130E86000F04AFE40B1074D55
:103958006878012804D1A87810B900F069FEA87029
:103968002046BDE8B04001F01FB800BF180900208C
:1039780070B586B000260290084605921D460B4B8E
:103988000C460496002918BF0120081A29460390FE
:103998000548009005A802AAFCF7B0FE0CB10299F0
:1039A8000E7006B070BD00BF653E000061450000A6
:1039B800FF2817D0B0B5044600F09EFD0A4D2868D0
:1039C80050F82410204601F012F8686850F82410C6
:1039D80011B1002140F82410A868002140F82410F3
:1039E800BDE8B040704700BFC852000070B50D4B2D
:1039F8001B3800FB00F193E87000DB6801FB00F264
:103A080083FB0223C6FB0123C5FB00231009190908
:103A180040EA0370001941EBE471000C40EA0140F0
:103A280070BD00BF280900207CB50C4D0C4C00214E
:103A38004FF4C07207232868466802200090204689
:103A4800B047286800214FF4C0720723D0F80CC093
:103A5800204602B0BDE87040604700BFA4010010D6
:103A680000A00C4010F1240FD8BF6FF023001B28D2
:103A7800A8BF1B2003210F222430A1EB101122EA3A
:103A8800000022FA01F14FF6FF7222FA00F040EA34
:103A9800014001490860704718A00C40B0B50A49B8
:103AA8000A4A0B4B0C684D68AC42FCD1844208BFF3
:103AB800B0BD155C145DAC424FF0FF3538BF012531
:103AC8002C441C5D0C60EDE700600C404453000082
:103AD8004853000010B50A4C0021206842680120B4
:103AE8009047206801680120884708B100F02AF84B
:103AF80004480068E068006880470349C86010BD52
:103B0800E0010010302009400409002010B50A49DE
:103B18000A4C0860D1F8980040F00300C1F89800FA
:103B28002068816920208847054800682068806BE4
:103B3800BDE81040004700BF8C210840B8010010C4
:103B48002C20094010B50A480B4C0188C9070949BF
:103B580007D14FF00122226000880868BDE81040B4
:103B68000047086880474FF08070206010BD00BF94
:103B780000A00C408000001004A40C407CB50B4D44
:103B88000B4C00214FF040521C2328684668032044
:103B980000902046B047286800214FF4007209239E
:103BA8004568012000902046A8477CBDA40100106C
:103BB80000A00C40F8B50C46054600F019FE2B1D78
:103BC8006E690ECB8F1AA74238BF3C462244234465
:103BD800B24288BF16466E61B3FBF1F606FB11319F
:103BE800C5E9022100F0E0FE2046F8BDB0B5054663
:103BF80000F0FEFD0446284600F00FFEA86800F01D
:103C080091FE40B16869012101FA00F004494A684F
:103C180022EA000048602046BDE8B04000F0C4BE7B
:103C28009808002070B50B4E054600F0E1FDF560E0
:103C38000446012D706808D138B1307828B9064893
:103C4800006800F039FE012030702046BDE8704061
:103C580000F0AABE9808002014090020F8B5D0E9A1
:103C6800006500F0C5FD0446307870B1287900F091
:103C78008FFD012806D1286800274760301D00F015
:103C8800CDFB37702879FEF727FE2046BDE8F840BF
:103C980000F08ABE70B50948094C84420BD0094D22
:103CA800094EB54207D0F5E8020110F8012B54F887
:103CB80022209047F5E700BF00BF70BDE453000025
:103CC800D85300001C5400005C54000008490A4BFB
:103CD800421808499A42096808D801F44001B1F528
:103CE800000F03D105490968496C0847704700BFB0
:103CF8005C8F82FFB44F0050B71E0500F001001022
:103D080070B50B4D04462E1800F072FD96F843115D
:103D1800013986F84311090605D10121AA68A14095
:103D280022EA0101A96000F03FFE002070BD00BF3B
:103D3800D0050020F8B504460A480F460068006B15
:103D48008047D4E904562A46334600F099FC3FB12F
:103D5800A0FB052300FB063301FB0531C4E906215E
:103D6800F8BD00BF8C0100102DE9F04106460A4855
:103D780015460C4600278046BC4209D0D8F80020DA
:103D8800E95D30689269904708B10137F4E73C462D
:103D98002046BDE8F08100BFD0010010F8B500F062
:103DA80027FD094E04460021D6F89000FFF7C2FF10
:103DB8000546D6E92667204600F0F6FD701BB84296
:103DC80088BF0020F8BD00BFB0030020FF2808BF4F
:103DD8007047B0B50D46044600F00AFD0649C5F324
:103DE800024311F8242002F0F8021A4401F82420B2
:103DF800BDE8B04000F0D8BD02100840B0B5044698
:103E0800012000FA04F500F0F3FC07498A682A4308
:103E18008A60214491F84321013281F8432100F05E
:103E2800C3FD0020B0BD00BFD005002007480068D2
:103E3800C00608D406480749006808400649884271
:103E480004BF012070470020704700BFB04F0050EA
:103E58005013005000C4FF3F00C0071C70B50D464A
:103E680014460146D5E9012082420BD9161AB442FC
:103E780038BF26462868324600F0F0FD2968A86851
:103E8800314429602044A860204670BDB0B504467E
:103E98000948056855B1A868204205D0D5E903321C
:103EA80020460021984718B92D68F3E70020B0BDD7
:103EB8004FF0FF30B0BD00BFD0050020094880F3A7
:103EC80008880948016841F47001016000BF00BF1B
:103ED80000F0BDFD08B1FFF7DDFE00F0C7FB0120D3
:103EE80000F0A0FD0040012088ED00E0B0B50C46D0
:103EF800054600F07DFCD5E901122B69A24238BFC6
:103F08001446121BAA601A19B2FBF1F303FB112124
:103F1800296100F049FD2046B0BDF8B50C460546BC
:103F280000F066FCEA6895E8C2000132B2FBF6F3DD
:103F380003FB16252944216000F036FD701BF11B98
:103F4800814238BF0846F8BD70B5084A084B146866
:103F58009C4208D014680025D82D03D066595E51BC
:103F68000435F9E7136043F8201070BD08ED00E050
:103F7800000A0020094882698B1A0432B3F1004F05
:103F880009D8531AB3F1FF3F0B46C8BF13468A42FC
:103F980098BF0B461A460260704700BF18200940B8
:103FA800F8B50C46D0E90016002701F14C05306839
:103FB800013C47F100018269D20606D429B10068A4
:103FC800C1B22846FFF7A8FBF1E7F8BD83B0B0B54A
:103FD800A9B004462DA80EC02DABA02122460093FF
:103FE80001AD2846FFF7C4FC284600F0DBF929B0EC
:103FF800BDE8B04003B0704770B50446006904F1ED
:1040080014052CCDA0FB010602FB0161C6184D4129
:10401800300C002240EA0541FFF7ACFFC4E908650F
:1040280070BDB0B5056802200C46FFF769FE64B1A3
:10403800D5F8EC000021B1EB107F06D10420FFF782
:104048005FFE4FF0FF30C5F8EC00B0BD70B5D0E9A9
:10405800006500F0CDFB0446F06830B1284600F05A
:10406800ABFCB0686FF0090141612046BDE87040C3
:1040780000F09ABCB0B50D46044600F0B9FBD5E98E
:10408800001211B14A606A6800E06260002A18BF35
:1040980014462160BDE8B04000F086BC80B5FFF74B
:1040A800C5FE60B10648006881034FEA00414FF041
:1040B800000058BF0816BDE88040FFF7D3BC80BD9C
:1040C800B44F005080B506480649006808400649C4
:1040D800884204D1FFF740FA1328C8BF80BDFEE725
:1040E8001813005000F0FF0F0010B40BB0B50568AE
:1040F80002200C46FFF782FE54B1D5F8EC000021EF
:10410800B1EB107F04D10420BDE8B040FFF776BEC4
:10411800B0BD0068C168490701D58168FAE7022186
:10412800C0F88010C168C90702D1D0F88C10F9E72F
:104138000021C0F880107047B0B500F059FB044664
:1041480005480021D0F89000FFF7F4FD0546204609
:1041580000F02AFC2846B0BDB0030020B0B50C46DC
:10416800054600F045FB002121606968002961606F
:1041780008BF29460C606C60BDE8B04000F014BC74
:1041880080B505480121006842680120904703482E
:1041980003490068486080BDE001001030200940F4
:1041A800040900201CB5064980B24FF47F42082359
:1041B80009684C68009003483021A0471CBD00BF27
:1041C800A401001000A00C401CB5064980B24FF4B1
:1041D800F802122309684C68009003480421A0479C
:1041E8001CBD00BFA401001000A00C401CB506496E
:1041F80080B24FF40032112309684C6800900348DC
:104208000421A0471CBD00BFA401001000A00C4061
:104218001CB5064980B24FF440620A2309684C680D
:10422800009003482021A0471CBD00BFA401001036
:1042380000A00C4050B14AB110B5044608300EC079
:1042480021460448FFF78AFF002010BD6FF00200E6
:10425800704700BFD005002080B507490138884263
:1042680005D80620FFF74CFD0420FFF749FD022082
:10427800BDE88040FFF744BDFEFFFF0FF8B50C46D0
:10428800054600F0B5FA95E8C2002D692944216079
:1042980000F08AFB701B874238BF3846F8BD80B5EE
:1042A800D0E9042347F69160101A73F1000031BF7A
:1042B8004FF0FF30002047F6906100F0E1F980BD33
:1042C8006BB110B50130D2B20C78944200F8014CB1
:1042D80004D001300131013BF6D1002010BD00208F
:1042E8007047704710B50446C0E906138260002085
:1042F8002061207502482146BDE8104000F062B8F0
:10430800B003002070B5064E05460C462946D6F87F
:104318009000FFF771FEC6F89840C6F8945070BD3B
:10432800B003002005484FF4825100680028044873
:1043380048BF4FF441510160704700BFAC4F005077
:1043480028A10C4005484FF4805100680028044813
:1043580048BF4FF440510160704700BFAC4F005058
:10436800A8A00C40B0B5044600F042FA054604483F
:104378002146FFF77FFE2846BDE8B04000F014BB99
:10438800D0050020E0B5064AD2E90223CDE9002392
:1043980001228DF800206A46FFF7B6F88CBD00BFF1
:1043A80018090020BCB5044605480568204600F0F9
:1043B80049FA024601AB2846214600F035FABCBD51
:1043C80038090020B0B50C46054600F011FA256002
:1043D8006968616069680C606C60BDE8B04000F0B5
:1043E800E3BA1CB504686479022C02D1FDF7B8FA67
:1043F8001CBD049C049402B0BDE81040FCF7DABE72
:10440800FF2807D0044A526852F820308B4218BF60
:1044180042F82010704700BFC852000010B5054987
:10442800044600680968496988472068BDE8104063
:1044380000F0EAB8B001001004480549007851F8C6
:10444800200010B1D0E901100847704704ED00E0E2
:1044580044070020002201284FF0000004BF40F26A
:10446800EE204FF47A72022908BF024610467047C0
:1044780010B500F0BDF904490022CC68CA6000F00C
:1044880093FA204610BD00BF9808002000F098FA63
:10449800FDF730FF0348016841F470010160FFF740
:1044A8000DBDFEE788ED00E0B0B5044600F0A0F9C8
:1044B8000546204600F0B1F92846BDE8B04000F0B6
:1044C80073BAD0E9001000220068C0F81028012251
:1044D800C0F81C2801F1E400FEF7BEBFB0B50446E1
:1044E80000F086F925682968216029684C6000F089
:1044F8005BFA2846B0BD7047FF2806D0034911F87B
:10450800202002F0FB0201F820207047021008402A
:10451800022807D0032804D180B5FDF7ADFA0020A2
:1045280080BDFEE7FEF734BF044890F8411119B189
:10453800D0F86C0100B10047704700BFD0050020DB
:1045480003480121016003480068D0E902010847D7
:1045580004200940E4080020D1E901329A4204D23B
:104568000A68531C0B6010708A6801328A607047B1
:10457800B0B50C46054600F03BF9A96CA143A96407
:10458800BDE8B04000F010BAB0B50C46054600F0E2
:104598002FF9A96C2143A964BDE8B04000F004BA22
:1045A80010B500F025F90446FEF7C2FB2046BDE829
:1045B800104000F0F9B970470349096821FA00F082
:1045C80000F00100704700BFC0200240FF2803D060
:1045D800024A926842F82010704700BFC852000093
:1045E800034800886FF35F20002818BF0120704738
:1045F80004ED00E0042805D180B51046FEF75AFF07
:10460800BDE88040002070470249034A41F8202055
:10461800704700BF000A00200F2C0000D9F8CC100A
:10462800D8F8140049680968D1F80425024270478F
:104638000349002291F8410181F84121704700BFE8
:10464800D00500200348006808B1017801B170471F
:10465800FFF73EB8E4080020042805D180B51046CD
:10466800FDF790FABDE88040002070470349002913
:1046780012BF01C900200021FBF72ABD6C530000BE
:1046880040B584B002AE0096FEF7CEF8029A039BBE
:1046980004B040BD30B10121002201724FF0FF315A
:1046A800C0E90021704780B54FF0FF32FDF738F8B8
:1046B800B0FA80F0400980BD10B500239A4208BFC7
:1046C80010BDCC5CC4540133F8E7FEE70B46114635
:1046D8001A4600F0C5B80A46002100F0C1B8FEE746
:1046E800024A0021C0E90012704700BF006CDC02DA
:1046F8000249896851F82000704700BFC85200007D
:10470800FF281CBF014A8154704700BF00200240A7
:1047180002484FF000410160704700BF00A10C4003
:104728000248016841F003010160704724220840F3
:1047380002480068C0F30720704700BF30A00C4053
:1047480002480068C0F38440704700BF04A00C40D2
:1047580002480068C0F38120704700BF20A00C40C9
:10476800024840210160FFF70BBD00BFA8A00C4024
:1047780080B5FFF77DFE0149086080BDCC050020AB
:104788000248012180F84111704700BFD005002080
:104798000249084490F84A01704700BFD00500203C
:1047A80010B50023541E80E81E00C0E9043310BD74
:1047B800B0B5024991E83C003CC0B0BDE8520000E9
:1047C80010B5024991E81C001CC010BD2053000020
:1047D80000680121806900F0080081EAD000704774
:1047E80080B50A46D0F803101046FFF774FF80BD65
:1047F80080B500F0E5F8002818BF012080BD80B51D
:1048080000F001F9B0FA80F0400980BD2346039515
:104818008DF804500295FEF737BF016842681160B1
:1048280041680068416070471CB54FF0FF34009440
:10483800FFF7D7FD1CBD0021425C0131002AFBD1E6
:10484800481E70470021425C0131002AFBD1481EF6
:10485800704780B5FFF784FFBDE88040FEF7C8BE0B
:1048680000239A4208BF7047C1540133F9E70B4649
:10487800D0F80320C11D184600F0F0B80148806C3C
:10488800FEF7EABDB003002001484068704700BF4A
:104898004409002001490968096A0847B001001065
:1048A8000149096849690847B001001001490968C8
:1048B80009690847B0010010014909688969084772
:1048C800B00100100021C0E90011C0E902117047D1
:1048D8004869B0FA80F0420920461847014909683A
:1048E80009680847E001001001490968C96A0847D2
:1048F800B80100100148006800680047E80100108E
:104908000148006840680047E80100100148006855
:10491800FFF788B9CC05002001488068704700BFC0
:10492800D00500200168081AB0FA80F040097047E5
:104938000149202200F092B8045200000068016B7F
:1049480021F48071016370470068016B41F4807144
:10495800016370470149242200F080B878510000B3
:1049680080B51046FEF71EFE002080BD0021C0E97C
:10497800001181607047C0F80418022000F040B8A8
:10498800DBF80800514600F04AB800214FF0FF322A
:10499800FDF762BB4068002180F8FD107047406851
:1049A80001210068C164704700B1704700F00CB87D
:1049B80000688030FEF7BCBF00680421FFF7DBBF4A
:1049C800EFF3108072B67047EFF3108062B670474D
:1049D80040465146FCF7A4BC80B5FEF7A7FC80BD55
:1049E80040686C30FEF7A4BF0021017570470022B3
:1049F800FDF712BE0220FFF783B90220FFF7FEB9C8
:104A08000138FDD17047EFF3108070472046FFF75B
:104A1800CBBF4060006070470168096808470268BA
:104A28001269104700F005F8FEE7007D70478160C5
:104A3800704700BF7047FFF74DB8FFF767B8FFF73B
:104A48009FBB006870470068704780687047012006
:104A580070470020704700207047FEE7FFF72CBE24
:104A68002020202A204144584C33363220494D55C5
:104A7800202843532044494F2031352920203A200B
:104A880044455649445F41443D30782530325820EA
:104A98002845787065637465642030784144292C12
:104AA8002044455649445F4D53543D3078253032B3
:104AB80058202845787065637465642030783144DF
:104AC800290D0A0000B0004034000000FF0000007B
:104AD8005005002020000000700500202000000084
:104AE800000000000200000003000000FF000000BA
:104AF800FF0000006018002050180020400000004F
:104B08002000000013000000140000001300000043
:104B18001500000016000000000200008E000000D2
:104B28008E0001008E0002008E0003008F0000013D
:104B38008F0000028F0000038E0001048E00000524
:104B48008E0008048E000004890000065000000052
:104B58007F0001003F0004003F0002003F00010009
:104B68007F0002008E0002048E0001028E00010107
:104B78002020202D2D3E205B5741524E494E475D47
:104B8800204E6F204932432064657669636573203F
:104B9800726573706F6E6465642120436865636B2A
:104BA8002070756C6C2D757073202F206C65766580
:104BB8006C20736869667465722E0D0A00202020C7
:104BC8002A20414453313239325220454347202864
:104BD80043532044494F20313129203A2043484942
:104BE800502049443D307825303258202845787087
:104BF80065637465642030783733206F72203078AD
:104C08003533290D0A0020202020202D2D3E205349
:104C180074617475733A205B564552494649454458
:104C2800204F4B5D20414453313239325220426982
:104C38006F706F74656E7469616C204146452069B8
:104C48007320414C495645210D0A000D0A3D3D3D52
:104C58003D3D3D3D3D3D3D3D3D3D3D3D3D3D3D3D7C
:104C68003D3D3D3D3D3D3D3D3D3D3D3D3D3D3D3D6C
:104C78003D3D3D3D3D3D3D3D3D3D3D3D3D3D3D3D5C
:104C88003D3D3D3D3D3D3D3D3D3D3D3D0D0A002009
:104C980020506C6174666F726D203A20434332363F
:104CA80035325231204C61756E636850616420283A
:104CB800436F727465782D4D344620402034382077
:104CC8004D487A29205B5363616E202325755D0D5D
:104CD8000A003D3D3D3D3D3D3D3D3D3D3D3D3D3D6C
:104CE8003D3D3D3D3D3D3D3D3D3D3D3D3D3D3D3DEC
:104CF8003D3D3D3D3D3D3D3D3D3D3D3D3D3D3D3DDC
:104D08003D3D3D3D3D3D3D3D3D3D3D3D3D3D3D3DCB
:104D18003D0D0A0020202020202D2D3E20537461B7
:104D28007475733A205B434845434B2050494E53B2
:104D38005D204E6F6E2D6D61746368696E672049E2
:104D4800442028726563656976656420307825306B
:104D58003258290D0A0020202020202D2D3E2053D6
:104D680074617475733A205B564552494649454407
:104D7800204F4B5D204144584C3336322041636309
:104D8800656C65726F6D6574657220697320414C3E
:104D9800495645210D0A00000000004017FF000099
:104DA800000000000400FFFF0800000010000000E1
:104DB8004018002030180020401A0020301A002027
:104DC8000A000000090000000C0000000B000000B1
:104DD80008090AFF0A0000005B332E2053504920BF
:104DE8004255532053454E534F52535D2028444952
:104DF8004F2031302053434C4B2C2044494F20380E
:104E0800204D4F53492C2044494F2039204D4953B8
:104E18004F290D0A002020202A20332E3356204DFA
:104E280061696E205261696C20202020202020209A
:104E380020202020203A2041435449564520284C20
:104E480061756E63685061642050696E2031290D68
:104E58000A002020202D2D3E2053756D6D6172793A
:104E68003A202575204932432064657669636528B0
:104E7800732920726573706F6E646564207375633F
:104E88006365737366756C6C792E0D0A0020205368
:104E98006D61727442414E20496E74656C6C69672D
:104EA800656E742053656E736F72204E6F64652053
:104EB8002D20486172647761726520446961676E6C
:104EC8006F737469630D0A002020202A204144581A
:104ED8004C33363220494D55202843532044494FFE
:104EE8002031352920203A205B5350492054524123
:104EF8004E53464552204641494C45445D0D0A00F3
:104F08002020202A2041445331323932522045434F
:104F180047202843532044494F20313129203A2043
:104F28005B535049205452414E5346455220464106
:104F3800494C45445D0D0A005B322E20493243201E
:104F4800425553205343414E5D202844494F203455
:104F58002053434C2C2044494F20352053444120B2
:104F68004020313030206B487A290D0A00424D45E7
:104F7800363830202F20424D453639302028456EAE
:104F88007669726F6E6D656E74616C3A2054656DEA
:104F9800702F48756D2F4761732F50726573732991
:104FA800002020202A2041445331323932522050E7
:104FB80057444E202844494F2032322920202020AF
:104FC800203A204E4F524D414C2028484947482905
:104FD8000D0A0D0A002020202A20312E3856204C98
:104FE800444F202844494F203231292020202020B6
:104FF80020202020203A20454E41424C454420287C
:1050080048494748290D0A002020202A20494D55A3
:1050180020506F776572205377697463682028443D
:10502800494F2031382920203A20454E41424C45ED
:1050380044202848494748290D0A00202053686918
:10504800656C642020203A2042696F6D656469634D
:10505800616C204D756C74692D53656E736F722089
:10506800536869656C642076332E350D0A0020205C
:10507800202A20493243204C6576656C20536869A4
:1050880066746572202844494F20333029203A201D
:10509800454E41424C4544202848494748290D0A75
:1050A8000020202020202D2D3E205374617475731C
:1050B8003A205B4E4F54455D2052656365697665BD
:1050C80064204944203078253032580D0A004D417B
:1050D800583332363634202842696F6D65747269E8
:1050E800632053656E736F7220487562202D2050BF
:1050F80050472F53704F3229004F505434303431B9
:10510800202F204F5054343030312028416D6269AF
:10511800656E74204C696768742053656E736F728E
:1051280029004D4C5839303633322028496E667282
:1051380061726564204D65646963616C2054656DB6
:105148007065726174757265290056434E4C34302F
:105158003430202850726F78696D69747920262060
:10516800416D6269656E74204C6967687429001E18
:105178000000000000000000000000000000000027
:10518800000000000100000000C201000300000050
:10519800000000005B312E20504F574552205241ED
:1051A800494C53202620434F4E54524F4C204C49D3
:1051B8004E45535D0D0A005043414C36343038415A
:1051C8002028362D427574746F6E204750494F2041
:1051D800457870616E64657229002020202D2D3E6F
:1051E800205B464F554E445D204164647220307800
:1051F80025303258203A2025730D0A00000000009F
:10520800FFFFFFFF000000000000000040420F0009
:10521800080000000000000000000000434834358A
:10522800354820284C4544205365676D656E7420C9
:105238004472697665722900B92F00004121000087
:105248009D490000A10E00003D040000A92C0000AB
:10525800038000C0038000D5038000CC038000DDFC
:105268000380000C0380005D0000000002000000C5
:1052780001000000030000001000000020000000F2
:105288000020004011000000FFFFFFFF00000000A9
:1052980006050D040E000000000000002122000099
:1052A80019450000010101000000000030313233CF
:1052B800343536373839616263646566000D0A0033
:1052C8001C08002058040020D4040020FFFFFFFF22
:1052D80000000000000000000000000000000000C6
:1052E8000000000000000000FFFFFFFF00000000BA
:1052F800556E6B6E6F776E20446576696365000145
:105308000000000000000000000000004052000003
:10531800B0020020A04D00000000000000000000C6
:105328000A000000700100208852000000000020E0
:10533800CC4A0000900500204C53000001020003F5
:1053480002000103000002400929FF00000602864E
:1053580082000810182000010203040020406000A9
:0353680008010138
:08536C00000000000000000039
:1053740000E500000FA1020100BF0514BF025B4A53
:10538400003F00CD2300005F007016BFCE01FB027A
:1053940060003420002001044F002002400034014A
:1053A4007400013107600020007101F202F50370FE
:1053B40000F94000BD02B503F4067703B82C7F6AF8
:1053C4000E344C2B3145355F100A3786803822FF66
:1053D400F0000000A530000077480000E947000015
:1053E4000200000010000000020000001000000095
:1053F4000200000010000000020000001000000085
:105404000200000010000000020000001000000074
:1054140002000000D005000074530000D0050020F5
:10542400E4530000301A0020EC5300003018002030
:10543400F4530000401A0020FC53000040180020E0
:1054440004540000501800200C5400006018002080
:085454001454000000000020C8
:020000025000AC
:107FA80000008001100080FFFDFF5800FFFFBBF3B9
:107FB800FFFFFFFFFFFFFFFFFFFFFFFFFFFFFFFFC9
:107FC800FFFFFFFFFFFFFFFFFFFFFFFFFFFFFFFFB9
:107FD800FFFFFF00FFFFFFFF00FFFFFF00C5C5FF1A
:107FE800000000FF00000000FFFFFFFFFFFFFFFF92
:087FF800FFFFFFFFFFFFFFFF89
:00000001FF
