:100000000040012091800000A77E0000677A000078
:10001000137C0000137C0000137C00000000000033
:10002000000000000000000000000000137C000041
:10003000137C000000000000137C0000137C000013
:10004000137C0000137C0000137C0000137C000074
:10005000137C0000137C0000137C0000137C000064
:10006000137C0000137C0000137C0000137C000054
:10007000137C0000137C0000137C0000137C000044
:10008000137C0000137C0000137C0000137C000034
:10009000137C0000137C0000137C0000137C000024
:1000A000137C0000137C0000137C0000137C000014
:1000B000137C0000137C0000137C0000137C000004
:1000C000137C0000137C0000137C0000137C0000F4
:0800D000137C0000137C00000A
:1000D800BEB008F063F808F04CFB04F08DFA04F0A9
:1000E8006AF807F045F8DFF8444D1520012101258D
:1000F800A0471E200121A0471C200121A047122053
:100108000121A04716200121A0470F200121A04767
:100118000B200121A047E94808F043FB20AC20460A
:1001280008F058FA022021460026ADF880004FF466
:10013800E1302690002003F089F9DFF8F47C386577
:100148001CAC204608F0C8F9002021468DF87860DC
:1001580003F000FF7865002005F0A4FCDFF80C4FE1
:1001680024207121A04734200021A04735200021F8
:10017800A04736200021A04737200021A0478DF84E
:10018800D46035AC0320214607F0D8F804F11501F6
:1001980004F1160214921591C8B1DFF8CC7EDFF88D
:1001A800D04E0320FF21BD72A04743203F21A04726
:1001B80044203F21A04742203F21A0474520C0219D
:1001C800A04735A9002007F0B9F8BE7102E0DFF8B2
:1001D800980E8672BA4EDFF89C4E0F203146A04723
:1001E800DFF8805E0F200121A8470B203146A04789
:1001F8000B200121A847711E1220A04712200021C0
:100208000026A84708F048FA4FF0FF354FF0AD0830
:100218000027F00734D1022F32D2DFF84C1E87F0C6
:10022800010000244872A61E18BF0126022C25D002
:100238001220214608F06CF843F6982008F0B1FA2D
:10024800DFF8240EC565002005F02CFC1F20522184
:1002580006F030F946F2A81008F0A3FA002005F0DD
:1002680059FE0134AD28DED1DFF8FC0D80F80B8093
:10027800012005F04FFE022005F04CFE0137C8E7CB
:10028800C8B1DFF8F44D2C201321A0472A20012102
:10029800A0472D202221A04744F6206008F081FACB
:1002A800DFF8D84D0B20A0472C20A0472D20A047D1
:1002B80005F062FA05E0002005F02CFEDFF8A81D25
:1002C800C872DFF8B44D2D2000214FF00008A04778
:1002D8002020FA21A04721200021A0472220042124
:1002E800A04723209621A04724200021A0472520AD
:1002F8003221A04726200021A04727203F21A047E0
:100308002C201321A0472D202221A047DFF8545D7F
:1003180016200021A847DFF8684D4FF47A70A047EF
:1003280016200121A8476748A04718200121A8479F
:1003380044F62060A047DFF84C0D07F06BFD2BA8B2
:10034800DFF83CADDFF81C9D00F10C010830199175
:1003580035A91890DFF8300D0C311A9131AE002113
:10036800022901F08B86445C16915549204608F015
:10037800C2F9204608F0E6F9322008F012FA002502
:10038800022D00F09680DFF8040D50F825703846ED
:1003980005F088FB1A9800218DF8CC80CDE93188CA
:1003A800CDE93686C0E90088C0F808800920359074
:1003B800204607F0ADFF1920D047DFF8AC0C806D60
:1003C80035A908F0C8F91920D047204608F0BAF92D
:1003D8003220D0479DF8C40000F0F000C02873D048
:1003E8002046002117972F46C8471920D0471120CB
:1003F800DFF8745C0DF1AC0B8DF8F60018985946CF
:10040800C0E90088C0E902880DF1F6002C900120AF
:100418002B90A86D08F09FF91920D047204601219C
:10042800C8473220D04720208DF8AA800021ADF897
:10043800A8001998C0E90088C0F8088029A82D905C
:100448002AA88DF8A680ADF8A4802C9003202B90C4
:100458002046C8471920D047A86D594608F07BF9AF
:100468001920D04720460121C8473220D0479DF89F
:10047800A6000138FE2847D33D46C7B9DFF8100C5F
:10048800DFF8107CB847204606F04AFCDFF8080C75
:10049800B8479DF8A60007F03BFBDFF8000CB8470B
:1004A8009DF8C40007F034FBDFF8F40BB8470135BA
:1004B80066E71699DFF8D00B013151E7A0860100F5
:1004C8000104002040420F00DFF8D80BDFF8C48B8E
:1004D800C047204606F024FCDFF8CC0BDFF8CC1B25
:1004E800002D08BF0846C047DFF8C40BC0479DF879
:1004F800C40007F00DFBDFF8BC0BC047DFF8681B32
:10050800732048730C732EE0DFF8980BDFF884AB88
:10051800D047204606F004FCDFF88C0BDFF88C1B74
:10052800002F3D4608BF0846D047DFF88C0BD04760
:100538009DF8A400DFF8849BC847DFF8848B404609
:10054800D0479DF8A500C8474046D0479DF8A6006B
:10055800C847DFF8700BD047DFF80C1B9DF8A600E2
:10056800179F0C734873DFF8600B07F053FCDFF834
:10057800F80A007B06F0D4FBDFF8500B07F04AFCC2
:10058800DFF84C4BDFF84C0B002D08BF0446DFF8B2
:10059800F0AA204607F03EFCDFF8CC8ADFF8385B8B
:1005A8001120C8F85C70A8476420D047DFF82C7B7E
:1005B8000220E021B8477D48D04701200121B847F3
:1005C80003201021B84704201021B8470520002136
:1005D8000024B84706202C21B84707200C21B8472B
:1005E80009200021B8470A208721B847182008F0B9
:1005F800A9F844F62060D0471120A8474FF47A7034
:10060800D0471A20A8476A48D0471120A8474FF476
:100618007A70D0470A200721B84742F21070D047B5
:10062800012005F03FFAD8F8580098B3ADF8BA4061
:10063800CDF8B640CDF8B240CDF8AE40CDE939445A
:10064800CDE937642BA8DFF8205A0021CDE93344DF
:10065800CDE9314436900E2035904FF43260ADF834
:10066800AC00287B07F054FE0A20D047A86D35A9B6
:1006780008F071F804460A20D047287B08F062F891
:100688001920D04734B1DFF8580AB11C0C22403089
:1006980008F08AF8DFF8480A90F84000411EFD2962
:1006A8009CBFDFF8C419487318200121012407F002
:1006B8002FFE07F0F1FF102006F0D6F807F0ECFF48
:1006C800DFF8A409407B40F0200173290AD010F01C
:1006D800700F07D1DFF8080A90F8420040F0400098
:1006E800E02802D1DFF88009847335AC1821204650
:1006F80007F0F9FD002021461722CDE92D00CDE9AC
:100708002B00ADF8C80031908A2006F091FE002831
:1007180000F0B1802BA9E1200E2206F089FE002806
:1007280000F0A98031A900200522002406F080FEEF
:10073800002800F0A0808DF8A8402AA9F020012206
:10074800012406F075FE9DF8A800159F022807D021
:10075800BDF8D81046F2A81081422CBF002401240D
:10076800DFF80419BDF8B400002C8885BDF8D40062
:10077800CC73C8859DF8D60008743DD03698DDF84E
:10078800DE10DFF8E438BDF8E220C3E90C10BDF84C
:10079800DC00A3F81120A3F81300BDF8E6001887C1
:1007A8009DF8E800587503F1160039E0A0860100AD
:1007B80020A1070000BF00BF000000000000B03EFD
:1007C800000000000000F03E000000000000703F44
:1007D800000000000000103D000000000000B03DD7
:1007E800000000000000503F000000000000103F23
:1007F800000000000000B03F3698149FC1F83A008E
:100808009DF8DC00C875DDF8DE00C1F83E00BDF8D3
:10081800E2000883DDF8E600C1F8420001F11A00A1
:100828009DF8AF40DFF840689DF8AC109DF8AD200A
:100838009DF8AE309DF8C650F4762C9CF461BDF856
:10084800B640A6F84A40BDF8B84034849DF8C44084
:1008580086F822403C780470080140EA1210A6F895
:10086800460002F00F0040EA0310A6F84800C5F35E
:10087800011086F82300DFF8F007406D002800F02B
:1008880012810021CDE93B11CDE93911CDE93711AC
:10089800032136912BA935914421ADF8EC1038216C
:1008A8008DF8AE1043F20A21ADF8AC1035A907F067
:1008B80002FDDFF8B407406D002800F0F4800C203A
:1008C80006F03CF9DFF81C48032040F60E01A0476B
:1008D80004204FF4E061A04700200021A047DFF882
:1008E8008807406D002800F0DE80DFF87C0700F103
:1008F8004C0142F20B4006F0A1F8002800F0D3802A
:10090800002443F20100ADF8AC402BA906F096F89C
:1009180068B1BDF8AC10012060F342014FF6FB70DE
:10092800ADF8AC10014043F2010006F0D1F944F6ED
:10093800206007F036FF3594ADF8C44035ACDFF8D9
:10094800A87742F20C402146B84742F20E402146B1
:10095800B84707F0EBFE1FED680B07F0B1FE41EC5E
:10096800100BDFF8045742F21040214685ED1A0BB0
:10097800B84742F212402146B84742F22440214685
:10098800B84707F0D3FE1FED720B07F099FE41EC54
:10099800100B42F22640214685ED1C0BB84707F0A4
:1009A800C5FE1FED770B07F08BFE41EC100BDFF84F
:1009B800308742F22840214688ED000BB84707F0FF
:1009C800B5FE1FED7D0B07F07BFE41EC100B42F2EC
:1009D8002A40214688ED020BB84707F0A7FE1FED15
:1009E800820B55EC106B32462B4607F0D2FE41ECD9
:1009F800100B42F22C40214688ED040BB84707F053
:100A080095FE32462B4607F0C4FE41EC100BDFF88A
:100A1800DC7642F22E4088ED060B31AD2946B84708
:100A280007F02AFE1FED920B54EC106B07F03CFE0A
:100A380041EC100B42F22F40294688ED080BB847CD
:100A480007F01AFE07F030FE41EC100B42F281402D
:100A5800294688ED0A0BB84707F00EFE1FED9E0BDE
:100A680007F02EFE41EC100B42F28240294688ED39
:100A78000C0BB84707F000FE07F016FE41EC100B10
:100A880043F2010088ED0E0B2BA9B84738B1BDF829
:100A9800AC0040F0060143F2010006F019F9DFF856
:100AA800C81501200872DFF8480600214FF0000A37
:100AB80006F0E6F8DFF83C96282109F1200007F057
:100AC80012FC042003F0A6F9D049172007F013FE02
:100AD800DFF82416172007F091FA172007F016FB05
:100AE8008DF86FA035A8CA4CDFEDCAAADFEDCABAE7
:100AF800DFEDCA9A9FEDCAEA1FEDC3FBB6EE00DA36
:100B0800FEEE008A4FF0000B10300F90DFF858050A
:100B18000078C00701F0E181DFF84C0580F800A0FB
:100B2800A069C00605D4BF48006801692046884707
:100B380016E0DFF83405CDF8D4A00DF16F010122DD
:100B4800006D35AB07F09AF9083004D1DFF81805C5
:100B5800006D06F0A5FD359800284AD09DF86F0075
:100B6800A0F1310103292FD9411C42D0432801D0DB
:100B7800632833D1DFF860451120A047DFF800551E
:100B88004FF47A70A8470A20872105F073FB42F2D8
:100B98001070A8471A20A047A348A8471120A047CB
:100BA8004FF47A70A8470A20072105F063FB42F248
:100BB8001070A8471020A0474FF47A70A847DFF8B4
:100BC8003C0507F027F914E0DFE801F002100406FD
:100BD80001200CE003200AE0042008E08028C0F28D
:100BE8000581DFF88414643888840CE1022003F05E
:100BF80011F900248DF86EA0CDF8ACA0CDF8C4A0F2
:100C08002BA90DF16E0031AA03F076FD002800F043
:100C180013811A94DFF8E804DFF87844A0479DF8B8
:100C28006E80404606F07CF8DFF8D8542846A04786
:100C38002B9E304607F0A4F92846A047319F384636
:100C480007F09EF9DFF8C004A0470BF1010BDFF8AD
:100C5800A00439460023CDF800904FEA8B0201F03A
:100C680065FA8246DFF800044078042849D1F9176C
:100C780016EB670241EBE6711602090241EA1263BC
:100C880099F83010B1B3D9F834E0D9E90872DC46E4
:100C98000EF10101B6EB070B1991C9F83410D9E927
:100CA8000A1563EB02094FEADB1444EA4964E419C4
:100CB8004FEAE917DFF83C947A41761AAB41760A95
:100CC80046EAC3565B1289196B41C9E90842C9E96A
:100CD8000A13611A9A41090A41EA026399F8311024
:100CE800002959D0E34613F1B50FDCBF002189F87C
:100CF800311006E00121C9E90863C9E90A6389F8E6
:100D08003010062180F0040021EA08010843B0FAF7
:100D180080F04109062007F0FBFAD34B99F80B0045
:100D28006FF022019A8C51FA80F19729144638BF46
:100D3800C4B2002A18BF14469878BAF1000F01D03F
:100D480038B114E0C1B21A9AB1FA81F149090A42DC
:100D58000BD0C54E232001210125B070072007F0D4
:100D6800D7FAF0784FF0000A0FE0002862D0BE49A9
:100D780001384FF0000A887000065DD10720002175
:100D8800002507F0C5FAB848C078062854D120468F
:100D9800294604F0B1FF4FE0B52BE346B1DB012152
:100DA80089F83110AEF2F311B1F5FA6F00F2EA8664
:100DB80099F8402099F84110199C09EB4203013237
:100DC80002F0030203291C8709F1380389F840203F
:100DD8009CBF013189F8411000220E46002E00F018
:100DE800C08633F8024B013E2244F7E742280AD076
:100DF80052287FF4FEAE9C48002400218484002001
:100E080004F07AFFF6E60124F4E600BF0240012070
:100E180000B0004000007A44E12E65420000000066
:100E280000C07944D001001020A1070019830000F8
:100E3800E00A00204FF0000A0A20BBFBF0F000EBAC
:100E48008000ABEB4000002840F09580ADF8D4A0BE
:100E5800ADF8A8A0ADF8A4A035A82AA929AA04F03D
:100E6800E7F8002800F087807F4FBDF8A8103A798E
:100E7800388D002A18BF091A08B200EE100A788DBA
:100E8800BDF8A41018BF091AB8EEC00A08B280EE5F
:100E98002A8A00EE100AF88CBDF8D410B8EEC00A01
:100EA80018BF091A08B280EE2A9A29EE090A08EE34
:100EB800080AF1EEC00A00EE100AB8EEC00A80EE89
:100EC8002AAAB1EE4A0A03F097FCB0EE40BAB0EE97
:100ED800480AF0EE490A03F08FFC0B20B0EE40CA36
:100EE80005F018F8044689486A4DA847884EB0EEC0
:100EF8004A0AB0478748A847B0EE480AB04786482C
:100F0800A847B0EE490AB0478448A8472BEE2B8A79
:100F1800B0EE480A05F074FB8148A8472CEE2B0A6E
:100F280005F06EFB7F48A847C4F3801005F0F8FE73
:100F38007D48A8477879F0B94B48C07807281AD176
:100F4800B5EE408AB0EE680A40F2E731F1EE10FAE9
:100F5800A8BFB0EE4D0A38EE000ABDEEC00A10EE8A
:100F6800100A002848BF404200B28842A8BF08467D
:100F780080B205F0B9FD1921BBFBF1F000FB11B0FF
:100F8800022840F03181FF208DF8D4003648807A5D
:100F9800012856D1002035A906F0D0F9002850D0F4
:100FA8009DF8D4003F2131EA00004AD02E498979C2
:100FB800884247D02C4A81F0FF0100EA0104907171
:100FC800A0071CD5284DDFF8202CE878013000F068
:100FD800070000EB4001E870505C0A4451789278B1
:100FE80006F036FCE878DFF8041C085C00F00F0116
:100FF800372006F03BFA0F20E87101206871E007FE
:1010080011D0194D6878411C032888BF0121C8B246
:1010180002F000FF45204321472206F019FC0F206B
:10102800E87101206871202C0ED304F0A5FB432041
:1010380041214C2206F00CFC0B49012048710F207D
:101048000CE000200849887107484079012840F0E1
:10105800AB800548C079002800F0C28002490138F9
:10106800C871C1E019830000E00A0020757400000F
:1010780001720000FF860000BD6400001D5F0000D3
:10108800AB87000060880000AA8A00004C8C000032
:10109800B68C00001D7E0000B28C0000A68C0000FB
:1010A800C28C00002C8B0000A28B0000AC8B0000CF
:1010B800E5890000A28C0000CA8B0000197B0000A3
:1010C800AE8C0000D48A0000A88900002C8C000097
:1010D800578B0000648B0000716800007D6200007F
:1010E800580B0020AD6E000019770000456A00001B
:1010F80000000020F00B0020E9850000498B00006B
:101108006A8C0000C08C0000948C0000C08A00002B
:101118008D5D0000718C0000638C0000C08B0000A6
:10112800EF8B0000348C0000AA8C000000BF00BFC9
:101138000000000000804840000000000000003F60
:10114800FCA9F1D24D62403F55C1A8A44E40633F6F
:101158000000000000007440000000000000F03FA4
:10116800000000000000503F000000000000384070
:101178000000000000001040FCA9F1D24D62603F61
:1011880000000000000039C03333333333330B40E1
:1011980000000000000000000000000000E06F40B8
:1011A800ECDD1FEF552B433F5FF84401C07806285C
:1011B8001AD15FF84C3199F80B106FF022009A8C15
:1011C80050FA81F09728104638BFC8B2002A18BFD5
:1011D80010469978002918BF012104F08DFD03E01D
:1011E800DFF8DC0E80F805A0FA21BBFBF1F000FB6C
:1011F80011B0042840F06E86DFF8C40ECDF868B050
:10120800406D002800F05281DFF8B48E98F9200074
:1012180006F00EFC53EC1F2B1192179307F0B9FA46
:101228001FED3D0B07F030FA0446B8F94A0007F005
:1012380074FA1FED3F0B53EC102BCDE9182307F080
:10124800A8FA1FED410B07F03BFA1FED410B07F021
:101258001BFA1FED410B07F033FA1FED410B59EC58
:1012680010BB5A4607F068FA07F05AF9044698F98D
:10127800210007F052FA1FED460B07F021FA1FED87
:10128800460B07F01DFA07F01FFA044698F82300EA
:1012980007F04FFA1FED4A0B57EC106B07F018FADE
:1012A80007F0BEF907F073FA07F0E2F9044698F977
:1012B800220007F032FA1FED500B07F001FA5A46E8
:1012C80007F03AFA02460B4658464946CDF854B05C
:1012D80007F05DFA07F024F91FED570B53EC108B5C
:1012E8004246139301F07DFD1FED590B07F0E8F915
:1012F8001FED590B05460C4657EC106B32463B4622
:1013080004F093FD1FED5C0B0028169718BF3C46B0
:10131800149618BF354607F003F800281CBF3C4652
:1013280035462846214605F075FEDFF8B84D0146DA
:101338005A20A04764205921A04771201021A047B6
:1013480072200121A04774205521A047674807F063
:1013580028FA35AC1121204606F0C5FF1D2021468C
:10136800112206F065F868B19DF8DA109DF8D900E9
:10137800090141EA00309DF8DB1040EA11104103F1
:1013880040F002814FF0000BB0EE698AB0EE69AA16
:10139800B0EE699ADFF8280D406D002800F09280C1
:1013A8000F99CDF848808DF8F6A0C1E900AAC1E9E7
:1013B80002AA022138912AA9ADF8A8A037910121E3
:1013C80036910DF1F60135914421ADF8EC1035A9AF
:1013D80006F071FF8046B0EE69BA58B301210220C9
:1013E8009DF8A8509DF8A9608DF8F410389029A8A8
:1013F800CDE936103DA8ADF8A4A03590DFF8C00CB3
:10140800406D35A906F057FF65F30B269DF8A4102B
:101418003202002818BF41EA0622280902FA00F021
:1014280006F0BEFD1FEDA20B07F04AF905F07AF8A9
:101438000BEE100ADFF8880C406D00284ED0DFF85C
:10144800A84C0820CDF84090A04781460920A04725
:101458000A20A0474FF6FF70B9EB000018BF012023
:1014680019900026DFF8580C007A01283AD1DFF8E5
:10147800500C406DB0B30020ADF8D40043F6FF70B7
:1014880035A905F0DBFA0028B0EE69CA00F07584CA
:10149800BDF8D460CDF86090F00740F0A983DFF87C
:1014A800200C012690ED19CA00F065BC00274FF00A
:1014B80000094FF0000BB0EE699AB0EE69AAB0EEE1
:1014C800698A02E000274FF00009B0EE69BA4FF0D0
:1014D8000008B0EE69CA002600F050BC4FF00009C1
:1014E8000027F6E7B0EE69CA00F047BC20BF02004B
:1014F8000000000000003040000000000000B44080
:10150800000000000000F03C000000000000E03B8C
:10151800000000000000903F000000000000204094
:10152800000000000000703F000000000000D0C074
:10153800000000000000203E000000000000B03E57
:10154800000000000000F03D000000000000A03D89
:10155800000000000000E03F000000000040EFC075
:10156800000000000000C03E000000000000000075
:10157800000000000000D03F000000000000F04024
:1015880000000000000030BF9DF8D7209DF8D6105D
:101598009DF8D830CDF84880CDF84090120142EA45
:1015A800013141EA13110591BDF8DC1009BA090CA3
:1015B8000A9106F0F5FC9FED320B06460F4653ECF8
:1015C800102BCDE90D3207F0E4F8DFF8F4BA044641
:1015D8000D46BBF82C0006F0E3FC9FED2B0B804674
:1015E8008A4607F06DF806F095FF0446BBF92E0011
:1015F80007F093F806F094FF9FED250B04460D467F
:101608003046394653EC102BCDE9032307F0C1F8D7
:101618009FED210B06460F464046514607F050F80D
:1016280006F0FEFF01F0DDFB02460B4607F0B1F8BD
:1016380006469BF9100007F073F81FED530B53ECA7
:10164800102BCDE9082307F0A4F806F05DFF06F09B
:1016580061FF1FED570B04460D4653EC102B07F0A6
:1016680096F881468A4604F05DFF06909BF80F00C5
:10167800CDE90BA9012840F0F88019E000BF00BFB0
:10168800000000000000103F00000000000050BFF4
:10169800000000000000E03E00000000000020BF45
:1016A800000000000000304100000000006AB8405F
:1016B800DFF80CBABBF932000390BBF9380006F02A
:1016C800B7F91FED710B54EC107B3A46234607F02F
:1016D80060F805469BF915000E4606F0A9F93A464A
:1016E800234607F056F84A46534607F052F82A466A
:1016F800334601F076FB804605988B46000106F0DC
:101708004FFC02460B46044617900D46119107F010
:1017180040F842465B4607460E4607F03AF88346CD
:1017280088463846314606F0A3FF0646DFF890099A
:101738000F4690F9160006F07BF91FED8D0B06F0A9
:10174800BFFF06F0E1FE5A46434601F04AFBCDE9E9
:101758000410039806F06CF91FED930B06F0B0FF28
:1017680006F0C6FEDFF858B904460D46BBF830004F
:1017780006F016FC1FED980B06F0A2FF06F0A4FF7A
:1017880004469BF9110006F0C8FF1FED9B0B06F0FD
:1017980097FF06F0ADFE06F0ABFE06F0BBFE044672
:1017A8009BF9120006F0B9FF06F072FF06F0A0FEE2
:1017B80006F09EFE06F09CFE06F0ACFE8046BBF8E6
:1017C8003600199106F0ECFB1FEDA90B54EC105BE9
:1017D8002A46234601F005FB1FEDAB0B06F070FF10
:1017E80006F086FE0646BBF8340006F0A8FF2A4637
:1017F800234601F0F6FA1FEDB00B06F061FF06F084
:101808000FFF01F0EEFA04469BF9130006F085FF7E
:101818001FEDB50B06F054FF06F06AFE06F068FEF1
:1018280006F052FF04469BF9140006F076FF1FED00
:10183800BA0B06F045FF06F05BFE06F059FE06F00F
:1018480057FE06F041FF179A119B06F0A2FF0B46C0
:1018580019990246404601F0C4FA02460B46DDE9F2
:10186800041001F0BEFA0D9EE2E01FEDC70B204602
:10187800294606F025FF1FEDC80B06F005FFDFF827
:1018880040488146884694F9170006F0D1F806F0DA
:1018980053FE06F051FEDDE90DB25B4606F079FF16
:1018A8000646B4F93C0006F03BFF4A46434606F0BC
:1018B80070FF06F00DFF1FEDD60B06F001FF06F0D6
:1018C800E7FE159A109B01F08CFA0646608F06F029
:1018D80036FF06F019FE149A169B04460F4604F0CC
:1018E80097FA1FEDDFCB00285E4640F0A380DFF8B3
:1018F800D0B70294BBF940005C4606F099F806F0B0
:101908001BFE834694F919008A4606F091F8DDE932
:10191800032306F03EFF064601970F464846414618
:101928004A46434606F035FF06F0C2FE04460D4619
:10193800584651465A465346DDF8348001F051FA6C
:1019480006F0C2FE1FEDF60B06F0BAFEDFF8709740
:1019580004460D46B9F93E0006F06AF81FEDFA0B89
:1019680006F0AEFE06F0B0FE1FEDFB0B06F0A8FE7B
:101978000446059806F0DDFE1FEDB70B02460B4640
:1019880051EC100B01F028FA06F09EFE1FEDBA0B81
:1019980006F096FEDDE9013206F0F9FE8246B9F955
:1019A80044008B4606F044F806F0C0FD06F0BEFD84
:1019B8009FED770B06F084FE9FED770B04460D46EE
:1019C8005046594606F07CFE06F098FD06F09CFD50
:1019D800064699F81A0006F0B2FEDDE9032306F080
:1019E800D8FE06F065FE0646B9F9420006F098FEF4
:1019F80006F04EFE06F044FE06F066FE32463B4612
:101A0800464601F0EEF9044699F9180006F085FEFD
:101A18009FED630B06F054FE06F056FE119A179BD5
:101A280006F0B7FE02460B465046594601F0D9F972
:101A380041EC1C0B0698DFF8888608EE100A98F926
:101A48001B0005F0F5FF9FED580B06F039FEDDF899
:101A580030A0DDF82CB006F069FD0446B8F848005F
:101A680006F067FEDDE9082306F093FE06F02CFE7B
:101A780004460A9806F05DFE22462B4601F0ACF9B2
:101A8800044698F91C0006F048FE0E9A334606F004
:101A980080FE06F0F5FDDDF84090159A06F04CFE44
:101AA800064698F91D0006F03BFE9FED410B06F037
:101AB80007FE06F03BFD06F0E3FD06F009FE0646CC
:101AC800B8F8460006F03BFE9FED3B0B06F0F8FD2C
:101AD80006F0EEFD06F024FD044698F81E0006F018
:101AE80028FEDDE90D3206F054FE064698F91F007F
:101AF80006F016FE9FED320B06F0E2FD06F0C0FD83
:101B080006F0E6FD06F0B4FD06F0B2FD06F0DCFDD9
:101B1800149E169F05460C4632463B4604F085F94E
:101B28009FED290B00281CBF3C46354606F0F8FB04
:101B380000281CBF3C4635462846214604F0F2FCE6
:101B480009EE100A51EC1C0B06F0B6FD04F0EAFC95
:101B5800DDF848800AEE100A4FF0010B4FF0000A3A
:101B680018E48A420ED3B2FBF1F140F2FD73A1F200
:101B7800C7129A4206D889B243F69822B2FBF1F10D
:101B8800A9F842100021C9F83410FFF7BAB800BF0D
:101B9800000000000000003E000000000000703F50
:101BA8000000000000006040000000000000E03F6E
:101BB800000000000000B03E000000000000D03E21
:101BC800000000000000A03E000000000000594096
:101BD80000000000000028408DEDB5A0F7C6B03E1B
:101BE80000000000000020417C8A0000248C0000D6
:101BF80026F0010143F6FF70CDF85C8005F068F827
:101C0800DFF8D044ADF8A8A0ADF8A4A044F20500D0
:101C18002AA9A04744F2080029A9A0475046BDF9BF
:101C2800A4A0BDF9A8700DF1F601ADF8F600ADF865
:101C3800F40006F07C0044F20706042844F206008B
:101C480008BF44F2040608BF44F20300A047304628
:101C58003DA9A047384605F0EBFE1FED230B53ECDA
:101C6800102BCDE90C2306F092FD0246DFF8600444
:101C78000B461446984690ED080B51EC100B06F0F5
:101C880088FD0646504606F04BFD82460B46304618
:101C980039465246994601F0A4F8064616981FEDB3
:101CA800320B0F46C50F53EC102B304665F3DF712E
:101CB80011920E9304F0B9F8002856D1BDF9F4003A
:101CC800119A0E9B0B90BDF9F6000A90DFF8F0030D
:101CD80090ED1A0B51EC100B65F3DF7104F0A5F8C9
:101CE800002842D1DFF8E8032246434690ED0A0B6C
:101CF80051EC100B06F04DFD524606F01DFD119AF1
:101D08000E9B059165F3DF71099004F08EF8824609
:101D18002046414606F0D0FC1FED4F0B53EC102B2C
:101D28000692089306F035FD81460491DDE90A1014
:101D3800084405F07DFE1FED640B06F0C1FCBAF106
:101D4800000F12D18046DFF878030C46119A0E9BDB
:101D580090ED1C0B56EC107B3146384665F3DF716D
:101D680004F063F8002800F0C680D548002690EDFE
:101D780019CADDF85C80DDF86090199FDB4806F031
:101D880049F8BBF1000F10D0D948CE4CA047D94D27
:101D9800B0EE480AA847D848A047B0EE490AA84775
:101DA800D648A047B0EE4A0AA847B8F1000F06D0B7
:101DB800D34806F02FF8B0EE4B0A04F0A5F91997AE
:101DC8002FB1D04806F026F8484604F0A9FFBC48D1
:101DD800CDE91789D8461696007A3040012806D1F1
:101DE800C94806F017F8B0EE4C0A04F08DF9C74858
:101DF800DFF8D0A2D047B24FDFF814B37878D847CD
:101E0800B74D2846D047DFF8D092C248BC8C99F825
:101E18000B60D047002C18BF26463046D847BE482E
:101E2800D047B9F80800D847BC48D047B9F84200AD
:101E3800D847BB48D047B9F80C00D847B948D0476D
:101E4800B9F80E00D8472846D0477879DDF868B049
:101E58004FF0000A00283DD19948C078062837D8A5
:101E6800DFE800F0042513190A2F4000B8F1000F2D
:101E78002ED0B0EE480A28E0199848B3189840F2D6
:101E8800E731884228BF084618E0B8F1000F1FD094
:101E9800B0EE490A19E01798D0B1B4EE4EBAF1EE97
:101EA80010FAC8BFB0EE4EBABDEECB0A04E0B8F1E6
:101EB800000F0DD0BDEECA0A10EE100A04F014FE91
:101EC80008E0169820B1B0EE4C0A03F043FA01E09E
:101ED80006F046F8DFF80092804C322006F061FCEC
:101EE800FEF714BE764881783046002918BF0121D4
:101EF80003F002FFEEE7DFF8D8A104994846A146AF
:101F08009AED000B9AED02CB9AED04FB9AED06EBE5
:101F180053EC102B00F060FF3A46334606F037FCCE
:101F28009FED5FDB53EC1D2B00F05BFF9FED5E0B1D
:101F38000446049106F0A8FB06F0E0FA06F0E4FA7D
:101F480006F0E2FADDE90C2311900E91404649466D
:101F580006F01DFC099A059B06F019FC069A089BD9
:101F680006F017FC9AED0C0BCDE90C1051EC1C0B8C
:101F780006F0A6FBCDE90A100499DDE912232046F4
:101F880000F02FFF9AED0E0B4FF00309CDE9081072
:101F98008DED060BB9F1000F60D0DDE9122351EC8D
:101FA8001D0B00F01EFF02460B4651EC1E0B06F0FF
:101FB800F0FB159A109B00F014FFDDE90832064685
:101FC8000F4651EC1F0B06F0E4FB06F081FB0246BE
:101FD8000B46DDE90A1006F0DCFB9FED350B0F46DA
:101FE80065F3DF710646A84653EC102B03F044FF57
:101FF8008246DDE90C1006F05FFB02460B46BAF19B
:10200800000F169D08BF2B46149C08BF2246119846
:102018000E9900F0E6FE22462B4641EC1C0B03F01D
:102028002BFFB8B1B0EE4C0AF0EE6C0A01F040FCA0
:1020380001F03EFC9FED201B51EC100B53EC112BD3
:1020480000F0CFFE9DED060B53EC102B00F0C4FE04
:1020580041EC1D0BA9F1010945469BE751EC1D0B0D
:1020680004F060FA16499FED30EA9FED0BFB0CEE89
:10207800100A0126B6EE00DA48667AE6124C2046C7
:1020880005F0C8FE114805F0C5FE0D48007B04F0B8
:1020980047FE0127FEF77BBA000000000000B03FB2
:1020A80000000000000039406666666666127140EE
:1020B80011EA2D819997713D66666666661271C050
:1020C800E00A00201D7E0000718B0000E4880000FB
:1020D800580B0020456A0000F00B002000B00040BB
:1020E800AA8C0000BD710000456B00003B8B00000E
:1020F800788C0000116100007E8C0000848C000048
:10210800448C0000D48B00003C8C0000E68B00005F
:10211800296D0000C88900005C8C0000F88B000065
:10212800DD8B0000B68B000000C079442DE9FC4728
:102138000027002800F00682DDF828A0BAF1000F79
:1021480000F0008291460546D0E96C20571C461CD9
:1021580095F81822C5E96C769BB1002742F020005B
:1021680051461C22AAF80A708AF8100085F818024D
:1021780005F50770CAE905778AF8007006F014FBC0
:10218800E0E140F2EE2302F0DF029F4285F81822D8
:1021980006D3002342F01002A5F8263285F818224B
:1021A800A0B900200D2803D045F820100130F9E728
:1021B80001EBC100102382006A63312B03D045F87C
:1021C80023200133F9E7C001C5F8C40095F83C2085
:1021D80095F8C80045F82210561C6B6BD5F8C4C09A
:1021E800AB630D23B6FBF3F707FB136685F83C607A
:1021F80002F10C06B6FBF3F707FB1366171DB7FBD6
:10220800F3F155F8266001FB137155F8211031449C
:1022180002F10D06B6FBF3F707FB1366D71CB7FBF5
:10222800F3F455F8266004FB137455F8244034443D
:1022380004EB410102F10B04B4FBF3F606FB134473
:10224800561DB6FBF3F755F8244007FB136655F8FF
:102258002660344404EB4404214402F10A04B4FB2C
:10226800F3F606FB1344961DB6FBF3F755F8244026
:1022780007FB136655F82660344401EB840102F12C
:102288000904B4FBF3F606FB1344D61D0832B6FB6B
:10229800F3F755F8244007FB136600F1110755F8CA
:1022A8002660344404EB84042144B2FBF3F404FBB9
:1022B8001322212355F8222002EB420201EB4201AE
:1022C800421CB2FBF3F4B7FBF3F3696344EA44142A
:1022D80003EB4313121B05F14004FB1A54F8226068
:1022E80054F8233085F8C8208E1B6644C5F8C460AE
:1022F80044F82010D5F8C400D5F8B411A3EB601346
:10230800052908D805F1CC000021052903D040F89B
:1023180021300131F9E705F1CC0405F1D406002795
:1023280017CC16C68AF80070191BC5E93330801A15
:1023380000EB4100C01080FB0001000B40EA015097
:1023480095F8881105EB81020131D2F8E440C2F812
:10235800E400B5F83A22CAF80490B1FBF2F6001B83
:10236800D5F8804106FB121185F8881167F1000144
:102378000019D5F88441C5F880016141B5F8FE41DE
:10238800CAF814300023C5F88411AAF8084095F853
:1023980026428AF80A4095F827428AF80B40B5F891
:1023A8002842AAF80C40B5F82A42AAF80E4005F0CF
:1023B8006FFFD5E9631395F81822CAF8180005F5D8
:1023C8000778C5E9630181424FF000008AF81020C0
:1023D80028BF0120994288BF012795F8B831012B01
:1023E8002FD1D5F8B431292B27D3D5F8AC018142A8
:1023F80084BFC5F8AC110846B3F5967F1DD30021FC
:1024080085F8B811C5F8B01102F07F0164285D4A5B
:1024180085F81812014698BF64214908904288BF80
:1024280042F210710A20B1FBF0F00A1AC5E96510F2
:1024380000EB92025308C5E9672306F0E7F8002786
:1024480080E0D5F8B0213840B2F5967F1ED919231F
:10245800B2FBF3F404FB1323C3B9D5F89431292B49
:1024680014D3D5F89841A3EBD303C5F89431A4EB62
:10247800D4041B1BC5F8984104EB93030F2B98BF9A
:102488000F23C5F89C315B08C5F8A03110B3B5F827
:10249800FC315F208D2B0AD303EB83136424B3FB39
:1024A800F4F34FF6E0741C405F2C88BF1846824254
:1024B80036D2D5E9650202EBD101A1EBD201401A6F
:1024C8000A4688BF02EB9002C5E9661250084FF42D
:1024D800D0716850B5F8FC0180B3A6214843642147
:1024E800B0FBF1F1D5F8B001884227D9D5E96821C8
:1024F800914223D311B3D5F8A821D5F8B4319F1A46
:10250800C21BB5F83C02824206D30120A9EB87031F
:1025180006F081F8C5F8B0710020C5F8A4010DE0F7
:10252800282913D3D5F89C0181420FD300204B46AC
:1025380006F071F89AF800000028CBD006F066F88B
:102548009AF8007007F00100BDE8FC87D5E965023C
:10255800D5F8A43102EBD104A4EBD202801A1446B8
:1025680088BF04EB90046008C5E966249942C5F861
:10257800A001AFD9D5F8B401C5F8A4114FF4D471AE
:10258800A7E700BFA18601002DE9FE4F07460868AE
:102598000024B0B1D7E9018A0E4605F039FF81461B
:1025A800D8F8E800082888BF0124B068204202D182
:1025B8007068204208D003203074484606F044F87A
:1025C80000242046BDE8FE8FD8F8C01069B198F8FD
:1025D800F8100029EFD006213174D8F8C410C8F8D3
:1025E800C4604E6198F8FC100DE000210522C8E98E
:1025F8003066C8E93411C8E9361198F8FC1000298A
:1026080008BF0122327400220129726109D1022017
:102618004FF4E02188F8FC0098F8FB0005F062F917
:10262800706889490138884205D8042005F072F994
:10263800062005F06FF9022005F06CF998F8F8000B
:1026480040B9DAF83C003168814203D298F8FC00BE
:1026580000286CD0D8E9361009B118B900E028B3C1
:1026680006F01EF8DAF80000416941F00101416105
:10267800484605F0E9FF98F8F80008B10124A0E7FA
:1026880008F16C05D8F8EC10284603F059FA002830
:10269800F4D0D8F8C00003210174384603F09CFA3E
:1026A80028460021002403F04BFA8AE79AF8040030
:1026B80005F000FF654CDAF810100222206991FA43
:1026C800A1F1B1FA81F14368D8F8CC0040680068FC
:1026D80098472069DAF8141002224368D8F8CC0029
:1026E80091FAA1F1B1FA81F14068006898479AF827
:1026F800040005F0D9FE9AF8040005F0E1FE05F0A3
:10270800CFFF0020C8F8E000D8F8C0000068B0F596
:10271800806F01D905F0C4FF98F8FE000028A1D108
:10272800DAF80000416841F0020141609AE798F840
:10273800F90020B1D8F8EC0001307FF48BAF48469F
:1027480005F082FFB2683AB1D8F8E80002210928FA
:1027580038BF0121009103E008F1F4020020009045
:10276800746834B1D8F8E8000227092838BF01276F
:1027780002E008F1F6040027DAF80000334D41685A
:1027880041F002014160D6F800B0D946BBF1000F14
:1027980040D0D8F8E800019209284FF0010011D282
:1027A8002A68B9F1000F1FD0C0071DD02178DAF8C8
:1027B80000009268904700281EBF3C44A9F1010917
:1027C8000120EDE72A68B9F1000F16D0C00714D030
:1027D8002188DAF800009268904700281EBF3C4420
:1027E800A9F101090120EDE7DAF80000D26802A991
:1027F8009047DDE90120107007E0DAF80000D268A0
:1028080002A99047DDE9012010800098ABF1010B87
:102818000244BBE7D8F8F000DAF80010CA680240B2
:10282800102802D1002AF9D101E0002AF6D07068F8
:1028380005F0DEFAD8F8C0100020C8F8C400C8F8BF
:10284800C00008741AE700BFFEFFFF0FC4010010A4
:102858002DE9FC47D0E900588246D8F80000D0F8A6
:10286800409019F4F06FC0F8449035D05FEA4951B0
:1028780017D5D5E91401411A504605F01DF9D8F8C5
:1028880000008169C90605D401688DF807109DF814
:102898000710F6E7296801312960A97B09B90121E8
:1028A800A973696C40684FF0004600F00F0404EA11
:1028B8000100B0FA80F126FA01F1014005D02F6C31
:1028C8001FB12A68AB6C5046B847B4FA84F026FAB0
:1028D80000F020404042A863D5F85801D8F83C10D1
:1028E80009F0400740680068D0F8042511403943D2
:1028F80047D0DAE90064504603F0ECFED7B1F07C2B
:1029080090B90BE0316F69B10068B16EB26F88544D
:10291800306FB16F01310138B16730672068816964
:10292800C906EFD5F07C28B1D6E91401411A504602
:1029380005F0C2F896F86400E0B13079022819D0A1
:1029480017B1B179012901D0316F99B90024B16E5D
:102958000128346786F86440B46607D1B36CB26F57
:10296800D6F8CC6050460094B04703E006F17C00EE
:1029780004F0C4FC504602F0BBF8D5F85801406892
:10298800006800F204500068D8F83810084228D0CF
:10299800D5F8F80028B3DAE90076504603F07AFA59
:1029A800504602F077FC7879012812D1D7F8F40064
:1029B80078B997F8E80060B1002087F8E800BB6CA8
:1029C800D7F8EC10D7F8FC20D7F8504100905046C3
:1029D800A047D7F8F80020B93068816B41F400614E
:1029E80081635FEA095023D5D8F800008169090797
:1029F800FCD4016B21F480710163297A91B1002024
:102A0800287295F84400800606D52C6C24B1AB6C6E
:102A1800504620210022A0475046012105F0A3F886
:102A2800D8F80000816B21F400618163687908B1EE
:102A3800BDE8FC8705F58070BDE8FC4704F05EBC86
:102A48002DE9FE4FD0F80080994614460E4682467E
:102A580013B10020C9F8000005F0DAFC834698F8A5
:102A6800070038B198F8640048B105F05CFE6FF0D3
:102A78000805B4E005F057FE6FF00E05AFE0002C36
:102A88004AD0504603F026FE00200121C8E91A6406
:102A9800C8F87040C8F87800C8F8380088F80C0002
:102AA80088F80A00504688F8641004F0F9FD50468A
:102AB80002F01EF808F14C0402AD2046294605F044
:102AC800BBF9D8F87810D8F870707218B84238BFC7
:102AD8000746029910463A4605F066FE20463946F2
:102AE80004F078FFD8F87000D8F87810C21B394481
:102AF800012FC8F87020C8F8781001DBB842DCD183
:102B080098F8041002290CD10020C8F8680088F849
:102B18006400C8F870001CE005F005FE6FF00905B8
:102B28005DE0B84215D10020D8F86860012988F81E
:102B38006400C8F868000CD10124584688F8104091
:102B480005F082FD98F80F0000284BD005F060FCD6
:102B5800834605F0E8FD98F8040008B100252FE049
:102B6800D8F8701008F17C0031B30C9902F0E8FF36
:102B780010B1012088F80C0005F04AFC04465046C4
:102B880003F0A8FD0020C8F86800C8F8700088F8AD
:102B98006400504601F0ACFF98F80A6098F80C50B1
:102BA800204605F051FD002D18BF6FF00C05002ED2
:102BB80018BF6FF00D0503E00021002502F0C0FFEB
:102BC80005F026FCB9F1000F07D098F80410012988
:102BD8001CBFD8F87810C9F8001005F035FD284654
:102BE800BDE8FE8F002598F810000028AED005F04B
:102BF8000FFCA8F80F4005F027FDD8F84830D8F8A2
:102C08007820D8F8CC70504631460095B84788F8F7
:102C18000F50E8E72DE9FE4FD0E90198D8F80010E9
:102C2800CA690A62D20740F0AF80D8E904014FF0C0
:102C3800000A4FF0000B0843D9F8CC10496809681E
:102C4800C1F8040509F13000029009F1C8000190AB
:102C5800BBF1010F00F2A180D9F8C000002800F0F4
:102C68009C80D9F8E010DC22D9F8CC702023002908
:102C780008BFD82208BF182358F803404FF0240390
:102C880008BF1C237F68D8F8146058F803303F68E1
:102C9800D7F80455354211D0A46864070ED10468EA
:102CA800D9F8D050A54209D144693CB9D8F80040B8
:102CB800656A25F002056562C7F804659B685B07CD
:102CC80002D00BF1010BC3E759F80230002BF8D002
:102CD80049F802A0B1FA81F1D9E9344249090068FA
:102CE80049011A448442C9F8D420C9F8E01028BF21
:102CF80082420CD24846414600F024FD99F8FE0075
:102D08000028DED005F092FA18BF8862D9E705F0EE
:102D18007FFBD9F8C820D9F8C010019B81F810A012
:102D280022B113465269002AFBD114331960C9F83D
:102D3800D4A04A69C1F814A0D9F8E01000294FF0CE
:102D4800DC01C9F8C02008BFD82159F80110C9F81A
:102D5800D01005F079FCD9F8C00058B14846414672
:102D680000F0F0FC99F8FE0050B105F05FFA18BFCA
:102D7800886205E0D8F80000416A21F00301416249
:102D8800029803F0D3FD9CE7D9F8C0203AB103219B
:102D98001174BDE8FE4F02F01FBFBDE8FE8F486802
:102DA80020F002004860486A20F003004862D8E931
:102DB80004021043D9F8CC2052681268D062C2F8D5
:102DC8000405486920F00100486101200862404676
:102DD800BDE8FE4F04F069BF2DE9FC4F83F00043C6
:102DE80001E02DE9FC4F1F03FF0847EAD2574FEADD
:102DF80042284FEA43095FEA595906D147EA080AC7
:102E08001CBF00210020BDE8FC8F57F000575FF47D
:102E1800E06E1EF1FF0EF14505D14FF00000190DCF
:102E28000905BDE8FC8F002B05D55FF0000AD8F135
:102E380000086AEB07070C03E40844EAD0544FEA99
:102E480040254FEA4106760D08D144EA050A19BF24
:102E58000021002019461046BDE8FC8F44F00054BC
:102E6800764504D10020090D0905BDE8FC8F00292D
:102E780004D55FF0000A6D426AEB0404B6EB090E54
:102E880008D5A2463C465746AA464546D046CEF106
:102E9800000E4E46BEF1360F5CBF4FF0000B23E02C
:102EA800BEF1000F04BF4FF0000B1AE0CEF1390A53
:102EB800BAF120092EBF08FA09FB07FA0AFB4BEA08
:102EC800080BDEF1200A07FA0AFA38BFBA4647FAB1
:102ED8000EF72DBF28FA0EF8AEF1200E4AFA0EF8BA
:102EE800D04415EB08057C4154EA050A02BF0021CD
:102EF8000020BDE8FC8F002C58BF4FF0000A06D513
:102F08005FF0010A5FF0000E6D426EEB0404A6F15B
:102F180001066D006441FAD515F4806E11D005F4F0
:102F280080794BEA090B15F5806554F1000428BF38
:102F3800761C0BD205F400795BEA090B08BF25F46F
:102F4800006525F4E0656D0044EB0404B61CDEBFA3
:102F580000210020BDE8FC8F5FF4E06E1EF1FF0E3B
:102F680076450AD34FF0000013F00043FF21C90053
:102F7800C91D09051943BDE8FC8F270547EA153027
:102F8800210B41EA065141EACA71BDE8FC8F2DE9DF
:102F9800F84F94008046DDF828C0200408BF4FF49D
:102FA800487408F2022298F81202032522F8104009
:102FB800013000F00700BCF1000F88F8120218BFBA
:102FC8000225D8E96567E94026FA05F03144081A70
:102FD800C8F89401C01B88BF07EB900798F8131234
:102FE8007808C8E9677007290B9F9CBF013188F8EA
:102FF80013120E46002526B132F8020B013E054495
:10300800F9E7B5FBF1F098F8FBA108F5DD7981B295
:10301800A8F8FE018808A8F8FC0198F8FA0129F830
:103028001040013000F01F02BAF1200F88F8FA2191
:103038003CBF0AF1010A88F8FBA101203C817B60B2
:103048005FFA8AFB38704EF66020B0FBF1F1F97236
:1030580098F8181221F050016CF38611397488F829
:103068001812A1B200EB5100B0FBF1F0C0B21E285B
:10307800014698BF1E21DC2888BF6FF02301BBF1F1
:10308800020FB97202D20020B88142E01746002030
:1030980059464A4621B132F8023B01391844F9E74A
:1030A800B0FBFBF200205B464E46002133B136F8F8
:1030B800025B013BAD1AC5FB0501F7E75A46002341
:1030C8000094002605F0E4F804F062FD0B99ABF1DA
:1030D80001020025D3B28881A7EB0A000021ECB2D7
:1030E8009C420ED22C18013504F01F07013404F05D
:1030F8001F0439F8177039F81440E41BC4FB046145
:10310800EDE73046002305F0C3F804F041FD0B9FBE
:10311800009CF8810020A8F80042C8F8B001C8F85F
:10312800A401BDE8F88F7047B0B560480021604C35
:10313800016094F83A01032812D002282ED0012801
:1031480040F0AF8094F8400103F0D0F8002084F8F4
:1031580040015948817B0220002908BF06209EE0D3
:1031680054480168B1F5C060C4F82C01B8BFC1F576
:10317800C060D4F81011002900D5494288422ADDE0
:10318800D4F8140104F0DAFDD4F8180104F0E8FDCD
:10319800D4F8280104F008FE01201DE04548056820
:1031A80005F0D6F8C4F8140105F0DAF8C4F81801E7
:1031B80005F0DEF8B5F5C061C4F82801C4F81011AF
:1031C80009D094F830215AB1D4F81401D4F8202148
:1031D800D4F82C110AE0002084F8300106205EE0C3
:1031E800C4F82401D4E94502C4F82C110223C4F818
:1031F8001C01002901EB410148BF6FF0010319448C
:10320800042391FBF3F111440029C4F820110FDDC8
:103218001F2931D3D4F824212AB33E28A8BF3E2041
:1032280001302929A8BF2921C4F81C010B3909E05C
:10323800D4F82421032A09D111F1140FD8BF6FF053
:1032480013011531C4F82011002113E00128D8BF5B
:103258000120013811F10A0FD8BF6FF00901C4F835
:103268001C010B3103E03329A8BF33211539C4F8F9
:1032780020110321C4F8241104F060FD012004F09A
:1032880081FDD4F8200104F06BFDD4F8240104F08A
:103298008BFDA5F2FF510420032938BF0620C4F88E
:1032A8003C01BDE8B04001F09FB800BF3C500C4065
:1032B8001808002008400C40AC8A00002DE9FF47A0
:1032C800D0E901590E46044605F0A2F895F8FD101C
:1032D80021B97169102901D8032906D805F0B4F974
:1032E8000024204604B0BDE8F087012785F8FD706A
:1032F80005F0AAF900204E4A85F8FC00C5E930001F
:10330800C5F8C80085F8FE003069C5F8E4007069A2
:10331800C5F8E800307B85F8F9000028317885F891
:10332800F8107168C5F8EC10B9F80E10A5F8F61089
:10333800317E52F8211085F8FA1008BF1027C5F819
:10334800F07099F80C0002F0B9F8204603F05EFD21
:1033580099F83B00374985F8FB008A46D4E901878C
:103368003A6B97F83A0002F051F87A6B98F8FB003C
:10337800514602F04BF898F8F91097F838000129EF
:1033880015D1FA6A514602F041F8BA6A97F839003D
:1033980046F2020102F03AF898F8FB00264904F0D8
:1033A8002DFE98F8FB00214604F018FF0AE0BA6ADF
:1033B80046F2020102F02AF8FA6A97F839005146F3
:1033C80002F024F8E846404604F06CFF99F805003E
:1033D8001A4A4346CDE90040284699F8041002F0FD
:1033E80017FE404604F0F4FFD9F808001449424695
:1033F8000094029005F1300001F0EAFE03F002FAB1
:10340800104AC5F8CC0005F11C000421234604F03D
:10341800DDFC95F8F80008B1B06805E005F16C002E
:10342800002104F08DFD0848C5F8BC0059E700BF2D
:103438004C8A000002600020014900001D2C000099
:10344800F96E0000F5850000F1860000FEB504461F
:103458005A480078A04213D908780D46012801D1AE
:10346800686868B16878012801D1A86840B1544FEC
:1034780057F8346004F0CCFFF17921B105F0E4F895
:1034880000242046FEBD07EBC40401216768F171E2
:1034980005F0DAF8002005F1040C7074F081B060D2
:1034A80030602988B180A98BC6E93D00C6E90E00C5
:1034B80086F86400B186297D2B69B1719CE80610F5
:1034C800C6F85021BCF1000FC6E910C34FF0FF3217
:1034D800C6F8CC10A969C6E93B203163A97F86F8F4
:1034E8003610296AC6E91A00C6E91C00B16486F8D4
:1034F800E800C6F8580102D13249C6E9101097F819
:10350800400001F0DBFFD7E9031206F14C0004F09C
:1035180057FFD7E9051206F1D00004F051FF2A49F8
:1035280038680968C96888477A6C97F8240046F2B1
:10353800020101F06BFF254DBA6C97F8200029466F
:1035480001F064FFF86901280CD1FA6C97F828009B
:10355800294601F05BFF3A6D97F82C0046F202010C
:1035680001F054FF03F04EF9C6F85801204600F068
:10357800C1FF174A06F5AE700421234604F026FC65
:103588006D46284604F08EFE387A7968114A2B4633
:103598000094019006F1140002F03AFD06F17C0057
:1035A800002104F0CDFC06F58070002104F0C8FC71
:1035B8003868D7E90C121060486062E7C78C0000D1
:1035C8000C8C00009B650000D001001002600020F8
:1035D80071820000592800002DE9F84FD0E900B7A2
:1035E800984616468946054613B10020C8F80000DB
:1035F8008EB104F014FF824604F00AFF04469BF8DB
:10360800070060B19BF8E80078B105F083F86FF027
:103618000800BDE8F88F6FF00900BDE8F88F05F0E5
:1036280079F86FF00E00BDE8F88F00200121CBE992
:103638003B96CBF8F460CBF8FC008BF8E810CBF89D
:103648003C008BF80D008BF80B000BF58070002107
:10365800009002F075FA384604F0B6FFBAF1000F90
:1036680002D19BF8050070B3284601F013FE05F05F
:1036780051F89BF8050068B90A99009802F060FAB9
:1036880010B101208BF80D00284602F003FC002041
:103698008BF8E800B8F1000F1CBFDBF8FC00C8F895
:1036A80000009BF80B0030B100208BF80B006FF086
:1036B8000D00BDE8F88F9BF80D00002818BF6FF0CB
:1036C8000C00BDE8F88F05F025F8D5E9007497F8E7
:1036D8004400C00615D5D7F840C0BB6C2846102159
:1036E8000022E0470DE0D7F8FC00314609EB000264
:1036F800204604F093F8D7F8FC10361A0144C7F8AE
:10370800FC10002EEFD1204604F072FE0028FAD0FB
:10371800204604F04DFF97F84400800605D53C6C20
:10372800BB6C284620210022A0470020B8F1000FDA
:1037380087F8E800C5D0D7F8FC00C8F800000020DA
:10374800BDE8F88F2DE9FC4FD0F8C080D0F8D0C084
:10375800D0F8E820D8F80030C346E6469C4511D397
:10376800D8F814B0BBF1000F00F0898090F8FC3055
:1037780005244FF0000E002B08BF0124DBF80030B1
:103788008BF81040A3EB0E05A2F1080AB5F5806F7F
:1037980028BF4FF48065D0F8D82032B101F120035A
:1037A80001F12402C0F8DC5005E0C0F8D85001F15E
:1037B800180301F11C020026BAF1000FC8BF012648
:1037C800DBF8044012681F68CDF800E07CB1354B87
:1037D80053F82630BB6005FA06F30126BAF1000F4C
:1037E800C8BF02260EFB06332344013B05E02E4BDF
:1037F80053F82630BB6000F1F6033B6043F6F074E3
:103808000191D1F8009004EB0516264009F1080E45
:10381800C7F804E0BC683443BC600024BAF1000F68
:10382800C8BF0124DBF808709FB16146DFF87CC08F
:103838005CF824308C46936005FA04F30124BAF14D
:10384800000FC8BF0224009901FB043139444C1E03
:1038580005E0154951F8241000F1F4049160546012
:10386800C2F800E0916831439160C34504BF05EB9D
:103878000C01C0F8D01090F8FE10019A09B1BDE80B
:10388800FC8FD9F8241041F00301C9F82410D0F8AE
:10389800CC00D2E904124068114300688162BDE897
:1038A800FC8F00BF348A00003C8A0000448A000074
:1038B8002DE9F84354EC105B554AE04310420DD112
:1038C800284621462A46234604F063FF2A46234613
:1038D800FFF787FA41EC100BBDE8F883002C04DDF4
:1038E800201590B191462A4626E024F0004028434E
:1038F80000F08680B4F1FF3FF2DC04F0F1FE9FEDAA
:10390800420B21210160BDE8F883002024B9690534
:10391800EC0A15380D46F9E791460021E20202D477
:1039280001316400FAE7C1F12003401A05FA01F2F7
:1039380025FA03F301301C430121A0F2FF3C4FF0AC
:10394800000861F31F545FEACC701EBF600040EAB4
:10395800D27452000025600040EAD2744FF400107F
:10396800520060B14119A142DCBF80440D18611AB0
:10397800B8BF21464008490041EAD274F0E74FF049
:10398800000E4FF000470020FFB1C119AC4212DD14
:10399800641B00260023BE448A4238BF013C00292C
:1039A80048BF0126C819B0F1FF3FC8BF0123334003
:1039B800521A1D4403E002D18A42E9D22546610029
:1039C8007F0841EAD2745200DEE752EA040009D0C7
:1039D8001EF1010019BF0EF00100864408F101082C
:1039E8004FF0000E09F100410A4A4FEAC87001EA97
:1039F800CC4140EA5E0001EB6801114441EC100B38
:103A0800BDE8F88300BF00BF000000000000F87F99
:103A18000000F07F0000E03F2DE9F047012816D1B3
:103A2800DFF830A1DAF83401012813D10220CAF8EE
:103A3800340104F0ADFC0120012403F09BFF60B1C8
:103A4800CAF8344104F096FD4FF0FF347FE06FF080
:103A580001047CE06FF0040479E09AF85A419AF87E
:103A680059119AF85801002C18BF0124002918BFD1
:103A78000234002818BF0434012004F063FD013823
:103A880018BF01209AF83811B1FA81F1490910EAF2
:103A9800010902D1002001F033FBDAF808002E4DAD
:103AA80010F0010807D12D4F286A816838468847E9
:103AB8000428F9D00646404604F0B7FDB8F1000FD7
:103AC80008D1012E04D1286A012142682348904771
:103AD80004F036FC28684169204688479AF8540162
:103AE80018B14FF4806004F033FD9AF8530118B10F
:103AF8004FF4816004F02CFD194801210160032076
:103B08000021CAF8340117480160204603F00EFB73
:103B18000128FAD1144E3068042003F02BFF044624
:103B280012480125B9F1000F0560306802D1012063
:103B380001F0E6FA04F098FD082003F01BFF0443A7
:103B4800CAF8345118BF4FF0FF3404F013FD204673
:103B5800BDE8F08718080020B801001000400340B5
:103B6800282008600C2008402C2009400C400940FF
:103B7800B0EEC01A10EE100A11EE101AB1F1994FFA
:103B88000CD3B1F1FF4F84BF30EE000A70474CA14F
:103B98000028C8BF043191ED000A70473F4A91429E
:103BA80010D29FED3F1AB7EE002A4FF0FF3330EEE8
:103BB800011AB4EE421AF1EE10FA38DDB1F1665F7F
:103BC80035D2704702F5380399420DD202F5A003A9
:103BD80099421BD2B0EE000ABFEE002A002331EE54
:103BE800000A31EE011A18E002F19E73994219D2C7
:103BF800B7EE080AB7EE002A022301EE002ABFEE4C
:103C0800080A31EE000A80EE020A10E0B7EE000A58
:103C1800BFEE002A012331EE000A31EE021A81EECE
:103C2800000A04E0BFEE000A032380EE010A20EE3A
:103C3800002A9FED1C1A9FED1C4A9FED1D5A9142C8
:103C480022EE023A03EE014A23EE041A9FED174AC8
:103C580003EE045A9FED174A03EE054A22EE042AA2
:103C680031EE021A02D200EE410A704712490028CA
:103C780001EB830191ED002A104910EE012A01EBB6
:103C8800830191ED001A32EE400A31EE400AB1EE9E
:103C9800401A48BFB0EE410A704700BF0000E03E3E
:103CA800CAF249714712DABD98CA4CBE25AC7C3DB0
:103CB8000DF5113EA9AAAA3E98890000888900003E
:103CC800DB0FC9BFDB0FC93F2DE9FC4191EA0308AF
:103CD8004CBF4FF000484FF000084FEA03354FEA59
:103CE800153556006D4176006D414FEA43075FEA8E
:103CF800575711BF45F4800500210020BDE8FC811D
:103D080040F2007E1EF1FF0E774578D04FEA01336E
:103D18004FEA133342005B4152005B414FEA4104D2
:103D2800640D11BF43F4800300210020BDE8FC812D
:103D3800744564D0E41B002100205FF0370EAB42CD
:103D480000D1B24205D340414941921B63EB0503C0
:103D580001E040414941BEF1010E05D053EA020796
:103D680002D052005B41EAE7BEF1200F09D2BEF152
:103D7800170F0CD3CEF1200720FA07F100FA0EF046
:103D88000FE0AEF1200E00FA0EF1002009E001FA72
:103D98000EF1CEF1200720FA07F741EA070100FAF1
:103DA8000EF011F4800F06D1401C51F100014000C3
:103DB8004941641E02E0801C51F1000111F4000F1A
:103DC8001ABF641C21F4000121F4800140F200377D
:103DD800FF37E419DEBF00210020BDE8FC8107F5AC
:103DE8008067BC420BD249084FEA300049084FEAC5
:103DF800300041EA045141EA0801BDE8FC81002095
:103E0800FF214FEAC101C91D4FEA015141EA0801EA
:103E1800BDE8FC812DE9FE43DFF81881814698F85A
:103E28000E0020B998F80D00002800F080801120BD
:103E380002F01AFD4FF47A7004F0B3FC012001215E
:103E480002F018FAB9F1030F19D0B9F1020F0CD02A
:103E5800B9F1010F1FD1384C0220A321A04704203B
:103E68000521A0470520052112E0334C0220A0219E
:103E7800A04704200121A0470520012108E02E4C7D
:103E88000220A021A04704200421A04705200421E6
:103E9800A047832513E0284E0220E021B0470320E5
:103EA8001021B04704201021B04705200021B04759
:103EB80006202C21B04707200C210725B0470920F0
:103EC800002102F0D7F90A20294602F0D3F91B484D
:103ED8001B4CA0471820012104F01AFA42F2107076
:103EE800A047102002F0C0FC42F21070A047032443
:103EF8000DF10B0501AE6F4634B1284631463A46FE
:103F080000F0FAFB013CF7E70E4802F0BFF80E4854
:103F18002821203004F0E7F90C4888F8019003F0D4
:103F280079FF484602F0FCFE094803F073FFBDE83C
:103F3800FE8300BFE00A00207D620000A086010029
:103F4800AB87000000000020F00B0020948A0000DE
:103F5800A28C00002DE9FF47044645480078A0429E
:103F68000AD9444F0D4657F8346004F051FA96F8D0
:103F7800E01031B104F068FB0024204604B0BDE82D
:103F8800F08707EBC4044FF00109D4F804A086F8C1
:103F9800E09004F059FB9AF8100001F08FFA364FC0
:103FA800002D18BF2F46354DF868411C002808BF62
:103FB8000AF11301097808BF0AF11100007886F8A0
:103FC8002511294686F824019AF8122001F01EFAD4
:103FD8009AF8142096F82501294601F017FADAF81C
:103FE80000004FF000086D46C0F81088397831702D
:103FF80079687160397AC6F82011C0F81C9828468B
:1040080004F050F9DAF808001D4A2B46CDE90040C3
:1040180006F11400DAF8041001F0FAFF284604F05B
:10402800D7F9DAF80C0017492A460094029006F1ED
:10403800E40001F0CDF806F13000012103F080FF23
:10404800307830B906F18000002103F079FF0E487E
:1040580070602046C6F81080C6F80C8002F01AFD81
:104068000A4A06F596700421234603F0AFFE84E75A
:10407800C58C0000048C00000C8B0000004000245C
:10408800E94B0000CD580000598600000D82000061
:104098002DE9F04790460C4606464FF00109606846
:1040A800D6E9007A10B9E068002848D004F0B0F9E1
:1040B8003978012901D1F968B9BBFC603C61C4F8C1
:1040C800149004F0C1FA07F130050021284601F0E8
:1040D80037FD013008D138780128E0D0284641461C
:1040E80001F02EFD013030D0387820B907F180007A
:1040F800002101F025FD04F004FBDAF8040004F0C7
:10410800D9F93046214602F09DF98146DAF80400D3
:1041180004F0D6F9B9F1000F02D004F0EFFA44E048
:10412800387808B34FF000093FE0F96849690A3167
:1041380010D16FF00A016161D4F8149011E06FF0AA
:104148000A006061D4F8149032E06FF00209C4F8F4
:1041580014902DE001214FF00009616139693C613B
:10416800CC6104F071FA23E007F180094146484622
:1041780001F0E6FC013016D104F04AF98046F868EF
:1041880070B1304603F019FD404604F05DFA484628
:104198004FF0FF3101F0D4FC6FF00200606102E0E3
:1041A800404604F051FAD4F81490284603F0A6F8D3
:1041B8004846BDE8F08770472DE9FF413B4E96F829
:1041C800420100286AD1012086F8420104F0C6F9AC
:1041D800374F86F87001374D7868C6F86C01387B20
:1041E80086F84101A86810F4402F13D1386988B1C6
:1041F80028686421C0F3066000FB01F404F04EF95E
:10420800B4FBF0F22C4906F19400002302F096FE6C
:1042180004F08EF801AC204604F0EEF92749A846D0
:10422800002506F10C00002204F000F9204604F0F5
:10423800E3F9234906F15000082204F0F7F8214A6F
:1042480006F1D8003221002301F0E2FE1E4C1F4A7D
:1042580006F1F4002C2100232560454601F0D8FE24
:10426800D8F80800797BC0F3815021B1032804BF36
:10427800012186F83911032803D040F002000228F2
:1042880010D1206840F040002060022003F042FB7B
:104298006868400702D4002003F03CFB002004B00B
:1042A800BDE8F08103F08CF9F2E700BF18080020A0
:1042B800AC8A0000AC4F00506D840000AB70000069
:1042C800457200009D6500009022084031310000D1
:1042D8002DE9FE4FD0E90085994614460F468346DE
:1042E80013B10020C9F8000074B104F091F8064633
:1042F80098F8070058B198F8E80070B1304604F013
:10430800A3F96FF008046CE06FF0090469E0304627
:1043180004F09AF96FF00E0463E000200121C8E967
:104328003B74C8F8F440C8F8FC0088F8E810C8F8EE
:104338003C0088F80D0088F80B002846019504F029
:1043480043F9304604F080F908F1D0060DF1080A67
:1043580004F05EF804463046514603F052FBD8F8A4
:10436800F450D8F8FC10A842394438BF05460298E2
:104378002A4604F019FA3046294603F03DF9D8F8E0
:10438800F400D8F8FC10401BC8F8F4004819C8F825
:10439800FC00204604F058F9012D03DBD8F8F4009E
:1043A8000028D5D104F034F80746D8F8FC0050B1FD
:1043B800019804F009F9584600F06CFFD8F8FC00A1
:1043C80010B1002402E000206FF00F04B9F1000FD3
:1043D80018BFC9F80000002088F8E800384604F043
:1043E80033F92046BDE8FE8F2DE9F84F3C4C3D4E91
:1043F8003D4D42F62A294FF0010A4FF0030B0027E2
:104408004FF00508D4F83C01062833D8DFE800F05F
:104418000433183B203D4B000F20F060C6F8109085
:1044280002F0E8FF45F804AC55F8040C8007FBD50A
:10443800C6F81CA094F8390190B10120EF6210E091
:104448002F60C4F83CB128688007FCD40320DBE760
:104458002F60C4F83C8128688007FCD40520D3E786
:104468000320C6F800B0C4F83C012F60296889070A
:10447800FCD4C9E7FEE70126022084F83A6102F07D
:10448800FDFE2E6009E0022000E0032084F83A01D6
:10449800002002F0F3FE0120286004F15000BDE87E
:1044A800F84F01F097BF002045F8040C286055F834
:1044B800040C8007FBD428688007FCD40B4800252F
:1044C800012105600A4801600D2001F0FFF8022073
:1044D80003F070F9C4F83C5184F83B51BDE8F88FFB
:1044E8001808002000400C4058600C403C500C401C
:1044F80004800C40FEB5D0E9005401A803F0F8FE92
:1045080095F834003649374A384E085C95F8351026
:10451800515C354A084395F83610515C2A6B40EADD
:104528000103316820684F680299B847206840F253
:10453800F272E1692E4B2F4F426494F854209A5C32
:1045480094F85530FB5C1A430129426311D10146A6
:10455800D4E90A2351F8307FFF2A27F4004718BF0F
:1045680007F50047FF2B0F6009D00A6842F4804224
:1045780008E0014651F8302F22F400420A600A6828
:1045880022F480420A60C16A41F01001C162016BE5
:1045980041F001010163E16B09B3A16BF9B101219C
:1045A80003F0E4FDD5F85801E16B40680068C1628A
:1045B800C0F8041591FAA1F17268B1FA81F1536853
:1045C800022298477068A16B02224368D5F8580107
:1045D80091FAA1F1B1FA81F1406800689847FEBDEF
:1045E8009E8C0000018C00008A8C0000D001001015
:1045F800998C00008F8C00002DE9F047A4B003F0DF
:1046080007FF33490A78012A04D124B0BDE8F047EE
:1046180004F01AB84FF0010981F8009004F014F87A
:10462800FFF7CAFD082000F049FF21AC204603F03F
:1046380039FEDFF8A0A0294A10212346DAF80C0039
:104648002290254801F0E4FC2548002501AE0478B5
:10465800244890F800804746A74213D8DAF80000AB
:1046680050F8271021F0FF0046F82700880707D4E4
:10467800F8B201F0010103F04BFE09FA07F0054317
:104688000137E9E7184805601848C16801F4400196
:10469800B1F5800F07D10068000E56F8201041F0E0
:1046A800070146F820101248A4EB0802042306EB81
:1046B800880103EB820240EA880004F075F80D488F
:1046C8002022016862F30D21016024B0BDE8F08763
:1046D800A20C0020FC8A0000F8070020AD70000042
:1046E800C48C0000038C0000D0200240A84F00506A
:1046F80000100840003009402DE9F0438DB03D4DD1
:104708000646A87B012870D190468946002440F6C9
:10471800B737172003F058FD30B1BC4204D80A203F
:1047280004F03FF80A34F4E7012001F0BBF9A86D62
:10473800002700285AD08DF81870CDE90477CDE904
:104748000A770C9701A80021099004A88DF80C702D
:10475800CDE90177089009200790287B03F0D8FD60
:10476800052004F01EF8A86D07A903F0F4FF04461D
:10477800052004F016F8287B012103F0C9FDACB32D
:104788009DF8040000F0F001C0292ED1296E9DF992
:104798000A209DF80C709DF808309DF809400131F9
:1047A8002966D1B29DF80B50002A47EA014141EA37
:1047B800052148BF01F17F419DF90750EAB2002D5C
:1047C80044EA024242EA032248BF02F17F4206B1AC
:1047D8003070B9F1000F18BFC9F80020B8F1000F08
:1047E80018BFC8F80010012700E0002738460DB0B0
:1047F800BDE8F083E00A002010B510EE901A21F011
:104808000042B2F1FF4F06D810EE100A20F0004324
:10481800B3F1FF4F02D930EE200A10BDB1F17E5F2F
:1048280003D1BDE81040FFF7A3B9022404EA91744C
:1048380044EAD07463B1B2F1FF4F12D012B1B3F1B0
:10484800FF4F18D1274961F31E0000EE100A10BD72
:10485800022C0FD3032C14BF9FED250A9FED250AC8
:1048680010BDB3F1FF4F14BF1C481D4800EB840076
:1048780090ED000A10BD9A1AD2151A2A03DD9FED91
:10488800190AC40F0EE0B1F1FF3FD8BF12F11A0F99
:1048980006DB80EE200AB0EEC00AFFF769F901E0F6
:1048A8009FED110A002CE5D0022C0DD0012C04BF7D
:1048B800B1EE400A10BD9FED0D1A30EE010A9FEDD2
:1048C8000D1A30EE010A10BD9FED081A30EE010AEC
:1048D8009FED071A31EE400A10BD00BF788900002D
:1048E80068890000DB0FC93F000000002EBDBB3304
:1048F800DB0F4940DB0F49C0F8B5044603F000FD63
:1049080007464568204603F05FFCB8B1D7E9014681
:1049180003F07EFD0546D4F8C000B8B10421017447
:10492800384601F06FF8D4F8C800B0B101464069C4
:104938000028FBD1D4F8C000486112E003F068FDFC
:104948000446D5F8C00078B3103034E030684168C8
:1049580021F002014160284630E0D4F8C000C4F8D4
:10496800C800416900274761C4E93477C4E936774C
:10497800C4F8C01031B320463146FEF7E3FED4F840
:10498800C000C4F8E0700068B0F5806F03D9204615
:104998003146FEF7D7FE94F8FE0010BB3068416838
:1049A80041F0020141601CE095F8FB00002102F093
:1049B80099FF05F1FC00012101702046BDE8F8408F
:1049C80003F042BE94F8FB000021C4F8C47002F062
:1049D80089FF012084F8FC003068416A21F0030156
:1049E8004162284603F030FE04F13000BDE8F8408B
:1049F80001F09CBF2DE9FC4191EA03084CBF4FF040
:104A080000484FF000084FEAC32545EA52554FEADF
:104A1800C2264FEA43077F0D11BF45F0004500212C
:104A28000020BDE8FC815FF4E06E1EF1FF0E7745C3
:104A380055D04FEAC12343EA50534FEAC0224FEA08
:104A48004104640D11BF43F0004300210020BDE87C
:104A5800FC81744543D0E419A3FB0501A3FB06E7D9
:104A6800A2FB06631EEB030E57F1000751F100018C
:104A7800A2FB05631EEB060E57F1000751F100017A
:104A8800FF1851F10001C01951F100014CBF40F26B
:104A9800004E40F2002E10EB0E0051F1000148BF0D
:104AA800641C01D4400049415FF44077FF37E41BA0
:104AB800DEBF00210020BDE8FC8117F58067BC42FD
:104AC8000DD24FEAD02040EA41504FEA41014FEA67
:104AD800113141EA045141EA0801BDE8FC81002096
:104AE800FF21C900C91D090551EA0801BDE8FC817B
:104AF8002DE9FC4706680446707A00286BD0D4F884
:104B08000490D6F85801D0F80480D9F834702046BB
:104B180001F0E0FD706F20B306F14C05284603F064
:104B280034FE316F884221D2307902281ED0B06E0F
:104B3800002850D0204601F0CDFD346F284603F000
:104B480024FE201AD6F868A0B46F7067284603F0D0
:104B58001CFE0021F1740AEB040108440190706FF7
:104B68000CE0B06E10B1306F0028D5D106F14C00C2
:104B780001A902F046FF01217067F17458B30021C2
:104B8800B0F5806FB17384BF4FF480607067012304
:104B980001990144013979601049B96043F6F0710F
:104BA80001EB00100840B9680843B860D9F83C1018
:104BB800D9F8000091FAA1F2B2FA82F203FA02F2ED
:104BC800D8F800309A61D6F8582152681268916274
:104BD800012103F0D7FABDE8FC8700BF0180000C73
:104BE80070B5D0E90052044601211068C0F81C18BD
:104BF800D0F80418C90718BF70BDD0F80438A968E0
:104C08004E690A3614D0D5F8D46013F0120F17D0B5
:104C18001EB903F01F060A2E21D05A076FF00402AE
:104C280058BF6FF00502DB0648BF6FF006024A6105
:104C3800042103F0E6FC2046BDE8704003F03FBACB
:104C48006EB1721EC5F8D4202CD0D5F8D0104A1CED
:104C5800C5F8D0200978C0F80818012117E0D5F860
:104C6800DC10C1B10139C5F8DC10D5F8D8104B1CDF
:104C7800C5F8D830D0F8080808700121D5F8DC004C
:104C8800002808BF0421012888BF09211068BDE851
:104C9800704003F0B6BC042103F0B3FCA8680021FF
:104CA8004161C8E7D5F8DC2052B1098B012361F3D3
:104CB80048030B21012AC0F8003808BF0321E6E7A2
:104CC8000421E4E72DE9F84315460C46804601F037
:104CD80059FA2C4800212D4F01602B488146006865
:104CE8003868816927208847294E2A49306B08404F
:104CF8003063B06F20F48070B0673868016B4FF490
:104D0800806088473868016B4FF48160884738684D
:104D1800016B4FF4C06088471F48012101601F489C
:104D2800C6F8804131600168890704D4691C08BF4E
:104D38004FF04045C560D9F80000F0698007FCD500
:104D4800072002F0D1F90228FAD1B8F1000F13D1E7
:104D5800134C386A8168204688470428F9D001280E
:104D680004D1386A0321426820469047D6F81802D1
:104D780020F00300C6F818023868806BBDE8F843D5
:104D8800004700BF0C4009402C200940B801001022
:104D98000C200840FFFFFEFE282008601000094094
:104DA8000040034070B52039062918D8DFE801F023
:104DB8001A23042D38404800147800222321FF2CA0
:104DC800F1D0D0E9015695F8FB0002F0D7FA726BE2
:104DD8002B49204685F8FB4000F018FB49E06FF0AE
:104DE80001044AE0406890F8F910012943D10121F3
:104DF80080F8FC103DE045680021002495F8FB0090
:104E080002F070FD85F8FC4037E0446894F8FB0038
:104E1800FF282ED002F0B2FAFF2084F8FB0028E029
:104E28004068D0F8C01031BB012180F8FE1020E0A6
:104E38004068D0F8C010F1B9002480F8FE401CE0AA
:104E48004168D1F8C020B2B191F8FE209AB18068CB
:104E58000268D0E90430546A184344F003045462E9
:104E6800D1F8CC10496809688862506840F002009F
:104E78005060002401E04FF0FF34204670BD00BFB1
:104E8800026000202DE9F84303F0C2FA2F4F0446D0
:104E980097F84101002854D003F066FB03F070FB3B
:104EA800054600F00C000C2803D100BF00BF30BF3E
:104EB80045E0680728D402F0FDFCDFF894808146BD
:104EC8000121D8F8000000FB09F6012003F0C0F822
:104ED800864219D9D8F80000F02107F10C05B1FB7A
:104EE800F0F0A9EB0001284603F03DFC284601F04C
:104EF80071FA00BF00BF0120FEF78EFD00BF00BFA2
:104F0800284603F0F5FB1CE000BF00BF280715D4B6
:104F1800104F114E38688168304688470428F9D008
:104F2800B0FA80F005F01001400940EA111003F0D2
:104F380024FC0A4801210160006800E030BF00BF7E
:104F480000BF2046BDE8F84303F07EBB18080020E8
:104F58008C0C0020D8010010004003402C20094090
:104F680070B52548066802F065FE24480025244CE3
:104F78000560206C806C80472248006838B1224860
:104F88000068B6F1FF3018BF304600F0EFFA1F484E
:104F980040F2391205601E48016862F31B41016046
:104FA8001C48016801F44051B1F5805F06D10168E1
:104FB800194A114001F5003202600160174D0126BF
:104FC800EE612068016A142088471548016841F499
:104FD800E021016013482E60006800F44000B0F53D
:104FE800000F03D1206C416C0F4888470F480168B7
:104FF8000029FCD170BD00BF1C130050840460421E
:10500800B001001080012843800520438C2108400E
:105018004820034028000940EFFFFCFC000024431F
:1050280000200940B44F0050BD3786000C0068428C
:105038002DE9F0418AB0314C0746E07AAD2857D1C6
:10504800002090460D46002600F02CFDA06D00289B
:105058004FD040F60B600396CDE90766099600210C
:1050680002906846069002A8CDE9006605900820DF
:1050780004900F2003F04CF90A2003F092FBA06D76
:1050880004A903F068FB06460A2003F08AFB0F20F8
:10509800012103F03DF966B39DF802009DF8031065
:1050A8009DF804209DF8053040EA012009070446D0
:1050B8006FF3DF2448BF40F4704442EA03203C8089
:1050C8001A0701466FF3DF2148BF40F47041298079
:1050D8009DF807009DF8061041EA002100070A46DE
:1050E8006FF3DF2248BF41F47042A8F8002000E0C7
:1050F800002630460AB0BDE8F08100BFE00A002073
:1051080070B5F8B1012858D1012003F01BFA012825
:1051180053D02D4C94F8380100284ED12848294EF8
:105128000569306810F4402F30D17DB302F0E8FEF5
:10513800502003F0E9FA0120A84704F1940001F097
:1051480049F925E003F017FB1E48006810F4402FCA
:105158000AD11B4804693CB11B48943003F0C8FAD3
:1051680002F0BEFE0020A047174C94F8380120B387
:105178001648016821F080010160802181600320C8
:1051880002F018FB002084F8380116E003F0F7FA63
:10519800012084F83801306810F4402F00D14DB94F
:1051A800207A800606D4094880218160016841F090
:1051B80080010160032002F0ADFB002070BD00BF3C
:1051C800AC8A0000B44F0050180800209022084014
:1051D8002DE9FE4F98B116468A46804603F018F925
:1051E800DFF89C90834699F8000000BB254D2C27DA
:1051F8004C2F06D0E81903F0A8FA0837F8E700267C
:105208003AE0002001276C466860A860EF602870CB
:10521800204603F047F8E0201C4A234601901A482C
:10522800016805F1100000F0F3FE89F80070584697
:1052380003F00AFA164D002E18BF3546AF68781CE1
:1052480008BF03270026032F16D8404603F07DFA2F
:1052580095E81E0008F10C001EC0C8F824604646F8
:10526800C8F81470074800EBC7002C30C8F80800CD
:10527800D8F81800C8E907A03046BDE8FE8F00BF7F
:10528800A00C0020A40B0020940C0020BB8100007F
:105298001C8B0000F8B505680446D5F8F80000B185
:1052A800F8BD68796668022807D105F1D00069461B
:1052B80002F0C2FDC5F8F80009E0D5F8EC10D5F801
:1052C800FC20D5F8F4001144C5F8F8000091002836
:1052D800E6D031688A6B22F400628A6395F844103C
:1052E800C9060AD52F6C47B1297A31B9AB6C20466B
:1052F80010210022B847D5F8F800B0F5806F84BFB8
:105308004FF48060C5F8F8000099336B01444A1ED9
:105318003168B66B1A600E4A9A6043F6F07202EB77
:10532800001010409A6810439860D5F858014068FA
:10533800006886620846022102F024FF287A0028C5
:10534800AED120460121012602F09CFC2E72F8BD48
:10535800018000C0F8B5B5EE400AB1EE401AB6EECD
:10536800002A40F2E734F1EE10FAEFF3008148BF6B
:10537800B0EE410A9FED221AB4EE410AF1EE10FA9E
:10538800C8BFB0EE410AB2EE041A00EE012ABDEE23
:10539800C20A10EE100AA04238BF044681F3008802
:1053A80002D50A2040210CE0642808D30A201549B8
:1053B800B4FBF0F56420B4FBF0F0095C03E00A20CC
:1053C8000021B4FBF0F5104F3420B847E8B20A25A5
:1053D8000C4EB0FBF5F101EB8101A0EB4100305C14
:1053E80040F080013520B847B4FBF5F03A4600EBB1
:1053F8008000A4EB4000315C3620BDE8F84010473F
:10540800CDCCC742988B0000757400002DE9F84F89
:10541800FF2831D0264B0C4605464FF4BE21AF007D
:1054280004F0020843EA80004158C9B2914227D1EA
:1054380021489A464FEA142947EA0006834602F0B3
:10544800E7FF0BF10101220C86F8009039430A703E
:1054580046F00201220E0A7003F0F6F8B8F1000FC8
:1054680002BF45EA0A0004F0010101701148012158
:1054780081EA5801384316E04FF0FF30BDE8F88F55
:1054880000F5BE2024F0FF0162B9B8F1000F02BF99
:105498002B4304F001041C70064B012484EA5804D1
:1054A8003B431C60114301600020BDE8F88F00BF3A
:1054B80000200240001A4442011008402DE9F04142
:1054C800254E0546371802F0A3FF044697F84A010F
:1054D800411C87F84A1128B1204603F0B5F800208E
:1054E800BDE8F081DFF8748018F8257007F03F00F8
:1054F800142898BFFFF7E2FF08EB8500458878B2CB
:10550800B0F1FF3F0CDD78061FD4154800684169EB
:1055180028468847284601F009FE0128FAD1DBE72A
:105528000F4E3068C169284688473068416A284666
:1055380088473068C16A284688470A4801210160BF
:10554800094801688907FCD5C6E706EB8500D0F84D
:10555800601101208847BFE7180800200C88000068
:10556800B80100102820086028200840F8B5054632
:105578002248234E4168890705D40168F02242EA8F
:10558800114186F84D101F494FF001221F4F0A6044
:105598001D49098839680968846820468847A00138
:1055A80005D4E00103D5307840F002003070386847
:1055B800214642682846904702F028FB1448154ABD
:1055C8000068C0F305311170C1054FF0130158BFD1
:1055D800232140237354382101EA901000F56050CC
:1055E800A2F85C003868816820468847022001F0EC
:1055F80077FF094801210160F8BD00BFAC4F00509A
:105608000962084004A40C4000A00C40F0010010FE
:105618000C1400500EB00C40940460428B4208BF3A
:10562800824207D9009A002A01D0106051600021F7
:1056380000207047002B08BF002A10D1009A002ACA
:1056480001D01060516002000B0000210020002BE7
:1056580008BF002A1CBFC943C04301F0B0BBF0B566
:105668001C4615460B46024600200021B4FA84F673
:10567800202E04BFB5FA85F62036B3FA83F7202F1B
:1056880004BFB2FA82F72037F61BB6F1200727BF0E
:1056980005FA07F400257F42B4403EBF25FA07F714
:1056A8003C43B540A34208BFAA4201D3521BA341C1
:1056B800404149416D0845EAC4756408761EF1D534
:1056C800059F002F01D03A607B60F0BDF8B5254FEB
:1056D80005463E1802F09CFE044696F84A01013839
:1056E80086F84A01000637D11F4810F9251000EB4B
:1056F80085004588CEB2B1F1FF3F0CDD70061FD49E
:105708001A480068816928468847284601F0ECFC59
:105718000228FAD11AE0154F3868016A28468847E6
:105728003868816A284688473868016B2846884760
:105738000F48012101600F4801688907FCD505E081
:1057480007EB8500D0F860110020884706F03F007D
:10575800142898BFFFF7BAFF204602F075FF002013
:10576800F8BD00BF180800200C880000B801001020
:1057780028200860282008402DE9FE4F274AD17AC2
:10578800AD2942D100274FF020080DF10A0A0DF18A
:10579800080B0DF10606002400254FF000090091C2
:1057A800B8F1000F16D0504659463246FFF740FC74
:1057B80048B1BDF9060001350444BDF908000744A5
:1057C800BDF90A00814442F2107002F0EAFFA8F124
:1057D8000108E5E7002D1EDD97FBF5F00F4A10855F
:1057E80099FBF5F0D08494FBF5F001B2B1F5FA7F9E
:1057F80003DD0099A0F57A7006E011F5FA7F0099AB
:10580800B4BF00F57A7000205085A1F1AD00B0FA60
:1058180080F040091071BDE8FE8F00BFE00A00204B
:105828002DE9F04102F0F4FD254F804601210124C5
:10583800D7F8900001F0D8FFA7F8A0400646B8684E
:10584800D7F89840B968711A201A884203D90020FD
:1058580087F8A0002EE0404602F0F6FE351B002631
:10586800B54207D334440120AD1B214600F0FEFEAB
:105878000646F5E702F0CCFD804697F8A10020B176
:105888000020214600F0F2FE0646701C06D0D7F82C
:105898009C00711B814238BF084601E0D7F89C0084
:1058A800011902F00DFB002087F8A000012087F8FD
:1058B800A200BC604046BDE8F04102F0C5BE00BF92
:1058C800F805002070B505680446A96848690A30DB
:1058D8001BD16B68204600229847A8686FF009061C
:1058E8004661022001F066FFE8682969884213D002
:1058F8006B68E8680022C069E860E868466120468D
:10590800E9689847E8684661EEE74869033008D1D6
:1059180000202861E86020E00020E860A860286195
:1059280070BDE8682A69904211D06B68E868C06960
:10593800E86002F0D7FDE968204600F083FD002802
:10594800EED005F1E400BDE8704000F0EFBF0020A4
:10595800E86028616B6802F0C5FD0220BDE8704070
:1059680001F028BF2DE9FF470446E0B315460E466F
:1059780002F04EFDDFF87890074699F80000A0B9CC
:105988000DF10408404602F08DFCDFF868A0802085
:10599800194A1421434602900AF1040000F038FB2A
:1059A8000120CAF8004089F80000384602F04CFE91
:1059B8000020E660124AE0626062C4E90500E06126
:1059C8000E48002D18BF2846002301782170416831
:1059D800A1608168002002F05BFCA0622062206167
:1059E800606002F037FC204604B0BDE8F08700BFD5
:1059F800A10C0020380C00205D8100008C8B000079
:105A080040420F00F8B5D0E901650446287902F054
:105A180051FDD6F8CC206969286852681268D162AD
:105A280096F8F93013B9C368DB06FCD4436823F051
:105A3800020343602B69D3621943476A27F00307BF
:105A48004762C2F80415416921F001014161012151
:105A58000162D6E93512D6F8C00001604AB1EB6997
:105A68009B68C3F309139A4203D91144DA431144DA
:105A78000160D6F8DC204AB16B6A9B68C3F309134E
:105A88009A4203D9DB431A4411440160204601F0CD
:105A9800BDF9287902F008FD2879BDE8F84002F040
:105AA8000FBDFEE7F0B589B0214E0546B06D10B1C7
:105AB800F16DA9421BD018B102F04AFE0020B06572
:105AC80001AC204602F068FD1A488DF81C50012DE3
