:10000000003801203DC3000099CA000099CA0000D1
:1000100099CA000099CA000099CA000099CA000054
:1000200099CA000099CA000099CA000099CA000044
:0C00300099CA000099CA00000D6E000083
:10004000B6B00CF0DDFB0C902EA8DFF8F89CDFEDCD
:10005000B68A4FF000084FF0010B0DF13B07811DF0
:100060000A300690DFF8EC0D07912030089010ACB4
:1000700000200B900D90D9F818008DF8B780CDF8BE
:10008000B0800DF1B70101222CAB0CF0C6FE083098
:1000900003D1D9F818000BF03BFF2C98002800F092
:1000A000E6819DF8B7100D2902D00A2940F08C8016
:1000B0000B99002900F0D9812EA8012900F80180B0
:1000C00000F08E80DFF8801C05460AF088FF0028CB
:1000D00000F0B580DFF8741C0DF0D3FC002800F0B0
:1000E000B880DFF86C1C0DF0CCFC002800F0DB8041
:1000F000DFF8601C0DF0C5FC002800F01781DFF868
:10010000581C0DF0BEFC002800F00781DFF84C1CE5
:100110000DF0B7FC002800F00081DFF8441C0DF062
:10012000B0FC002800F05085DFF8381C0DF0A9FC69
:10013000002800F04985DFF8301C0DF0A2FC0028F3
:1001400000F0D985DFF8241C0DF09BFC002800F09E
:10015000D885DFF81C1C0DF094FC002800F0D78532
:10016000DFF8101C0DF08DFC002800F0E285DFF8B0
:10017000081C284605220CF067FC002800F0CC85FE
:10018000DFF8F81B284605220CF05EFC002800F082
:10019000C385DFF8EC1B284609220CF055FC40B162
:1001A000DFF8E01B284609220CF04EFC002840F046
:1001B0005C810B980B2832BF002006980BF0B0F939
:1001C00089F80CB000F0B1BD0B9A48B212B31E2AE8
:1001D00000F24D812EA90B9A885401320B9246E110
:1001E0009DF8B800A0F13101032937D9442800F067
:1001F0002281572800F01C815A2808D0642800F07A
:100200001A81772800F014817A2840F02E8189F82D
:100210000BB012E100282DD4A1F13102032A66D9D6
:10022000422900F01285432904D0522900F032857A
:100230006329CFD109F0D8FCDFF8100C13E10020BE
:1002400000210B90DFF8E40B89F80D100CF0B0FCE6
:100250000DE1DFF8D40B89F80DB004E1DFE811F00F
:100260000400FE00F200F800012007F017F8DFF8A4
:10027000D00BF8E06FF0630151FA80F0A9F810009C
:100280002320A9F8140099F80500002840F0ED801B
:1002900099F80000062840F0E880B9F81000012124
:1002A00008F0E4FEE1E0DFF86C0BDFF8F45AA84751
:1002B0000DF0BEFA0AF024FCDFF85C0BA84799F8B1
:1002C0000D00DFF8581B0128DFF8540B08BF084663
:1002D000A84720460DF0BCF8DFF8480BA8479DF86A
:1002E00040000AF00DFCDFF80C0BA847BDE0DFE88A
:1002F00012F00400F404C304E604012006F0CEFF6B
:10030000DFF8400B09F08EFADFF83C0B0DF066FBCE
:100310000DF080F8DFF8280B98E7402005F0CCFEC0
:10032000DFF8A80A9FE000BF00007A44DFF8A00AC7
:10033000DFF86C5AA847DFF89C0AA8470DF07EFA50
:100340000028DFF8980ADFF8901A18BF0846A84777
:10035000DFF88C0AA8470DF065FA0021DFF8842A3F
:100360008DF89A1000F00F010009515C105C8DF8B7
:1003700099108DF8980026A8A847DFF86C0AA847BE
:100380000DF044FADFF8646AB047DFF8640AA84762
:1003900017200DF00DF8B047DFF858AA5046A847CF
:1003A000DFF8540A21460CF039FEDFF8500AA8475E
:1003B0001098B047DFF8480AA8471198B047DFF80F
:1003C000440AA8471298B0475046A847DFF8380AB1
:1003D000A8470DF03FFADFF804AA0028DFF8F86913
:1003E000504618BF3046A847DFF8200AA84799F8BA
:1003F0000300002818BFB2465046A847DFF8100A8D
:10040000A8470DF021FA0021DFF8D8290B918DF8CB
:10041000821000F00F010009515C105C8DF8811012
:100420008DF8800020A8A847DFF8C809A8471EE07B
:10043000DFF8FC0917E089F80CB000200B90C9F830
:10044000240014E0032006F029FFDFF8EC090AE09D
:10045000042006F023FFDFF8DC0904E0022006F0A8
:100460001DFFDFF8D8090CF0A3FB00200B900D98BE
:100470004FF47A7A002600F11005102E68D0DFF8CC
:10048000780926A90AF0B6FB002863D099F8020083
:10049000C0071BD089F80280B9F81400B0B9232036
:1004A000A9F8140099F8050080B999F80000062809
:1004B0000CD1B9F8100010B1B9F8100003E0DFF862
:1004C000880990F84300012108F0D0FDB9F8140024
:1004D000D8B1B9F814000138A9F81400B9F814001B
:1004E00098B999F8050080B999F8000006280CD150
:1004F000B9F8100010B1B9F8100003E0DFF84809AE
:1005000090F84300002108F0B1FDD9F8180099F8DF
:100510000D10012918D1B8B1DDE928019DF89C2002
:10052000269B8DE80700DFF82829204638210AF0AD
:10053000E7FD012808DB0246D9F81800CDF88080D5
:10054000214620AB0DF09FF801364FF0C80A94E722
:100550000D9502E00D9830440D9099F80400C00705
:100560007DD099F80D00012879D1DDF820B05846EA
:100570000DF058FADFF8D00889F8048090F8701070
:1005800090ED198A90ED1A9AB0F95C60B0F95A7042
:10059000B0F9585058460A910BF04EFE4446DFF829
:1005A000B808DFF8FC87C04700EE105ADFF8AC58F7
:1005B0000DF0B6F9DFF8A808C04700EE107A0DF08C
:1005C000AFF9DFF8A008C04700EE106A0DF0A8F9F7
:1005D000DFF89408C047DFF8CC57B0EE480AA847C8
:1005E000DFF88808C047B0EE490AA847DFF880085E
:1005F000C0470A98DFF8F4674FF0010BC0F3801092
:10060000B047DFF87008C047DFF86C78386EB04745
:10061000DFF86808C04797ED190AA847DFF86008B7
:10062000C04797ED1C0ADFF85C58A847DFF8580868
:10063000C04797ED1E0AA847DFF85008C04797ED5E
:100640001F0AA847DFF84808C04797F850000DF187
:100650003B07B047DFF87007C047A04610AC0CF06E
:10066000CFF805460C9841F28831281A8842C0F02C
:1006700087808DF840808DF880808DF83C8020A99F
:1006800020460FAA08F002FF002868D09DF88000DD
:10069000810727D599F80000DFF8F827013000F02E
:1006A000070000EB400189F80000505C0A445178D3
:1006B00092780AF079FF99F80000DFF8DC17085CFF
:1006C0000CF0E8FD0DF042F8DFF8D0070CF070FAFE
:1006D00099F800000AF014FADFF8C4070CF068FA81
:1006E0009DF88000C1071ED00DF0A2F8471C03281A
:1006F00088BF0127F8B206F0D1FD452043214722EB
:100700000AF052FF0DF022F8DFF898070CF050FACB
:1007100038460DF13B070AF0F3F9DFF884070CF0D7
:1007200047FA9DF88000410709D5DFF87C0789F872
:100730000BB0C9F824800CF03BFA9DF880008006CD
:100740000DD5402005F0B8FC432041214C220AF091
:100750002BFF0CF0FBFFDFF854070CF029FA99F897
:10076000050001280BD199F80E0020B1013889F855
:100770000E00000603D189F8058005F04BFF0C95AB
:1007800099F80A00C00700F06181DFF8C85605F14A
:100790004C0630460DF046F989F80A8099F80800B1
:1007A00095ED00AA95ED01EA95ED02FA95ED03DAD3
:1007B00095ED04CA95ED05BA99ED079A99ED088A69
:1007C000B9F8128099F809B099F8064099F80750DD
:1007D0000A9030460BF030FD99F80D00012840F0EA
:1007E000CD80DFF808070CF0E3F93CB3DFF8000731
:1007F000DFF8AC65B047DFF88C76B0EE4A0AB84750
:10080000DFF8F006B047B0EE4F0AB847DFF8E80669
:10081000B047B0EE4E0AB847DFF8E006B047B0EE9A
:100820004D0AB847DFF8D806B047B0EE4C0AB847D3
:10083000DFF8D006B047B0EE4B0AB8473DB1DFF85D
:10084000A8060CF0B5F9B0EE490A09F029F8DFF86E
:10085000B8060CF0ADF940460AF052F9BBF1000FB2
:1008600007D0DFF8A8060CF0A3F9B0EE480A09F0AB
:1008700017F8DFF89C06DFF82875B8470CF0D8FFAA
:10088000DFF868B5D847DFF8C00590F84380DFF897
:10089000B405D0F8B061DFF87C06B84740F2EE202E
:1008A00086424FF0000028BF80464046D847DFF818
:1008B0006806B847B9F84A00D84720A80CF0C8FD28
:1008C000DFF85806B84716AE96ED0B0A08F0E8FFB9
:1008D000DFF84C06B84796ED0C0A08F0E1FFDFF8A8
:1008E0004406B84796ED0D0ADFF8B854A847DFF87C
:1008F0003806B84796ED0E0AA847DFF83006B84725
:1009000096ED0F0AA847DFF82806B8479DF8800043
:10091000D847DFF8B404B847D9F818004FF0010BF6
:1009200030B3DFF824650624B9F84A10B6F8400061
:10093000B6F84420B6F8463096F84860B70604EAA0
:10094000E7778DE8830003A840214CC010ACDFF8A6
:10095000E425434620460AF0D3FB012808DB024683
:10096000002021460F90D9F818000FAB0CF08BFE39
:1009700010AC4FF000080DF13B0767E009944FF011
:10098000010B4FF0000899F80D0010AC00285DD164
:1009900020460CF085FDDFF81875DFF81805DFF844
:1009A000A414DFF8EC232346009703F0EDFCDFF8F6
:1009B0000805DFF8EC53A847B879DFF83064B04792
:1009C000DFF8F804A8473889B047DFF8F404A847EF
:1009D0007889B047DFF8EC04A847B889B047DFF85A
:1009E000E804A847B87BB047DFF8E004A847F97BE4
:1009F000DFF8E004DFF8D824012908BF10460029F9
:100A0000DFF8D41408BF0846A847DFF8D004A84789
:100A1000387E0DF13B07B047DFF8C404A8470A98B9
:100A2000B047DFF8C004A8470998002818BFB0EE07
:100A30004A8AB0EE480A09F0E5FBDFF8AC04A847A3
:100A4000B0EE490A09F0DEFBDF48A84799F80B0031
:100A500020B999F80C00C00700F0AB8099F80C00A1
:100A6000D9F8245089F80B8089F80C8089F801B0F6
:100A7000C0071AD0DFF8CC04C94EB04728460AF0A8
:100A80003FF8DFF8B804B047DFF8BC04B047642093
:100A9000452150220AF088FDA9480BF0DDFE0BF03D
:100AA000A1F828460BF062F819E0DFF88C04BC4E80
:100AB000B04728460AF024F8DFF88004B047DFF892
:100AC0008004B04753204C2150220AF06DFD9C4811
:100AD0000BF0C2FE0BF086F828460CF021FA96487F
:100AE0000BF0BAFE8DF83C80202000210FAA0AF0FE
:100AF00039FD8DF83B80CDF84080D9F81800394693
:100B0000012223460CF089F910B910980028F4D17D
:100B10008A4805FB00F60BF073FE074625B10BF083
:100B20006FFEC01BB04225D21D200CF041FC68B9FD
:100B3000FF2000218DF88000202020AA0AF012FD5D
:100B400020B19DF88000C043800613D1D9F8180069
:100B50008DF83A80CDF880800DF13A01012220AB6A
:100B60000CF05BF908B9209820B94CF250300BF02A
:100B700073FED3E70BF018F807F040FC09F0E2FB36
:100B800007F068FD7520502120220AF00DFD99F82C
:100B90000000C149085C0CF07DFB0CF0D7FDEB4870
:100BA00089F801800CF004F8E9480CF001F80DF127
:100BB0003B0791480CF086FB00283FF45CAA5046A6
:100BC0000BF04AFEFFF757BA204603F00DF9002854
:100BD0003FF44BAC7148724EB04716AD714F95ED76
:100BE000000A0CF051FF7048B04795ED010A0CF077
:100BF0004BFF6E48B04795ED020A0CF045FF9DF89B
:100C000067006B4900286B4818BF0846B0476A4820
:100C1000B04795ED000A0CF037FF6848B04795EDF6
:100C2000010A0CF031FF6648B04795ED020A0CF05E
:100C30002BFF64480DF13B07B0479DF8670009F0B2
:100C40005FFF6148B047FFF710BC2320A9F81400EC
:100C500099F8050000287FF408AC99F800000628F0
:100C60007FF403ACB9F8100000287FF416AB764887
:100C700090F84200FFF713BB032006F00FFB71480A
:100C800008F0D0FD70480CF0A9FE0CF0C3FB6A48D8
:100C9000FFF7DCBA002000210B90A9F8101099F89A
:100CA000050000287FF4E3AB99F8000006287FF4E4
:100CB000DCAB00200B9008F0D9F9FFF7D8BB04207B
:100CC00006F0ECFA5F4808F0ADFD5F480CF086FED8
:100CD0000CF0A0FB5748FFF7B9BA022006F0DEFA85
:100CE000584808F09FFD58480CF078FE0CF092FB35
:100CF0005248FFF7ABBA26480BF0CDF92648FFF76C
:100D0000B2BB23480CF07BF92248FFF7ACBB0AF0DA
:100D100099FD1E48FFF7A7BB0B98072832BF00209C
:100D200007980AF0FDFB89F80BB0C9F82400FFF71B
:100D30009CBB1548FFF797BB90D00300A08601002D
:100D4000305705002004002081EC00006EEE00000A
:100D500032EF0000AFEF0000A5EF00004AEE000008
:100D60009DEC0000C5ED0000B1ED000047ED000076
:100D7000D9ED0000AAEF000078EF00007EEF000040
:100D8000E3ED00009DED000055E9000030E50000B6
:100D9000509A002043EA000081E7000057E7000076
:100DA000B1CB000005A2000040EF000039EF0000C9
:100DB00021E800002AEA0000ECEA000071EF0000E0
:100DC00024EF000077EE0000CCEF000019E20000F5
:100DD000BEEB000047EC0000DCEF0000B9EF0000C4
:100DE000BCEE000005EC000014EE000001AB0000BA
:100DF00000ED000071E9000034A8002003EB0000C2
:100E0000BBED000052ED000056EC00000BEE0000C0
:100E10000CED00002CE7000065EC0000C8EF0000BE
:100E200038EE0000DCEC00004EE60000D4E60000E6
:100E3000F8E90000C4E90000DEE9000090E90000E4
:100E4000AAE9000058B4002068020020D3E700009F
:100E5000ABEB0000F001002070EB000015950000E6
:100E60005CEF000047EF000093ED000065EE00002E
:100E7000F4EE000001EE000030BD00200CEF000099
:100E800089EE0000A19800006AEF00004EEF00001C
:100E90005CEE0000BCEA0000B4EE000063E4000079
:100EA000D4EF00001AEB000092E5000030EB0000E8
:100EB0008CC0002078BF00205CEB000055EF0000E4
:100EC000A7ED00001DEE0000CFED0000AAEC000031
:100ED00063EF000004EF0000EDED0000F7ED00000F
:100EE000F4EC000053EE0000FCEE00008FEC00007C
:100EF0008AEF000084EF000090EF0000D4EE0000C5
:100F0000E4EE0000ECEE000041EE0000DCEE00003C
:100F100026EE0000CCEE0000C4EE00003CED000028
:100F200073ED000068ED0000E8EC00007EED0000CD
:100F30005DED000011EA0000FBE70000D0EF0000CB
:100F4000D6E1000097E400000DE1000086E000001B
:100F5000D1EB00000A2070472DE9F84F2DED048BEE
:100F600096B00025002800F0C4840646DFF8000A89
:100F70000078002800F0BD84DFF8F8497620712160
:100F80000022A047762072210122A04776207421FA
:100F90005522A04746F2A8100BF05EFC11AC1121BF
:100FA00020460CF0C6FA76201D21224611230AF0B5
:100FB000E7FF002800F09C849DF84A109DF8490046
:100FC000090141EA00309DF84B1040EA111041033D
:100FD00002D1002500F08CBC9DF847209DF84610FA
:100FE0009DF84830120142EA013141EA131109919A
:100FF0009DF852100D919DF851100691BDF84C10BE
:1010000009BA090C0C910BF0DBFF9FEDB30B0F96A7
:1010100081468B4653EC102B0E9210930CF065FD1D
:101020000446DFF84C090F46808A0BF0C9FF9FED9C
:10103000AC0B05460E460CF0BDFC02460B462046A6
:10104000394604F03EF90446DFF824090F46B0F9AA
:1010500016000BF023FB02460B46204639460CF0E7
:1010600044FD9FEDA10B80468A464846594653EC05
:10107000102BCDE907230CF038FD9FED9D0B0446A6
:101080000F46284631460CF095FC02460B46394681
:101090002046DFF8DC7804F014F902460B460CF029
:1010A00024FD044697F902000CF0F1FC9FED920B31
:1010B00053EC102BCDE90A230CF017FD0CF044FC87
:1010C0000CF013FD02460B464046514604F0F9F879
:1010D0009FED8B0B04460D4653EC102B0CF003FDDB
:1010E0008246884608F048FF0F9905900860787896
:1010F000012840F06181B7F91A000490B7F9200087
:101100000BF0CCFA9FED800B55EC107B3A460CF0BF
:10111000A6FC0446DFF858080E4690F907000BF0CD
:10112000BDFA3A460CF09BFC0CF060FC22460CF039
:101130009FFC834609980D4600010BF041FF0246D3
:101140000B460446099089460CF0CFFC5A462B46C4
:1011500006460F460CF0C9FC05468B46304639461C
:1011600022464B460CF0C1FC0646DFF804080F4649
:1011700090F908000BF092FA9FED650B0CF01AFC49
:1011800002460B46304639460CF0AFFC2A465B4619
:1011900004F097F8CDE9071004980BF07FFA9FED63
:1011A0005E0B0CF007FC0CF0C5FA0446DFF8C00734
:1011B0000D46008B0BF004FF9FED590B0CF0FAFB72
:1011C0000CF008FC0446DFF8A8070D4690F9030070
:1011D0000BF064FA9FED540B0CF0ECFB0CF0AAFA48
:1011E0000CF0A8FA0CF0B0FB04F06BF80546DFF841
:1011F00080070F4690F904000BF050FA9FED4C0B5E
:101200000CF0D8FB0CF096FA0CF094FA0CF092FA71
:1012100002460B462846394604F053F8CDE9031040
:10122000DFF84C07C08B0BF0CBFE9FED430B0CF0AF
:1012300059FB04F046F89FED420B0CF0BBFB0CF0A1
:1012400079FA0646DFF828070F46808B0BF0B8FEC8
:101250002A46234604F035F89FED3B0B0CF0AAFB21
:1012600002460B4639463046DFF8047704F029F889
:10127000054697F905000E460BF010FA9FED340B6A
:101280000CF098FB0CF056FA0CF054FA2A460CF0CD
:10129000EFFB834697F906000CF0F9FB9FED2E0B50
:1012A0000CF088FB0CF046FA0CF044FA0CF042FA11
:1012B0005A462B4604F005F8099A4B460CF015FCEB
:1012C00002460B46DDE9031003F0FBFF02460B4626
:1012D000DDE9071074E100BF000000000000103FCE
:1012E00000000000000050BF000000000000E03ED1
:1012F00000000000000020BF00000000000030409F
:10130000000000000000B440000000000000F03CBD
:10131000000000000000E03B000000000000903FE3
:101320000000000000002040000000000000703FAE
:10133000000000000000003F000000000000D0C0DE
:10134000000000000000203E000000000000B03E51
:10135000000000000000F03D000000000000A03D83
:10136000000000000000E03F000000000040EFC06F
:10137000000000000000C03E000000000000F03F40
:101380000000000000000000000000000000D03F4E
:10139000000000000000F04000000000000030BF2E
:1013A000000000000000304100000000006AB8406A
:1013B000000000000000003E1FED170B20462946EC
:1013C0000CF0F8FA1FED180B0CF000FB054697F92E
:1013D00009008B460BF062F90CF0C4F90CF0C2F96D
:1013E0000E9A109B0CF081FB0446B7F924000E46C0
:1013F0000BF054F92A465B460CF077FB22460CF0C2
:1014000037FB1FED250B0CF0D5FA1FED370B53EC16
:10141000102BCDE903230CF068FB1FED290B0CF01A
:10142000D5FA0446788C0E460BF0CAFD02460B46F0
:10143000204631460CF059FB1FED2F8B81460C46A0
:1014400053EC182B08F0ECF8002840F0BD80B7F9F9
:1014500028000BF023F90CF085F901940446DFF81D
:1014600010050F4690F90B000BF018F9DDE9072382
:101470000CF03BFB0646CDF808A0C246884628463D
:1014800059462A465B460CF030FB324643460CF088
:101490002CFB05460E462046394622463B4603F0C5
:1014A00010FF2A460CF0E4FA1FED490B0CF082FA0B
:1014B0000446DFF8BC040D46B0F926000BF0EEF848
:1014C0001FED4D0B0CF076FA0CF084FA1FED4E0B6D
:1014D0000CF070FA044609980CF0C4FA1FED500B9A
:1014E00002460B4651EC100B03F0E6FE0CF072FACC
:1014F0001FED530B0CF05EFA019B4A460CF0F3FA19
:101500000646DFF86C048846B0F92C000BF0C6F8EC
:101510000CF02EF90CF02CF91FED5B0B0CF04AFAD5
:101520001FED7F0B83468946304641460CF042FA58
:1015300002460B4604460D460CF0D7FA0CF004FAAE
:101540000CF0D3FA0446DFF828040D46007B0BF0BC
:1015500037FDDDE907230CF0C8FA22460CF07FFACC
:101560000546DFF80C040F46B0F92A000BF096F898
:10157000DDE903230CF0B9FA324643460CF0B5FA24
:101580005A464B4603F09DFE3B462A46DFF8E07381
:1015900003F097FE044697F90A000CF078FA9FEDE5
:1015A000DE0B0CF007FA0CF015FA9FEDDD0B0CF0DA
:1015B00001FA0B464146D046DDF808A00246304607
:1015C00003F07FFE41EC180B9FEDD90B51EC180B8B
:1015D00053EC102BCDE908320CF085FA08F0CCFC66
:1015E0000F9E706097F90D000BF058F89FEDC40B3B
:1015F0000CF0E0F90CF09EF80446388E0CF032FA4C
:10160000DDE90A230CF071FA0CF0E4F904460C98B9
:101610000CF028FA22462B4603F04EFEB9460C90F9
:101620000F4699F90E000BF039F8DDF838B0109B31
:101630005A460CF05AFA0CF0D9F99FEDB30B0CF0A6
:10164000C5F9044699F90F000CF021FA9FEDB60B8D
:101650000CF0B0F90CF06EF80CF0C8F90CF0BAF917
:101660000446B9F82E000CF0FDF99FEDB30B0CF019
:10167000A1F922460CF0F3F902460C980B463946C4
:101680000CF033FA044699F810000F460BF098FC62
:10169000109B5A460CF029FA834699F911000CF078
:1016A000F6F99FEDA70B0CF085F90CF09FF95A465F
:1016B0002B4603F006FE22463B460CF016FA224665
:1016C0003B460CF012FA22463B4603F0FAFD9FED32
:1016D000900B83460F4655EC104B22462B4607F0E5
:1016E000ACFF00281CBF2F46A346099C089D584606
:1016F000394622462B4607F0C7FF00281CBF2F465D
:10170000A3465846394608F037FCB0600D9908EEFC
:10171000100A99ED0D9A880620D4BBEE0E1A059892
:101720009FED972AB7EE003A38EE011A01EE023A21
:1017300000EE100ABBEE051A30EE010A9FED911A79
:1017400000EE013A9FED900A29EE039AB4EE409A1A
:10175000F1EE10FA48BFB0EE409A4AE0069801F068
:101760000F084FEA911A8600814890F912000AF09A
:1017700095FF9FED750B0CF01DF99FED750B0CF0AF
:1017800025F902467C480B4600EBC8000BF0D8FF59
:1017900004467A480D4622462B4600EBC8000BF063
:1017A000CFFF804606EB0A008946A0F500700AF0DC
:1017B00075FF0CF0C9F803F084FD02460B46404665
:1017C00049460F9E0CF08FF99FED630B80468A46C9
:1017D0000CF088F807F058FF58B1404651462A46A9
:1017E00023460CF080F908F0C7FB614909EE100AA6
:1017F00048639FED5B0B5846394686ED039A0CF023
:1018000071F807F034FF58B19FED570B5846394631
:1018100053EC102B07F01EFF10B1B3EE090A17E0CE
:10182000584639462A46234607F007FF40B19FED48
:10183000580AB3EE091A38EE000A30EE010A07E042
:101840009FED520AB3EE091A38EE000A31EE400A53
:101850009FED501A9FED502AB6EE083A89EE011A14
:1018600021EE021A21EE031A9FED4C3AB4EE431A10
:10187000F1EE10FAC8BFB0EE431AB5EE401A9FED74
:10188000483AF1EE10FAB5EE400A48BFB0EE431AFE
:10189000F1EE10FA48BFB0EE430A31EE000AB1EEA5
:1018A000041A32EE400A9FED412A20EE010A9FED14
:1018B0003D1AB5EE400AF1EE10FA48BFB0EE430A09
:1018C000B4EE410A9FED3B3AF1EE10FAC8BFB0EE1C
:1018D000410A9FED351A86ED040A012500EE012A22
:1018E0009FED331A00EE013A86ED062A86ED053AA1
:1018F0003577284616B0BDEC048B01B0BDE8F08FFB
:10190000000000000000E03F000000000000F03F89
:101910000000000000000000000000000000604027
:10192000000000000000B03F000000000000B03EDA
:101930000000000000005940000000000000D03E00
:10194000000000000000A03E000000000000144065
:101950000000000000F094400000000000408F40B4
:10196000000000000000434000000000000045406F
:10197000AC04002071C3000048DE0000C8DE000097
:10198000A69BC4BB6F1203BC0000FA44000028C22F
:10199000000018C2000048420000C8420000964201
:1019A000000000000000FA430AD7233CCDCC4C3D98
:1019B000CDCC4C400000C8432DE9F84F2DED068BEF
:1019C000ADF5496D0026002800F0AC830F460029D4
:1019D00000F0A8839346002A00F0A48397ED038AC1
:1019E0008146B5EE408AF1EE10FA1DD8B7F906101F
:1019F000B7F90400B7F9082001EE101A00EE100A3A
:101A0000B8EEC11AB8EEC00A21EE011A00EE001AB3
:101A100000EE102AB8EEC00A00EE001AB1EEC10ABC
:101A20009FEDB01A80EE018A386839462022039073
:101A3000B9F8A40C09EB401024300CF069F8B9F89F
:101A4000A43C642009F61C585E1CB6FBF0F101FBB7
:101A50001064B9F8A61CA9F8A44C63299CBF0131F5
:101A6000A9F8A61CB9F8A80C00F1010A09F618504B
:101A70000290D9F8180DA9F8A8AC48B999F83D2DED
:101A800032B9D9F8542D1AB9DFF814280025157089
:101A900089B29FED950AB0EE481AB0EE482A0C299B
:101AA00028BF0C216422B6FBF2F54FF4486675435B
:101AB00004F16306C5EB43138C4D4B4403F54B63B4
:101AC00021B3B6FBF2F4B0EE414AB0EE425A04FB49
:101AD000053494ED003AB4EE413AF1EE10FAB4EE6A
:101AE000423AC8BFB0EE434AF1EE10FAB4EE403AC3
:101AF00048BFB0EE435AF1EE10FAC4BFB0EE452A2B
:101B0000B0EE441A0139013E203BD9E731EE420ADA
:101B100098ED092A9FED763AB7EE001A0BF0F6FE23
:101B200001D5039C1DE09FED733A039C0BF0EEFE84
:101B300017DCB6EE081AB4EE418AF1EE10FAC0F2E4
:101B4000CD80B7EE041AB4EE418AF1EE10FA00F23D
:101B5000C5809FED691A9FED693A28EE011A02EEE1
:101B6000031A88ED091A9FED662AB4EE420AF1EED7
:101B700010FA02D59FED639A18E09FED633A38EEB4
:101B8000411A9FED624A21EE039AB0EEC11A9FED11
:101B90005D3AB4EE441AF1EE10FA48BFB0EE439A43
:101BA00098ED0A1A9FED5A3A01EE039A0021B4EE1D
:101BB000420A88ED0A9AF1EE10FA89F83C1D27DAFC
:101BC000C8E90B11012089F8500DD9F8540D0028EF
:101BD0006CD0201AB0F5C86F09D9DFF8C416002000
:101BE00089F83D0DC8F81000C8E90000087099F8A0
:101BF000F20CE0B1D9F8FC0C40F6B831201A88425A
:101C0000C0F0B78148460BF0FAF9B9F8A8ACB0E1DA
:101C100099F8501D01294DD198ED0B0AB4EE409A68
:101C2000F1EE10FA40F3908088ED0B9ACDE799F829
:101C3000F00C052800F21481DFE810F006001B010B
:101C4000140112013E015D019FED2F0A0BF077FE9A
:101C500040F15D8199F8F30C013089F8F30C000A2A
:101C600040F08781012009F54E63B7F90610B7F9F6
:101C70000820C9F8F44C89F8F00C0020986189F824
:101C8000F30CB7F9040001EE101A02EE102AB8EEB8
:101C9000C11AB8EEC22A00EE100A83ED011A83EDD4
:101CA000022AB8EEC00A83ED000A62E1B4F5C86FFB
:101CB00093D89CE798ED0C0AB4EE409A9FED150A74
:101CC000F1EE10FA48BF88ED0C9AB4EE409AF1EEAE
:101CD00010FAFFF67AAF88ED0B9A73E7B0EE421A6E
:101CE00041E700BF00007A44CDCCCC3D80F3FFFF3C
:101CF0003333333F6666A63F8FC2753DD7A3703F2F
:101D0000295C0F3E000000006666263FEC51383D1E
:101D10003333B33E8FC2753C0AD7A33D8FC2F5BCA7
:101D200000606A47000070428FC2F53DC3F51C4158
:101D30006666E63ECDCCCC3ECDCC8C3F3333D33F34
:101D4000295C8F3E333303401FED0D1A0BF0D4FD99
:101D5000FFF63BAF1FED0F1AB4EE419AF1EE10FA09
:101D60003FF633AFD9F8542D40F20463A11A002A8C
:101D700008BF40F6C411A1F582729A4200F2E180D8
:101D8000DFF81C6501223378002B00F00A8201EE97
:101D9000101A012B04BF022232701FED232A1FEDFF
:101DA000264A40F201131044C9F8544DC9F8584D61
:101DB00030EE490AB8EE41AA1FED271A98ED003A15
:101DC000A9F83C3DC9F8180D81EE0A1A21EE022A45
:101DD00003EE042AB2EE044A0BF09DFDC8BFB0EE3C
:101DE000421A1FED302A88ED001A81EE022A1FEDFB
:101DF000321A0BF081FD88ED012A48BFB0EE410A8E
:101E00001FED361A20EE010AB1EEC01AB1EEC10A7A
:101E1000B4EE400AF1EE10FA80F13B821FED3C1A5D
:101E200020EE010A1FED3D1A0BF066FD48BFB0EE33
:101E3000410A1FED3F1A0BF05FFDC8BFB0EE410A2B
:101E4000307888ED020A022840F0B18102980068DB
:101E5000022818BF012001EE100AB8EE411AA8E1CD
:101E6000002003E00020A9F8040D042089F8F00CFC
:101E70007FE009F54E61D9F8F40C91ED060AB4EE55
:101E8000408A1FED520AF1EE10FAC4BF09F54E6107
:101E900081ED068A201A0BF052FD30DBB0F5617F30
:101EA0002DD80120C9F8FC4CA9F8140D0020A9F880
:101EB000040D4FF482701BE0BFEE000A1FED601AA4
:101EC000B9F8040D38EE000AB0EEC00A0BF014FDAC
:101ED00026D50130B9F81810A9F8040D80B288424F
:101EE00047D30120C9F8FC4C89F8F20C40F20520D8
:101EF000A9F8F00C3DE0012089F8F20C39E040F23D
:101F0000B731884224BF0020A9F8F00C31E01FED62
:101F1000730A0BF014FD1EDA002089F8F30C28E098
:101F200010B10138A9F8040DB9F8140D0130A9F861
:101F3000140D80B21E2824BF4FF44070A9F8F00C95
:101F400017E0B1F5E16F40F24981D5480121C9F8A8
:101F5000544D017042E109F54E6080ED068A4FF460
:101F60008270A9F8F00C0120A9F8140D0020A9F83E
:101F7000040D1FFA8AF0322824D3B9F8A60C0026E3
:101F800009F54E6A6428C0F09280B9F8A47CCDF8B7
:101F900004A0AA46A9F8A86C4FF0640804AD09EBA8
:101FA000471000F12404B6F5486F0FD0B7FBF8F0E6
:101FB000202200FB0A41A8190BF0AAFD20360137A8
:101FC0002034F0E7002609F54E6A70E0DDF804A041
:101FD00004A864210AF1840202F020FB99F8DC1CB9
:101FE00099F8DD0C9AED212A9AED221A9AED230A2E
:101FF000B6EE083A4A1C01EB410109EB810102F0FF
:102000000302042801F6AC4189F8DC2C81ED002A9A
:1020100081ED011A81ED020A3CBF013089F8DD0C27
:102020009AED2E4A039CB4EE434AF1EE10FA35DAEB
:1020300099F8EC0C9AED2D3A02287BD0012818D0A3
:10204000002840F091809FED9D5A0BF06EFCC0F28D
:10205000A2809FED9B4A0BF05EFCC0F29C8099F839
:10206000EF0C012840F0C3800BF0FFFA022877D272
:10207000C1E09FED8C5A0BF058FC79DB9FED8B5A39
:10208000B4EE453AF1EE10FA72DB99F8EF0C022843
:1020900040F0A8800BF0E9FA022804D30BF0AAFC68
:1020A000022089F8EC0C0020012689F8ED0C0BF1D8
:1020B000080009F6645144228BF80460CBF8004014
:1020C0000BF026FDB9F8EC0C9FED811AABF84C0033
:1020D00099F8F00C99F8F11C99F8F22C8BF84E1045
:1020E0008BF850208BF84F0002992822DAF818005C
:1020F000CBF85400B9F8040D00EE100AB8EE400A0F
:1021000020EE010A8BED170ADAF82000CBF8580010
:102110000BF160000BF0FCFC09F65C50594688227C
:102120000BF0F6FC30460DF5496DBDEC068B01B0A9
:10213000BDE8F08F9FED5E0AB4EE404AF1EE10FA72
:1021400006D49FED5C0AB4EE403AF1EE10FA1FD5CA
:1021500099F8EF0C012821D10BF087FA0328A2D3BC
:102160000BF048FC01209CE7002089F8EC0C42E0D1
:102170009FED4D5A0BF0D9FB0AD59FED4F4A0BF05E
:10218000CAFB05D599F8EF0C00287AD001202BE086
:102190000BF030FC87E70BF02DFC2CE040F2011037
:1021A00022E0C9F8544DC9F8584D327016E0B7EE28
:1021B000001A98ED032A0020C8F81C00C8F8140083
:1021C00000EE012A9FED351A8AEE011A88ED062AE3
:1021D00088ED032A80EE010A88ED040A88ED0C9A46
:1021E0000020F0E440F20120A9F8EE0C5BE740F299
:1021F0000110A9F8EE0C9FED333AB0EEC22AB4EE0E
:10220000431AF1EE10FA0EDD9FED2F4AB4EE442A88
:10221000F1EE10FA07D5B0EEC05AB4EE445AF1EE22
:1022200010FA3FF540AFB4EE430AB0EEC11AF1EE3A
:1022300010FA08DD9FED244AB4EE441AF1EE10FACC
:1022400001D5012030E79FED214AB4EE440AF1EEBA
:1022500010FA08D59FED1C0AB4EE401AF1EE10FA00
:1022600001D5022020E70BF051FB08DD9FED160A97
:10227000B4EE401AF1EE10FA01D5032014E7042061
:1022800012E70BF0F2F90428FFF40DAF0BF0B2FBEC
:102290006BE7B0EE410A06F085FFBFE500007A4427
:1022A000D20500206666263F8FC2F53D295C8F3E31
:1022B000CDCC0C3FAE47613E295C0F3DEC51383E22
:1022C000CDCC4C3D000016440000FA43000016C47B
:1022D0000AD7233C2DE9F04FADF5097DD0F80090E9
:1022E00006469B461546889148460BF0DAF94FF0B2
:1022F000000A09EB00014FF0FF340027CDF81CA2C3
:102300000291894580F0C580A046CDE984A409F1F9
:1023100001048DF818A2CDF80CA214F8010C0028C5
:1023200000F0B780252805D029463460D84701340D
:102330000137F2E73460879783AC3146204600F0DE
:10234000ADF82046314688AA00F0C9F83068017817
:10235000A1F168024FEA7203092B31D8421CDFE871
:1023600003F005190E2F2F2F1D2F2F210146839AC1
:1023700011F8013F682B1ED142F4007107E00146BD
:10238000839A11F8013F6C2B12D142F48071839132
:10239000023014E0839840F4006006E0839840F433
:1023A000005002E0839840F480508390104606E08D
:1023B00042F0400001E042F020008390084601789E
:1023C00000F1010973298DF81812C6F8009020D089
:1023D0006E2944462BD1839843F660710840411E14
:1023E00080EA01028A420ED990FAA0F0B0FA80F099
:1023F000411F082907D8F817DFE801F04505053A1D
:1024000041053A050500889850F8041B0F60889034
:1024100028E09DF80C02444640061BD4CDF800B0DD
:1024200083A888AA294687AB00F01CF91AE00DF1B1
:102430000E0883A988AA404600F066F9929B0246DE
:10244000404629469847411C18BF384487900746A4
:10245000029909E0CDF800B083A888AA294687AB85
:1024600000F09BF80299879F781C7FF44AAF0EE03A
:10247000889951F8042BC2E900708891F2E7889896
:1024800002C80F70C3E7889802C80F80BFE74FF0FB
:10249000FF3738460DF5097DBDE8F08F10B50A68A5
:1024A0000124E30708BF10BD1378302B0CD0232B79
:1024B0000CD02B2B0CD02D2B04D00024202BF0D1B2
:1024C000042306E0012304E0102302E0082300E0D7
:1024D0000223046801320A6023430360E0E7FEB58B
:1024E0000446086816460D4603782A2B11D1306839
:1024F000011D31600068B0F1FF3F606005DC4042C3
:102500006060206840F0010020602868471C2F6050
:1025100017E000210DF10202303B4718092B06D8C5
:102520007B1C2B60435C53547B780131F4E7002023
:1025300050549DF8020020B10DF1020008F0F0FFA8
:10254000606038782E2827D1781C28607A782A2A6B
:1025500008D13068011D31600068A0602868013032
:102560002860FEBD00200DF10201303A092A07D88B
:102570003A18931C2B60537892780B540130F4E78F
:1025800000220A549DF8020028B10DF1020008F063
:10259000C7FFA060FEBDA260FEBD2DE9FE4F05464F
:1025A00010680C46011D116007680C9AD7B3AE681D
:1025B00098469146002E04D438460BF03FF88642E8
:1025C00003D338460BF03AF80646D5F804A0B346D4
:1025D0000195B245C8BFD346D8F80000CDF80880B1
:1025E0005844C8F800000FDD01980078C0070BD1EF
:1025F000ABEB06054FF00008A84505DA2020214680
:10260000C84708F10108F7E7DDF808800025B54262
:102610000EDA57F82500B0F5807F19D22146C84759
:102620000135F4E70020214603B0BDE8F04F104724
:10263000B24515DD01980078C00711D0ABEB060557
:102640000026AE420CDA20202146C8470136F8E7C2
:102650004FF0FF30C8F800000BF0DCF958210160A2
:10266000BDE8FE8F2DE9F84F054610680C46011DA8
:10267000116006680A9AC6B3AF689B469046002F61
:1026800004D430460BF00DF8874203D330460BF0EC
:1026900008F80746D5F804A0B9460095BA45C8BF62
:1026A000D146DBF800004844CBF800000DDD00986F
:1026B0000078C00709D1A9EB070B00255D4504DAB6
:1026C00020202146C0470135F8E70025BD4204DA45
:1026D000705D2146C0470135F8E7BA4503DD009833
:1026E0000078C00706D1BDE8F88F00202146BDE87C
:1026F000F84F1047A9EB07050026AE42F3DA202079
:102700002146C0470136F8E72DE9FC4716464FF051
:10271000000A0D46D1F8048040F2FD112022044643
:10272000CDF800A00AF000FF04F5FE7084F8FDA1CA
:102730000190287BA0F1630115293DD801225E4B51
:102740008A401A4224D0694601AA2846334600F03E
:10275000B5F84FF0000A287BA0F16F014FF0010996
:10276000092905D809FA01F140F2432211423BD16F
:10277000582839D00099286841B301992D2200F0DA
:10278000020001F801290191012181EA50092BE0A1
:1027900091B93068011D3160006884F8FC01C0B255
:1027A0002968B0FA80F04FEA501A21F0020129603E
:1027B00004F2FB110191CEE7252802D05828C2D09F
:1027C000CAE7252020800120BDE8FC87810704D4CA
:1027D000400709D50198202103E001982B214FF0F3
:1027E000000900F801190190287804EB0807264633
:1027F000C007019808D104F2FD116A682646091A3B
:102800009142DCBF791A4E1C411C304600224FF425
:10281000FF734FF000080AF011FBBAF1000F0190AE
:102820001CBF00F8018B0190B84207D8391A013853
:10283000202201310AF078FE002038702878C00686
:1028400005D4311B204620220AF06EFE2EE0A6425F
:102850002CD0311B2046302230270AF065FE00982C
:10286000B0FA80F0400900EA0900012804D1287874
:10287000400701D4204605E03178204600F8011BCE
:1028800006F8017B297B41290CD0582905D0612904
:1028900008D0782901D0702908D12A78120701D4EC
:1028A000612903D1717841703020707020460AF0A0
:1028B000F8FE5044BDE8FC8742302400F8B50546D8
:1028C000806814460F46B0F1FF3F04DD286820F011
:1028D0001000286001E00120A860287B10265828FD
:1028E00007D0782805D0702803D06F2814BF0A2697
:1028F00008262846194600F053F8AA684AB950EA53
:10290000010206D12878000749D52B7B0020002141
:1029100012E02B7B642B04D16423B1F1FF3F05DD72
:102920000AE0692B08D1002906D5692301223A6003
:102930000022404262EB01013246009400F0ACF804
:102940003021AA68904205DA22680130531E2360C4
:102950001170F6E7287B582818BF782810D12978FD
:1029600009070FD521684A1E2260702808BF782009
:1029700008702068411E216030210170287B01E031
:102980007028ECD06F280AD12878000707D5206876
:102990004178302903D0411E216030210170F8BDFB
:1029A00010B5027B702A2BD0006843F66073184084
:1029B000431E80EA03049C420DD990FAA0F0B0FABD
:1029C00080F00538082806D8DFE800F04D0505201E
:1029D000390520050500A2F1640014280ED8012352
:1029E00003FA00F02B4B18420AD110F0210F05D04A
:1029F0000868021D0A600068C11710BD582A46D138
:102A00000868021D0A600068002110BDA2F1640080
:102A1000142808D8012303FA00F01E4B184204D1F1
:102A200010F0210F01D1582A31D10868073020F069
:102A3000070000F108020A60D0E9000110BDA2F110
:102A40006400142808D8012303FA00F0114B18423F
:102A500004D110F0210FCBD1582A18D10868021DDB
:102A60000A600078D0E7A2F16400142808D8012396
:102A700003FA00F0074B184204D110F0210FB7D130
:102A8000582A04D10868021D0A600088BCE70020AB
:102A9000BAE700BF00081200F8B505461148124E0B
:102AA000582B069F144608BF064655EA010011D16F
:102AB0003868421E3A60302202700BE028462246F7
:102AC00000F014F83A68531E3B6000FB14530546AF
:102AD000F35C137055EA0100F0D138680AF0E1FDAB
:102AE0000138F8BDE3EB0000F4EB0000102A06D03B
:102AF000082A09D1C00840EA4170C9087047000996
:102B000040EA01700909704719B9B0FBF2F00021E1
:102B1000704780B500230AF0EBFC80BD2DE9FC472F
:102B20000027002800F06A82DDF828A0BAF1000F23
:102B300000F0648291460546D0E96C20571C461C83
:102B400095F82022C5E96C76CBB1002742F0200031
:102B500051461C2285F81B72C5F8B071C5F8A471E6
:102B6000AAF80A7085F820028AF8100005F50970A5
:102B7000CAE905778AF800700AF0CAFF3EE240F21F
:102B8000EE2302F0DF029F4285F820220AD30023C1
:102B900042F0100285F81B32A5F82E32C5F8A43198
:102BA00085F8202210B3DFF86C24137802EB83063B
:102BB0007160591C0526CBB2B3FBF6F303EB83031C
:102BC000C91A012311700021062B04D052F823608A
:102BD00001333144F8E7052291FBF2F1E8B9002016
:102BE0000D280CD045F820100130F9E7DFF8243427
:102BF0000122062AD7D043F822100132F9E701EB6F
:102C0000C100102382006A63312B03D045F82320D2
:102C10000133F9E7C001C5F8C40095F83C2095F8E8
:102C2000C80045F82210561C6B6BD5F8C4C0AB63C6
:102C30000D23B6FBF3F707FB136685F83C6002F142
:102C40000C06B6FBF3F707FB1366171DB7FBF3F48F
:102C500055F8266004FB137455F82440344402F1FF
:102C60000D06B6FBF3F707FB1366D71CB7FBF3F1B2
:102C700055F8266001FB137155F82110314401EB22
:102C8000440102F10B04B4FBF3F606FB1344561D9A
:102C9000B6FBF3F755F8244007FB136655F826609A
:102CA000344404EB4404214402F10A04B4FBF3F677
:102CB00006FB1344961DB6FBF3F755F8244007FBBB
:102CC000136655F82660344401EB840102F10904CF
:102CD000B4FBF3F606FB1344D61D0832B6FBF3F73C
:102CE00055F8244007FB136600F1110755F82660DC
:102CF000344404EB84042144B2FBF3F404FB1322B8
:102D0000212355F8222002EB420201EB4201421C32
:102D1000B2FBF3F4B7FBF3F3696344EA441403EB47
:102D20004313121B05F14004FB1A54F8226054F8B7
:102D3000233085F8C8208E1B6644C5F8C46044F86B
:102D40002010D5F8C400D5F8B411A3EB6013052901
:102D500008D805F1CC000021052903D040F8213026
:102D60000131F9E705F1CC0405F1D406002717CCB1
:102D700016C68AF80070191BC5E93330801A00EBBB
:102D80004100C01080FB0001000B40EA015095F8A3
:102D9000881105EB81020131D2F8E440C2F8E40069
:102DA000B5F84222CAF80490B1FBF2F6001BD5F840
:102DB000804106FB121185F8881167F100010019A6
:102DC000D5F88441C5F880016141B5F8FE41CAF8E3
:102DD00014300023C5F88411AAF8084095F82E4253
:102DE0008AF80A4095F82F428AF80B40B5F830422D
:102DF000AAF80C40B5F83242AAF80E400AF078FB67
:102E0000D5E9631395F82022CAF8180005F509786A
:102E1000C5E9630181424FF000008AF8102028BF05
:102E20000120994288BF012795F8B831012B36D18E
:102E3000D5F8B431292B2ED3D5F8AC01814284BF0B
:102E4000C5F8AC110846B3F5967F24D3002185F868
:102E5000B811C5F8B01102F07F01B0F5487F6E4A95
:102E600085F82012014698BF4FF4487149089042F6
:102E700088BF42F21071A1EBD1029208C80802EBA0
:102E8000D102B2F5AF7F98BF4FF4AF72C5E96510BC
:102E90005308C5E967230AF02AFD0027AEE0D5F8FC
:102EA000B0213840B2F5967F21D91923B2FBF3F453
:102EB00004FB1323DBB9D5F89431B3F5167F16D98B
:102EC000D5F89841A3EBD303C5F89431A4EBD4040F
:102ED0001B1BC5F8984104EB9303B3F5AF7F98BF74
:102EE0004FF4AF73C5F89C315B08C5F8A0310028DA
:102EF00053D0B5F8FC315F208D2B0AD303EB83133D
:102F00006424B3FBF4F34FF6E0741C405F2C88BFDD
:102F10001846824216D2D5E9650202EBD101A1EB37
:102F2000D201401A0A4688BF02EB9002B2F5AF7F89
:102F300098BF4FF4AF72C5E9661250084FF4D071D4
:102F400068502AE0B1F5AF7F0BD3D5F89C018142E0
:102F500007D300204B460AF0B1FC9AF80000E0B11C
:102F600048E0D5E96523D5F8A40103EBD104A4EB2F
:102F7000D303D21A1C4688BF04EB9204B4F5AF7F8A
:102F800098BF4FF4AF746208C5E96634B1F5967F17
:102F9000C5F8A02128BF814234D895F81B02022829
:102FA00028D3B5F8FC0128B3A62148436421B0FB1F
:102FB000F1F1D5F8B00188421CD9D5F8A411B1F5CA
:102FC000967F17D3D5F8A021914213D3D5F8A82125
:102FD000D5F8B4319F1AC21BB5F84402824206D319
:102FE0000120A9EB87030AF069FCC5F8B071002045
:102FF000C5F8A4010AF07BFC9AF8007007F0010004
:10300000BDE8FC87D5F8B401C5F8A4114FF4D4711C
:1030100096E700BF20050020A18601000AF0BCB998
:103020002DE9F04792B00CAD182128460AF081FA3C
:10303000002476208A212A461723CDE90A44CDE9C7
:103040000844ADF81C40069408F09AFF002851D0BF
:1030500008AA7620E1210E2308F092FF00284BD029
:1030600006AA762000210523002408F089FF002805
:1030700040D00DF117027620F02101238DF8174082
:10308000012408F07DFF9DF81700022807D0BDF845
:10309000341046F2A81081422CBF00240124DFF82E
:1030A0009893BDF82800A9F81400BDF8300089F8FD
:1030B0000140A9F816009DF8320089F8020014B307
:1030C0000D99DDF83A20BDF83E3005F11500C9E94B
:1030D0000621BDF83810A9F80330A9F80510BDF88D
:1030E0004210A9F820109DF8441089F8071009F142
:1030F00008011FE0D04801E0CF48002404702046BA
:1031000012B0BDE8F0870D9905F11600C9F822103C
:103110009DF8381089F80910DDF83A10C9F8261022
:10312000BDF83E10A9F80A10DDF84210C9F82A10BF
:1031300009F10C0100789DF820209DF821309DF8C0
:1031400022409DF8235008709DF91C10102089F82A
:103150000D50099D91FBF0F0C9F80E5089F812004E
:10316000100140EA1310A9F82E0003F00F0040EA06
:103170000410A9F830009DF92C0009F08FFA9FED9A
:103180008A0B0AF017FC9FED8A0B0AF01FFC04461D
:10319000BDF92A000F4609F081FA9FED870B0AF06E
:1031A00009FC9FED870B0AF005FC9FED870B0AF0E9
:1031B0000DFC9FED870B0AF0FDFB9FED870B58EC94
:1031C000106B3246434602F07CF802460B4620461E
:1031D00039460AF08AFC04469DF92D000D4609F097
:1031E0005DFA9FED7F0B0AF0E5FB9FED7F0B0AF088
:1031F000E1FB22462B4602F064F805469DF81A00D2
:1032000001240F46000964F39F0009F0D9FE9FEDE9
:10321000780B02460B4651EC100B0AF064FC024698
:103220000B46284639460AF060FC07469DF918000F
:103230000D4609F033FA9FED700B0AF0BBFB3246E6
:10324000434602F03EF802460B46304641460AF03D
:103250004AFC02460B46384629460AF046FC9FEDDA
:10326000680B0AF0B3FB9FED680B0AF0A3FB9FED20
:10327000680B06460D4657EC108B42463B4606F05F
:10328000DCF99FED650B00281CBF3D4646463046E5
:10329000294657EC108B42463B4606F0F5F90028CC
:1032A0001CBF3D4646463046294608F025F8634D8A
:1032B000024676205A21A847762064215922A84741
:1032C000762071211022A847762072210122A8477A
:1032D000762074215522A847594809F0BDFA01AD5E
:1032E000112128460AF025F976201D212A461123AE
:1032F00008F046FE00284CD09DF811009DF81250B1
:10330000800050EA951A44D099F9120009F0C6F9E4
:103310009FED430B0AF04EFB9FED430B0AF056FB6B
:103320000246484805F00F070B4600EBC7000AF0BD
:1033300007FA054644480E462A46334600EBC700C6
:103340000AF0FEF90746AAF50070884609F0A6F9CA
:1033500002460B462846314601F0B3FF02460B46B3
:10336000384641460AF0BFFB9FED310B80460E46C2
:1033700057EC105B2A463B4606F086F948B14046BA
:1033800031462A463B460AF0AEFB06F0F5FDC9F889
:10339000340076207121002208F0EAFF89F800400D
:1033A000ADE600BF00BF00BF000000000000B03F5E
:1033B0000000000000804840000000000000003FC6
:1033C000FCA9F1D24D62403F55C1A8A44E40633FD5
:1033D0000000000000007440000000000000F03F0A
:1033E000000000000000503F0000000000003840D6
:1033F0000000000000001040FCA9F1D24D62603FC7
:1034000000000000000039C03333333333330B4046
:1034100000000000000000000000000000E06F401D
:1034200000000000000014400000000000F0944084
:103430000000000000408F40AC04002071C3000079
:1034400020BF020048DE0000C8DE0000F0B597B0E3
:103450000EAC20460AF0C8F94FF4E1302146149032
:103460000220ADF83800002002F03EFBA74FA94E25
:10347000B861A748B047A84C2046B047A748B04716
:10348000A748B0472046B0470BAC20460AF01CF8CE
:10349000204601210AF0EAF9204601210AF033FB17
:1034A000A04D214605F1200008F0ACFE05F14C00CE
:1034B000214608F0A7FE20460AF023FB9A48B047B1
:1034C00008F06CFE132001210AF048F81C200121AD
:1034D0000AF044F8954C2046B0479548B04704F0B0
:1034E0008DFF2046B0479348B04706F02BFF20469B
:1034F000B0479148B047914809F022FD904D002116
:103500000022284609F078FA05F11C00002100226B
:1035100009F072FA2046B0478A48B04705F09AF899
:1035200072206421592208F03FF838788649085CF7
:1035300009F0B0FE2046B0478448B047022004F0AE
:10354000DBFC38B1FA2004219622322305F0FAFB85
:10355000804800E07E48B0477F48B047FFF760FDF5
:103560007F4C00287D4D204618BF2846B0477D4837
:10357000B04705F02DFD6D48B0477B48B04701F0DE
:103580008FF9002818BF2C462046B0477748B0472F
:1035900001F06EFFA8B17648B0470AF043F9002168
:1035A000744A8DF8061000F00F010009515C105CA0
:1035B0008DF805108DF8040001A8B0476E48B0479B
:1035C00002E0674809F0F4FA6C4809F0F1FA6C4837
:1035D00009F0B8FB554809F0EBFA6A4800210024CD
:1035E00007F0E0FA6848002109F041F86748002137
:1035F00006F01AFC0DF12A050DF129068DF82B4075
:103600008DF82A408DF829400DF12B040AF065F958
:103610000AF063F94A4C204609F048FD0028FAD028
:103620005B4809F0C5FA01AC0AF01FFA0AF0EAF9A2
:103630000AF067F9042069460AF0E0F9554A09A83A
:103640000AF0D0F918B1544809F0B2FAFEE701AC1B
:1036500020460AF054FA514809F0AAFA0AF005FA8D
:103660000AF0D0F90AF04DF9032069460AF0C6F9CC
:103670004B4A08A80AF0B6F918B14A4809F098FA76
:10368000FEE701AC20460AF03AFA474809F090FA02
:103690000AF0EBF92046012101250AF0E1F80AF0D1
:1036A00030F9022069460AF0A9F9404A07A80AF051
:1036B00099F918B13E4809F07BFAFEE701AC2046C3
:1036C0000AF01DFA3B4809F073FA0AF0CEF90AF045
:1036D00099F90AF016F969462046009509F0EAFEC4
:1036E000354A06A80AF07EF918B1344809F060FAA4
:1036F000FEE701A80AF003FA314809F059FA314807
:1037000009F056FA002017B0F0BD00BF20040020D9
:10371000A0EF0000B1CB000093E10000CAE0000080
:1037200050E10000F0010020F8E300002BEF000062
:1037300041E00000A8E60000CBE4000034A800202F
:10374000680200201AE30000B4EE0000ABE70000BE
:103750002FEE000098EB0000C2E5000080EE0000B4
:1037600038EC000000E70000F2E50000FFE4000094
:1037700073EC000005EC0000D8EF000055E30000FA
:1037800019D8000058B40020509A002078BF0020BB
:103790002EE40000114B000090E80000C2E300009E
:1037A000197E00006CE800008CE30000D57F00006B
:1037B00021E60000DCE20000410000007BE60000A2
:1037C0009CE2000061E500002DE9F0412DED0C7B4D
:1037D0004FF00008002800F06181B34E04463078B5
:1037E000002800F05B8100200821CDE90000684638
:1037F00006F030FC8046002800F050819DF805005E
:103800009DF80410B1EE002A41EA00220007A74902
:1038100013466FF3DF2348BF42EA01039DF800001F
:103820009DF8012000EE103A9DF8037096ED019A84
:1038300096ED028AB8EEC01A96ED030A9DF80230A2
:1038400040EA02251207284611EE020A6FF3DF2034
:1038500048BF45EA010001EE100A43EA0720B8EE2E
:10386000C11A3B07024611EE029A6FF3DF2248BFEE
:1038700040EA010201EE102A9DF80600B8EEC11AD6
:103880009DF8072011EE028A40EA0223120718462B
:1038900028EE081A6FF3DF2009EE091A48BF43EA41
:1038A0000100B17800EE001AB1EEC12A9FED801A36
:1038B00082EE012A81B396ED054A96ED065A96ED01
:1038C000073A39EE446A38EE457AB0EEC66A09F036
:1038D000D3FEC8BFB0EE476A30EE437A09F0CCFEA3
:1038E000C8BFB0EE476AB3EE007AB4EE476AF1EEB5
:1038F00010FA1AD5BFEE006A9FED6E7A32EE066AB4
:10390000B0EEC66AB4EE476AF1EE10FA0DD59FED3F
:103910006C6A9FED6C7A0CE0012186ED059A86EDCC
:10392000068A86ED070AB17015E09FED636A9FED88
:10393000637A28EE068A29EE069A20EE060A05EE3C
:10394000078A04EE079A03EE070A86ED068A86EDDB
:10395000059A86ED070A4F389FED5B4A9FED5B5A4B
:1039600000B203EE100AB8EEC33A03EE045AB0EE0A
:10397000C83A9FED574A84ED065AB2EE085AB4EEA3
:10398000453AF1EE10FA48BFB0EE448ABDEEC83AAF
:1039900013EE100AB0EEC93AB4EE453AE080B3EE49
:1039A000005AF1EE10FA48BFB0EE449ABDEEC93AA3
:1039B000B5EE408AB0EE404A13EE100AB0EE403A3F
:1039C000F1EE10FAB5EE409AA08008BFB0EE413A91
:1039D000F1EE10FA08BFB0EE434A9FED3E3A30EEEA
:1039E000033AB0EEC33AB4EE453AF1EE10FA48BFEE
:1039F000B0EE440ABDEEC03A9FED2E4A13EE100A17
:103A0000BFEE003A32EE033A2081B0EEC33AB4EE94
:103A1000443AF1EE10FA09DA28EE082A09EE092AEA
:103A200000EE002AB1EEC22A82EE012A20EE00AAA0
:103A300084ED032AB0EE4A0A08EE080AF1EEC00A45
:103A4000B0EE490A03F0B2FD09EE09AA9FED22BAD1
:103A500020EE0BCAB0EE480AF1EECA0A84ED04CAA1
:103A600003F0A4FD9FED1D1A20EE0B0AB0EECC2A48
:103A700084ED050AB0EEC00AB4EE412AF1EE10FA68
:103A8000B4EE410A44BF00202061F1EE10FA44BFB9
:103A9000002060610B2006F0B7FD20774046BDECAA
:103AA0000C7BBDE8F08100BFE404002000F0FFFFC4
:103AB00000007A448FC2753D6666E63ECDCC0C3F71
:103AC000295C8F3D7B146E3FB81E853D0000C441CC
:103AD0000000000000007AC4E02E6542CDCC8C3F8F
:103AE0002DE9F84F2DED181B229D0C4601460020B4
:103AF000002D00F04081239E002E00F03C810846FE
:103B00000792099308F0CAFD9FEDA10B53EC102B0F
:103B10000692089309F0E7FF95ED120B02460B465B
:103B2000CDE90A3251EC100B09F0DFFF05462046C3
:103B30000E4608F0B3FD04460F462846314622469D
:103B40003B4601F0BEFB9FED940B82468B4655EC45
:103B5000100B9FED930BEE0F0D90504658EC109B01
:103B600066F3DF714A46434605F067FD002840F0E2
:103B7000018122984A46434690ED080B51EC100B08
:103B8000059166F3DF71049005F057FD002840F0C1
:103B9000F1802298DDE90A3290ED140B51EC100B04
:103BA00009F0A3FF22463B4601F08BFB0F4666F36C
:103BB000DF714A464346044605F03FFD002840F0C9
:103BC000D980DDE90A1052465B460C9609F08BFF5E
:103BD0009FED750B5AEC10BB5A46534609F085FF12
:103BE000DDF88880039798ED0A0B98ED0CBB98EDF3
:103BF0000E9B98ED108B53EC102B01F05DFBDDE973
:103C0000042309F070FF9FED6AAB53EC1A2B01F00F
:103C100058FB9FED690B0591814653EC102B01F089
:103C200050FB02460B46274604460E4609F05DFF50
:103C300009F092FD09F090FDCDE90A100998079965
:103C4000084408F02BFD9FED5E0B09F0B7FE069AC5
:103C5000089B09F048FF039B3A4609F044FF5A4687
:103C6000534609F042FF98ED160BCDE9081051ECD0
:103C70001B0B09F0A3FE9FED540BCDE9061005992F
:103C8000484653EC102BCDE9043201F01AFB9FEDAE
:103C9000500B9FED51BB9FED52CBCDE9021051EC83
:103CA000180B4FF0030BCDE9001059EC108BBBF152
:103CB000000F65D0DDE9043251EC1A0B01F001FB75
:103CC00002460B46DDE9001009F00FFF42464B4665
:103CD00001F0F7FADDE9023204468A4651EC190B8D
:103CE00009F003FF2246534601F0EBFA02460B4669
:103CF000DDE9061009F0F9FE04460C980E4653EC77
:103D00001B2B60F3DF71204605F0BEFC0746DDE9A2
:103D100008102246334609F0E6FE02460B46002F05
:103D200008BF2B460D9C08BF2246DDE90A1001F0B2
:103D3000C8FA22462B4641EC180B05F0A5FCB0B1A1
:103D4000B0EE480AF0EE680A02F002F902F000F95B
:103D500053EC1C2B51EC100B01F0B3FA229A92EDAC
:103D6000180B53EC102B01F0A7FA41EC1A0BABF136
:103D7000010B9CE70020BDEC181B01B0BDE8F08FE3
:103D800051EC1A0B06F0F8F8239908600120F2E7CD
:103D900000000000000028400000000000000000BB
:103DA0008DEDB5A0F7C6B03E000000000000204138
:103DB00000000000000039406666666666127140C9
:103DC000000000000000E03F00000000000039C0DB
:103DD000000000000000F03F11EA2D819997713D2D
:103DE00066666666661271C0AC490246002818BF56
:103DF000012009780840012840F04F812DE9F84F53
:103E00002DED0C3BCDE902022C2006F0FDFB0190CC
:103E10002D2006F0F9FBA24C00902D200021A04798
:103E20002C208321A0472D202221A0474CF2503086
:103E300008F012FD102000264FF000080025002891
:103E40003FD0CDE9040600200621ADF824000890FB
:103E500008A806F0FFF82E469DF820A09DF821B096
:103E60009DF822409DF823709DF825909DF82450E0
:103E700042F2107008F0F0FC45EA09205FEA09728E
:103E8000884B01466FF3DF2148BF40EA030144EA53
:103E90000720751801463A076FF3DF2148BF40EA53
:103EA00003014AEA0B2088445FEA0B7201466FF374
:103EB000DF2148BF40EA0301DDE904060E44013872
:103EC000BDE700EE105A01EE108A02EE106A9FED77
:103ED000768A0398012109F04AF980ED002A80EDE5
:103EE000011A80ED020A2E2006F022FF4CF250301B
:103EF00008F0B2FC10204FF0000B00240026002830
:103F000042D0CDE9040B00200621ADF81C0006903C
:103F100006A806F09FF8B34626469DF818709DF84F
:103F200019509DF81A809DF81B909DF81DA09DF8D2
:103F30001C4042F2107008F08FFC44EA0A205FEA4D
:103F40000A72584B344601466FF3DF2148BF40EAFE
:103F5000030148EA09200BEB01065FEA09720146FA
:103F60006FF3DF2148BF40EA030147EA05200C4414
:103F70002A0701466FF3DF2148BF40EA0301DDE96C
:103F8000040B8B440138BAE701EE104A00EE106AC8
:103F900002EE10BA039D2E200021002409F0E7F85C
:103FA00085ED032A85ED041A85ED050A06F0C0FEAD
:103FB00095ED000A95ED033A95ED022A95ED055A27
:103FC00095ED011A95ED044A0020002100220023FE
:103FD00033EE400A9FED353A35EE422A34EE411A6F
:103FE0009FED344A82EE032A80EE030A81EE031A23
:103FF0009FED2F3AB4EE432A85ED082A85ED060A97
:1040000085ED071AF1EE10FAB4EE442A9FED2A2A44
:1040100098BF0120F1EE10FAA8BF0121B4EE421AB8
:104020009FED262A08400021F1EE10FA85F82600BF
:10403000A8BF0121B4EE421AF1EE10FA98BF012296
:10404000B4EE430A11400022F1EE10FAB4EE440A35
:1040500085F8251098BF0122F1EE10FAA8BF0123C0
:104060001A4085F8242018BF002900D0044685F89E
:1040700027400B4C2D200021A04701992C20A04760
:1040800000992D20A04744F6206008F0E5FB029837
:10409000BDEC0C3B01B0BDE8F04F7047E4040020DC
:1040A00031AD000000F0FFFF0000803D00007A43CA
:1040B00033333340CDCC4C3E333333C0CDCC4CBE08
:1040C0002DE9FE4F074608680024B0B1D7E9018A00
:1040D0000E4609F01DFB8146D8F8E800082888BF85
:1040E0000124B068204202D17068204208D0032029
:1040F0003074484609F0A4FC00242046BDE8FE8F39
:10410000D8F8C01069B198F8F8100029EFD006214E
:104110003174D8F8C410C8F8C4604E6198F8FC1027
:104120000DE000210522C8E93066C8E93411C8E96C
:10413000361198F8FC10002908BF012232740022C1
:104140000129726109D102204FF4E02188F8FC00B6
:1041500098F8FB0008F06EF97068894901388842C8
:1041600005D8042008F07EF9062008F07BF902202B
:1041700008F078F998F8F80040B9DAF83C003168AE
:10418000814203D298F8FC0000286CD0D8E93610A0
:1041900009B118B900E028B309F008FCDAF800000A
:1041A000416941F001014161484609F049FC98F834
:1041B000F80008B10124A0E708F16C05D8F8EC106C
:1041C000284609F0D0FB0028F4D0D8F8C00003211D
:1041D0000174384605F012F928460021002409F040
:1041E000C2FB8AE79AF8040001F0B0FE654CDAF8E9
:1041F00010100222206991FAA1F1B1FA81F143680D
:10420000D8F8CC004068006898472069DAF81410A4
:1042100002224368D8F8CC0091FAA1F1B1FA81F1F9
:104220004068006898479AF8040008F019FE9AF868
:10423000040009F044FC09F0B9FB0020C8F8E000D4
:10424000D8F8C0000068B0F5806F01D909F0AEFB66
:1042500098F8FE000028A1D1DAF80000416841F08A
:10426000020141609AE798F8F90020B1D8F8EC0013
:1042700001307FF48BAF484609F0E2FBB2683AB1F7
:10428000D8F8E8000221092838BF0121009103E095
:1042900008F1F40200200090746834B1D8F8E80006
:1042A0000227092838BF012702E008F1F604002799
:1042B000DAF80000334D416841F002014160D6F860
:1042C00000B0D946BBF1000F40D0D8F8E800019209
:1042D00009284FF0010011D22A68B9F1000F1FD050
:1042E000C0071DD02178DAF80000926890470028B6
:1042F0001EBF3C44A9F101090120EDE72A68B9F18C
:10430000000F16D0C00714D02188DAF80000926898
:10431000904700281EBF3C44A9F101090120EDE7A8
:10432000DAF80000D26802A99047DDE90120107098
:1043300007E0DAF80000D26802A99047DDE9012021
:1043400010800098ABF1010B0244BBE7D8F8F000F5
:10435000DAF80010CA680240102802D1002AF9D108
:1043600001E0002AF6D0706808F0FEFCD8F8C01012
:104370000020C8F8C400C8F8C00008741AE700BFDD
:10438000FEFFFF0FC40100102DE9F04F85B0044679
:104390008A46002B1846214618BF0120002C18BF62
:1043A000012108400E9900290D4618BF012528401B
:1043B000012840F02D81049098892588277FA84204
:1043C00005D26588A8423D4698BF002500E001253A
:1043D000BD4203D10025A777657711E0A67FB542DE
:1043E0000BD1667F94F804C001366677F6B2664555
:1043F00006D3002625772F4601E00126A5776677AC
:10440000012F12D16425B0FBF5F5EEB242F20F7523
:10441000A84288BF642693ED020A94ED021A03961F
:1044200009F051FA16D501201AE001254FF0000ECF
:10443000A4F81F50BAF1000F84F821E093ED020AAE
:104440002FD09AF834024FF04009002660F07F0E1A
:1044500000202AE094ED031A09F035FA02DB00206F
:1044600084F8200094ED041A09F02DFA01DD0120F2
:1044700005E094ED051A09F026FA02D8002084F828
:10448000210094F82050012D03D102204FF0020C9E
:1044900018E094F82100012809D105204FF0050CFF
:1044A00010E0002001264FF0000903902BE094ED6E
:1044B000061A09F008FAD9BF03204FF0030C0420B4
:1044C0004FF0040CE077BAFA8AF04609BAF1000F0F
:1044D0000BD09AF834E25FEA8E600AD40EF0030043
:1044E0001EF00C0F18BF043006E04FF0000E002045
:1044F00002E06EF07F0E402040EA051094F8215053
:1045000040EA45196546A7F1010CDAB102F6985068
:1045100090ED033A90ED022A90ED001ABDEEC33AF9
:10452000BDEEC22A13EE100A019012EE100A02909C
:1045300092F8AC0D01280ED1032049F008094FF084
:1045400001080CE000209FED341A4FF000080290A3
:10455000CDE9000004E092F8A80D4FF000080090AB
:104560005A7DBCFA8CF0012A01D19A7D0AB909F171
:1045700080094FEA501C18680860608C013019F0FF
:104580003F026084888018BF012236B100274FF4B3
:1045900048764B204FF0000B07E0BAF830B2BAF87B
:1045A0003272BAF82C629AF82E02CD76039D81F809
:1045B0002A2081ED070A81F819C081F8188081ED61
:1045C000041A81F80EE0A1F80CB04F810E818871B9
:1045D000A1F828902C228D76019DCD82029D8D829E
:1045E000009DCD735868086204F1280093ED040A19
:1045F000BCEEC00A81ED090A09F08AFA606D01304B
:1046000060655FEA8960049802D0A16D0131A165FF
:1046100005B0BDE8F08F00BF00000000002800F0EA
:10462000208170B52DED108B0D46002900F015810D
:104630001446002A00F0118106462046442108F065
:1046400078FF9FED921AB01D9FED910A2946024610
:10465000B0EE412AB0EE413AB0EE414A71B3B2F940
:10466000023005EE103AB2F90030B8EEC55A06EE47
:10467000103A32F9023CB8EEC66A07EE103A931DC2
:10468000D3ED000AB8EEC77AF5EE400AF1EE10FA63
:1046900009D866EE060A47EE070A45EE050AF1EE6E
:1046A000E00AC0EE800A31EE201A32EE052A33EE1F
:1046B000063A34EE074A01392032CFE705EE105AA8
:1046C000B8EE45EA82EE0E8A81EE0E1A83EE0E9A5D
:1046D00084EE0EDA9FED6D2AB0EE423AB0EE424A19
:1046E000B0EE42FAF0EE428AB0EE425A84ED00DAC1
:1046F00084ED019A84ED028A84ED031A002D52D0D4
:10470000B0F9021006EE101AB0F90010B8EEC66A41
:1047100007EE101A30F9021CB8EEC77A00EE901AB4
:10472000811DD1ED001AF8EEE00AF5EE401AF1EE27
:1047300010FA09D867EE071A40EEA01A46EE061ADC
:10474000F1EEE11AC1EE801A77EE492A70EECD4AF9
:10475000B0EEC77AF0EEE00A71EEC11A013D2030EA
:10476000F0EEE23AF0EEE45A30EE877A01EEA14A3A
:1047700002EEA22A04EEA45A75EEA33A76EE485A47
:10478000B0EEC66AF0EEE56A37EE066A05EEA53AC7
:1047900086EE006A73EEA63AC3EE803A78EE868A19
:1047A0003FEE23FAAAE784EE0E1A82EE0ECA85EED9
:1047B0000E0A83EE0EBA9FED373A3CEE002A84EDE6
:1047C000071AB1EEC01A84ED040A84ED05CA84ED1F
:1047D00006BA3BEE022A82EE03AAB4EE411AF1EECB
:1047E00010FA84ED08AA3DD6B1EECC0A84ED091A80
:1047F00009F0A0F83BD684ED0A0AB1EECB0A09F025
:1048000099F839D684ED0B0AB1EECA0A09F092F88C
:1048100037D684ED0C0A28EE080A88EE8E1A8FEE41
:104820000E2A09EE090AF1EEC00AB1EE4D0A84ED36
:104830000D2A84ED0E1A02F0B9FE9FED17AAF0EED4
:10484000480A20EE0A0A84ED0F0AB0EE490A02F087
:10485000ADFE20EE0A0A84ED100ABDEC108BBDE817
:104860007040704704F09EFCB0EE401ABCE7B0EE1A
:104870004C0A04F097FCBEE7B0EE4B0A04F092FC41
:10488000C0E7B0EE4A0A04F08DFCC2E70000000069
:1048900000007A4400247449E02E654209F000B912
:1048A0002DE9FF47012008F0DDFC05F04BFDDFF8A6
:1048B00050823A2042F20B4108F1020206F0D8FB86
:1048C0008146002800F0F38000240DF10E023A200A
:1048D00043F20101ADF80E4006F0CAFB78B1BDF815
:1048E0000E10012060F342014FF6FB7001EA000256
:1048F000ADF80E103A2043F2010107F019F944F621
:10490000206007F0A9FF0294ADF8064002AD7D4C8F
:1049100042F20C402946A04709F0B0F89FED680B21
:1049200056EC107B09F03EF841EC100BDFF8D8A1F3
:1049300042F20E4029468AED000BA04709F09EF88E
:104940009FED610B09F03AF841EC100B42F2104078
:1049500029468AED020BA04709F090F89FED5C0B09
:1049600009F02CF841EC100B42F2124029468AED76
:10497000040BA04709F082F809F014F841EC100B81
:1049800042F2244029468AED060BA04709F076F84A
:104990009FED510B09F012F841EC100B42F226404A
:1049A00029468AED080BA04709F068F808F0FAFFDD
:1049B00041EC100B42F2284029468AED0A0BA04731
:1049C00009F05CF89FED460B08F0F8FF41EC100B86
:1049D00042F22A4029468AED0C0BA04709F04EF816
:1049E0009FED410B56EC107B08F0DCFF41EC100B07
:1049F00042F22C4029468AED0E0BA04709F03EF802
:104A000008F0D0FF41EC100B0DF106053F4C3A20A9
:104A100042F22E412A468AED100BA04708F0D2FF41
:104A20009FED330B56EC107B08F0BCFF41EC100BF4
:104A30003A2042F22F412A468AED120BA04708F095
:104A4000C1FF08F0AFFF41EC100B3A2042F2814168
:104A50002A468AED140BA04708F0B4FF9FED260B01
:104A600008F0ACFF41EC100B3A2042F282412A469A
:104A70008AED160BA04708F0A5FF08F093FF41EC64
:104A8000100B0DF10E023A2043F201018AED180BD2
:104A9000A04750B1BDF80E0043F2010140F00602FC
:104AA0003A20ADF80E2007F043F8012000E0002086
:104AB00088F80000484604B0BDE8F08700BF00BF9A
:104AC000000000000000703F000000000000B03E49
:104AD000000000000000303D000000000000F03E3B
:104AE000000000000000103D000000000000B03D8C
:104AF000000000000000503F000000000000103FD8
:104B00009005002021BC0000B0BE002071B0000064
:104B10008AB0814C814E4FF0000804AD00204FF068
:104B2000280B4FF00009039004F13807204608F0E5
:104B3000B1FD70780028F9D1284602F09FFA0028CC
:104B4000F4D009F10409B9FBFBF0CDF8109000EBAB
:104B50008000A9EBC00018B904F11C0008F00DFF9B
:104B60006F48294605F07AF808F062FE042813D150
:104B70009DF81400C04310F0060F06D0079869494D
:104B8000884202DC6849884206DC039880B2F62835
:104B900028BFF620043003E003990120D1FA50F039
:104BA0001FFA80FA0390614800234A46BAF1640F65
:104BB00022BFA6F84A80A6F81080A4F84280009789
:104BC0000799BAF1630F88BF0123FDF7A7FFBAF178
:104BD000630F02D808B10120B07008F029FEBAF1C5
:104BE000630FA3D80428A1D1DDE90601CA1710EB91
:104BF000610142EBE0700B02000240EA116296F89C
:104C00003800E0B3D6F83CE006F1280AD6F8348044
:104C10000EF101000290F0639AE80304B3EB000B7D
:104C200062EB010C4FEADB1747EA4C67C0194FEA09
:104C3000EC1706F1280C7941B3EB0A0362EB08028A
:104C40005B0A43EAC253521213EB0A03ACE80B00AF
:104C500042EB0802C01A72639141000A40EA016205
:104C600096F8390098B112F1B50F4FF000084FF0E7
:104C7000280B04F13807D8BF86F8398056E70120A1
:104C8000C6E90A32C6E90C3286F838004EE7B52A82
:104C90004FF000084FF0280B04F13807FFF646AF3D
:104CA000012086F83900AEF2F310B0F5FA6F2FD874
:104CB00096F8480096F84910029B06EB4002013036
:104CC00000F003000329A2F8403006F1400286F804
:104CD00048009CBF013186F8491000200B4623B1E3
:104CE00032F8027B013B3844F9E7884204F1380787
:104CF0000ED3B0FBF1F040F2FD72A0F2C711914269
:104D000006D880B243F69821B1FBF0F0A6F84A002D
:104D1000C6F83C800AE700BF68020020200400209B
:104D200034A8002000093D00FFF6C2FF58B400205F
:104D30002DE9FC47D0E900588246D8F80000D0F8A9
:104D4000409019F4F06FC0F8449035D05FEA4951B3
:104D500017D5D5E91401411A504607F0CDFCD8F813
:104D600000008169C90605D401688DF807109DF817
:104D70000710F6E7296801312960A97B09B90121EB
:104D8000A973696C40684FF0004600F00F0404EA14
:104D90000100B0FA80F126FA01F1014005D02F6C34
:104DA0001FB12A68AB6C5046B847B4FA84F026FAB3
:104DB00000F020404042A863D5F85801D8F83C10D4
:104DC00009F0400740680068D0F8042511403943D5
:104DD00047D0DAE90064504605F080FAD7B1F07C9C
:104DE00090B90BE0316F69B10068B16EB26F885451
:104DF000306FB16F01310138B16730672068816968
:104E0000C906EFD5F07C28B1D6E91401411A504605
:104E100007F072FC96F86400E0B13079022819D0EE
:104E200017B1B179012901D0316F99B90024B16E60
:104E30000128346786F86440B46607D1B36CB26F5A
:104E4000D6F8CC6050460094B04703E006F17C00F1
:104E500008F043FE504602F0A3FDD5F85801406823
:104E6000006800F204500068D8F83810084228D0D2
:104E7000D5F8F80028B3DAE90076504604F012FCC1
:104E8000504603F087FB7879012812D1D7F8F40057
:104E900078B997F8E80060B1002087F8E800BB6CAB
:104EA000D7F8EC10D7F8FC20D7F8504100905046C6
:104EB000A047D7F8F80020B93068816B41F4006151
:104EC00081635FEA095023D5D8F80000816909079A
:104ED000FCD4016B21F480710163297A91B1002027
:104EE000287295F84400800606D52C6C24B1AB6C72
:104EF000504620210022A0475046012107F0D8FC4F
:104F0000D8F80000816B21F400618163687908B1F1
:104F1000BDE8FC8705F58070BDE8FC4708F0DDBD05
:104F20002DE9FE4FD0F80080994614460E46824681
:104F300013B10020C9F8000008F0EAFB834698F896
:104F4000070038B198F8640048B108F094FD6FF09C
:104F50000805B4E008F08FFD6FF00E05AFE0002CFF
:104F60004AD0504605F0BAF900200121C8E91A6478
:104F7000C8F87040C8F87800C8F8380088F80C0005
:104F800088F80A00504688F8641006F0C1FF5046C1
:104F900002F006FD08F14C0402AD2046294607F058
:104FA0002BFFD8F87810D8F870707218B84238BF54
:104FB0000746029910463A4608F0AAFD20463946AF
:104FC00007F010FBD8F87000D8F87810C21B3944ED
:104FD000012FC8F87020C8F8781001DBB842DCD186
:104FE00098F8041002290CD10020C8F8680088F84D
:104FF0006400C8F870001CE008F03DFD6FF0090582
:105000005DE0B84215D10020D8F86860012988F821
:105010006400C8F868000CD10124584688F8104094
:1050200008F00EFD98F80F0000284BD008F070FB38
:10503000834608F020FD98F8040008B100252FE011
:10504000D8F8701008F17C0031B30C9908F08BFC93
:1050500010B1012088F80C0008F05AFB04465046B5
:1050600005F03CF90020C8F86800C8F8700088F81E
:105070006400504602F094FC98F80A6098F80C50CE
:10508000204608F0DDFC002D18BF6FF00C05002E47
:1050900018BF6FF00D0503E00021002508F063FC48
:1050A00008F036FBB9F1000F07D098F80410012979
:1050B0001CBFD8F87810C9F8001008F0C1FC2846C9
:1050C000BDE8FE8F002598F810000028AED008F04B
:1050D0001FFBA8F80F4008F0B3FCD8F84830D8F808
:1050E0007820D8F8CC70504631460095B84788F8FB
:1050F0000F50E8E72DE9FE4FD0E90198D8F80010ED
:10510000CA690A62D20740F0AF80D8E904014FF0C3
:10511000000A4FF0000B0843D9F8CC104968096821
:10512000C1F8040509F13000029009F1C8000190AE
:10513000BBF1010F00F2A180D9F8C000002800F0F7
:105140009C80D9F8E010DC22D9F8CC70202300290B
:1051500008BFD82208BF182358F803404FF0240393
:1051600008BF1C237F68D8F8146058F803303F68E4
:10517000D7F80455354211D0A46864070ED10468ED
:10518000D9F8D050A54209D144693CB9D8F80040BB
:10519000656A25F002056562C7F804659B685B07D0
:1051A00002D00BF1010BC3E759F80230002BF8D005
:1051B00049F802A0B1FA81F1D9E9344249090068FD
:1051C00049011A448442C9F8D420C9F8E01028BF24
:1051D00082420CD24846414600F002FE99F8FE0099
:1051E0000028DED008F002F918BF8862D9E708F07D
:1051F0008FFAD9F8C820D9F8C010019B81F810A007
:1052000022B113465269002AFBD114331960C9F840
:10521000D4A04A69C1F814A0D9F8E01000294FF0D1
:10522000DC01C9F8C02008BFD82159F80110C9F81D
:10523000D01008F005FCD9F8C00058B148464146E6
:1052400000F0CEFD99F8FE0050B108F0CFF818BF7D
:10525000886205E0D8F80000416A21F0030141624C
:10526000029808F03EFC9CE7D9F8C0203AB103212F
:105270001174BDE8FE4F04F0C1B8BDE8FE8F486868
:1052800020F002004860486A20F003004862D8E934
:1052900004021043D9F8CC2052681268D062C2F8D8
:1052A0000405486920F00100486101200862404679
:1052B000BDE8FE4F07F0A3BC2DE9FC4F83F000438F
:1052C00001E02DE9FC4F1F03FF0847EAD2574FEAE0
:1052D00042284FEA43095FEA595906D147EA080ACA
:1052E0001CBF00210020BDE8FC8F57F000575FF481
:1052F000E06E1EF1FF0EF14505D14FF00000190DD3
:105300000905BDE8FC8F002B05D55FF0000AD8F138
:1053100000086AEB07070C03E40844EAD0544FEA9C
:1053200040254FEA4106760D08D144EA050A19BF27
:105330000021002019461046BDE8FC8F44F00054BF
:10534000764504D10020090D0905BDE8FC8F002930
:1053500004D55FF0000A6D426AEB0404B6EB090E57
:1053600008D5A2463C465746AA464546D046CEF109
:10537000000E4E46BEF1360F5CBF4FF0000B23E02F
:10538000BEF1000F04BF4FF0000B1AE0CEF1390A56
:10539000BAF120092EBF08FA09FB07FA0AFB4BEA0B
:1053A000080BDEF1200A07FA0AFA38BFBA4647FAB4
:1053B0000EF72DBF28FA0EF8AEF1200E4AFA0EF8BD
:1053C000D04415EB08057C4154EA050A02BF0021D0
:1053D0000020BDE8FC8F002C58BF4FF0000A06D516
:1053E0005FF0010A5FF0000E6D426EEB0404A6F15F
:1053F00001066D006441FAD515F4806E11D005F4F4
:1054000080794BEA090B15F5806554F1000428BF3B
:10541000761C0BD205F400795BEA090B08BF25F472
:10542000006525F4E0656D0044EB0404B61CDEBFA6
:1054300000210020BDE8FC8F5FF4E06E1EF1FF0E3E
:1054400076450AD34FF0000013F00043FF21C90056
:10545000C91D09051943BDE8FC8F270547EA15302A
:10546000210B41EA065141EACA71BDE8FC8F704741
:105470002DE9F04F8FB063490120087007F0E6FE78
:1054800002F0BCFF604C0B200121A0471820002136
:105490000027A0475D485E4DA8470B2007F0E2FFBC
:1054A000012007F0E9FF16200021A04742F210700A
:1054B000A84716200121A0475648A847112006F00A
:1054C0000DF84FF47A70A847112006F007F84FF452
:1054D0007A70A84701A84FF005094FF0030A4FF072
:1054E000000800F10C040BA8851CB9F1000F35D0A1
:1054F000012004F0E5FD38B32020AF81AF606F607C
:105500002F60CDE90977CDE90777C4E90077A76077
:10551000ADF82C0007A803900BA8CDE901A001A8C5
:1055200007F0ACFE06469DF81EB0012005F094FA87
:10553000322007F091F9002E18BFD84604D0A8F108
:105540000100C0B2FE280ED3112005F0C7FF4FF4B2
:10555000FA6007F081F9A9F10109C6E7A8F1010095
:10556000C0B2FE2846D2DFF89C902B4E01250220C7
:10557000E02189F8015089F80280B0472348244C83
:10558000A04701200121B04703201021B04704208B
:105590004021B047052000214FF00008B047062009
:1055A0002C21B04707200C21B04709200021B0472B
:1055B0000A208721B0471820012107F0CFFF44F6C9
:1055C0002060A047154F1120B8474FF47A70A047CC
:1055D0001A20B8471248A0471120B8474FF47A70F4
:1055E000A0470A200721B047042089F8008001F075
:1055F00055FE03E0034800250570457028460FB0AE
:10560000BDE8F08FC80500205DD50000A086010030
:1056100059C8000040420F00E3AC0000DDB40000B8
:1056200020A107002DE9F84F83464FEA8209DDF8F3
:1056300028C05FEA094008BF4FF448799BF81A5226
:105640000BF20222032622F81590BCF1000F18BFBE
:105650000226DBE96570F14027FA06F43944091B9C
:105660006C1C0C25B4FBF5F5CBF89411091A05EB6D
:105670004505A4EB85048BF81A4288BF00EB910026
:1056800041080B9CCBE967019BF81B120B299CBFBF
:1056900001318BF81B120E46002526B132F8020BA1
:1056A000013E0544F9E7B5FBF1F09BF8FBA10BF5D2
:1056B000DD7881B2ABF8FE018808ABF8FC019BF8FD
:1056C000FA0128F81090013000F01F07BAF1200FFE
:1056D0008BF8FA713CBF0AF1010A8BF8FBA101209B
:1056E000A4F8089063605FFA8AF520704EF6602097
:1056F000B0FBF1F1E1729BF8201221F050016CF344
:10570000861121748BF820121FFA89F100EB5100E9
:10571000B0FBF1F0C0B21E28014698BF1E21DC2864
:1057200088BF6FF023010020A172022D01D2A08159
:105730003DE02946424621B132F8023B0139184486
:10574000F9E7B0FBF5F200202B464646002133B1C5
:1057500036F8024B013BA41AC4FB0401F7E72A46C2
:105760000023002607F0C4FE07F0B7F80B996A1E65
:105770000025D3B28881A7EB0A000021ECB29C423D
:105780000ED22C18013504F01F07013404F01F0459
:1057900038F8177038F81440E41BC4FB0461EDE7D7
:1057A0003046002307F0A4FE07F097F80B9CE08139
:1057B0000020ABF80092CBF8B001CBF8A401BDE813
:1057C000F88F7047B0B560480021604C016094F8D4
:1057D0003A01032812D002282ED0012840F0AF80D1
:1057E00094F8400104F0C6F9002084F840015948BB
:1057F000817B0220002908BF06209EE054480168F2
:10580000B1F5C060C4F82C01B8BFC1F5C060D4F8D0
:105810001011002900D5494288422ADDD4F814012C
:1058200007F036FAD4F8180107F044FAD4F8280142
:1058300007F064FA01201DE04548056807F0AEFE58
:10584000C4F8140107F0B2FEC4F8180107F0B6FE60
:10585000B5F5C061C4F82801C4F8101109D094F856
:1058600030215AB1D4F81401D4F82021D4F82C11E5
:105870000AE0002084F8300106205EE0C4F824012C
:10588000D4E94502C4F82C110223C4F81C010029F4
:1058900001EB410148BF6FF001031944042391FB60
:1058A000F3F111440029C4F820110FDD1F2931D371
:1058B000D4F824212AB33E28A8BF3E20013029294C
:1058C000A8BF2921C4F81C010B3909E0D4F8242110
:1058D000032A09D111F1140FD8BF6FF0130115314C
:1058E000C4F82011002113E00128D8BF012001389D
:1058F00011F10A0FD8BF6FF00901C4F81C010B3178
:1059000003E03329A8BF33211539C4F8201103213E
:10591000C4F8241107F0BCF9012007F0DDF9D4F830
:10592000200107F0C7F9D4F8240107F0E7F9A5F240
:10593000FF510420032938BF0620C4F83C01BDE80C
:10594000B04001F025BC00BF3C500C4000000020DE
:1059500008400C4048EB00002DE9FF47D0E9015911
:105960000E46044607F0D4FE95F8FD1021B9716982
:10597000102901D8032906D808F062F8002420462F
:1059800004B0BDE8F087012785F8FD7008F058F8ED
:1059900000204E4A85F8FC00C5E93000C5F8C80073
:1059A00085F8FE003069C5F8E4007069C5F8E800C4
:1059B000307B85F8F9000028317885F8F810716897
:1059C000C5F8EC10B9F80E10A5F8F610317E52F8B3
:1059D000211085F8FA1008BF1027C5F8F07099F863
:1059E0000C0002F0FDFF204605F062FA99F83B003A
:1059F000374985F8FB008A46D4E901873A6B97F866
:105A00003A0002F095FF7A6B98F8FB00514602F0DD
:105A10008FFF98F8F91097F83800012915D1FA6A24
:105A2000514602F085FFBA6A97F8390046F2020142
:105A300002F07EFF98F8FB00264907F01BFB98F860
:105A4000FB00214607F0BEFC0AE0BA6A46F20201FA
:105A500002F06EFFFA6A97F83900514602F068FFCB
:105A6000E846404607F082FD99F805001A4A434689
:105A7000CDE90040284699F8041005F0E1FF4046C2
:105A800007F0BCFDD9F80800144942460094029082
:105A900005F1300006F0E4FA04F054FD104AC5F8B0
:105AA000CC0005F11C000421234607F039F995F8D4
:105AB000F80008B1B06805E005F16C00002107F0BE
:105AC0001FFA0848C5F8BC0059E700BF8CEA00007F
:105AD00002600020A9770000F550000095AF00009B
