:100000000038012001FA000095020100950201006C
:100010009502010095020100950201009502010080
:100020009502010095020100950201009502010070
:0C0030009502010095020100B18B000058
:10004000F4B00FF0B3FF24906CA8DFF8B8BEDFF86F
:10005000B8AEDFEDB98ADFF8B45EDFEDB8AADFF83D
:10006000B07E4FF00008F2EE049A811D0A30139022
:10007000DFF8A00E149148301590002022902590B2
:10008000DBF81C008DF8AF81CDF8A8810DF2AF111F
:1000900001226AAB10F062FB083003D1DBF81C00D0
:1000A0000FF010FA6A98002800F0EB819DF8AF017C
:1000B000229A0D2802D00A2840F08D80002A00F0F4
:1000C000DE816CAC012A04F8028000F08E80DFF83B
:1000D000481E11F09BFA002800F0D280DFF83C1E89
:1000E00011F094FA002800F0D580DFF8341E11F0EA
:1000F0008DFA002800F0DE80DFF8281E11F086FA65
:10010000002800F01D81DFF8201E11F07FFA002882
:1001100000F00681DFF8141E11F078FA002800F0D4
:10012000FF80DFF80C1E11F071FA002800F0BF8785
:10013000DFF8001E11F06AFA002800F0B887DFF837
:10014000F81D11F063FA002801F02A80DFF8EC1D99
:1001500011F05CFA00284FF0000801F02780DFF86A
:10016000E01D11F053FA002801F02680DFF8D41DBD
:1001700011F04CFA002801F03280DFF8CC1D204647
:10018000052210F05FF8002801F01B80DFF8BC1D8D
:100190002046052210F056F8002801F01280DFF802
:1001A000B01D2046092210F04DF840B1DFF8A41D23
:1001B0002046092210F046F8002840F0608122987D
:1001C0000B2832BF002013980EF066FC01218BF83B
:1001D0000C1001F000B841B212B31E2A00F2518196
:1001E0006CA88154013222924BE19DF8B001A0F13C
:1001F0003101032954D9442800F02181572800F007
:100200001B815A2808D0642800F01981772800F053
:1002100013817A2840F0338101208BF80B0011E123
:1002200000290FD4A0F13102032A67D9632800F016
:100230000E81432800F00B81522800F08687229A15
:100240004228CDD12320ABF816009BF805000028EA
:1002500040F015819BF8000000212291062840F013
:100260001081D5F8B01140F2EE229AF84300914285
:100270004FF0000128BF084601210BF093FB00E17D
:10028000002000212290DFF8D00C8BF80D1010F028
:100290008DF8F6E001208BF80D00DFF8C00CECE0E3
:1002A000DFE801F002E6DAE0012008F055FFDFF8B0
:1002B000B00CE2E0DFF8AC0CDFF8AC4CA04711F07A
:1002C0006FF80DF0B1FDDFF8A40CA0479BF80D000E
:1002D000DFF89C1C0128DFF89C0C08BF0846A047EB
:1002E0002EA810F01FFEDFF8FC0EA0479DF8B80006
:1002F0000DF09AFDDFF8F00EA047C0E0DFE812F045
:100300000400440719073807012008F025FF11F001
:100310006EF911F0B3F810F0D3FDDFF8440CB6E736
:10032000402007F0C9FBDFF8140F10F03FF8002061
:100330004FF00008A4E000BF00007A449A99993F6A
:10034000DFF8FC0EDFF8C84EA047DFF8F80EA04734
:1003500011F02CF80028DFF8F40EDFF8EC9E18BF3F
:100360004846A047DFF8E80EA04711F013F8002137
:10037000DFF8E08E8DF83A1110F082FE8DF8391119
:100380008DF838014EA8A047DFF8CC0EA04710F03A
:10039000EFFFDFF8C85EA847DFF8C40EA0471720BC
:1003A00010F05CFDA847DFF8BC6E3046A047384629
:1003B0002EA910F023FBDFF8B40EA0472E98A84713
:1003C000DFF8AC0EA0472F98A847DFF8A80EA0478B
:1003D0003098A8473046A047DFF89C0EA04710F0A1
:1003E000F1FFDFF8689E0028DFF85C5E484618BF22
:1003F0002846A047DFF8840EA0479BF8030000289A
:1004000018BFA9464846A047DFF8740EA04710F071
:10041000D3FF002122918DF89E1010F031FE8DF84F
:100420009D108DF89C0027A8A0473046A047DFF814
:10043000645E4FF0000824E0DFF8480E1DE0012064
:100440008BF80C0000202290CBF8280019E00CF06B
:1004500083FADFF8480E10E0032008F07DFEDFF895
:100460002C0E0AE0042008F077FEDFF81C0E04E0F2
:10047000022008F071FEDFF8180E0FF097FF002041
:10048000229025984FF47A74002600F11009102E5E
:1004900000F0B780384664A90DF068FD002800F030
:1004A000B4809BF80200C00752D08BF8028040F263
:1004B000EE21D5F8B0019AF84340884228BF44465F
:1004C000BBF8160068B92320ABF816009BF80500AE
:1004D00038B99BF80000062803D1204601210BF013
:1004E00061FADBF81C0098B39BF80D0001282FD1AE
:1004F00074B39AF84850BAF84000BAF844C0BAF851
:1005000046300622BBF862104FF00008AF0602EA40
:10051000E7778DE88300DFF8882D40214EAFCDE9E5
:1005200003C305952EAD234628460EF061F8012839
:1005300008DB0246DBF81C0029463B46CDF8388133
:1005400010F048FEDFF84C5DDFF81C7D4FF000082E
:10055000BBF81600D0B1BBF816000138ABF8160096
:10056000BBF8160090B99BF8050078B99BF800001D
:1005700006280BD1D5F8B01140F2EE229AF84300CC
:10058000914228BF404600210BF00CFADBF81C001A
:100590009BF80D10012919D1C0B1DDE966019DF864
:1005A0009421649B8DE807002EACDFF8F82C3821ED
:1005B00020460EF01DF8012808DB0246DBF81C007F
:1005C000CDF8388121464EAB10F004FE9AF8381071
:1005D0009BF80F00012906D10121BBF818208140AA
:1005E0001143ABF8181001300A220136C824C1B2F9
:1005F000B1FBF2F101EB8101A0EB41008BF80F00A0
:1006000045E72394CDF8949003E025982394304453
:1006100025909BF804004EAFC00779D09BF80D00E1
:10062000012875D1DDF854A0504610F0BDFFDFF869
:10063000680C8BF8048090F8705090ED198A90ED5A
:100640001A9AB0F95C60B0F95A70B0F95840504647
:10065000DFF844AC0FF052F9DFF8500CDFF8B09B34
:10066000C84700EE104ADFF8484C10F01BFFDFF8D7
:10067000440CC84700EE107A10F014FFDFF8380C75
:10068000C84700EE106A10F00DFFDFF8300CC847C5
:10069000DFF8804BB0EE480AA047DFF8240CC847CB
:1006A000B0EE490AA047DFF81C0CC847DFF8AC6B76
:1006B000C5F38010B047DFF8100CC847DFF80C7C9A
:1006C000386EB047DFF8080CC84797ED190AA04705
:1006D000DFF8000CC84797ED1C0ADFF8FC4BA04779
:1006E000DFF8F80BC84797ED1E0AA047DFF8F00BBC
:1006F000C84797ED1F0AA047DFF8E80BC84797F8EF
:100700005000DFF8905B4EAFB047DFF82C0BC847C6
:100710000FF04CFC0446249841F28831201A88429C
:10072000C0F074818DF838818DF89C808DF87881C7
:1007300027A938465EAA0BF0AFFC002867D09DF8C9
:100740009C00810727D59BF80000DFF89C2B013027
:1007500000F0070000EB40018BF80000505C0A44F9
:10076000517892780EF0DCF99BF80000DFF87C1BE2
:10077000085C10F0C3FA10F018FDDFF8740B0FF0EE
:1007800015FE9BF800000DF04FFBDFF8680B0FF033
:100790000DFE9DF89C00C1071CD010F001FE461C08
:1007A000032888BF0126F0B208F0D6FC452043217B
:1007B00047220EF0B5F910F0F8FCDFF83C0B0FF013
:1007C000F5FD30460DF030FBDFF8280B0FF0EEFDA5
:1007D0009DF89C0041070AD501208BF80B00DFF83B
:1007E0001C0BCBF828800FF0E1FD9DF89C008006E3
:1007F0000DD5402007F060F9432041214C220EF036
:100800008FF910F0D2FCDFF8F80A0FF0CFFD9BF85B
:10081000050001280BD19BF80E0020B101388BF8A0
:100820000E00000603D18BF8058007F037FD9BF81A
:100830001000411CC0078BF8101000F0E68010F08B
:10084000A3FD002800F0E1809BF811000C22411C60
:100850008BF81110C9B2B1FBF2F202EB4202A1EB2C
:10086000820100295DD0C0075ED1DAF85800DFF8B8
:100870005C1A9AED1A2A2E90BAF85C00ADF8BC000A
:10088000086EADF8C20091F84C0091F850108DF848
:10089000C510DFF8141A8DF8C40091ED021A91ED1D
:1008A000010ABDEEC11A20EE290A11EE100A9AEDD6
:1008B000191ABDEEC00A8DF8C80021EE291ABDEE46
:1008C000C11A11EE100A22EE291ABDEEC11AADF8B6
:1008D000BE0011EE100A91ED051AADF8C00010EE41
:1008E000100A9BED080AADF8C600BBF81400BDEE77
:1008F000C00AADF8D00010EE100A91ED040AADF870
:10090000CA00BDEEC00A10EE100ABDEEC10A8DF895
:10091000CC0010EE100AADF8CE002EA80AF0D2F8E6
:1009200073E00CF065FE70E0BAF84030D5F8B02105
:100930009BF82E609AF843109AF84800ADF8BA3048
:10094000BAF844308DF8C160ADF8BC30BAF8463022
:10095000ADF8BE309BF82C308DF8C030DBF8343069
:100960008DF8C2309BF862308DF8C33040F2EE2330
:100970009A42DFF8343928BF41468DF8B810DFF8C5
:100980004C2993ED000ABDEEC01A30EE2A0A11EE92
:10099000101A9BED091A8DF8C5109BF80910002953
:1009A00018BFB0EE410ABDEEC00A10EE101A8DF865
:1009B000C41092F84C108DF8C61092F85010C0F385
:1009C000C0028DF8C82063228DF8C71093F8251057
:1009D0008DF8CB208DF8C91093F82610002918BF88
:1009E00001218DF8CA10012121EA501610F0D8FC1F
:1009F00041F678118DF8D0608DF8CF608DF8CC007D
:100A0000ADF8CD102EA80AF0BDF824949BF80A008A
:100A1000C00700F04682DFF8EC78384610F0C4FDDD
:100A2000DFF884088BF80A809BED08AA9BED099AF1
:100A3000BBF814409BF806909BF8076090ED008A85
:100A400090ED01EA90ED02FA90ED03DA90ED04CA20
:100A500090ED05BA9BF8090020909BF808002190C2
:100A600038460EF04BFF9BF80D00012840F0B28194
:100A7000DFF8CC080FF09AFCB9F1000FCDF87C90AC
:100A800029D0DFF8C008DFF88877B847DFF8489842
:100A9000B0EE480AC847DFF8B008B847B0EE4F0AD2
:100AA000C847DFF8A808B847B0EE4E0AC847DFF8D5
:100AB000A008B847B0EE4D0AC847DFF89808B84715
:100AC000B0EE4C0AC847DFF89008B847DFF8C457C3
:100AD000B0EE4B0AC8473EB1DFF860080FF066FC85
:100AE000B0EE4A0A0BF0E2FCDFF870080FF05EFC93
:100AF00020460DF099F9209838B1DFF864080FF01E
:100B000055FCB0EE490A0BF0D1FCDFF85808DFF8CD
:100B10000067B04710F044FCDFF84077B847DFF8D3
:100B200048089AF84390D5F8B041B04740F2EE201B
:100B3000844228BFC1464846B847DFF83008B0476E
:100B4000BBF86200B8475EA83D4610F0EBF9DFF84D
:100B50002008B04734AC94ED2B0A0BF0A7FCDFF86B
:100B60001408B04794ED2C0A0BF0A0FCDFF808083D
:100B7000B04794ED2D0ADFF89C76B847DFF8FC0704
:100B8000B04794ED2E0AB847DFF8F407B04794ED6C
:100B90002F0AB847DFF8EC07B0479DF87801A8475F
:100BA000DFF89406B047DBF81C004EAD002800F0DB
:100BB0000E819AF84840BAF84000BAF84420062757
:100BC000BBF86210BAF84630A60607EAE6768DE86A
:100BD000430003A840211CC0DFF8C4264B4628462A
:100BE0000DF006FD012808DB0246DBF81C00CDF8FD
:100BF000B88029462EAB10F0EDFADFF8AC764D4602
:100C0000386A07F1200610B930460EF0CBFC219867
:100C1000DFF8B82697F826400AF138010BF12C03CB
:100C200000F001000090304608F0AAFC6CB197F883
:100C3000260050B99AF84800000706D462208BF8C5
:100C40002E004FF49C40ABF82C0097F824009BF842
:100C50002D40219097F8250020909BF82E001E90A3
:100C6000DBF834001D90B86A1C90F86A1B90386B52
:100C70001A90786B1990B86B0EF004FDCDE917103F
:100C8000F86B0EF0FFFC1690386C3E468A460EF06C
:100C9000F9FC0746706C89460EF0F4FC41EC100B31
:100CA000169849EC117B336A002CDFF8DC264AECFD
:100CB000120BDDE917108DED0E1B8DED100B41ECC5
:100CC000130B19988DED0C2B8DED0A3B089008BF86
:100CD0004E242198802100902098CDE901041E988F
:100CE00003901D9804901C9805901B9806901A98E4
:100CF00007902EAC20460DF07BFC012808DB024655
:100D0000DBF81C00CDF89C80214627AB10F062FA7E
:100D100010F03AFBDFF880A51F9A002857D0BAF8E8
:100D200040009BF86210BDEEC80A8DF89C50002A66
:100D3000ADF89E00BAF844008DF8A710DFF88C15C6
:100D4000ADF8A000BAF84600ADF8A2009BF82C0060
:100D50008DF8A40091F84C0091F850108DF8AA007D
:100D600010EE100A8DF8AB10DFF83C158DF8A900D5
:100D70009AF84800C0F3C0008DF8AC0018BFB0EE80
:100D8000489ABDEEC90A10EE100A8DF8A80063203B
:100D90008DF8AF0091F8250091F826108DF8AD0080
:100DA0009BF82E0000298DF8A500DBF834008DF8A3
:100DB000A60018BF01218DF8AE1010F0F1FA6E49AF
:100DC0008DF8B000CDF8B11027A810F06EFCDFF858
:100DD000C45466E09BF80D00002862D12EAC20467A
:100DE00010F0C8F8DFF81C75DFF8142429462346F4
:100DF00007F12C000090DFF8100504F041FCDFF84B
:100E00000C05DFF80C44A04797F83200DFF84C647B
:100E1000B047DFF8FC04A047B88EB047DFF8F40411
:100E2000A047F88EB047DFF8F004A047388FB047EE
:100E3000DFF8E804A04797F83A00B047DFF8E0048D
:100E4000A04797F83B10DFF8E004DFF8D824012929
:100E500008BF10460029DFF8D41408BF0846A04791
:100E6000DFF8CC04A04797F84400B047DFF8C4048B
:100E7000A0472198B047DFF8C004A047B9F1000FA0
:100E800018BFB0EE489AB0EE490A0CF0E1F8DFF86E
:100E9000AC04A047B0EE4A0A0CF0DAF8DFF8980389
:100EA000A0479BF80B0020B99BF80C00C00700F08E
:100EB000F2809BF80C00DBF8284001218BF80B80B6
:100EC0008BF80C808BF80110C00757D0DFF8C804EE
:100ED000CF4EB04720460CF0A7FFDFF8B404B04770
:100EE000DFF8B804B0476420452150220DF018FE09
:100EF000C0480FF087F80EF031F920460EF0F2F8F6
:100F000056E000BF18040020F001002018B70020B0
:100F100034A800206402002047330100E1340100BE
:100F2000F03501007B36010080360100CF3401002E
:100F3000553301007534010057340100423401007B
:100F4000BB340100713601005C36010044360100FB
:100F50007F3401009D3401005A2D0100012D010054
:100F600082300100B22D0100AD0301002B330100DE
:100F700094360100D834010078190101DFF80C041F
:100F8000A34EB04720460CF04FFFDFF80404B047F3
:100F9000DFF80004B04753204C2150220DF0C0FD73
:100FA00094480FF02FF80EF0D9F820460FF0A8FC67
:100FB0008E485EAE2EAD0FF025F8002720200021D0
:100FC0008DF89C7027AA0DF089FDB8468DF87871D0
:100FD0002E97DBF81C00314601222B460FF0BEFB9A
:100FE00010B92E980028F4D1814804FB00F60EF0C9
:100FF000DDFFDFF8A09282460DF19B074EAD2CB1CC
:101000000EF0D4FFA0EB0A00B04224D21D200FF056
:1010100025FF68B9FF2000212A468DF838012020DD
:101020000DF05CFD20B19DF83801C043800612D15F
:10103000DBF81C00394601222B468DF89B80CDF849
:1010400038810FF08BFB08B94E9820B94CF2503024
:101050000EF0D8FFD3E70EF063F809F0A1FB0CF017
:10106000CBF809F04DFE7520502120220DF058FDDF
:101070009BF800009D49085C0FF040FE10F095F8C9
:10108000C7488BF801800FF091F9C6480FF08EF930
:10109000DFF804A24D46744F38460FF047FE002893
:1010A0003EF4EEAF23980EF0ADFFFEF7E9BF2EA899
:1010B000A94603F075FDB0B35448554DA84734AC6C
:1010C000544E94ED000A10F0A4FA5348A84794ED4A
:1010D000010A10F09EFA5148A84794ED020A10F058
:1010E00098FA9DF8DF004E4900284E4818BF084680
:1010F000A8474D48A84794ED000A10F08AFA4B48DB
:10110000A84794ED010A10F084FA4948A84794EDE5
:10111000020A10F07EFA4748A8479DF8DF000CF05D
:1011200083FE4548A84700204FF000084D46FFF7D2
:10113000A7B9032008F010F810F059FA10F09EF942
:101140000FF0BEFE5148FFF7A2B800200021229008
:10115000ABF812109BF8050000287FF492A99BF8C9
:10116000000006287FF48BA900202290FFF785B8A5
:10117000042007F0F1FF10F03AFA10F07FF90FF0B9
:101180009FFE4148FFF783B8022007F0E5FF10F00B
:101190002EFA10F073F90FF093FE3D48FFF777B881
:1011A00017480EF0A6FA1848FFF7BFB814480FF01A
:1011B00016FC1448FFF761B90DF000FE0F48FFF769
:1011C0005CB92298072832BF002014980DF064FC07
:1011D00001218BF80B10CBF82800FFF750B9064817
:1011E000FFF74BB9D0330100B036010090D00300B7
:1011F000A086010030570500F92F0100852B010062
:10120000509A0020CE300100072E0100DD2D010094
:10121000AD03010051D00000133601000C3601006F
:10122000A72E0100E73001009031010036360100A1
:10123000FE350100EA340100A036010079270100E3
:1012400063320100FF3201009836010015300100C1
:10125000C8350100BD3201001735010029DE00004C
:10126000AC330100B036010034A80020A7310100E2
:10127000A73401000B3401000E3301003B3501009F
:10128000C43301009C3001004E30010034300100B5
:101290006830010018B70020F0010020592E01002D
:1012A000B5300100763201006402002028320100CE
:1012B00021C100003D3601001A36010089340100C9
:1012C00032350100A83501006B340100F0C0002068
:1012D000C0350100F3340100ADC400002136010027
:1012E00028360100293501006031010080350100F8
:1012F000B82A0100A8360100BE310100182C0100F7
:10130000D43101000C060020A0C3002014320100DB
:101310002F360100C534010020350100933401004F
:101320006233010005360100D83501006134010047
:10133000B1340100B833010005350100D03501009A
:1013400039330100563601004A360100503601009B
:10135000983501009035010088350100FC3401000A
:10136000A035010044350100B8350100B035010059
:101370002C3401002134010000340100A0330100AD
:10138000373401001634010033290100812E010099
:101390009C3601002A260100EC2A0100F3260100F8
:1013A000E6250100893201002DE9F84F2DED048B6F
:1013B00096B00025002800F0C4840646DFF8000A35
:1013C0000078002800F0BD84DFF8F849762071210C
:1013D0000022A047762072210122A04776207421A6
:1013E0005522A04746F2A8100EF00CFE11AC1121B8
:1013F00020460FF008FE76201D21224611230EF014
:1014000099F8002800F09C849DF84A109DF8490046
:10141000090141EA00309DF84B1040EA11104103E8
:1014200002D1002500F08CBC9DF847209DF84610A5
:101430009DF84830120142EA013141EA1311099145
:101440009DF852100D919DF851100691BDF84C1069
:1014500009BA090C0C910FF0A3FA9FEDB30B0F968C
:1014600081468B4653EC102B0E92109310F015F919
:101470000446DFF84C090F46808A0FF091FA9FED81
:10148000AC0B05460E4610F057F802460B462046B8
:10149000394605F09AFA0446DFF824090F46B0F9F8
:1014A00016000EF0BBFC02460B462046394610F0F3
:1014B000F4F89FEDA10B80468A464846594653EC06
:1014C000102BCDE9072310F0E8F89FED9D0B0446A3
:1014D0000F462846314610F02FF802460B46394693
:1014E0002046DFF8DC7805F070FA02460B4610F073
:1014F000D4F8044697F9020010F08EF89FED920B95
:1015000053EC102BCDE90A2310F0C7F80FF0DEFFE3
:1015100010F0C3F802460B464046514605F055FA16
:101520009FED8B0B04460D4653EC102B10F0B3F8D7
:10153000824688460BF010FC0F9905900860787879
:10154000012840F06181B7F91A000490B7F9200032
:101550000EF064FC9FED800B55EC107B3A4610F0CA
:101560003DF80446DFF858080E4690F907000EF0E3
:1015700055FC3A4610F032F80FF0FAFF224610F010
:1015800033F8834609980D4600010FF009FA024628
:101590000B4604460990894610F07FF85A462B46C0
:1015A00006460F4610F079F805468B463046394618
:1015B00022464B4610F071F80646DFF804080F4645
:1015C00090F908000EF02AFC9FED650B0FF0B4FFB8
:1015D00002460B463046394610F05FF82A465B4615
:1015E00005F0F3F9CDE9071004980EF017FC9FED14
:1015F0005E0B0FF0A1FF0FF043FE0446DFF8C007BB
:101600000D46008B0FF0CCF99FED590B0FF094FFB6
:101610000FF0A6FF0446DFF8A8070D4690F9030077
:101620000EF0FCFB9FED540B0FF086FF0FF028FE31
:101630000FF026FE0FF04AFF05F0C7F90546DFF868
:1016400080070F4690F904000EF0E8FB9FED4C0B6D
:101650000FF072FF0FF014FE0FF012FE0FF010FEED
:1016600002460B462846394605F0AFF9CDE903108E
:10167000DFF84C07C08B0FF093F99FED430B0FF091
:10168000E9FE05F0A2F99FED420B0FF055FF0FF0B8
:10169000F7FD0646DFF828070F46808B0FF080F92C
:1016A0002A46234605F091F99FED3B0B0FF044FFCE
:1016B00002460B4639463046DFF8047705F085F9D7
:1016C000054697F905000E460EF0A8FB9FED340B7A
:1016D0000FF032FF0FF0D4FD0FF0D2FD2A460FF0CD
:1016E00083FF834697F906000FF096FF9FED2E0BC0
:1016F0000FF022FF0FF0C4FD0FF0C2FD0FF0C0FD90
:101700005A462B4605F061F9099A4B460FF0C5FF82
:1017100002460B46DDE9031005F057F902460B4679
:10172000DDE9071074E100BF000000000000103F79
:1017300000000000000050BF000000000000E03E7C
:1017400000000000000020BF00000000000030404A
:10175000000000000000B440000000000000F03C69
:10176000000000000000E03B000000000000903F8F
:101770000000000000002040000000000000703F5A
:10178000000000000000003F000000000000D0C08A
:10179000000000000000203E000000000000B03EFD
:1017A000000000000000F03D000000000000A03D2F
:1017B000000000000000E03F000000000040EFC01B
:1017C000000000000000C03E000000000000F03FEC
:1017D0000000000000000000000000000000D03FFA
:1017E000000000000000F04000000000000030BFDA
:1017F000000000000000304100000000006AB84016
:10180000000000000000003E1FED170B2046294697
:101810000FF092FE1FED180B0FF09AFE054697F998
:1018200009008B460EF0FAFA0FF042FD0FF040FD72
:101830000E9A109B0FF031FF0446B7F924000E46B4
:101840000EF0ECFA2A465B460FF027FF22460FF017
:10185000CBFE1FED250B0FF06FFE1FED370B53EC8A
:10186000102BCDE903230FF018FF1FED290B0FF00C
:101870006FFE0446788C0E460FF092F802460B4637
:10188000204631460FF009FF1FED2F8B81460C4695
:1018900053EC182B0AF0CAFC002840F0BD80B7F9C1
:1018A00028000EF0BBFA0FF003FD01940446DFF8A8
:1018B00010050F4690F90B000EF0B0FADDE9072392
:1018C0000FF0EBFE0646CDF808A0C2468846284633
:1018D00059462A465B460FF0E0FE324643460FF07B
:1018E000DCFE05460E462046394622463B4605F0BC
:1018F0006CF82A460FF078FE1FED490B0FF01CFE26
:101900000446DFF8BC040D46B0F926000EF086FA56
:101910001FED4D0B0FF010FE0FF022FE1FED4E0BD2
:101920000FF00AFE044609980FF05BFE1FED500B06
:1019300002460B4651EC100B05F042F80FF010FE7A
:101940001FED530B0FF0F8FD019B4A460FF0A3FE6D
:101950000646DFF86C048846B0F92C000EF05EFAFB
:101960000FF0ACFC0FF0AAFC1FED5B0B0FF0E4FDD9
:101970001FED7F0B83468946304641460FF0DCFD64
:1019800002460B4604460D460FF087FE0FF09EFD03
:101990000FF083FE0446DFF828040D46007B0EF0AE
:1019A000FFFFDDE907230FF078FE22460FF016FE59
:1019B0000546DFF80C040F46B0F92A000EF02EFAA7
:1019C000DDE903230FF069FE324643460FF065FE62
:1019D0005A464B4604F0F9FF3B462A46DFF8E073CF
:1019E00004F0F3FF044697F90A000FF015FE9FED8F
:1019F000DE0B0FF0A1FD0FF0B3FD9FEDDD0B0FF03F
:101A00009BFD0B464146D046DDF808A00246304615
:101A100004F0DBFF41EC180B9FEDD90B51EC180BD8
:101A200053EC102BCDE908320FF035FE0BF094F992
:101A30000F9E706097F90D000EF0F0F99FEDC40B4A
:101A40000FF07AFD0FF01CFC0446388E0FF0C9FD34
:101A5000DDE90A230FF021FE0FF082FD04460C9809
:101A60000FF0BFFD22462B4604F0AAFFB9460C90AA
:101A70000F4699F90E000EF0D1F9DDF838B0109B41
:101A80005A460FF00AFE0FF073FD9FEDB30B0FF0F7
:101A90005FFD044699F90F000FF0BEFD9FEDB60BF8
:101AA0000FF04AFD0FF0ECFB0FF062FD0FF058FD58
:101AB0000446B9F82E000FF094FD9FEDB30B0FF024
:101AC0003BFD22460FF08AFD02460C980B46394634
:101AD0000FF0E3FD044699F810000F460EF060FF8A
:101AE000109B5A460FF0D9FD834699F911000FF06B
:101AF00093FD9FEDA70B0FF01FFD0FF039FD5A4628
:101B00002B4604F062FF22463B460FF0C6FD2246FC
:101B10003B460FF0C2FD22463B4604F056FF9FEDC8
:101B2000900B83460F4655EC104B22462B460AF08D
:101B30008AFB00281CBF2F46A346099C089D5846D7
:101B4000394622462B460AF0A5FB00281CBF2F462B
:101B5000A346584639460BF0FFF8B0600D9908EEE1
:101B6000100A99ED0D9A880620D4BBEE0E1A05983E
:101B70009FED972AB7EE003A38EE011A01EE023ACD
:101B800000EE100ABBEE051A30EE010A9FED911A25
:101B900000EE013A9FED900A29EE039AB4EE409AC6
:101BA000F1EE10FA48BFB0EE409A4AE0069801F014
:101BB0000F084FEA911A8600814890F912000EF042
:101BC0002DF99FED750B0FF0B7FC9FED750B0FF026
:101BD000BFFC02467C480B4600EBC8000FF056FBEA
:101BE00004467A480D4622462B4600EBC8000FF00B
:101BF0004DFB804606EB0A008946A0F500700EF00A
:101C00000DF90FF063FC04F0E0FE02460B4640467F
:101C100049460F9E0FF03FFD9FED630B80468A46BD
:101C20000FF018FC0AF036FB58B1404651462A46E0
:101C300023460FF030FD0BF08FF8614909EE100AD2
:101C400048639FED5B0B5846394686ED039A0FF0CB
:101C500001FC0AF012FB58B19FED570B584639466C
:101C600053EC102B0AF0FCFA10B1B3EE090A17E09E
:101C7000584639462A4623460AF0E5FA40B19FED18
:101C8000580AB3EE091A38EE000A30EE010A07E0EE
:101C90009FED520AB3EE091A38EE000A31EE400AFF
:101CA0009FED501A9FED502AB6EE083A89EE011AC0
:101CB00021EE021A21EE031A9FED4C3AB4EE431ABC
:101CC000F1EE10FAC8BFB0EE431AB5EE401A9FED20
:101CD000483AF1EE10FAB5EE400A48BFB0EE431AAA
:101CE000F1EE10FA48BFB0EE430A31EE000AB1EE51
:101CF000041A32EE400A9FED412A20EE010A9FEDC0
:101D00003D1AB5EE400AF1EE10FA48BFB0EE430AB4
:101D1000B4EE410A9FED3B3AF1EE10FAC8BFB0EEC7
:101D2000410A9FED351A86ED040A012500EE012ACD
:101D30009FED331A00EE013A86ED062A86ED053A4C
:101D40003577284616B0BDEC048B01B0BDE8F08FA6
:101D5000000000000000E03F000000000000F03F35
:101D600000000000000000000000000000006040D3
:101D7000000000000000B03F000000000000B03E86
:101D80000000000000005940000000000000D03EAC
:101D9000000000000000A03E000000000000144011
:101DA0000000000000F094400000000000408F4060
:101DB000000000000000434000000000000045401B
:101DC0005007002035FA0000A82301002824010054
:101DD000A69BC4BB6F1203BC0000FA44000028C2DB
:101DE000000018C2000048420000C84200009642AD
:101DF000000000000000FA430AD7233CCDCC4C3D44
:101E0000CDCC4C400000C8432DE9F04FADF5077D27
:101E1000D0F8009006469B461546869148460FF03E
:101E2000E7F94FF0000A09EB00044FF0FF300027FC
:101E3000CDF814A2A14580F0C580A04609F10104A7
:101E40008DF810A28390CDE981AA14F8010C002826
:101E500000F0B880252805D029463460D8470134E1
:101E60000137F2E73460859781AC3146204600F0B7
:101E7000AEF82046314686AA00F0CAF830680278EB
:101E8000411C7A2A2AD0682A44461CD06A2A09D0E2
:101E90006C2A0FD0742A09D04C2A2CD1819840F09A
:101EA000800025E0819840F4006021E0819840F4B2
:101EB00000501DE00146819A11F8013F6C2B12D1B0
:101EC00042F4807107E00146819A11F8013F682BC6
:101ED0000CD142F40071819102300BE081984446AC
:101EE00040F4805004E042F0400001E042F0200065
:101EF00081900846027800F10109732A8DF81022BA
:101F0000C6F800901FD06E2A2AD1819843F66071DE
:101F10000840411E80EA01028A420ED990FAA0F0E0
:101F2000B0FA80F0411F082907D8F817DFE801F060
:101F300044050539400539050500869850F8041B0D
:101F40000F60869026E09DF8040240061AD4CDF872
:101F500000B081A886AA294685AB00F01CF919E0DB
:101F60000DF1060881A986AA404600F069F9909B08
:101F70000246404629469847411C18BF3844859080
:101F8000074608E0CDF800B081A886AA294685ABAF
:101F900000F09CF8859F781C4FF0FF307FF44AAF2B
:101FA0000EE0869951F8042BC2E900708691F1E7A2
:101FB000869802C80F70C4E7869802C80F80C0E7F1
:101FC0004FF0FF3738460DF5077DBDE8F08F10B5AF
:101FD0000A680124E30708BF10BD1378302B0CD02A
:101FE000232B0CD02B2B0CD02D2B04D00024202BFA
:101FF000F0D1042306E0012304E0102302E00823CB
:1020000000E00223046801320A6023430360E0E732
:10201000FEB50446086816460D4603782A2B11D1F2
:102020003068011D31600068B0F1FF3F606005DC81
:1020300040426060206840F0010020602868471C32
:102040002F6017E000210DF10202303B4718092BE9
:1020500006D87B1C2B60435C53547B780131F4E73A
:10206000002050549DF8020020B10DF102000CF048
:1020700013FD606038782E2827D1781C28607A7884
:102080002A2A08D13068011D31600068A0602868E4
:1020900001302860FEBD00200DF10201303A092A0E
:1020A00007D83A18931C2B60537892780B54013060
:1020B000F4E700220A549DF8020028B10DF1020055
:1020C0000CF0EAFCA060FEBDA260FEBD2DE9FE4F53
:1020D000054610680C46011D116007680C9AD7B3BD
:1020E000AE6898469146002E04D438460FF038F872
:1020F000864203D338460FF033F80646D5F804A0DD
:10210000B3460195B245C8BFD346D8F80000CDF814
:1021100008805844C8F800000FDD01980078C00717
:102120000BD1ABEB06054FF00008A84505DA2020DF
:102130002146C84708F10108F7E7DDF808800025C7
:10214000B5420EDA57F82500B0F5807F19D2214646
:10215000C8470135F4E70020214603B0BDE8F04F41
:102160001047B24515DD01980078C00711D0ABEBE0
:1021700006050026AE420CDA20202146C84701366B
:10218000F8E74FF0FF30C8F800000FF005FA5821CB
:102190000160BDE8FE8F2DE9F84F054610680C463A
:1021A000011D116006680A9AC6B3AF689B46904647
:1021B000002F04D430460FF01BF8874203D330467B
:1021C0000FF016F80746D5F804A0B9460095BA45B1
:1021D000C8BFD146DBF800004844CBF800000DDD55
:1021E00000980078C00709D1A9EB070B00255D45D1
:1021F00004DA20202146C0470135F8E70025BD421A
:1022000004DA705D2146C0470135F8E7BA4503DDC1
:1022100000980078C00706D1BDE8F88F002021465D
:10222000BDE8F84F1047A9EB07050026AE42F3DAE8
:1022300020202146C0470136F8E700BF00BF00BF9D
:102240002DE9FE4F164600278B46D1F8048040F258
:10225000FD112022044601970EF0D0FE04F5FE7019
:1022600084F8FD7102909BF80C00A0F16101172920
:1022700029D80122BA4B8A401A4209D001A902AAE0
:102280005846334600F070F900274FF0000991E0FE
:1022900012F0710F25D1022915D130680027011DD8
:1022A0003160006884F8FC01C0B2DBF80010B0FABD
:1022B00080F04FEA501921F00201CBF8001004F22F
:1022C000FB11029176E0A0F14501032909D32528ED
:1022D00000F08A80412804D05828CFD04FF0000960
:1022E0006AE03068073020F0070000F10801316033
:1022F00090ED000B9BF80C5056EC107BA5F17B0980
:10230000384631463A4633460DF056FC002840F038
:102310000C8194499FED900B26F00040414053EC16
:10232000102B394315D003F000414FF00009084449
:1023300040EC107BF70FA5F14100062829D9A5F143
:102340006100062836D8DFE800F02A353535DCD7BD
:10235000D2006E20314619F11A0F38BF4E2084F892
:10236000FB014FF0660038BF462084F8FC014FF0B7
:10237000690038BF492084F8FA0104F5FC70029026
:10238000384609F060FF78B12D204FF0000904278E
:102390000EE0DFE800F0040F0F0FB6B1AC0002A9A9
:1023A000584603F021F870E72B204FF0000903276F
:1023B00084F8F9019BF80C00A0F16F014FF0010ABD
:1023C000092905D80AFA01F140F24322114221D12C
:1023D00058281FD06FB1012F1CD101200190DBF8CC
:1023E000000000F002000CE0252020800120BDE864
:1023F000FE8FDBF80010019A01F00200002A00F0C5
:10240000858002992D22B0FA80F04FEA501A01F827
:10241000012902919BF8000004EB08072646C0073B
:10242000029809D104F2FD11DBF804202646091AAE
:102430009142DCBF791A4E1C411C304600224FF4F9
:10244000FF7300250EF09BF9B9F1000F02901CBF3D
:1024500000F8015B0290B84207D8391A01382022EF
:1024600001310EF0CBFD002038709BF80000C00653
:1024700005D4311B204620220EF0C0FD31E0A642DB
:102480002FD0311B2046302230250EF0B7FD0198A9
:10249000B0FA80F0400900EA0A00012805D19BF853
:1024A0000000400701D4204605E03178204600F8BE
:1024B000011B06F8015B9BF80C1041290DD058292F
:1024C00005D0612909D0782901D0702909D19BF85C
:1024D0000020120701D4612903D1717841703020A6
:1024E000707020460EF084FE4844BDE8FE8F02A9BD
:1024F000584603F089FCC8E602A958460BF016FCC2
:10250000C3E602A9584605F027FABEE628B94807EF
:102510007FF580AF0298202103E002982B214FF035
:10252000000A00F80119029074E7612019F11A0FEE
:1025300038BF412084F8FB014FF000094FF06E00D6
:1025400038BF4E2084F8FC0184F8FA01022704F217
:10255000F91002902EE700BF00000000000000000C
:1025600008C190000000F07FF8B505468068144669
:102570000F46B0F1FF3F04DD286820F0100028600E
:1025800001E00120A860287B1026582807D0782871
:1025900005D0702803D06F2814BF0A2608262846C5
:1025A000194600F053F8AA684AB950EA010206D168
:1025B0002878000749D52B7B0020002112E02B7BD7
:1025C000642B04D16423B1F1FF3F05DD0AE0692BE0
:1025D00008D1002906D5692301223A600022404231
:1025E00062EB01013246009400F0ACF83021AA6899
:1025F000904205DA22680130531E23601170F6E71D
:10260000287B582818BF782810D1297809070FD5BA
:1026100021684A1E2260702808BF78200870206850
:10262000411E216030210170287B01E07028ECD030
:102630006F280AD12878000707D52068417830290B
:1026400003D0411E216030210170F8BD10B5027B1E
:10265000702A2BD0006843F660731840431E80EA4E
:1026600003049C420DD990FAA0F0B0FA80F005382E
:10267000082806D8DFE800F04D05052039052005BB
:102680000500A2F1640014280ED8012303FA00F01B
:102690002B4B18420AD110F0210F05D00868021DFB
:1026A0000A600068C11710BD582A46D10868021D8B
:1026B0000A600068002110BDA2F16400142808D847
:1026C000012303FA00F01E4B184204D110F0210F31
:1026D00001D1582A31D10868073020F0070000F1F5
:1026E00008020A60D0E9000110BDA2F164001428BC
:1026F00008D8012303FA00F0114B184204D110F05E
:10270000210FCBD1582A18D10868021D0A60007821
:10271000D0E7A2F16400142808D8012303FA00F0DE
:10272000074B184204D110F0210FB7D1582A04D119
:102730000868021D0A600088BCE70020BAE700BFF5
:1027400000081200F8B505461148124E582B069F96
:10275000144608BF064655EA010011D13868421EEA
:102760003A60302202700BE02846224600F014F84E
:102770003A68531E3B6000FB14530546F35C13702C
:1027800055EA0100F0D138680EF032FD0138F8BD8D
:102790009B320100AC320100102A06D0082A09D170
:1027A000C00840EA4170C9087047000940EA01705A
:1027B0000909704719B9B0FBF2F00021704780B5E4
:1027C00000230EF0FFFB80BD2DE9F84F2DED068BA9
:1027D000ADF5496D0026002800F0AC830F460029B6
:1027E00000F0A8839346002A00F0A48397ED038AA3
:1027F0008146B5EE408AF1EE10FA1DD8B7F9061001
:10280000B7F90400B7F9082001EE101A00EE100A1B
:10281000B8EEC11AB8EEC00A21EE011A00EE001A95
:1028200000EE102AB8EEC00A00EE001AB1EEC10A9E
:102830009FEDB01A80EE018A386839462022039055
:10284000B9F8A40C09EB401024300EF03BFFB9F8A6
:10285000A43C642009F61C585E1CB6FBF0F101FB99
:102860001064B9F8A61CA9F8A44C63299CBF0131D7
:10287000A9F8A61CB9F8A80C00F1010A09F618502D
:102880000290D9F8180DA9F8A8AC48B999F83D2DCF
:1028900032B9D9F8542D1AB9DFF81428002515706B
:1028A00089B29FED950AB0EE481AB0EE482A0C297D
:1028B00028BF0C216422B6FBF2F54FF4486675433D
:1028C00004F16306C5EB43138C4D4B4403F54B6396
:1028D00021B3B6FBF2F4B0EE414AB0EE425A04FB2B
:1028E000053494ED003AB4EE413AF1EE10FAB4EE4C
:1028F000423AC8BFB0EE434AF1EE10FAB4EE403AA5
:1029000048BFB0EE435AF1EE10FAC4BFB0EE452A0C
:10291000B0EE441A0139013E203BD9E731EE420ABC
:1029200098ED092A9FED763AB7EE001A0EF0A1FD58
:1029300001D5039C1DE09FED733A039C0EF099FDB9
:1029400017DCB6EE081AB4EE418AF1EE10FAC0F2C6
:10295000CD80B7EE041AB4EE418AF1EE10FA00F21F
:10296000C5809FED691A9FED693A28EE011A02EEC3
:10297000031A88ED091A9FED662AB4EE420AF1EEB9
:1029800010FA02D59FED639A18E09FED633A38EE96
:10299000411A9FED624A21EE039AB0EEC11A9FEDF3
:1029A0005D3AB4EE441AF1EE10FA48BFB0EE439A25
:1029B00098ED0A1A9FED5A3A01EE039A0021B4EEFF
:1029C000420A88ED0A9AF1EE10FA89F83C1D27DADE
:1029D000C8E90B11012089F8500DD9F8540D0028D1
:1029E0006CD0201AB0F5C86F09D9DFF8C4160020E2
:1029F00089F83D0DC8F81000C8E90000087099F882
:102A0000F20CE0B1D9F8FC0C40F6B831201A88423B
:102A1000C0F0B78148460DF0E2FFB9F8A8ACB0E1CC
:102A200099F8501D01294DD198ED0B0AB4EE409A4A
:102A3000F1EE10FA40F3908088ED0B9ACDE799F80B
:102A4000F00C052800F21481DFE810F006001B01ED
:102A5000140112013E015D019FED2F0A0EF02CFDC5
:102A600040F15D8199F8F30C013089F8F30C000A0C
:102A700040F08781012009F54E63B7F90610B7F9D8
:102A80000820C9F8F44C89F8F00C0020986189F806
:102A9000F30CB7F9040001EE101A02EE102AB8EE9A
:102AA000C11AB8EEC22A00EE100A83ED011A83EDB6
:102AB000022AB8EEC00A83ED000A62E1B4F5C86FDD
:102AC00093D89CE798ED0C0AB4EE409A9FED150A56
:102AD000F1EE10FA48BF88ED0C9AB4EE409AF1EE90
:102AE00010FAFFF67AAF88ED0B9A73E7B0EE421A50
:102AF00041E700BF00007A44CDCCCC3D80F3FFFF1E
:102B00003333333F6666A63F8FC2753DD7A3703F10
:102B1000295C0F3E000000006666263FEC51383D00
:102B20003333B33E8FC2753C0AD7A33D8FC2F5BC89
:102B300000606A47000070428FC2F53DC3F51C413A
:102B40006666E63ECDCCCC3ECDCC8C3F3333D33F16
:102B5000295C8F3E333303401FED0D1A0EF084FCC9
:102B6000FFF63BAF1FED0F1AB4EE419AF1EE10FAEB
:102B70003FF633AFD9F8542D40F20463A11A002A6E
:102B800008BF40F6C411A1F582729A4200F2E180BA
:102B9000DFF81C6501223378002B00F00A8201EE79
:102BA000101A012B04BF022232701FED232A1FEDE1
:102BB000264A40F201131044C9F8544DC9F8584D43
:102BC00030EE490AB8EE41AA1FED271A98ED003AF7
:102BD000A9F83C3DC9F8180D81EE0A1A21EE022A27
:102BE00003EE042AB2EE044A0EF04DFCC8BFB0EE6C
:102BF000421A1FED302A88ED001A81EE022A1FEDDD
:102C0000321A0EF031FC88ED012A48BFB0EE410ABD
:102C10001FED361A20EE010AB1EEC01AB1EEC10A5C
:102C2000B4EE400AF1EE10FA80F13B821FED3C1A3F
:102C300020EE010A1FED3D1A0EF016FC48BFB0EE63
:102C4000410A1FED3F1A0EF00FFCC8BFB0EE410A5B
:102C5000307888ED020A022840F0B18102980068BD
:102C6000022818BF012001EE100AB8EE411AA8E1AF
:102C7000002003E00020A9F8040D042089F8F00CDE
:102C80007FE009F54E61D9F8F40C91ED060AB4EE37
:102C9000408A1FED520AF1EE10FAC4BF09F54E61E9
:102CA00081ED068A201A0EF007FC30DBB0F5617F5B
:102CB0002DD80120C9F8FC4CA9F8140D0020A9F862
:102CC000040D4FF482701BE0BFEE000A1FED601A86
:102CD000B9F8040D38EE000AB0EEC00A0EF0C4FBDD
:102CE00026D50130B9F81810A9F8040D80B2884231
:102CF00047D30120C9F8FC4C89F8F20C40F20520BA
:102D0000A9F8F00C3DE0012089F8F20C39E040F21E
:102D1000B731884224BF0020A9F8F00C31E01FED44
:102D2000730A0EF0C9FB1EDA002089F8F30C28E0C4
:102D300010B10138A9F8040DB9F8140D0130A9F843
:102D4000140D80B21E2824BF4FF44070A9F8F00C77
:102D500017E0B1F5E16F40F24981D5480121C9F88A
:102D6000544D017042E109F54E6080ED068A4FF442
:102D70008270A9F8F00C0120A9F8140D0020A9F820
:102D8000040D1FFA8AF0322824D3B9F8A60C0026C5
:102D900009F54E6A6428C0F09280B9F8A47CCDF899
:102DA00004A0AA46A9F8A86C4FF0640804AD09EB8A
:102DB000471000F12404B6F5486F0FD0B7FBF8F0C8
:102DC000202200FB0A41A8190EF07CFC20360137B6
:102DD0002034F0E7002609F54E6A70E0DDF804A023
:102DE00004A864210AF1840202F094FD99F8DC1C25
:102DF00099F8DD0C9AED212A9AED221A9AED230A10
:102E0000B6EE083A4A1C01EB410109EB810102F0E0
:102E10000302042801F6AC4189F8DC2C81ED002A7C
:102E200081ED011A81ED020A3CBF013089F8DD0C09
:102E30009AED2E4A039CB4EE434AF1EE10FA35DACD
:102E400099F8EC0C9AED2D3A02287BD0012818D085
:102E5000002840F091809FED9D5A0EF01EFBC0F2BD
:102E6000A2809FED9B4A0EF00EFBC0F29C8099F869
:102E7000EF0C012840F0C3800EF089F9022877D2C8
:102E8000C1E09FED8C5A0EF008FB79DB9FED8B5A69
:102E9000B4EE453AF1EE10FA72DB99F8EF0C022825
:102EA00040F0A8800EF073F9022804D30EF064FB02
:102EB000022089F8EC0C0020012689F8ED0C0BF1BA
:102EC000080009F6645144228BF80460CBF80040F6
:102ED0000EF0F8FBB9F8EC0C9FED811AABF84C0042
:102EE00099F8F00C99F8F11C99F8F22C8BF84E1027
:102EF0008BF850208BF84F0002992822DAF818003E
:102F0000CBF85400B9F8040D00EE100AB8EE400AF0
:102F100020EE010A8BED170ADAF82000CBF85800F2
:102F20000BF160000EF0CEFB09F65C50594688228A
:102F30000EF0C8FB30460DF5496DBDEC068B01B0B7
:102F4000BDE8F08F9FED5E0AB4EE404AF1EE10FA54
:102F500006D49FED5C0AB4EE403AF1EE10FA1FD5AC
:102F600099F8EF0C012821D10EF011F90328A2D312
:102F70000EF002FB01209CE7002089F8EC0C42E0F7
:102F80009FED4D5A0EF089FA0AD59FED4F4A0EF08B
:102F90007AFA05D599F8EF0C00287AD001202BE0B9
:102FA0000EF0EAFA87E70EF0E7FA2CE040F20110A3
:102FB00022E0C9F8544DC9F8584D327016E0B7EE0A
:102FC000001A98ED032A0020C8F81C00C8F8140065
:102FD00000EE012A9FED351A8AEE011A88ED062AC5
:102FE00088ED032A80EE010A88ED040A88ED0C9A28
:102FF0000020F0E440F20120A9F8EE0C5BE740F27B
:103000000110A9F8EE0C9FED333AB0EEC22AB4EEEF
:10301000431AF1EE10FA0EDD9FED2F4AB4EE442A6A
:10302000F1EE10FA07D5B0EEC05AB4EE445AF1EE04
:1030300010FA3FF540AFB4EE430AB0EEC11AF1EE1C
:1030400010FA08DD9FED244AB4EE441AF1EE10FAAE
:1030500001D5012030E79FED214AB4EE440AF1EE9C
:1030600010FA08D59FED1C0AB4EE401AF1EE10FAE2
:1030700001D5022020E70EF0FCF908DD9FED160ACD
:10308000B4EE401AF1EE10FA01D5032014E7042043
:1030900012E70EF07CF80428FFF40DAF0EF06CFA86
:1030A0006BE7B0EE410A08F019FDBFE500007A4475
:1030B000B00800206666263F8FC2F53D295C8F3E32
:1030C000CDCC0C3FAE47613E295C0F3DEC51383E04
:1030D000CDCC4C3D000016440000FA43000016C45D
:1030E0000AD7233C2DE9FC470027002800F06A821C
:1030F000DDF828A0BAF1000F00F064829146054681
:10310000D0E96C20571C461C95F82022C5E96C7646
:10311000CBB1002742F0200051461C2285F81B72DB
:10312000C5F8B071C5F8A471AAF80A7085F8200234
:103130008AF8100005F50970CAE905778AF8007069
:103140000EF0C0FA3EE240F2EE2302F0DF029F42B0
:1031500085F820220AD3002342F0100285F81B32A2
:10316000A5F82E32C5F8A43185F8202210B3DFF877
:103170006C24137802EB83067160591C0526CBB2D0
:10318000B3FBF6F303EB8303C91A0123117000218B
:10319000062B04D052F8236001333144F8E70522AE
:1031A00091FBF2F1E8B900200D280CD045F8201071
:1031B0000130F9E7DFF824340122062AD7D043F89A
:1031C00022100132F9E701EBC100102382006A638B
:1031D000312B03D045F823200133F9E7C001C5F8AE
:1031E000C40095F83C2095F8C80045F82210561CFC
:1031F0006B6BD5F8C4C0AB630D23B6FBF3F707FBCD
:10320000136685F83C6002F10C06B6FBF3F707FB8A
:103210001366171DB7FBF3F455F8266004FB13740F
:1032200055F82440344402F10D06B6FBF3F707FBD2
:103230001366D71CB7FBF3F155F8266001FB137139
:1032400055F82110314401EB440102F10B04B4FBA9
:10325000F3F606FB1344561DB6FBF3F755F824406E
:1032600007FB136655F82660344404EB44042144FC
:1032700002F10A04B4FBF3F606FB1344961DB6FBF9
:10328000F3F755F8244007FB136655F826603444DD
:1032900001EB840102F10904B4FBF3F606FB1344CD
:1032A000D61D0832B6FBF3F755F8244007FB13662A
:1032B00000F1110755F82660344404EB84042144DE
:1032C000B2FBF3F404FB1322212355F8222002EB76
:1032D000420201EB4201421CB2FBF3F4B7FBF3F3F1
:1032E000696344EA441403EB4313121B05F14004E1
:1032F000FB1A54F8226054F8233085F8C8208E1B3E
:103300006644C5F8C46044F82010D5F8C400D5F868
:10331000B411A3EB6013052908D805F1CC000021F6
:10332000052903D040F821300131F9E705F1CC043B
:1033300005F1D406002717CC16C68AF80070191BB1
:10334000C5E93330801A00EB4100C01080FB00015A
:10335000000B40EA015095F8881105EB810201311C
:10336000D2F8E440C2F8E400B5F84222CAF804906A
:10337000B1FBF2F6001BD5F8804106FB121185F86F
:10338000881167F100010019D5F88441C5F8800162
:103390006141B5F8FE41CAF814300023C5F8841124
:1033A000AAF8084095F82E428AF80A4095F82F426C
:1033B0008AF80B40B5F83042AAF80C40B5F8324212
:1033C000AAF80E400DF0FEFDD5E9631395F8202212
:1033D000CAF8180005F50978C5E9630181424FF084
:1033E00000008AF8102028BF0120994288BF0127D9
:1033F00095F8B831012B36D1D5F8B431292B2ED31D
:10340000D5F8AC01814284BFC5F8AC110846B3F5CC
:10341000967F24D3002185F8B811C5F8B01102F0C9
:103420007F01B0F5487F6E4A85F82012014698BFAB
:103430004FF448714908904288BF42F21071A1EBE5
:10344000D1029208C80802EBD102B2F5AF7F98BF53
:103450004FF4AF72C5E965105308C5E967230DF055
:10346000FEFF0027AEE0D5F8B0213840B2F5967FD8
:1034700021D91923B2FBF3F404FB1323DBB9D5F8EC
:103480009431B3F5167F16D9D5F89841A3EBD30341
:10349000C5F89431A4EBD4041B1BC5F8984104EB88
:1034A0009303B3F5AF7F98BF4FF4AF73C5F89C316A
:1034B0005B08C5F8A031002853D0B5F8FC315F2077
:1034C0008D2B0AD303EB83136424B3FBF4F34FF681
:1034D000E0741C405F2C88BF1846824216D2D5E9A2
:1034E000650202EBD101A1EBD201401A0A4688BF66
:1034F00002EB9002B2F5AF7F98BF4FF4AF72C5E90F
:10350000661250084FF4D07168502AE0B1F5AF7FD1
:103510000BD3D5F89C01814207D300204B460DF018
:1035200085FF9AF80000E0B148E0D5E96523D5F8B9
:10353000A40103EBD104A4EBD303D21A1C4688BF29
:1035400004EB9204B4F5AF7F98BF4FF4AF746208F8
:10355000C5E96634B1F5967FC5F8A02128BF814240
:1035600034D895F81B02022828D3B5F8FC0128B3FB
:10357000A62148436421B0FBF1F1D5F8B00188429F
:103580001CD9D5F8A411B1F5967F17D3D5F8A02191
:10359000914213D3D5F8A821D5F8B4319F1AC21B94
:1035A000B5F84402824206D30120A9EB87030DF04F
:1035B0003DFFC5F8B0710020C5F8A4010DF04FFF24
:1035C0009AF8007007F00100BDE8FC87D5F8B40157
:1035D000C5F8A4114FF4D47196E700BFC4070020CA
:1035E000A18601002DE9F84305460C46480413D492
:1035F000A00024D4A0075CD460057ED4200500F18F
:103600000681200700F13B81600040F1F68009F05F
:1036100059FF24F08044F0E00DF020FEDFF81C1488
:103620000F6D3FB1D7E90A1202F0E04201F00A0142
:10363000891849D00DF0C3FF24F48044DDE0BB4875
:10364000DFF8FC73016841F080010160B87801285F
:1036500004D104200CF082F80020B8700DF0FEFDBB
:10366000064604200DF030FEDFF8D8130A689042B9
:1036700019D12A7EBAB1FA68AAB1DFF8C003806C0A
:10368000002800F09780C16840F603020988914243
:1036900006D0C06840F604010088884240F08A8065
:1036A00005F1140088E040F6C4120860C5E9042260
:1036B00084E004F009FCDFF88403006C002840F08B
:1036C0009D8024F0020498E0D7E90A65D7E90A1240
:1036D000AA43B143C7E90A120DF071FFB868002888
:1036E000AAD056EA0500A7D0D7F808C03869B7F9BC
:1036F000301032462B46E0479EE70DF0AFFD054601
:103700000CF08CFF002800F0B780CC48876B002FAE
:1037100000F0B280DFF828830420CB49002288F82B
:103720001800C6480DF078FB0DF06DFFC74803F098
:10373000CCFBC7480068006B8047C8F81000012523
:10374000042088F802500CF0EFF9386990F828103E
:10375000C8F80400490703D5436A042100229847AA
:1037600001200AF0DFF9D8F80400457607F0EAFEF8
:10377000D8F8040081680B461A465B684BB11E8876
:10378000A6F60306072EF7D805FA06F616F0830FFD
:10379000F2D0537B03F0F003013353730023FD6831
:1037A00053602D88A5F60305012D00F28A80C8F824
:1037B00010309FE005F110000BF008F930460DF0D5
:1037C000FEFE0CF0C9F978B12E6A28466FF48071BC
:1037D00000224FF00073B0479848806B10B109F099
:1037E00071FE01E044F00204EE6928460021002247
:1037F0004FF08063B04724F0005434B1974821461D
:103800002830BDE8F8430DF040BFBDE8F8838C4E8A
:10381000B078012804D104200BF0A0FF0020B07084
:103820000CF09AF938B170686FF4807100224FF093
:103830000073056AA847306950B185480068006B7D
:10384000804732697168801A000BC86000203061BF
:103850007A4D8149002228460DF0DEFA02203076AA
:10386000286C20B17D48022128300DF00EFF09F0B0
:1038700029FE24F40064C0E70DF0C5FE41E00DF020
:10388000EDFC05460CF0CAFEA0B1DFF8B48198F853
:10389000000000070ED498F9000000280AD46846FA
:1038A00007F044FF08B1009820B1DFF8B49199F80F
:1038B000610048B30DF0A7FE09F004FE24F00804EF
:1038C0009BE7034633F8385FA5B190F8445090F871
:1038D000456005F0F00580F8445006F0F00501352C
:1038E00080F8455000255360C5634587507B00F044
:1038F000F000507357480022C261016001200CF0B3
:10390000CFFF24F4806478E700260127602E0FD0D3
:1039100009EB0600817A31B18772407A07FA00F02C
:10392000C0B20BF035FF2036F0E700BFCC210840D5
:10393000032088F81800454803F0C7FA0DF063FE2D
:10394000444F3E4D0022786900207861F968F860A4
:10395000284644490DF060FA3D480068006B8047F6
:10396000D8F80C10D8F82020411A02EB1130B0EB37
:10397000113F38BF4FF0FF3098F82410C8F82000EE
:1039800021B1D8F80810B0EBC12F20D90CF098FF66
:10399000B8B140F60900414621F83C0F00204880AC
:1039A0004A7B02F0F00201324A730A7B02F0F00215
:1039B0000A734860F8613960B8F83E0010F4406F4F
:1039C000FAD00020C8F82000012088F824000AF06E
:1039D0005BFD254800210160022000210CF060FF02
:1039E00002200BF0BBFE102007F058FC98F80100F5
:1039F00020B9D8F8040050300DF043FE1B48807801
:103A000010B90D2007F04AFC98F8250028B10020D5
:103A100088F8250005200BF0A1FE002088F818008A
:103A20001348C8F81C000220B5F85610B5F8542009
:103A3000914208BF072009F0C7F93DE7640600205E
:103A400048030020A0080020F905010054C400200C
:103A50008C0100100010044085980000E80400204C
:103A600070C2002029D50000000004607C330100F2
:103A7000759300000A2070472DE9F04792B00CAD15
:103A8000182128460DF0BFFA002476208A212A4604
:103A90001723CDE90A44CDE90844ADF81C4006944B
:103AA0000BF048FD002851D008AA7620E1210E2312
:103AB0000BF040FD00284BD006AA762000210523FC
:103AC00000240BF037FD002840D00DF117027620BE
:103AD000F02101238DF8174001240BF02BFD9DF8F8
:103AE0001700022807D0BDF8341046F2A810814212
:103AF0002CBF00240124DFF89893BDF82800A9F812
:103B00001400BDF8300089F80140A9F816009DF8AE
:103B1000320089F8020014B30D99DDF83A20BDF89F
:103B20003E3005F11500C9E90621BDF83810A9F8A5
:103B30000330A9F80510BDF84210A9F820109DF82F
:103B4000441089F8071009F108011FE0D04801E08E
:103B5000CF4800240470204612B0BDE8F0870D99CC
:103B600005F11600C9F822109DF8381089F80910DF
:103B7000DDF83A10C9F82610BDF83E10A9F80A1071
:103B8000DDF84210C9F82A1009F10C0100789DF8FF
:103B900020209DF821309DF822409DF82350087088
:103BA0009DF91C10102089F80D50099D91FBF0F033
:103BB000C9F80E5089F81200100140EA1310A9F854
:103BC0002E0003F00F0040EA0410A9F830009DF920
:103BD0002C000CF023F99FED8A0B0DF0ADFC9FED4E
:103BE0008A0B0DF0B5FC0446BDF92A000F460CF017
:103BF00015F99FED870B0DF09FFC9FED870B0DF0E6
:103C00009BFC9FED870B0DF0A3FC9FED870B0DF048
:103C100093FC9FED870B58EC106B3246434602F045
:103C2000D4FE02460B46204639460DF036FD0446CA
:103C30009DF92D000D460CF0F1F89FED7F0B0DF076
:103C40007BFC9FED7F0B0DF077FC22462B4602F0AC
:103C5000BCFE05469DF81A0001240F46000964F3D6
:103C60009F000CF09DFE9FED780B02460B4651EC39
:103C7000100B0DF010FD02460B46284639460DF09C
:103C80000CFD07469DF918000D460CF0C7F89FED96
:103C9000700B0DF051FC3246434602F096FE024690
:103CA0000B46304641460DF0F6FC02460B463846C0
:103CB00029460DF0F2FC9FED680B0DF049FC9FEDDD
:103CC000680B0DF039FC9FED680B06460D4657EC6E
:103CD000108B42463B4608F0B6FA9FED650B002874
:103CE0001CBF3D4646463046294657EC108B42469F
:103CF0003B4608F0CFFA00281CBF3D4646463046FA
:103D000029460AF071FD634D024676205A21A847E4
:103D1000762064215922A847762071211022A847D5
:103D2000762072210122A847762074215522A847C7
:103D300059480CF067F901AD112128460DF063F9DF
:103D400076201D212A4611230BF0F4FB00284CD0CD
:103D50009DF811009DF81250800050EA951A44D049
:103D600099F912000CF05AF89FED430B0DF0E4FBAB
:103D70009FED430B0DF0ECFB0246484805F00F07A2
:103D80000B4600EBC7000DF081FA054644480E468D
:103D90002A46334600EBC7000DF078FA0746AAF52D
:103DA000007088460CF03AF802460B462846314629
:103DB00002F00BFE02460B46384641460DF06BFC06
:103DC0009FED310B80460E4657EC105B2A463B4672
:103DD00008F060FA48B1404631462A463B460DF0AD
:103DE0005AFC08F0B9FFC9F834007620712100228E
:103DF0000BF020FE89F80040ADE600BF00BF00BF19
:103E0000000000000000B03F0000000000804840BB
:103E1000000000000000003FFCA9F1D24D62403FCD
:103E200055C1A8A44E40633F00000000000074404C
:103E3000000000000000F03F000000000000503FC4
:103E400000000000000038400000000000001040AA
:103E5000FCA9F1D24D62603F00000000000039C0B3
:103E60003333333333330B400000000000000000D5
:103E70000000000000E06F4000000000000014405F
:103E80000000000000F094400000000000408F405F
:103E90005007002035FA000020BF0200A8230100CF
:103EA00028240100F0B597B00EAC20460DF04EFA74
:103EB0004FF4E130214614900220ADF83800002084
:103EC00003F064FAAA4FAC4EF861AA48B047AB4C75
:103ED0002046B047AA48B047AA48B0472046B04756
:103EE0000BAC20460DF05AF8204601210DF076FA71
:103EF000204601210DF0E1FBA348214648300BF09C
:103F0000E3FCA24821460BF0DFFC20460DF0D3FB7A
:103F10009F48B0470BF0A4FC132001210DF088F856
:103F20001C2001210DF084F89A4C2046B0479A4895
:103F3000B04706F035FC2046B0479848B04709F036
:103F40005BF92046B0479648B04796480CF0E8FC2D
:103F5000954D0021002228460CF04CF905F11C007B
:103F6000002100220CF046F92046B0478F48B047A8
:103F700006F0C6FE7220642159220AF0D1FD38787D
:103F80008B49085C0CF0BAFE2046B0478948B04720
:103F9000022006F08BF938B1FA2004219622322350
:103FA00007F07CFA854800E08348B0478448B04772
:103FB000FFF762FD844C0028824D204618BF28463A
:103FC000B0478248B04707F09FFC7248B04780482E
:103FD000B04701F0E1FD002818BF2C462046B0474D
:103FE0007C48B04702F0C8FDA8B17B48B0470DF04F
:103FF000D1F90021794A8DF8061000F00F0100096F
:10400000515C105C8DF805108DF8040001A8B047D4
:104010007348B04702E06C480CF0C8F97148B047EB
:1040200071480CF01FFB5B48B0477048002100242A
:1040300009F074FF6E4800210BF0C2FE6D480021AC
:1040400008F0E2FD6C48B04707F010FC5A49002820
:1040500018BF29460846B0470DF12A050DF129067B
:104060008DF82B408DF82A408DF829400DF12B0456
:104070000DF0EBF90DF0E9F94B4C20460CF03EFD4C
:104080000028FAD05D480CF091F901AC0DF0B2FABD
:104090000DF07AFA0DF0FCF9042069460DF070FA83
:1040A000574A09A80DF060FA18B156480CF07EF98D
:1040B000FEE701AC20460DF0FCFA53480CF076F90F
:1040C0000DF098FA0DF060FA0DF0E2F90320694660
:1040D0000DF056FA4D4A08A80DF046FA18B14C48B2
:1040E0000CF064F9FEE701AC20460DF0E2FA494815
:1040F0000CF05CF90DF07EFA2046012101250DF04F
:1041000067F90DF0C5F9022069460DF039FA424A07
:1041100007A80DF029FA18B140480CF047F9FEE75E
:1041200001AC20460DF0C5FA3D480CF03FF90DF00A
:1041300061FA0DF029FA0DF0ABF9694620460095B9
:104140000CF022FF374A06A80DF00EFA18B13648D7
:104150000CF02CF9FEE701A80DF0ABFA33480CF097
:1041600025F933480CF022F9002017B0F0BD00BF4C
:104170001804002076360100AD0301003627010047
:104180006D260100B0260100640200200C0600200C
:10419000172A0100F7350100A12501002E2D01008D
:1041A000202B010034A80020F00100206F2901001D
:1041B00080350100312E01000E3501005032010022
:1041C000482C01004D350100F0320100862D010020
:1041D000782C0100542B01001D330100BD32010079
:1041E000A4360100AA2901007D13010018B70020A0
:1041F000509A0020A0C30020BA280100832A0100A1
:1042000041600000142F0100E1290100EDA0000031
:10421000F02E01004D2A0100CDA10000A72C0100C5
:104220007C28010041000000D42C01003C28010042
:10423000B62B0100002800F08781002900F084815E
:10424000002A00F081812DE9F04FAAB0BF4B019206
:10425000BF4A6FF03F074FF040094FF02A0C1C682F
:1042600044F080741C60136843F0010313605268CB
:10427000B0F8FE510092002D08BF4FF44875B1F818
:1042800008B0BBF1000F08BF4FF4487BABEB050350
:104290009B0193FBF5F313F1400FD8BF3B46402B36
:1042A000A8BF4B46B0F800821E93B8F1000F08BFBC
:1042B000A846ABEB0804A40194FBF5F414F1400FFD
:1042C000D8BF3C46402CA8BF4C461F94D0E9654A55
:1042D000002C08BF4FF47A7491F810E05FEA0E7278
:1042E00012D48B695B01B3FBF4F3A3F1200C02231E
:1042F0009CFBF3F313F13B0FD8BF6FF03A03452B50
:10430000A8BF4523A3F1050C8B89924ECDF880C040
:10431000DFF850C206EB8313322693FBF6F38E4E82
:10432000402BA8BF4B462393CB8906EB83132A2649
:1043300093FBF6F34FEA8A16402BA8BF4B46249313
:10434000631C96FBF3F616F1400FD8BF3E46402E95
:10435000A8BF4E462696D0E93306801B202690FB48
:10436000F6F010F1400FD8BF38464028A8BF4846A5
:104370002590A4EB0A00800190FBF3F0784B10F13C
:10438000200FD8BF6FF01F006028A8BF6020203822
:1043900022904869400190FBF4F010F14C0FD8BF17
:1043A0006FF04B003428A8BF34200C302190C87A1D
:1043B0006A4901EB8010232190FBF1F000B210F16B
:1043C000400FD8BF38464028A8BF48462890A800CC
:1043D0000521B0FBF1F0A0EB0B00800190FBF5F0A4
:1043E00010F1400FC8BF074608EB0B00402FA8BFD5
:1043F0004F46002A48BF6FF0200727978001A0EBA7
:10440000C51090FBF5F010F1360FD8BF6FF03500F6
:104410004A28A8BF4A205FEA8E614FF0000E4FF095
:10442000300158BFA0F10A0129910EA91EADBEF1BD
:10443000100F14D05CF82E6000270C2F06D0DC572C
:1044400055F82700013700FB0466F6E7B7110C3377
:1044500027EAE67641F82E600EF1010EE7E7424CBE
:10446000DFF808C14FF0000E02A8BEF10C0F14D007
:104470005CF82E600027102F06D0E55751F8273042
:10448000013703FB0566F6E7B711103427EAE67635
:1044900040F82E600EF1010EE7E7364B344DDFF8A1
:1044A000D8E04FF0000800279C46052F19D05EF891
:1044B000276000240C2C06D0295750F82420013402
:1044C00002FB0166F6E7B3EBA61FB8BFB311BCEB66
:1044D000A61FBEBF6346B8464FEAA61C0C3501377F
:1044E000E3E71B4840680099401A03D04CF2513171
:1044F000884201D340F28C50019C204A5FFA88F137
:10450000606084F800801830525C80B26270E268AB
:104510000132E2603022B0FBF2F01022A060ACEB7E
:10452000030090FBF2F010F1110FD8BF6FF01000F4
:104530001128A8BF11205230A07011B1206901309C
:1045400020612AB0BDE8F04F704700BFFCED00E0ED
:10455000001000E080F3FFFF80F5FFFF00EEFFFF9B
:1045600001200100BC270100C1200100E82B01004F
:10457000F728010001000080003201006C360100C4
:104580002DE9F0412DED0C7B4FF00008002800F0E4
:104590006181B34E04463078002800F05B81002032
:1045A0000821CDE90000684608F07AFC8046002822
:1045B00000F050819DF805009DF80410B1EE002A2E
:1045C00041EA00220007A74913466FF3DF2348BFE3
:1045D00042EA01039DF800009DF8012000EE103A28
:1045E0009DF8037096ED019A96ED028AB8EEC01A16
:1045F00096ED030A9DF8023040EA0225120728468C
:1046000011EE020A6FF3DF2048BF45EA010001EE18
:10461000100A43EA0720B8EEC11A3B07024611EE22
:10462000029A6FF3DF2248BF40EA010201EE102A2E
:104630009DF80600B8EEC11A9DF8072011EE028A17
:1046400040EA02231207184628EE081A6FF3DF200B
:1046500009EE091A48BF43EA0100B17800EE001ADA
:10466000B1EEC12A9FED801A82EE012A81B396ED48
:10467000054A96ED065A96ED073A39EE446A38EE49
:10468000457AB0EEC66A0CF097FDC8BFB0EE476A37
:1046900030EE437A0CF090FDC8BFB0EE476AB3EE3F
:1046A000007AB4EE476AF1EE10FA1AD5BFEE006A4E
:1046B0009FED6E7A32EE066AB0EEC66AB4EE476AD5
:1046C000F1EE10FA0DD59FED6C6A9FED6C7A0CE05F
:1046D000012186ED059A86ED068A86ED070AB170FE
:1046E00015E09FED636A9FED637A28EE068A29EE56
:1046F000069A20EE060A05EE078A04EE079A03EEF4
:10470000070A86ED068A86ED059A86ED070A4F3878
:104710009FED5B4A9FED5B5A00B203EE100AB8EEC4
:10472000C33A03EE045AB0EEC83A9FED574A84EDFF
:10473000065AB2EE085AB4EE453AF1EE10FA48BF06
:10474000B0EE448ABDEEC83A13EE100AB0EEC93A94
:10475000B4EE453AE080B3EE005AF1EE10FA48BFED
:10476000B0EE449ABDEEC93AB5EE408AB0EE404A8A
:1047700013EE100AB0EE403AF1EE10FAB5EE409AA0
:10478000A08008BFB0EE413AF1EE10FA08BFB0EEDB
:10479000434A9FED3E3A30EE033AB0EEC33AB4EEF0
:1047A000453AF1EE10FA48BFB0EE440ABDEEC03A09
:1047B0009FED2E4A13EE100ABFEE003A32EE033A96
:1047C0002081B0EEC33AB4EE443AF1EE10FA09DAC1
:1047D00028EE082A09EE092A00EE002AB1EEC22AC4
:1047E00082EE012A20EE00AA84ED032AB0EE4A0AE6
:1047F00008EE080AF1EEC00AB0EE490A04F0C2FF62
:1048000009EE09AA9FED22BA20EE0BCAB0EE480AC3
:10481000F1EECA0A84ED04CA04F0B4FF9FED1D1A3C
:1048200020EE0B0AB0EECC2A84ED050AB0EEC00AE9
:10483000B4EE412AF1EE10FAB4EE410A44BF002072
:104840002061F1EE10FA44BF002060610B2008F0F7
:1048500063FF20774046BDEC0C7BBDE8F08100BFD4
:104860008807002000F0FFFF00007A448FC2753DEA
:104870006666E63ECDCC0C3F295C8F3D7B146E3FD7
:10488000B81E853D0000C4410000000000007AC44D
:10489000E02E6542CDCC8C3F2DE9F84F2DED181B55
:1048A000229D0C4601460020002D00F04081239EF1
:1048B000002E00F03C810846079209930BF0AEFAF7
:1048C0009FEDA10B53EC102B069208930CF0E3FE26
:1048D00095ED120B02460B46CDE90A3251EC100B56
:1048E0000CF0DBFE054620460E460BF097FA044618
:1048F0000F462846314622463B4602F066F89FEDB9
:10490000940B82468B4655EC100B9FED930BEE0FEC
:104910000D90504658EC109B66F3DF714A464346B3
:1049200007F091FC002840F0018122984A46434656
:1049300090ED080B51EC100B059166F3DF710490BC
:1049400007F081FC002840F0F1802298DDE90A326E
:1049500090ED140B51EC100B0CF09FFE22463B46E1
:1049600002F033F80F4666F3DF714A4643460446C9
:1049700007F069FC002840F0D980DDE90A105246B2
:104980005B460C960CF087FE9FED750B5AEC10BB46
:104990005A4653460CF081FEDDF88880039798ED67
:1049A0000A0B98ED0CBB98ED0E9B98ED108B53EC19
:1049B000102B02F005F8DDE904230CF06CFE9FEDEE
:1049C0006AAB53EC1A2B02F000F89FED690B0591CE
:1049D000814653EC102B01F0F8FF02460B462746A8
:1049E00004460E460CF059FE0CF05CFC0CF05AFC30
:1049F000CDE90A100998079908440BF00FFA9FEDCA
:104A00005E0B0CF09DFD069A089B0CF044FE039B88
:104A10003A460CF040FE5A4653460CF03EFE98EDE6
:104A2000160BCDE9081051EC1B0B0CF089FD9FED26
:104A3000540BCDE906100599484653EC102BCDE9EF
:104A4000043201F0C2FF9FED500B9FED51BB9FED73
:104A500052CBCDE9021051EC180B4FF0030BCDE90E
:104A6000001059EC108BBBF1000F65D0DDE904326A
:104A700051EC1A0B01F0A9FF02460B46DDE90010CC
:104A80000CF00BFE42464B4601F09FFFDDE902327F
:104A900004468A4651EC190B0CF0FFFD22465346A2
:104AA00001F093FF02460B46DDE906100CF0F5FD20
:104AB00004460C980E4653EC1B2B60F3DF71204626
:104AC00007F0E8FB0746DDE90810224633460CF004
:104AD000E2FD02460B46002F08BF2B460D9C08BF87
:104AE0002246DDE90A1001F070FF22462B4641EC18
:104AF000180B07F0CFFBB0B1B0EE480AF0EE680A31
:104B000002F076FE02F074FE53EC1C2B51EC100BFD
:104B100001F05BFF229A92ED180B53EC102B01F081
:104B20004FFF41EC1A0BABF1010B9CE70020BDECF1
:104B3000181B01B0BDE8F08F51EC1A0B08F00CF90E
:104B4000239908600120F2E70000000000002840DF
:104B500000000000000000008DEDB5A0F7C6B03EDB
:104B6000000000000000204100000000000039406B
:104B70006666666666127140000000000000E03F55
:104B800000000000000039C0000000000000F03FFD
:104B900011EA2D819997713D66666666661271C04D
:104BA000AC490246002818BF0120097808400128B6
:104BB00040F04F812DE9F84F2DED0C3BCDE902027D
:104BC0002C2008F0A9FD01902D2008F0A5FDA24C95
:104BD00000902D200021A0472C208321A0472D20CC
:104BE0002221A0474CF250300BF00CFA1020002686
:104BF0004FF00008002500283FD0CDE90406002032
:104C00000621ADF82400089008A808F049F92E46BE
:104C10009DF820A09DF821B09DF822409DF82370BA
:104C20009DF825909DF8245042F210700BF0EAF99F
:104C300045EA09205FEA0972884B01466FF3DF21DC
:104C400048BF40EA030144EA0720751801463A07C5
:104C50006FF3DF2148BF40EA03014AEA0B20884492
:104C60005FEA0B7201466FF3DF2148BF40EA0301A0
:104C7000DDE904060E440138BDE700EE105A01EEEE
:104C8000108A02EE106A9FED768A039801210BF0DC
:104C900096FF80ED002A80ED011A80ED020A2E2099
:104CA00009F029FA4CF250300BF0ACF910204FF01B
:104CB000000B00240026002842D0CDE9040B002080
:104CC0000621ADF81C00069006A808F0E9F8B346E6
:104CD00026469DF818709DF819509DF81A809DF889
:104CE0001B909DF81DA09DF81C4042F210700BF027
:104CF00089F944EA0A205FEA0A72584B34460146B1
:104D00006FF3DF2148BF40EA030148EA09200BEBBB
:104D100001065FEA097201466FF3DF2148BF40EAEE
:104D2000030147EA05200C442A0701466FF3DF21FF
:104D300048BF40EA0301DDE9040B8B440138BAE7C0
:104D400001EE104A00EE106A02EE10BA039D2E200A
:104D5000002100240BF033FF85ED032A85ED041AB2
:104D600085ED050A09F0C7F995ED000A95ED033ABE
:104D700095ED022A95ED055A95ED011A95ED044A37
:104D8000002000210022002333EE400A9FED353A37
:104D900035EE422A34EE411A9FED344A82EE032A60
:104DA00080EE030A81EE031A9FED2F3AB4EE432AF8
:104DB00085ED082A85ED060A85ED071AF1EE10FA51
:104DC000B4EE442A9FED2A2A98BF0120F1EE10FA92
:104DD000A8BF0121B4EE421A9FED262A0840002107
:104DE000F1EE10FA85F82600A8BF0121B4EE421AB0
:104DF000F1EE10FA98BF0122B4EE430A11400022EE
:104E0000F1EE10FAB4EE440A85F8251098BF01229D
:104E1000F1EE10FAA8BF01231A4085F8242018BF2C
:104E2000002900D0044685F827400B4C2D20002196
:104E3000A04701992C20A04700992D20A04744F6B7
:104E400020600BF0DFF80298BDEC0C3B01B0BDE830
:104E5000F04F704788070020F7E0000000F0FFFFE8
:104E60000000803D00007A4333333340CDCC4C3ECC
:104E7000333333C0CDCC4CBE2DE9FE4F0746086816
:104E80000024B0B1D7E9018A0E460CF0E7F981465B
:104E9000D8F8E800082888BF0124B068204202D171
:104EA0007068204208D00320307448460CF087FB1D
:104EB00000242046BDE8FE8FD8F8C01069B198F8EC
:104EC000F8100029EFD006213174D8F8C410C8F8C2
:104ED000C4604E6198F8FC100DE000210522C8E97D
:104EE0003066C8E93411C8E9361198F8FC10002979
:104EF00008BF0122327400220129726109D1022007
:104F00004FF4E02188F8FC0098F8FB000AF0F4FD6B
:104F1000706889490138884205D804200AF004FEE7
:104F200006200AF001FE02200AF0FEFD98F8F800C3
:104F300040B9DAF83C003168814203D298F8FC00AD
:104F400000286CD0D8E9361009B118B900E028B3B0
:104F50000CF0EEFADAF80000416941F0010141611C
:104F600048460CF02CFB98F8F80008B10124A0E7A3
:104F700008F16C05D8F8EC1028460CF0B6FA0028B9
:104F8000F4D0D8F8C00003210174384606F0B4FF0D
:104F90002846002100240CF0A8FA8AE79AF80400B9
:104FA0000CF05BFB654CDAF810100222206991FAD4
:104FB000A1F1B1FA81F14368D8F8CC0040680068EB
:104FC00098472069DAF8141002224368D8F8CC0018
:104FD00091FAA1F1B1FA81F14068006898479AF816
:104FE00004000BF0DDFB9AF804000CF038FB0CF029
:104FF0009FFA0020C8F8E000D8F8C0000068B0F5BB
:10500000806F01D90CF094FA98F8FE000028A1D125
:10501000DAF80000416841F0020141609AE798F82F
:10502000F90020B1D8F8EC0001307FF48BAF48468E
:105030000CF0C5FAB2683AB1D8F8E80002210928A4
:1050400038BF0121009103E008F1F4020020009034
:10505000746834B1D8F8E8000227092838BF01275E
:1050600002E008F1F6040027DAF80000334D416849
:1050700041F002014160D6F800B0D946BBF1000F03
:1050800040D0D8F8E800019209284FF0010011D271
:105090002A68B9F1000F1FD0C0071DD02178DAF8B7
:1050A00000009268904700281EBF3C44A9F1010906
:1050B0000120EDE72A68B9F1000F16D0C00714D01F
:1050C0002188DAF800009268904700281EBF3C440F
:1050D000A9F101090120EDE7DAF80000D26802A980
:1050E0009047DDE90120107007E0DAF80000D2688F
:1050F00002A99047DDE9012010800098ABF1010B77
:105100000244BBE7D8F8F000DAF80010CA680240A1
:10511000102802D1002AF9D101E0002AF6D07068E7
:105120000BF0B2FAD8F8C0100020C8F8C400C8F8D4
:10513000C00008741AE700BFFEFFFF0FC401001093
:105140002DE9F04F8DB0044600209A4616460F46D2
:10515000CDE90B00CDE909008A488568804607F053
:10516000E3F91C2803D007F0DFF91B281BD1308896
:1051700040F60201884218BFB0F5C15F03D1F07B51
:10518000022810D93EE043F6070188420BD196F879
:105190002400032807D330697B4940F0806020F069
:1051A000604088422ED100206FB366B3387825FA6C
:1051B00000F0C00726D0304600210CF052FA7348A8
:1051C000C4E90176006880B109A800900CA90BAA77
:1051D0000AAB304603F098FD0B980B214FF6FF7297
:1051E00050230BF0FDFAFF280CD00CF037F8684F75
:1051F00006467878012802D840B1012070E0304698
:105200000CF0DDF900200DB0BDE8F08F03F0F0FCEC
:1052100060480DF10409016841F0020101605E4837
:10522000C8F8000048460BF073FFDFF870B15D4925
:105230004A469BF801009BF80050039058482830DC
:105240000AF03CFA584859494A460AF037FA4846A3
:105250000BF0F6FEDFF85881564A19214B460295AD
:10526000404609F0A9FE544A08F11C001A214B4699
:1052700009F0A2FE514852490CF06EF951485249CA
:105280000CF06AF95148006810F4402F06D0504ADB
:1052900007F12800042100230BF08AF99BF8020093
:1052A00010B10D2005F0F2FE08F140000BF0BFFD3B
:1052B00008F138000BF0BBFD464900200722387684
:1052C000B8843862386181F860200521C7E902108E
:1052D0004149F9613870042000210BF0E1FA787837
:1052E0002F4941F820400130787030460CF067F9C2
:1052F000BAF1000F02D0DAF8000008E00DF1040A5C
:105300003649202250460CF0DDF94FF0FF30DAF834
:105310000420BAF81010DAE90635002AB2FA82F64B
:1053200008BF40F6C412206001207609618325631E
:1053300060762B4826764FF4FA766261C4E9036200
:10534000C4E90700C4E90903DAF80C0000B12062DF
:10535000DAF8140000B16062DAF8080000B1E06128
:1053600004F13800C8210BF04EFE04F1500000217A
:105370000BF0B6FA1B4904F1B8000CF0EDF820462A
:1053800041E700BFCC2108400F0000056408002061
:105390004803002000200940110000E07C33010098
:1053A000E8040020E10A0100DCC4002045AC000054
:1053B0006406002029D50000E5C8000098C400203C
:1053C000D505010054C400208D0A0100B44F0050DF
:1053D000CDDE000070C2002075930000BC2F0100DC
:1053E000A7BC00001F1601002DE9F84F2DED028B20
:1053F000A6B058EC104B9FED9A0B074600208A464A
:105400000B902046414656EC105B2A46334606F088
:1054100027FF9FED950B00281CBFB0462C46204669
:10542000414648EC184B53EC102BCDE9053206F001
:10543000FDFE48B9B0EE480A0BA8F0EE680A07F086
:105440000FFF0B9801380B908DED088B8B4A8A4922
:105450009DF8270080F080008DF8270030208DF81F
:105460003000387B412808BF0A46059E069D0792FA
:10547000204641462A46334606F0E5FE08990028B4
:105480002A46334608BF2146099808BF404640ECEB
:10549000181B4146204606F0C9FE0DF1300BBD68D1
:1054A00004970BF1010698B9B0EE480A25A8F0EE72
:1054B000680A07F0D5FE2598B0EE480AF0EE680AB3
:1054C000C0F1010003F0D0FEB0EE408AF0EE608A39
:1054D00058EC189B4846414609F086F93146044687
:1054E00008F0A4FB074620460AF098FC02460B464B
:1054F0004846414601F064FA41EC100B0135CDE914
:1055000002762DD39FED5A1B06EB070BCDF804A0B6
:1055100058EC114B59EC10ABDDE9053250464946C9
:1055200006F084FEC8B950464946224643460CF070
:10553000B4F805460E4609F057F907460AF06EFC26
:1055400002460B462846314601F03AFA41EC100B70
:105550000798C05D0BF8010BDCE7DDF804A039E02B
:105560009FED431BBB4459EC118BD5B151EC100B93
:1055700042464B460CF091F806460F4609F034F9C6
:1055800004460AF04BFC02460B463046394601F011
:1055900017FA41EC100B0798013D005D0BF8010F65
:1055A000E3E75C46079D14F8011928460BF0C0FD9F
:1055B000401B08280EDB049EDDF80880079F0025AD
:1055C000217838460BF0B4FDC01B0E2806DD04F828
:1055D0000159F5E7049EDDF8088003E007990844C7
:1055E000407820700020702152468BF80000307BFC
:1055F000412808BF50210B9808F02FFDB268039C8A
:10560000501C04D120460BF0F3FD421EB260204630
:10561000414653460AF0F0F8B06808B1012202E0B2
:105620003068C0F3C00220464146534607F0B4FA42
:10563000DAF800007822411ECAF80010317B4129B7
:1056400008BF58220270DAF80000411ECAF80010A4
:105650003021017026B0BDEC028B01B0BDE8F08FA7
:10566000000000000000F0FF00000000000000004B
:1056700000000000000030409B320100AC3201000D
:105680002DE9F04F85B004468A46002B1846214686
:1056900018BF0120002C18BF012108400E990029D5
:1056A0000D4618BF01252840012840F02D810490A7
:1056B00098892588277FA84205D26588A8423D465B
:1056C00098BF002500E00125BD4203D10025A77742
:1056D000657711E0A67FB5420BD1667F94F804C0D0
:1056E00001366677F6B2664506D3002625772F4643
:1056F00001E00126A5776677012F12D16425B0FB62
:10570000F5F5EEB242F20F75A84288BF642693ED1C
:10571000020A94ED021A03960BF08DFE16D50120B5
:105720001AE001254FF0000EA4F81F50BAF1000F47
:1057300084F821E093ED020A2FD09AF834024FF05A
:105740004009002660F07F0E00202AE094ED031A45
:105750000BF071FE02DB002084F8200094ED041AA7
:105760000BF069FE01DD012005E094ED051A0BF058
:1057700062FE02D8002084F8210094F82050012D08
:1057800003D102204FF0020C18E094F82100012808
:1057900009D105204FF0050C10E0002001264FF044
:1057A000000903902BE094ED061A0BF044FED9BFDC
:1057B00003204FF0030C04204FF0040CE077BAFAFA
:1057C0008AF04609BAF1000F0BD09AF834E25FEA8A
:1057D0008E600AD40EF003001EF00C0F18BF0430C8
:1057E00006E04FF0000E002002E06EF07F0E402039
:1057F00040EA051094F8215040EA45196546A7F1A2
:10580000010CDAB102F6985090ED033A90ED022ABD
:1058100090ED001ABDEEC33ABDEEC22A13EE100A97
:10582000019012EE100A029092F8AC0D01280ED1F0
:10583000032049F008094FF001080CE000209FED1B
:10584000341A4FF000080290CDE9000004E092F80D
:10585000A80D4FF0000800905A7DBCFA8CF0012A88
:1058600001D19A7D0AB909F180094FEA501C1868E4
:105870000860608C013019F03F026084888018BF96
:10588000012236B100274FF448764B204FF0000B31
:1058900007E0BAF830B2BAF83272BAF82C629AF865
:1058A0002E02CD76039D81F82A2081ED070A81F82A
:1058B00019C081F8188081ED041A81F80EE0A1F872
:1058C0000CB04F810E818871A1F828902C228D7622
:1058D000019DCD82029D8D82009DCD735868086226
:1058E00004F1280093ED040ABCEEC00A81ED090A18
:1058F0000BF0E8FE606D013060655FEA8960049836
:1059000002D0A16D0131A16505B0BDE8F08F00BFE7
:1059100000000000002800F0208170B52DED108BF4
:105920000D46002900F015811446002A00F011816F
:105930000646204644210BF066FB9FED921AB01DEF
:105940009FED910A29460246B0EE412AB0EE413A57
:10595000B0EE414A71B3B2F9023005EE103AB2F935
:105960000030B8EEC55A06EE103A32F9023CB8EEF5
:10597000C66A07EE103A931DD3ED000AB8EEC77A57
:10598000F5EE400AF1EE10FA09D866EE060A47EE87
:10599000070A45EE050AF1EEE00AC0EE800A31EE94
:1059A000201A32EE052A33EE063A34EE074A013960
:1059B0002032CFE705EE105AB8EE45EA82EE0E8AA5
:1059C00081EE0E1A83EE0E9A84EE0EDA9FED6D2AAA
:1059D000B0EE423AB0EE424AB0EE42FAF0EE428AFF
:1059E000B0EE425A84ED00DA84ED019A84ED028A29
:1059F00084ED031A002D52D0B0F9021006EE101AF1
:105A0000B0F90010B8EEC66A07EE101A30F9021CA1
:105A1000B8EEC77A00EE901A811DD1ED001AF8EEAB
:105A2000E00AF5EE401AF1EE10FA09D867EE071A0F
:105A300040EEA01A46EE061AF1EEE11AC1EE801A07
:105A400077EE492A70EECD4AB0EEC77AF0EEE00A62
:105A500071EEC11A013D2030F0EEE23AF0EEE45A68
:105A600030EE877A01EEA14A02EEA22A04EEA45A91
:105A700075EEA33A76EE485AB0EEC66AF0EEE56AE5
:105A800037EE066A05EEA53A86EE006A73EEA63A90
:105A9000C3EE803A78EE868A3FEE23FAAAE784EED8
:105AA0000E1A82EE0ECA85EE0E0A83EE0EBA9FED36
:105AB000373A3CEE002A84ED071AB1EEC01A84EDA5
:105AC000040A84ED05CA84ED06BA3BEE022A82EE92
:105AD00003AAB4EE411AF1EE10FA84ED08AA3DD6FD
