:1000000000380120C1D400004DDC00004DDC0000B0
:100010004DDC00004DDC00004DDC00004DDC00003C
:100020004DDC00004DDC00004DDC00004DDC00002C
:0C0030004DDC00004DDC0000057B0000F2
:10004000ECB00DF0B7FC229064A9DFF81C9EDFED48
:10005000B68A00244FF0010A0DF1980B0DF58C784B
:10006000881D149001F10A001390B0484830159093
:10007000002021902390D9F818008DF88F416294C8
:100080000DF28F11012262AB0DF0A1FF083003D1F8
:10009000D9F818000CF0ACFF6298002800F0E98154
:1000A0009DF88F110D2902D00A2940F08B802199EB
:1000B000002900F0DC8164A80129445400F08E80FE
:1000C000DFF8A81D05460BF0FAFF002800F0B58008
:1000D000DFF89C1D0EF0B7FD002800F0B880DFF8B7
:1000E000941D0EF0B0FD002800F0DB80DFF8881DC5
:1000F0000EF0A9FD002800F01B81DFF8801D0EF036
:10010000A2FD002800F00981DFF8741D0EF09BFDB0
:10011000002800F00281DFF86C1D0EF094FD00282D
:1001200000F0E485DFF8601D0EF08DFD002800F082
:10013000DD85DFF8581D0EF086FD002800F06D8685
:10014000DFF84C1D0EF07FFD002800F06C86DFF814
:10015000441D0EF078FD002800F06B86DFF8381D96
:100160000EF071FD002800F07686DFF8301D28467D
:1001700005220DF043FD002800F06086DFF8201D09
:10018000284605220DF03AFD002800F05786DFF8DA
:10019000141D284609220DF031FD40B1DFF8081D7D
:1001A000284609220DF02AFD002840F060812198A0
:1001B0000B2832BF002013980CF022FA89F80CA00B
:1001C00000F045BE219A48B212B31E2A00F25181B6
:1001D00064A9219A8854013221924AE19DF8900144
:1001E000A0F13101032937D9442800F0268157288E
:1001F00000F020815A2808D0642800F01E8177285A
:1002000000F018817A2840F0328189F80BA016E1BD
:1002100000282DD4A1F13102032A68D9422900F027
:10022000A685432904D0522900F0C6856329CFD181
:100230000AF060FCDFF8380D17E100200021219062
:10024000DFF80C0D89F80D100DF08CFD11E1DFF8D1
:10025000FC0C89F80DA008E1DFE811F004000201B0
:10026000F600FC00012007F095FEDFF8F80CFCE03A
:100270006FF0630151FA80F0A9F810002320A9F86B
:10028000140099F80500002840F0F18099F800006A
:10029000062840F0EC80B9F81000012109F06CFE4E
:1002A000E5E02546DFF8900CDFF8184CA0470EF08B
:1002B000A1FB0BF06DFCDFF8840CA04799F80D0052
:1002C000DFF87C1C0128DFF87C0C08BF0846A0473B
:1002D00058460EF097F9DFF8700CA0479DF898008B
:1002E0000BF056FCDFF8300CA0472C46BFE0DFE8EF
:1002F00012F00400860555057805012007F04AFE36
:10030000DFF8640C0AF014FADFF8600C0EF048FC19
:100310000EF05AF9DFF84C0C96E7402006F048FD45
:10032000DFF8CC0BA1E000BF00007A44640200209B
:10033000DFF8C00BDFF88C5BA847DFF8BC0BA847E1
:100340000EF05EFB0028DFF8B80BDFF8B01B18BF1B
:100350000846A847DFF8AC0BA8470EF045FB002184
:10036000DFF8A42B8DF81A1100F00F010009105CC2
:10037000515C8DF8180140468DF81911A847DFF837
:100380008C0BA8470EF024FBDFF8846BB047DFF836
:10039000840BA84717200EF0E5F8B047DFF8787B0C
:1003A0003846A847DFF8740B59460DF011FFDFF807
:1003B000700BA8472698B047DFF8680BA847279826
:1003C000B047DFF8640BA8472898B0473846A847DD
:1003D000DFF8580BA8470EF01FFBDFF8247B00283E
:1003E000DFF8186B384618BF3046A847DFF8400BD7
:1003F000A84799F80300002818BF37463846A84791
:10040000DFF8300BA8470EF001FB0021DFF8F82AD7
:1004100021918DF8721100F00F010009515C105C00
:100420008DF871118DF870015CA8A847DFF8E80A13
:10043000A8471EE0DFF81C0B17E089F80CA000208D
:100440002190C9F8240014E0032007F0A3FDDFF891
:100450000C0B0AE0042007F09DFDDFF8FC0A04E025
:10046000022007F097FDDFF8F80A0DF07BFC002072
:10047000219023984FF47A77002600F11005102E72
:1004800066D0DFF8980A5CA90BF0FCFB002861D06D
:1004900099F80200C0071BD089F80240B9F814008F
:1004A000B0B92320A9F8140099F8050080B999F88B
:1004B000000006280CD1B9F8100010B1B9F81000EE
:1004C00003E0DFF8A80A90F84300012109F054FD89
:1004D000B9F81400D8B1B9F814000138A9F814001B
:1004E000B9F8140098B999F8050080B999F8000096
:1004F00006280CD1B9F8100010B1B9F8100003E0CB
:10050000DFF8680A90F84300002109F035FDD9F8BA
:10051000180099F80D10012917D1B0B1DDE95E017D
:100520009DF874215C9B8DE80700DFF8482A584647
:1005300038210BF055FE012807DB0246D9F81800D8
:100540005946434646940EF080F90136C82796E78F
:10055000239502E023983044239099F80400C007C3
:100560007ED099F80D0001287AD1DDF854804046FC
:100570000EF03AFBDFF8F40989F80440D34690F80E
:10058000701090ED198A90ED1A9AB0F95CA0B0F94C
:100590005A50B0F95860404620910CF00FFFA04629
:1005A000DFF8D809DFF81C49A04700EE106ADFF831
:1005B000D0690EF097FADFF8CC09A04700EE105A88
:1005C0000EF090FADFF8C009A04700EE10AADA4654
:1005D0000EF088FADFF8B409A047DFF8EC58B0EE67
:1005E000480AA847DFF8A809A047B0EE490AA8477B
:1005F000DFF8A009A0472098DFF814B9C0F38010F5
:10060000D847DFF89409A047DFF89069306ED847E3
:10061000DFF88C09A04796ED190AA847DFF884098E
:10062000A04796ED1C0ADFF88059A847DFF87C093F
:10063000A04796ED1E0AA847DFF87409A04796ED7B
:100640001F0AA847DFF86C09A04796F85000D84762
:10065000DFF898080DF1980BA04744460DF58C780B
:100660000DF0A8F90646229841F28831301A8842E6
:10067000C0F085808DF898408DF818418DF858416C
:100680005846414656AA09F087FE002866D09DF8D4
:100690001801810727D599F80000DFF81C290130DF
:1006A00000F0070000EB400189F80000505C0A44AC
:1006B000517892780BF0E8FF99F80000DFF8FC1809
:1006C000085C0DF0C1FE0EF023F9DFF8F4080DF020
:1006D00049FB99F800000BF05BFADFF8E8080DF031
:1006E00041FB9DF81801C1071CD00EF083F9451C91
:1006F000032888BF0125E8B207F04CFC45204321C0
:1007000047220BF0C1FF0EF003F9DFF8BC080DF033
:1007100029FB28460BF03CFADFF8A8080DF022FB75
:100720009DF81801410709D5DFF8A00889F80BA04A
:10073000C9F824400DF016FB9DF8180180060DD570
:10074000402006F035FB432041214C220BF09CFF5A
:100750000EF0DEF8DFF878080DF004FB99F80500DC
:1007600001280BD199F80E0020B1013889F80E004C
:10077000000603D189F8054006F0C8FD229699F8D5
:100780000A00C00700F0F381DFF8486830460EF039
:100790002BFADFF8E40789F80A4099ED079A99EDFA
:1007A000088AB9F812B099F809A099F8068099F862
:1007B000075090ED00AA90ED01EA90ED02FA90ED5D
:1007C00003DA90ED04CA90ED05BA99F8080020907C
:1007D00030460CF0F3FD99F80D00012840F05C81E3
:1007E000DFF82C080DF0BEFAB8F1000F27D0DFF8C3
:1007F0002408DFF8D046A047DFF8AC67B0EE4A0A1D
:10080000B047DFF81408A047B0EE4F0AB047DFF852
:100810000C08A047B0EE4E0AB047DFF80408A04726
:10082000B0EE4D0AB047DFF8FC07A047B0EE4C0A27
:10083000B047DFF8F407A047B0EE4B0AB0473DB130
:10084000DFF8C8070DF08EFAB0EE490A09F0AEFFE6
:10085000DFF8D8070DF086FA58460BF099F9BAF18F
:10086000000F07D0DFF8C8070DF07CFAB0EE480A99
:1008700009F09CFFDFF8BC07DFF84846A0470EF000
:10088000B9F8DFF88CB6D847DFF8E00690F8438077
:10089000DFF8D406D0F8B051DFF89C07A04740F24B
:1008A000EE204FF0000A854228BFD0464046D84788
:1008B000DFF88807A047B9F86200D84756A80DF0BE
:1008C000A1FEDFF87C07A0472CAD95ED2B0A09F0BF
:1008D0006DFFDFF87007A04795ED2C0A09F066FF61
:1008E000DFF86407A04795ED2D0ADFF8DC65B04717
:1008F000DFF85807A04795ED2E0AB047DFF85007FC
:10090000A04795ED2F0AB047DFF84807A0479DF8AC
:100910005801D847DFF8D405A047D9F81800544645
:100920004FF0010A002800F0B480DFF8405606229C
:10093000B9F86210B5F84000B5F844C0B5F84630D3
:1009400095F84850AE06CDE90435434602EAE6760E
:100950008DE8431046ADDFF80027402128460BF014
:100960003FFC012826AB06DB0246D9F818002946D1
:1009700026940DF06AFFDFF80066306A06F1200861
:1009800010B940460CF088FB2098DFF8102696F846
:10099000265009F1280300F001000090DFF8CC0593
:1009A00000F13801404607F083FC7DB196F826003F
:1009B00060B9DFF8B80590F84800000706D4622057
:1009C00089F82A004FF49C40A9F8280096F82400E2
:1009D00099F82950209096F825001F9099F82A0040
:1009E0001E90D9F830001D90B06A1C90F06A1B90E0
:1009F000306B1A90706B1990B06B0CF0BDFBCDE9A9
:100A00001710F06B0CF0B8FB1690306C88460CF0A9
:100A1000B3FB8246706C8B460CF0AEFB41EC100BC6
:100A200016984BEC11AB336A002DDFF8302648ECFA
:100A3000120BDDE917108DED0E1B8DED100B41EC47
:100A4000130B19988DED0C2B8DED0A3B089008BF08
:100A50004E252098802100901F98CDE901051E9811
:100A600003901D9804901C9805901B9806901A9866
:100A7000079026AD28460BF0B3FB012807DB0246A2
:100A8000D9F818002594294625AB0DF0DEFE4FF06D
:100A9000010A0DF1980B6AE099F80D004FF0010A78
:100AA0000DF1980B002862D158460DF0D3FDDFF808
:100AB0002455DFF8B414DFF8FC235B4605F12C0065
:100AC0000090DFF8140504F047F8DFF81005DFF8B0
:100AD000F443A04795F83200DFF83464B047DFF8FC
:100AE0000005A047A88EB047DFF8F804A047E88EBD
:100AF000B047DFF8F404A047288FB047DFF8EC04D4
:100B0000A04795F83A00B047DFF8E404A04795F80D
:100B10003B10DFF8E404DFF8DC24012908BF1046AD
:100B20000029DFF8D81408BF0846A047DFF8D00432
:100B3000A04795F84400B047DFF8C804A0472098C4
:100B4000B047DFF8C404A047B8F1000F18BFB0EEFB
:100B50004A8AB0EE480A0AF013FBDFF8B004A04757
:100B6000B0EE490A0AF00CFBE048A047002499F8CF
:100B70000B0020B999F80C00C00700F0AA8099F882
:100B80000C00D9F8246089F80B4089F80C4089F8EA
:100B900001A025ADC0071AD0DFF8D004C94CA0478A
:100BA00030460AF0F5FFDFF8BC04A047DFF8C004C8
:100BB000A0476420452150220BF066FDA9480CF0A7
:100BC00025FF0CF07FF830460CF040F819E0DFF814
:100BD0009004BC4CA04730460AF0DAFFDFF88404EA
:100BE000A047DFF88404A04753204C2150220BF08B
:100BF0004BFD9C480CF00AFF0CF064F830460DF0F9
:100C000069FA96480CF002FF0024202000218DF89C
:100C1000584156AA0BF016FD8DF894402694D9F849
:100C20001800294601225B460DF0D1F910B926982B
:100C30000028F4D18A4806FB00F50CF0BBFE804684
:100C40002EB10CF0B7FEA0EB0800A84224D21D2064
:100C50000DF088FC68B9FF2000218DF818012020D4
:100C600046AA0BF0EFFC20B19DF81801C0438006A6
:100C700012D1D9F818008DF8934046940DF19301E4
:100C8000012246AB0DF0A3F908B9469820B94CF201
:100C900050300CF0BBFED3E70BF0F6FF08F034FB4E
:100CA0000AF00EFB08F05CFC7520502120220BF0AE
:100CB000EBFC99F80000C149085C0DF0C5FB0DF094
:100CC00027FEEC4889F801400DF04CF8EA480DF099
:100CD00049F892480DF0D0FB00280DF58C783FF4D0
:100CE000CAA938460CF092FEFFF7C5B9584603F082
:100CF000CBF900283FF4BBAB26467148714CA047A6
:100D00002CAD714F95ED000A0DF0A0FF6F48A04784
:100D100095ED010A0DF09AFF6D48A04795ED020A86
:100D20000DF094FF9DF8BF006A4900286A4818BF7B
:100D30000846A0476948A04795ED000A0DF086FFD8
:100D40006748A04795ED010A0DF080FF6548A04770
:100D500095ED020A0DF07AFF6348A0479DF8BF00A9
:100D60000AF016FF6148A0473446FFF780BB2320F6
:100D7000A9F8140099F8050000287FF478AB99F8D9
:100D8000000006287FF473ABB9F8100000287FF448
:100D900082AA764890F84200FFF77FBA032007F056
:100DA000F9F8714809F0C4FC70480DF0F9FE0DF037
:100DB0000BFC6A48FFF748BA002000212190A9F8EF
:100DC000101099F8050000287FF453AB99F8000043
:100DD00006287FF44CAB0020219009F0CDF8FFF7F6
:100DE00048BB042007F0D6F85F4809F0A1FC5F4833
:100DF0000DF0D6FE0DF0E8FB5748FFF725BA0220AC
:100E000007F0C8F8584809F093FC58480DF0C8FEA0
:100E10000DF0DAFB5248FFF717BA26480CF0E3F959
:100E20002648FFF722BB23480DF0C3F92248FFF7FD
:100E30001CBB0BF077FD1E48FFF717BB2198072856
:100E400032BF002014980BF0DBFB89F80BA0C9F827
:100E50002400FFF70CBB1548FFF707BB90D0030039
:100E6000A086010030570500B0030020CB00010030
:100E70008F0201008A030100F0030100EB0301006F
:100E800086020100D9000100E3010100ED0101002B
:100E9000BA0101001F020100E6030100B4030100D2
:100EA000CC030100D9010100F70101007DFD000024
:100EB00059F90000509A00206BFE000081FB0000F1
:100EC000ABFB000065DD000081B100006E03010096
:100ED000910301004BFC000020FE00002BFF0000EE
:100EE000600301009F030100590201000804010092
:100EF00059F50000E7FF0000920001000C0401001A
:100F000099FD00002003010041000100980201004A
:100F100091BB0000240101002404010034A800203A
:100F200014FF0000CF010100AF01010083000100A8
:100F3000B30201003C01010056FB0000AF000100BC
:100F40001004010047020100180101004BFA0000E3
:100F5000FEFA000039FE0000B8FD0000ECFD0000C4
:100F600006FE0000D2FD000058B40020F001002071
:100F7000FDFB0000FAFF00006402002098FF000063
:100F800021A40000AD030100A6030100330201000B
:100F9000A1020100380301001502010030BD00204C
:100FA0001003010062020100ADA7000083030100ED
:100FB0007C030100AA020100E4FE0000F00201002F
:100FC0008FF800001404010058FF0000BCF9000075
:100FD00042FF00008004002078BF0020ACFF00002A
:100FE0009803010029020100C50201000B02010063
:100FF000E600010075030100300301000102010059
:101000003D0201004801010074020100F8020100E4
:10101000BD000100BA030100C6030100C0030100C6
:101020001803010028030100000301005002010021
:10103000400301006B0201000803010048030100A6
:101040009901010083010100A401010030010100A8
:10105000780101008E01010052FE0000D6F600006A
:1010600025FC000018040100D3F400005BF8000028
:101070000AF40000C6F300000D0001000A207047CA
:101080002DE9F84F2DED048B96B00025002800F0D7
:10109000C4840646DFF8000A0078002800F0BD840A
:1010A000DFF8F849762071210022A04776207221CE
:1010B0000122A047762074215522A04746F2A810AD
:1010C0000CF0A4FC11AC112120460DF00CFB762095
:1010D0001D21224611230BF0C3FF002800F09C8441
:1010E0009DF84A109DF84900090141EA00309DF839
:1010F0004B1040EA1110410302D1002500F08CBCD6
:101100009DF847209DF846109DF84830120142EAAC
:10111000013141EA131109919DF852100D919DF88A
:1011200051100691BDF84C1009BA090C0C910DF044
:1011300021F89FEDB30B0F9681468B4653EC102B95
:101140000E9210930DF0B5FD0446DFF84C090F46E2
:10115000808A0DF00FF89FEDAC0B05460E460DF0A2
:101160000BFD02460B462046394604F0ACFD044612
:10117000DFF824090F46B0F916000CF069FB0246AF
:101180000B46204639460DF094FD9FEDA10B80469D
:101190008A464846594653EC102BCDE907230DF0FB
:1011A00088FD9FED9D0B04460F46284631460DF005
:1011B000E3FC02460B4639462046DFF8DC7804F0B3
:1011C00082FD02460B460DF074FD044697F90200BD
:1011D0000DF03FFD9FED920B53EC102BCDE90A2350
:1011E0000DF067FD0DF092FC0DF063FD02460B461D
:1011F0004046514604F067FD9FED8B0B04460D46BB
:1012000053EC102B0DF053FD8246884609F072FE18
:101210000F99059008607878012840F06181B7F94E
:101220001A000490B7F920000CF012FB9FED800B20
:1012300055EC107B3A460DF0F4FC0446DFF85808F4
:101240000E4690F907000CF003FB3A460DF0E9FC5E
:101250000DF0AEFC22460DF0EDFC834609980D46DC
:1012600000010CF087FF02460B46044609908946B0
:101270000DF01FFD5A462B4606460F460DF019FD90
:1012800005468B463046394622464B460DF011FD49
:101290000646DFF804080F4690F908000CF0D8FA6B
:1012A0009FED650B0DF068FC02460B463046394653
:1012B0000DF0FFFC2A465B4604F005FDCDE9071062
:1012C00004980CF0C5FA9FED5E0B0DF055FC0DF087
:1012D00013FB0446DFF8C0070D46008B0CF04AFFF5
:1012E0009FED590B0DF048FC0DF056FC0446DFF85D
:1012F000A8070D4690F903000CF0AAFA9FED540BD5
:101300000DF03AFC0DF0F8FA0DF0F6FA0DF0FEFBD8
:1013100004F0D9FC0546DFF880070F4690F9040079
:101320000CF096FA9FED4C0B0DF026FC0DF0E4FA54
:101330000DF0E2FA0DF0E0FA02460B462846394677
:1013400004F0C1FCCDE90310DFF84C07C08B0CF0B2
:1013500011FF9FED430B0DF0A7FB04F0B4FC9FEDD4
:10136000420B0DF009FC0DF0C7FA0646DFF828071E
:101370000F46808B0CF0FEFE2A46234604F0A3FCA9
:101380009FED3B0B0DF0F8FB02460B46394630460D
:10139000DFF8047704F097FC054697F905000E4640
:1013A0000CF056FA9FED340B0DF0E6FB0DF0A4FAAD
:1013B0000DF0A2FA2A460DF03DFC834697F906008F
:1013C0000DF047FC9FED2E0B0DF0D6FB0DF094FABF
:1013D0000DF092FA0DF090FA5A462B4604F073FC89
:1013E000099A4B460DF065FC02460B46DDE90310F9
:1013F00004F069FC02460B46DDE9071074E100BF0A
:10140000000000000000103F00000000000050BF7E
:10141000000000000000E03E00000000000020BFCF
:101420000000000000003040000000000000B44058
:10143000000000000000F03C000000000000E03B65
:10144000000000000000903F00000000000020406D
:10145000000000000000703F000000000000003F9E
:10146000000000000000D0C0000000000000203E8E
:10147000000000000000B03E000000000000F03D51
:10148000000000000000A03D000000000000E03F60
:10149000000000000040EFC0000000000000C03E5F
:1014A000000000000000F03F00000000000000000D
:1014B000000000000000D03F000000000000F040ED
:1014C00000000000000030BF0000000000003041BC
:1014D00000000000006AB840000000000000003E6C
:1014E0001FED170B204629460DF046FB1FED180B8C
:1014F0000DF04EFB054697F909008B460CF0A8F954
:101500000DF012FA0DF010FA0E9A109B0DF0D1FBAF
:101510000446B7F924000E460CF09AF92A465B46B9
:101520000DF0C7FB22460DF085FB1FED250B0DF0DE
:1015300023FB1FED370B53EC102BCDE903230DF0EC
:10154000B8FB1FED290B0DF023FB0446788C0E46EB
:101550000CF010FE02460B46204631460DF0A9FB6A
:101560001FED2F8B81460C4653EC182B08F0DEFF45
:10157000002840F0BD80B7F928000CF069F90DF0A3
:10158000D3F901940446DFF810050F4690F90B00DB
:101590000CF05EF9DDE907230DF08BFB0646CDF874
:1015A00008A0C2468846284659462A465B460DF0A2
:1015B00080FB324643460DF07CFB05460E46204636
:1015C000394622463B4604F07EFB2A460DF032FBAC
:1015D0001FED490B0DF0D0FA0446DFF8BC040D46B0
:1015E000B0F926000CF034F91FED4D0B0DF0C4FAE4
:1015F0000DF0D2FA1FED4E0B0DF0BEFA044609981D
:101600000DF012FB1FED500B02460B4651EC100B78
:1016100004F054FB0DF0C0FA1FED530B0DF0ACFAC3
:10162000019B4A460DF043FB0646DFF86C048846F2
:10163000B0F92C000CF00CF90DF07CF90DF07AF9F2
:101640001FED5B0B0DF098FA1FED7F0B834689466B
:10165000304641460DF090FA02460B4604460D46D0
:101660000DF027FB0DF052FA0DF023FB0446DFF8D6
:1016700028040D46007B0CF07DFDDDE907230DF00D
:1016800018FB22460DF0CDFA0546DFF80C040F4694
:10169000B0F92A000CF0DCF8DDE903230DF009FBBA
:1016A000324643460DF005FB5A464B4604F00BFB11
:1016B0003B462A46DFF8E07304F005FB044697F941
:1016C0000A000DF0C6FA9FEDDE0B0DF055FA0DF095
:1016D00063FA9FEDDD0B0DF04FFA0B464146D04605
:1016E000DDF808A00246304604F0EDFA41EC180B94
:1016F0009FEDD90B51EC180B53EC102BCDE90832B0
:101700000DF0D5FA09F0F6FB0F9E706097F90D0009
:101710000CF09EF89FEDC40B0DF02EFA0DF0ECF8D6
:101720000446388E0DF080FADDE90A230DF0C1FA87
:101730000DF032FA04460C980DF076FA22462B464C
:1017400004F0BCFAB9460C900F4699F90E000CF063
:101750007FF8DDF838B0109B5A460DF0AAFA0DF06C
:1017600027FA9FEDB30B0DF013FA044699F90F0019
:101770000DF06FFA9FEDB60B0DF0FEF90DF0BCF811
:101780000DF016FA0DF008FA0446B9F82E000DF027
:101790004BFA9FEDB30B0DF0EFF922460DF041FA35
:1017A00002460C980B4639460DF083FA044699F828
:1017B00010000F460CF0DEFC109B5A460DF079FA33
:1017C000834699F911000DF044FA9FEDA70B0DF037
:1017D000D3F90DF0EDF95A462B4604F074FA22467F
:1017E0003B460DF066FA22463B460DF062FA224671
:1017F0003B4604F068FA9FED900B83460F4655EC8C
:10180000104B22462B4608F09EFE00281CBF2F4698
:10181000A346099C089D5846394622462B4608F0A7
:10182000B9FE00281CBF2F46A3465846394609F08A
:1018300061FBB0600D9908EE100A99ED0D9A8806CB
:1018400020D4BBEE0E1A05989FED972AB7EE003A0A
:1018500038EE011A01EE023A00EE100ABBEE051A4C
:1018600030EE010A9FED911A00EE013A9FED900AC9
:1018700029EE039AB4EE409AF1EE10FA48BFB0EEAA
:10188000409A4AE0069801F00F084FEA911A860044
:10189000814890F912000BF0DBFF9FED750B0DF006
:1018A0006BF99FED750B0DF073F902467C480B4602
:1018B00000EBC8000DF026F804467A480D46224693
:1018C0002B4600EBC8000DF01DF8804606EB0A0021
:1018D0008946A0F500700BF0BBFF0DF017F904F07E
:1018E000F2F902460B46404649460F9E0DF0DFF9DD
:1018F0009FED630B80468A460DF0D6F808F04AFE4D
:1019000058B1404651462A4623460DF0D0F909F019
:10191000F1FA614909EE100A48639FED5B0B5846E6
:10192000394686ED039A0DF0BFF808F026FE58B14F
:101930009FED570B5846394653EC102B08F010FE1C
:1019400010B1B3EE090A17E0584639462A46234635
:1019500008F0F9FD40B19FED580AB3EE091A38EED0
:10196000000A30EE010A07E09FED520AB3EE091AB1
:1019700038EE000A31EE400A9FED501A9FED502AD2
:10198000B6EE083A89EE011A21EE021A21EE031A88
:101990009FED4C3AB4EE431AF1EE10FAC8BFB0EE28
:1019A000431AB5EE401A9FED483AF1EE10FAB5EE43
:1019B000400A48BFB0EE431AF1EE10FA48BFB0EE4D
:1019C000430A31EE000AB1EE041A32EE400A9FEDEE
:1019D000412A20EE010A9FED3D1AB5EE400AF1EED4
:1019E00010FA48BFB0EE430AB4EE410A9FED3B3A0D
:1019F000F1EE10FAC8BFB0EE410A9FED351A86ED40
:101A0000040A012500EE012A9FED331A00EE013A87
:101A100086ED062A86ED053A3577284616B0BDECE8
:101A2000048B01B0BDE8F08F000000000000E03F33
:101A3000000000000000F03F000000000000000077
:101A40000000000000006040000000000000B03F07
:101A5000000000000000B03E0000000000005940FF
:101A6000000000000000D03E000000000000A03E8A
:101A700000000000000014400000000000F094404E
:101A80000000000000408F400000000000004340C4
:101A9000000000000000454014050020F5D40000BF
:101AA00088F1000008F20000A69BC4BB6F1203BCC3
:101AB0000000FA44000028C2000018C2000048429A
:101AC0000000C84200009642000000000000FA43F7
:101AD0000AD7233CCDCC4C3DCDCC4C400000C84374
:101AE0002DE9F04FADF5077DD0F8009006469B46F6
:101AF0001546869148460CF0B6FE4FF0000A09EBF9
:101B000000044FF0FF300027CDF814A2A14580F06B
:101B1000C580A04609F101048DF810A28390CDE99B
:101B200081AA14F8010C002800F0B880252805D0FF
:101B300029463460D84701340137F2E7346085978D
:101B400081AC3146204600F0AEF82046314686AAE8
:101B500000F0CAF830680278411C7A2A2AD0682A34
:101B600044461CD06A2A09D06C2A0FD0742A09D0A6
:101B70004C2A2CD1819840F0800025E0819840F4D7
:101B8000006021E0819840F400501DE00146819AF8
:101B900011F8013F6C2B12D142F4807107E001462D
:101BA000819A11F8013F682B0CD142F400718191A8
:101BB00002300BE08198444640F4805004E042F04B
:101BC000400001E042F0200081900846027800F1D8
:101BD0000109732A8DF81022C6F800901FD06E2AD2
:101BE0002AD1819843F660710840411E80EA0102C3
:101BF0008A420ED990FAA0F0B0FA80F0411F08296D
:101C000007D8F817DFE801F0440505394005390524
:101C10000500869850F8041B0F60869026E09DF81A
:101C2000040240061AD4CDF800B081A886AA29463D
:101C300085AB00F01CF919E00DF1060881A986AA10
:101C4000404600F069F9909B024640462946984775
:101C5000411C18BF38448590074608E0CDF800B015
:101C600081A886AA294685AB00F09CF8859F781C40
:101C70004FF0FF307FF44AAF0EE0869951F8042B05
:101C8000C2E900708691F1E7869802C80F70C4E738
:101C9000869802C80F80C0E74FF0FF3738460DF531
:101CA000077DBDE8F08F10B50A680124E30708BF7F
:101CB00010BD1378302B0CD0232B0CD02B2B0CD039
:101CC0002D2B04D00024202BF0D1042306E0012387
:101CD00004E0102302E0082300E00223046801323C
:101CE0000A6023430360E0E7FEB504460868164631
:101CF0000D4603782A2B11D13068011D3160006830
:101D0000B0F1FF3F606005DC40426060206840F059
:101D1000010020602868471C2F6017E000210DF1AA
:101D20000202303B4718092B06D87B1C2B60435C12
:101D300053547B780131F4E7002050549DF80200A1
:101D400020B10DF102000AF05BFC606038782E28AB
:101D500027D1781C28607A782A2A08D13068011D9A
:101D600031600068A060286801302860FEBD002056
:101D70000DF10201303A092A07D83A18931C2B605A
:101D8000537892780B540130F4E700220A549DF8FE
:101D9000020028B10DF102000AF032FCA060FEBD85
:101DA000A260FEBD2DE9FE4F054610680C46011DE0
:101DB000116007680C9AD7B3AE6898469146002E1A
:101DC00004D438460CF01CFD864203D338460CF090
:101DD00017FD0646D5F804A0B3460195B245C8BF25
:101DE000D346D8F80000CDF808805844C8F8000061
:101DF0000FDD01980078C0070BD1ABEB06054FF063
:101E00000008A84505DA20202146C84708F1010846
:101E1000F7E7DDF808800025B5420EDA57F825000F
:101E2000B0F5807F19D22146C8470135F4E700207C
:101E3000214603B0BDE8F04F1047B24515DD0198CB
:101E40000078C00711D0ABEB06050026AE420CDAD5
:101E500020202146C8470136F8E74FF0FF30C8F888
:101E600000000CF0B9FE58210160BDE8FE8F2DE99D
:101E7000F84F054610680C46011D116006680A9A65
:101E8000C6B3AF689B469046002F04D430460CF092
:101E9000EAFC874203D330460CF0E5FC0746D5F850
:101EA00004A0B9460095BA45C8BFD146DBF800008A
:101EB0004844CBF800000DDD00980078C00709D138
:101EC000A9EB070B00255D4504DA20202146C04719
:101ED0000135F8E70025BD4204DA705D2146C047B0
:101EE0000135F8E7BA4503DD00980078C00706D150
:101EF000BDE8F88F00202146BDE8F84F1047A9EB58
:101F000007050026AE42F3DA20202146C0470136FD
:101F1000F8E700BF00BF00BF2DE9FE4F16460027BF
:101F20008B46D1F8048040F2FD112022044601972F
:101F30000CF0D4FB04F5FE7084F8FD7102909BF860
:101F40000C00A0F16101172929D80122BA4B8A405F
:101F50001A4209D001A902AA5846334600F070F986
:101F600000274FF0000991E012F0710F25D10229EE
:101F700015D130680027011D3160006884F8FC012C
:101F8000C0B2DBF80010B0FA80F04FEA501921F02F
:101F90000201CBF8001004F2FB11029176E0A0F1EF
:101FA0004501032909D3252800F08A80412804D05F
:101FB0005828CFD04FF000096AE03068073020F091
:101FC000070000F10801316090ED000B9BF80C5008
:101FD00056EC107BA5F17B09384631463A4633462C
:101FE0000BF032FB002840F00C8194499FED900BE0
:101FF00026F00040414053EC102B394315D003F03C
:1020000000414FF00009084440EC107BF70FA5F1A8
:102010004100062829D9A5F16100062836D8DFE855
:1020200000F02A353535DCD7D2006E20314619F163
:102030001A0F38BF4E2084F8FB014FF0660038BFFE
:10204000462084F8FC014FF0690038BF492084F82D
:10205000FA0104F5FC700290384608F074FA78B181
:102060002D204FF0000904270EE0DFE800F0040FF8
:102070000F0FB6B1AC0002A9584602F0D5FA70E7CE
:102080002B204FF00009032784F8F9019BF80C007E
:10209000A0F16F014FF0010A092905D80AFA01F1F0
:1020A00040F24322114221D158281FD06FB1012F95
:1020B0001CD101200190DBF8000000F002000CE0D0
:1020C000252020800120BDE8FE8FDBF80010019A5A
:1020D00001F00200002A00F0858002992D22B0FA5A
:1020E00080F04FEA501A01F8012902919BF8000094
:1020F00004EB08072646C007029809D104F2FD1137
:10210000DBF804202646091A9142DCBF791A4E1CDE
:10211000411C304600224FF4FF7300250BF068FF8E
:10212000B9F1000F02901CBF00F8015B0290B842A9
:1021300007D8391A0138202201310CF0CFFA0020DB
:1021400038709BF80000C00605D4311B20462022C1
:102150000CF0C4FA31E0A6422FD0311B20463022C9
:1021600030250CF0BBFA0198B0FA80F0400900EA83
:102170000A00012805D19BF80000400701D4204641
:1021800005E03178204600F8011B06F8015B9BF85A
:102190000C1041290DD0582905D0612909D0782982
:1021A00001D0702909D19BF80020120701D46129C0
:1021B00003D1717841703020707020460CF053FBD1
:1021C0004844BDE8FE8F02A9584603F089F8C8E6E6
:1021D00002A9584609F05EFCC3E602A9584604F07D
:1021E00037FDBEE628B948077FF580AF0298202169
:1021F00003E002982B214FF0000A00F80119029029
:1022000074E7612019F11A0F38BF412084F8FB01EF
:102210004FF000094FF06E0038BF4E2084F8FC01EB
:1022200084F8FA01022704F2F91002902EE700BFA9
:10223000000000000000000008C190000000F07FD6
:10224000F8B50546806814460F46B0F1FF3F04DD3F
:10225000286820F01000286001E00120A860287B99
:102260001026582807D0782805D0702803D06F286A
:1022700014BF0A2608262846194600F053F8AA6813
:102280004AB950EA010206D12878000749D52B7BCC
:102290000020002112E02B7B642B04D16423B1F1D8
:1022A000FF3F05DD0AE0692B08D1002906D5692327
:1022B00001223A600022404262EB01013246009462
:1022C00000F0ACF83021AA68904205DA22680130AB
:1022D000531E23601170F6E7287B582818BF782812
:1022E00010D1297809070FD521684A1E226070286D
:1022F00008BF782008702068411E216030210170DD
:10230000287B01E07028ECD06F280AD128780007DC
:1023100007D520684178302903D0411E2160302143
:102320000170F8BD10B5027B702A2BD0006843F60F
:1023300060731840431E80EA03049C420DD990FA52
:10234000A0F0B0FA80F00538082806D8DFE800F0E1
:102350004D050520390520050500A2F1640014286B
:102360000ED8012303FA00F02B4B18420AD110F0CB
:10237000210F05D00868021D0A600068C11710BD52
:10238000582A46D10868021D0A600068002110BD65
:10239000A2F16400142808D8012303FA00F01E4BB0
:1023A000184204D110F0210F01D1582A31D1086808
:1023B000073020F0070000F108020A60D0E90001B0
:1023C00010BDA2F16400142808D8012303FA00F01C
:1023D000114B184204D110F0210FCBD1582A18D13B
:1023E0000868021D0A600078D0E7A2F16400142892
:1023F00008D8012303FA00F0074B184204D110F06B
:10240000210FB7D1582A04D10868021D0A6000883C
:10241000BCE70020BAE700BF00081200F8B5054687
:102420001148124E582B069F144608BF064655EA1F
:10243000010011D13868421E3A60302202700BE070
:102440002846224600F014F83A68531E3B6000FB11
:1024500014530546F35C137055EA0100F0D1386857
:102460000CF001FA0138F8BD1F0001003000010036
:10247000102A06D0082A09D1C00840EA4170C908CC
:102480007047000940EA01700909704719B9B0FBAB
:10249000F2F00021704780B500230CF003F980BDF5
:1024A0002DE9F84F2DED068BADF5496D002600287E
:1024B00000F0AC830F46002900F0A8839346002A61
:1024C00000F0A48397ED038A8146B5EE408AF1EED1
:1024D00010FA1DD8B7F90610B7F90400B7F90820AB
:1024E00001EE101A00EE100AB8EEC11AB8EEC00ADA
:1024F00021EE011A00EE001A00EE102AB8EEC00A12
:1025000000EE001AB1EEC10A9FEDB01A80EE018A0A
:102510003868394620220390B9F8A40C09EB401022
:1025200024300CF0D9FBB9F8A43C642009F61C58FF
:102530005E1CB6FBF0F101FB1064B9F8A61CA9F80B
:10254000A44C63299CBF0131A9F8A61CB9F8A80CBA
:1025500000F1010A09F618500290D9F8180DA9F8EF
:10256000A8AC48B999F83D2D32B9D9F8542D1AB90B
:10257000DFF814280025157089B29FED950AB0EE9A
:10258000481AB0EE482A0C2928BF0C216422B6FB59
:10259000F2F54FF44866754304F16306C5EB431347
:1025A0008C4D4B4403F54B6321B3B6FBF2F4B0EE14
:1025B000414AB0EE425A04FB053494ED003AB4EEC1
:1025C000413AF1EE10FAB4EE423AC8BFB0EE434AD7
:1025D000F1EE10FAB4EE403A48BFB0EE435AF1EED5
:1025E00010FAC4BFB0EE452AB0EE441A0139013EDC
:1025F000203BD9E731EE420A98ED092A9FED763A61
:10260000B7EE001A0CF064FA01D5039C1DE09FEDB3
:10261000733A039C0CF05CFA17DCB6EE081AB4EEC1
:10262000418AF1EE10FAC0F2CD80B7EE041AB4EE92
:10263000418AF1EE10FA00F2C5809FED691A9FED14
:10264000693A28EE011A02EE031A88ED091A9FED85
:10265000662AB4EE420AF1EE10FA02D59FED639AB3
:1026600018E09FED633A38EE411A9FED624A21EE81
:10267000039AB0EEC11A9FED5D3AB4EE441AF1EE42
:1026800010FA48BFB0EE439A98ED0A1A9FED5A3AF5
:1026900001EE039A0021B4EE420A88ED0A9AF1EEA7
:1026A00010FA89F83C1D27DAC8E90B11012089F8D6
:1026B000500DD9F8540D00286CD0201AB0F5C86F11
:1026C00009D9DFF8C416002089F83D0DC8F81000BC
:1026D000C8E90000087099F8F20CE0B1D9F8FC0CD8
:1026E00040F6B831201A8842C0F0B78148460BF056
:1026F00060FDB9F8A8ACB0E199F8501D01294DD1A1
:1027000098ED0B0AB4EE409AF1EE10FA40F3908087
:1027100088ED0B9ACDE799F8F00C052800F21481AA
:10272000DFE810F006001B01140112013E015D01FB
:102730009FED2F0A0CF0E5F940F15D8199F8F30C5B
:10274000013089F8F30C000A40F08781012009F577
:102750004E63B7F90610B7F90820C9F8F44C89F8A8
:10276000F00C0020986189F8F30CB7F9040001EE31
:10277000101A02EE102AB8EEC11AB8EEC22A00EE04
:10278000100A83ED011A83ED022AB8EEC00A83ED28
:10279000000A62E1B4F5C86F93D89CE798ED0C0A83
:1027A000B4EE409A9FED150AF1EE10FA48BF88ED9D
:1027B0000C9AB4EE409AF1EE10FAFFF67AAF88ED7B
:1027C0000B9A73E7B0EE421A41E700BF00007A446B
:1027D000CDCCCC3D80F3FFFF3333333F6666A63F5D
:1027E0008FC2753DD7A3703F295C0F3E00000000EB
:1027F0006666263FEC51383D3333B33E8FC2753C9D
:102800000AD7A33D8FC2F5BC00606A470000704242
:102810008FC2F53DC3F51C416666E63ECDCCCC3E8D
:10282000CDCC8C3F3333D33F295C8F3E33330340D1
:102830001FED0D1A0CF042F9FFF63BAF1FED0F1A1A
:10284000B4EE419AF1EE10FA3FF633AFD9F8542DB9
:1028500040F20463A11A002A08BF40F6C411A1F592
:1028600082729A4200F2E180DFF81C65012233781F
:10287000002B00F00A8201EE101A012B04BF022285
:1028800032701FED232A1FED264A40F20113104437
:10289000C9F8544DC9F8584D30EE490AB8EE41AA6E
:1028A0001FED271A98ED003AA9F83C3DC9F8180D1C
:1028B00081EE0A1A21EE022A03EE042AB2EE044A3D
:1028C0000CF00BF9C8BFB0EE421A1FED302A88EDAC
:1028D000001A81EE022A1FED321A0CF0EFF888ED93
:1028E000012A48BFB0EE410A1FED361A20EE010A58
:1028F000B1EEC01AB1EEC10AB4EE400AF1EE10FA20
:1029000080F13B821FED3C1A20EE010A1FED3D1ABB
:102910000CF0D4F848BFB0EE410A1FED3F1A0CF09E
:10292000CDF8C8BFB0EE410A307888ED020A02281F
:1029300040F0B18102980068022818BF012001EE22
:10294000100AB8EE411AA8E1002003E00020A9F81F
:10295000040D042089F8F00C7FE009F54E61D9F8E8
:10296000F40C91ED060AB4EE408A1FED520AF1EE26
:1029700010FAC4BF09F54E6181ED068A201A0CF0E9
:10298000C0F830DBB0F5617F2DD80120C9F8FC4CD0
:10299000A9F8140D0020A9F8040D4FF482701BE073
:1029A000BFEE000A1FED601AB9F8040D38EE000AF8
:1029B000B0EEC00A0CF082F826D50130B9F8181034
:1029C000A9F8040D80B2884247D30120C9F8FC4C15
:1029D00089F8F20C40F20520A9F8F00C3DE0012046
:1029E00089F8F20C39E040F2B731884224BF002068
:1029F000A9F8F00C31E01FED730A0CF082F81EDA32
:102A0000002089F8F30C28E010B10138A9F8040D72
:102A1000B9F8140D0130A9F8140D80B21E2824BF96
:102A20004FF44070A9F8F00C17E0B1F5E16F40F2F7
:102A30004981D5480121C9F8544D017042E109F599
:102A40004E6080ED068A4FF48270A9F8F00C0120E8
:102A5000A9F8140D0020A9F8040D1FFA8AF03228F5
:102A600024D3B9F8A60C002609F54E6A6428C0F0F4
:102A70009280B9F8A47CCDF804A0AA46A9F8A86C65
:102A80004FF0640804AD09EB471000F12404B6F5DB
:102A9000486F0FD0B7FBF8F0202200FB0A41A819BD
:102AA0000CF01AF9203601372034F0E7002609F53A
:102AB0004E6A70E0DDF804A004A864210AF18402E3
:102AC00002F094F999F8DC1C99F8DD0C9AED212AB2
:102AD0009AED221A9AED230AB6EE083A4A1C01EB47
:102AE000410109EB810102F00302042801F6AC4127
:102AF00089F8DC2C81ED002A81ED011A81ED020AB2
:102B00003CBF013089F8DD0C9AED2E4A039CB4EEEF
:102B1000434AF1EE10FA35DA99F8EC0C9AED2D3AB9
:102B200002287BD0012818D0002840F091809FED2A
:102B30009D5A0BF0DCFFC0F2A2809FED9B4A0BF088
:102B4000CCFFC0F29C8099F8EF0C012840F0C380C4
:102B50000BF06DFE022877D2C1E09FED8C5A0BF08E
:102B6000C6FF79DB9FED8B5AB4EE453AF1EE10FAD1
:102B700072DB99F8EF0C022840F0A8800BF057FEAA
:102B8000022804D30CF018F8022089F8EC0C00207D
:102B9000012689F8ED0C0BF1080009F66451442276
:102BA0008BF80460CBF800400CF096F8B9F8EC0C08
:102BB0009FED811AABF84C0099F8F00C99F8F11CD4
:102BC00099F8F22C8BF84E108BF850208BF84F00B0
:102BD00002992822DAF81800CBF85400B9F8040D4D
:102BE00000EE100AB8EE400A20EE010A8BED170A3B
:102BF000DAF82000CBF858000BF160000CF06CF80C
:102C000009F65C50594688220CF066F830460DF5FE
:102C1000496DBDEC068B01B0BDE8F08F9FED5E0AFB
:102C2000B4EE404AF1EE10FA06D49FED5C0AB4EE21
:102C3000403AF1EE10FA1FD599F8EF0C012821D196
:102C40000BF0F5FD0328A2D30BF0B6FF01209CE7A3
:102C5000002089F8EC0C42E09FED4D5A0BF047FF45
:102C60000AD59FED4F4A0BF038FF05D599F8EF0CC8
:102C700000287AD001202BE00BF09EFF87E70BF0B5
:102C80009BFF2CE040F2011022E0C9F8544DC9F836
:102C9000584D327016E0B7EE001A98ED032A002066
:102CA000C8F81C00C8F8140000EE012A9FED351A80
:102CB0008AEE011A88ED062A88ED032A80EE010AC1
:102CC00088ED040A88ED0C9A0020F0E440F201201F
:102CD000A9F8EE0C5BE740F20110A9F8EE0C9FEDAD
:102CE000333AB0EEC22AB4EE431AF1EE10FA0EDD1A
:102CF0009FED2F4AB4EE442AF1EE10FA07D5B0EE5C
:102D0000C05AB4EE445AF1EE10FA3FF540AFB4EEBB
:102D1000430AB0EEC11AF1EE10FA08DD9FED244A25
:102D2000B4EE441AF1EE10FA01D5012030E79FED20
:102D3000214AB4EE440AF1EE10FA08D59FED1C0AC0
:102D4000B4EE401AF1EE10FA01D5022020E70BF0A4
:102D5000BFFE08DD9FED160AB4EE401AF1EE10FA40
:102D600001D5032014E7042012E70BF060FD0428CE
:102D7000FFF40DAF0BF020FF6BE7B0EE410A07F058
:102D800097F9BFE500007A443A0600206666263FC0
:102D90008FC2F53D295C8F3ECDCC0C3FAE47613EE6
:102DA000295C0F3DEC51383ECDCC4C3D0000164423
:102DB0000000FA43000016C40AD7233C2DE9FC4763
:102DC0000027002800F06A82DDF828A0BAF1000F81
:102DD00000F0648291460546D0E96C20571C461CE1
:102DE00095F82022C5E96C76CBB1002742F020008F
:102DF00051461C2285F81B72C5F8B071C5F8A47144
:102E0000AAF80A7085F820028AF8100005F5097002
:102E1000CAE905778AF800700BF05EFF3EE240F2E7
:102E2000EE2302F0DF029F4285F820220AD300231E
:102E300042F0100285F81B32A5F82E32C5F8A431F5
:102E400085F8202210B3DFF86C24137802EB830698
:102E50007160591C0526CBB2B3FBF6F303EB830379
:102E6000C91A012311700021062B04D052F82360E7
:102E700001333144F8E7052291FBF2F1E8B9002073
:102E80000D280CD045F820100130F9E7DFF8243484
:102E90000122062AD7D043F822100132F9E701EBCC
:102EA000C100102382006A63312B03D045F8232030
:102EB0000133F9E7C001C5F8C40095F83C2095F846
:102EC000C80045F82210561C6B6BD5F8C4C0AB6324
:102ED0000D23B6FBF3F707FB136685F83C6002F1A0
:102EE0000C06B6FBF3F707FB1366171DB7FBF3F4ED
:102EF00055F8266004FB137455F82440344402F15D
:102F00000D06B6FBF3F707FB1366D71CB7FBF3F10F
:102F100055F8266001FB137155F82110314401EB7F
:102F2000440102F10B04B4FBF3F606FB1344561DF7
:102F3000B6FBF3F755F8244007FB136655F82660F7
:102F4000344404EB4404214402F10A04B4FBF3F6D4
:102F500006FB1344961DB6FBF3F755F8244007FB18
:102F6000136655F82660344401EB840102F109042C
:102F7000B4FBF3F606FB1344D61D0832B6FBF3F799
:102F800055F8244007FB136600F1110755F8266039
:102F9000344404EB84042144B2FBF3F404FB132215
:102FA000212355F8222002EB420201EB4201421C90
:102FB000B2FBF3F4B7FBF3F3696344EA441403EBA5
:102FC0004313121B05F14004FB1A54F8226054F815
:102FD000233085F8C8208E1B6644C5F8C46044F8C9
:102FE0002010D5F8C400D5F8B411A3EB601305295F
:102FF00008D805F1CC000021052903D040F8213084
:103000000131F9E705F1CC0405F1D406002717CC0E
:1030100016C68AF80070191BC5E93330801A00EB18
:103020004100C01080FB0001000B40EA015095F800
:10303000881105EB81020131D2F8E440C2F8E400C6
:10304000B5F84222CAF80490B1FBF2F6001BD5F89D
:10305000804106FB121185F8881167F10001001903
:10306000D5F88441C5F880016141B5F8FE41CAF840
:1030700014300023C5F88411AAF8084095F82E42B0
:103080008AF80A4095F82F428AF80B40B5F830428A
:10309000AAF80C40B5F83242AAF80E400BF002FB39
:1030A000D5E9631395F82022CAF8180005F50978C8
:1030B000C5E9630181424FF000008AF8102028BF63
:1030C0000120994288BF012795F8B831012B36D1EC
:1030D000D5F8B431292B2ED3D5F8AC01814284BF69
:1030E000C5F8AC110846B3F5967F24D3002185F8C6
:1030F000B811C5F8B01102F07F01B0F5487F6E4AF3
:1031000085F82012014698BF4FF448714908904253
:1031100088BF42F21071A1EBD1029208C80802EBFD
:10312000D102B2F5AF7F98BF4FF4AF72C5E9651019
:103130005308C5E967230BF0BCFC0027AEE0D5F8C7
:10314000B0213840B2F5967F21D91923B2FBF3F4B0
:1031500004FB1323DBB9D5F89431B3F5167F16D9E8
:10316000D5F89841A3EBD303C5F89431A4EBD4046C
:103170001B1BC5F8984104EB9303B3F5AF7F98BFD1
:103180004FF4AF73C5F89C315B08C5F8A031002837
:1031900053D0B5F8FC315F208D2B0AD303EB83139A
:1031A0006424B3FBF4F34FF6E0741C405F2C88BF3B
:1031B0001846824216D2D5E9650202EBD101A1EB95
:1031C000D201401A0A4688BF02EB9002B2F5AF7FE7
:1031D00098BF4FF4AF72C5E9661250084FF4D07132
:1031E00068502AE0B1F5AF7F0BD3D5F89C0181423E
:1031F00007D300204B460BF043FC9AF80000E0B1E7
:1032000048E0D5E96523D5F8A40103EBD104A4EB8C
:10321000D303D21A1C4688BF04EB9204B4F5AF7FE7
:1032200098BF4FF4AF746208C5E96634B1F5967F74
:10323000C5F8A02128BF814234D895F81B02022886
:1032400028D3B5F8FC0128B3A62148436421B0FB7C
:10325000F1F1D5F8B00188421CD9D5F8A411B1F527
:10326000967F17D3D5F8A021914213D3D5F8A82182
:10327000D5F8B4319F1AC21BB5F84402824206D376
:103280000120A9EB87030BF0FBFBC5F8B071002010
:10329000C5F8A4010BF00DFC9AF8007007F00100CE
:1032A000BDE8FC87D5F8B401C5F8A4114FF4D4717A
:1032B00096E700BF88050020A18601000BF046B903
:1032C0002DE9F04792B00CAD182128460BF00BFA0F
:1032D000002476208A212A461723CDE90A44CDE925
:1032E0000844ADF81C40069409F0BAFE002851D0FD
:1032F00008AA7620E1210E2309F0B2FE00284BD067
:1033000006AA762000210523002409F0A9FE002842
:1033100040D00DF117027620F02101238DF81740DF
:10332000012409F09DFE9DF81700022807D0BDF882
:10333000341046F2A81081422CBF00240124DFF88B
:103340009893BDF82800A9F81400BDF8300089F85A
:103350000140A9F816009DF8320089F8020014B364
:103360000D99DDF83A20BDF83E3005F11500C9E9A8
:103370000621BDF83810A9F80330A9F80510BDF8EA
:103380004210A9F820109DF8441089F8071009F19F
:1033900008011FE0D04801E0CF4800240470204617
:1033A00012B0BDE8F0870D9905F11600C9F822109A
:1033B0009DF8381089F80910DDF83A10C9F8261080
:1033C000BDF83E10A9F80A10DDF84210C9F82A101D
:1033D00009F10C0100789DF820209DF821309DF81E
:1033E00022409DF8235008709DF91C10102089F888
:1033F0000D50099D91FBF0F0C9F80E5089F81200AC
:10340000100140EA1310A9F82E0003F00F0040EA63
:103410000410A9F830009DF92C000AF019FA9FED6C
:103420008A0B0BF0A9FB9FED8A0B0BF0B1FB044656
:10343000BDF92A000F460AF00BFA9FED870B0BF03F
:103440009BFB9FED870B0BF097FB9FED870B0BF022
:103450009FFB9FED870B0BF08FFB9FED870B58ECCD
:10346000106B3246434602F02EFC02460B462046C5
:1034700039460BF01EFC04469DF92D000D460AF05E
:10348000E7F99FED7F0B0BF077FB9FED7F0B0BF0C8
:1034900073FB22462B4602F016FC05469DF81A00E7
:1034A00001240F46000964F39F000AF063FE9FEDBC
:1034B000780B02460B4651EC100B0BF0F8FB024662
:1034C0000B46284639460BF0F4FB07469DF91800D9
:1034D0000D460AF0BDF99FED700B0BF04DFB324627
:1034E000434602F0F0FB02460B46304641460BF0E5
:1034F000DEFB02460B46384629460BF0DAFB9FED11
:10350000680B0BF045FB9FED680B0BF035FB9FED57
:10351000680B06460D4657EC108B42463B4607F0BB
:1035200012F89FED650B00281CBF3D46464630460D
:10353000294657EC108B42463B4607F02BF80028F3
:103540001CBF3D4646463046294608F045FF634DC0
:10355000024676205A21A847762064215922A8479E
:10356000762071211022A847762072210122A847D7
:10357000762074215522A84759480AF047FA01AD30
:10358000112128460BF0AFF876201D212A46112381
:1035900009F066FD00284CD09DF811009DF81250EE
:1035A000800050EA951A44D099F912000AF050F9B7
:1035B0009FED430B0BF0E0FA9FED430B0BF0E8FAA5
:1035C0000246484805F00F070B4600EBC7000BF01A
:1035D00099F9054644480E462A46334600EBC70093
:1035E0000BF090F90746AAF5007088460AF030F90A
:1035F00002460B462846314602F065FB02460B4662
:10360000384641460BF053FB9FED310B80460E468A
:1036100057EC105B2A463B4606F0BCFF48B14046DB
:1036200031462A463B460BF042FB07F063FCC9F8E3
:10363000340076207121002209F05CFF89F80040F7
:10364000ADE600BF00BF00BF000000000000B03FBB
:103650000000000000804840000000000000003F23
:10366000FCA9F1D24D62403F55C1A8A44E40633F32
:103670000000000000007440000000000000F03F67
:10368000000000000000503F000000000000384033
:103690000000000000001040FCA9F1D24D62603F24
:1036A00000000000000039C03333333333330B40A4
:1036B00000000000000000000000000000E06F407B
:1036C00000000000000014400000000000F09440E2
:1036D0000000000000408F4014050020F5D40000D9
:1036E00020BF020088F1000008F20000F0B597B09A
:1036F0000EAC20460BF05AF94FF4E13021461490FD
:103700000220ADF83800002002F0BCFFA64FA84E02
:10371000B861A648B047A74C2046B047A648B04776
:10372000A648B0472046B0470BAC20460AF0A6FF9B
:10373000204601210BF07CF9204601210BF0C7FA4D
:103740009F482146483009F01FFE9E48214609F057
:103750001BFE20460BF0B9FA9B48B04709F0E0FD8C
:10376000132001210AF0D4FF1C2001210AF0D0FF10
:10377000964C2046B0479648B04705F0C5FD204618
:10378000B0479448B04707F09BFD2046B0479248A9
:10379000B04792480AF0AEFC914D00210022284625
:1037A0000AF004FA05F11C00002100220AF0FEF9DB
:1037B0002046B0478B48B04705F0D2FE7220642106
:1037C000592208F061FF38788749085C0AF03CFE0E
:1037D0002046B0478548B047022005F081FB38B14C
:1037E000FA2004219622322306F032FA814800E0C2
:1037F0007F48B0478048B047FFF762FD804C002803
:103800007E4D204618BF2846B0477E48B04706F098
:1038100065FB6E48B0477C48B04701F029FC0028A2
:1038200018BF2C462046B0477848B04702F022FB2C
:10383000A8B17748B0470BF0D7F80021754A8DF84A
:10384000061000F00F010009515C105C8DF80510A6
:103850008DF8040001A8B0476F48B04702E06848FF
:103860000AF080FA6D480AF07DFA6D480AF044FBD0
:1038700056480AF077FA6B480021002408F0DAF97C
:103880006948002109F0CDFF6848002107F08AFA55
:103890000DF12A050DF129068DF82B408DF82A40EF
:1038A0008DF829400DF12B040BF0F9F80BF0F7F827
:1038B0004B4C20460AF0D4FC0028FAD05C480AF0B1
:1038C00051FA01AC0BF0B3F90BF07EF90BF0FBF8F9
:1038D000042069460BF074F9564A09A80BF064F904
:1038E00018B155480AF03EFAFEE701AC20460BF04D
:1038F000EAF952480AF036FA0BF099F90BF064F93C
:103900000BF0E1F8032069460BF05AF94C4A08A87D
:103910000BF04AF918B14B480AF024FAFEE701AC63
:1039200020460BF0D0F948480AF01CFA0BF07FF95A
:103930002046012101250BF075F80BF0C4F8022098
:1039400069460BF03DF9414A07A80BF02DF918B173
:103950003F480AF007FAFEE701AC20460BF0B3F946
:103960003C480AF0FFF90BF062F90BF02DF90BF06F
:10397000AAF86946204600950AF076FE364A06A85F
:103980000BF012F918B135480AF0ECF9FEE701A87E
:103990000BF099F932480AF0E5F932480AF0E2F9F9
:1039A000002017B0F0BD00BFB0030020E10301000C
:1039B00065DD000016F500004DF4000090F40000F5
:1039C0006402002080040020F0F70000670301007B
:1039D00081F30000D2FA0000C3F8000034A80020F0
:1039E000F001002012F70000F0020100D5FB0000FA
:1039F0007D020100D4FF0000ECF90000BC020100D0
:103A0000740001002AFB00001CFA0000F7F8000017
:103A1000A1000100410001001C0401004DF700005D
:103A2000DDE9000058B40020509A002078BF002043
:103A300026F8000019550000B8FC0000BAF7000095
:103A4000218D000094FC000084F70000018E00002E
:103A500078FA00005CF6000041000000A5FA0000C2
:103A60001CF6000028F900002DE9F0412DED0C7B3B
:103A70004FF00008002800F06181B34E0446307812
:103A8000002800F05B8100200821CDE90000684695
:103A900007F09EFA8046002800F050819DF805004E
:103AA0009DF80410B1EE002A41EA00220007A74960
:103AB00013466FF3DF2348BF42EA01039DF800007D
:103AC0009DF8012000EE103A9DF8037096ED019AE2
:103AD00096ED028AB8EEC01A96ED030A9DF8023000
:103AE00040EA02251207284611EE020A6FF3DF2092
:103AF00048BF45EA010001EE100A43EA0720B8EE8C
:103B0000C11A3B07024611EE029A6FF3DF2248BF4B
:103B100040EA010201EE102A9DF80600B8EEC11A33
:103B20009DF8072011EE028A40EA02231207184688
:103B300028EE081A6FF3DF2009EE091A48BF43EA9E
:103B40000100B17800EE001AB1EEC12A9FED801A93
:103B500082EE012A81B396ED054A96ED065A96ED5E
:103B6000073A39EE446A38EE457AB0EEC66A0AF092
:103B700065FEC8BFB0EE476A30EE437A0AF05EFEDB
:103B8000C8BFB0EE476AB3EE007AB4EE476AF1EE12
:103B900010FA1AD5BFEE006A9FED6E7A32EE066A11
:103BA000B0EEC66AB4EE476AF1EE10FA0DD59FED9D
:103BB0006C6A9FED6C7A0CE0012186ED059A86ED2A
:103BC000068A86ED070AB17015E09FED636A9FEDE6
:103BD000637A28EE068A29EE069A20EE060A05EE9A
:103BE000078A04EE079A03EE070A86ED068A86ED39
:103BF000059A86ED070A4F389FED5B4A9FED5B5AA9
:103C000000B203EE100AB8EEC33A03EE045AB0EE67
:103C1000C83A9FED574A84ED065AB2EE085AB4EE00
:103C2000453AF1EE10FA48BFB0EE448ABDEEC83A0C
:103C300013EE100AB0EEC93AB4EE453AE080B3EEA6
:103C4000005AF1EE10FA48BFB0EE449ABDEEC93A00
:103C5000B5EE408AB0EE404A13EE100AB0EE403A9C
:103C6000F1EE10FAB5EE409AA08008BFB0EE413AEE
:103C7000F1EE10FA08BFB0EE434A9FED3E3A30EE47
:103C8000033AB0EEC33AB4EE453AF1EE10FA48BF4B
:103C9000B0EE440ABDEEC03A9FED2E4A13EE100A74
:103CA000BFEE003A32EE033A2081B0EEC33AB4EEF2
:103CB000443AF1EE10FA09DA28EE082A09EE092A48
:103CC00000EE002AB1EEC22A82EE012A20EE00AAFE
:103CD00084ED032AB0EE4A0A08EE080AF1EEC00AA3
:103CE000B0EE490A04F0E6FB09EE09AA9FED22BAFC
:103CF00020EE0BCAB0EE480AF1EECA0A84ED04CAFF
:103D000004F0D8FB9FED1D1A20EE0B0AB0EECC2A72
:103D100084ED050AB0EEC00AB4EE412AF1EE10FAC5
:103D2000B4EE410A44BF00202061F1EE10FA44BF16
:103D3000002060610B2007F059FC20774046BDEC65
:103D40000C7BBDE8F08100BF4C05002000F0FFFFB8
:103D500000007A448FC2753D6666E63ECDCC0C3FCE
:103D6000295C8F3D7B146E3FB81E853D0000C44129
:103D70000000000000007AC4E02E6542CDCC8C3FEC
:103D80002DE9F84F2DED181B229D0C460146002011
:103D9000002D00F04081239E002E00F03C8108465B
:103DA0000792099309F054FD9FEDA10B53EC102BE2
:103DB000069208930AF07BFF95ED120B02460B4624
:103DC000CDE90A3251EC100B0AF073FF054620468C
:103DD0000E4609F03DFD04460F4628463146224670
:103DE0003B4601F070FF9FED940B82468B4655ECED
:103DF000100B9FED930BEE0F0D90504658EC109B5F
:103E000066F3DF714A46434606F09DFB002840F00A
:103E1000018122984A46434690ED080B51EC100B65
:103E2000059166F3DF71049006F08DFB002840F0E9
:103E3000F1802298DDE90A3290ED140B51EC100B61
:103E40000AF037FF22463B4601F03DFF0F4666F37E
:103E5000DF714A464346044606F075FB002840F0F1
:103E6000D980DDE90A1052465B460C960AF01FFF26
:103E70009FED750B5AEC10BB5A4653460AF019FFDA
:103E8000DDF88880039798ED0A0B98ED0CBB98ED50
:103E90000E9B98ED108B53EC102B01F00FFFDDE91A
:103EA00004230AF004FF9FED6AAB53EC1A2B01F0D8
:103EB0000AFF9FED690B0591814653EC102B01F031
:103EC00002FF02460B46274604460E460AF0F1FE64
:103ED0000AF024FD0AF022FDCDE90A10099807999D
:103EE000084409F0B5FC9FED5E0B0AF049FE069A06
:103EF000089B0AF0DCFE039B3A460AF0D8FE5A46BD
:103F000053460AF0D6FE98ED160BCDE9081051EC99
:103F10001B0B0AF035FE9FED540BCDE906100599F9
:103F2000484653EC102BCDE9043201F0CCFE9FED56
:103F3000500B9FED51BB9FED52CBCDE9021051ECE0
:103F4000180B4FF0030BCDE9001059EC108BBBF1AF
:103F5000000F65D0DDE9043251EC1A0B01F0B3FE1D
:103F600002460B46DDE900100AF0A3FE42464B462E
:103F700001F0A9FEDDE9023204468A4651EC190B34
:103F80000AF097FE2246534601F09DFE02460B467C
:103F9000DDE906100AF08DFE04460C980E4653EC3F
:103FA0001B2B60F3DF71204606F0F4FA0746DDE9CB
:103FB0000810224633460AF07AFE02460B46002FCE
:103FC00008BF2B460D9C08BF2246DDE90A1001F010
:103FD0007AFE22462B4641EC180B06F0DBFAB0B114
:103FE000B0EE480AF0EE680A02F07EFD02F07CFDB9
:103FF00053EC1C2B51EC100B01F065FE229A92ED54
:10400000180B53EC102B01F059FE41EC1A0BABF1DD
:10401000010B9CE70020BDEC181B01B0BDE8F08F40
:1040200051EC1A0B06F066FF239908600120F2E7B5
:104030000000000000002840000000000000000018
:104040008DEDB5A0F7C6B03E000000000000204195
:104050000000000000003940666666666612714026
:10406000000000000000E03F00000000000039C038
:10407000000000000000F03F11EA2D819997713D8A
:1040800066666666661271C0AC490246002818BFB3
:10409000012009780840012840F04F812DE9F84FB0
:1040A0002DED0C3BCDE902022C2007F09FFA019088
:1040B0002D2007F09BFAA24C00902D200021A04754
:1040C0002C208321A0472D202221A0474CF25030E4
:1040D00009F09CFC102000264FF000080025002865
:1040E0003FD0CDE9040600200621ADF82400089059
:1040F00008A806F06DFF2E469DF820A09DF821B07F
:104100009DF822409DF823709DF825909DF824503D
:1041100042F2107009F07AFC45EA09205FEA097260
:10412000884B01466FF3DF2148BF40EA030144EAB0
:104130000720751801463A076FF3DF2148BF40EAB0
:1041400003014AEA0B2088445FEA0B7201466FF3D1
:10415000DF2148BF40EA0301DDE904060E440138CF
:10416000BDE700EE105A01EE108A02EE106A9FEDD4
:10417000768A039801210AF0D4F880ED002A80EDB8
:10418000011A80ED020A2E2007F041FE4CF2503059
:1041900009F03CFC10204FF0000B00240026002802
:1041A00042D0CDE9040B00200621ADF81C0006909A
:1041B00006A806F00DFFB34626469DF818709DF838
:1041C00019509DF81A809DF81B909DF81DA09DF830
:1041D0001C4042F2107009F019FC44EA0A205FEA20
:1041E0000A72584B344601466FF3DF2148BF40EA5C
:1041F000030148EA09200BEB01065FEA0972014658
:104200006FF3DF2148BF40EA030147EA05200C4471
:104210002A0701466FF3DF2148BF40EA0301DDE9C9
:10422000040B8B440138BAE701EE104A00EE106A25
:1042300002EE10BA039D2E20002100240AF071F82E
:1042400085ED032A85ED041A85ED050A07F0DFFDEB
:1042500095ED000A95ED033A95ED022A95ED055A84
:1042600095ED011A95ED044A00200021002200235B
:1042700033EE400A9FED353A35EE422A34EE411ACC
:104280009FED344A82EE032A80EE030A81EE031A80
:104290009FED2F3AB4EE432A85ED082A85ED060AF4
:1042A00085ED071AF1EE10FAB4EE442A9FED2A2AA2
:1042B00098BF0120F1EE10FAA8BF0121B4EE421A16
:1042C0009FED262A08400021F1EE10FA85F826001D
:1042D000A8BF0121B4EE421AF1EE10FA98BF0122F4
:1042E000B4EE430A11400022F1EE10FAB4EE440A93
:1042F00085F8251098BF0122F1EE10FAA8BF01231E
:104300001A4085F8242018BF002900D0044685F8FB
:1043100027400B4C2D200021A04701992C20A047BD
:1043200000992D20A04744F6206009F06FFB029809
:10433000BDEC0C3B01B0BDE8F04F70474C050020D0
:104340000FBE000000F0FFFF0000803D00007A4338
:1043500033333340CDCC4C3E333333C0CDCC4CBE65
:104360002DE9FE4F074608680024B0B1D7E9018A5D
:104370000E460AF0AFFA8146D8F8E800082888BF50
:104380000124B068204202D17068204208D0032086
:10439000307448460AF036FC00242046BDE8FE8F03
:1043A000D8F8C01069B198F8F8100029EFD00621AC
:1043B0003174D8F8C410C8F8C4604E6198F8FC1085
:1043C0000DE000210522C8E93066C8E93411C8E9CA
:1043D000361198F8FC10002908BF0122327400221F
:1043E0000129726109D102204FF4E02188F8FC0014
:1043F00098F8FB0009F0E0F87068894901388842B4
:1044000005D8042009F0F0F8062009F0EDF80220A4
:1044100009F0EAF898F8F80040B9DAF83C00316899
:10442000814203D298F8FC0000286CD0D8E93610FD
:1044300009B118B900E028B30AF09AFBDAF80000D5
:10444000416941F00101416148460AF0DBFB98F8FF
:10445000F80008B10124A0E708F16C05D8F8EC10C9
:1044600028460AF062FB0028F4D0D8F8C0000321E7
:104470000174384605F048FF2846002100240AF060
:1044800054FB8AE79AF804000AF0FBFB654CDAF863
:1044900010100222206991FAA1F1B1FA81F143686A
:1044A000D8F8CC004068006898472069DAF8141002
:1044B00002224368D8F8CC0091FAA1F1B1FA81F157
:1044C0004068006898479AF8040009F0A3FD9AF83C
:1044D00004000AF0D8FB0AF04BFB0020C8F8E0000B
:1044E000D8F8C0000068B0F5806F01D90AF040FB31
:1044F00098F8FE000028A1D1DAF80000416841F0E8
:10450000020141609AE798F8F90020B1D8F8EC0070
:1045100001307FF48BAF48460AF074FBB2683AB1C1
:10452000D8F8E8000221092838BF0121009103E0F2
:1045300008F1F40200200090746834B1D8F8E80063
:104540000227092838BF012702E008F1F6040027F6
:10455000DAF80000334D416841F002014160D6F8BD
:1045600000B0D946BBF1000F40D0D8F8E800019266
:1045700009284FF0010011D22A68B9F1000F1FD0AD
:10458000C0071DD02178DAF8000092689047002813
:104590001EBF3C44A9F101090120EDE72A68B9F1E9
:1045A000000F16D0C00714D02188DAF800009268F6
:1045B000904700281EBF3C44A9F101090120EDE706
:1045C000DAF80000D26802A99047DDE901201070F6
:1045D00007E0DAF80000D26802A99047DDE901207F
:1045E00010800098ABF1010B0244BBE7D8F8F00053
:1045F000DAF80010CA680240102802D1002AF9D166
:1046000001E0002AF6D0706809F088FCD8F8C010E4
:104610000020C8F8C400C8F8C00008741AE700BF3A
:10462000FEFFFF0FC40100102DE9F84F2DED028BA6
:10463000A6B058EC104B9FED9A0B074600208A4617
:104640000B902046414656EC105B2A46334605F057
:1046500087FF9FED950B00281CBFB0462C462046D7
:10466000414648EC184B53EC102BCDE9053205F0D0
:104670005DFF48B9B0EE480A0BA8F0EE680A06F0F4
:1046800053FE0B9801380B908DED088B8B4A8A49AD
:104690009DF8270080F080008DF8270030208DF8ED
:1046A0003000387B412808BF0A46059E069D0792C8
:1046B000204641462A46334605F045FF0899002822
:1046C0002A46334608BF2146099808BF404640ECB9
:1046D000181B4146204605F029FF0DF1300BBD683F
:1046E00004970BF1010698B9B0EE480A25A8F0EE40
:1046F000680A06F019FE2598B0EE480AF0EE680A3E
:10470000C0F1010003F0CCFCB0EE408AF0EE608A0C
:1047100058EC189B4846414607F05EFE3146044679
:1047200007F062F90746204609F092F802460B4668
:104730004846414601F0C2FA41EC100B0135CDE983
:1047400002762DD39FED5A1B06EB070BCDF804A084
:1047500058EC114B59EC10ABDDE905325046494697
:1047600005F0E4FEC8B950464946224643460AF0E1
:10477000A0FA05460E4607F02FFE074609F068F836
:1047800002460B462846314601F098FA41EC100BE0
:104790000798C05D0BF8010BDCE7DDF804A039E0F9
:1047A0009FED431BBB4459EC118BD5B151EC100B61
:1047B00042464B460AF07DFA06460F4607F00CFECD
:1047C000044609F045F802460B463046394601F0EA
:1047D00075FA41EC100B0798013D005D0BF8010FD5
:1047E000E3E75C46079D14F80119284609F0F0FF3D
:1047F000401B08280EDB049EDDF80880079F00257B
:104800002178384609F0E4FFC01B0E2806DD04F8C5
:104810000159F5E7049EDDF8088003E00799084494
:10482000407820700020702152468BF80000307BC9
:10483000412808BF50210B9807F09BFAB268039CEF
:10484000501C04D120460AF00EF8421EB2602046E9
:104850004146534608F030FDB06808B1012202E03D
:104860003068C0F3C00220464146534606F062FA63
:10487000DAF800007822411ECAF80010317B412985
:1048800008BF58220270DAF80000411ECAF8001072
:104890003021017026B0BDEC028B01B0BDE8F08F75
:1048A000000000000000F0FF000000000000000019
:1048B00000000000000030401F0001003000010037
:1048C000002800F03181002900F02E812DE9F04F01
:1048D000A8B09346002A00F02481944B944A1C68A7
:1048E00044F080741C60136843F001031360D2F835
:1048F00004C0B0F8FE31002B08BF4FF448730C8998
:10490000002C08BF4FF44874E51AAD0195FBF3F78E
:104910006FF03F0517F1400FD8BF2F464026402FBC
:10492000A8BF37461C97B0F80072002F08BF1F467B
:10493000E41BA40194FBF3F313F1400FD8BF2B4603
:10494000402BA8BF33460F7C1D933B0721D4D0F8E2
:1049500094014FF01D0E6FF00D086FF0050900284F
:1049600008BF4FF47A708B695B01B3FBF0F0022350
:10497000203890FBF3F010F13B0FD8BF6FF03A00F6
:104980004528A8BF4520A0F1050A0A2310200324CA
:104990000CE04FF02E0E6FF02A086FF015092D2352
:1049A0006FF01C006FF020044FF02A0ACDE922308E
:1049B000B8064FF01E03CDE92089CDE91EAE25943F
:1049C000DFF878E14FF0000803EAE0705A4B2490DA
:1049D0004FF0300058BF6FF015002790C87A554946
:1049E00001EB8010232190FBF1F000B210F1400F99
:1049F000C8BF0546402DB8BF2E4626960CA91CAD53
:104A0000B8F1100F14D05EF8286000270C2F06D0E4
:104A1000DC5755F82700013700FB0466F6E7B711AD
:104A20000C3327EAE67641F8286008F10108E7E749
:104A3000434CDFF810E14FF000086846B8F10C0F66
:104A400014D05EF828600027102F06D0E55751F8E3
:104A50002730013703FB0566F6E7B711103427EA64
:104A6000E67640F8286008F10108E7E7374E364F50
:104A7000DFF8DCE04FF0000800233546052B1AD0A4
:104A80005EF82340B14600260C2E06D0B95750F8E8
:104A90002620013602FB0144F6E7B5EBA41FB8BFA0
:104AA000A5114E46B9EBA41FBEBF4D469846A611B0
:104AB0000C370133E2E71E484068B0EB0C0003D02E
:104AC0004CF25131884201D340F28C50214ACBF84C
:104AD00004008BF800805FFA88F1183080B2525CD5
:104AE0008BF80120DBF80C200132CBF80C203022AF
:104AF000B0FBF2F01022CBF80800701B90FBF2F034
:104B000010F1110FD8BF6FF010001128A8BF1120AD
:104B100052308BF8020021B1DBF810000130CBF8E5
:104B2000100028B0BDE8F04F704700BFFCED00E07A
:104B3000001000E000EEFFFFE1ED00009CF500003A
:104B4000A1EE00008CF900009AF600000100008040
:104B500084FF0000DC0301002DE9F04F85B004461E
:104B60008A46002B1846214618BF0120002C18BF8A
:104B7000012108400E9900290D4618BF0125284043
:104B8000012840F02D81049098892588277FA8422C
:104B900005D26588A8423D4698BF002500E0012562
:104BA000BD4203D10025A777657711E0A67FB54206
:104BB0000BD1667F94F804C001366677F6B266457D
:104BC00006D3002625772F4601E00126A5776677D4
:104BD000012F12D16425B0FBF5F5EEB242F20F754C
:104BE000A84288BF642693ED020A94ED021A039648
:104BF00009F04BFF16D501201AE001254FF0000EF9
:104C0000A4F81F50BAF1000F84F821E093ED020AD6
:104C10002FD09AF834024FF04009002660F07F0E42
:104C200000202AE094ED031A09F02FFF02DB002098
:104C300084F8200094ED041A09F027FF01DD01201B
:104C400005E094ED051A09F020FF02D8002084F851
:104C5000210094F82050012D03D102204FF0020CC6
:104C600018E094F82100012809D105204FF0050C27
:104C700010E0002001264FF0000903902BE094ED96
:104C8000061A09F002FFD9BF03204FF0030C0420DD
:104C90004FF0040CE077BAFA8AF04609BAF1000F37
:104CA0000BD09AF834E25FEA8E600AD40EF003006B
:104CB0001EF00C0F18BF043006E04FF0000E00206D
:104CC00002E06EF07F0E402040EA051094F821507B
:104CD00040EA45196546A7F1010CDAB102F6985091
:104CE00090ED033A90ED022A90ED001ABDEEC33A22
:104CF000BDEEC22A13EE100A019012EE100A0290C5
:104D000092F8AC0D01280ED1032049F008094FF0AC
:104D100001080CE000209FED341A4FF000080290CB
:104D2000CDE9000004E092F8A80D4FF000080090D3
:104D30005A7DBCFA8CF0012A01D19A7D0AB909F199
:104D400080094FEA501C18680860608C013019F027
:104D50003F026084888018BF012236B100274FF4DB
:104D600048764B204FF0000B07E0BAF830B2BAF8A3
:104D70003272BAF82C629AF82E02CD76039D81F831
:104D80002A2081ED070A81F819C081F8188081ED89
:104D9000041A81F80EE0A1F80CB04F810E818871E1
:104DA000A1F828902C228D76019DCD82029D8D82C6
:104DB000009DCD735868086204F1280093ED040A41
:104DC000BCEEC00A81ED090A09F086FF606D013072
:104DD00060655FEA8960049802D0A16D0131A16528
:104DE00005B0BDE8F08F00BF00000000002800F013
:104DF000208170B52DED108B0D46002900F0158136
:104E00001446002A00F0118106462046442109F08C
:104E10006AFC9FED921AB01D9FED910A2946024649
:104E2000B0EE412AB0EE413AB0EE414A71B3B2F968
:104E3000023005EE103AB2F90030B8EEC55A06EE6F
:104E4000103A32F9023CB8EEC66A07EE103A931DEA
:104E5000D3ED000AB8EEC77AF5EE400AF1EE10FA8B
:104E600009D866EE060A47EE070A45EE050AF1EE96
:104E7000E00AC0EE800A31EE201A32EE052A33EE47
:104E8000063A34EE074A01392032CFE705EE105AD0
:104E9000B8EE45EA82EE0E8A81EE0E1A83EE0E9A85
:104EA00084EE0EDA9FED6D2AB0EE423AB0EE424A41
:104EB000B0EE42FAF0EE428AB0EE425A84ED00DAE9
:104EC00084ED019A84ED028A84ED031A002D52D0FC
:104ED000B0F9021006EE101AB0F90010B8EEC66A6A
:104EE00007EE101A30F9021CB8EEC77A00EE901ADD
:104EF000811DD1ED001AF8EEE00AF5EE401AF1EE50
:104F000010FA09D867EE071A40EEA01A46EE061A04
:104F1000F1EEE11AC1EE801A77EE492A70EECD4A21
:104F2000B0EEC77AF0EEE00A71EEC11A013D203012
:104F3000F0EEE23AF0EEE45A30EE877A01EEA14A62
:104F400002EEA22A04EEA45A75EEA33A76EE485A6F
:104F5000B0EEC66AF0EEE56A37EE066A05EEA53AEF
:104F600086EE006A73EEA63AC3EE803A78EE868A41
:104F70003FEE23FAAAE784EE0E1A82EE0ECA85EE01
:104F80000E0A83EE0EBA9FED373A3CEE002A84ED0E
:104F9000071AB1EEC01A84ED040A84ED05CA84ED47
:104FA00006BA3BEE022A82EE03AAB4EE411AF1EEF3
:104FB00010FA84ED08AA3DD6B1EECC0A84ED091AA8
:104FC00009F09AFD3BD684ED0A0AB1EECB0A09F04E
:104FD00093FD39D684ED0B0AB1EECA0A09F08CFDB7
:104FE00037D684ED0C0A28EE080A88EE8E1A8FEE6A
:104FF0000E2A09EE090AF1EEC00AB1EE4D0A84ED5F
:105000000D2A84ED0E1A03F055FA9FED17AAF0EE63
:10501000480A20EE0A0A84ED0F0AB0EE490A03F0AE
:1050200049FA20EE0A0A84ED100ABDEC108BBDE8A7
:105030007040704705F03CF8B0EE401ABCE7B0EEA7
:105040004C0A05F035F8BEE7B0EE4B0A05F030F833
:10505000C0E7B0EE4A0A05F02BF8C2E700000000F6
:1050600000007A4400247449E02E654209F0FABD3C
:105070002DE9FF47012009F0CFF906F021F9DFF80B
:1050800050823A2042F20B4108F1020207F060F828
:105090008146002800F0F38000240DF10E023A2032
:1050A00043F20101ADF80E4007F052F878B1BDF8B7
:1050B0000E10012060F342014FF6FB7001EA00027E
:1050C000ADF80E103A2043F2010107F0A1FD44F6BD
:1050D000206008F09BFC0294ADF8064002AD7D4CC8
:1050E00042F20C402946A04709F0AAFD9FED680B4B
:1050F00056EC107B09F038FD41EC100BDFF8D8A11D
:1051000042F20E4029468AED000BA04709F098FDB7
:105110009FED610B09F034FD41EC100B42F21040A1
:1051200029468AED020BA04709F08AFD9FED5C0B32
:1051300009F026FD41EC100B42F2124029468AED9F
:10514000040BA04709F07CFD09F00EFD41EC100BAB
:1051500042F2244029468AED060BA04709F070FD73
:105160009FED510B09F00CFD41EC100B42F2264073
:1051700029468AED080BA04709F062FD09F0F4FC0E
:1051800041EC100B42F2284029468AED0A0BA04759
:1051900009F056FD9FED460B09F0F2FC41EC100BB7
:1051A00042F22A4029468AED0C0BA04709F048FD3F
:1051B0009FED410B56EC107B09F0D6FC41EC100B37
:1051C00042F22C4029468AED0E0BA04709F038FD2B
:1051D00009F0CAFC41EC100B0DF106053F4C3A20DA
:1051E00042F22E412A468AED100BA04709F0CCFC72
:1051F0009FED330B56EC107B09F0B6FC41EC100B25
:105200003A2042F22F412A468AED120BA04709F0BC
:10521000BBFC09F0A9FC41EC100B3A2042F28141A1
:105220002A468AED140BA04709F0AEFC9FED260B31
:1052300009F0A6FC41EC100B3A2042F282412A46CA
:105240008AED160BA04709F09FFC09F08DFC41EC9C
:10525000100B0DF10E023A2043F201018AED180BFA
:10526000A04750B1BDF80E0043F2010140F0060224
:105270003A20ADF80E2007F0CBFC012000E0002022
:1052800088F80000484604B0BDE8F08700BF00BFC2
:10529000000000000000703F000000000000B03E71
:1052A000000000000000303D000000000000F03E63
:1052B000000000000000103D000000000000B03DB4
:1052C000000000000000503F000000000000103F00
:1052D000F805002001CD0000B0BE002051C1000043
:1052E0002DE9F84F2DED028BA2B08046806820B1E9
:1052F000B0F1FF3F04DC062000E00120C8F8080000
:10530000029004918DED060B9FED7B1B55EC104B2D
:105310009DF81F00294653EC112B80F080008DF87A
:105320001F003020019205938DF82400204605F0DF
:105330000AF99FED730B069900284FF0000A08BF89
:105340002146079856EC109B9FED710B08BF28462D
:1053500040EC181B54EC10BB55EC187B4A46334606
:105360003846294605F016F950B1384629465A46BE
:10537000234609F09CFC41EC180B0AF1010AEBE70B
:105380009FED610B019F2546CDF80C8056EC104B2C
:1053900058EC189B059B3A464846414605F0C6F82E
:1053A00088B9484641462246334605F0CCF850B10C
:1053B000484641465A462B4609F07BFC41EC180B07
:1053C000AAF1010AE4E74846414607F005F80DF165
:1053D000240808F10106314606F006FB02998842CE
:1053E00005DD013118F8012008EB010426E0C9436E
:1053F00008EB0004A946059001EB000857EC185B88
:105400002846394606F0E8FF08F022FA02460B4625
:105410002846394600F052FC5A464B4609F049FCF2
:1054200041EC180B06F0D8FF00F1300218F101082A
:1054300004F8012FE2D305980DF1240800EB0A05CA
:10544000D0B2039F35280CD3601E30210278013280
:105450000270D2B23A2A02D300F80119F6E74045A9
:1054600044D000202070049C15F1030F02DBB868C3
:10547000854207DD397B681E22460239C9B206F033
:1054800078FC0125304609F0EEF9013800220121AF
:10549000A8421ADB002801D4325C00E03022B2F1CD
:1054A000300318BF012363EA0101C90705D1397828
:1054B000090702D40022012105E021684B1E236068
:1054C0000A70012200210138E2E7386829462346A4
:1054D00000F008000243304618BF012205F02AFC04
:1054E00022B0BDEC028B01B0BDE8F08F0020013589
:1054F00004F8010C09AEB6E700000000000000004F
:105500000000C0FFFFFFDF41000000000000F03F8F
:1055100000000000000024408AB0804CDFF80082C8
:105520004FF0000B04AD4FF00009002604F13807DE
:10553000204609F091F998F801000028F8D1284692
:1055400002F018FC0028F3D004362820B6FBF0F057
:10555000049600EB8000A6EBC00018B904F11C0013
:1055600009F0EDFA6F48294605F0FEFA09F042FA13
:10557000042814D19DF81400C04310F0060F06D083
:1055800007986949884202DC6849884207DC1FFAAB
:1055900089F0F62828BFF62000F1040902E0012076
:1055A000D9FA50F91FFA89FA614800233246BAF154
:1055B000640F22BFA8F862B0A8F810B0A4F842B0F7
:1055C00000970799BAF1630F88BF0123FDF7F6FB37
:1055D000BAF1630F09D840B1012008F12802394619
:1055E00088F802005248FFF76BF909F003FABAF1A4
:1055F000630F9DD804289BD1DDE90601CA1710EB83
:10560000610142EBE0700B02000240EA116298F87F
:105610005000C0B3D8F85400D8E912EA0390013022
:105620000290C8F85400D8E91070B3EB070B62EB96
:10563000000C4FEADB1141EA4C61C9194FEAEC1743
:105640007841B3EB0E03C8E9101062EB0A025B0A63
:1056500043EAC253521213EB0E0342EB0A02C91A79
:10566000C8E912329041090A41EA006298F85100F3
:1056700088B112F1B50F4FF0000B04F13807D8BF15
:1056800088F851B054E70120C8E91032C8E9123255
:1056900088F850004CE7B52A4FF0000B04F13807AA
:1056A000FFF646AF012088F851000398A0F2F310EE
:1056B000B0F5FA6F2FD898F8600098F86110029B47
:1056C00008EB4002013000F003000329A2F8583033
:1056D00008F1580288F860009CBF013188F8611019
:1056E00000200B4623B132F8027B013B3844F9E736
:1056F000884204F138070ED3B0FBF1F040F2FD729E
:10570000A0F2C711914206D880B243F69821B1FBAE
:10571000F0F0A8F86200C8F854B009E7F0010020E2
:10572000B003002034A8002000093D00FFF6C2FFAE
:1057300058B400202DE9FC47D0E900588246D8F83B
:105740000000D0F8409019F4F06FC0F8449035D0C4
:105750005FEA495117D5D5E91401411A504608F0BE
:10576000A5F8D8F800008169C90605D401688DF84C
:1057700007109DF80710F6E7296801312960A97B19
:1057800009B90121A973696C40684FF0004600F027
:105790000F0404EA0100B0FA80F126FA01F1014099
:1057A00005D02F6C1FB12A68AB6C5046B847B4FACD
:1057B00084F026FA00F020404042A863D5F8580152
:1057C000D8F83C1009F0400740680068D0F804257C
:1057D0001140394347D0DAE90064504605F03CFDFA
:1057E000D7B1F07C90B90BE0316F69B10068B16E50
:1057F000B26F8854306FB16F01310138B1673067D3
:1058000020688169C906EFD5F07C28B1D6E914017A
:10581000411A504608F04AF896F86400E0B1307931
:10582000022819D017B1B179012901D0316F99B986
:105830000024B16E0128346786F86440B46607D14D
:10584000B36CB26FD6F8CC6050460094B04703E01A
:1058500006F17C0009F025FA504603F025F8D5F84A
:1058600058014068006800F204500068D8F8381009
:10587000084228D0D5F8F80028B3DAE90076504677
:1058800004F096FE504603F00BFE7879012812D101
:10589000D7F8F40078B997F8E80060B1002087F8ED
:1058A000E800BB6CD7F8EC10D7F8FC20D7F85041D3
:1058B00000905046A047D7F8F80020B93068816BB7
:1058C00041F4006181635FEA095023D5D8F80000F4
:1058D00081690907FCD4016B21F480710163297A85
:1058E00091B10020287295F84400800606D52C6CF2
:1058F00024B1AB6C504620210022A0475046012124
:1059000008F0B0F8D8F80000816B21F400618163E1
:10591000687908B1BDE8FC8705F58070BDE8FC47F3
:1059200009F0BFB92DE9FE4FD0F800809946144622
:105930000E46824613B10020C9F8000008F0CAFFE5
:10594000834698F8070038B198F8640048B109F028
:1059500074F96FF00805B4E009F06FF96FF00E0507
:10596000AFE0002C4AD0504605F076FC0020012123
:10597000C8E91A64C8F87040C8F87800C8F8380058
:1059800088F80C0088F80A00504688F8641007F080
:105990002FFB504602F088FF08F14C0402AD204670
:1059A000294608F003FBD8F87810D8F87070721800
:1059B000B84238BF0746029910463A4609F08CF9BA
:1059C0002046394607F0E8FED8F87000D8F878107D
:1059D000C21B3944012FC8F87020C8F8781001DBC9
:1059E000B842DCD198F8041002290CD10020C8F884
:1059F000680088F86400C8F870001CE009F01DF920
:105A00006FF009055DE0B84215D10020D8F8686054
:105A1000012988F86400C8F868000CD101245846B0
:105A200088F8104009F0EEF898F80F0000284BD0E5
:105A300008F050FF834609F000F998F8040008B117
:105A400000252FE0D8F8701008F17C0031B30C99D4
:105A500009F06BF810B1012088F80C0008F03AFF4B
:105A60000446504605F0F8FB0020C8F86800C8F866
:105A7000700088F86400504602F016FF98F80A603B
:105A800098F80C50204609F0BDF8002D18BF6FF0B3
:105A90000C05002E18BF6FF00D0503E00021002556
:105AA00009F043F808F016FFB9F1000F07D098F895
:105AB000041001291CBFD8F87810C9F8001009F0AB
:105AC000A1F82846BDE8FE8F002598F810000028B0
:105AD000AED008F0FFFEA8F80F4009F093F8D8F810
