:1000000000380120D1FB00006504010065040100F7
:100010006504010065040100650401006504010038
:100020006504010065040100650401006504010028
:0C0030006504010065040100818E0000E1
:10004000F4B010F09BF824906CA8DFF854BADFF8F5
:10005000547ADFEDBE8ADFEDBEAADFF84C5A4FF0CE
:100060000009F2EE049A811D0A301390DFF83C0A71
:10007000149148301690002023902590DBF81C0046
:100080008DF8AF91CDF8A8910DF2AF1101226AABB6
:1000900010F04CFC083003D1DBF81C000FF0FAFA2A
:1000A0006A98002800F097809DF8AF01239A0D28E8
:1000B00002D00A2840F09280002A00F09C806CACAC
:1000C000012A04F8029000F09980DFF8E41911F099
:1000D00082FB002800F0C580DFF8D81911F07BFB07
:1000E0004FF0000A002800F0C880DFF8CC1911F0AA
:1000F00072FB002800F0D580DFF8C01911F06BFB0F
:10010000002800F02B81DFF8B81911F064FB0028FB
:1001100000F01081DFF8AC1911F05DFB002800F051
:100120000981DFF8A41911F056FB002800F0DB81EB
:10013000DFF8981911F04FFB002800F0D481DFF8A8
:10014000901911F048FB002801F0F980DFF88419BC
:1001500011F041FB002801F0F880DFF87C1911F064
:100160003AFBDFF84459002801F0F580DFF86C19FC
:1001700011F031FB002801F00181DFF864192046FD
:10018000052210F047F9002801F0EA80DFF8541941
:100190002046052210F03EF9002801F0E180DFF84A
:1001A00048192046092210F035F940B1DFF83C1912
:1001B0002046092210F02EF9002840F012822398E0
:1001C0000B2832BF002013980EF04EFD01218BF852
:1001D0000C1001F0CFB84FF0000A04E24FF0000A13
:1001E00041B242B31E2A00F2FE816CA8239A8154C8
:1001F00001322392F7E14FF0000AF2E19DF8B001DD
:10020000A0F1310103293ED9442800F024814FF0A8
:10021000000A572800F01C815A2808D0642800F0F2
:100220001A81772800F014817A2840F0DA810120C1
:100230008BF80B0014E1002901F12880A0F14202A3
:10024000152A52D9A0F16302142A05D8012303FA12
:1002500002F2404B1A424ED1A0F13102042AC4D21C
:1002600049E0002000214FF0000A2390DFF88008C9
:100270008BF80D1010F082F9B5E101208BF80D001C
:10028000DFF87008ABE14FF0000ADFE811F004007E
:1002900026011A012001012009F0C6F8DFF85808EC
:1002A0009DE1DFF85808DFF85848A04711F060F9E1
:1002B0000DF0A2FEDFF84C08A0479BF80D00DFF818
:1002C00048180128DFF8440808BF0846A0472EA8B0
:1002D00010F010FFDFF83808A0479DF8B8000DF0C7
:1002E0008BFEDFF83008A0477BE101231A4C9340D6
:1002F000234200F0C887A0F14D010A2940F2B580E1
:10030000A0F13101032940F2C880432800F0638145
:10031000632800F0608100216D28239100F0B480F3
:10032000702800F04E81762800F02781772840F071
:100330005A813DE1402007F027FDDFF8DC0710F08F
:100340001DF90020DFF860574CE100BF00007A443F
:100350009A99993F0124180002483100DFF8BC0740
:10036000DFF89C47A047DFF8B807A04711F006F96F
:10037000DFF8B0970028DFF8B087484618BF40463E
:10038000A047DFF8A807A04711F0ECF80021DFF83C
:10039000A0878DF83A1110F05BFF8DF839118DF8B8
:1003A00038014EA8A047DFF88C07A04711F0C8F825
:1003B000DFF88457A847DFF88407A047172010F01C
:1003C00035FEA847DFF84C673046A047DFF8D8066F
:1003D0002EA910F0FBFBDFF86807A0472E98A8476E
:1003E000DFF86007A0472F98A847DFF85C07A04711
:1003F0003098A8473046A047DFF85007A04711F0D3
:10040000C9F800284846DFF8205718BF2846A047FB
:10041000DFF83C07A0479BF803000028484618BFB8
:100420002846A047DFF82C07A04711F0ADF80021BF
:1004300023918DF89E1010F00BFF8DF89D108DF814
:100440009C0027A8A0473046A047DFF85C56CAE0CA
:10045000DFF80407C3E001204FF0000A8BF80C001E
:1004600000202390CBF82800BDE000202390DFE897
:1004700011F00B00BA00BA00A800BA002D07BA00AC
:10048000BA00BA0084009F00DFF820060121203066
:1004900011F0B3F9DFF8C406A1E0DFE811F00400C1
:1004A000430729073607012008F0BEFFDFF8B00632
:1004B0000CF0A4F811F0CAF810F0EAFDDFF83806E5
:1004C000D8E6032008F0B0FFDFF8100F87E0042023
:1004D00008F0AAFFDFF8000F81E0022008F0A4FF77
:1004E000DFF8FC0E7BE02EA804F00EFC00283FF4A1
:1004F00028AFDFF8AC0EDFF8AC5EA84734ACDFF80D
:10050000A86E94ED000A11F069F9DFF8A00EA84773
:1005100094ED010A11F062F9DFF8940EA84794ED0A
:10052000020A11F05BF99DF8DF00DFF8881E002851
:10053000DFF8840E18BF0846A847DFF8800EA847EA
:1005400094ED000A11F04AF9DFF8740EA84794ED13
:10055000010A11F043F9DFF86C0EA84794ED020A86
:1005600011F03CF9DFF8600EA8479DF8DF000DF0B0
:1005700043FDDFF8580EA847E3E6DFF8680E40F2C7
:1005800001514322A0F82510602056218BF82E003F
:1005900045F20260ABF82C0050200EF0A9FB1E20A3
:1005A0008BF80E0001208BF80500DFF83C0E16E0FA
:1005B000DFF8300E0221203011F01FF9DFF82C0E89
:1005C0000DE0DFF8200E00212391203011F015F905
:1005D000DFF81C0E4EE60CF0A5FADFF8200E0FF047
:1005E000CDFF0020239025984FF47A78002600F163
:1005F0001009102E00F0BD80284664A90DF09EFD64
:10060000002800F0B9809BF80200C00755D00022F6
:10061000DFF8E00D40F2EE214FF0000A8BF80220E7
:10062000D0F8B00197F84340884228BF1446BBF881
:10063000160068B92320ABF816009BF8050038B9FE
:100640009BF80000062803D1204601210BF090FA08
:10065000DBF81C0088B39BF80D0001282DD164B392
:1006600097F84850B7F84000B7F844C0B7F846E0EC
:100670000623BBF86210DFF8882DAF0603EAE777A0
:100680008DE88300402123464EAFCDE903CE05958A
:100690002EAD28460EF094F8012808DB0246DBF860
:1006A0001C0029463B46CDF838A110F07BFEDFF850
:1006B000245DDFF8447D4FF0000ABBF81600E0B17E
:1006C000BBF816000138ABF81600BBF81600A0B94D
:1006D0009BF8050088B99BF8000006280DD1DFF8CB
:1006E000141D40F2EE2297F84300D1F8B011914268
:1006F00028BF504600210BF03BFADBF81C009BF8AA
:100700000D10012919D1C0B1DDE966019DF89421D0
:10071000649B8DE807002EACDFF8E82C38212046DA
:100720000EF04EF8012808DB0246DBF81C00CDF87D
:1007300038A121464EAB10F035FE97F838109BF8E3
:100740000F00012906D10121BBF818208140114377
:10075000ABF8181001300A2201364FF0C808C1B2B8
:10076000B1FBF2F101EB8101A0EB41008BF80F002E
:100770003FE7CDF8949002E02598304425909BF80F
:1007800004004EAFD146C0077CD09BF80D00012875
:1007900078D1DDF858A0504610F0EEFFDFF8580C85
:1007A0008BF8049090F870002290DFF84C0C90EDDC
:1007B000198A90ED1A9AB0F95C60B0F95A70B0F9E4
:1007C000584050460FF082F9DFF83C0CDFF8D49B1C
:1007D000C84700EE104ADFF8344C10F04BFFDFF84A
:1007E000300CC84700EE107A10F044FFDFF8240CFC
:1007F000C84700EE106A10F03DFFDFF81C0CC84738
:10080000DFF8A44BB0EE480AA047DFF8100CC84749
:10081000B0EE490AA047DFF8080CC8472298DFF875
:10082000B06BC0F38010B047DFF8F80BC847DFF8B3
:10083000F87B386EB047DFF8F40BC84797ED190A1C
:10084000A047DFF8EC0BC84797ED1C0ADFF8E44B34
:10085000A047DFF8E40BC84797ED1E0AA047DFF872
:10086000DC0BC84797ED1F0AA047DFF8D40BC84739
:1008700097F850004EAC0027B047DFF8500BC84740
:10088000B94627460FF07AFC0446249841F2883195
:10089000201A8842C0F0DA818DF838918DF89C904A
:1008A0008DF8789127A938465EAA0BF0DBFC00286A
:1008B00067D09DF89C00810727D59BF80000DFF8E2
:1008C000842B013000F0070000EB40018BF80000A2
:1008D000505C0A44517892780EF00AFA9BF80000B6
:1008E000DFF8641B085C10F0F1FA10F046FDDFF849
:1008F0005C0B0FF043FE9BF800000DF07DFBDFF872
:10090000500B0FF03BFE9DF89C00C1071CD010F06F
:100910002FFE461C032888BF0126F0B208F084FD94
:100920004520432147220EF0E3F910F026FDDFF8C1
:10093000240B0FF023FE30460DF05EFBDFF8100BAA
:100940000FF01CFE9DF89C0041070AD501208BF892
:100950000B00DFF8040BCBF828900FF00FFE9DF88A
:100960009C0080060DD5402007F00EFA432041215F
:100970004C220EF0BDF910F000FDDFF8E00A0FF098
:10098000FDFD9BF80500DFF8706A01280BD19BF88C
:100990000E0020B101388BF80E00000603D18BF851
:1009A000059007F0E3FD9BF81000411CC0078BF891
:1009B000101000F04A8110F0CFFD002800F04581B2
:1009C0009BF811000C22411C8BF81110C9B2B1FB2D
:1009D000F2F202EB4202A1EB820100295DD0C007D6
:1009E00040F0C080B06DDFF8401A96ED1A2A2E90C4
:1009F000B6F85C00ADF8BC00086EADF8C20091F826
:100A00004C0091F850108DF8C510DFF8D8198DF80A
:100A1000C40091ED021A91ED010ABDEEC11A20EE5B
:100A2000290A11EE100A96ED191ABDEEC00A8DF8CA
:100A3000C80021EE291ABDEEC11A11EE100A22EEED
:100A4000291ABDEEC11AADF8BE0011EE100A91EDE3
:100A5000051AADF8C00010EE100A9BED080AADF8BB
:100A6000C600BBF81400BDEEC00AADF8D00010EE11
:100A7000100A91ED040AADF8CA00BDEEC00A10EEEE
:100A8000100ABDEEC10A8DF8CC0010EE100AADF8C8
:100A9000CE002EA80AF0FCF8D7E00CF091FED4E0CE
:100AA00018040020F001002034A800206402002077
:100AB0004F360100E9370100F838010083390100A1
:100AC00088390100D73701005D3601007D3701000C
:100AD0005F3701004A370100C3370100793901004F
:100AE000643901004C39010087370100A537010046
:100AF00062300100093001008A330100BA30010080
:100B00007D050100333601009C390100E03701000A
:100B1000D8360100ED2E0100FD2901006B350100E2
:100B200007360100812A0100A0390100D0380100F8
:100B3000C53501001F380100F9DF0000B43601009F
:100B4000AF340100AF370100133701001636010042
:100B500043380100CC360100A43301003F2A0100D4
:100B600018B70020B6F84030DFF8882896F848001B
:100B700096F84310ADF8BA30B6F84430D2F8B02148
:100B8000ADF8BC30B6F846309BF82E60ADF8BE30FC
:100B90009BF82C308DF8C1608DF8C030DBF8343014
:100BA0008DF8C2309BF862308DF8C33040F2EE23EE
:100BB0009A42DFF8303828BF49468DF8B810DFF880
:100BC000682893ED000ABDEEC01A30EE2A0A11EE35
:100BD000101A9BED091A8DF8C5109BF80910002911
:100BE00018BFB0EE410ABDEEC00A10EE101A8DF823
:100BF000C41092F84C108DF8C61092F85010C0F343
:100C0000C0028DF8C82063228DF8C71093F8251014
:100C10008DF8CB208DF8C91093F82610002918BF45
:100C200001218DF8CA10012121EA501610F0A0FC14
:100C300041F678118DF8D0608DF8CF608DF8CC003A
:100C4000ADF8CD102EA80AF083F824949BF80A0082
:100C5000DFF8A477C00700F05482DFF80458284674
:100C600010F08AFDDFF87C078BF80A909BED08AA4C
:100C70009BED099ABBF814409BF806A09BF807600F
:100C800090ED008A90ED01EA90ED02FA90ED03DA22
:100C900090ED04CA90ED05BA9BF8090021909BF8ED
:100CA0000800229028460EF011FF9BF80D00012845
:100CB00040F0C081DFF8E4070FF060FCBAF1000FEC
:100CC00027D0DFF8DC07DFF8DC76B847DFF8649779
:100CD000B0EE480AC847DFF8CC07B847B0EE4F0A75
:100CE000C847DFF8C407B847B0EE4E0AC847DFF878
:100CF000BC07B847B0EE4D0AC847DFF8B407B8479D
:100D0000B0EE4C0AC847DFF8AC07B847B0EE4B0A64
:100D1000C8473EB1DFF880070FF030FCB0EE4A0A5A
:100D20000BF0AAFCDFF89007CDF880A000270FF0A9
:100D300025FC20460DF060F92198DFF8985638B16F
:100D4000DFF878070FF01AFCB0EE490A0BF094FCBC
:100D5000DFF86C07DFF84C66B04710F009FCDFF8ED
:100D60007096C847DFF8900690F843A0DFF8840635
:100D7000D0F8B041DFF84C07B04740F2EE20844293
:100D800028BFBA465046C847DFF83C07B047BBF813
:100D90006200C8475EA810F0ADF9DFF83007B04731
:100DA00034AC94ED2B0A0BF067FCDFF82407B04756
:100DB00094ED2C0A0BF060FCDFF81807B04794EDB7
:100DC0002D0ADFF8E475B847DFF80C07B04794ED5B
:100DD0002E0AB847DFF80407B04794ED2F0AB8474A
:100DE000DFF8FC06B0479DF87801C847DFF8DC055E
:100DF000B047DBF81C004EAF002800F01681DFF88A
:100E0000F8450625BBF86210B4F84000B4F8442059
:100E1000B4F8463094F84840A60605EAE6768DE830
:100E2000430003A840211CC0DFF8D42553463846B0
:100E30000DF0C6FC012808DB0246002039462E9042
:100E4000DBF81C002EAB10F0ADFADFF89865CDF89A
:100E500054A0306A18B906F120000EF08BFC2298DD
:100E6000DFF89415DFF8C02596F826400BF12C0327
:100E700000F001003831009006F1200006F06CFD12
:100E8000DFF850557CB196F8260060B9DFF86805A8
:100E900090F84800000706D462208BF82E004FF42B
:100EA0009C40ABF82C0096F824009BF82D40229033
:100EB00096F8250021909BF82E001F90DBF8340057
:100EC0001E90B06A1D90F06A1C90306B1B90706B86
:100ED0001A90B06B0EF0BEFCCDE91810F06B0EF05E
:100EE000B9FC1790306C8A460EF0B4FC0746706C63
:100EF00089460EF0AFFC41EC100B179849EC117BC2
:100F0000336A002CDFF8DC254AEC120BDDE91810FF
:100F10008DED0E1B8DED100B41EC130B1A988DED22
:100F20000C2B8DED0A3B089008BF4E24229880219F
:100F300000902198CDE901041F9803901E98049019
:100F40001D9805901C9806901B9807902EAC204683
:100F50000DF036FC012808DB0246002021462790D0
:100F6000DBF81C0027AB10F01DFA10F0F5FADFF8E3
:100F700088A4002859D015989BF86210BDEEC80AC5
:100F80008DF89C00BAF840008DF8A710DFF898148F
:100F9000ADF89E00BAF84400ADF8A000BAF84600DB
:100FA000ADF8A2009BF82C008DF8A40091F84C003D
:100FB00091F850108DF8AA0010EE100A8DF8AB10C1
:100FC000DFF820148DF8A9009AF84800C0F3C0009B
:100FD0008DF8AC002098002818BFB0EE489ABDEEFE
:100FE000C90A10EE100A8DF8A80063208DF8AF0032
:100FF00091F8250091F826108DF8AD009BF82E0091
:1010000000298DF8A500DBF834008DF8A60018BF84
:1010100001218DF8AE1010F0ABFADA498DF8B0006E
:10102000CDF8B11027A810F024FCDFF8CC734FF0F6
:10103000000966E09BF80D00DFF89853002860D1A6
:101040002EAC204610F07EF8DFF81454DFF8A4131D
:10105000D04A234605F12C000090DFF8080404F084
:10106000C3FBDFF80404CF4CA04795F83200D84EFC
:10107000B047DFF8F803A047A88EB047DFF8F003C9
:10108000A047E88EB047DFF8EC03A047288FB047B1
:10109000DFF8E403A04795F83A00B047DFF8DC0337
:1010A000A04795F83B10DFF8DC03DFF8D4230129D3
:1010B00008BF10460029DFF8D01308BF0846A04734
:1010C000DFF8C803A04795F84400C24DB047DFF8E9
:1010D000C003A0472298B047DFF8B803A047BAF191
:1010E000000F18BFB0EE489AB0EE490A0CF096F81F
:1010F000DFF8A403A047B0EE4A0A0CF08FF8B3481B
:10110000A0479BF80B0020B99BF80C00C00700F02B
:10111000AF809BF80C00DBF8284001218BF80B9086
:101120008BF80C908BF80110C0071AD0DFF8C403BD
:101130009C4EB04720460CF05FFFDFF8B003B0478D
:10114000DFF8B403B0476420452150220DF0D0FDF4
:101150008D480FF03FF80EF0E9F820460EF0AAF89F
:1011600016E0E1488F4EB04720460CF045FFDF48BF
:10117000B047DF48B04753204C2150220DF0B8FD56
:1011800081480FF027F80EF0D1F820460FF0A0FCB0
:10119000DA485EAE2EAF0FF01DF8002520200021AA
:1011A0008DF89C5027AA0DF081FDA9468DF8785145
:1011B0002E95DBF81C00314601223B460FF0B6FBB2
:1011C00010B92E980028F4D1CD4804FB00F60EF09B
:1011D000D5FF82460DF19B054EAF2CB10EF0CEFF30
:1011E000A0EB0A00B04224D21D200FF01FFF68B907
:1011F000FF2000213A468DF8380120200DF056FDE1
:1012000020B19DF83801C043800612D1DBF81C00E4
:10121000294601223B468DF89B90CDF838910FF07E
:1012200085FB08B94E9820B94CF250300EF0D2FF31
:10123000D3E70EF05DF809F099FB0CF0C3F809F064
:1012400045FE7520502120220DF052FD9BF8000034
:101250007D49085C0FF03AFE10F08FF8A9488BF832
:1012600001900FF08BF9A8480FF088F9624F594DA3
:1012700028460FF043FE00283EF400AF40460EF033
:10128000A9FFFEF7FBBE002A7EF4DCAF2320ABF8FB
:1012900016009BF8050000287FF4A3A99BF8000026
:1012A0000021239106287FF49EA9524940F2EE22A4
:1012B00097F84300D1F8B01191424FF0000128BFD8
:1012C000084601210AF054FCFFF78DB900200021E7
:1012D0002390ABF812109BF8050000287FF483A937
:1012E0009BF8000006287FF47CA900202390E9E702
:1012F000032008F099F83F480BF080F910F0A6F9A8
:101300000FF0C6FE3548FEF7B5BF042008F08CF894
:1013100038480BF073F910F099F90FF0B9FE2E4828
:10132000FEF7A8BF022008F07FF832480BF066F9FC
:1013300010F08CF90FF0ACFE2948FEF79BBF154862
:101340000EF0BFFA1548FEF7FABF12480FF02FFC57
:101350001148FEF7F4BF0DF019FE0D48FFF73FB935
:101360002398072832BF002014980DF07DFC01213E
:101370008BF80B10CBF82800FFF733B90348FFF7C1
:101380002EB900BF78190101305705000133010063
:101390008B2E0100509A0020D63301000F3101003E
:1013A000E53001007D0501001DD200001B39010060
:1013B00014390100AF310100EF330100983401000E
:1013C0003E39010006390100F2370100A839010059
:1013D000F9DF000034A80020563301003C3301003F
:1013E000703301006402002068260100442B0100D4
:1013F000DD27010018B70020F00100206131010055
:10140000BD3301007E35010030350100EDC2000022
:101410004539010022390100913701003A380100B5
:10142000B038010073370100F0C00020C838010057
:10143000FB37010079C6000029390100303901006D
:10144000313801006834010088380100BE2D0100E8
:10145000B0390100C6340100202F0100DC34010046
:101460000C060020A0C300201C3501003739010004
:10147000CD370100283801009B3701006A36010092
:101480000D390100E038010069370100B93701006A
:10149000C03601000D380100D83801004136010086
:1014A0005E3901005239010058390100A0380100AD
:1014B000983801009038010004380100A838010074
:1014C0004C380100C0380100B83801003437010041
:1014D0002937010008370100A83601003F37010015
:1014E0001E370100392C010089310100A4390100A7
:1014F000AE280100F22D01007729010090D00300F1
:10150000A08601006A280100913501000A20704779
:101510002DE9F84F2DED048B96B00025002800F042
:10152000C4840646DFF8000A0078002800F0BD8475
:10153000DFF8F849762071210022A0477620722139
:101540000122A047762074215522A04746F2A81018
:101550000EF040FE11AC112120460FF03CFE76202B
:101560001D21224611230EF0CDF8002800F09C84A6
:101570009DF84A109DF84900090141EA00309DF8A4
:101580004B1040EA1110410302D1002500F08CBC41
:101590009DF847209DF846109DF84830120142EA18
:1015A000013141EA131109919DF852100D919DF8F6
:1015B00051100691BDF84C1009BA090C0C910FF0AE
:1015C000D7FA9FEDB30B0F9681468B4653EC102B49
:1015D0000E92109310F045F90446DFF84C090F46BF
:1015E000808A0FF0C5FA9FEDAC0B05460E4610F051
:1015F0008BF802460B462046394605F09AFA044617
:10160000DFF824090F46B0F916000EF0EFFC024691
:101610000B462046394610F024F99FEDA10B804679
:101620008A464846594653EC102BCDE9072310F063
:1016300018F99FED9D0B04460F462846314610F0E1
:1016400063F802460B4639462046DFF8DC7805F0A1
:1016500070FA02460B4610F004F9044697F90200AE
:1016600010F0BFF89FED920B53EC102BCDE90A233D
:1016700010F0F7F810F012F810F0F3F802460B46ED
:101680004046514605F055FA9FED8B0B04460D463A
:1016900053EC102B10F0E3F8824688460BF042FC26
:1016A0000F99059008607878012840F06181B7F9BA
:1016B0001A000490B7F920000EF098FC9FED800B03
:1016C00055EC107B3A4610F071F80446DFF85808E4
:1016D0000E4690F907000EF089FC3A4610F066F8C5
:1016E00010F02EF8224610F067F8834609980D4650
:1016F00000010FF03DFA02460B4604460990894668
:1017000010F0AFF85A462B4606460F4610F0A9F8DF
:1017100005468B463046394622464B4610F0A1F826
:101720000646DFF804080F4690F908000EF05EFC4C
:101730009FED650B0FF0E8FF02460B463046394639
:1017400010F08FF82A465B4605F0F3F9CDE9071053
:1017500004980EF04BFC9FED5E0B0FF0D5FF0FF0E1
:1017600077FE0446DFF8C0070D46008B0FF000FA45
:101770009FED590B0FF0C8FF0FF0DAFF0446DFF8BA
:10178000A8070D4690F903000EF030FC9FED540BB6
:101790000FF0BAFF0FF05CFE0FF05AFE0FF07EFF65
:1017A00005F0C7F90546DFF880070F4690F90400F9
:1017B0000EF01CFC9FED4C0B0FF0A6FF0FF048FE47
:1017C0000FF046FE0FF044FE02460B46284639460F
:1017D00005F0AFF9CDE90310DFF84C07C08B0FF02F
:1017E000C7F99FED430B0FF01DFF05F0A2F99FED28
:1017F000420B0FF089FF0FF02BFE0646DFF828079B
:101800000F46808B0FF0B4F92A46234605F091F974
:101810009FED3B0B0FF078FF02460B4639463046F2
:10182000DFF8047705F085F9054697F905000E46BF
:101830000EF0DCFB9FED340B0FF066FF0FF008FE9F
:101840000FF006FE2A460FF0B7FF834697F9060011
:101850000FF0C7FF9FED2E0B0FF056FF0FF0F8FDB6
:101860000FF0F6FD0FF0F4FD5A462B4605F061F936
:10187000099A4B460FF0F5FF02460B46DDE90310CF
:1018800005F057F902460B46DDE9071074E100BF89
:10189000000000000000103F00000000000050BFEA
:1018A000000000000000E03E00000000000020BF3B
:1018B0000000000000003040000000000000B440C4
:1018C000000000000000F03C000000000000E03BD1
:1018D000000000000000903F0000000000002040D9
:1018E000000000000000703F000000000000003F0A
:1018F000000000000000D0C0000000000000203EFA
:10190000000000000000B03E000000000000F03DBC
:10191000000000000000A03D000000000000E03FCB
:10192000000000000040EFC0000000000000C03ECA
:10193000000000000000F03F000000000000000078
:10194000000000000000D03F000000000000F04058
:1019500000000000000030BF000000000000304127
:1019600000000000006AB840000000000000003ED7
:101970001FED170B204629460FF0C6FE1FED180B72
:101980000FF0CEFE054697F909008B460EF02EFBB0
:101990000FF076FD0FF074FD0E9A109B0FF061FFB3
:1019A0000446B7F924000E460EF020FB2A465B469B
:1019B0000FF057FF22460FF0FFFE1FED250B0FF033
:1019C000A3FE1FED370B53EC102BCDE903230FF0D3
:1019D00048FF1FED290B0FF0A3FE0446788C0E463E
:1019E0000FF0C6F802460B46204631460FF039FF8D
:1019F0001FED2F8B81460C4653EC182B0AF0FCFC94
:101A0000002840F0BD80B7F928000EF0EFFA0FF083
:101A100037FD01940446DFF810050F4690F90B00DE
:101A20000EF0E4FADDE907230FF01BFF0646CDF8C0
:101A300008A0C2468846284659462A465B460FF00B
:101A400010FF324643460FF00CFF05460E46204677
:101A5000394622463B4605F06CF82A460FF0ACFEAC
:101A60001FED490B0FF050FE0446DFF8BC040D4695
:101A7000B0F926000EF0BAFA1FED4D0B0FF044FE40
:101A80000FF056FE1FED4E0B0FF03EFE0446099878
:101A90000FF08FFE1FED500B02460B4651EC100B62
:101AA00005F042F80FF044FE1FED530B0FF02CFE33
:101AB000019B4A460FF0D3FE0646DFF86C048846C9
:101AC000B0F92C000EF092FA0FF0E0FC0FF0DEFC03
:101AD0001FED5B0B0FF018FE1FED7F0B8346894651
:101AE000304641460FF010FE02460B4604460D46B6
:101AF0000FF0B7FE0FF0D2FD0FF0B3FE0446DFF893
:101B000028040D46007B0FF033F8DDE907230FF0C2
:101B1000A8FE22460FF04AFE0546DFF80C040F46E9
:101B2000B0F92A000EF062FADDE903230FF099FE06
:101B3000324643460FF095FE5A464B4604F0F9FFF5
:101B40003B462A46DFF8E07304F0F3FF044697F9BA
:101B50000A000FF046FE9FEDDE0B0FF0D5FD0FF0F3
:101B6000E7FD9FEDDD0B0FF0CFFD0B464146D04664
:101B7000DDF808A00246304604F0DBFF41EC180B0C
:101B80009FEDD90B51EC180B53EC102BCDE908321B
:101B90000FF065FE0BF0C6F90F9E706097F90D000F
:101BA0000EF024FA9FEDC40B0FF0AEFD0FF050FCC9
:101BB0000446388E0FF0FDFDDDE90A230FF051FEDB
:101BC0000FF0B6FD04460C980FF0F3FD22462B46AD
:101BD00004F0AAFFB9460C900F4699F90E000EF0DA
:101BE00005FADDF838B0109B5A460FF03AFE0FF0B8
:101BF000A7FD9FEDB30B0FF093FD044699F90F007D
:101C00000FF0EFFD9FEDB60B0FF07EFD0FF020FC07
:101C10000FF096FD0FF08CFD0446B9F82E000FF082
:101C2000C8FD9FEDB30B0FF06FFD22460FF0BEFD18
:101C300002460C980B4639460FF013FE044699F8FD
:101C400010000F460EF094FF109B5A460FF009FE4D
:101C5000834699F911000FF0C4FD9FEDA70B0FF01B
:101C600053FD0FF06DFD5A462B4604F062FF2246ED
:101C70003B460FF0F6FD22463B460FF0F2FD2246B2
:101C80003B4604F056FF9FED900B83460F4655EC04
:101C9000104B22462B460AF0BCFB00281CBF2F46E7
:101CA000A346099C089D5846394622462B460AF011
:101CB000D7FB00281CBF2F46A346584639460BF0D9
:101CC00031F9B0600D9908EE100A99ED0D9A880669
:101CD00020D4BBEE0E1A05989FED972AB7EE003A76
:101CE00038EE011A01EE023A00EE100ABBEE051AB8
:101CF00030EE010A9FED911A00EE013A9FED900A35
:101D000029EE039AB4EE409AF1EE10FA48BFB0EE15
:101D1000409A4AE0069801F00F084FEA911A8600AF
:101D2000814890F912000EF061F99FED750B0FF0EC
:101D3000EBFC9FED750B0FF0F3FC02467C480B4665
:101D400000EBC8000FF08AFB04467A480D46224695
:101D50002B4600EBC8000FF081FB804606EB0A0023
:101D60008946A0F500700EF041F90FF097FC04F0E1
:101D7000E0FE02460B46404649460F9E0FF06FFDBF
:101D80009FED630B80468A460FF04CFC0AF068FB1F
:101D900058B1404651462A4623460FF060FD0BF0ED
:101DA000C1F8614909EE100A48639FED5B0B584684
:101DB000394686ED039A0FF035FC0AF044FB58B122
:101DC0009FED570B5846394653EC102B0AF02EFB6B
:101DD00010B1B3EE090A17E0584639462A462346A1
:101DE0000AF017FB40B19FED580AB3EE091A38EE1E
:101DF000000A30EE010A07E09FED520AB3EE091A1D
:101E000038EE000A31EE400A9FED501A9FED502A3D
:101E1000B6EE083A89EE011A21EE021A21EE031AF3
:101E20009FED4C3AB4EE431AF1EE10FAC8BFB0EE93
:101E3000431AB5EE401A9FED483AF1EE10FAB5EEAE
:101E4000400A48BFB0EE431AF1EE10FA48BFB0EEB8
:101E5000430A31EE000AB1EE041A32EE400A9FED59
:101E6000412A20EE010A9FED3D1AB5EE400AF1EE3F
:101E700010FA48BFB0EE430AB4EE410A9FED3B3A78
:101E8000F1EE10FAC8BFB0EE410A9FED351A86EDAB
:101E9000040A012500EE012A9FED331A00EE013AF3
:101EA00086ED062A86ED053A3577284616B0BDEC54
:101EB000048B01B0BDE8F08F000000000000E03F9F
:101EC000000000000000F03F0000000000000000E3
:101ED0000000000000006040000000000000B03F73
:101EE000000000000000B03E00000000000059406B
:101EF000000000000000D03E000000000000A03EF6
:101F000000000000000014400000000000F09440B9
:101F10000000000000408F4000000000000043402F
:101F200000000000000045405007002005FC0000B4
:101F300068250100E8250100A69BC4BB6F1203BC05
:101F40000000FA44000028C2000018C20000484205
:101F50000000C84200009642000000000000FA4362
:101F60000AD7233CCDCC4C3DCDCC4C400000C843DF
:101F70002DE9F04FADF5077DD0F8009006469B4661
:101F80001546869148460FF01BFA4FF0000A09EB00
:101F900000044FF0FF300027CDF814A2A14580F0D7
:101FA000C580A04609F101048DF810A28390CDE907
:101FB00081AA14F8010C002800F0B880252805D06B
:101FC00029463460D84701340137F2E734608597F9
:101FD00081AC3146204600F0AEF82046314686AA54
:101FE00000F0CAF830680278411C7A2A2AD0682AA0
:101FF00044461CD06A2A09D06C2A0FD0742A09D012
:102000004C2A2CD1819840F0800025E0819840F442
:10201000006021E0819840F400501DE00146819A63
:1020200011F8013F6C2B12D142F4807107E0014698
:10203000819A11F8013F682B0CD142F40071819113
:1020400002300BE08198444640F4805004E042F0B6
:10205000400001E042F0200081900846027800F143
:102060000109732A8DF81022C6F800901FD06E2A3D
:102070002AD1819843F660710840411E80EA01022E
:102080008A420ED990FAA0F0B0FA80F0411F0829D8
:1020900007D8F817DFE801F0440505394005390590
:1020A0000500869850F8041B0F60869026E09DF886
:1020B000040240061AD4CDF800B081A886AA2946A9
:1020C00085AB00F01CF919E00DF1060881A986AA7C
:1020D000404600F069F9909B0246404629469847E1
:1020E000411C18BF38448590074608E0CDF800B081
:1020F00081A886AA294685AB00F09CF8859F781CAC
:102100004FF0FF307FF44AAF0EE0869951F8042B70
:10211000C2E900708691F1E7869802C80F70C4E7A3
:10212000869802C80F80C0E74FF0FF3738460DF59C
:10213000077DBDE8F08F10B50A680124E30708BFEA
:1021400010BD1378302B0CD0232B0CD02B2B0CD0A4
:102150002D2B04D00024202BF0D1042306E00123F2
:1021600004E0102302E0082300E0022304680132A7
:102170000A6023430360E0E7FEB50446086816469C
:102180000D4603782A2B11D13068011D316000689B
:10219000B0F1FF3F606005DC40426060206840F0C5
:1021A000010020602868471C2F6017E000210DF116
:1021B0000202303B4718092B06D87B1C2B60435C7E
:1021C00053547B780131F4E7002050549DF802000D
:1021D00020B10DF102000CF047FD606038782E2828
:1021E00027D1781C28607A782A2A08D13068011D06
:1021F00031600068A060286801302860FEBD0020C2
:102200000DF10201303A092A07D83A18931C2B60C5
:10221000537892780B540130F4E700220A549DF869
:10222000020028B10DF102000CF01EFDA060FEBD01
:10223000A260FEBD2DE9FE4F054610680C46011D4B
:10224000116007680C9AD7B3AE6898469146002E85
:1022500004D438460FF06CF8864203D338460FF0AA
:1022600067F80646D5F804A0B3460195B245C8BF45
:10227000D346D8F80000CDF808805844C8F80000CC
:102280000FDD01980078C0070BD1ABEB06054FF0CE
:102290000008A84505DA20202146C84708F10108B2
:1022A000F7E7DDF808800025B5420EDA57F825007B
:1022B000B0F5807F19D22146C8470135F4E70020E8
:1022C000214603B0BDE8F04F1047B24515DD019837
:1022D0000078C00711D0ABEB06050026AE420CDA41
:1022E00020202146C8470136F8E74FF0FF30C8F8F4
:1022F00000000FF039FA58210160BDE8FE8F2DE98A
:10230000F84F054610680C46011D116006680A9AD0
:10231000C6B3AF689B469046002F04D430460FF0FA
:102320004FF8874203D330460FF04AF80746D5F8F6
:1023300004A0B9460095BA45C8BFD146DBF80000F5
:102340004844CBF800000DDD00980078C00709D1A3
:10235000A9EB070B00255D4504DA20202146C04784
:102360000135F8E70025BD4204DA705D2146C0471B
:102370000135F8E7BA4503DD00980078C00706D1BB
:10238000BDE8F88F00202146BDE8F84F1047A9EBC3
:1023900007050026AE42F3DA20202146C047013669
:1023A000F8E700BF00BF00BF2DE9FE4F164600272B
:1023B0008B46D1F8048040F2FD112022044601979B
:1023C0000EF004FF04F5FE7084F8FD7102909BF896
:1023D0000C00A0F16101172929D80122BA4B8A40CB
:1023E0001A4209D001A902AA5846334600F070F9F2
:1023F00000274FF0000991E012F0710F25D102295A
:1024000015D130680027011D3160006884F8FC0197
:10241000C0B2DBF80010B0FA80F04FEA501921F09A
:102420000201CBF8001004F2FB11029176E0A0F15A
:102430004501032909D3252800F08A80412804D0CA
:102440005828CFD04FF000096AE03068073020F0FC
:10245000070000F10801316090ED000B9BF80C5073
:1024600056EC107BA5F17B09384631463A46334697
:102470000DF08AFC002840F00C8194499FED900BF0
:1024800026F00040414053EC102B394315D003F0A7
:1024900000414FF00009084440EC107BF70FA5F114
:1024A0004100062829D9A5F16100062836D8DFE8C1
:1024B00000F02A353535DCD7D2006E20314619F1CF
:1024C0001A0F38BF4E2084F8FB014FF0660038BF6A
:1024D000462084F8FC014FF0690038BF492084F899
:1024E000FA0104F5FC700290384609F092FF78B1C9
:1024F0002D204FF0000904270EE0DFE800F0040F64
:102500000F0FB6B1AC0002A9584603F021F870E7EE
:102510002B204FF00009032784F8F9019BF80C00E9
:10252000A0F16F014FF0010A092905D80AFA01F15B
:1025300040F24322114221D158281FD06FB1012F00
:102540001CD101200190DBF8000000F002000CE03B
:10255000252020800120BDE8FE8FDBF80010019AC5
:1025600001F00200002A00F0858002992D22B0FAC5
:1025700080F04FEA501A01F8012902919BF80000FF
:1025800004EB08072646C007029809D104F2FD11A2
:10259000DBF804202646091A9142DCBF791A4E1C4A
:1025A000411C304600224FF4FF7300250EF0CFF996
:1025B000B9F1000F02901CBF00F8015B0290B84215
:1025C00007D8391A0138202201310EF0FFFD002012
:1025D00038709BF80000C00605D4311B204620222D
:1025E0000EF0F4FD31E0A6422FD0311B2046302200
:1025F00030250EF0EBFD0198B0FA80F0400900EABA
:102600000A00012805D19BF80000400701D42046AC
:1026100005E03178204600F8011B06F8015B9BF8C5
:102620000C1041290DD0582905D0612909D07829ED
:1026300001D0702909D19BF80020120701D461292B
:1026400003D1717841703020707020460EF0B8FED2
:102650004844BDE8FE8F02A9584603F089FCC8E64D
:1026600002A958460BF04AFCC3E602A9584605F0F9
:10267000DBFABEE628B948077FF580AF0298202133
:1026800003E002982B214FF0000A00F80119029094
:1026900074E7612019F11A0F38BF412084F8FB015B
:1026A0004FF000094FF06E0038BF4E2084F8FC0157
:1026B00084F8FA01022704F2F91002902EE700BF15
:1026C000000000000000000008C190000000F07F42
:1026D000F8B50546806814460F46B0F1FF3F04DDAB
:1026E000286820F01000286001E00120A860287B05
:1026F0001026582807D0782805D0702803D06F28D6
:1027000014BF0A2608262846194600F053F8AA687E
:102710004AB950EA010206D12878000749D52B7B37
:102720000020002112E02B7B642B04D16423B1F143
:10273000FF3F05DD0AE0692B08D1002906D5692392
:1027400001223A600022404262EB010132460094CD
:1027500000F0ACF83021AA68904205DA2268013016
:10276000531E23601170F6E7287B582818BF78287D
:1027700010D1297809070FD521684A1E22607028D8
:1027800008BF782008702068411E21603021017048
:10279000287B01E07028ECD06F280AD12878000748
:1027A00007D520684178302903D0411E21603021AF
:1027B0000170F8BD10B5027B702A2BD0006843F67B
:1027C00060731840431E80EA03049C420DD990FABE
:1027D000A0F0B0FA80F00538082806D8DFE800F04D
:1027E0004D050520390520050500A2F164001428D7
:1027F0000ED8012303FA00F02B4B18420AD110F037
:10280000210F05D00868021D0A600068C11710BDBD
:10281000582A46D10868021D0A600068002110BDD0
:10282000A2F16400142808D8012303FA00F01E4B1B
:10283000184204D110F0210F01D1582A31D1086873
:10284000073020F0070000F108020A60D0E900011B
:1028500010BDA2F16400142808D8012303FA00F087
:10286000114B184204D110F0210FCBD1582A18D1A6
:102870000868021D0A600078D0E7A2F164001428FD
:1028800008D8012303FA00F0074B184204D110F0D6
:10289000210FB7D1582A04D10868021D0A600088A8
:1028A000BCE70020BAE700BF00081200F8B50546F3
:1028B0001148124E582B069F144608BF064655EA8B
:1028C000010011D13868421E3A60302202700BE0DC
:1028D0002846224600F014F83A68531E3B6000FB7D
:1028E00014530546F35C137055EA0100F0D13868C3
:1028F0000EF066FD0138F8BDA3350100B4350100C6
:10290000102A06D0082A09D1C00840EA4170C90837
:102910007047000940EA01700909704719B9B0FB16
:10292000F2F00021704780B500230EF033FC80BD2B
:102930002DE9F84F2DED068BADF5496D00260028E9
:1029400000F0AC830F46002900F0A8839346002ACC
:1029500000F0A48397ED038A8146B5EE408AF1EE3C
:1029600010FA1DD8B7F90610B7F90400B7F9082016
:1029700001EE101A00EE100AB8EEC11AB8EEC00A45
:1029800021EE011A00EE001A00EE102AB8EEC00A7D
:1029900000EE001AB1EEC10A9FEDB01A80EE018A76
:1029A0003868394620220390B9F8A40C09EB40108E
:1029B00024300EF06BFFB9F8A43C642009F61C58D3
:1029C0005E1CB6FBF0F101FB1064B9F8A61CA9F877
:1029D000A44C63299CBF0131A9F8A61CB9F8A80C26
:1029E00000F1010A09F618500290D9F8180DA9F85B
:1029F000A8AC48B999F83D2D32B9D9F8542D1AB977
:102A0000DFF814280025157089B29FED950AB0EE05
:102A1000481AB0EE482A0C2928BF0C216422B6FBC4
:102A2000F2F54FF44866754304F16306C5EB4313B2
:102A30008C4D4B4403F54B6321B3B6FBF2F4B0EE7F
:102A4000414AB0EE425A04FB053494ED003AB4EE2C
:102A5000413AF1EE10FAB4EE423AC8BFB0EE434A42
:102A6000F1EE10FAB4EE403A48BFB0EE435AF1EE40
:102A700010FAC4BFB0EE452AB0EE441A0139013E47
:102A8000203BD9E731EE420A98ED092A9FED763ACC
:102A9000B7EE001A0EF0D5FD01D5039C1DE09FEDA9
:102AA000733A039C0EF0CDFD17DCB6EE081AB4EEB7
:102AB000418AF1EE10FAC0F2CD80B7EE041AB4EEFE
:102AC000418AF1EE10FA00F2C5809FED691A9FED80
:102AD000693A28EE011A02EE031A88ED091A9FEDF1
:102AE000662AB4EE420AF1EE10FA02D59FED639A1F
:102AF00018E09FED633A38EE411A9FED624A21EEED
:102B0000039AB0EEC11A9FED5D3AB4EE441AF1EEAD
:102B100010FA48BFB0EE439A98ED0A1A9FED5A3A60
:102B200001EE039A0021B4EE420A88ED0A9AF1EE12
:102B300010FA89F83C1D27DAC8E90B11012089F841
:102B4000500DD9F8540D00286CD0201AB0F5C86F7C
:102B500009D9DFF8C416002089F83D0DC8F8100027
:102B6000C8E90000087099F8F20CE0B1D9F8FC0C43
:102B700040F6B831201A8842C0F0B78148460EF0BE
:102B800016F8B9F8A8ACB0E199F8501D01294DD15B
:102B900098ED0B0AB4EE409AF1EE10FA40F39080F3
:102BA00088ED0B9ACDE799F8F00C052800F2148116
:102BB000DFE810F006001B01140112013E015D0167
:102BC0009FED2F0A0EF060FD40F15D8199F8F30C46
:102BD000013089F8F30C000A40F08781012009F5E3
:102BE0004E63B7F90610B7F90820C9F8F44C89F814
:102BF000F00C0020986189F8F30CB7F9040001EE9D
:102C0000101A02EE102AB8EEC11AB8EEC22A00EE6F
:102C1000100A83ED011A83ED022AB8EEC00A83ED93
:102C2000000A62E1B4F5C86F93D89CE798ED0C0AEE
:102C3000B4EE409A9FED150AF1EE10FA48BF88ED08
:102C40000C9AB4EE409AF1EE10FAFFF67AAF88EDE6
:102C50000B9A73E7B0EE421A41E700BF00007A44D6
:102C6000CDCCCC3D80F3FFFF3333333F6666A63FC8
:102C70008FC2753DD7A3703F295C0F3E0000000056
:102C80006666263FEC51383D3333B33E8FC2753C08
:102C90000AD7A33D8FC2F5BC00606A4700007042AE
:102CA0008FC2F53DC3F51C416666E63ECDCCCC3EF9
:102CB000CDCC8C3F3333D33F295C8F3E333303403D
:102CC0001FED0D1A0EF0B8FCFFF63BAF1FED0F1A0B
:102CD000B4EE419AF1EE10FA3FF633AFD9F8542D25
:102CE00040F20463A11A002A08BF40F6C411A1F5FE
:102CF00082729A4200F2E180DFF81C65012233788B
:102D0000002B00F00A8201EE101A012B04BF0222F0
:102D100032701FED232A1FED264A40F201131044A2
:102D2000C9F8544DC9F8584D30EE490AB8EE41AAD9
:102D30001FED271A98ED003AA9F83C3DC9F8180D87
:102D400081EE0A1A21EE022A03EE042AB2EE044AA8
:102D50000EF081FCC8BFB0EE421A1FED302A88ED9C
:102D6000001A81EE022A1FED321A0EF065FC88ED82
:102D7000012A48BFB0EE410A1FED361A20EE010AC3
:102D8000B1EEC01AB1EEC10AB4EE400AF1EE10FA8B
:102D900080F13B821FED3C1A20EE010A1FED3D1A27
:102DA0000EF04AFC48BFB0EE410A1FED3F1A0EF08C
:102DB00043FCC8BFB0EE410A307888ED020A022811
:102DC00040F0B18102980068022818BF012001EE8E
:102DD000100AB8EE411AA8E1002003E00020A9F88B
:102DE000040D042089F8F00C7FE009F54E61D9F854
:102DF000F40C91ED060AB4EE408A1FED520AF1EE92
:102E000010FAC4BF09F54E6181ED068A201A0EF052
:102E10003BFC30DBB0F5617F2DD80120C9F8FC4CBC
:102E2000A9F8140D0020A9F8040D4FF482701BE0DE
:102E3000BFEE000A1FED601AB9F8040D38EE000A63
:102E4000B0EEC00A0EF0F8FB26D50130B9F8181024
:102E5000A9F8040D80B2884247D30120C9F8FC4C80
:102E600089F8F20C40F20520A9F8F00C3DE00120B1
:102E700089F8F20C39E040F2B731884224BF0020D3
:102E8000A9F8F00C31E01FED730A0EF0FDFB1EDA1D
:102E9000002089F8F30C28E010B10138A9F8040DDE
:102EA000B9F8140D0130A9F8140D80B21E2824BF02
:102EB0004FF44070A9F8F00C17E0B1F5E16F40F263
:102EC0004981D5480121C9F8544D017042E109F505
:102ED0004E6080ED068A4FF48270A9F8F00C012054
:102EE000A9F8140D0020A9F8040D1FFA8AF0322861
:102EF00024D3B9F8A60C002609F54E6A6428C0F060
:102F00009280B9F8A47CCDF804A0AA46A9F8A86CD0
:102F10004FF0640804AD09EB471000F12404B6F546
:102F2000486F0FD0B7FBF8F0202200FB0A41A81928
:102F30000EF0ACFC203601372034F0E7002609F50E
:102F40004E6A70E0DDF804A004A864210AF184024E
:102F500002F094FD99F8DC1C99F8DD0C9AED212A19
:102F60009AED221A9AED230AB6EE083A4A1C01EBB2
:102F7000410109EB810102F00302042801F6AC4192
:102F800089F8DC2C81ED002A81ED011A81ED020A1D
:102F90003CBF013089F8DD0C9AED2E4A039CB4EE5B
:102FA000434AF1EE10FA35DA99F8EC0C9AED2D3A25
:102FB00002287BD0012818D0002840F091809FED96
:102FC0009D5A0EF052FBC0F2A2809FED9B4A0EF07C
:102FD00042FBC0F29C8099F8EF0C012840F0C380BE
:102FE0000EF0BDF9022877D2C1E09FED8C5A0EF0A9
:102FF0003CFB79DB9FED8B5AB4EE453AF1EE10FACB
:1030000072DB99F8EF0C022840F0A8800EF0A7F9C7
:10301000022804D30EF098FB022089F8EC0C002063
:10302000012689F8ED0C0BF1080009F664514422E1
:103030008BF80460CBF800400EF028FCB9F8EC0CDB
:103040009FED811AABF84C0099F8F00C99F8F11C3F
:1030500099F8F22C8BF84E108BF850208BF84F001B
:1030600002992822DAF81800CBF85400B9F8040DB8
:1030700000EE100AB8EE400A20EE010A8BED170AA6
:10308000DAF82000CBF858000BF160000EF0FEFBE0
:1030900009F65C50594688220EF0F8FB30460DF5D3
:1030A000496DBDEC068B01B0BDE8F08F9FED5E0A67
:1030B000B4EE404AF1EE10FA06D49FED5C0AB4EE8D
:1030C000403AF1EE10FA1FD599F8EF0C012821D102
:1030D0000EF045F90328A2D30EF036FB01209CE741
:1030E000002089F8EC0C42E09FED4D5A0EF0BDFA3D
:1030F0000AD59FED4F4A0EF0AEFA05D599F8EF0CC0
:1031000000287AD001202BE00EF01EFB87E70EF09E
:103110001BFB2CE040F2011022E0C9F8544DC9F825
:10312000584D327016E0B7EE001A98ED032A0020D1
:10313000C8F81C00C8F8140000EE012A9FED351AEB
:103140008AEE011A88ED062A88ED032A80EE010A2C
:1031500088ED040A88ED0C9A0020F0E440F201208A
:10316000A9F8EE0C5BE740F20110A9F8EE0C9FED18
:10317000333AB0EEC22AB4EE431AF1EE10FA0EDD85
:103180009FED2F4AB4EE442AF1EE10FA07D5B0EEC7
:10319000C05AB4EE445AF1EE10FA3FF540AFB4EE27
:1031A000430AB0EEC11AF1EE10FA08DD9FED244A91
:1031B000B4EE441AF1EE10FA01D5012030E79FED8C
:1031C000214AB4EE440AF1EE10FA08D59FED1C0A2C
:1031D000B4EE401AF1EE10FA01D5022020E70EF00D
:1031E00030FA08DD9FED160AB4EE401AF1EE10FA3F
:1031F00001D5032014E7042012E70EF0B0F80428EC
:10320000FFF40DAF0EF0A0FA6BE7B0EE410A08F044
:103210004BFDBFE500007A44B00800206666263FFB
:103220008FC2F53D295C8F3ECDCC0C3FAE47613E51
:10323000295C0F3DEC51383ECDCC4C3D000016448E
:103240000000FA43000016C40AD7233C2DE9FC47CE
:103250000027002800F06A82DDF828A0BAF1000FEC
:1032600000F0648291460546D0E96C20571C461C4C
:1032700095F82022C5E96C76CBB1002742F02000FA
:1032800051461C2285F81B72C5F8B071C5F8A471AF
:10329000AAF80A7085F820028AF8100005F509706E
:1032A000CAE905778AF800700EF0F0FA3EE240F2C3
:1032B000EE2302F0DF029F4285F820220AD300238A
:1032C00042F0100285F81B32A5F82E32C5F8A43161
:1032D00085F8202210B3DFF86C24137802EB830604
:1032E0007160591C0526CBB2B3FBF6F303EB8303E5
:1032F000C91A012311700021062B04D052F8236053
:1033000001333144F8E7052291FBF2F1E8B90020DE
:103310000D280CD045F820100130F9E7DFF82434EF
:103320000122062AD7D043F822100132F9E701EB37
:10333000C100102382006A63312B03D045F823209B
:103340000133F9E7C001C5F8C40095F83C2095F8B1
:10335000C80045F82210561C6B6BD5F8C4C0AB638F
:103360000D23B6FBF3F707FB136685F83C6002F10B
:103370000C06B6FBF3F707FB1366171DB7FBF3F458
:1033800055F8266004FB137455F82440344402F1C8
:103390000D06B6FBF3F707FB1366D71CB7FBF3F17B
:1033A00055F8266001FB137155F82110314401EBEB
:1033B000440102F10B04B4FBF3F606FB1344561D63
:1033C000B6FBF3F755F8244007FB136655F8266063
:1033D000344404EB4404214402F10A04B4FBF3F640
:1033E00006FB1344961DB6FBF3F755F8244007FB84
:1033F000136655F82660344401EB840102F1090498
:10340000B4FBF3F606FB1344D61D0832B6FBF3F704
:1034100055F8244007FB136600F1110755F82660A4
:10342000344404EB84042144B2FBF3F404FB132280
:10343000212355F8222002EB420201EB4201421CFB
:10344000B2FBF3F4B7FBF3F3696344EA441403EB10
:103450004313121B05F14004FB1A54F8226054F880
:10346000233085F8C8208E1B6644C5F8C46044F834
:103470002010D5F8C400D5F8B411A3EB60130529CA
:1034800008D805F1CC000021052903D040F82130EF
:103490000131F9E705F1CC0405F1D406002717CC7A
:1034A00016C68AF80070191BC5E93330801A00EB84
:1034B0004100C01080FB0001000B40EA015095F86C
:1034C000881105EB81020131D2F8E440C2F8E40032
:1034D000B5F84222CAF80490B1FBF2F6001BD5F809
:1034E000804106FB121185F8881167F1000100196F
:1034F000D5F88441C5F880016141B5F8FE41CAF8AC
:1035000014300023C5F88411AAF8084095F82E421B
:103510008AF80A4095F82F428AF80B40B5F83042F5
:10352000AAF80C40B5F83242AAF80E400DF032FE6F
:10353000D5E9631395F82022CAF8180005F5097833
:10354000C5E9630181424FF000008AF8102028BFCE
:103550000120994288BF012795F8B831012B36D157
:10356000D5F8B431292B2ED3D5F8AC01814284BFD4
:10357000C5F8AC110846B3F5967F24D3002185F831
:10358000B811C5F8B01102F07F01B0F5487F6E4A5E
:1035900085F82012014698BF4FF4487149089042BF
:1035A00088BF42F21071A1EBD1029208C80802EB69
:1035B000D102B2F5AF7F98BF4FF4AF72C5E9651085
:1035C0005308C5E967230EF032F80027AEE0D5F8BE
:1035D000B0213840B2F5967F21D91923B2FBF3F41C
:1035E00004FB1323DBB9D5F89431B3F5167F16D954
:1035F000D5F89841A3EBD303C5F89431A4EBD404D8
:103600001B1BC5F8984104EB9303B3F5AF7F98BF3C
:103610004FF4AF73C5F89C315B08C5F8A0310028A2
:1036200053D0B5F8FC315F208D2B0AD303EB831305
:103630006424B3FBF4F34FF6E0741C405F2C88BFA6
:103640001846824216D2D5E9650202EBD101A1EB00
:10365000D201401A0A4688BF02EB9002B2F5AF7F52
:1036600098BF4FF4AF72C5E9661250084FF4D0719D
:1036700068502AE0B1F5AF7F0BD3D5F89C018142A9
:1036800007D300204B460DF0B9FF9AF80000E0B1D7
:1036900048E0D5E96523D5F8A40103EBD104A4EBF8
:1036A000D303D21A1C4688BF04EB9204B4F5AF7F53
:1036B00098BF4FF4AF746208C5E96634B1F5967FE0
:1036C000C5F8A02128BF814234D895F81B020228F2
:1036D00028D3B5F8FC0128B3A62148436421B0FBE8
:1036E000F1F1D5F8B00188421CD9D5F8A411B1F593
:1036F000967F17D3D5F8A021914213D3D5F8A821EE
:10370000D5F8B4319F1AC21BB5F84402824206D3E1
:103710000120A9EB87030DF071FFC5F8B0710020FF
:10372000C5F8A4010DF083FF9AF8007007F00100BE
:10373000BDE8FC87D5F8B401C5F8A4114FF4D471E5
:1037400096E700BFC4070020A18601002DE9F843D9
:1037500005460C46480413D4A00024D4A0075CD42A
:1037600060057ED4200500F10681200700F13B8131
:10377000600040F1F68009F08DFF24F08044F0E015
:103780000DF054FEDFF81C140F6D3FB1D7E90A129B
:1037900002F0E04201F00A01891849D00DF0F7FF6C
:1037A00024F48044DDE0BB48DFF8FC73016841F09D
:1037B00080010160B878012804D104200CF0B6F82B
:1037C0000020B8700DF032FE064604200DF064FEB5
:1037D000DFF8D8130A68904219D12A7EBAB1FA6884
:1037E000AAB1DFF8C003806C002800F09780C168A0
:1037F00040F603020988914206D0C06840F60401F1
:103800000088884240F08A8005F1140088E040F684
:10381000C4120860C5E9042284E004F0BDFCDFF8AE
:103820008403006C002840F09D8024F0020498E09E
:10383000D7E90A65D7E90A12AA43B143C7E90A12D0
:103840000DF0A5FFB8680028AAD056EA0500A7D059
:10385000D7F808C03869B7F9301032462B46E04730
:103860009EE70DF0E3FD05460CF0C0FF002800F0D8
:10387000B780CC48876B002F00F0B280DFF8288338
:103880000420CB49002288F81800C6480DF0ACFB94
:103890000DF09EFFC74803F0CCFBC7480068006BE3
:1038A0008047C8F810000125042088F802500CF069
:1038B00023FA386990F82810C8F80400490703D59E
:1038C000436A04210022984701200AF013FAD8F82D
:1038D0000400457607F01CFFD8F8040081680B4609
:1038E0001A465B684BB11E88A6F60306072EF7D86A
:1038F00005FA06F616F0830FF2D0537B03F0F003BF
:10390000013353730023FD6853602D88A5F603052A
:10391000012D00F28A80C8F810309FE005F11000F8
:103920000BF03CF930460DF032FF0CF0FDF978B1A8
:103930002E6A28466FF4807100224FF00073B04762
:103940009848806B10B109F0A5FE01E044F0020434
:10395000EE692846002100224FF08063B04724F032
:10396000005434B1974821462830BDE8F8430DF0A3
:1039700070BFBDE8F8838C4EB078012804D10420D4
:103980000BF0D4FF0020B0700CF0CEF938B17068A5
:103990006FF4807100224FF00073056AA847306908
:1039A00050B185480068006B804732697168801AA1
:1039B000000BC860002030617A4D81490022284602
:1039C0000DF012FB02203076286C20B17D480221D8
:1039D00028300DF03EFF09F05DFE24F40064C0E7DE
:1039E0000DF0F6FE41E00DF021FD05460CF0FEFE67
:1039F000A0B1DFF8B48198F8000000070ED498F960
:103A0000000000280AD4684607F076FF08B1009845
:103A100020B1DFF8B49199F8610048B30DF0D8FEF9
:103A200009F038FE24F008049BE7034633F8385FBA
:103A3000A5B190F8445090F8456005F0F00580F885
:103A4000445006F0F005013580F8455000255360DC
:103A5000C5634587507B00F0F00050735748002243
:103A6000C261016001200DF003F824F4806478E75E
:103A700000260127602E0FD009EB0600817A31B1B4
:103A80008772407A07FA00F0C0B20BF069FF203667
:103A9000F0E700BFCC210840032088F81800454813
:103AA00003F0C7FA0DF094FE444F3E4D00227869B2
:103AB00000207861F968F860284644490DF094FACE
:103AC0003D480068006B8047D8F80C10D8F82020DB
:103AD000411A02EB1130B0EB113F38BF4FF0FF300D
:103AE00098F82410C8F8200021B1D8F80810B0EBDD
:103AF000C12F20D90CF0CCFFB8B140F609004146E7
:103B000021F83C0F002048804A7B02F0F00201328D
:103B10004A730A7B02F0F0020A734860F861396068
:103B2000B8F83E0010F4406FFAD00020C8F820002A
:103B3000012088F824000AF08FFD2548002101604B
:103B4000022000210CF094FF02200BF0EFFE102069
:103B500007F08AFC98F8010020B9D8F8040050302A
:103B60000DF073FE1B48807810B90D2007F07CFC27
:103B700098F8250028B1002088F8250005200BF0D2
:103B8000D5FE002088F818001348C8F81C00022051
:103B9000B5F85610B5F85420914208BF072009F037
:103BA000F9F93DE76406002048030020A008002042
:103BB000C907010054C400208C010010001004400B
:103BC000519A0000E804002070C20020F9D60000DD
:103BD0000000046084360100459600000CF0EFB947
:103BE0002DE9F04792B00CAD182128460DF0F3FAFC
:103BF000002476208A212A461723CDE90A44CDE9FC
:103C00000844ADF81C4006940BF07CFD002851D010
:103C100008AA7620E1210E230BF074FD00284BD07A
:103C200006AA76200021052300240BF06BFD002856
:103C300040D00DF117027620F02101238DF81740B6
:103C400001240BF05FFD9DF81700022807D0BDF896
:103C5000341046F2A81081422CBF00240124DFF862
:103C60009893BDF82800A9F81400BDF8300089F831
:103C70000140A9F816009DF8320089F8020014B33B
:103C80000D99DDF83A20BDF83E3005F11500C9E97F
:103C90000621BDF83810A9F80330A9F80510BDF8C1
:103CA0004210A9F820109DF8441089F8071009F176
:103CB00008011FE0D04801E0CF48002404702046EE
:103CC00012B0BDE8F0870D9905F11600C9F8221071
:103CD0009DF8381089F80910DDF83A10C9F8261057
:103CE000BDF83E10A9F80A10DDF84210C9F82A10F4
:103CF00009F10C0100789DF820209DF821309DF8F5
:103D000022409DF8235008709DF91C10102089F85E
:103D10000D50099D91FBF0F0C9F80E5089F8120082
:103D2000100140EA1310A9F82E0003F00F0040EA3A
:103D30000410A9F830009DF92C000CF057F99FED04
:103D40008A0B0DF0E1FC9FED8A0B0DF0E9FC0446B7
:103D5000BDF92A000F460CF049F99FED870B0DF0D5
:103D6000D3FC9FED870B0DF0CFFC9FED870B0DF083
:103D7000D7FC9FED870B0DF0C7FC9FED870B58EC30
:103D8000106B3246434602F0D4FE02460B462046F4
:103D900039460DF066FD04469DF92D000D460CF0E8
:103DA00025F99FED7F0B0DF0AFFC9FED7F0B0DF024
:103DB000ABFC22462B4602F0BCFE05469DF81A00DD
:103DC00001240F46000964F39F000CF0D1FE9FED23
:103DD000780B02460B4651EC100B0DF040FD0246ED
:103DE0000B46284639460DF03CFD07469DF9180064
:103DF0000D460CF0FBF89FED700B0DF085FC324684
:103E0000434602F096FE02460B46304641460DF010
:103E100026FD02460B46384629460DF022FD9FED51
:103E2000680B0DF07DFC9FED680B0DF06DFC9FEDB8
:103E3000680B06460D4657EC108B42463B4608F091
:103E4000E8FA9FED650B00281CBF3D46464630460C
:103E5000294657EC108B42463B4608F001FB0028F0
:103E60001CBF3D464646304629460AF0A5FD634D37
:103E7000024676205A21A847762064215922A84775
:103E8000762071211022A847762072210122A847AE
:103E9000762074215522A84759480CF09BF901ADB2
:103EA000112128460DF097F976201D212A4611236D
:103EB0000BF028FC00284CD09DF811009DF8125002
:103EC000800050EA951A44D099F912000CF08EF84F
:103ED0009FED430B0DF018FC9FED430B0DF020FC04
:103EE0000246484805F00F070B4600EBC7000DF0EF
:103EF000B5FA054644480E462A46334600EBC7004D
:103F00000DF0ACFA0746AAF5007088460CF06EF882
:103F100002460B462846314602F00BFE02460B468F
:103F2000384641460DF09BFC9FED310B80460E4616
:103F300057EC105B2A463B4608F092FA48B14046DF
:103F400031462A463B460DF08AFC08F0EBFFC9F8E3
:103F500034007620712100220BF054FE89F80040D5
:103F6000ADE600BF00BF00BF000000000000B03F92
:103F70000000000000804840000000000000003FFA
:103F8000FCA9F1D24D62403F55C1A8A44E40633F09
:103F90000000000000007440000000000000F03F3E
:103FA000000000000000503F00000000000038400A
:103FB0000000000000001040FCA9F1D24D62603FFB
:103FC00000000000000039C03333333333330B407B
:103FD00000000000000000000000000000E06F4052
:103FE00000000000000014400000000000F09440B9
:103FF0000000000000408F405007002005FC00003A
:1040000020BF020068250100E8250100F0B597B047
:104010000EAC20460DF082FA4FF4E13021461490A8
:104020000220ADF83800002003F064FAAA4FAC4E2D
:10403000F861AA48B047AB4C2046B047AA48B04701
:10404000AA48B0472046B0470BAC20460DF08EF88A
:10405000204601210DF0AAFA204601210DF011FCA5
:10406000A348214648300BF017FDA24821460BF02B
:1040700013FD20460DF003FC9F48B0470BF0D8FC21
:10408000132001210DF0BCF81C2001210DF0B8F81F
:104090009A4C2046B0479A48B04706F067FC204645
:1040A000B0479848B04709F08DF92046B047964888
:1040B000B04796480CF01CFD954D00210022284683
:1040C0000CF080F905F11C00002100220CF07AF9B7
:1040D0002046B0478F48B04706F0F8FE72206421B2
:1040E00059220AF005FE38788B49085C0CF0EEFE88
:1040F0002046B0478948B047022006F0BDF938B1E4
:10410000FA2004219622322307F0AEFA854800E017
:104110008348B0478448B047FFF762FD844C0028CD
:10412000824D204618BF2846B0478248B04707F066
:10413000D1FC7248B0478048B04701F0E1FD00284B
:1041400018BF2C462046B0477C48B04702F0C8FD57
:10415000A8B17B48B0470DF005FA0021794A8DF8E7
:10416000061000F00F010009515C105C8DF805107D
:104170008DF8040001A8B0477348B04702E06C48CE
:104180000CF0FCF97148B04771480CF053FB5B48E8
:10419000B04770480021002409F0A8FF6E480021B4
:1041A0000BF0F6FE6D48002108F014FE6C48B04795
:1041B00007F042FC5A49002818BF29460846B04774
:1041C0000DF12A050DF129068DF82B408DF82A40B6
:1041D0008DF829400DF12B040DF01FFA0DF01DFA9A
:1041E0004B4C20460CF072FD0028FAD05D480CF0D4
:1041F000C5F901AC0DF0E3FA0DF0AEFA0DF030FAAE
:10420000042069460DF0A4FA574A09A80DF094FA63
:1042100018B156480CF0B2F9FEE701AC20460DF09B
:104220002CFB53480CF0AAF90DF0C9FA0DF094FAE2
:104230000DF016FA032069460DF08AFA4D4A08A8D7
:104240000DF07AFA18B14C480CF098F9FEE701AC81
:1042500020460DF012FB49480CF090F90DF0AFFA32
:104260002046012101250DF09BF90DF0F9F90220FE
:1042700069460DF06DFA424A07A80DF05DFA18B1D3
:1042800040480CF07BF9FEE701AC20460DF0F5FA52
:104290003D480CF073F90DF092FA0DF05DFA0DF057
:1042A000DFF96946204600950CF056FF374A06A80C
:1042B0000DF042FA18B136480CF060F9FEE701A89B
:1042C0000DF0DBFA33480CF059F933480CF056F98D
:1042D000002017B0F0BD00BF180400207E39010097
:1042E0007D050100BA290100F128010034290100EF
:1042F000640200200C0600201D2D0100FF38010083
:104300002528010036300100262E010034A80020A7
:10431000F0010020752C01008838010039310100BE
:104320001638010058350100502F010055380100A2
:10433000F83501008E300100802F01005A2E010057
:1043400025360100C5350100AC390100B02C010053
:104350004D15010018B70020509A0020A0C300207E
:10436000C02B0100892D0100A96100001C32010051
:10437000E72C0100B9A20000F8310100532D010023
:1043800099A30000AF2F0100822B01004100000023
:10439000DC2F0100042B0100BC2E0100002800F0DE
:1043A0008781002900F08481002A00F081812DE9B5
:1043B000F04FAAB0BF4B0192BF4A6FF03F074FF0DA
:1043C00040094FF02A0C1C6844F080741C6013688C
:1043D00043F0010313605268B0F8FE510092002DC3
:1043E00008BF4FF44875B1F808B0BBF1000F08BF23
:1043F0004FF4487BABEB05039B0193FBF5F313F103
:10440000400FD8BF3B46402BA8BF4B46B0F80082B8
:104410001E93B8F1000F08BFA846ABEB0804A40137
:1044200094FBF5F414F1400FD8BF3C46402CA8BFD4
:104430004C461F94D0E9654A002C08BF4FF47A74AB
:1044400091F810E05FEA0E7212D48B695B01B3FB46
:10445000F4F3A3F1200C02239CFBF3F313F13B0FC5
:10446000D8BF6FF03A03452BA8BF4523A3F1050C35
:104470008B89924ECDF880C0DFF850C206EB8313D3
:10448000322693FBF6F38E4E402BA8BF4B46239368
:10449000CB8906EB83132A2693FBF6F34FEA8A16A1
:1044A000402BA8BF4B462493631C96FBF3F616F1F2
:1044B000400FD8BF3E46402EA8BF4E462696D0E9B4
:1044C0003306801B202690FBF6F010F1400FD8BF7A
:1044D00038464028A8BF48462590A4EB0A00800132
:1044E00090FBF3F0784B10F1200FD8BF6FF01F0056
:1044F0006028A8BF6020203822904869400190FBC6
:10450000F4F010F14C0FD8BF6FF04B003428A8BF67
:1045100034200C302190C87A6A4901EB80102321A5
:1045200090FBF1F000B210F1400FD8BF38464028A0
:10453000A8BF48462890A8000521B0FBF1F0A0EBE9
:104540000B00800190FBF5F010F1400FC8BF07464B
:1045500008EB0B00402FA8BF4F46002A48BF6FF062
:10456000200727978001A0EBC51090FBF5F010F114
:10457000360FD8BF6FF035004A28A8BF4A205FEA3F
:104580008E614FF0000E4FF0300158BFA0F10A01CC
:1045900029910EA91EADBEF1100F14D05CF82E604B
:1045A00000270C2F06D0DC5755F82700013700FBF9
:1045B0000466F6E7B7110C3327EAE67641F82E6079
:1045C0000EF1010EE7E7424CDFF808C14FF0000E94
:1045D00002A8BEF10C0F14D05CF82E600027102F3B
:1045E00006D0E55751F82730013703FB0566F6E79B
:1045F000B711103427EAE67640F82E600EF1010E6E
:10460000E7E7364B344DDFF8D8E04FF000080027DD
:104610009C46052F19D05EF8276000240C2C06D08C
:10462000295750F82420013402FB0166F6E7B3EB6A
:10463000A61FB8BFB311BCEBA61FBEBF6346B846EA
:104640004FEAA61C0C350137E3E71B484068009988
:10465000401A03D04CF25131884201D340F28C50C1
:10466000019C204A5FFA88F1606084F8008018306D
:10467000525C80B26270E2680132E2603022B0FBCC
:10468000F2F01022A060ACEB030090FBF2F010F10E
:10469000110FD8BF6FF010001128A8BF11205230A1
:1046A000A07011B12069013020612AB0BDE8F04F3F
:1046B000704700BFFCED00E0001000E080F3FFFF5A
:1046C00080F5FFFF00EEFFFFC1210100842A0100F9
:1046D00081220100F02E0100FD2B0100010000806D
:1046E00008350100743901002DE9F0412DED0C7BF6
:1046F0004FF00008002800F06181B34E0446307886
:10470000002800F05B8100200821CDE90000684608
:1047100008F0ACFC8046002800F050819DF80500B0
:104720009DF80410B1EE002A41EA00220007A749D3
:1047300013466FF3DF2348BF42EA01039DF80000F0
:104740009DF8012000EE103A9DF8037096ED019A55
:1047500096ED028AB8EEC01A96ED030A9DF8023073
:1047600040EA02251207284611EE020A6FF3DF2005
:1047700048BF45EA010001EE100A43EA0720B8EEFF
:10478000C11A3B07024611EE029A6FF3DF2248BFBF
:1047900040EA010201EE102A9DF80600B8EEC11AA7
:1047A0009DF8072011EE028A40EA022312071846FC
:1047B00028EE081A6FF3DF2009EE091A48BF43EA12
:1047C0000100B17800EE001AB1EEC12A9FED801A07
:1047D00082EE012A81B396ED054A96ED065A96EDD2
:1047E000073A39EE446A38EE457AB0EEC66A0CF004
:1047F000CBFDC8BFB0EE476A30EE437A0CF0C4FD83
:10480000C8BFB0EE476AB3EE007AB4EE476AF1EE85
:1048100010FA1AD5BFEE006A9FED6E7A32EE066A84
:10482000B0EEC66AB4EE476AF1EE10FA0DD59FED10
:104830006C6A9FED6C7A0CE0012186ED059A86ED9D
:10484000068A86ED070AB17015E09FED636A9FED59
:10485000637A28EE068A29EE069A20EE060A05EE0D
:10486000078A04EE079A03EE070A86ED068A86EDAC
:10487000059A86ED070A4F389FED5B4A9FED5B5A1C
:1048800000B203EE100AB8EEC33A03EE045AB0EEDB
:10489000C83A9FED574A84ED065AB2EE085AB4EE74
:1048A000453AF1EE10FA48BFB0EE448ABDEEC83A80
:1048B00013EE100AB0EEC93AB4EE453AE080B3EE1A
:1048C000005AF1EE10FA48BFB0EE449ABDEEC93A74
:1048D000B5EE408AB0EE404A13EE100AB0EE403A10
:1048E000F1EE10FAB5EE409AA08008BFB0EE413A62
:1048F000F1EE10FA08BFB0EE434A9FED3E3A30EEBB
:10490000033AB0EEC33AB4EE453AF1EE10FA48BFBE
:10491000B0EE440ABDEEC03A9FED2E4A13EE100AE7
:10492000BFEE003A32EE033A2081B0EEC33AB4EE65
:10493000443AF1EE10FA09DA28EE082A09EE092ABB
:1049400000EE002AB1EEC22A82EE012A20EE00AA71
:1049500084ED032AB0EE4A0A08EE080AF1EEC00A16
:10496000B0EE490A04F0F4FF09EE09AA9FED22BA5D
:1049700020EE0BCAB0EE480AF1EECA0A84ED04CA72
:1049800004F0E6FF9FED1D1A20EE0B0AB0EECC2AD4
:1049900084ED050AB0EEC00AB4EE412AF1EE10FA39
:1049A000B4EE410A44BF00202061F1EE10FA44BF8A
:1049B000002060610B2008F097FF20774046BDEC97
:1049C0000C7BBDE8F08100BF8807002000F0FFFFEE
:1049D00000007A448FC2753D6666E63ECDCC0C3F42
:1049E000295C8F3D7B146E3FB81E853D0000C4419D
:1049F0000000000000007AC4E02E6542CDCC8C3F60
:104A00002DE9F84F2DED181B229D0C460146002084
:104A1000002D00F04081239E002E00F03C810846CE
:104A2000079209930BF0E2FA9FEDA10B53EC102BC8
:104A3000069208930CF013FF95ED120B02460B46FD
:104A4000CDE90A3251EC100B0CF00BFF0546204665
:104A50000E460BF0CBFA04460F4628463146224656
:104A60003B4602F066F89FED940B82468B4655EC70
:104A7000100B9FED930BEE0F0D90504658EC109BD2
:104A800066F3DF714A46434607F0C3FC002840F056
:104A9000018122984A46434690ED080B51EC100BD9
:104AA000059166F3DF71049007F0B3FC002840F035
:104AB000F1802298DDE90A3290ED140B51EC100BD5
:104AC0000CF0CFFE22463B4602F033F80F4666F369
:104AD000DF714A464346044607F09BFC002840F03D
:104AE000D980DDE90A1052465B460C960CF0B7FE01
:104AF0009FED750B5AEC10BB5A4653460CF0B1FEB5
:104B0000DDF88880039798ED0A0B98ED0CBB98EDC3
:104B10000E9B98ED108B53EC102B02F005F8DDE99D
:104B200004230CF09CFE9FED6AAB53EC1A2B02F0B1
:104B300000F89FED690B0591814653EC102B01F0B5
:104B4000F8FF02460B46274604460E460CF089FE47
:104B50000CF090FC0CF08EFCCDE90A100998079936
:104B600008440BF043FA9FED5E0B0CF0D1FD069A62
:104B7000089B0CF074FE039B3A460CF070FE5A46FC
:104B800053460CF06EFE98ED160BCDE9081051EC73
:104B90001B0B0CF0BDFD9FED540BCDE906100599E4
:104BA000484653EC102BCDE9043201F0C2FF9FEDD3
:104BB000500B9FED51BB9FED52CBCDE9021051EC54
:104BC000180B4FF0030BCDE9001059EC108BBBF123
:104BD000000F65D0DDE9043251EC1A0B01F0A9FF9A
:104BE00002460B46DDE900100CF03BFE42464B4608
:104BF00001F09FFFDDE9023204468A4651EC190BB1
:104C00000CF02FFE2246534601F093FF02460B465E
:104C1000DDE906100CF025FE04460C980E4653EC18
:104C20001B2B60F3DF71204607F01AFC0746DDE915
:104C30000810224633460CF012FE02460B46002FA7
:104C400008BF2B460D9C08BF2246DDE90A1001F083
:104C500070FF22462B4641EC180B07F001FCB0B167
:104C6000B0EE480AF0EE680A02F02AFF02F028FFD0
:104C700053EC1C2B51EC100B01F05BFF229A92EDD0
:104C8000180B53EC102B01F04FFF41EC1A0BABF15A
:104C9000010B9CE70020BDEC181B01B0BDE8F08FB4
:104CA00051EC1A0B08F03EF9239908600120F2E755
:104CB000000000000000284000000000000000008C
:104CC0008DEDB5A0F7C6B03E000000000000204109
:104CD000000000000000394066666666661271409A
:104CE000000000000000E03F00000000000039C0AC
:104CF000000000000000F03F11EA2D819997713DFE
:104D000066666666661271C0AC490246002818BF26
:104D1000012009780840012840F04F812DE9F84F23
:104D20002DED0C3BCDE902022C2008F0DDFD0190B9
:104D30002D2008F0D9FDA24C00902D200021A04785
:104D40002C208321A0472D202221A0474CF2503057
:104D50000BF040FA102000264FF000080025002834
:104D60003FD0CDE9040600200621ADF824000890CC
:104D700008A808F07BF92E469DF820A09DF821B0E8
:104D80009DF822409DF823709DF825909DF82450B1
:104D900042F210700BF01EFA45EA09205FEA097230
:104DA000884B01466FF3DF2148BF40EA030144EA24
:104DB0000720751801463A076FF3DF2148BF40EA24
:104DC00003014AEA0B2088445FEA0B7201466FF345
:104DD000DF2148BF40EA0301DDE904060E44013843
:104DE000BDE700EE105A01EE108A02EE106A9FED48
:104DF000768A039801210BF0CAFF80ED002A80ED2E
:104E0000011A80ED020A2E2009F05DFA4CF25030B2
:104E10000BF0E0F910204FF0000B002400260028D2
:104E200042D0CDE9040B00200621ADF81C0006900D
:104E300006A808F01BF9B34626469DF818709DF8A1
:104E400019509DF81A809DF81B909DF81DA09DF8A3
:104E50001C4042F210700BF0BDF944EA0A205FEAF0
:104E60000A72584B344601466FF3DF2148BF40EACF
:104E7000030148EA09200BEB01065FEA09720146CB
:104E80006FF3DF2148BF40EA030147EA05200C44E5
:104E90002A0701466FF3DF2148BF40EA0301DDE93D
:104EA000040B8B440138BAE701EE104A00EE106A99
:104EB00002EE10BA039D2E20002100240BF067FFA4
:104EC00085ED032A85ED041A85ED050A09F0FBF945
:104ED00095ED000A95ED033A95ED022A95ED055AF8
:104EE00095ED011A95ED044A0020002100220023CF
:104EF00033EE400A9FED353A35EE422A34EE411A40
:104F00009FED344A82EE032A80EE030A81EE031AF3
:104F10009FED2F3AB4EE432A85ED082A85ED060A67
:104F200085ED071AF1EE10FAB4EE442A9FED2A2A15
:104F300098BF0120F1EE10FAA8BF0121B4EE421A89
:104F40009FED262A08400021F1EE10FA85F8260090
:104F5000A8BF0121B4EE421AF1EE10FA98BF012267
:104F6000B4EE430A11400022F1EE10FAB4EE440A06
:104F700085F8251098BF0122F1EE10FAA8BF012391
:104F80001A4085F8242018BF002900D0044685F86F
:104F900027400B4C2D200021A04701992C20A04731
:104FA00000992D20A04744F620600BF013F90298D9
:104FB000BDEC0C3B01B0BDE8F04F70478807002006
:104FC000C7E2000000F0FFFF0000803D00007A43D0
:104FD00033333340CDCC4C3E333333C0CDCC4CBED9
:104FE0002DE9FE4F074608680024B0B1D7E9018AD1
:104FF0000E460CF01BFA8146D8F8E800082888BF56
:105000000124B068204202D17068204208D00320F9
:10501000307448460CF0BBFB00242046BDE8FE8FF0
:10502000D8F8C01069B198F8F8100029EFD006211F
:105030003174D8F8C410C8F8C4604E6198F8FC10F8
:105040000DE000210522C8E93066C8E93411C8E93D
:10505000361198F8FC10002908BF01223274002292
:105060000129726109D102204FF4E02188F8FC0087
:1050700098F8FB000AF028FE7068894901388842D8
:1050800005D804200AF038FE06200AF035FE02207A
:105090000AF032FE98F8F80040B9DAF83C003168BE
:1050A000814203D298F8FC0000286CD0D8E9361071
:1050B00009B118B900E028B30CF022FBDAF80000BF
:1050C000416941F00101416148460CF060FB98F8EC
:1050D000F80008B10124A0E708F16C05D8F8EC103D
:1050E00028460CF0EAFA0028F4D0D8F8C0000321D2
:1050F0000174384606F0E6FF2846002100240CF033
:10510000DCFA8AE79AF804000CF08BFB654CDAF8BD
:1051100010100222206991FAA1F1B1FA81F14368DD
:10512000D8F8CC004068006898472069DAF8141075
:1051300002224368D8F8CC0091FAA1F1B1FA81F1CA
:105140004068006898479AF804000BF011FC9AF840
:1051500004000CF068FB0CF0D3FA0020C8F8E00063
:10516000D8F8C0000068B0F5806F01D90CF0C8FA1B
:1051700098F8FE000028A1D1DAF80000416841F05B
:10518000020141609AE798F8F90020B1D8F8EC00E4
:1051900001307FF48BAF48460CF0F9FAB2683AB1AF
:1051A000D8F8E8000221092838BF0121009103E066
:1051B00008F1F40200200090746834B1D8F8E800D7
:1051C0000227092838BF012702E008F1F60400276A
:1051D000DAF80000334D416841F002014160D6F831
:1051E00000B0D946BBF1000F40D0D8F8E8000192DA
:1051F00009284FF0010011D22A68B9F1000F1FD021
:10520000C0071DD02178DAF8000092689047002886
:105210001EBF3C44A9F101090120EDE72A68B9F15C
:10522000000F16D0C00714D02188DAF80000926869
:10523000904700281EBF3C44A9F101090120EDE779
:10524000DAF80000D26802A99047DDE90120107069
:1052500007E0DAF80000D26802A99047DDE90120F2
:1052600010800098ABF1010B0244BBE7D8F8F000C6
:10527000DAF80010CA680240102802D1002AF9D1D9
:1052800001E0002AF6D070680BF0E6FAD8F8C010FA
:105290000020C8F8C400C8F8C00008741AE700BFAE
:1052A000FEFFFF0FC40100102DE9F04F8DB0044642
:1052B00000209A4616460F46CDE90B00CDE90900BD
:1052C0008A488568804607F015FA1C2803D007F045
:1052D00011FA1B281BD1308840F60201884218BF02
:1052E000B0F5C15F03D1F07B022810D93EE043F650
:1052F000070188420BD196F82400032807D33069B0
:105300007B4940F0806020F0604088422ED1002030
:105310006FB366B3387825FA00F0C00726D0304660
:1053200000210CF082FA7348C4E90176006880B16C
:1053300009A800900CA90BAA0AAB304603F04CFE5A
:105340000B980B214FF6FF7250230BF031FBFF2817
:105350000CD00CF06BF8684F06467878012802D81C
:1053600040B1012070E030460CF011FA00200DB081
:10537000BDE8F08F03F0A4FD60480DF10409016859
:1053800041F0020101605E48C8F8000048460BF099
:10539000A7FFDFF870B15D494A469BF801009BF812
:1053A00000500390584828300AF070FA584859497C
:1053B0004A460AF06BFA48460BF02AFFDFF858819C
:1053C000564A19214B460295404609F0DDFE544AE3
:1053D00008F11C001A214B4609F0D6FE51485249EB
:1053E0000CF0A2F9514852490CF09EF9514800685E
:1053F00010F4402F06D0504A07F128000421002362
:105400000BF0BEF99BF8020010B10D2005F024FF4F
:1054100008F140000BF0F3FD08F138000BF0EFFD50
:105420004649002007223876B8843862386181F80E
:1054300060200521C7E902104149F9613870042054
:1054400000210BF015FB78782F4941F820400130FE
:10545000787030460CF09BF9BAF1000F02D0DAF800
:10546000000008E00DF1040A3649202250460CF0F5
:105470000DFA4FF0FF30DAF80420BAF81010DAE92C
:105480000635002AB2FA82F608BF40F6C412206040
:10549000012076096183256360762B4826764FF4D8
:1054A000FA766261C4E90362C4E90700C4E909034A
:1054B000DAF80C0000B12062DAF8140000B1606282
:1054C000DAF8080000B1E06104F13800C8210BF0FF
:1054D00082FE04F1500000210BF0EAFA1B4904F1AE
:1054E000B8000CF021F9204641E700BFCC2108406C
:1054F0000F00000564080020480300200020094038
:10550000110000E084360100E8040020B10C010025
:10551000DCC4002011AE000064060020F9D60000B3
:10552000B1CA000098C40020A507010054C400209F
:105530005D0C0100B44F00509DE0000070C20020DF
:1055400045960000C432010073BE0000E917010057
:105550002DE9F84F2DED028BA6B058EC104B9FEDC6
:105560009A0B074600208A460B902046414656EC8F
:10557000105B2A46334606F059FF9FED950B002835
:105580001CBFB0462C462046414648EC184B53EC15
:10559000102BCDE9053206F02FFF48B9B0EE480ACE
:1055A0000BA8F0EE680A07F043FF0B9801380B9048
:1055B0008DED088B8B4A8A499DF8270080F080008A
:1055C0008DF8270030208DF83000387B412808BF47
:1055D0000A46059E069D0792204641462A463346C6
:1055E00006F017FF089900282A46334608BF2146CF
:1055F000099808BF404640EC181B4146204606F07B
:10560000FBFE0DF1300BBD6804970BF1010698B954
:10561000B0EE480A25A8F0EE680A07F009FF2598C1
:10562000B0EE480AF0EE680AC0F1010003F084FF12
:10563000B0EE408AF0EE608A58EC189B484641462E
:1056400009F0BAF93146044608F0D8FB074620466F
:105650000AF0CCFC02460B464846414601F064FA8B
:1056600041EC100B0135CDE902762DD39FED5A1B8D
:1056700006EB070BCDF804A058EC114B59EC10AB1E
:10568000DDE905325046494606F0B6FEC8B9504637
:105690004946224643460CF0E4F805460E4609F01A
:1056A0008BF907460AF0A2FC02460B462846314613
:1056B00001F03AFA41EC100B0798C05D0BF8010BB2
:1056C000DCE7DDF804A039E09FED431BBB4459EC57
:1056D000118BD5B151EC100B42464B460CF0C1F882
:1056E00006460F4609F068F904460AF07FFC0246B8
:1056F0000B463046394601F017FA41EC100B07987B
:10570000013D005D0BF8010FE3E75C46079D14F8CF
:10571000011928460BF0F4FD401B08280EDB049EFF
:10572000DDF80880079F0025217838460BF0E8FD5A
:10573000C01B0E2806DD04F80159F5E7049EDDF8CC
:10574000088003E007990844407820700020702109
:1057500052468BF80000307B412808BF50210B983F
:1057600008F063FDB268039C501C04D120460BF086
:1057700027FE421EB2602046414653460AF024F9F5
:10578000B06808B1012202E03068C0F3C0022046D0
:105790004146534607F0E6FADAF800007822411E47
:1057A000CAF80010317B412908BF58220270DAF88C
:1057B0000000411ECAF800103021017026B0BDEC77
:1057C000028B01B0BDE8F08F000000000000F0FF88
:1057D0000000000000000000000000000000304059
:1057E000A3350100B43501002DE9F04F85B0044622
:1057F0008A46002B1846214618BF0120002C18BFEE
:10580000012108400E9900290D4618BF01252840A6
:10581000012840F02D81049098892588277FA8428F
:1058200005D26588A8423D4698BF002500E00125C5
:10583000BD4203D10025A777657711E0A67FB54269
:105840000BD1667F94F804C001366677F6B26645E0
:1058500006D3002625772F4601E00126A577667737
:10586000012F12D16425B0FBF5F5EEB242F20F75AF
:10587000A84288BF642693ED020A94ED021A0396AB
:105880000BF0C1FE16D501201AE001254FF0000EE5
:10589000A4F81F50BAF1000F84F821E093ED020A3A
:1058A0002FD09AF834024FF04009002660F07F0EA6
:1058B00000202AE094ED031A0BF0A5FE02DB002085
:1058C00084F8200094ED041A0BF09DFE01DD012008
:1058D00005E094ED051A0BF096FE02D8002084F83E
:1058E000210094F82050012D03D102204FF0020C2A
:1058F00018E094F82100012809D105204FF0050C8B
:1059000010E0002001264FF0000903902BE094EDF9
:10591000061A0BF078FED9BF03204FF0030C0420C9
:105920004FF0040CE077BAFA8AF04609BAF1000F9A
:105930000BD09AF834E25FEA8E600AD40EF00300CE
:105940001EF00C0F18BF043006E04FF0000E0020D0
:1059500002E06EF07F0E402040EA051094F82150DE
:1059600040EA45196546A7F1010CDAB102F69850F4
:1059700090ED033A90ED022A90ED001ABDEEC33A85
:10598000BDEEC22A13EE100A019012EE100A029028
:1059900092F8AC0D01280ED1032049F008094FF010
:1059A00001080CE000209FED341A4FF0000802902F
:1059B000CDE9000004E092F8A80D4FF00008009037
:1059C0005A7DBCFA8CF0012A01D19A7D0AB909F1FD
:1059D00080094FEA501C18680860608C013019F08B
:1059E0003F026084888018BF012236B100274FF43F
:1059F00048764B204FF0000B07E0BAF830B2BAF807
:105A00003272BAF82C629AF82E02CD76039D81F894
:105A10002A2081ED070A81F819C081F8188081EDEC
:105A2000041A81F80EE0A1F80CB04F810E81887144
:105A3000A1F828902C228D76019DCD82029D8D8229
:105A4000009DCD735868086204F1280093ED040AA4
:105A5000BCEEC00A81ED090A0BF018FF606D013041
:105A600060655FEA8960049802D0A16D0131A1658B
:105A700005B0BDE8F08F00BF00000000002800F076
:105A8000208170B52DED108B0D46002900F0158199
:105A90001446002A00F011810646204644210BF0EE
:105AA0009AFB9FED921AB01D9FED910A294602467E
:105AB000B0EE412AB0EE413AB0EE414A71B3B2F9CC
:105AC000023005EE103AB2F90030B8EEC55A06EED3
:105AD000103A32F9023CB8EEC66A07EE103A931D4E
