:1000000000400120B18F0000038A0000B38300008C
:10001000F7870000F7870000F78700000000000066
:10002000000000000000000000000000F787000052
:10003000F787000000000000F7870000F787000046
:10004000F7870000F7870000F7870000F7870000B8
:10005000F7870000F7870000F7870000F7870000A8
:10006000F7870000F7870000F7870000F787000098
:10007000F7870000F7870000F7870000F787000088
:10008000F7870000F7870000F7870000F787000078
:10009000F7870000F7870000F7870000F787000068
:1000A000F7870000F7870000F7870000F787000058
:1000B000F7870000F7870000F7870000F787000048
:1000C000F7870000F7870000F7870000F787000038
:0800D000F7870000F78700002C
:1000D800ADF5107D08F0E6FF09F0DDFA05F042FB0A
:1000E80005F091F807F066FFDFF8786E152001211A
:1000F8000125B0471E200121B0471C200121B0472F
:1001080012200121B04716200121B04709F0ACFAAE
:100118000B200121B047E54809F0D5FA33AC204659
:1001280009F0E4F94FF4E1304FF000082146399026
:100138000020ADF8CC8004F051FADFF82C7EF86589
:100148002FAC204609F04EF9002021468DF8C480D6
:1001580004F028FF3866002007F084FBDFF80C4E17
:1001680024207121A04734200021A04735200021F8
:10017800A04736200021A04737200021A0478DF84E
:10018800408150AC0320214608F03CF8C0B1FD7016
:10019800DFF8DC5D0320FF21A84743203F21A84763
:1001A80044203F21A84742203F21A8474520C0219D
:1001B800A84750A9002008F025F887F81C8001E01E
:1001C80087F8038004F115003D464FF000092B9095
:1001D80004F116002A90002007F044FBB4490F20D0
:1001E80009F015FA09F040FA12200121B047DFF8AA
:1001F800844D42F21070A0471F20522107F09AF850
:1002080044F62060A047002007F02CFB0B208DF857
:10021800F2908DF80A91ADF80891CDF85491CDE996
:1002280053990021ADF8F00042A852903CA8519093
:10023800032050900F20B0470A20A047B86F50A95C
:1002480009F01BFA0A20A04709F00EFA9DF80A01E6
:10025800AD28B87029D012200021B04742F21070A2
:10026800A0471F20522107F065F844F62060A047F8
:100278000F200021ADF808918DF80A91B0470A20A7
:10028800A047A86F50A909F0F8F90A20A04709F07B
:10029800EBF99DF80A01AD2802D1AD20A87002E063
:1002A800122009F0D5F9DFF8CC4C2C20132107F0E7
:1002B80041F82D20022107F03DF842F21070A047C6
:1002C80016200021B0474FF47A70A047162001216C
:1002D800B0477848A04718200121B04744F620606D
:1002E800A047DFF8940C08F037FD3CA8DFF8788CBD
:1002F800DFF870BC264600F10C0100F108072E91CA
:1003080050A90C312D910021022900F0D487DFF883
:100318006C0C2C91445C6649204609F078F920461B
:1003280009F096F9322009F0CEF94FF0000ABAF137
:10033800020F00F09B80DFF8480C50F82A5028463E
:1003480007F090FA2D988DF81091CDE94299002187
:10035800C0E90099C0F8089042A8CDE95190092059
:100368005090204608F062FF1920B047D8F878006E
:1003780050A909F082F91920B047204609F068F918
:100388003220B0479DF8080100F0F000C02870D076
:1003980020460021D8471920B0471120C7E9009905
:1003A800C7E902998DF8240149A83D9001203C90A5
:1003B800D8F878003CAE314609F05FF9DFF8B41B95
:1003C8001920884720460121D847DFF8A81B32208A
:1003D800884720208DF83A910021ADF838012E98F1
:1003E800C0E90099C0F808904CA83E904EA88DF836
:1003F8003291ADF830913D9003203C902046D8478B
:10040800DFF8701B19208847D8F878003146DFF8E4
:10041800646B09F032F91920B04720460121D8470A
:100428003220B0479DF832010138FE2844D3BAF192
:10043800000F18D1DFF84C0BDFF84C5BA8472046BB
:1004480007F0B4FBDFF8440BA8479DF8320108F029
:1004580017FBDFF83C0BA8479DF8080108F010FBD4
:10046800DFF8300BA8470AF1010A60E72C9901313F
:100478004AE7DFF8240BDFF8106BB047204607F097
:1004880095FBDFF8180BDFF8181BBAF1000F08BF4F
:100498000846B047DFF80C0BB0479DF8080108F094
:1004A800EFFADFF8040BB047732031E0A0860100B3
:1004B8000104002040420F00DFF8DC0ADFF8C87AA8
:1004C800B847204607F072FBDFF8D00ADFF8D01AE9
:1004D800BAF1000F08BF0846B847DFF8D00AB84796
:1004E8009DF83001DFF8C86AB047DFF8C88A40468F
:1004F800B8479DF83101B0474046B8479DF83201EA
:10050800B047DFF8B40AB847DFF85C8A9DF83201D3
:1005180088F81D4088F80000DFF8A00A08F01CFCE5
:1005280098F81D0007F042FBDFF8940A08F014FC65
:10053800BAF1000FDFF88C4AC246DFF88C0A08BF10
:100548000446794E09F08DF8DFF8800A056011201D
:1005580007F0CAF8642009F0B6F8DFF8745A0120E9
:100568000221A8470220A021A84704200021002436
:10057800A84705200021A84706202C21A8470A20C3
:100588008321A847304609F09EF8012007F06AF950
:10059800DAF87800DFF8DC69A8B3ADF8FE40CDF8EA
:1005A800FA40CDF8F640CDF8F240CDE953445594E1
:1005B80042A8002152903CA8CDE94444CDE94244E8
:1005C80051900E2050904FF43260ADF8F0009AF838
:1005D8001D0008F02BFE0A20B047DAF8780050A971
:1005E80009F04BF804460A20B0479AF81D0009F0B4
:1005F8002FF81920B04734B142A80C22811CDFF82B
:10060800D40909F063F8DFF8CC793878411EFD2960
:1006180098BF8AF8000018200121012408F006FE7E
:1006280008F0CEFF102007F05FF808F0C9FF9AF82D
:10063800000040F02001732905D010F0700F02D19E
:10064800B878A02801D18AF8014050AC182120467A
:1006580008F0D7FD002021461722CDE93E00CDE95C
:100668003C00ADF80C0142908A2007F045FE0028B6
:1006780000F0C7803CA9E1200E2207F03DFE0028CB
:1006880000F0BF8042A900200522002407F034FEB4
:10069800002800F0B6808DF838414EA9F0200122DC
:1006A800012407F029FE9DF83801DDF8ACC00228C6
:1006B80007D0BDF8441146F2A81081422CBF00248F
:1006C8000124BDF8F800002C8AF80440AAF8360086
:1006D800BDF84001AAF838009DF842018AF81E00CA
:1006E80046D0BDF84A01AAF83A00BDF84C01AAF86C
:1006F8004600BDF84E01AAF81F00BDF84401AAF84B
:100708003C00BDF84601AAF84800BDF84801AAF81F
:100718002100BDF85201AAF84A009DF854018AF850
:1007280023000AF1240038E0A086010000BF00BFC2
:10073800000000000000703F000000000000B03E14
:10074800000000000000303D000000000000F03E06
:10075800000000000000103D000000000000B03D57
:10076800000000000000503F000000000000103FA3
:100778005198BDF84E11DDF8A8C0CAF83E009DF8A2
:100788004801AAF82610DDF852118AF82500DDF88C
:100798004A01CAE913010AF128009DF8F3409DF8BF
:1007A800F0109DF8F1209DF8F2309DF80A518AF872
:1007B80029403D9CCAF82A40BDF8FA40AAF858409A
:1007C800BDF8FC40AAF82E409DF808418AF8304050
:1007D8009CF80040047008019DF90C1140EA1210C1
:1007E800AAF8540002F00F0040EA0310AAF85600D5
:1007F800C5F301108AF83100102091FBF0F08AF857
:100808003200DAF86000DFF88087002800F02285DF
:100818000021CDE95611CDE95411CDE9521103213A
:1008280051913CA950914421ADF8581138218DF8C7
:10083800F21043F20A21ADF8F01050A908F0C9FCF3
:10084800DAF86000002800F005850C2007F0E4F8CD
:10085800DFF88447AAF84200032040F60E01A047BB
:1008680004204FF4E061A04700200021A047DAF8F7
:100878006000DFF81487002800F0EC840AF14401D6
:1008880042F20B4007F048F8002800F0F0800024FE
:1008980043F20100ADF8F0403CA907F03DF868B11B
:1008A800BDF8F010012060F342014FF6FB70ADF87F
:1008B800F010014043F2010007F050F944F62060BF
:1008C80008F001FF5094ADF8084150ACDFF80C6710
:1008D80042F20C402146B04708F0AEFE1FED6C0B0B
:1008E80055EC107B08F078FE41EC100BDFF8DC8645
:1008F80042F20E40214688ED040BB04708F09CFEFA
:100908001FED730B08F050FE41EC100B42F2104043
:10091800214688ED060BB04708F08EFE1FED780BD8
:1009280008F042FE41EC100B42F21240214688EDDD
:10093800080BB04708F080FE08F04EFE41EC100BA3
:1009480042F22440214688ED0A0BB04708F074FEB5
:100958001FED830B08F028FE41EC100B42F22640F5
:10096800214688ED0C0BB04708F066FE08F034FE0F
:1009780041EC100B42F22840214688ED0E0BB0479F
:1009880008F05AFE1FED8E0B08F00EFE41EC100B1E
:1009980042F22A40214688ED100BB04708F04CFE81
:1009A8001FED930B55EC107B08F016FE41EC100B75
:1009B80042F22C40214688ED120BB04708F03CFE6D
:1009C80008F00AFE41EC100BDFF8146642F22E40E4
:1009D80088ED140B42AD2946B04708F0DDFD1FED48
:1009E800A00B54EC107B08F0E7FD41EC100B42F231
:1009F8002F40294688ED160BB04708F0CDFD08F0CA
:100A0800DBFD41EC100B42F28140294688ED180BC2
:100A1800B04708F0C1FD1FEDAC0B08F0C5FD41EC77
:100A2800100B42F28240294688ED1A0BB04708F0B5
:100A3800B3FD08F0C1FD41EC100B43F2010088ED55
:100A48001C0B3CA9B04738B1BDF8F00040F00601D6
:100A580043F2010007F082F8DFF80CA5DFF82885DB
:100A6800DFF87075DFF80C6501208AF80500DAF800
:100A78006000002800F0EE83DFF86805C047C5492C
:100A88001C2008F0C4FDDFF8DC441C200121A0472D
:100A980042F21070B04713200021A04746F2A81078
:100AA800B0471C200121A04742F21070B047132024
:100AB8000121A0474CF25030B047B748B047B7497A
:100AC8001C2008F0A4FDFF260DF23F11022005228C
:100AD8008DF83F6107F058FE0446DFF80C05DFF893
:100AE800A814884708F027FDDFF80005DFF89814F8
:100AF80088472046DFF8908407F0C2FFDFF8F0044B
:100B0800C047082D8AF806502DD1DFF8E804C04701
:100B1800012000210022322307F050FE0446DFF8AE
:100B2800D804DFF864148847204607F0A9FFDFF8E7
:100B3800CC44DFF8541420468847994808F0C3FD90
:100B48000DF23F110220052207F01EFEDFF8B00467
:100B5800DFF83414884708F0EEFCDFF82C842046D0
:100B6800C0478AF806500AF13301FF20052207F032
:100B78000BFE40F2FF30509602210423ADF8F0003E
:100B88000A2000903CA850AA05F05AFB50B19DF8E5
:100B9800400138B99DF841018AF80700BDF84201C3
:100BA800AAF808009AF80600002840F0E382DFF867
:100BB8005404C0470120002101220A23002708F01D
:100BC800B5FC0446DFF84004C047DFF8E49320464C
:100BD800C847DFF828040446C04710200121012235
:100BE8000A2307F0EBFD0546DFF82004C047284636
:100BF800C84720462546C04740F24440FF24DFF856
:100C080010640DF23712042101234E9014208DF840
:100C1800374100904EA8B047DFF8F803C0479DF869
:100C28003701C8472846C0475E480AF80D4F0421D7
:100C3800012352464C90FA2000904CA8B047DFF8A8
:100C4800D803C0479AF80000C8472846C047DFF8CD
:100C5800CC430DF22F11FF208DF82F718DF82E71D6
:100C6800A04705460DF59771FE20A0479DF82F4136
:100C780083469DF82E61EA480AF8015C0AF8024C9E
:100C88000AF8034C8AF80260C0472046C847E54C7A
:100C98002046C0472846C847E348C0473046C847AB
:100CA8002046C0475846C847D148C047DB4C0DF2DC
:100CB8002D1100208DF82D718DF82C71A0474BA9AE
:100CC8000120A047D94E11200F21B047122004213E
:100CD800B04715200121B0472A203F21B0472320E3
:100CE8007F212325B04724207F21B04725207F215D
:100CF800B04720202121B04721200321B0470920F7
:100D08000F21B0470A200221B0470220C021B04776
:100D18000446C748C0472046C847DFF8E0B25846EF
:100D2800C04704200021B04705200021B047062015
:100D38000021B0470D200821B047044601208AF859
:100D48000300BC488AF80140C0472046C8475846B7
:100D5800C0474120AE4C8DF82A5103210623ADF837
:100D680028014FF6EE70ADF80C01B34842900F2001
:100D780000904AA842AAA047B048C047B04C062FE6
:100D880012D042A8C05D07F07BFE08F06AFC01376C
:100D9800F5E700BF01040020006A180002400020A7
:100DA80040420F0044000100944D774C2846A0476C
:100DB800A4480DF22312042101234990FF208DF845
:100DC80023013220009049A805F03AFA9E48A0472E
:100DD8009DF8230107F054FE2846A04750A89B4CD5
:100DE800DFF86C92DFF86C82DFF86CA20025013026
:100DF8002C90032D00F0AC819848634FB847984871
:100E08002E95DFF8ACB1455D2846D8479548B847D8
:100E1800102000212A460A232D9507F0CFFC05460D
:100E28009148B8472846D847744D2846B84740F2F5
:100E38005220012603210DF21F120123ADF82001D3
:100E4800FF208DF822618DF81F016420009048A8CA
:100E580005F0F6F98548B8479DF81F01D847284698
:100E6800B847062E7AD0824808210DF58F720123E3
:100E78003D9014203C90FF208DF81E010A20009020
:100E88003CA805F0DDF97B4808F01DFC00200DF2B8
:100E98001D110A228DF81D01122007F075FCDFF8DC
:100EA800E8B007462046D847304606F07FFE484659
:100EB800D8479DF81E0107F0E3FD4046D8479DF846
:100EC8001D51284606F072FE5046D847384607F0AE
:100ED800D7FD4A48D8470DB90136C2E74FF48970A3
:100EE8004021ADF81A0150AF384608F08AF90A20B7
:100EF8003A46009005EB4500C0000130C6B24020DC
:100F0800402E28BF06460DF58D703346022105F0A8
:100F180097F9F8B15848A34607F01EFF9DF840011D
:100F280007F0AEFD554807F017FF102E4FF01000E0
:100F380028BF06462C9F424C013E3EB117F8010BD4
:100F480007F09EFD08F08DFB013EF6E72B4807F001
:100F580003FF5C4604482D990576C1762E9D013520
:100F680047E700BF359200001C0800203D830000C1
:100F780089800000CF960000239A000082A8000014
:100F8800B8AC000039AD0000618D000035AD00003F
:100F98002DAD00004DAD0000B8A90000F2AB000077
:100FA800FCAB0000D7A4000029AD0000C0AB0000D6
:100FB800898A00003DAD000098A8000068A30000E1
:100FC800A0AC000051AA0000ACAA0000180900203B
:100FD800FD7000003C0A0020397D00001D860000DD
:100FE800217900009699000025A400001CAB0000A0
:100FF80031AD000041980000CEA0000048AD0000CF
:10100800789F0000309C00005A9D0000A59F0000BA
:10101800496200002F9B0000919D00007983000029
:10102800229D000078AC000004AB0000E5850000BC
:101038004C9900006F9C0000AABBCCDDF7A0000013
:1010480055AD000044040101B09B000085AA0000D2
:1010580044AA000021A90000E4AC000094A100000B
:101068006DA1000041AD0000EDA5000052A00000F8
:10107800000003E8400D03000EA9000025AD0000A4
:1010880045800000DF990000E89C0000D897000028
:10109800AE9C0000ED9A0000E7A300005B9E0000F4
:1010A8002CA50000F09B0000F99D000048A5000059
:1010B800E7A200002A9E000070A60000D19F000051
:1010C800FD9F00009DA40000B57B0000F7AC000068
:1010D800EBAC0000FDAC0000A5A00000BAA4000025
:1010E800F1AC00007CA0000010A500007FA4000067
:1010F800DCA10000B8A1000064A50000A5A20000C2
:10110800C6A20000E8A8000040AB000090AC0000B8
:1011180057AD0000ED9E0000C0A800001C9F000015
:10112800C7A90000A8A9000098A900008C9E00008B
:1011380043A800001DAA0000F3A9000028A0000091
:1011480088A900001FA100008AA60000AB9A000031
:101158005FF8ECA19AF8180028B9012000210122B3
:101168000A2308F0E3F95FF8E0815FF8987101203D
:101178008AF81700DAF8600000284DD000208DF8B2
:10118800400150A9FF2007F01DF8002844D09DF821
:10119800400136288AF835003ED15FF81C510D20F1
:1011A80001210124A84708F00BFA0D200221A847C5
:1011B80011200B21A84712200021A8471320C02185
:1011C800A84715200121A8472A203F21A847232006
:1011D8002021A84724202021A84725202021A847EE
:1011E80009200F21A8470A200221A84720202121F1
:1011F800A84721200321A84704200021A84705204B
:101208000021A84706200021A8470D200821A8474B
:101218005FF88C828AF834409AF83400012819D192
:101228009AF80A00362806D09AF83500362804BFFE
:1012380036208AF80A009AF8110010B901208AF8B5
:1012480011009AF8120010B901208AF81200012042
:101258008AF817005FF8D401C0475FF8D401C04787
:101268005FF8D801C0475FF8D801C0475FF8DC01D4
:10127800C0475FF8DC01C0479AF8000007F000FC9F
:101288009AF80100012827D15FF8F00107F064FD02
:101298005FF8F40107F060FD5FF8A0425FF8605264
:1012A8000026062E1AD0B85D07F0EAFB284607F09C
:1012B80053FD0136F5E75FF8BC4208F0D2F95FF854
:1012C8001C0207F049FD5FF860A39AF81D0006F0BC
:1012D8006DFC0125FFF735B95FF834425FF85873A4
:1012E8002046B8475FF83C02B8475FF8848398F80F
:1012F800020007F0C5FB98F802105FF84C025FF88F
:101308004C22AD2908BF1046B8475FF85402B847C9
:1013180098F803105FF85C025FF85C22002918BF98
:101328001046B84798F80400012825D15FF86C02E8
:10133800B847B8F836005FF87042A0475FF8740203
:101348005FF8BC138847B8F9380007F0A9FD5FF8C3
:1013580080025FF8CC138847B8F83A00A0475FF8D6
:101368008C025FF8DC138847B8F83C00A0475FF8A8
:10137800E8735FF89C021DE05FF8A002B847B8F870
:10138800360006F013FC5FF8BC02B847B8F938001D
:1013980007F086FD5FF8C802B847B8F83E0006F0C7
:1013A80005FC5FF8C402B847B8F9400007F078FDBB
:1013B8005FF8D002B8475FF8D002B847B8F84200E3
:1013C80007F0EAFEB8F842105FF8E0025FF8E022A2
:1013D800B1F5C37F08BF1046B8475FF8E802B847C1
:1013E800B8F8440007F0D8FE98F805105FF8F8023E
:1013F8005FF8F822002918BF1046B8475FF80003C5
:10140800B84798F8060007F03BFB98F8060020B1AB
:10141800082806D15FF8140301E05FF8140307F009
:101428009BFC5FF81803B84798F807005FF8685303
:10143800A8475FF824432046B84798F80800A8470B
:101448002046B84798F80900A8475FF83803B84716
:1014580098F80A005FF8A854A8475FF8386430463F
:10146800B847FF20FF24A8475FF85403B84798F807
:101478000B00A8473046B84798F80C00A8475FF813
:101488006403B847FF20A8475FF86C03B84798F88B
:101498000D00A8475FF87403B847FF20A8475FF816
:1014A8007803B847FF20A8475FF88003B84798F843
:1014B8000E00A8475FF88803B847FF20A8473046C2
:1014C800B847FF20A8475FF89403B84798F80F007B
:1014D800A8475FF89C03B84798F8100000284FF019
:1014E800FF0018BF0820A8475FF8B003B84798F86E
:1014F800110000284FF0FF0018BF0120A8475FF82F
:10150800C003B84798F81200002818BF01242046E5
:10151800A84798F80A105FF8D4035FF8D42336294F
:1015280008BF1046B8475FF8DC03B847DFEDD5EAD7
:1015380050A800F10C01103018900120B0EE6EEAAE
:10154800F0EE6EFAB0EE6E8A19911A902E90D8F8D5
:1015580060008DED29EA002800F05E8198F92E00E0
:1015680007F034FA9FEDC80B53EC102BCDE92B2371
:1015780008F0A1F89FEDC60B08F036F80546B8F953
:10158800580008F06BF89FEDC40B5AEC102B53462B
:101598002D9208F090F89FEDC20B08F005F89FED2A
:1015A800C20B08F021F89FEDC20B07F0FDFF9FED7D
:1015B800C20B59EC10BB5A4608F047F807F02AFF4F
:1015C800044698F92F0008F034F89FEDBD0B07F09A
:1015D800EBFF9FEDBD0B07F0E7FF07F0F9FF0446AF
:1015E80098F8310008F037F89FEDB90B07F099FF2C
:1015F80002F08BFD07F090FF08F05BF807F0C8FFDA
:10160800044698F9300008F014F89FEDB30B07F082
:10161800CBFF5A4608F019F802460B465846494689
:1016280008F047F807F00EFF9FEDAD0B53EC102BB9
:10163800CDE9222302F069FD9FEDAB0B07F0B4FF63
:101648009FEDAB0B05460C4607F06BFF2A9605F09D
:10165800AAFB9FEDA90B002828971CBF3C463546DE
:101668002846214607F05DFF05F0C4FB00281CBF93
:101678003C4635462846214606F0EEFBA04C01467E
:101688005A20A04764205921A04771201021A04763
:1016980072200121A04774205521A047994808F0DD
:1016A80012F850AC1121204607F0ABFD1D20214651
:1016B800112206F021FE68B19DF846119DF84501FA
:1016C800090141EA00309DF8471140EA1110410331
:1016D80040F082810027F0EE6EDAB0EE6EBAB0EE1E
:1016E8006ECAF0EE6E8AB0EE6EFAB0EE6EEAB0EE4A
:1016F8006EDA5FF88C87D8F860000024002800F0C4
:10170800A48018998DF83841C1E90044C1E9024420
:10171800022153913CA95291012151914EA9ADF852
:10172800F04050914421ADF8581150A907F051FDEF
:10173800B0EE6EAA4FF000062D9058B3012102209A
:101748009DF8F0409DF8F1508DF83011539042A863
:10175800CDE951104CA850900020ADF80801D8F8F8
:10176800600050A907F035FD64F30B259DF80811BA
:101778002E02002818BF41EA0526240906FA04F0BB
:1017880007F09EFB9FED600B07F00EFF05F00AFEC9
:101798000AEE100AD8F86000CDE92464002868D061
:1017A8005B4C0820A04782464FF6FF70BAEB00005A
:1017B80018BF01202C900920A04727900A20A04795
:1017C80098F8051026900025D8F86000012940F007
:1017D8006F820028F0EE6E9AF0EE6EAA00F0578540
:1017E800ADF8405143F6FF7050A906F095F800286F
:1017F800F0EE6E9AF0EE6EAA00F04785BDF8404113
:10180800E00740F0BF845FF83C080125D0ED019A5D
:10181800D0ED02AA00F039BD00200025F0EE6EAA36
:10182800F0EE6E9A0027B0EE6EDAB0EE6EEAB0EE29
:101838006EFAF0EE6E8AB0EE6ECAB0EE6EBAF0EEE8
:101848006EDA2D90CDE9240008E000200025F0EEA6
:101858006EAAF0EE6E9A25902D902490B0EE6EAAA6
:101868004FF0000ACDE926002C904FF0000900F057
:1018780027BE0025F0EE6EAAF0EE6E9A4FF0000A31
:101888000020EFE700000000000000000000B03F6B
:101898000000000000804840000000000000003FF9
:1018A800FCA9F1D24D62403F55C1A8A44E40633F08
:1018B8000000000000007440000000000000F03F3D
:1018C800000000000000503F000000000000384009
:1018D8000000000000001040FCA9F1D24D62603FFA
:1018E80000000000000039C03333333333330B407A
:1018F80000000000000000000000000000E06F4051
:101908000180000020BF0200ECDD1FEF552B433F94
:10191800217A000000BF00BF000000000000103F57
:1019280000000000000050BF000000000000E03E82
:1019380000000000000020BF000000000000304050
:10194800000000000000B440000000000000F03C6F
:10195800000000000000E03B000000000000903F95
:101968000000000000002040000000000000703F60
:10197800000000000000D0C0000000000000203E71
:10198800000000000000B03E000000000000F03D34
:10199800000000000000A03D000000000000E03F43
:1019A800000000000040EFC0000000000000C03E42
:1019B8000000000000000000000000000000D03F10
:1019C800000000000000F04000000000000030BFF0
:1019D80000000000000030419DF843219DF84211AD
:1019E8009DF84431CDF86CA0CDE920B9120142EA46
:1019F800013141EA131112919DF84E1124919DF87D
:101A08004D110F91BDF848111C9107F059FA1FEDBF
:101A18003E0B04460F4653EC10AB5246279307F093
:101A28004AFE5FF8BC9A05460E46B9F8360007F03C
:101A380047FA1FED450B80468B4607F0B5FD07F0CA
:101A4800FBFC0546B9F9380007F008FE07F0E2FC90
:101A58001FED4B0B05460E462046394653EC102B1E
:101A6800CDE9102307F027FE1FED4F0B04460F4664
:101A78004046594607F098FD02460B46204639462F
:101A880002F043FB02460B4607F015FE044699F99F
:101A98001E0007F0D4FD1FED580B53EC102B1492C9
:101AA800169307F008FE07F0BBFC07F0C5FC1FED16
:101AB8005C0B04460D4653EC102B07F0FAFD064666
:101AC8008B4605F06FFC139099F80400CDE9256A60
:101AD800CDF87CB0012840F0F080B9F946001090AC
:101AE800B9F94A0006F072FF1FED690B55EC107B3F
:101AF80007F072FD04464846894690F9230006F02F
:101B080065FF07F069FD32465B4607F0D4FD2246C3
:101B180007F09BFD804612988A46000107F0D0F92D
:101B280002460B46D94604462C900D462B9107F0E9
:101B3800C2FD4246534607460E4607F0BCFD8346A3
:101B480088463846314607F023FD06465FF8E80B1D
:101B58000F4690F9240006F039FF1FED830B07F0BC
:101B680023FD07F07BFC5A46434602F0CEFACDE946
:101B78001101109806F02AFF1FED890B07F014FDDC
:101B8800DDF894A002460B464946504607F093FDFF
:101B98005FF82CBC04460D46BBF83A0007F090F9F4
:101BA8001FED910B07F000FD07F012FD04469BF9AD
:101BB8001F0007F03EFD1FED940B07F0F5FC07F042
:101BC8001DFC07F01BFC02460B462046294602F086
:101BD8009CFA05469BF9200007F040FD2D9A1B9BB7
:101BE80007F069FD07F00AFC07F008FC07F006FC9F
:101BF80007F022FC8046BBF848002D9107F060F9F9
:101C08001FEDA50B54EC105B2A46234602F07DFA23
:101C18001FEDA70B07F0C8FC07F0F0FB0646BBF862
:101C28003C000F4607F04CF92A46234602F06DFAAD
:101C38001FEDAD0B07F0B8FC07F06EFC02F065FA7B
:101C480004469BF9210007F0F4FC1FEDB10B07F0E7
:101C5800ABFC07F0D3FB07F0D1FB07F0B9FC054656
:101C68009BF9220007F0FAFC1FEDB70B07F09CFC6C
:101C780007F0C4FB07F0C2FB02460B464946504634
:101C8800D94607F018FD07F093FCDDE92B3207F081
:101C980012FD0B462D990246404602F036FA0246DE
:101CA8000B46DDE9110102F030FADDF880B0ECE016
:101CB800F0EE6E9AF0EE6EAAE9E21FEDC90B20462F
:101CC800294607F071FC1FEDCA0B07F08DFC06468C
:101CD80099F9250007F0ADFC07F0BAFB07F0B8FB4F
:101CE800279B524607F0E7FC0446B9F9400007F085
:101CF800A6FC32462B4607F0DEFC224607F0A2FC83
:101D08001FEDD70B07F050FCDDF86CA02D9A534659
:101D180007F0D1FCDDF880B0219B5A4602F0F5F9B6
:101D28000446B9F83E000F4607F0CAF807F078FBFA
:101D38002A9A289B04460C9105F028F81FEDE49B8D
:101D4800002840F0A480B9F94E0006F03FFE07F0E5
:101D58007FFB0A94044699F9270007F070FCDDE937
:101D6800102307F0A8FC80468B46304629463246A9
:101D78002B4607F0A0FC42465B4607F09CFC054654
:101D88000E4620463946224607F05CFC07F010FC58
:101D98001FEDF70B07F008FC0446B9F94C0007F0F3
:101DA80048FC1FEDF90B07F0FFFB07F011FC1FEDD6
:101DB800FA0B07F0F9FB0446129807F04CFC1FEDEC
:101DC800FC0B02460B4651EC100B02F099F907F098
:101DD800FFFB9FEDC30B07F0E7FB0A9A0C9B07F08C
:101DE80068FC0646B9F9520057468A4606F0EEFDE9
:101DF80007F01CFB07F01AFB9FEDBB0B07F0D4FBA9
:101E08009FEDBB0B834688463046514607F0CCFB16
:101E180002460B4604460D4607F04DFC07F012FB40
:101E2800044699F8280007F016FCDDE9102307F0AE
:101E380042FC07F0ADFB0446B9F9500007F0F9FB86
:101E48002D9A3B4607F037FC3246534607F033FCE1
:101E58005A46DDF880B0434602F057F907F0B8FB60
:101E6800044699F9260007F0E4FB9FEDA30B07F061
:101E78009BFB07F0ADFBDDE92B2307F01CFC0246BA
:101E88000B463046514602F040F941EC190B1C98BC
:101E980000BA040C13980DEE900A99F9290006F07F
:101EA80095FD9FED970B07F07FFBDDF89480DDF83B
:101EB8007CA007F0A9FA0546B9F856000E4606F0C8
:101EC800FFFF149A169B07F0F6FB07F071FB054617
:101ED80020460E4606F0F4FF2A46334602F010F973
:101EE800044699F92A0007F0A4FBDDE9262307F048
:101EF800E2FB07F069FB219B5A4602F006F9064609
:101F080099F92B0007F09BFB9FED7F0B07F04CFB2B
:101F180007F07AFA07F058FB324607F093FB0646BB
:101F2800B9F854000F4606F0CBFF9FED790B07F088
:101F38003BFB32463B4607F0BEFB07F083FA0446FC
:101F480099F82C0007F087FBDDE9262307F0B3FB9F
:101F5800064699F92D0007F072FB9FED6F0B07F00D
:101F680023FB07F031FB324607F06CFB07F010FB50
:101F780007F00EFB07F02CFB2A9EDDF8A0A0044614
:101F88000D463246534604F00EFF9FED650B0028C0
:101F98001CBF554634462046294607F0C2FA04F0CD
:101FA80029FF00281CBF3D4634462046294605F037
:101FB800F9F90CEE100A51EC190B32463B4607F0C2
:101FC80078FB05F0EFF924990BEE100A88060DD47A
:101FD800C8469FED55EA9FED55DADDF88490012754
:101FE800F0EE6E8AB3EE09FAFFF785BB880901F0B7
:101FF8000F082D900F984FEA800B99F9320006F0E0
:10200800E5FC9FED4B0B07F0CFFA9FED4B0B07F06C
:10201800EBFA02464A480B4600EBC80090ED000B6D
:1020280007F0DEFA064647480F4632463B4600EBC5
:10203800C80090ED000B07F0D3FA80462D9889462A
:102048005844A0F5007006F0C1FC07F065FA02F0EC
:102058005CF802460B464046494607F02AFB2A9A96
:10206800534606460F4604F0C5FE002800F0A88136
:102078009FED350B3046394653EC102B07F019FB12
:1020880005F090F99FED320B80462046294607F06F
:1020980048FA04F0A2FEDDE920B960B19FED2E0BED
:1020A8002046294653EC102B04F08AFE0028B3EE94
:1020B800090A40F09D872046294632463B4604F0EF
:1020C80072FE002800F08C879FED250AB3EE091AEE
:1020D8003CEE000A30EE010A00F08ABF00BF00BFE4
:1020E80000000000006AB840000000000000003E48
:1020F800000000000000703F000000000000604089
:10210800000000000000E03F000000000000B03EBA
:10211800000000000000D03E000000000000A03ECB
:1021280000000000000059400000C843CDCC4C3DE1
:1021380000000000000014400000000000F094407F
:10214800D8960000589700000000000000408F401B
:10215800000000000000434000000000000045406F
:10216800000018C22179000000000000000028408B
:102178001809002000BF00BF8DEDB5A0F7C6B03E1E
:102188001C08002024F0010143F6FF70CDF884906C
:10219800CDE91F7B05F0E2FC00255FF8387044F2BA
:1021A8000500ADF8F050ADF808513CA9B84744F225
:1021B800080042A9B84704F07C0044F20706BDF9BC
:1021C8000881BDF9F090ADF83851ADF830510428C8
:1021D80044F2060008BF44F2040608BF44F20300B4
:1021E8004EA9B84730464CA9B847484606F0EEFB1A
:1021F8001FED230B53EC102BCDE9102307F059FAF0
:102208005FF894B00B4602461C939BED160B934661
:1022180007F0E6F90646404607F011FA07F07CF9A0
:102228001692149301F071FF044628981FED2E0BA7
:102238000E46C50F57EC102B204665F3DF713B4661
:102248002B9204F0B0FDB0B9BDF930012B9A3B4692
:102258001390BDF9380112905FF8EC0090ED060B71
:1022680058EC109B4146484665F3DF7104F09BFD2E
:10227800002800F019865FF808B1DBED019ADBED64
:1022880002AA5FF804811F9F0025D8F860004FF06C
:102298000009002800F0138198F81700002800F0C2
:1022A8000E8198F80600002840F09C80002002214A
:1022B80002233C46ADF8F0004FF6FF70ADF8080178
:1022C800052000903CA842AA03F0BAFF18B19DF877
:1022D800090188F81A00002005228DF83001122023
:1022E8004CA906F051FA9DF83071002888F81900B9
:1022F80088F8187075D1002F73D04FF4897098F84A
:102308001B801826ADF838010A200090052F4FF0E1
:10231800050028BF0746B8F1030F08BF2C2606FBA7
:1023280007F0431C4EA8022150AA03F089FF002899
:1023380055D09DF84001002851D1781E50A916FBB0
:102348000010027AC17947790679C37812023F02F0
:1023580042EA0141427A47EA06468779114482787F
:102368003E44209141782196120242EA0141B8F197
:10237800030F5FF8F48101EB030940F0858698F8B4
:102388001B10032940F08086818CB2EE041A274680
:1023980009BA090C00EE101A418BB8EE400A09BAC6
:1023A800C0EE01CA090C00EE101A017F90F82C004B
:1023B800B8EE400AC0EE01BA1B911C9000F07ABE3C
:1023C8005FF84482DDE920B90127F0EE6E8AB0EEAD
:1023D8006EFAB0EE6EEAB0EE6EDAFFF78CB95FF81F
:1023E8006082274698F83400012866D1D8F8600042
:1023F8004FF00009002862D08DF80891072042A903
:1024080005F0E0FE00285AD09DF80801002854D0B5
:1024180025281F9724BF24208DF80801AB464FF0CC
:1024280000094FF0000841F28737002100260324F5
:1024380062252191864280F02A85189800215394BC
:10244800C0E90011C0E9021108208DF838013CA844
:102458005290012051904EA8ADF858518DF8F210C5
:10246800ADF8F0105090DFF8A80E006E50A906F0F5
:10247800B0FE002800F00B859DF8F0109DF8F100E3
:102488009DF8F22001F00703C9081B0443EA002065
:102498000129104407D0032903D0022908BF21903D
:1024A80002E0804600E08146DFF8781E0136C86801
:1024B8000130C8609DF80801BCE74FF00009002012
:1024C800CDE92000F0EE6EBA1B90F0EE6ECA1C90BB
:1024D800289000204FF0000B05F0C4F9D8F87800D8
:1024E80080B340F60B60CDF8F4B000213C90199809
:1024F800C0E900BBC0F808B042A852903CA8CDE99A
:1025080042BB5190082050900F2006F08FFE0A2001
:1025180007F0D9F8D8F8780050A907F0AEF80446C3
:102528000A2007F0D0F80F2007F092F84FF00000CB
:102538004FF000064CB1BDF80E61BDF80C01BDF8B6
:102548000AB102E0002000260024229000205090CA
:102558003C9050A83CA902F057FE98F8131098F840
:102568001400CDF87C90CDE92A4A2396012915D18B
:10257800DFF8F02D00EB4001A946505C0A44517881
:10258800927806F0E7F898F81500002807BF0020B1
:1025980088F81300013888F815008CE0DFE800F0AF
:1025A8000437141A0A3C4728A946002F57D0B0EE22
:1025B8006D0A39E02C98A946002850D040F2E7303F
:1025C800824538BF504674E0A946002F47D0B0EE88
:1025D8004C0A29E02D98A946002840D09FED210AF1
:1025E800B4EE40AAF1EE10FA54D5B0EE4A0A1BE058
:1025F800F5EE40BA0020A946F1EE10FAC8BF012056
:102608002899084001282AD1BDEEEB0A4FE0A946D7
:102618002FB3BDEECB0A4AE098F80500A94628403A
:1026280001281CD1B0EE6A0A03F032FF43E098F8A3
:102638000100A946012812D198ED190AB2EE041A30
:1026480040F2E73180EE010ABDEEC00A10EE100A32
:10265800002848BF4042884228BF084629E006F0C3
:102668000FFC28E0CDCCC74200C079440000964357
:102678000080894400507D4401DE423E002A2D47F7
:1026880000007A4300004843000016430000C84297
:10269800000048421FED0C1AB0EE4A0AB4EE41AAF7
:1026A800F1EE10FAC8BFB0EE410ABDEEC00A10EE56
:1026B800100A05F087F998F81400DFF8AC4C205C94
:1026C80006F04DFFDFF8A45CDFF848AC2846D04799
:1026D800DFF89C0CD0472E9805F068FA2846D047BA
:1026E800DFF8900CD04798F8140005F05FFADFF88F
:1026F800880CD0470020DFF86C2C8DF80B0198F877
:10270800140000EB4000115A10448078ADF808110D
:102718008DF80A0142A8D047DFF8600CD04798F836
:102728001400205C06F0ACF9DFF8540CD04706F032
:10273800EFF8064606F0A4F9F00703D0DFF8440CDA
:1027480006F00AFBF00603D5DFF83C0C06F004FBA4
:10275800700703D5DFF8340C06F0FEFA202E03D3F9
:10276800DFF82C0C06F0F8FA300703D5DFF8240C54
:1027780006F0F2FAB00703D5DFF81C0C06F0ECFA05
:102788001EB9DFF8180C06F0E7FADFF8940B06F02C
:10279800E3FADFF87C8B002F00F0A380DFF8000C51
:1027A800DFF8704BA047DFF8FC5BB0EE6D0AA84776
:1027B800DFF8F40BA047B0EE4C0AA847DFF8EC0BA3
:1027C800A047B0EE4B0AA847DFF8E40BA0471FED7F
:1027D800590AB4EE40BAF1EE10FA22DD1FED5C0A98
:1027E800B4EE40BAF1EE10FA1BD51FED5E0A5FEDAC
:1027F8005E0A8BEE000A00F07DFEDFF8B80BB0EE43
:10280800409A06F0A9FAB7EE000A1FED641A30EEF6
:10281800490A20EE010A04F033FEDFF89C0B06F0AB
:102828009BFADFF8980B06F097FAB0EE680A04F006
:1028380027FEDFF88C0B06F08FFA1FED6F0ADFF822
:10284800846BB4EE40FAF1EE10FA26DC1FED730A41
:10285800DFF8746BB4EE40FAF1EE10FA1DDC1FEDF0
:10286800760ADFF8686BB4EE40FAF1EE10FA14DC81
:102878001FED7A0ADFF8586BB4EE40FAF1EE10FA61
:102888000BDC1FED7D0ADFF8506BDFF8480BB4EE68
:1028980040FAF1EE10FAC8BF0646DFF8400BDFF841
:1028A800744AA047B0EE4F0A04F0EAFDDFF8C80A00
:1028B800A0473046A047DFF8640AA047DFF8200B9E
:1028C800A047B0EE4E0A04F0DBFDDFF8180BA04776
:1028D800B0EE4D0A04F058FBDFF80C0BA047DFF808
:1028E800308A98F80500DFF82C4A00EA0900012828
:1028F80026D1DFF8F80AA047B0EE6A0A04F044FBD4
:10290800DFF8EC0AA047B0EE690A04F03DFBDFF8F7
:10291800E40AA047DFF8E00AA0473AEEE99AB5EEE4
:10292800409AF1EE10FA03DBDFF8D00A06F014FA49
:10293800B0EE490A04F028FBDFF8B80A06F00CFAF2
:10294800DFF8BC0AA04798F80000DFF8CCA9D04708
:10295800DFF8B00AA04798ED190A04F091FDDFF8F6
:10296800A85A2846A047D8F8680006F099FADFF870
:102978009C0AA04798ED1B0A04F082FD2846A04750
:10298800D8F8700006F08CFADFF8840AA047D8F867
:10299800740005F00BF9DFF87C0AA047172006F051
:1029A80097FB05F003F9DFF8700AA04798F81600BE
:1029B800D047DFF8680AA047DFF86C592878D04775
:1029C800DFF86C793846A0476878D0473846A04782
:1029D800A878D0473846A047E878D047DFF84009BC
:1029E800A04798F81700012840D12898DFF8887A7E
:1029F800DFF8886ADDF8ACA0002848D0DFF83C0A88
:102A0800A047B0EE6B0A04F03BFDDFF8340AA0479C
:102A18001B98DFF82059A847DFF8280AA047B0EE2E
:102A28006C0A04F02DFDDFF8200AA047DFF81C0A25
:102A3800A0471F98A847DFF8180AA0472198A84779
:102A4800DFF8100AA0472098A847DFF80C0AA0472B
:102A58001C980138C1B2DFF8040A022903D8DFF84C
:102A6800000A50F8210006F077F936E0DFF8B009DF
:102A780006F072F998F8060006F002F8DFF8AC08DC
:102A8800DFF8F479DFF8F469DDF8ACA027E0DFF8C7
:102A98009409A04798F8180005F088F8DFF8880925
:102AA800A04798F81900DFF87058A847DFF87C09A4
:102AB800A04798F81A00A847DFF87409A04798F8C3
:102AC8001B00A847DFF86C09A04798F80D00A84735
:102AD800DFF86409A047FF20A847DFF8440806F09C
:102AE8003BF92D98A8B1DFF87C09A047B0EE4A0A57
:102AF80004F04AFADFF87009A047259805F056F85F
:102B0800DFF86809A047249805F050F8DFF81C089A
:102B1800A0472C9800285CD0DFF8540906F01CF96F
:102B2800504605F043F8DFF84C0906F015F9BAF1FC
:102B3800150F0CD34FEA9A004A2800F28C81AAF1AB
:102B48001400462180B2B0FBF1F0441C00E00024E0
:102B5800DFF8240806F000F90025142D07D03046C8
:102B6800A54238BF384606F0F7F80135F5E7DFF833
:102B7800100906F0F1F8DFF80C09BAF1320F13D397
:102B8800DFF80409BAF5967F0ED340F2DC5082458F
:102B9800DFF8F80808D341F27070DFF8F4188245BE
:102BA800DFF8F00838BF0846DFF86847A047DFF8C5
:102BB8007007A047DFF8E008A047279804F0F6FF61
:102BC800DFF8D808A047269804F0F0FFDFF8D0080F
:102BD800A0472A98002800F0E38022980FFA8BF685
:102BE800B0EE6EBA00EE106A0FFA80F82398B8EECD
:102BF800C09A00EE108A04B21A98B8EEC0AA00EE85
:102C0800104AB8EEC0EAC0070FD13AEE6F1A39EE93
:102C1800480A21EE011A00EE001A9DED290A3EEE3F
:102C2800400A00EE001AB1EEC1BA2EEE0E8AB0EEDE
:102C3800480A0AEE0A0AF1EEC00AB0EE490A02F0A2
:102C480011FE09EE098AB0EE40CAB0EE4A0AF1EE6A
:102C5800C80A02F007FE9FEDD73AB0EECA1AB0EEE6
:102C6800C92AB4F52F7F0BDDB4EE432AF1EE10FA32
:102C780006D5B4EE431ADFF82C78F1EE10FA23D417
:102C880014F52F7F0BDAB4EE432AF1EE10FA06D5CD
:102C9800B4EE431ADFF81078F1EE10FA14D49FED71
:102CA800C63ADFF80878B4EE432AF1EE10FA0BDCE6
:102CB8009FEDC12ADFF8FC77DFF8F407B4EE421A7B
:102CC800F1EE10FAC8BF07462AEE0A1ADFF8E8073D
:102CD800DFF8405609EE091A0EEE0E1AB1EEC18A57
:102CE8009FEDB61A2CEE01CA20EE01DAA84730464D
:102CF800DFF8C867B047DFF8C807A8474046B047BD
:102D0800DFF8C007A8472046B047DFF8BC07A84748
:102D1800BCEEC80A10EE100A04F048FFDFF8AC0752
:102D2800A847DFF8AC07A847DFF8A867B0EE4C0A59
:102D3800B047DFF8A407A847B0EE4D0AB047DFF860
:102D48009C07A8473846A847DFF8D0452046A8473B
:102D5800DFF88C07A847B0EE4B0AB047DFF88407C6
:102D6800A8479FED970ADFF88407DFF87C17B4EED1
:102D780040BA9FED940AF1EE10FAC8BF0846DFF892
:102D88007017B4EE40BAF1EE10FAC8BF0846A8476B
:102D98002046A8478C4DDFF8788500201A9006E079
:102DA8009DED29EA884DB0EE6FAAB0EE489A2E98AC
:102DB8000A2401302E90002C47D0284606F083FCC8
:102DC80008F1680008F1700102F01EFA05F0A0FD94
:102DD80068B198F81C10884209D020EA010188F8E7
:102DE8001C008A0707D4CA0715D1490719D488F8DF
:102DF8001C00013CDFE798F81400DFF86825013073
:102E080000F0070000EB400188F81400505C0A4409
:102E1800517892780BE00620432188F81400452069
:102E280004E00720502188F814005020472205F0BC
:102E380091FC98F81400DFF83015085C06F08FFB59
:102E4800012088F8150088F81300F0EE4AFAB0EE71
:102E5800498AFEF77CBB40F2DB50824507D8AAF5C9
:102E68009670F02180B2B0FBF1F0041D70E64FEAD5
:102E78009A107C2809D8AAF2DC5040F28A2180B244
:102E8800B0FBF1F000F1090462E6142460E6CDF825
:102E98008080B94540F211810120DFED4CBADFEDA9
:102EA8004CCADFF86C8412E1CDF83CB05846DDF826
:102EB80070B022463346594606F0FBFB9FED460BA1
:102EC80053EC102B0692099306F0F5FB0446DFF845
:102ED80054040391049490ED081B90ED040B90EDBD
:102EE8000A9B8DED0A1B90ED181B53EC102B204606
:102EF8008DED0C1B01F004F94A4643463C46064654
:102F08001B950F4606F0D5FB02460B4651EC190BF4
:102F180001F0FBF8804689463046394632463B4642
:102F28001B9D06F0C8FB9DED0A0B02460B4606F0FA
:102F380057FB424606F089FB9DED0C0B0F9A059056
:102F48000F465B4606F04CFB169A149B01F0DDF821
:102F58002B9A894665F3DF7123468346A04603F022
:102F680022FF0646DDE91210084405F02FFD9FED0B
:102F7800DE0B06F019FB1C900F917EB9E9482B9ADD
:102F8800434690ED0C0B54EC106B2146304665F32C
:102F9800DF7103F008FF002800F0B3800598394678
:102FA80004F000FADFF87CB309EE900ACBF80400CD
:102FB800FFF765B90000BE4300802244E02E654259
:102FC800000096420000C843A0860100000090421D
:102FD800CDCCC44200BF00BF00000000000020416B
:102FE8009FEDD70AB3EE091A3CEE000A31EE400A0B
:102FF8009FEDD41A08EE908A9FEDD32AB6EE083AD0
:103008009FEDCDDA9FEDCDEA88EE811A21EE021A06
:1030180021EE031A9FEDCD3AB4EE431AF1EE10FA01
:10302800C8BFB0EE431AB5EE401AF1EE10FAB5EE8D
:10303800400A48BFB0EE6E1AF1EE10FA48BFB0EE83
:103048006E0A31EE000AB1EE041A32EE400A20EEA2
:1030580001FA9FEDBF0AB5EE40FAF1EE10FA48BF4B
:10306800B0EE6EFAB4EE40FAF1EE10FAC8BFB0EE68
:1030780040FA9FEDB80A01270FEE00DA9FEDB60A75
:103088000FEE00EAFEF735BB4FEA191027467C28F9
:1030980008D8219800097C2804D8209800097C28A1
:1030A80040F21A810320DFEDAEBADFEDACCA1C9006
:1030B8005F201B900120FFF70BBA2198DFF85082A0
:1030C800B8420DD90120DFEDA6BADFEDA4CA2890D9
:1030D80003201C905C201B901F9F5D46FFF7F9B9E9
:1030E80020985D46B8424FF0010040F2EA802890EF
:1030F8000320DFED9BBADFED99CA1C905C201B9082
:10310800E7E0DFF82082DDE903100297CDF8ACA0F4
:1031180098ED121B98ED0E0B98ED109B8DED161B7C
:1031280098ED141B53EC102B8DED141B00F0E8FFE9
:103138003246234606F0BDFA9FED6D0B06F054FAB1
:103148009FED6D0B04460D4606F04EFA02460B46FF
:1031580006460F4606F0AFFA06F080F906F07EF94B
:10316800CDE912101C980FAB0ECB06F0A2FA5A4606
:103178004B4606F09EFA069A099B06F09CFA98EDD3
:103188001A0BCDE9101051EC190B06F00DFADDF809
:1031980088A0239B0F900C9120462946524600F0A8
:1031A800B4FF98ED1C0B4FF0030BCDE909108DED22
:1031B800060B9FED4F0B8DED1C0B219C1F9FBBF148
:1031C800000F65D09DED1C0B239B524651EC100B54
:1031D80000F09BFF9DED140B02460B4606F000FA2B
:1031E800209A234600F091FF9DED160BDDE9093288
:1031F8008046894606F0F4F942462A9D06F025FAEB
:1032080002460B460F980C9906F055FA06469FEDB4
:103218003C0B1B980F4660F3DF7153EC102B3046C4
:1032280003F0E8FD0446DDE9101032463B46289ECF
:1032380006F03FFA02460B46002C04BF33462A46E6
:10324800DDE9121000F061FF2A46334641EC190B04
:1032580003F0D0FDC8B1B0EE490AF0EE690A01F0FA
:10326800EFFB01F0EDFB9FED281B51EC100B53EC2D
:10327800112B00F04AFF9DED060B53EC102B00F0CC
:103288003FFF41EC100B8DED1C0BABF1010B94E7EC
:103298009DED1C0B51EC100B04F084F8214C0646F4
:1032A8000299A060059804F07DF8DFF86480DDF8E5
:1032B800ACA00AEE906A09EE900A01256060FEF75C
:1032C800E4BF28900020F0EE6EBAF0EE6ECA1B90B4
:1032D8001C901F9FFFF7FDB80020F0EE6EBAF0EECD
:1032E8006ECA1B90FFF769B8000000000000E03FBD
:1032F800000000000000394066666666661271408C
:1033080011EA2D819997713D66666666661271C0ED
:103318001C080020618D0000898A000029AD00008A
:1033280048AD0000180900203C0A002031AD00001B
:1033380055AD0000B57B0000CDCC4C3D0000C84326
:10334800000028C2000048420000C842000096421F
:103358000000FA430AD7233CCDCC4C40CDCCC44224
:1033680000009042E4A7000068AC0000679A0000E3
:103378004A9F0000C8A3000045AD000028AB00002C
:1033880001AA000057AB0000A2AB000083AB00000D
:10339800B6AB000092AA000034AB0000A8AC000055
:1033A800B7A50000916F000070AC000062AB000090
:1033B800C8AC0000D6A6000010AB000006A40000B0
:1033C80021A70000DEAB000098AB000012AD0000A2
:1033D8000FAC00000DAD0000ACAB0000BDA60000B6
:1033E800A8A3000078AA0000DDAC000046A10000F8
:1033F8002CA8000006AC000021A2000053AD00007C
:1034080043A4000098AC000078AB00003CAC00007E
:103418005EAA000021AC00004CAB00006BAA0000C3
:10342800BD9E0000C69D0000B0AC00000FAA0000C1
:10343800E5A900009FAA000037AA000061A40000C7
:10344800C6AA0000B9AA000017AD000063A20000D8
:103458002AAC0000CAAB00002AAA0000ACA80000F1
:10346800D4AA00003AA700006DAB000088AC0000A9
:10347800EFA6000080AC000051AD00004BAD00008D
:1034880045AC000058A8000088A30000D4A800009C
:1034980053A7000056A60000FFA10000F4A40000F6
:1034A800D4AB000022A600006DA8000008A7000009
:1034B8003CA60000CFAC00009CA50000A98E00002F
:1034C80033AC000018AC0000E8AB0000D6AC00003C
:1034D80084A2000089740000D6A90000FBA800009F
:1034E800D2A50000FCA70000A4A6000080A500004B
:1034F80014A80000B0B52DED028B10EE904AB0EE86
:10350800401AB7EE000A34F0004116D011EE102A26
:10351800B2F17E5F11D0B0EEC12A12EE100AB0F1FE
:10352800FF4F98BFB1F1FF4F0AD99FEDDA0A30EE8D
:10353800802A31EE000A30EE020ABDEC028BB0BDE3
:10354800B2F1FF3F12DD0023B1F17E5F13D0B1F17C
:10355800FF4F19D1B0F17E5FEFD041D99FEDCD0A71
:10356800B4F1FF3FC8BFB0EE600AE6E7CB0D962B7B
:1035780010D90223E8E780EE010A002C48BFB0EE1C
:10358800401AB0EE410AD8E7B4F1804F14D121EEC9
:10359800010AD2E7C04B07339942D4D99623A3EB4B
:1035A800D15521FA05F303FA05F5A942CBD103F069
:1035B8000103C3F10203C7E7002A1AD4B4F17C5F00
:1035C80017D1B1EEC10AB4EE400AF1EE10FAB4D741
:1035D800B0EE410ABDEC028BBDE8B04003F0ACBAD6
:1035E8009FEDAC0AB1EE601A002C48BFB0EE410A5C
:1035F800A3E728B1B0F1FF4F02D0B0F17E5F15D13B
:10360800002C80EE020A48BFB0EE402AB2F1FF3F1C
:1036180009DCA0F17E50184327D0B1EE420A012BF5
:1036280008BFB0EE402AB0EE420A86E74FF0FF35F9
:1036380005EBD27253EA020517D0013BB0EE408A7F
:10364800BFEE001A1A4308BFB0EE418AB1F19A4F93
:1036580012D9EA4988422BD205F0CEFF2221B4F1D3
:10366800FF3F016040F3EE800DE105F0C5FF212129
:103678009FEDE30A016060E79FEDE21A6FF07E01BB
:10368800B0F5000FE04B22EE011A38BF11EE100A18
:1036980038BF6FF0960101EBE0516FF3DF5000F196
:1036A8007E52984213D3D94B98420DD201200FE095
:1036B8000F31884240F2F28005F09EFF2221012C52
:1036C800016080F2BF80DEE000F17C520131002011
:1036D800CF4B02EE102A40F6FF7503EB800393ED03
:1036E800001A31EE024A32EE413A80EE044A23EEE5
:1036F800045A15EE103AAB4306EE103AC54B03EAEE
:10370800520202EB405202F1015207EE102A06EE75
:10371800473A31EE471A9FEDC17A31EE021A35EE7B
:10372800062A06EE413A24EE031A9FEDBB4A25EE1F
:10373800053A03EE047A9FEDBA4A03EE074A9FED75
:10374800B97A03EE047A9FEDB84A03EE074A9FED73
:10375800B77A03EE047AB0EE084A23EE033A23EE72
:10376800073AB8EE087A01EE023A26EE062A32EE59
:10377800044A34EE034A14EE102A6FF30B0204EEE7
:10378800102A34EE077A37EE422A33EE422A25EE23
:10379800022A05EE101A01EE042AB8EEC55A26EEE2
:1037A800041A31EE023A13EE102A6FF30B0203EEFD
:1037B800102AA14A02EB800233EE411A32EE411A76
:1037C8009FED9B2A21EE021A9FED9A2A03EE021A18
:1037D80092ED002A9A4A02EB800032EE011A9FED20
:1037E800972A90ED004A23EE023A33EE012A34EE8E
:1037F800022A32EE052A12EE100A6FF30B0002EECF
:10380800100A32EE455A35EE444A34EE433A31EE68
:10381800431A40F6FF7020EE811A24EA000003EEF6
:10382800100A30EEC34A04EE021A22EE032A31EEE1
:10383800023A13EE101AB1F1864F08DD05F0DCFEEE
:10384800222101609FED8E0A28EE000A75E60FD14D
:103858009FED815A33EE424A31EE055AB4EE445A8E
:10386800F1EE10FAEADC13EE100A20F0004049E00D
:1038780013EE100A764A20F00040904238D305F043
:10388800BBFE2221016018EE100A00F0004000EE95
:10389800100A52E600000000F8FF7F3F9FED613AF2
:1038A80032EE011ABDEE002A40F6FF7101EE023A2F
:1038B800B6EE002A01EE432A21EE013A23EE022A4F
:1038C8009FED603A22EE033A9FED5F2A01EE023A3D
:1038D8009FED5E2A21EE021A31EE032A12EE100A3B
:1038E800884302EE100A32EE411A33EE411A90E78D
:1038F800584A914206D133EE423AB4EE431AF1EEF9
:1039080010FABCD9B0F17C5F27D96FF07D0202EBC9
:10391800D0504FF4000222FA00F04218012013465A
:10392800002960F3DF53C2F3C750C0F1960023FAB1
:1039380000F06FF07E0348BF4042D10D53FA81F189
:10394800464B43FA01F1114003EE101A32EE432AB6
:1039580031EE023A13EE101A00E0002047F6FF722B
:103968009FED3F4A9FED415A9FED416A914303EE17
:10397800101A33EE422A23EE044A31EE421A9FED22
:10398800392A01EE024A9FED381A23EE011A31EE68
:10399800042A22EE023A32EE411A03EE056A9FED3E
:1039A800355A34EE411A02EE011A03EE065A9FED1B
:1039B800326A03EE056A9FED315A03EE065AB0EEFD
:1039C800426A03EE456AB8EE003A36EE033A22EE52
:1039D800065A85EE033A33EE411A32EE411A31EEB9
:1039E800000A10EE101A01EBC051B1F5000FACBF80
:1039F80000EE101A02F0EAFA26E700BFF8FF7F3F50
:103A08000000C07F0000804B72C41C00D7B35D006B
:103A18009CA7000000F0FF1F42F1533E55326C3E58
:103A280005A38B3EABAAAA3EB76DDB3E9A99193F18
:103A38004F38763FC623F6B8A4A700000040763F6B
:103A4800ACA700003BAAB8BF70A5EC3600AAB83FE7
:103A580001001643000016C33CAA3833000080FF5B
:103A68008CBEBF351872313F0072313F4CBB3133C9
:103A78000EEADDB555B38A38610B36BBABAA2A3ED0
:103A88000000807F2DE9FE4F074608680024B0B18A
:103A9800D7E9018A0E4605F041FC8146D8F8E800CE
:103AA800082888BF0124B068204202D170682042EB
:103AB80008D003203074484605F056FD00242046FF
:103AC800BDE8FE8FD8F8C01069B198F8F810002941
:103AD800EFD006213174D8F8C410C8F8C4604E611C
:103AE80098F8FC100DE000210522C8E93066C8E905
:103AF8003411C8E9361198F8FC10002908BF0122D2
:103B0800327400220129726109D102204FF4E021A8
:103B180088F8FC0098F8FB0004F09AFE7068894960
:103B28000138884205D8042004F0AAFE062004F0D3
:103B3800A7FE022004F0A4FE98F8F80040B9DAF8CD
:103B48003C003168814203D298F8FC0000286CD010
:103B5800D8E9361009B118B900E028B305F020FDFE
:103B6800DAF80000416941F001014161484605F079
:103B7800FBFC98F8F80008B10124A0E708F16C05EF
:103B8800D8F8EC10284603F025F80028F4D0D8F827
:103B9800C00003210174384603F068F82846002164
:103BA800002403F017F88AE79AF8040005F008FCE7
:103BB800654CDAF810100222206991FAA1F1B1FAE5
:103BC80081F14368D8F8CC004068006898472069BC
:103BD800DAF8141002224368D8F8CC0091FAA1F15F
:103BE800B1FA81F14068006898479AF8040005F036
:103BF800E1FB9AF8040005F0E9FB05F0D1FC002090
:103C0800C8F8E000D8F8C0000068B0F5806F01D9A6
:103C180005F0C6FC98F8FE000028A1D1DAF80000EB
:103C2800416841F0020141609AE798F8F90020B133
:103C3800D8F8EC0001307FF48BAF484605F094FCCF
:103C4800B2683AB1D8F8E8000221092838BF012142
:103C5800009103E008F1F40200200090746834B188
:103C6800D8F8E8000227092838BF012702E008F140
:103C7800F6040027DAF80000334D416841F00201EC
:103C88004160D6F800B0D946BBF1000F40D0D8F853
:103C9800E800019209284FF0010011D22A68B9F111
:103CA800000F1FD0C0071DD02178DAF800009268F5
:103CB800904700281EBF3C44A9F101090120EDE707
:103CC8002A68B9F1000F16D0C00714D02188DAF895
:103CD80000009268904700281EBF3C44A9F10109E2
:103CE8000120EDE7DAF80000D26802A99047DDE983
:103CF8000120107007E0DAF80000D26802A99047A6
:103D0800DDE9012010800098ABF1010B0244BBE70C
:103D1800D8F8F000DAF80010CA680240102802D17A
:103D2800002AF9D101E0002AF6D0706805F002F8FF
:103D3800D8F8C0100020C8F8C400C8F8C00008743B
:103D48001AE700BFFEFFFF0FC40100102DE9FC4772
:103D5800D0E900588246D8F80000D0F8409019F40D
:103D6800F06FC0F8449035D05FEA495117D5D5E9CE
:103D78001401411A504604F06DFED8F8000081691C
:103D8800C90605D401688DF807109DF80710F6E7F5
:103D9800296801312960A97B09B90121A973696CD6
:103DA80040684FF0004600F00F0404EA0100B0FA42
:103DB80080F126FA01F1014005D02F6C1FB12A6865
:103DC800AB6C5046B847B4FA84F026FA00F02040AD
:103DD8004042A863D5F85801D8F83C1009F04007CC
:103DE80040680068D0F804251140394347D0DAE923
:103DF8000064504603F0AEFBD7B1F07C90B90BE0FD
:103E0800316F69B10068B16EB26F8854306FB16FAD
:103E180001310138B167306720688169C906EFD57B
:103E2800F07C28B1D6E91401411A504604F012FE7C
:103E380096F86400E0B13079022819D017B1B17949
:103E4800012901D0316F99B90024B16E0128346776
:103E580086F86440B46607D1B36CB26FD6F8CC600C
:103E680050460094B04703E006F17C0004F08AF95C
:103E7800504601F073FED5F858014068006800F21A
:103E880004500068D8F83810084228D0D5F8F8004F
:103E980028B3DAE90076504602F0BAFF504602F03D
:103EA80097FA7879012812D1D7F8F40078B997F8F9
:103EB800E80060B1002087F8E800BB6CD7F8EC1088
:103EC800D7F8FC20D7F8504100905046A047D7F8C3
:103ED800F80020B93068816B41F4006181635FEAC2
:103EE800095023D5D8F8000081690907FCD4016B73
:103EF80021F480710163297A91B10020287295F824
:103F08004400800606D52C6C24B1AB6C50462021A9
:103F18000022A0475046012104F0DDFDD8F800003A
:103F2800816B21F400618163687908B1BDE8FC8781
:103F380005F58070BDE8FC4704F024B92DE9FE4F73
:103F4800D0E90198D8F80010CA690A62D20740F08F
:103F5800AF80D8E904014FF0000A4FF0000B084386
:103F6800D9F8CC1049680968C1F8040509F130008E
:103F7800029009F1C8000190BBF1010F00F2A18085
:103F8800D9F8C000002800F09C80D9F8E010DC22A5
:103F9800D9F8CC702023002908BFD82208BF1823DD
:103FA80058F803404FF0240308BF1C237F68D8F853
:103FB800146058F803303F68D7F80455354211D0DB
:103FC800A46864070ED10468D9F8D050A54209D175
:103FD80044693CB9D8F80040656A25F00205656275
:103FE800C7F804659B685B0702D00BF1010BC3E7B8
:103FF80059F80230002BF8D049F802A0B1FA81F143
:10400800D9E934424909006849011A448442C9F887
:10401800D420C9F8E01028BF82420CD24846414655
:1040280000F058FC99F8FE000028DED005F082F870
:1040380018BF8862D9E705F071F9D9F8C820D9F80E
:10404800C010019B81F810A022B113465269002AC2
:10405800FBD114331960C9F8D4A04A69C1F814A077
:10406800D9F8E01000294FF0DC01C9F8C02008BFDA
:10407800D82159F80110C9F8D01005F075FAD9F807
:10408800C00058B14846414600F024FC99F8FE00AB
:1040980050B105F04FF818BF886205E0D8F8000065
:1040A800416A21F003014162029803F07FFB9CE71B
:1040B800D9F8C0203AB103211174BDE8FE4F02F0CF
:1040C800D5BDBDE8FE8F486820F002004860486A08
:1040D80020F003004862D8E904021043D9F8CC2044
:1040E80052681268D062C2F80405486920F00100DD
:1040F8004861012008624046BDE8FE4F04F077BDE4
:104108002DE9FC4F83F0004301E02DE9FC4F1F032C
:10411800FF0847EAD2574FEA42284FEA43095FEAC5
:10412800595906D147EA080A1CBF00210020BDE8FA
:10413800FC8F57F000575FF4E06E1EF1FF0EF1455B
:1041480005D14FF00000190D0905BDE8FC8F002BC3
:1041580005D55FF0000AD8F100086AEB07070C03E1
:10416800E40844EAD0544FEA40254FEA4106760D68
:1041780008D144EA050A19BF002100201946104653
:10418800BDE8FC8F44F00054764504D10020090DA9
:104198000905BDE8FC8F002904D55FF0000A6D42CF
:1041A8006AEB0404B6EB090E08D5A2463C4657460E
:1041B800AA464546D046CEF1000E4E46BEF1360F11
:1041C8005CBF4FF0000B23E0BEF1000F04BF4FF0BF
:1041D800000B1AE0CEF1390ABAF120092EBF08FA0D
:1041E80009FB07FA0AFB4BEA080BDEF1200A07FA7B
:1041F8000AFA38BFBA4647FA0EF72DBF28FA0EF862
:10420800AEF1200E4AFA0EF8D04415EB08057C41B1
:1042180054EA050A02BF00210020BDE8FC8F002CEB
:1042280058BF4FF0000A06D55FF0010A5FF0000E94
:104238006D426EEB0404A6F101066D006441FAD5E7
:1042480015F4806E11D005F480794BEA090B15F549
:10425800806554F1000428BF761C0BD205F4007960
:104268005BEA090B08BF25F4006525F4E0656D00DD
:1042780044EB0404B61CDEBF00210020BDE8FC8F1F
:104288005FF4E06E1EF1FF0E76450AD34FF0000092
:1042980013F00043FF21C900C91D09051943BDE8F2
:1042A800FC8F270547EA1530210B41EA065141EA00
:1042B800CA71BDE8FC8F7047B0B560480021604CFA
:1042C800016094F83A01032812D002282ED0012860
:1042D80040F0AF8094F8400102F048FF002084F8D5
:1042E80040015948817B0220002908BF06209EE032
:1042F80054480168B1F5C060C4F82C01B8BFC1F5D5
:10430800C060D4F81011002900D5494288422ADD3E
:10431800D4F8140104F0B4FCD4F8180104F0C2FC79
:10432800D4F8280104F0E2FC01201DE045480568A6
:1043380004F094FFC4F8140104F098FFC4F81801BD
:1043480004F09CFFB5F5C061C4F82801C4F8101149
:1043580009D094F830215AB1D4F81401D4F82021A6
:10436800D4F82C110AE0002084F8300106205EE021
:10437800C4F82401D4E94502C4F82C110223C4F876
:104388001C01002901EB410148BF6FF001031944EA
:10439800042391FBF3F111440029C4F820110FDD27
:1043A8001F2931D3D4F824212AB33E28A8BF3E20A0
:1043B80001302929A8BF2921C4F81C010B3909E0BB
:1043C800D4F82421032A09D111F1140FD8BF6FF0B2
:1043D80013011531C4F82011002113E00128D8BFBA
:1043E8000120013811F10A0FD8BF6FF00901C4F894
:1043F8001C010B3103E03329A8BF33211539C4F858
:1044080020110321C4F8241104F03AFC012004F01F
:104418005BFCD4F8200104F045FCD4F8240104F036
:1044280065FCA5F2FF510420032938BF0620C4F813
:104438003C01BDE8B04001F08DB800BF3C500C40D5
:10444800D005002008400C4084A800002DE9FF4753
:10445800D0E901590E46044604F060FF95F8FD10B6
:1044680021B97169102901D8032906D805F07CF80B
:104478000024204604B0BDE8F087012785F8FD70C8
:1044880005F072F800204E4A85F8FC00C5E93000B6
:10449800C5F8C80085F8FE003069C5F8E400706901
:1044A800C5F8E800307B85F8F9000028317885F8F0
:1044B800F8107168C5F8EC10B9F80E10A5F8F610E8
:1044C800317E52F8211085F8FA1008BF1027C5F878
:1044D800F07099F80C0002F08FF8204603F0DCFB2E
:1044E80099F83B00374985F8FB008A46D4E90187EB
:1044F8003A6B97F83A0002F027F87A6B98F8FB00C5
:10450800514602F021F898F8F91097F83800012977
:1045180015D1FA6A514602F017F8BA6A97F83900C5
:1045280046F2020102F010F898F8FB00264904F060
:10453800F5FC98F8FB00214604F0D4FD0AE0BA6ABD
:1045480046F2020102F000F8FA6A97F8390051467B
:1045580001F0FAFFE846404604F032FE99F80500FB
:104568001A4A4346CDE90040284699F8041002F05B
:10457800CDFC404604F0B2FED9F808001449424682
:104588000094029005F1300001F0C0FE03F07AF8C3
:10459800104AC5F8CC0005F11C000421234604F09C
:1045A800B7FB95F8F80008B1B06805E005F16C00B4
:1045B800002104F055FC0848C5F8BC0059E700BFC5
:1045C800B4A70000026000206D590000453F0000BC
:1045D800857D00000195000009960000FEB504469F
:1045E8005A480078A04213D908780D46012801D10D
:1045F800686868B16878012801D1A86840B1544F4B
:1046080057F8346004F08AFEF17921B104F0ACFF68
:1046180000242046FEBD07EBC40401216768F17140
:1046280004F0A2FF002005F1040C7074F081B06062
:1046380030602988B180A98BC6E93D00C6E90E0023
:1046480086F86400B186297D2B69B1719CE8061053
:10465800C6F85021BCF1000FC6E910C34FF0FF3275
:10466800C6F8CC10A969C6E93B203163A97F86F852
:104678003610296AC6E91A00C6E91C00B16486F832
:10468800E800C6F8580102D13249C6E9101097F877
:10469800400001F0B1FFD7E9031206F14C0004F025
:1046A80015FED7E9051206F1D00004F00FFE2A49DD
:1046B80038680968C96888477A6C97F8240046F210
:1046C800020101F041FF254DBA6C97F820002946F8
:1046D80001F03AFFF86901280CD1FA6C97F8280024
:1046E800294601F031FF3A6D97F82C0046F2020195
:1046F80001F02AFF02F0C6FFC6F85801204600F074
:10470800AFFF174A06F5AE700421234604F000FBFC
:104718006D46284604F054FD387A7968114A2B46CC
:104728000094019006F1140002F0F0FB06F17C0001
:10473800002104F095FB06F58070002104F090FB41
:104748003868D7E90C121060486062E75BAD00007A
:1047580050AC00001B740000D00100100260002063
:1047680079910000553D00002DE9F84FD0E900B7D8
:10477800984616468946054613B10020C8F8000039
:104788008EB104F0D2FD824604F0C8FD04469BF8C1
:10479800070060B19BF8E80078B104F047FF6FF0BC
:1047A8000800BDE8F88F6FF00900BDE8F88F04F045
:1047B8003DFF6FF00E00BDE8F88F00200121CBE926
:1047C8003B96CBF8F460CBF8FC008BF8E810CBF8FC
:1047D8003C008BF80D008BF80B000BF58070002166
:1047E800009002F0F7F9384604F07AFEBAF1000FAB
:1047F80002D19BF8050070B3284601F0E9FD04F0EA
:1048080015FF9BF8050068B90A99009802F0E2F9CB
:1048180010B101208BF80D00284602F0F9FA0020AB
:104828008BF8E800B8F1000F1CBFDBF8FC00C8F8F3
:1048380000009BF80B0030B100208BF80B006FF0E4
:104848000D00BDE8F88F9BF80D00002818BF6FF029
:104858000C00BDE8F88F04F0E9FED5E9007497F87C
:104868004400C00615D5D7F840C0BB6C28461021B7
:104878000022E0470DE0D7F8FC00314609EB0002C2
:10488800204603F04DFFD7F8FC10361A0144C7F84C
:10489800FC10002EEFD1204604F030FD0028FAD09D
:1048A800204604F017FE97F84400800605D53C6CB6
:1048B800BB6C284620210022A0470020B8F1000F39
:1048C80087F8E800C5D0D7F8FC00C8F80000002039
:1048D800BDE8F88F2DE9FC4FD0F8C080D0F8D0C0E3
:1048E800D0F8E820D8F80030C346E6469C4511D3F6
:1048F800D8F814B0BBF1000F00F0898090F8FC30B4
:1049080005244FF0000E002B08BF0124DBF800300F
:104918008BF81040A3EB0E05A2F1080AB5F5806FDD
:1049280028BF4FF48065D0F8D82032B101F12003B8
:1049380001F12402C0F8DC5005E0C0F8D85001F1BC
:10494800180301F11C020026BAF1000FC8BF0126A6
:10495800DBF8044012681F68CDF800E07CB1354BE5
:1049680053F82630BB6005FA06F30126BAF1000FAA
:10497800C8BF02260EFB06332344013B05E02E4B3D
:1049880053F82630BB6000F1F6033B6043F6F07441
:104998000191D1F8009004EB0516264009F1080EA4
:1049A800C7F804E0BC683443BC600024BAF1000FC7
:1049B800C8BF0124DBF808709FB16146DFF87CC0EE
:1049C8005CF824308C46936005FA04F30124BAF1AC
:1049D800000FC8BF0224009901FB043139444C1E62
:1049E80005E0154951F8241000F1F4049160546071
:1049F800C2F800E0916831439160C34504BF05EBFC
:104A08000C01C0F8D01090F8FE10019A09B1BDE869
:104A1800FC8FD9F8241041F00301C9F82410D0F80C
:104A2800CC00D2E904124068114300688162BDE8F5
:104A3800FC8F00BF84A700008CA7000094A700008B
:104A48002DE9F84354EC105B554AE04310420DD170
:104A5800284621462A46234604F02DFE2A462346A8
:104A6800FFF753FB41EC100BBDE8F883002C04DD85
:104A7800201590B191462A4626E024F000402843AC
:104A880000F08680B4F1FF3FF2DC04F0B5FD9FED45
:104A9800420B21210160BDE8F883002024B9690593
:104AA800EC0A15380D46F9E791460021E20202D4D6
:104AB80001316400FAE7C1F12003401A05FA01F256
:104AC80025FA03F301301C430121A0F2FF3C4FF00B
:104AD800000861F31F545FEACC701EBF600040EA13
:104AE800D27452000025600040EAD2744FF40010DE
:104AF800520060B14119A142DCBF80440D18611A0F
:104B0800B8BF21464008490041EAD274F0E74FF0A7
:104B1800000E4FF000470020FFB1C119AC4212DD72
:104B2800641B00260023BE448A4238BF013C00298A
:104B380048BF0126C819B0F1FF3FC8BF0123334061
:104B4800521A1D4403E002D18A42E9D22546610087
:104B58007F0841EAD2745200DEE752EA040009D025
:104B68001EF1010019BF0EF00100864408F101088A
:104B78004FF0000E09F100410A4A4FEAC87001EAF5
:104B8800CC4140EA5E0001EB6801114441EC100B96
:104B9800BDE8F88300BF00BF000000000000F87FF8
:104BA8000000F07F0000E03F2DE9F047012816D112
:104BB800DFF830A1DAF83401012813D10220CAF84D
:104BC800340104F06BFB0120012403F089FE60B17D
:104BD800CAF8344104F060FC4FF0FF347FE06FF016
:104BE80001047CE06FF0040479E09AF85A419AF8DD
:104BF80059119AF85801002C18BF0124002918BF30
:104C08000234002818BF0434012004F02DFC0138B8
:104C180018BF01209AF83811B1FA81F1490910EA50
:104C2800010902D1002001F0A3FADAF808002E4D9C
:104C380010F0010807D12D4F286A81683846884747
:104C48000428F9D00646404604F07AFCB8F1000F73
:104C580008D1012E04D1286A0121426823489047CF
:104C680004F0F4FA28684169204688479AF8540104
:104C780018B14FF4806004F0FDFB9AF8530118B1A5
:104C88004FF4816004F0F6FB19480121016003200C
:104C98000021CAF8340117480160204603F068F97A
:104CA8000128FAD1144E3068042003F019FE044696
:104CB80012480125B9F1000F0560306802D10120C2
:104CC80001F056FA04F060FC082003F009FE0443E2
:104CD800CAF8345118BF4FF0FF3404F0DDFB20460A
:104CE800BDE8F087D0050020B8010010004003405F
:104CF800282008600C2008402C2009400C4009405E
:104D0800B0EEC01A10EE100A11EE101AB1F1994F58
:104D18000CD3B1F1FF4F84BF30EE000A70474CA1AD
:104D28000028C8BF043191ED000A70473F4A9142FC
:104D380010D29FED3F1AB7EE002A4FF0FF3330EE46
:104D4800011AB4EE421AF1EE10FA38DDB1F1665FDD
:104D580035D2704702F5380399420DD202F5A00307
:104D680099421BD2B0EE000ABFEE002A002331EEB2
:104D7800000A31EE011A18E002F19E73994219D225
:104D8800B7EE080AB7EE002A022301EE002ABFEEAA
:104D9800080A31EE000A80EE020A10E0B7EE000AB7
:104DA800BFEE002A012331EE000A31EE021A81EE2D
:104DB800000A04E0BFEE000A032380EE010A20EE99
:104DC800002A9FED1C1A9FED1C4A9FED1D5A914227
:104DD80022EE023A03EE014A23EE041A9FED174A27
:104DE80003EE045A9FED174A03EE054A22EE042A01
:104DF80031EE021A02D200EE410A70471249002829
:104E080001EB830191ED002A104910EE012A01EB14
:104E1800830191ED001A32EE400A31EE400AB1EEFC
:104E2800401A48BFB0EE410A704700BF0000E03E9C
:104E3800CAF249714712DABD98CA4CBE25AC7C3D0E
:104E48000DF5113EA9AAAA3E58A3000048A30000E8
:104E5800DB0FC9BFDB0FC93F2DE9FC4191EA03080D
:104E68004CBF4FF000484FF000084FEA03354FEAB7
:104E7800153556006D4176006D414FEA43075FEAEC
:104E8800575711BF45F4800500210020BDE8FC817B
:104E980040F2007E1EF1FF0E774578D04FEA0133CD
:104EA8004FEA133342005B4152005B414FEA410431
:104EB800640D11BF43F4800300210020BDE8FC818C
:104EC800744564D0E41B002100205FF0370EAB422C
:104ED80000D1B24205D340414941921B63EB05031F
:104EE80001E040414941BEF1010E05D053EA0207F5
:104EF80002D052005B41EAE7BEF1200F09D2BEF1B1
:104F0800170F0CD3CEF1200720FA07F100FA0EF0A4
:104F18000FE0AEF1200E00FA0EF1002009E001FAD0
:104F28000EF1CEF1200720FA07F741EA070100FA4F
:104F38000EF011F4800F06D1401C51F10001400021
:104F48004941641E02E0801C51F1000111F4000F78
:104F58001ABF641C21F4000121F4800140F20037DB
:104F6800FF37E419DEBF00210020BDE8FC8107F50A
:104F78008067BC420BD249084FEA300049084FEA23
:104F8800300041EA045141EA0801BDE8FC810020F3
:104F9800FF214FEAC101C91D4FEA015141EA080149
:104FA800BDE8FC812DE9FF47044645480078A0424A
:104FB8000AD9444F0D4657F8346004F0AFF996F813
:104FC800E01031B104F0D0FA0024204604B0BDE866
:104FD800F08707EBC4044FF00109D4F804A086F861
:104FE800E09004F0C1FA9AF8100001F005FB364F82
:104FF800002D18BF2F46354DF868411C002808BF02
:105008000AF11301097808BF0AF11100007886F83F
:105018002511294686F824019AF8122001F094FAFD
:105028009AF8142096F82501294601F08DFADAF845
:1050380000004FF000086D46C0F8108839783170CC
:1050480079687160397AC6F82011C0F81C9828462A
:1050580004F0B6F8DAF808001D4A2B46CDE90040FE
:1050680006F11400DAF8041001F050FF284604F0A5
:1050780035F9DAF80C0017492A460094029006F12F
:10508800E40001F043F906F13000012103F0E8FEE5
:10509800307830B906F18000002103F0E1FE0E48B7
:1050A80070602046C6F81080C6F80C8002F060FCDC
:1050B8000A4A06F596700421234603F029FE84E780
:1050C80059AD000048AC000068A900000040002469
:1050D800555C000061690000799500001591000099
:1050E8002DE9F04790460C4606464FF001096068E6
:1050F800D6E9007A10B9E068002848D004F00EF923
:105108003978012901D1F968B9BBFC603C61C4F860
:10511800149004F029FA07F130050021284601F01F
:1051280059FD013008D138780128E0D02846414699
:1051380001F050FD013030D0387820B907F18000F7
:10514800002101F047FD04F068FADAF8040004F0E1
:1051580037F93046214602F0B5F88146DAF80400FE
:1051680004F034F9B9F1000F02D004F053FA44E026
:10517800387808B34FF000093FE0F96849690A3107
:1051880010D16FF00A016161D4F8149011E06FF04A
:105198000A006061D4F8149032E06FF00209C4F894
:1051A80014902DE001214FF00009616139693C61DB
:1051B800CC6104F0D9F923E007F18009414648465B
:1051C80001F008FD013016D104F0A8F88046F8680F
:1051D80070B1304603F094FC404604F0C5F94846E7
:1051E8004FF0FF3101F0F6FC6FF00200606102E061
:1051F800404604F0B9F9D4F81490284602F0C2FFEA
:105208004846BDE8F08770472DE9F0418CB0434F20
:105218000546787801287ED18846002643F69724EB
:10522800172003F055FF30B1A64204D8322004F00D
:105238004AFA3236F4E7012002F014FBB86F00286E
:1052480069D0002069468DF81400CDE90300CDE946
:1052580009000B90089103A98DF80800CDE900001A
:10526800787F079109210691002103F0DFFF0520CF
:1052780004F029FAB86F06A904F0FFF906460520DC
:1052880004F021FA787F012103F0D0FF002E42D0EC
:105298009DF80000B87500F0F000C0283BD1786F89
:1052A8009DF906109DF808609DF807409DF80420B8
:1052B8009DF805309FED1A1A01307867C8B20029A9
:1052C80046EA004040EA042048BF00F17F409DF9CB
:1052D800034000EE100A3867B8EEC00AE1B220EECB
:1052E800010A002C43EA014141EA022148BF01F1C9
:1052F8007F4187ED1B0A00EE101AB966B8EEC00AA6
:1053080020EE010A87ED190A05B12960B8F1000FEE
:1053180018BFC8F800000CB0BDE8F0811C080020D8
:1053280063EC443D2DE9FF413B4E96F842010028CD
:105338006AD1012086F8420104F0A2F8374F86F8B6
:105348007001374D7868C6F86C01387B86F84101E2
:10535800A86810F4402F13D1386988B128686421EF
:10536800C0F3066000FB01F404F01EF8B4FBF0F291
:105378002C4906F19400002302F026FD03F05EFF9D
:1053880001AC204604F0BEF82749A846002506F1DE
:105398000C00002203F0D0FF204604F0B3F82349A4
:1053A80006F15000082203F0C7FF214A06F1D80091
:1053B8003221002301F0AAFD1E4C1F4A06F1F40019
:1053C8002C2100232560454601F0A0FDD8F80800EF
:1053D800797BC0F3815021B1032804BF012186F8ED
:1053E8003911032803D040F00200022810D12068A8
:1053F80040F040002060022003F042FA686840074D
:1054080002D4002003F03CFA002004B0BDE8F0818B
:1054180003F058F8F2E700BFD005002084A8000088
:10542800AC4F005079930000EF7E0000CD80000063
:105438001D74000090220840C14200002DE9FE4F73
:10544800D0E90085994614460F46834613B10020DB
:10545800C9F8000074B103F061FF064698F8070028
:1054680058B198F8E80070B1304604F07DF86FF054
:1054780008046CE06FF0090469E0304604F074F841
:105488006FF00E0463E000200121C8E93B74C8F8FE
:10549800F440C8F8FC0088F8E810C8F83C0088F820
:1054A8000D0088F80B002846019504F019F83046DD
:1054B80004F05AF808F1D0060DF1080A03F02EFF9F
:1054C80004463046514603F06AFAD8F8F450D8F842
:1054D800FC10A842394438BF054602982A4604F011
:1054E800F5F83046294603F009F8D8F8F400D8F85A
:1054F800FC10401BC8F8F4004819C8F8FC00204606
:1055080004F032F8012D03DBD8F8F4000028D5D1D7
:1055180003F004FF0746D8F8FC0050B1019803F0E7
:10552800DFFF584600F054FFD8F8FC0010B1002403
:1055380002E000206FF00F04B9F1000F18BFC9F89E
:105548000000002088F8E800384604F00DF82046EE
:10555800BDE8FE8F2DE9F84F3C4C3D4E3D4D42F6DF
:105568002A294FF0010A4FF0030B00274FF00508D6
:10557800D4F83C01062833D8DFE800F00433183BA0
:10558800203D4B000F20F060C6F8109002F096FE08
:1055980045F804AC55F8040C8007FBD5C6F81CA0E8
:1055A80094F8390190B10120EF6210E02F60C4F83F
:1055B8003CB128688007FCD40320DBE72F60C4F8DF
:1055C8003C8128688007FCD40520D3E70320C6F86F
:1055D80000B0C4F83C012F6029688907FCD4C9E7EA
:1055E800FEE70126022084F83A6102F08BFD2E6066
:1055F80009E0022000E0032084F83A01002002F0CC
:1056080081FD0120286004F15000BDE8F84F01F049
:1056180021BE002045F8040C286055F8040C8007CA
:10562800FBD428688007FCD40B48002501210560BD
:105638000A4801600D2001F0E7F8022003F03CF869
:10564800C4F83C5184F83B51BDE8F88FD0050020E0
:1056580000400C4058600C403C500C4004800C400A
:10566800FEB5D0E9005401A803F0D0FD95F8340048
:105678003649374A384E085C95F83510515C354A3A
:10568800084395F83610515C2A6B40EA01033168EB
:1056980020684F680299B847206840F2F272E169C1
:1056A8002E4B2F4F426494F854209A5C94F855304E
:1056B800FB5C1A430129426311D10146D4E90A234C
:1056C80051F8307FFF2A27F4004718BF07F5004735
:1056D800FF2B0F6009D00A6842F4804208E00146B7
:1056E80051F8302F22F400420A600A6822F48042FE
:1056F8000A60C16A41F01001C162016B41F0010109
:105708000163E16B09B3A16BF9B1012103F0B2FCAC
:10571800D5F85801E16B40680068C162C0F804150B
:1057280091FAA1F17268B1FA81F15368022298479F
:105738007068A16B02224368D5F8580191FAA1F16B
:10574800B1FA81F1406800689847FEBD21AD0000BC
:1057580056A9000003AD0000D00100101CAD0000E8
:1057680008AD00002DE9F047A4B003F0D7FD334998
:105778000A78012A04D124B0BDE8F04703F0F4BE4A
:105788004FF0010981F8009003F0EEFEFFF7CAFD23
:10579800082000F031FF21AC204603F011FDDFF8AE
:1057A800A0A0294A10212346DAF80C0022902548A7
:1057B80001F0ACFB2548002501AE0478244890F898
:1057C80000804746A74213D8DAF8000050F827109F
:1057D80021F0FF0046F82700880707D4F8B201F047
:1057E800010103F023FD09FA07F005430137E9E752
:1057F800184805601848C16801F44001B1F5800FE8
:1058080007D10068000E56F8201041F0070146F84D
:1058180020101248A4EB0802042306EB880103EBCE
:10582800820240EA880003F051FF0D4820220168F7
:1058380062F30D21016024B0BDE8F0874E0A002014
:1058480058A90000B0050020F17E0000D3AA00008E
:105858009F980000D0200240A84F00500010084038
:105868000030094010B510EE901A21F00042B2F154
:10587800FF4F06D810EE100A20F00043B3F1FF4F97
:1058880002D930EE200A10BDB1F17E5F03D1BDE828
:105898001040FFF735BA022404EA917444EAD07440
:1058A80063B1B2F1FF4F12D012B1B3F1FF4F18D16B
:1058B800274961F31E0000EE100A10BD022C0FD319
:1058C800032C14BF9FED250A9FED250A10BDB3F1E7
:1058D800FF4F14BF1C481D4800EB840090ED000AE0
:1058E80010BD9A1AD2151A2A03DD9FED190AC40FA2
:1058F8000EE0B1F1FF3FD8BF12F11A0F06DB80EEC0
:10590800200AB0EEC00AFFF7FBF901E09FED110A8B
:10591800002CE5D0022C0DD0012C04BFB1EE400ABA
:1059280010BD9FED0D1A30EE010A9FED0D1A30EEF5
:10593800010A10BD9FED081A30EE010A9FED071A03
:1059480031EE400A10BD00BF38A3000028A30000B4
:10595800DB0FC93F000000002EBDBB33DB0F494001
:10596800DB0F49C0F8B5044603F058FC0746456804
:10597800204603F0ADFBB8B1D7E9014603F0CEFCF1
:105988000546D4F8C000B8B104210174384601F0C6
:1059980083F8D4F8C800B0B1014640690028FBD1AB
:1059A800D4F8C000486112E003F0B8FC0446D5F80A
:1059B800C00078B3103034E03068416821F002014B
:1059C8004160284630E0D4F8C000C4F8C8004169F6
:1059D80000274761C4E93477C4E93677C4F8C010B2
:1059E80031B320463146FEF775FFD4F8C000C4F83D
:1059F800E0700068B0F5806F03D920463146FEF7A5
:105A080069FF94F8FE0010BB3068416841F002015C
:105A180041601CE095F8FB00002102F019FF05F138
:105A2800FC00012101702046BDE8F84003F09CBD50
:105A380094F8FB000021C4F8C47002F009FF0120AB
:105A480084F8FC003068416A21F00301416228466D
:105A580003F08AFD04F13000BDE8F84001F0A6BE6D
:105A68002DE9FC4191EA03084CBF4FF000484FF084
:105A780000084FEAC32545EA52554FEAC2264FEAC5
:105A880043077F0D11BF45F0004500210020BDE808
:105A9800FC815FF4E06E1EF1FF0E774555D04FEAAA
:105AA800C12343EA50534FEAC0224FEA4104640D30
:105AB80011BF43F0004300210020BDE8FC8174457C
:105AC80043D0E419A3FB0501A3FB06E7A2FB066389
