:10000000003801201DF70000B1FF0000B1FF000023
:10001000B1FF0000B1FF0000B1FF0000B1FF000020
:10002000B1FF0000B1FF0000B1FF0000B1FF000010
:0C003000B1FF0000B1FF0000F1890000EA
:10004000F0B00FF041FE239068A8DFF8CCBEDFF8D7
:10005000CCAEDFEDB78ADFF8C86E811D0A30139091
:10006000DFF8C00E1491483015904AAC0020229061
:10007000249000200DF29F1101228DF89F016690BF
:10008000DBF8180066AB10F0F7F9083003D1DBF8A5
:1000900018000FF0A5F86698002800F0EC819DF894
:1000A0009F01229A0D2802D00A2840F08E80002A53
:1000B00000F0DF81002068AC012AA05400F08F809E
:1000C000DFF8641E11F040F9002800F0CF80DFF85F
:1000D0005C1E11F039F9002800F0D280DFF8501EC4
:1000E00011F032F9002800F0DE80DFF8481E11F030
:1000F0002BF9002800F01E81DFF83C1E11F024F9D6
:10010000002800F00881DFF8D41E11F01DF9002846
:1001100000F00181DFF8D01E11F016F9002800F080
:10012000B086DFF8CC1E11F00FF9002800F0A98688
:10013000DFF8C01E11F008F9002800F02B87DFF867
:10014000B81E11F001F9DFF8D86D002800F02887FB
:10015000DFF8A81E11F0F8F8002800F02787DFF874
:10016000A01E11F0F1F8002800F03487DFF8941E8B
:10017000204605220FF0F4FE002800F01C87DFF86F
:10018000881E204605220FF0EBFE002800F01387A2
:10019000DFF8781E204609220FF0E2FE40B1DFF8BA
:1001A000701E204609220FF0DBFE002840F09E80E2
:1001B00022980B2832BF002013980EF019FB012162
:1001C0004AAC8BF80C1000F001BF41B21AB31E2AE2
:1001D00000F2518168A88154013222924BE19DF8CE
:1001E000A001A0F13101032952D944284AAC00F002
:1001F0002081572800F01A815A2808D0642800F07E
:100200001881772800F012817A2840F0328101208D
:100210008BF80B0010E100290FD4A0F13102032A62
:1002200066D9632800F00D81432800F00A81522826
:1002300000F08486229A4228CCD12320ABF8140007
:100240009BF80500002840F014819BF80000002175
:100250002291062840F00F81734610F0C9FC9E469B
:1002600028BF084601210BF077FA04E100200021A5
:100270002290DFF8440E8BF80D100FF025FF55E0AB
:1002800001208BF80D00DFF82C0E0FF01DFF2DE084
:100290004AACDFE801F002E7DBE1012008F07CFE78
:1002A000DFF8280EE3E0DFF8F80DDFF8804DA04717
:1002B00010F014FF0DF062FCDFF8E80DA0479BF88A
:1002C0000D00DFF8E41D0128DFF8E00D08BF084647
:1002D000A0472AA810F0BEFCDFF8D40DA0479DF877
:1002E000A8000DF04BFCDFF8980DA04700201CE0A3
:1002F000DFE812F00400420606063706012008F087
:100300004BFE11F012F810F057FF10F067FCDFF809
:10031000BC0D00F03BBE402007F0EEFADFF8380DD0
:100320000FF0D2FE0020DFF8A86D22904AACA2E0C8
:1003300000007A44DFF8240DDFF8F04CA047DFF826
:10034000200DA04710F0D0FEDFF81C9D0028DFF83C
:10035000148D484618BF4046A047DFF8100DA0474F
:1003600010F0B6FE0021DFF8088D8DF82A1110F08C
:100370001FFD8DF829118DF828014AAE3046A0479F
:10038000DFF8F00CA04710F091FEDFF8EC5CA84716
:10039000DFF8E80CA047172010F0EEFBA847DFF8C5
:1003A000E07C3846A047DFF8DC0C2AA910F0B4F94D
:1003B000DFF8D40CA0472A98A847DFF8D00CA04754
:1003C0002B98A847DFF8C80CA0472C98A8473846B8
:1003D000A047DFF8C00CA04710F092FE0028484666
:1003E000DFF8805C18BF2846A047DFF8AC0CA047B8
:1003F0009BF803000028484618BF2846A047DFF8AE
:100400009C0CA04710F076FE002122918DF88211FD
:1004100010F0CEFC8DF881118DF8800160A8A04706
:100420003846A0473446DFF8A86C24E0DFF88C0C8F
:100430001DE001208BF80C0000202290CBF8240056
:1004400019E00CF063F9DFF8900C10E0032008F0DD
:10045000A3FDDFF8700C0AE0042008F09DFDDFF832
:10046000600C04E0022008F097FDDFF85C0C0FF050
:100470002BFE0020229024984FF47A78002700F178
:100480001009102F00F08E80DFF8F80B60A90DF036
:1004900017FC002800F089809BF80200C00749D0B3
:1004A000002240F2EE218BF80220D6F8B0019AF833
:1004B0004350884228BF1546BBF8140068B9232072
:1004C000ABF814009BF8050038B99BF8000006282B
:1004D00003D1284601210BF03FF9DBF8180048B39F
:1004E0009BF80D00012825D125B39AF84860BAF889
:1004F0004000BAF844C0BAF846300622BBF8621091
:10050000B40602EAE4748DE81300DFF8D02B402132
:100510004AACCDE903C305962AAE2B4630460DF012
:1005200013FF012804DB02460020314610F064FD71
:10053000DFF89C6BBBF81400A0B1BBF814000138C5
:10054000ABF81400BBF8140060B99BF8050048B97B
:100550009BF80000062805D110F04AFB28BF08468A
:100560000BF0FAF8DBF818009BF80D10012915D1F3
:10057000A0B1DDE962019DF88421609B8DE8070050
:100580002AADDFF85C2B382128460DF0DDFE01286E
:1005900004DB02460020294610F02EFD01374FF003
:1005A000C8086EE7CDF8909002E024983844249073
:1005B0009BF80400C0077AD09BF80D00012876D183
:1005C000DDF854A0504610F08DFE00208BF804009A
:1005D000DFF8000B90F8705090ED198A90ED1A9AA0
:1005E000B0F95C70B0F95A40B0F958605046DFF885
:1005F000E4AA0FF011F8DFF8F00ADFF8309AC847E4
:1006000000EE106ADFF8E46A10F0EAFDDFF8E00AB5
:10061000C84700EE104A10F0E3FDDFF8D80AC847DB
:1006200000EE107A10F0DCFDDFF8CC0AC847DFF8E6
:10063000004AB0EE480AA047DFF8C00AC847B0EE4B
:10064000490AA047DFF8B80AC847DFF82C6AC5F3A3
:100650008010B047DFF8AC0AC847DFF8AC7A386ED4
:10066000B047DFF8A80AC84797ED190AA047DFF896
:10067000A00AC84797ED1C0ADFF8984AA047DFF8A0
:10068000980AC84797ED1E0AA047DFF8900AC847A6
:1006900097ED1F0AA047DFF8880A4AACC84797F8C9
:1006A0005000B047DFF8AC09DFF8246AC8470FF004
:1006B0000BFB0746239841F28831381A8842C0F074
:1006C000E28000208DF828018DF868018DF89800EF
:1006D0005AA9204626AA0BF0B9FB00286AD09DF83B
:1006E0006801810727D59BF80000DFF8382A013020
:1006F00000F0070000EB40018BF80000505C0A445A
:10070000517892780EF0B8F89BF80000DFF8181ACC
:10071000085C10F081F910F0E0FBDFF8100A0FF030
:10072000D3FC9BF800000DF029FADFF8040A0FF063
:10073000CBFC9DF86801C1071ED010F0CFFC461C11
:10074000032888BF0126F0B208F026FC452043218B
:1007500047220EF091F810F0C0FBDFF8D8090FF037
:10076000B3FC3046DFF868690DF008FADFF8C0091D
:100770000FF0AAFC9DF8680141070BD501208BF80A
:100780000B000020CBF82400DFF8AC090FF09CFC34
:100790009DF8680180060DD5402007F0ADF8432094
:1007A00041214C220EF068F810F097FBDFF88C091D
:1007B0000FF08AFC9BF8050001280CD19BF80E0075
:1007C00020B101388BF80E00000604D100208BF810
:1007D000050007F083FC9BF80F00411CC0078BF855
:1007E0000F104FD010F06EFC00284BD0BAF840200C
:1007F0009BF82830D6F8B0119BF862409AF8430075
:10080000ADF8AA20DAF844208DF8B03040F2EE239B
:100810008DF8B14099424FF000012B929BF80620D1
:100820004AAC28BF0846DFF8E0188DF8A80091F818
:100830004C00002A8DF8B30091F85000DFF8A4189E
:100840008DF8B400084608BF0BF1200090ED000AB7
:100850009AF84800BDEEC00AC0F3C0008DF8B5009C
:1008600010EE100A8DF8B20091F825008DF8B60050
:1008700091F82600002818BF01208DF8B7002AA89B
:1008800009F090F923979BF80A00C00700F0308226
:10089000DFF8AC58284610F025FD00208BF80A0040
:1008A000DFF840089BED07AA9BED089A9BF80670BD
:1008B0009BF807609BF8089090ED008A90ED01EAA4
:1008C00090ED02FA90ED03DA90ED04CA90ED05BACE
:1008D000BBF8120020909BF80900219028460EF0EA
:1008E0009BFE9BF80D00012840F09881DFF88C08F2
:1008F0000FF0EAFBCDE91E973FB3DFF88408DFF87D
:100900002C47A047DFF80C98B0EE480AC847DFF83C
:100910007408A047B0EE4F0AC847DFF86C08A0473C
:10092000B0EE4E0AC847DFF86408A047B0EE4D0AA3
:10093000C847DFF85C08A047B0EE4C0AC847DFF8AC
:100940005408A047B0EE4B0AC8473EB1DFF828086C
:100950000FF0BAFBB0EE4A0A0BF082FCDFF8380861
:100960000FF0B2FB20980DF009F9219838B1DFF8AB
:100970002C080FF0A9FBB0EE490A0BF071FCDFF870
:100980002008DFF8A866B04710F0A8FBDFF8E8966B
:10099000C847DFF83C079AF84350D0F8B041DFF879
:1009A0000408B04740F2EE2084424FF0000028BF18
:1009B00005462846C847DFF8F007B047BBF8620095
:1009C000C8475AA810F046F9DFF8E007B04730AC46
:1009D00094ED2B0A0BF044FCDFF8D407B04794EDFC
:1009E0002C0A0BF03DFCDFF8CC07B04794ED2D0A44
:1009F000DFF83C76B847DFF8C007B04794ED2E0A21
:100A0000B847DFF8B807B04794ED2F0AB847DFF8CA
:100A1000B007B0479DF86801C847DFF83806B0470F
:100A2000DBF81800002800F0F6809AF84840BAF881
:100A30004000BAF84420BAF846702B460625BBF8A9
:100A40006210A606CDE903270594DFF8902605EA93
:100A5000E6768DE843004AAC4021219320460DF014
:100A600073FC012808DB0246002021462A90DBF8AF
:100A700018002AAB10F046FADFF868661E9D306A4F
:100A800006F1200710B938460EF01AFC05F00100F7
:100A9000DFF8742696F826400AF138010BF1280396
:100AA0000090384608F08CFC6CB196F8260050B9DE
:100AB0009AF84800000706D462208BF82A004FF409
:100AC0009C40ABF8280096F8250096F824509BF837
:100AD000297020909BF82A001E90DBF830001D90B2
:100AE000B06A1C90F06A1B90306B1A90706B199072
:100AF000B06B0EF055FCCDE91710F06B0EF050FC0A
:100B00001690306C8A460EF04BFC0446706C894699
:100B10000EF046FC41EC100B169849EC114B336A71
:100B2000002FDFF8A0264AEC120BDDE917108DED3F
:100B30000E1B8DED100B41EC130B19988DED0C2B4A
:100B40008DED0A3B089008BF4E2720980095802124
:100B5000CDE901071E9803901D9804901C980590FC
:100B60001B9806901A9807902AAC20460DF0ECFBD3
:100B7000219D012808DB0246002021462690DBF853
:100B8000180026AB10F0BEF910F09CFADFF844A56F
:100B90001F9A00283FD0BAF840009BF862108DF8E9
:100BA0009850002AADF89A00BAF844008DF8A110C8
:100BB000DFF85415ADF89C00BAF84600ADF89E0079
:100BC0009BF828008DF8A00091F84C0091F8501087
:100BD0008DF8A3009AF848008DF8A410DFF80415EA
:100BE000C0F3C0008DF8A50018BFB0EE489ABDEE66
:100BF000C90A10EE100A8DF8A20091F8250091F8AC
:100C000026108DF8A600002918BF01218DF8A71025
:100C100026A808F0C7FFDFF8B86468E09BF80D006D
:100C2000DFF8AC64002863D12AAC204610F03AF813
:100C3000DFF80C55DFF8E4233146234605F12C009C
:100C40000090DFF8000504F03BFCDFF8FC04DFF85F
:100C5000DC43A04795F83200DFF81C64B047DFF8AA
:100C6000EC04A047A88EB047DFF8E404A047E88E64
:100C7000B047DFF8E004A047288FB047DFF8D8047A
:100C8000A04795F83A00B047DFF8D004A04795F8A0
:100C90003B10DFF8D004DFF8C824012908BF104654
:100CA0000029DFF8C41408BF0846A047DFF8BC04D9
:100CB000A04795F84400B047DFF8B404A047484681
:100CC000B047DFF8B004DFF80864A047002F18BF72
:100CD000B0EE489AB0EE490A0CF094F8DFF89804A8
:100CE000A047B0EE4A0A0CF08DF8DA48A0474AACAB
:100CF0009BF80B0020B99BF80C00C00700F0B680F1
:100D00009BF80C000021DBF824908BF80B108BF87B
:100D10000C100121C0078BF801101AD0DFF8B404C1
:100D2000C24CA04748460CF029FFDFF8A004A047BA
:100D3000DFF8A404A0476420452150220DF09CFD5B
:100D4000AA480EF0EDFF0EF0B5F848460EF076F822
:100D500019E0DFF87404B54CA04748460CF00EFFCC
:100D6000DFF86804A047DFF86804A04753204C214F
:100D700050220DF081FD9D480EF0D2FF0EF09AF842
:100D800048460FF04BFC964826AE2AAD0EF0C8FF41
:100D90000024202000218DF868415AAA0DF04AFD58
:100DA0008DF8984027462A944AACDBF81800314663
:100DB00001222B460FF060FB10B92A980028F4D1CD
:100DC000884809FB00F60EF07FFF8246B9F1000F5C
:100DD00005D00EF079FFA0EB0A00B04226D21D200C
:100DE0000FF0CAFE68B9FF20002122468DF82801C5
:100DF00020200DF01FFD20B19DF82801C043800682
:100E000014D100200DF19701012223468DF897009F
:100E100007464A90DBF818000FF02EFB08B94A98F5
:100E200020B94CF250300EF07BFFCFE70EF024F8E3
:100E300009F04CFC0CF0BAF809F038FE752050218E
:100E400020220DF019FD9BF80000B749085C0FF057
:100E5000E3FD10F042F8E1488BF801700FF034F92F
:100E6000DF480FF031F9DFF86CA2994E85480FF09A
:100E7000EBFD00283FF4FDA840460EF051FFFFF7C0
:100E8000F8B82AA803F0ACFD00283FF44BAA664846
:100E9000664DA84730AC664E94ED000A10F057FA44
:100EA0006448A84794ED010A10F051FA6248A84737
:100EB00094ED020A10F04BFA9DF8CF005F4900282C
:100EC0005F4818BF0846A8475E48A84794ED000A47
:100ED00010F03DFA5C48A84794ED010A10F037FA8B
:100EE0005A48A84794ED020A10F031FA5848A8472A
:100EF0009DF8CF000CF042FE5648A847FFF712BA03
:100F0000032008F049F810F010FA10F055F90FF02E
:100F100065FE6C483AE000BF9004002068020020A3
:100F200018B70020DC0200207730010011320100E8
:100F300020330100AB330100B03301000020002159
:100F40002290ABF810109BF8050000287FF493AABC
:100F50009BF8000006287FF48CAA00202290FFF75F
:100F600082B9042008F018F810F0DFF910F024F925
:100F70000FF034FE524809E0022008F00DF810F09E
:100F8000D4F910F019F90FF029FE4F480FF09CF832
:100F9000FFF771BA21480EF03AFA2248FFF7C0B9BC
:100FA0001E480FF0AAFB1E48FFF76FB90DF0B2FD07
:100FB0001948FFF76AB92298072832BF0020149811
:100FC0000DF016FC4AAC01218BF80B10CBF8240075
:100FD000FFF74FBA0F48FFF758B900BFFF310100C4
:100FE00090D00300A0860100853001003057050035
:100FF000A53101008731010072310100EB310100A0
:10100000A13301008C33010074330100AF310100C2
:10101000CD310100292D0100B5280100509A002092
:10102000FE2D0100372B01000D2B0100C90001002E
:1010300005CE0000433301003C330100D72B0100F3
:10104000172E0100C02E0100663301002E3301006F
:101050001A320100D0330100A9240100932F0100AE
:101060002F300100C8330100452D0100F832010086
:10107000ED2F0100473201007DDB0000DC30010074
:10108000E033010034A80020D72E0100D731010041
:101090003B3101003E3001006B320100F4300100B1
:1010A000E22A01005B300100C43301000832010074
:1010B00000310100312A01008A2A0100CC2D0100F3
:1010C0007E2D0100642D0100982D0100B22D01003C
:1010D00018B7002068020020892B0100E52D0100CF
:1010E000A62F0100DC020020582F0100D5BE000011
:1010F0006D3301004A330100B93101006232010051
:10110000D83201009B310100F0C00020F032010014
:101110002332010061C20000513301005833010045
:1011200059320100902E0100B0320100E827010081
:10113000D8330100EE2E010048290100042F0100E0
:1011400024060020A0C30020442F01005F330100CB
:10115000F531010050320100C3310100923001002D
:10116000353301000833010091310100E131010004
:10117000E830010035320100003301006930010020
:10118000863301007A33010080330100C832010048
:10119000C0320100B83201002C320100D03201000F
:1011A00074320100E8320100E03201005C310100DC
:1011B0005131010030310100D030010067310100B0
:1011C0004631010063260100B12B0100CC33010040
:1011D0005A2301001C2801002324010016230100CA
:1011E000B92F01000A2070472DE9F84F2DED048B2F
:1011F00096B00025002800F0C4840646DFF8000AF7
:101200000078002800F0BD84DFF8F84976207121CD
:101210000022A047762072210122A0477620742167
:101220005522A04746F2A8100EF07AFD11AC11210C
:1012300020460FF080FD76201D21224611230EF05E
:1012400007F8002800F09C849DF84A109DF849009A
:10125000090141EA00309DF84B1040EA11104103AA
:1012600002D1002500F08CBC9DF847209DF8461067
:101270009DF84830120142EA013141EA1311099107
:101280009DF852100D919DF851100691BDF84C102B
:1012900009BA090C0C910FF011FA9FEDB30B0F96E0
:1012A00081468B4653EC102B0E92109310F08DF864
:1012B0000446DFF84C090F46808A0FF0FFF99FEDD6
:1012C000AC0B05460E460FF0D9FF02460B462046F2
:1012D000394605F09AFA0446DFF824090F46B0F9BA
:1012E00016000EF029FC02460B462046394610F047
:1012F0006CF89FEDA10B80468A464846594653EC50
:10130000102BCDE9072310F060F89FED9D0B0446EC
:101310000F46284631460FF0B1FF02460B463946CC
:101320002046DFF8DC7805F070FA02460B4610F034
:101330004CF8044697F9020010F00CF89FED920B60
:1013400053EC102BCDE90A2310F03FF80FF05CFFAF
:1013500010F03BF802460B464046514605F055FA60
:101360009FED8B0B04460D4653EC102B10F02BF821
:10137000824688460BF0CAFB0F9905900860787882
:10138000012840F06181B7F91A000490B7F92000F4
:101390000EF0D2FB9FED800B55EC107B3A460FF020
:1013A000BBFF0446DFF858080E4690F907000EF020
:1013B000C3FB3A460FF0B0FF0FF07CFF22460FF060
:1013C000B1FF834609980D4600010FF077F90246F8
:1013D0000B460446099089460FF0F7FF5A462B4604
:1013E00006460F460FF0F1FF05468B46304639465C
:1013F00022464B460FF0E9FF0646DFF804080F4689
:1014000090F908000EF098FB9FED650B0FF036FF8A
:1014100002460B46304639460FF0D7FF2A465B4658
:1014200005F0F3F9CDE9071004980EF085FB9FED68
:101430005E0B0FF023FF0FF0BBFD0446DFF8C00783
:101440000D46008B0FF03AF99FED590B0FF016FF88
:101450000FF028FF0446DFF8A8070D4690F90300B7
:101460000EF06AFB9FED540B0FF008FF0FF0A0FD8C
:101470000FF09EFD0FF0C8FE05F0C7F90546DFF836
:1014800080070F4690F904000EF056FB9FED4C0BC1
:101490000FF0F4FE0FF08CFD0FF08AFD0FF088FDC9
:1014A00002460B462846394605F0AFF9CDE9031050
:1014B000DFF84C07C08B0FF001F99FED430B0FF0E5
:1014C00062FE05F0A2F99FED420B0FF0D7FE0FF080
:1014D0006FFD0646DFF828070F46808B0FF0EEF809
:1014E0002A46234605F091F99FED3B0B0FF0C6FE0F
:1014F00002460B4639463046DFF8047705F085F999
:10150000054697F905000E460EF016FB9FED340BCD
:101510000FF0B4FE0FF04CFD0FF04AFD2A460FF01D
:1015200001FF834697F906000FF014FF9FED2E0B85
:101530000FF0A4FE0FF03CFD0FF03AFD0FF038FD68
:101540005A462B4605F061F9099A4B460FF03DFFCC
:1015500002460B46DDE9031005F057F902460B463B
:10156000DDE9071074E100BF000000000000103F3B
:1015700000000000000050BF000000000000E03E3E
:1015800000000000000020BF00000000000030400C
:10159000000000000000B440000000000000F03C2B
:1015A000000000000000E03B000000000000903F51
:1015B0000000000000002040000000000000703F1C
:1015C000000000000000003F000000000000D0C04C
:1015D000000000000000203E000000000000B03EBF
:1015E000000000000000F03D000000000000A03DF1
:1015F000000000000000E03F000000000040EFC0DD
:10160000000000000000C03E000000000000F03FAD
:101610000000000000000000000000000000D03FBB
:10162000000000000000F04000000000000030BF9B
:10163000000000000000304100000000006AB840D7
:10164000000000000000003E1FED170B2046294659
:101650000FF014FE1FED180B0FF01CFE054697F956
:1016600009008B460EF068FA0FF0BAFC0FF0B8FCD8
:101670000E9A109B0FF0A9FE0446B7F924000E46FF
:101680000EF05AFA2A465B460FF09FFE22460FF0F4
:1016900049FE1FED250B0FF0F1FD1FED370B53EC4D
:1016A000102BCDE903230FF090FE1FED290B0FF057
:1016B000F1FD0446788C0E460FF000F802460B460A
:1016C000204631460FF081FE1FED2F8B81460C46E0
:1016D00053EC182B0AF084FC002840F0BD80B7F9C9
:1016E00028000EF029FA0FF07BFC01940446DFF885
:1016F00010050F4690F90B000EF01EFADDE90723E6
:101700000FF063FE0646CDF808A0C246884628467C
:1017100059462A465B460FF058FE324643460FF0C4
:1017200054FE05460E462046394622463B4605F005
:101730006CF82A460FF0F6FD1FED490B0FF09EFDE9
:101740000446DFF8BC040D46B0F926000EF0F4F9AB
:101750001FED4D0B0FF092FD0FF0A4FD1FED4E0B92
:101760000FF08CFD044609980FF0D9FD1FED500BCA
:1017700002460B4651EC100B05F042F80FF092FDBB
:101780001FED530B0FF07AFD019B4A460FF01BFE35
:101790000646DFF86C048846B0F92C000EF0CCF950
:1017A0000FF024FC0FF022FC1FED5B0B0FF066FD29
:1017B0001FED7F0B83468946304641460FF05EFDA4
:1017C00002460B4604460D460FF0FFFD0FF01CFDD0
:1017D0000FF0FBFD0446DFF828040D46007B0EF0F9
:1017E0006DFFDDE907230FF0F0FD22460FF094FDB9
:1017F0000546DFF80C040F46B0F92A000EF09CF9FC
:10180000DDE903230FF0E1FD324643460FF0DDFD35
:101810005A464B4604F0F9FF3B462A46DFF8E07390
:1018200004F0F3FF044697F90A000FF093FD9FEDD3
:10183000DE0B0FF023FD0FF035FD9FEDDD0B0FF0FC
:101840001DFD0B464146D046DDF808A00246304655
:1018500004F0DBFF41EC180B9FEDD90B51EC180B9A
:1018600053EC102BCDE908320FF0ADFD0BF04EF923
:101870000F9E706097F90D000EF05EF99FEDC40B9E
:101880000FF0FCFC0FF094FB0446388E0FF047FD80
:10189000DDE90A230FF099FD0FF004FD04460C98D2
:1018A0000FF03DFD22462B4604F0AAFFB9460C90EE
:1018B0000F4699F90E000EF03FF9DDF838B0109B95
:1018C0005A460FF082FD0FF0F5FC9FEDB30B0FF0C1
:1018D000E1FC044699F90F000FF03CFD9FEDB60BBB
:1018E0000FF0CCFC0FF064FB0FF0E4FC0FF0DAFC1F
:1018F0000446B9F82E000FF012FD9FEDB30B0FF068
:10190000BDFC22460FF008FD02460C980B463946F6
:101910000FF05BFD044699F810000F460EF0CEFE66
:10192000109B5A460FF051FD834699F911000FF0B4
:1019300011FD9FEDA70B0FF0A1FC0FF0BBFC5A4669
:101940002B4604F062FF22463B460FF03EFD224646
:101950003B460FF03AFD22463B4604F056FF9FED12
:10196000900B83460F4655EC104B22462B460AF04F
:1019700044FB00281CBF2F46A346099C089D5846DF
:10198000394622462B460AF05FFB00281CBF2F4633
:10199000A346584639460BF0B9F8B0600D9908EEE9
:1019A000100A99ED0D9A880620D4BBEE0E1A059800
:1019B0009FED972AB7EE003A38EE011A01EE023A8F
:1019C00000EE100ABBEE051A30EE010A9FED911AE7
:1019D00000EE013A9FED900A29EE039AB4EE409A88
:1019E000F1EE10FA48BFB0EE409A4AE0069801F0D6
:1019F0000F084FEA911A8600814890F912000EF004
:101A00009BF89FED750B0FF039FC9FED750B0FF0F8
:101A100041FC02467C480B4600EBC8000FF0CEFAB2
:101A200004467A480D4622462B4600EBC8000FF0CC
:101A3000C5FA804606EB0A008946A0F500700EF054
:101A40007BF80FF0E1FB04F0E0FE02460B46404657
:101A500049460F9E0FF0B7FC9FED630B80468A4608
:101A60000FF091FB0AF0F0FA58B1404651462A4671
:101A700023460FF0A8FC0BF049F8614909EE100A63
:101A800048639FED5B0B5846394686ED039A0FF08D
:101A90007AFB0AF0CCFA58B19FED570B58463946FD
:101AA00053EC102B0AF0B6FA10B1B3EE090A17E0A6
:101AB000584639462A4623460AF09FFA40B19FED20
:101AC000580AB3EE091A38EE000A30EE010A07E0B0
:101AD0009FED520AB3EE091A38EE000A31EE400AC1
:101AE0009FED501A9FED502AB6EE083A89EE011A82
:101AF00021EE021A21EE031A9FED4C3AB4EE431A7E
:101B0000F1EE10FAC8BFB0EE431AB5EE401A9FEDE1
:101B1000483AF1EE10FAB5EE400A48BFB0EE431A6B
:101B2000F1EE10FA48BFB0EE430A31EE000AB1EE12
:101B3000041A32EE400A9FED412A20EE010A9FED81
:101B40003D1AB5EE400AF1EE10FA48BFB0EE430A76
:101B5000B4EE410A9FED3B3AF1EE10FAC8BFB0EE89
:101B6000410A9FED351A86ED040A012500EE012A8F
:101B70009FED331A00EE013A86ED062A86ED053A0E
:101B80003577284616B0BDEC048B01B0BDE8F08F68
:101B9000000000000000E03F000000000000F03FF7
:101BA0000000000000000000000000000000604095
:101BB000000000000000B03F000000000000B03E48
:101BC0000000000000005940000000000000D03E6E
:101BD000000000000000A03E0000000000001440D3
:101BE0000000000000F094400000000000408F4022
:101BF00000000000000043400000000000004540DD
:101C00006407002051F70000D8200100582101008E
:101C1000A69BC4BB6F1203BC0000FA44000028C29C
:101C2000000018C2000048420000C842000096426E
:101C3000000000000000FA430AD7233CCDCC4C3D05
:101C4000CDCC4C400000C8432DE9F04FADF5077DE9
:101C5000D0F8009006469B461546869148460FF000
:101C60005FF94FF0000A09EB00044FF0FF30002746
:101C7000CDF814A2A14580F0C580A04609F1010469
:101C80008DF810A28390CDE981AA14F8010C0028E8
:101C900000F0B880252805D029463460D8470134A3
:101CA0000137F2E73460859781AC3146204600F079
:101CB000AEF82046314686AA00F0CAF830680278AD
:101CC000411C7A2A2AD0682A44461CD06A2A09D0A4
:101CD0006C2A0FD0742A09D04C2A2CD1819840F05C
:101CE000800025E0819840F4006021E0819840F474
:101CF00000501DE00146819A11F8013F6C2B12D172
:101D000042F4807107E00146819A11F8013F682B87
:101D10000CD142F40071819102300BE0819844466D
:101D200040F4805004E042F0400001E042F0200026
:101D300081900846027800F10109732A8DF810227B
:101D4000C6F800901FD06E2A2AD1819843F66071A0
:101D50000840411E80EA01028A420ED990FAA0F0A2
:101D6000B0FA80F0411F082907D8F817DFE801F022
:101D700044050539400539050500869850F8041BCF
:101D80000F60869026E09DF8040240061AD4CDF834
:101D900000B081A886AA294685AB00F01CF919E09D
:101DA0000DF1060881A986AA404600F069F9909BCA
:101DB0000246404629469847411C18BF3844859042
:101DC000074608E0CDF800B081A886AA294685AB71
:101DD00000F09CF8859F781C4FF0FF307FF44AAFED
:101DE0000EE0869951F8042BC2E900708691F1E764
:101DF000869802C80F70C4E7869802C80F80C0E7B3
:101E00004FF0FF3738460DF5077DBDE8F08F10B570
:101E10000A680124E30708BF10BD1378302B0CD0EB
:101E2000232B0CD02B2B0CD02D2B04D00024202BBB
:101E3000F0D1042306E0012304E0102302E008238C
:101E400000E00223046801320A6023430360E0E7F4
:101E5000FEB50446086816460D4603782A2B11D1B4
:101E60003068011D31600068B0F1FF3F606005DC43
:101E700040426060206840F0010020602868471CF4
:101E80002F6017E000210DF10202303B4718092BAB
:101E900006D87B1C2B60435C53547B780131F4E7FC
:101EA000002050549DF8020020B10DF102000CF00A
:101EB0009FFC606038782E2827D1781C28607A78BB
:101EC0002A2A08D13068011D31600068A0602868A6
:101ED00001302860FEBD00200DF10201303A092AD0
:101EE00007D83A18931C2B60537892780B54013022
:101EF000F4E700220A549DF8020028B10DF1020017
:101F00000CF076FCA060FEBDA260FEBD2DE9FE4F88
:101F1000054610680C46011D116007680C9AD7B37E
:101F2000AE6898469146002E04D438460EF0B0FFB5
:101F3000864203D338460EF0ABFF0646D5F804A020
:101F4000B3460195B245C8BFD346D8F80000CDF8D6
:101F500008805844C8F800000FDD01980078C007D9
:101F60000BD1ABEB06054FF00008A84505DA2020A1
:101F70002146C84708F10108F7E7DDF80880002589
:101F8000B5420EDA57F82500B0F5807F19D2214608
:101F9000C8470135F4E70020214603B0BDE8F04F03
:101FA0001047B24515DD01980078C00711D0ABEBA2
:101FB00006050026AE420CDA20202146C84701362D
:101FC000F8E74FF0FF30C8F800000FF083F9582110
:101FD0000160BDE8FE8F2DE9F84F054610680C46FC
:101FE000011D116006680A9AC6B3AF689B46904609
:101FF000002F04D430460EF093FF874203D33046BF
:102000000EF08EFF0746D5F804A0B9460095BA45F4
:10201000C8BFD146DBF800004844CBF800000DDD16
:1020200000980078C00709D1A9EB070B00255D4592
:1020300004DA20202146C0470135F8E70025BD42DB
:1020400004DA705D2146C0470135F8E7BA4503DD83
:1020500000980078C00706D1BDE8F88F002021461F
:10206000BDE8F84F1047A9EB07050026AE42F3DAAA
:1020700020202146C0470136F8E700BF00BF00BF5F
:102080002DE9FE4F164600278B46D1F8048040F21A
:10209000FD112022044601970EF048FE04F5FE7063
:1020A00084F8FD7102909BF80C00A0F161011729E2
:1020B00029D80122BA4B8A401A4209D001A902AAA2
:1020C0005846334600F070F900274FF0000991E0C0
:1020D00012F0710F25D1022915D130680027011D9A
:1020E0003160006884F8FC01C0B2DBF80010B0FA7F
:1020F00080F04FEA501921F00201CBF8001004F2F1
:10210000FB11029176E0A0F14501032909D32528AE
:1021100000F08A80412804D05828CFD04FF0000921
:102120006AE03068073020F0070000F108013160F4
:1021300090ED000B9BF80C5056EC107BA5F17B0941
:10214000384631463A4633460DF0C4FB002840F08D
:102150000C8194499FED900B26F00040414053ECD8
:10216000102B394315D003F000414FF0000908440B
:1021700040EC107BF70FA5F14100062829D9A5F105
:102180006100062836D8DFE800F02A353535DCD77F
:10219000D2006E20314619F11A0F38BF4E2084F854
:1021A000FB014FF0660038BF462084F8FC014FF079
:1021B000690038BF492084F8FA0104F5FC700290E8
:1021C000384609F01AFF78B12D204FF00009042796
:1021D0000EE0DFE800F0040F0F0FB6B1AC0002A96B
:1021E000584603F021F870E72B204FF00009032731
:1021F00084F8F9019BF80C00A0F16F014FF0010A7F
:10220000092905D80AFA01F140F24322114221D1ED
:1022100058281FD06FB1012F1CD101200190DBF88D
:10222000000000F002000CE0252020800120BDE825
:10223000FE8FDBF80010019A01F00200002A00F086
:10224000858002992D22B0FA80F04FEA501A01F8E9
:10225000012902919BF8000004EB08072646C007FD
:10226000029809D104F2FD11DBF804202646091A70
:102270009142DCBF791A4E1C411C304600224FF4BB
:10228000FF7300250EF009F9B9F1000F02901CBF91
:1022900000F8015B0290B84207D8391A01382022B1
:1022A00001310EF043FD002038709BF80000C0069D
:1022B00005D4311B204620220EF038FD31E0A64225
:1022C0002FD0311B2046302230250EF02FFD0198F3
:1022D000B0FA80F0400900EA0A00012805D19BF815
:1022E0000000400701D4204605E03178204600F880
:1022F000011B06F8015B9BF80C1041290DD05829F1
:1023000005D0612909D0782901D0702909D19BF81D
:102310000020120701D4612903D171784170302067
:10232000707020460EF0FCFD4844BDE8FE8F02A907
:10233000584603F089FCC8E602A958460BF0A0FBFA
:10234000C3E602A9584605F027FABEE628B94807B1
:102350007FF580AF0298202103E002982B214FF0F7
:10236000000A00F80119029074E7612019F11A0FB0
:1023700038BF412084F8FB014FF000094FF06E0098
:1023800038BF4E2084F8FC0184F8FA01022704F2D9
:10239000F91002902EE700BF0000000000000000CE
:1023A00008C190000000F07FF8B50546806814462B
:1023B0000F46B0F1FF3F04DD286820F010002860D0
:1023C00001E00120A860287B1026582807D0782833
:1023D00005D0702803D06F2814BF0A260826284687
:1023E000194600F053F8AA684AB950EA010206D12A
:1023F0002878000749D52B7B0020002112E02B7B99
:10240000642B04D16423B1F1FF3F05DD0AE0692BA1
:1024100008D1002906D5692301223A6000224042F2
:1024200062EB01013246009400F0ACF83021AA685A
:10243000904205DA22680130531E23601170F6E7DE
:10244000287B582818BF782810D1297809070FD57C
:1024500021684A1E2260702808BF78200870206812
:10246000411E216030210170287B01E07028ECD0F2
:102470006F280AD12878000707D5206841783029CD
:1024800003D0411E216030210170F8BD10B5027BE0
:10249000702A2BD0006843F660731840431E80EA10
:1024A00003049C420DD990FAA0F0B0FA80F00538F0
:1024B000082806D8DFE800F04D050520390520057D
:1024C0000500A2F1640014280ED8012303FA00F0DD
:1024D0002B4B18420AD110F0210F05D00868021DBD
:1024E0000A600068C11710BD582A46D10868021D4D
:1024F0000A600068002110BDA2F16400142808D809
:10250000012303FA00F01E4B184204D110F0210FF2
:1025100001D1582A31D10868073020F0070000F1B6
:1025200008020A60D0E9000110BDA2F1640014287D
:1025300008D8012303FA00F0114B184204D110F01F
:10254000210FCBD1582A18D10868021D0A600078E3
:10255000D0E7A2F16400142808D8012303FA00F0A0
:10256000074B184204D110F0210FB7D1582A04D1DB
:102570000868021D0A600088BCE70020BAE700BFB7
:1025800000081200F8B505461148124E582B069F58
:10259000144608BF064655EA010011D13868421EAC
:1025A0003A60302202700BE02846224600F014F810
:1025B0003A68531E3B6000FB14530546F35C1370EE
:1025C00055EA0100F0D138680EF0AAFC0138F8BDD8
:1025D000CB2F0100DC2F0100102A06D0082A09D1D8
:1025E000C00840EA4170C9087047000940EA01701C
:1025F0000909704719B9B0FBF2F00021704780B5A6
:1026000000230EF077FB80BD2DE9F84F2DED068BF2
:10261000ADF5496D0026002800F0AC830F46002977
:1026200000F0A8839346002A00F0A48397ED038A64
:102630008146B5EE408AF1EE10FA1DD8B7F90610C2
:10264000B7F90400B7F9082001EE101A00EE100ADD
:10265000B8EEC11AB8EEC00A21EE011A00EE001A57
:1026600000EE102AB8EEC00A00EE001AB1EEC10A60
:102670009FEDB01A80EE018A386839462022039017
:10268000B9F8A40C09EB401024300EF0B1FEB9F8F3
:10269000A43C642009F61C585E1CB6FBF0F101FB5B
:1026A0001064B9F8A61CA9F8A44C63299CBF013199
:1026B000A9F8A61CB9F8A80C00F1010A09F61850EF
:1026C0000290D9F8180DA9F8A8AC48B999F83D2D91
:1026D00032B9D9F8542D1AB9DFF81428002515702D
:1026E00089B29FED950AB0EE481AB0EE482A0C293F
:1026F00028BF0C216422B6FBF2F54FF448667543FF
:1027000004F16306C5EB43138C4D4B4403F54B6357
:1027100021B3B6FBF2F4B0EE414AB0EE425A04FBEC
:10272000053494ED003AB4EE413AF1EE10FAB4EE0D
:10273000423AC8BFB0EE434AF1EE10FAB4EE403A66
:1027400048BFB0EE435AF1EE10FAC4BFB0EE452ACE
:10275000B0EE441A0139013E203BD9E731EE420A7E
:1027600098ED092A9FED763AB7EE001A0EF01FFD9C
:1027700001D5039C1DE09FED733A039C0EF017FDFD
:1027800017DCB6EE081AB4EE418AF1EE10FAC0F288
:10279000CD80B7EE041AB4EE418AF1EE10FA00F2E1
:1027A000C5809FED691A9FED693A28EE011A02EE85
:1027B000031A88ED091A9FED662AB4EE420AF1EE7B
:1027C00010FA02D59FED639A18E09FED633A38EE58
:1027D000411A9FED624A21EE039AB0EEC11A9FEDB5
:1027E0005D3AB4EE441AF1EE10FA48BFB0EE439AE7
:1027F00098ED0A1A9FED5A3A01EE039A0021B4EEC1
:10280000420A88ED0A9AF1EE10FA89F83C1D27DA9F
:10281000C8E90B11012089F8500DD9F8540D002892
:102820006CD0201AB0F5C86F09D9DFF8C4160020A3
:1028300089F83D0DC8F81000C8E90000087099F843
:10284000F20CE0B1D9F8FC0C40F6B831201A8842FD
:10285000C0F0B78148460DF050FFB9F8A8ACB0E120
:1028600099F8501D01294DD198ED0B0AB4EE409A0C
:10287000F1EE10FA40F3908088ED0B9ACDE799F8CD
:10288000F00C052800F21481DFE810F006001B01AF
:10289000140112013E015D019FED2F0A0EF0AAFC0A
:1028A00040F15D8199F8F30C013089F8F30C000ACE
:1028B00040F08781012009F54E63B7F90610B7F99A
:1028C0000820C9F8F44C89F8F00C0020986189F8C8
:1028D000F30CB7F9040001EE101A02EE102AB8EE5C
:1028E000C11AB8EEC22A00EE100A83ED011A83ED78
:1028F000022AB8EEC00A83ED000A62E1B4F5C86F9F
:1029000093D89CE798ED0C0AB4EE409A9FED150A17
:10291000F1EE10FA48BF88ED0C9AB4EE409AF1EE51
:1029200010FAFFF67AAF88ED0B9A73E7B0EE421A11
:1029300041E700BF00007A44CDCCCC3D80F3FFFFDF
:102940003333333F6666A63F8FC2753DD7A3703FD2
:10295000295C0F3E000000006666263FEC51383DC2
:102960003333B33E8FC2753C0AD7A33D8FC2F5BC4B
:1029700000606A47000070428FC2F53DC3F51C41FC
:102980006666E63ECDCCCC3ECDCC8C3F3333D33FD8
:10299000295C8F3E333303401FED0D1A0EF002FC0D
:1029A000FFF63BAF1FED0F1AB4EE419AF1EE10FAAD
:1029B0003FF633AFD9F8542D40F20463A11A002A30
:1029C00008BF40F6C411A1F582729A4200F2E1807C
:1029D000DFF81C6501223378002B00F00A8201EE3B
:1029E000101A012B04BF022232701FED232A1FEDA3
:1029F000264A40F201131044C9F8544DC9F8584D05
:102A000030EE490AB8EE41AA1FED271A98ED003AB8
:102A1000A9F83C3DC9F8180D81EE0A1A21EE022AE8
:102A200003EE042AB2EE044A0EF0CBFBC8BFB0EEB0
:102A3000421A1FED302A88ED001A81EE022A1FED9E
:102A4000321A0EF0AFFB88ED012A48BFB0EE410A02
:102A50001FED361A20EE010AB1EEC01AB1EEC10A1E
:102A6000B4EE400AF1EE10FA80F13B821FED3C1A01
:102A700020EE010A1FED3D1A0EF094FB48BFB0EEA8
:102A8000410A1FED3F1A0EF08DFBC8BFB0EE410AA0
:102A9000307888ED020A022840F0B181029800687F
:102AA000022818BF012001EE100AB8EE411AA8E171
:102AB000002003E00020A9F8040D042089F8F00CA0
:102AC0007FE009F54E61D9F8F40C91ED060AB4EEF9
:102AD000408A1FED520AF1EE10FAC4BF09F54E61AB
:102AE00081ED068A201A0EF085FB30DBB0F5617FA0
:102AF0002DD80120C9F8FC4CA9F8140D0020A9F824
:102B0000040D4FF482701BE0BFEE000A1FED601A47
:102B1000B9F8040D38EE000AB0EEC00A0EF042FB20
:102B200026D50130B9F81810A9F8040D80B28842F2
:102B300047D30120C9F8FC4C89F8F20C40F205207B
:102B4000A9F8F00C3DE0012089F8F20C39E040F2E0
:102B5000B731884224BF0020A9F8F00C31E01FED06
:102B6000730A0EF047FB1EDA002089F8F30C28E008
:102B700010B10138A9F8040DB9F8140D0130A9F805
:102B8000140D80B21E2824BF4FF44070A9F8F00C39
:102B900017E0B1F5E16F40F24981D5480121C9F84C
:102BA000544D017042E109F54E6080ED068A4FF404
:102BB0008270A9F8F00C0120A9F8140D0020A9F8E2
:102BC000040D1FFA8AF0322824D3B9F8A60C002687
:102BD00009F54E6A6428C0F09280B9F8A47CCDF85B
:102BE00004A0AA46A9F8A86C4FF0640804AD09EB4C
:102BF000471000F12404B6F5486F0FD0B7FBF8F08A
:102C0000202200FB0A41A8190EF0F2FB2036013702
:102C10002034F0E7002609F54E6A70E0DDF804A0E4
:102C200004A864210AF1840202F094FD99F8DC1CE6
:102C300099F8DD0C9AED212A9AED221A9AED230AD1
:102C4000B6EE083A4A1C01EB410109EB810102F0A2
:102C50000302042801F6AC4189F8DC2C81ED002A3E
:102C600081ED011A81ED020A3CBF013089F8DD0CCB
:102C70009AED2E4A039CB4EE434AF1EE10FA35DA8F
:102C800099F8EC0C9AED2D3A02287BD0012818D047
:102C9000002840F091809FED9D5A0EF09CFAC0F202
:102CA000A2809FED9B4A0EF08CFAC0F29C8099F8AE
:102CB000EF0C012840F0C3800EF001F9022877D212
:102CC000C1E09FED8C5A0EF086FA79DB9FED8B5AAE
:102CD000B4EE453AF1EE10FA72DB99F8EF0C0228E7
:102CE00040F0A8800EF0EBF8022804D30EF0E6FACC
:102CF000022089F8EC0C0020012689F8ED0C0BF17C
:102D0000080009F6645144228BF80460CBF80040B7
:102D10000EF06EFBB9F8EC0C9FED811AABF84C008D
:102D200099F8F00C99F8F11C99F8F22C8BF84E10E8
:102D30008BF850208BF84F0002992822DAF81800FF
:102D4000CBF85400B9F8040D00EE100AB8EE400AB2
:102D500020EE010A8BED170ADAF82000CBF85800B4
:102D60000BF160000EF044FB09F65C5059468822D6
:102D70000EF03EFB30460DF5496DBDEC068B01B003
:102D8000BDE8F08F9FED5E0AB4EE404AF1EE10FA16
:102D900006D49FED5C0AB4EE403AF1EE10FA1FD56E
:102DA00099F8EF0C012821D10EF089F80328A2D35D
:102DB0000EF084FA01209CE7002089F8EC0C42E038
:102DC0009FED4D5A0EF007FA0AD59FED4F4A0EF0CF
:102DD000F8F905D599F8EF0C00287AD001202BE0FE
:102DE0000EF06CFA87E70EF069FA2CE040F2011061
:102DF00022E0C9F8544DC9F8584D327016E0B7EECC
:102E0000001A98ED032A0020C8F81C00C8F8140026
:102E100000EE012A9FED351A8AEE011A88ED062A86
:102E200088ED032A80EE010A88ED040A88ED0C9AE9
:102E30000020F0E440F20120A9F8EE0C5BE740F23C
:102E40000110A9F8EE0C9FED333AB0EEC22AB4EEB1
:102E5000431AF1EE10FA0EDD9FED2F4AB4EE442A2C
:102E6000F1EE10FA07D5B0EEC05AB4EE445AF1EEC6
:102E700010FA3FF540AFB4EE430AB0EEC11AF1EEDE
:102E800010FA08DD9FED244AB4EE441AF1EE10FA70
:102E900001D5012030E79FED214AB4EE440AF1EE5E
:102EA00010FA08D59FED1C0AB4EE401AF1EE10FAA4
:102EB00001D5022020E70EF07AF908DD9FED160A11
:102EC000B4EE401AF1EE10FA01D5032014E7042005
:102ED00012E70DF0F4FF0428FFF40DAF0EF0EEF949
:102EE0006BE7B0EE410A08F0D3FCBFE500007A447E
:102EF000DC0800206666263F8FC2F53D295C8F3EC8
:102F0000CDCC0C3FAE47613E295C0F3DEC51383EC5
:102F1000CDCC4C3D000016440000FA43000016C41E
:102F20000AD7233C2DE9FC470027002800F06A82DD
:102F3000DDF828A0BAF1000F00F064829146054642
:102F4000D0E96C20571C461C95F82022C5E96C7608
:102F5000CBB1002742F0200051461C2285F81B729D
:102F6000C5F8B071C5F8A471AAF80A7085F82002F6
:102F70008AF8100005F50970CAE905778AF800702B
:102F80000EF036FA3EE240F2EE2302F0DF029F42FC
:102F900085F820220AD3002342F0100285F81B3264
:102FA000A5F82E32C5F8A43185F8202210B3DFF839
:102FB0006C24137802EB83067160591C0526CBB292
:102FC000B3FBF6F303EB8303C91A0123117000214D
:102FD000062B04D052F8236001333144F8E7052270
:102FE00091FBF2F1E8B900200D280CD045F8201033
:102FF0000130F9E7DFF824340122062AD7D043F85C
:1030000022100132F9E701EBC100102382006A634C
:10301000312B03D045F823200133F9E7C001C5F86F
:10302000C40095F83C2095F8C80045F82210561CBD
:103030006B6BD5F8C4C0AB630D23B6FBF3F707FB8E
:10304000136685F83C6002F10C06B6FBF3F707FB4C
:103050001366171DB7FBF3F455F8266004FB1374D1
:1030600055F82440344402F10D06B6FBF3F707FB94
:103070001366D71CB7FBF3F155F8266001FB1371FB
:1030800055F82110314401EB440102F10B04B4FB6B
:10309000F3F606FB1344561DB6FBF3F755F8244030
:1030A00007FB136655F82660344404EB44042144BE
:1030B00002F10A04B4FBF3F606FB1344961DB6FBBB
:1030C000F3F755F8244007FB136655F8266034449F
:1030D00001EB840102F10904B4FBF3F606FB13448F
:1030E000D61D0832B6FBF3F755F8244007FB1366EC
:1030F00000F1110755F82660344404EB84042144A0
:10310000B2FBF3F404FB1322212355F8222002EB37
:10311000420201EB4201421CB2FBF3F4B7FBF3F3B2
:10312000696344EA441403EB4313121B05F14004A2
:10313000FB1A54F8226054F8233085F8C8208E1BFF
:103140006644C5F8C46044F82010D5F8C400D5F82A
:10315000B411A3EB6013052908D805F1CC000021B8
:10316000052903D040F821300131F9E705F1CC04FD
:1031700005F1D406002717CC16C68AF80070191B73
:10318000C5E93330801A00EB4100C01080FB00011C
:10319000000B40EA015095F8881105EB81020131DE
:1031A000D2F8E440C2F8E400B5F84222CAF804902C
:1031B000B1FBF2F6001BD5F8804106FB121185F831
:1031C000881167F100010019D5F88441C5F8800124
:1031D0006141B5F8FE41CAF814300023C5F88411E6
:1031E000AAF8084095F82E428AF80A4095F82F422E
:1031F0008AF80B40B5F83042AAF80C40B5F83242D4
:10320000AAF80E400DF076FDD5E9631395F820225B
:10321000CAF8180005F50978C5E9630181424FF045
:1032200000008AF8102028BF0120994288BF01279A
:1032300095F8B831012B36D1D5F8B431292B2ED3DE
:10324000D5F8AC01814284BFC5F8AC110846B3F58E
:10325000967F24D3002185F8B811C5F8B01102F08B
:103260007F01B0F5487F6E4A85F82012014698BF6D
:103270004FF448714908904288BF42F21071A1EBA7
:10328000D1029208C80802EBD102B2F5AF7F98BF15
:103290004FF4AF72C5E965105308C5E967230DF017
:1032A0007CFF0027AEE0D5F8B0213840B2F5967F1C
:1032B00021D91923B2FBF3F404FB1323DBB9D5F8AE
:1032C0009431B3F5167F16D9D5F89841A3EBD30303
:1032D000C5F89431A4EBD4041B1BC5F8984104EB4A
:1032E0009303B3F5AF7F98BF4FF4AF73C5F89C312C
:1032F0005B08C5F8A031002853D0B5F8FC315F2039
:103300008D2B0AD303EB83136424B3FBF4F34FF642
:10331000E0741C405F2C88BF1846824216D2D5E963
:10332000650202EBD101A1EBD201401A0A4688BF27
:1033300002EB9002B2F5AF7F98BF4FF4AF72C5E9D0
:10334000661250084FF4D07168502AE0B1F5AF7F93
:103350000BD3D5F89C01814207D300204B460DF0DA
:1033600003FF9AF80000E0B148E0D5E96523D5F8FD
:10337000A40103EBD104A4EBD303D21A1C4688BFEB
:1033800004EB9204B4F5AF7F98BF4FF4AF746208BA
:10339000C5E96634B1F5967FC5F8A02128BF814202
:1033A00034D895F81B02022828D3B5F8FC0128B3BD
:1033B000A62148436421B0FBF1F1D5F8B001884261
:1033C0001CD9D5F8A411B1F5967F17D3D5F8A02153
:1033D000914213D3D5F8A821D5F8B4319F1AC21B56
:1033E000B5F84402824206D30120A9EB87030DF011
:1033F000BBFEC5F8B0710020C5F8A4010DF0CDFEEC
:103400009AF8007007F00100BDE8FC87D5F8B40118
:10341000C5F8A4114FF4D47196E700BFD807002077
:10342000A18601002DE9F84305460C46480413D453
:10343000A00024D4A0075CD460057ED4200500F150
:103440000681200700F13B81600040F1F68009F021
:1034500015FF24F08044F0E00DF098FDDFF81C1417
:103460000F6D3FB1D7E90A1202F0E04201F00A0104
:10347000891849D00DF041FF24F48044DDE0BB48B9
:10348000DFF8FC73016841F080010160B878012821
:1034900004D104200BF0F0FF0020B8700DF076FD91
:1034A000064604200DF0AEFDDFF8D8130A689042FE
:1034B00019D12A7EBAB1FA68AAB1DFF8C003806CCC
:1034C000002800F09780C16840F603020988914205
:1034D00006D0C06840F604010088884240F08A8027
:1034E00005F1140088E040F6C4120860C5E9042222
:1034F00084E004F009FCDFF88403006C002840F04D
:103500009D8024F0020498E0D7E90A65D7E90A1201
:10351000AA43B143C7E90A120DF0EFFEB8680028CC
:10352000AAD056EA0500A7D0D7F808C03869B7F97D
:10353000301032462B46E0479EE70DF027FD05464A
:103540000CF0FAFE002800F0B780CC48876B002F03
:1035500000F0B280DFF828830420CB49002288F8ED
:103560001800C6480DF0E6FA0DF0EBFEC74803F070
:10357000CCFBC7480068006B8047C8F810000125E5
:10358000042088F802500CF05DF9386990F8281092
:10359000C8F80400490703D5436A0421002298476C
:1035A00001200AF069F9D8F80400457607F0A0FE7A
:1035B000D8F8040081680B461A465B684BB11E8838
:1035C000A6F60306072EF7D805FA06F616F0830FBF
:1035D000F2D0537B03F0F003013353730023FD68F3
:1035E00053602D88A5F60305012D00F28A80C8F8E6
:1035F00010309FE005F110000BF094F830460DF00C
:103600007CFE0CF037F978B12E6A28466FF4807191
:1036100000224FF00073B0479848806B10B109F05A
:103620002DFE01E044F00204EE692846002100224C
:103630004FF08063B04724F0005434B197482146DE
:103640002830BDE8F8430DF0B8BEBDE8F8838C4ED5
:10365000B078012804D104200BF00EFF0020B070D8
:103660000CF008F938B170686FF4807100224FF0E7
:103670000073056AA847306950B185480068006B3F
:10368000804732697168801A000BC8600020306181
:103690007A4D8149002228460DF04CFA02203076FE
:1036A000286C20B17D48022128300DF086FE09F0FB
:1036B000E5FD24F40064C0E70DF043FE41E00DF0A9
:1036C00065FC05460CF038FEA0B1DFF8B48198F82F
:1036D000000000070ED498F9000000280AD46846BC
:1036E00007F04CFF08B1009820B1DFF8B49199F8C9
:1036F000610048B30DF025FE09F0C0FD24F0080478
:103700009BE7034633F8385FA5B190F8445090F832
:10371000456005F0F00580F8445006F0F0050135ED
:1037200080F8455000255360C5634587507B00F005
:10373000F000507357480022C261016001200CF074
:103740003DFF24F4806478E700260127602E0FD027
:1037500009EB0600817A31B18772407A07FA00F0EE
:10376000C0B20BF0A3FE2036F0E700BFCC2108402A
:10377000032088F81800454803F0C7FA0DF0E1FD72
:10378000444F3E4D0022786900207861F968F86066
:10379000284644490DF0CEF93D480068006B80474B
:1037A000D8F80C10D8F82020411A02EB1130B0EBF9
:1037B000113F38BF4FF0FF3098F82410C8F82000B0
:1037C00021B1D8F80810B0EBC12F20D90CF006FFBA
:1037D000B8B140F60900414621F83C0F002048806E
:1037E0004A7B02F0F00201324A730A7B02F0F002D7
:1037F0000A734860F8613960B8F83E0010F4406F11
:10380000FAD00020C8F82000012088F824000AF02F
:10381000E5FC254800210160022000210CF0CEFECD
:1038200002200BF029FE102007F00EFC98F8010092
:1038300020B9D8F8040050300DF0BBFD1B4880784B
:1038400010B90D2007F000FC98F8250028B10020E1
:1038500088F8250005200BF00FFE002088F81800DE
:103860001348C8F81C000220B5F85610B5F85420CB
:10387000914208BF072009F081F93DE77C0600204E
:10388000C0030020CC0800201503010054C4002010
:103890008C01001000100440C59600006005002057
:1038A00070C20020E1D2000000000460AC300100D2
:1038B000B59100000CF029B92DE9F04792B00CAD9C
:1038C000182128460DF037FA002476208A212A464E
:1038D0001723CDE90A44CDE90844ADF81C4006940D
:1038E0000BF0B6FC002851D008AA7620E1210E2367
:1038F0000BF0AEFC00284BD006AA76200021052351
:1039000000240BF0A5FC002840D00DF11702762012
:10391000F02101238DF8174001240BF099FC9DF84C
:103920001700022807D0BDF8341046F2A8108142D3
:103930002CBF00240124DFF89893BDF82800A9F8D3
:103940001400BDF8300089F80140A9F816009DF870
:10395000320089F8020014B30D99DDF83A20BDF861
:103960003E3005F11500C9E90621BDF83810A9F867
:103970000330A9F80510BDF84210A9F820109DF8F1
:10398000441089F8071009F108011FE0D04801E050
:10399000CF4800240470204612B0BDE8F0870D998E
:1039A00005F11600C9F822109DF8381089F80910A1
:1039B000DDF83A10C9F82610BDF83E10A9F80A1033
:1039C000DDF84210C9F82A1009F10C0100789DF8C1
:1039D00020209DF821309DF822409DF8235008704A
:1039E0009DF91C10102089F80D50099D91FBF0F0F5
:1039F000C9F80E5089F81200100140EA1310A9F816
:103A00002E0003F00F0040EA0410A9F830009DF9E1
:103A10002C000CF091F89FED8A0B0DF02FFC9FED20
:103A20008A0B0DF037FC0446BDF92A000F460CF056
:103A300083F89FED870B0DF021FC9FED870B0DF0B8
:103A40001DFC9FED870B0DF025FC9FED870B0DF006
:103A500015FC9FED870B58EC106B3246434602F085
:103A6000D4FE02460B46204639460DF0AEFC044615
:103A70009DF92D000D460CF05FF89FED7F0B0DF0CA
:103A8000FDFB9FED7F0B0DF0F9FB22462B4602F06C
:103A9000BCFE05469DF81A0001240F46000964F398
:103AA0009F000CF00BFE9FED780B02460B4651EC8D
:103AB000100B0DF088FC02460B46284639460DF0E7
:103AC00084FC07469DF918000D460CF035F89FED73
:103AD000700B0DF0D3FB3246434602F096FE0246D1
:103AE0000B46304641460DF06EFC02460B4638460A
:103AF00029460DF06AFC9FED680B0DF0CBFB9FEDA6
:103B0000680B0DF0BBFB9FED680B06460D4657ECAE
:103B1000108B42463B4608F070FA9FED650B00287B
:103B20001CBF3D4646463046294657EC108B424660
:103B30003B4608F089FA00281CBF3D464646304601
:103B400029460AF0FDFC634D024676205A21A8471B
:103B5000762064215922A847762071211022A84797
:103B6000762072210122A847762074215522A84789
:103B700059480CF0D5F801AD112128460DF0DBF8BD
:103B800076201D212A4611230BF062FB00284CD021
:103B90009DF811009DF81250800050EA951A44D00B
:103BA00099F912000BF0C8FF9FED430B0DF066FB77
:103BB0009FED430B0DF06EFB0246484805F00F07E2
:103BC0000B4600EBC7000DF0F9F9054644480E46D8
:103BD0002A46334600EBC7000DF0F0F90746AAF578
:103BE000007088460BF0A8FF02460B462846314677
:103BF00002F00BFE02460B46384641460DF0E3FB51
:103C00009FED310B80460E4657EC105B2A463B4633
:103C100008F01AFA48B1404631462A463B460DF0B4
:103C2000D2FB08F073FFC9F834007620712100221E
:103C30000BF08EFD89F80040ADE600BF00BF00BF6D
:103C4000000000000000B03F00000000008048407D
:103C5000000000000000003FFCA9F1D24D62403F8F
:103C600055C1A8A44E40633F00000000000074400E
:103C7000000000000000F03F000000000000503F86
:103C8000000000000000384000000000000010406C
:103C9000FCA9F1D24D62603F00000000000039C075
:103CA0003333333333330B40000000000000000097
:103CB0000000000000E06F40000000000000144021
:103CC0000000000000F094400000000000408F4021
:103CD0006407002051F7000020BF0200D820010037
:103CE00058210100F0B597B00EAC20460DF0CCF98C
:103CF0004FF4E130214614900220ADF83800002046
:103D000003F064FAAA4FAC4EB861AA48B047AB4C76
:103D10002046B047AA48B047AA48B0472046B04717
:103D20000BAC20460CF0D2FF204601210DF0F4F937
:103D3000204601210DF057FBA348214648300BF0E7
:103D400051FCA24821460BF04DFC20460DF049FBEA
:103D50009F48B0470BF012FC132001210DF000F832
:103D60001C2001210CF0FCFF9A4C2046B0479A48D9
:103D7000B04706F0ABFC2046B0479848B04709F082
:103D800015F92046B0479648B04796480CF056FCC7
:103D9000954D0021002228460CF0BAF805F11C00D0
:103DA000002100220CF0B4F82046B0478F48B047FD
:103DB00006F07CFE7220642159220AF05DFD3878FD
:103DC0008B49085C0CF028FE2046B0478948B04774
:103DD000022006F001FA38B1FA200421962232239B
:103DE00007F032FA854800E08348B0478448B0477E
:103DF000FFF762FD844C0028824D204618BF2846FC
:103E0000B0478248B04707F059FC7248B047804835
:103E1000B04701F0E1FD002818BF2C462046B0470E
:103E20007C48B04702F0C8FDA8B17B48B0470DF010
:103E30004FF90021794A8DF8061000F00F010009B2
:103E4000515C105C8DF805108DF8040001A8B04796
:103E50007348B04702E06C480CF036F97148B0473F
:103E600071480CF08DFA5B48B0477048002100247F
:103E700009F0FEFE6E4800210BF030FE6D48002177
:103E800008F09CFD6C48B04707F084FA5A490028B6
:103E900018BF29460846B0470DF12A050DF129063D
:103EA0008DF82B408DF82A408DF829400DF12B0418
:103EB0000DF06EF90DF06CF94B4C20460CF0ACFC9B
:103EC0000028FAD05D480CF0FFF801AC0DF030FA94
:103ED0000DF0CCF90DF07AF9042069460DF0F2F9F5
:103EE000574A09A80DF0E2F918B156480CF0ECF861
:103EF000FEE701AC20460DF072FA53480CF0E4F8EE
:103F00000DF016FA0DF0B2F90DF060F903206946D4
:103F10000DF0D8F94D4A08A80DF0C8F918B14C4871
:103F20000CF0D2F8FEE701AC20460DF058FA4948F3
:103F30000CF0CAF80DF0FCF92046012101250DF026
:103F4000E5F80DF043F9022069460DF0BBF9424A4D
:103F500007A80DF0ABF918B140480CF0B5F8FEE732
:103F600001AC20460DF03BFA3D480CF0ADF80DF0E9
:103F7000DFF90DF07BF90DF029F96946204600952F
:103F80000CF09AFE374A06A80DF090F918B13648A1
:103F90000CF09AF8FEE701A80DF021FA33480CF076
:103FA00093F833480CF090F8002017B0F0BD00BF34
:103FB00090040020A6330100C9000100662401001E
:103FC0009D230100E0230100DC02002024060020E4
:103FD0004727010027330100D12201005E2A01009A
:103FE0005028010034A80020680200209F2601000C
:103FF000B0320100612B01003E320100802F010030
:10400000782901007D32010020300100B62A01002C
:10401000A8290100842801004D300100ED2F010086
:10402000D4330100DA260100B910010018B70020CE
:10403000509A0020A0C30020EA250100B327010008
:10404000815E0000442C01001127010019A000002E
:10405000202C01007D270100F9A00000D7290100D4
:10406000AC25010041000000042A01006C2501007C
:10407000E6280100002800F08781002900F08481F3
:10408000002A00F081812DE9F04FAAB0BF4B0192C8
:10409000BF4A6FF03F074FF040094FF02A0C1C68F1
:1040A00044F080741C60136843F00103136052688D
:1040B000B0F8FE510092002D08BF4FF44875B1F8DA
:1040C00008B0BBF1000F08BF4FF4487BABEB050312
:1040D0009B0193FBF5F313F1400FD8BF3B46402BF8
:1040E000A8BF4B46B0F800821E93B8F1000F08BF7E
:1040F000A846ABEB0804A40194FBF5F414F1400FBF
:10410000D8BF3C46402CA8BF4C461F94D0E9654A16
:10411000002C08BF4FF47A7491F810E05FEA0E7239
:1041200012D48B695B01B3FBF4F3A3F1200C0223DF
:104130009CFBF3F313F13B0FD8BF6FF03A03452B11
:10414000A8BF4523A3F1050C8B89924ECDF880C002
:10415000DFF850C206EB8313322693FBF6F38E4E44
:10416000402BA8BF4B462393CB8906EB83132A260B
:1041700093FBF6F34FEA8A16402BA8BF4B462493D5
:10418000631C96FBF3F616F1400FD8BF3E46402E57
:10419000A8BF4E462696D0E93306801B202690FB0A
:1041A000F6F010F1400FD8BF38464028A8BF484667
:1041B0002590A4EB0A00800190FBF3F0784B10F1FE
:1041C000200FD8BF6FF01F006028A8BF60202038E4
:1041D00022904869400190FBF4F010F14C0FD8BFD9
:1041E0006FF04B003428A8BF34200C302190C87ADF
:1041F0006A4901EB8010232190FBF1F000B210F12D
:10420000400FD8BF38464028A8BF48462890A8008D
:104210000521B0FBF1F0A0EB0B00800190FBF5F065
:1042200010F1400FC8BF074608EB0B00402FA8BF96
:104230004F46002A48BF6FF0200727978001A0EB68
:10424000C51090FBF5F010F1360FD8BF6FF03500B8
:104250004A28A8BF4A205FEA8E614FF0000E4FF057
:10426000300158BFA0F10A0129910EA91EADBEF17F
:10427000100F14D05CF82E6000270C2F06D0DC57EE
:1042800055F82700013700FB0466F6E7B7110C3339
:1042900027EAE67641F82E600EF1010EE7E7424C80
:1042A000DFF808C14FF0000E02A8BEF10C0F14D0C9
:1042B0005CF82E600027102F06D0E55751F8273004
:1042C000013703FB0566F6E7B711103427EAE676F7
:1042D00040F82E600EF1010EE7E7364B344DDFF863
:1042E000D8E04FF0000800279C46052F19D05EF853
:1042F000276000240C2C06D0295750F824200134C4
:1043000002FB0166F6E7B3EBA61FB8BFB311BCEB27
:10431000A61FBEBF6346B8464FEAA61C0C35013740
:10432000E3E71B4840680099401A03D04CF2513132
:10433000884201D340F28C50019C204A5FFA88F1F8
:10434000606084F800801830525C80B26270E2686D
:104350000132E2603022B0FBF2F01022A060ACEB40
:10436000030090FBF2F010F1110FD8BF6FF01000B6
:104370001128A8BF11205230A07011B1206901305E
:1043800020612AB0BDE8F04F704700BFFCED00E0AF
:10439000001000E080F3FFFF80F5FFFF00EEFFFF5D
:1043A000311D0100EC240100F11D0100182901005C
:1043B0002726010001000080302F01009C330100FE
:1043C0002DE9F0412DED0C7B4FF00008002800F0A6
:1043D0006181B34E04463078002800F05B810020F4
:1043E0000821CDE90000684608F034FC804600282A
:1043F00000F050819DF805009DF80410B1EE002AF0
:1044000041EA00220007A74913466FF3DF2348BFA4
:1044100042EA01039DF800009DF8012000EE103AE9
:104420009DF8037096ED019A96ED028AB8EEC01AD7
:1044300096ED030A9DF8023040EA0225120728464D
:1044400011EE020A6FF3DF2048BF45EA010001EEDA
:10445000100A43EA0720B8EEC11A3B07024611EEE4
:10446000029A6FF3DF2248BF40EA010201EE102AF0
:104470009DF80600B8EEC11A9DF8072011EE028AD9
:1044800040EA02231207184628EE081A6FF3DF20CD
:1044900009EE091A48BF43EA0100B17800EE001A9C
:1044A000B1EEC12A9FED801A82EE012A81B396ED0A
:1044B000054A96ED065A96ED073A39EE446A38EE0B
:1044C000457AB0EEC66A0CF00FFDC8BFB0EE476A81
:1044D00030EE437A0CF008FDC8BFB0EE476AB3EE89
:1044E000007AB4EE476AF1EE10FA1AD5BFEE006A10
:1044F0009FED6E7A32EE066AB0EEC66AB4EE476A97
:10450000F1EE10FA0DD59FED6C6A9FED6C7A0CE020
:10451000012186ED059A86ED068A86ED070AB170BF
:1045200015E09FED636A9FED637A28EE068A29EE17
:10453000069A20EE060A05EE078A04EE079A03EEB5
:10454000070A86ED068A86ED059A86ED070A4F383A
:104550009FED5B4A9FED5B5A00B203EE100AB8EE86
:10456000C33A03EE045AB0EEC83A9FED574A84EDC1
:10457000065AB2EE085AB4EE453AF1EE10FA48BFC8
:10458000B0EE448ABDEEC83A13EE100AB0EEC93A56
:10459000B4EE453AE080B3EE005AF1EE10FA48BFAF
:1045A000B0EE449ABDEEC93AB5EE408AB0EE404A4C
:1045B00013EE100AB0EE403AF1EE10FAB5EE409A62
:1045C000A08008BFB0EE413AF1EE10FA08BFB0EE9D
:1045D000434A9FED3E3A30EE033AB0EEC33AB4EEB2
:1045E000453AF1EE10FA48BFB0EE440ABDEEC03ACB
:1045F0009FED2E4A13EE100ABFEE003A32EE033A58
:104600002081B0EEC33AB4EE443AF1EE10FA09DA82
:1046100028EE082A09EE092A00EE002AB1EEC22A85
:1046200082EE012A20EE00AA84ED032AB0EE4A0AA7
:1046300008EE080AF1EEC00AB0EE490A04F0C2FF23
:1046400009EE09AA9FED22BA20EE0BCAB0EE480A85
:10465000F1EECA0A84ED04CA04F0B4FF9FED1D1AFE
:1046600020EE0B0AB0EECC2A84ED050AB0EEC00AAB
:10467000B4EE412AF1EE10FAB4EE410A44BF002034
:104680002061F1EE10FA44BF002060610B2008F0B9
:10469000EDFE20774046BDEC0C7BBDE8F08100BF0D
:1046A0009C07002000F0FFFF00007A448FC2753D98
:1046B0006666E63ECDCC0C3F295C8F3D7B146E3F99
:1046C000B81E853D0000C4410000000000007AC40F
:1046D000E02E6542CDCC8C3F2DE9F84F2DED181B17
:1046E000229D0C4601460020002D00F04081239EB3
:1046F000002E00F03C810846079209930BF01CFA4B
:104700009FEDA10B53EC102B069208930CF05BFE6F
:1047100095ED120B02460B46CDE90A3251EC100B17
:104720000CF053FE054620460E460BF005FA0446F3
:104730000F462846314622463B4602F066F89FED7A
:10474000940B82468B4655EC100B9FED930BEE0FAE
:104750000D90504658EC109B66F3DF714A46434675
:1047600007F04BFC002840F0018122984A4643465E
:1047700090ED080B51EC100B059166F3DF7104907E
:1047800007F03BFC002840F0F1802298DDE90A3276
:1047900090ED140B51EC100B0CF017FE22463B462B
:1047A00002F033F80F4666F3DF714A46434604468B
:1047B00007F023FC002840F0D980DDE90A105246BA
:1047C0005B460C960CF0FFFD9FED750B5AEC10BB91
:1047D0005A4653460CF0F9FDDDF88880039798EDB2
:1047E0000A0B98ED0CBB98ED0E9B98ED108B53ECDB
:1047F000102B02F005F8DDE904230CF0E4FD9FED39
:104800006AAB53EC1A2B02F000F89FED690B05918F
:10481000814653EC102B01F0F8FF02460B46274669
:1048200004460E460CF0D1FD0CF0D4FB0CF0D2FB8C
:10483000CDE90A100998079908440BF07DF99FED1E
:104840005E0B0CF01FFD069A089B0CF0BCFD039B51
:104850003A460CF0B8FD5A4653460CF0B6FD98EDBA
:10486000160BCDE9081051EC1B0B0CF00BFD9FED66
:10487000540BCDE906100599484653EC102BCDE9B1
:10488000043201F0C2FF9FED500B9FED51BB9FED35
:1048900052CBCDE9021051EC180B4FF0030BCDE9D0
:1048A000001059EC108BBBF1000F65D0DDE904322C
:1048B00051EC1A0B01F0A9FF02460B46DDE900108E
:1048C0000CF083FD42464B4601F09FFFDDE90232CA
:1048D00004468A4651EC190B0CF077FD22465346EC
:1048E00001F093FF02460B46DDE906100CF06DFD6A
:1048F00004460C980E4653EC1B2B60F3DF712046E8
:1049000007F0A2FB0746DDE90810224633460CF00B
:104910005AFD02460B46002F08BF2B460D9C08BFD0
:104920002246DDE90A1001F070FF22462B4641ECD9
:10493000180B07F089FBB0B1B0EE480AF0EE680A38
:1049400002F076FE02F074FE53EC1C2B51EC100BBF
:1049500001F05BFF229A92ED180B53EC102B01F043
:104960004FFF41EC1A0BABF1010B9CE70020BDECB3
:10497000181B01B0BDE8F08F51EC1A0B08F0C6F817
:10498000239908600120F2E70000000000002840A1
:1049900000000000000000008DEDB5A0F7C6B03E9D
:1049A000000000000000204100000000000039402D
:1049B0006666666666127140000000000000E03F17
:1049C00000000000000039C0000000000000F03FBF
:1049D00011EA2D819997713D66666666661271C00F
:1049E000AC490246002818BF012009780840012878
:1049F00040F04F812DE9F84F2DED0C3BCDE902023F
:104A00002C2008F033FD01902D2008F02FFDA24C42
:104A100000902D200021A0472C208321A0472D208D
:104A20002221A0474CF250300BF07AF910200026DA
:104A30004FF00008002500283FD0CDE904060020F3
:104A40000621ADF82400089008A808F003F92E46C6
:104A50009DF820A09DF821B09DF822409DF823707C
:104A60009DF825909DF8245042F210700BF058F9F3
:104A700045EA09205FEA0972884B01466FF3DF219E
:104A800048BF40EA030144EA0720751801463A0787
:104A90006FF3DF2148BF40EA03014AEA0B20884454
:104AA0005FEA0B7201466FF3DF2148BF40EA030162
:104AB000DDE904060E440138BDE700EE105A01EEB0
:104AC000108A02EE106A9FED768A039801210BF09E
:104AD00004FF80ED002A80ED011A80ED020A2E20ED
:104AE00009F0B3F94CF250300BF01AF910204FF0E6
:104AF000000B00240026002842D0CDE9040B002042
:104B00000621ADF81C00069006A808F0A3F8B346ED
:104B100026469DF818709DF819509DF81A809DF84A
:104B20001B909DF81DA09DF81C4042F210700BF0E8
:104B3000F7F844EA0A205FEA0A72584B3446014605
:104B40006FF3DF2148BF40EA030148EA09200BEB7D
:104B500001065FEA097201466FF3DF2148BF40EAB0
:104B6000030147EA05200C442A0701466FF3DF21C1
:104B700048BF40EA0301DDE9040B8B440138BAE782
:104B800001EE104A00EE106A02EE10BA039D2E20CC
:104B9000002100240BF0A1FE85ED032A85ED041A07
:104BA00085ED050A09F051F995ED000A95ED033AF6
:104BB00095ED022A95ED055A95ED011A95ED044AF9
:104BC000002000210022002333EE400A9FED353AF9
:104BD00035EE422A34EE411A9FED344A82EE032A22
:104BE00080EE030A81EE031A9FED2F3AB4EE432ABA
:104BF00085ED082A85ED060A85ED071AF1EE10FA13
:104C0000B4EE442A9FED2A2A98BF0120F1EE10FA53
:104C1000A8BF0121B4EE421A9FED262A08400021C8
:104C2000F1EE10FA85F82600A8BF0121B4EE421A71
:104C3000F1EE10FA98BF0122B4EE430A11400022AF
:104C4000F1EE10FAB4EE440A85F8251098BF01225F
:104C5000F1EE10FAA8BF01231A4085F8242018BFEE
:104C6000002900D0044685F827400B4C2D20002158
:104C7000A04701992C20A04700992D20A04744F679
:104C800020600BF04DF80298BDEC0C3B01B0BDE884
:104C9000F04F70479C0700204BDE000000F0FFFF44
:104CA0000000803D00007A4333333340CDCC4C3E8E
:104CB000333333C0CDCC4CBE2DE9FE4F07460868D8
:104CC0000024B0B1D7E9018A0E460CF05FF98146A5
:104CD000D8F8E800082888BF0124B068204202D133
:104CE0007068204208D00320307448460CF005FB61
:104CF00000242046BDE8FE8FD8F8C01069B198F8AE
:104D0000F8100029EFD006213174D8F8C410C8F883
:104D1000C4604E6198F8FC100DE000210522C8E93E
:104D20003066C8E93411C8E9361198F8FC1000293A
:104D300008BF0122327400220129726109D10220C8
:104D40004FF4E02188F8FC0098F8FB000AF062FDBF
:104D5000706889490138884205D804200AF072FD3C
:104D600006200AF06FFD02200AF06CFD98F8F800AA
:104D700040B9DAF83C003168814203D298F8FC006F
:104D800000286CD0D8E9361009B118B900E028B372
:104D90000CF070FADAF80000416941F0010141615C
:104DA00048460CF0AAFA98F8F80008B10124A0E7E8
:104DB00008F16C05D8F8EC1028460CF034FA0028FD
:104DC000F4D0D8F8C00003210174384606F06EFF15
:104DD0002846002100240CF026FA8AE79AF80400FD
:104DE0000CF0D3FA654CDAF810100222206991FA1F
:104DF000A1F1B1FA81F14368D8F8CC0040680068AD
:104E000098472069DAF8141002224368D8F8CC00D9
:104E100091FAA1F1B1FA81F14068006898479AF8D7
:104E200004000BF04BFB9AF804000CF0B0FA0CF005
:104E300021FA0020C8F8E000D8F8C0000068B0F5FA
:104E4000806F01D90CF016FA98F8FE000028A1D165
:104E5000DAF80000416841F0020141609AE798F8F1
:104E6000F90020B1D8F8EC0001307FF48BAF484650
:104E70000CF043FAB2683AB1D8F8E80002210928E8
:104E800038BF0121009103E008F1F40200200090F6
:104E9000746834B1D8F8E8000227092838BF012720
:104EA00002E008F1F6040027DAF80000334D41680B
:104EB00041F002014160D6F800B0D946BBF1000FC5
:104EC00040D0D8F8E800019209284FF0010011D233
:104ED0002A68B9F1000F1FD0C0071DD02178DAF879
:104EE00000009268904700281EBF3C44A9F10109C8
:104EF0000120EDE72A68B9F1000F16D0C00714D0E1
:104F00002188DAF800009268904700281EBF3C44D0
:104F1000A9F101090120EDE7DAF80000D26802A941
:104F20009047DDE90120107007E0DAF80000D26850
:104F300002A99047DDE9012010800098ABF1010B38
:104F40000244BBE7D8F8F000DAF80010CA68024063
:104F5000102802D1002AF9D101E0002AF6D07068A9
:104F60000BF020FAD8F8C0100020C8F8C400C8F828
:104F7000C00008741AE700BFFEFFFF0FC401001055
:104F80002DE9F04F8DB0044600209A4616460F4694
:104F9000CDE90B00CDE909008A488568804607F015
:104FA0009DF91C2803D007F099F91B281BD13088E4
:104FB00040F60201884218BFB0F5C15F03D1F07B13
:104FC000022810D93EE043F6070188420BD196F83B
:104FD0002400032807D330697B4940F0806020F02B
:104FE000604088422ED100206FB366B3387825FA2E
:104FF00000F0C00726D0304600210CF0CAF97348F3
:10500000C4E90176006880B109A800900CA90BAA38
:105010000AAB304603F098FD0B980B214FF6FF7258
:1050200050230BF06BFAFF280CD00BF0AFFF684F4A
:1050300006467878012802D840B1012070E0304659
:105040000CF05BF900200DB0BDE8F08F03F0F0FC30
:1050500060480DF10409016841F0020101605E48F9
:10506000C8F8000048460BF0EBFEDFF870B15D4970
:105070004A469BF801009BF800500390584828309E
:105080000AF0AAF9584859494A460AF0A5F948468B
:105090000BF06EFEDFF85881564A19214B460295F7
:1050A000404609F035FE544A08F11C001A214B46CF
:1050B00009F02EFE514852490CF0F0F8514852497F
:1050C0000CF0ECF85148006810F4402F06D0504A1C
:1050D00007F12800042100230BF0F8F89BF80200E8
:1050E00010B10D2005F0A8FE08F140000BF02DFDD9
:1050F00008F138000BF029FD4649002007223876D8
:10510000B8843862386181F860200521C7E902104F
:105110004149F9613870042000210BF04FFA78788A
:105120002F4941F820400130787030460CF0E5F806
:10513000BAF1000F02D0DAF8000008E00DF1040A1D
:105140003649202250460CF053F94FF0FF30DAF880
:105150000420BAF81010DAE90635002AB2FA82F60D
:1051600008BF40F6C41220600120760961832563E0
:1051700060762B4826764FF4FA766261C4E90362C2
:10518000C4E90700C4E90903DAF80C0000B12062A1
:10519000DAF8140000B16062DAF8080000B1E061EA
:1051A00004F13800C8210BF0C6FD04F150000021C5
:1051B0000BF024FA1B4904F1B8000CF06FF82046FC
:1051C00041E700BFCC2108400F00000590080020F7
:1051D000C003002000200940110000E0AC300100B5
:1051E00060050020FD070100DCC40020F1A90000DB
:1051F0007C060020E1D2000099C6000098C400207F
:10520000F102010054C40020A9070100B44F00506E
:1052100021DC000070C20020B5910000EC2C0100E0
:105220005BBA00005B1301002DE9F84F2DED028BF6
:10523000A6B058EC104B9FED9A0B074600208A460B
:105240000B902046414656EC105B2A46334606F04A
:10525000E1FE9FED950B00281CBFB0462C46204672
:10526000414648EC184B53EC102BCDE9053206F0C3
:10527000B7FE48B9B0EE480A0BA8F0EE680A07F08E
:10528000CBFE0B9801380B908DED088B8B4A8A4929
:105290009DF8270080F080008DF8270030208DF8E1
:1052A0003000387B412808BF0A46059E069D0792BC
:1052B000204641462A46334606F09FFE08990028BC
:1052C0002A46334608BF2146099808BF404640ECAD
:1052D000181B4146204606F083FE0DF1300BBD68D9
:1052E00004970BF1010698B9B0EE480A25A8F0EE34
:1052F000680A07F091FE2598B0EE480AF0EE680AB9
:10530000C0F1010003F0D0FEB0EE408AF0EE608AFA
:1053100058EC189B4846414609F012F931460446BC
:1053200008F02EFB074620460AF006FC02460B4614
:105330004846414601F064FA41EC100B0135CDE9D5
:1053400002762DD39FED5A1B06EB070BCDF804A078
:1053500058EC114B59EC10ABDDE90532504649468B
:1053600006F03EFEC8B950464946224643460CF078
:105370002CF805460E4609F0E3F807460AF0DCFB78
:1053800002460B462846314601F03AFA41EC100B32
:105390000798C05D0BF8010BDCE7DDF804A039E0ED
:1053A0009FED431BBB4459EC118BD5B151EC100B55
:1053B00042464B460CF009F806460F4609F0C0F885
:1053C00004460AF0B9FB02460B463046394601F066
:1053D00017FA41EC100B0798013D005D0BF8010F27
:1053E000E3E75C46079D14F8011928460BF038FDE9
:1053F000401B08280EDB049EDDF80880079F00256F
:10540000217838460BF02CFDC01B0E2806DD04F871
:105410000159F5E7049EDDF8088003E00799084488
:10542000407820700020702152468BF80000307BBD
:10543000412808BF50210B9808F0B9FCB268039CC2
:10544000501C04D120460BF06BFD421EB26020467A
:10545000414653460AF05EF8B06808B1012202E006
:105460003068C0F3C00220464146534607F06EFA4A
:10547000DAF800007822411ECAF80010317B412979
:1054800008BF58220270DAF80000411ECAF8001066
:105490003021017026B0BDEC028B01B0BDE8F08F69
:1054A000000000000000F0FF00000000000000000D
:1054B0000000000000003040CB2F0100DC2F010075
:1054C0002DE9F04F85B004468A46002B1846214648
:1054D00018BF0120002C18BF012108400E99002997
:1054E0000D4618BF01252840012840F02D81049069
:1054F00098892588277FA84205D26588A8423D461D
:1055000098BF002500E00125BD4203D10025A77703
:10551000657711E0A67FB5420BD1667F94F804C091
:1055200001366677F6B2664506D3002625772F4604
:1055300001E00126A5776677012F12D16425B0FB23
:10554000F5F5EEB242F20F75A84288BF642693EDDE
:10555000020A94ED021A03960BF00BFE16D50120F9
:105560001AE001254FF0000EA4F81F50BAF1000F09
:1055700084F821E093ED020A2FD09AF834024FF01C
:105580004009002660F07F0E00202AE094ED031A07
:105590000BF0EFFD02DB002084F8200094ED041AEC
:1055A0000BF0E7FD01DD012005E094ED051A0BF09D
:1055B000E0FD02D8002084F8210094F82050012D4D
:1055C00003D102204FF0020C18E094F821000128CA
:1055D00009D105204FF0050C10E0002001264FF006
:1055E000000903902BE094ED061A0BF0C2FDD9BF21
:1055F00003204FF0030C04204FF0040CE077BAFABC
:105600008AF04609BAF1000F0BD09AF834E25FEA4B
:105610008E600AD40EF003001EF00C0F18BF043089
:1056200006E04FF0000E002002E06EF07F0E4020FA
:1056300040EA051094F8215040EA45196546A7F163
:10564000010CDAB102F6985090ED033A90ED022A7F
:1056500090ED001ABDEEC33ABDEEC22A13EE100A59
:10566000019012EE100A029092F8AC0D01280ED1B2
:10567000032049F008094FF001080CE000209FEDDD
:10568000341A4FF000080290CDE9000004E092F8CF
:10569000A80D4FF0000800905A7DBCFA8CF0012A4A
:1056A00001D19A7D0AB909F180094FEA501C1868A6
:1056B0000860608C013019F03F026084888018BF58
:1056C000012236B100274FF448764B204FF0000BF3
:1056D00007E0BAF830B2BAF83272BAF82C629AF827
:1056E0002E02CD76039D81F82A2081ED070A81F8EC
:1056F00019C081F8188081ED041A81F80EE0A1F834
:105700000CB04F810E818871A1F828902C228D76E3
:10571000019DCD82029D8D82009DCD7358680862E7
:1057200004F1280093ED040ABCEEC00A81ED090AD9
:105730000BF05EFE606D013060655FEA8960049881
:1057400002D0A16D0131A16505B0BDE8F08F00BFA9
:1057500000000000002800F0208170B52DED108BB6
:105760000D46002900F015811446002A00F0118131
:105770000646204644210BF0DEFA9FED921AB01D3A
:105780009FED910A29460246B0EE412AB0EE413A19
:10579000B0EE414A71B3B2F9023005EE103AB2F9F7
:1057A0000030B8EEC55A06EE103A32F9023CB8EEB7
:1057B000C66A07EE103A931DD3ED000AB8EEC77A19
:1057C000F5EE400AF1EE10FA09D866EE060A47EE49
:1057D000070A45EE050AF1EEE00AC0EE800A31EE56
:1057E000201A32EE052A33EE063A34EE074A013922
:1057F0002032CFE705EE105AB8EE45EA82EE0E8A67
:1058000081EE0E1A83EE0E9A84EE0EDA9FED6D2A6B
:10581000B0EE423AB0EE424AB0EE42FAF0EE428AC0
:10582000B0EE425A84ED00DA84ED019A84ED028AEA
:1058300084ED031A002D52D0B0F9021006EE101AB2
:10584000B0F90010B8EEC66A07EE101A30F9021C63
:10585000B8EEC77A00EE901A811DD1ED001AF8EE6D
:10586000E00AF5EE401AF1EE10FA09D867EE071AD1
:1058700040EEA01A46EE061AF1EEE11AC1EE801AC9
:1058800077EE492A70EECD4AB0EEC77AF0EEE00A24
:1058900071EEC11A013D2030F0EEE23AF0EEE45A2A
:1058A00030EE877A01EEA14A02EEA22A04EEA45A53
:1058B00075EEA33A76EE485AB0EEC66AF0EEE56AA7
:1058C00037EE066A05EEA53A86EE006A73EEA63A52
:1058D000C3EE803A78EE868A3FEE23FAAAE784EE9A
:1058E0000E1A82EE0ECA85EE0E0A83EE0EBA9FEDF8
:1058F000373A3CEE002A84ED071AB1EEC01A84ED67
:10590000040A84ED05CA84ED06BA3BEE022A82EE53
:1059100003AAB4EE411AF1EE10FA84ED08AA3DD6BE
:10592000B1EECC0A84ED091A0BF05FFC3BD684ED96
:105930000A0AB1EECB0A0BF058FC39D684ED0B0AFB
:10594000B1EECA0A0BF051FC37D684ED0C0A28EEF2
:10595000080A88EE8E1A8FEE0E2A09EE090AF1EE79
:10596000C00AB1EE4D0A84ED0D2A84ED0E1A03F043
:1059700029FE9FED17AAF0EE480A20EE0A0A84EDF0
:105980000F0AB0EE490A03F01DFE20EE0A0A84ED6C
:10599000100ABDEC108BBDE87040704705F078FF31
:1059A000B0EE401ABCE7B0EE4C0A05F071FFBEE75E
:1059B000B0EE4B0A05F06CFFC0E7B0EE4A0A05F006
:1059C00067FFC2E70000000000007A440024744929
:1059D000E02E6542007D70472DE9FF4701200BF066
:1059E00003F807F0E3FADFF850823A2042F20B4165
:1059F00008F1020208F05EFC8146002800F0F38006
:105A000000240DF10E023A2043F20101ADF80E40E0
:105A100008F050FC78B1BDF80E10012060F342018F
:105A20004FF6FB7001EA0002ADF80E103A2043F287
:105A3000010109F0E5F944F620600AF071F90294D9
:105A4000ADF8064002AD7D4C42F20C402946A0471D
:105A50000BF074FC9FED680B56EC107B0BF002FC16
:105A600041EC100BDFF8D8A142F20E4029468AED36
:105A7000000BA0470BF062FC9FED610B0BF002FCEA
:105A800041EC100B42F2104029468AED020BA04770
:105A90000BF054FC9FED5C0B0BF0F4FB41EC100B96
:105AA00042F2124029468AED040BA0470BF046FC57
:105AB0000BF0D8FB41EC100B42F2244029468AED52
:105AC000060BA0470BF03AFC9FED510B0BF0DAFBF5
:105AD00041EC100B42F2264029468AED080BA04704
