:1000000000400120B96E00000F740000DB7000009A
:10001000B7720000B7720000B77200000000000065
:10002000000000000000000000000000B7720000A7
:10003000B772000000000000B7720000B772000045
:10004000B7720000B7720000B7720000B77200000C
:10005000B7720000B7720000B7720000B7720000FC
:10006000B7720000B7720000B7720000B7720000EC
:10007000B7720000B7720000B7720000B7720000DC
:10008000B7720000B7720000B7720000B7720000CC
:10009000B7720000B7720000B7720000B7720000BC
:1000A000B7720000B7720000B7720000B7720000AC
:1000B000B7720000B7720000B7720000B77200009C
:1000C000B7720000B7720000B7720000B77200008C
:0800D000B7720000B7720000D6
:1000D8009AB006F069FF07F0C5F903F041FE05F094
:1000E80083FF09AC204607F055F902202146ADF8F8
:1000F80024004FF4E1300F90002002F01FFEDFF8DB
:10010800409BE84CDFF83C5BC9F80C001520214601
:10011800A847DFF8346B15200121B0471E2021467F
:10012800A8471E200121B047611E1220A8471220AF
:100138000021B0470B202146A8470B200121B047DA
:10014800DFF8080BDFF808ABD047DFF8084B20468C
:10015800D047DFF8040BD0472046D047DFF8FC0A29
:10016800D04703F0E3FB0446DFF8F40AD04799F8D8
:100178000000DFF8F06AB04799F80010DFF8EC0AE1
:10018800DFF8E42AAD2908BF1046D047DFF8E00AB7
:10019800D04799F80100B04799F80110DFF8D40A60
:1001A800DFF8D45A1D2918BF2846D047DFF8CC0AF3
:1001B800D04799F80200B04799F80210DFF8C00A52
:1001C800F22918BF2846D047DFF8B80AD04799F86F
:1001D8000300B0472846D047DFF8AC0AD04799F863
:1001E8000400DFF8A81AC007DFF8A40A18BF0846F9
:1001F800D0471CB199F80000AD2807D0DFF8940A61
:1002080006F056FC012007F045F9FBE7DFF8880AFD
:1002180006F04EFC02F058FA04F0C4FE12A8DFED16
:10022800A2CADFEDA2BADFEDA28ADFEDA29A9FEDA6
:10023800A2FAF1EE00FAF7EE00AA0C3003900DF1E5
:10024800230006F0D9FA002800F0FE829DF823006A
:10025800A0F131010E2913D8DFE811F00F002700B3
:100268008E005501C801E60103021D022002F602B4
:10027800F602F602F602F6022400DFF85C0BE1E271
:100288004D280FD0522804D06D280BD0722840F08A
:10029800DB82DFF8080A06F00BFC03F047FBDFF807
:1002A800000ACFE204F07EFECEE2DFF8F809D0477C
:1002B800DFF8B80AD047DFF8B80AD047DFF8EC090A
:1002C800D0472C2004F034FF02902D2004F030FF9A
:1002D80001900020DFF8384A002106902D20A04721
:1002E8002C208321A0472D202221A0474CF25030FA
:1002F80007F0D2F8102007900020CDE904000798F5
:10030800002800F013820E2012A9062204F070FDC6
:100318009DF848809DF849B09DF84A509DF84B607B
:1003280006F0F0FE44EA07203A07644B01466FF3F3
:10033800DF2148BF40EA03010698320708440690C7
:1003480045EA062001466FF3DF2148BF40EA030172
:1003580005985FEA0B720844059048EA0B200146AD
:100368006FF3DF2148BF40EA030104980844049072
:10037800079801380790C2E7DFF82809D047DFF867
:10038800B409D047DFF8B009D047DFF82009D047D3
:10039800DFF87C4907F055F828200621A0472920D6
:1003A8004021A0472D202221A047DFF89009D047FF
:1003B800012007F06FF80C2004F0BAFE05460D2066
:1003C80004F0B6FE0646DFF87809D04706F00304C5
:1003D80045EA0426304606F05DFDDFF86809D04797
:1003E800002E00F02382DFF86009240206F060FB8B
:1003F80004EB05084FF0000B2020B8F1200F28BFB0
:100408008046D84500F012820D200021ADF8640026
:1004180003988DF866108DF86210ADF86010C0E989
:100428000011816018A8149019A813900320129045
:100438000F2006F05FFE052007F02EF8D9F81C0003
:1004480012A907F007F8052007F026F80F20012168
:1004580006F050FEDFF8F4089DF861709DF86260C0
:1004680006F026FB584606F015FDDFF8E40806F00E
:100478001FFBB509284606F0FFFC66F30D27300779
:100488003C460E486FF3DF2448BF47EA0004DFE824
:1004980005F002051721DFF8D00813E0DFF8C408DB
:1004A80010E000BF01040020B81E853D0000C441D3
:1004B800E02E65426666E63F0000004200F0FFFF5E
:1004C800DFF8980806F0F4FA20B206F0E3FCDFF84B
:1004D800900813E0DFF87C0806F0EAFAA4F5AF709C
:1004E80000B200EE100A0120B8EEC01AB3EE090AF5
:1004F80001EE2C0A05F082FCDFF85C0806F0D8FA59
:100508000BF1010B7DE7DFF89C07D047DFF8F00718
:10051800D047DFF8F007D047DFF8EC07D047DFF81F
:10052800EC07D047DFF88407D047DFF8E44706F048
:1005380088FF2020FA21A04721200021A04722205F
:100548000421A04723209621A04724200021A0476A
:1005580025203221A04726200021A04727203F211F
:10056800A0472A201021A0472B204021A0472D205A
:100578002221A04712A806F03FF9002840F09882EF
:100588000B2004F0D5FD07461A2006F023FD05468A
:100598001B2006F01FFD0646DFF87807D0477806CF
:1005A800DFF87417DFF8740758BF0846D047DFF83C
:1005B8007007D047DFF86C47C7F30010A047DFF893
:1005C8006807D047C7F34010A047DFF86007D04757
:1005D800E8B2A047DFF85807D047F0B2A047DFF8E5
:1005E8009806D0478E4806F057FFC3E799F80500EC
:1005F800032206F024FE401A002189F805002D2068
:1006080004F0AEFF05F062FFDFF8E40606F050FAEA
:1006180099F80500012800F00D83002814BFDFF8C1
:10062800DC06DFF8D4060DE199F80600062206F08C
:1006380006FEA0EB4100002189F806002D2004F0F9
:100648008FFF05F043FFDFF8A006D04799F80600B2
:10065800DFF8981651F82000D047DFF81C06D0477D
:10066800F2E099F80700032206F0E9FD401A89F83C
:10067800070005F02BFFDFF8600606F019FA99F875
:100688000700012800F0D882002814BFDFF85406BC
:10069800DFF84C06D6E002F017F8D5E0DFF80406DC
:1006A800D047DFF80406D047DFF80006D047DFF868
:1006B8000006D047DFF8FC05D0470027212F00F0BF
:1006C800BF80DFF8F44514F83750284604F030FDB1
:1006D8000646DFF8E805D047284606F0CDFBDFF8E8
:1006E800E005D04704EBC7004068D047DFF8D405E1
:1006F800D047304606F0C0FBDFF8CC05D0470724CA
:10070800B4F1FF3F0CDD26FA04F0DFF8C015C0078E
:10071800DFF8BC0508BF084606F0CAF9013CEFE758
:10072800DFF8540506F0C4F90137C7E7DFF84406D7
:10073800D047DFF84406D04704989FED3A8ADFF89F
:10074800404606F0D9FD20EE08AAB0EE4A0AA047B6
:10075800DFF83006D047059806F0CEFD20EE089A5F
:10076800B0EE490AA047DFF82006D047069806F001
:10077800C3FD20EE088AB0EE480AA047DFF8F80467
:10078800D047DFF80806D0472E20012104F0E8FE04
:100798004CF2503006F080FE0020069010200790A2
:1007A8000020CDE904000798002800F090810E2071
:1007B80012A9062204F01CFB9DF848509DF84960D8
:1007C8009DF84A809DF84BB006F09CFC44EA07204F
:1007D8003A07154B01466FF3DF2148BF40EA030192
:1007E80006985FEA0B720844069048EA0B20014617
:1007F8006FF3DF2148BF40EA030105983207084438
:10080800059045EA062001466FF3DF2148BF40EA1C
:100818000301049808440490079801380790C2E738
:10082800F04902000000803D00F0FFFF2D2000216C
:1008380004F096FE2820002104F092FE05F046FE02
:10084800DFF8900406F034F999F80000AD2840F07C
:100858002A810B2004F06CFC0790082019A90322B8
:1008680004F0C6FA00200822CDE912000E2012A9D1
:1008780004F0BEFA002800F016819DF848009DF8A3
:1008880049B09DF84B709DF84E809DF84F509DF8EB
:100898004C609DF84D4004909DF84A0002901A2043
:1008A80006F098FB05901B2006F094FB99F80510BC
:1008B800B0EE6F0A069099F80800B0EE001AB0EE94
:1008C8006B8A012908BFB0EE410A002946EA0421D3
:1008D80008BFB0EE6A0A0A462307D84C6FF3DF2236
:1008E80048BF41EA040248EA052101EE102A2B0715
:1008F8000A46B8EEC11A6FF3DF2220EE01DA48BFCC
:1009080041EA0402A2F14F013B0701EE101A0299D5
:10091800B8EEC11A41EA072101EE2C8A0A466FF3A4
:10092800DF2248BF41EA0402049901EE102A5FEA77
:100938000B73B8EEC11A41EA0B2120EE019A0A4660
:100948006FF3DF2248BF41EA040201EE102A0128B2
:10095800B8EEC11A20EE01AA0BD199ED040A99ED5F
:10096800051A99ED062A3DEE42DA39EE419A3AEE39
:1009780040AA6DEE0DDA29EE09EA3EEE2D0AF1EEF7
:10098800C00AB0EE4A0A03F06BFA6AEE0AEAB0EE61
:1009980040BA3EEEAD0AF1EEC00AB0EE490A03F0E5
:1009A8005FFADFF83804B0EE40CAD047BDEECA0A95
:1009B800DC4D06F043FDDFF82804D047BDEEC90A38
:1009C80006F03CFDDFF81C04D047BDEECD0A06F06A
:1009D80035FDDFF81404D0473EEE8E0A3DEE800A5E
:1009E800B1EEC00ABDEEC00A06F028FDDFF8FC0330
:1009F800D047E34C2BEE280A0120A047DFF8F0038C
:100A0800D0472CEE280A0120A047DFF8E803D0479A
:100A1800B0EE480A0120A047DFF8DC03D047B0EE6B
:100A28004F0A012008EE290AA047DFF8D003D04773
:100A38000598C0B2A847DFF8C803D0470698C0B2E7
:100A4800A847DFF8C003D047079C204606F014FAF1
:100A5800DFF8B403D047E00703D0DFF8B00306F0AF
:100A680027F80798400603D5DFF8A40306F020F816
:100A78000798C00602D5E74806F01AF807988006D6
:100A880002D5E54806F014F80798400702D5E34870
:100A980006F00EF80798000702D5E14806F008F8B6
:100AA800E04806F005F8E04806F0F6FCFFF7C7BB9B
:100AB800974C06F0C6FC27200021A0472A200121D8
:100AC800A0472B204021A04705F000FDBCE6B04818
:100AD800D047A948D04704989FEDA8DAA84C06F05B
:100AE8000BFC20EE0DBAB0EE4B0AA047A548D04744
:100AF800059806F001FC20EE0DCAB0EE4C0AA0479E
:100B0800A148D047069806F0F7FB20EE0DDAB0EEC4
:100B18004D0AA0475848D0472E20002104F020FD58
:100B28009C48D0479C48D0473BEE4A0A9FED9BBA69
:100B3800032080EE0BAAB0EE4A0AA047984D28463B
:100B4800D0479848D0473CEE490A032080EE0B9ADC
:100B5800B0EE490AA0479448D0479448D0473DEEA4
:100B6800480A032080EE0B8AB0EE480AA0472846C0
:100B7800D0478F48D0479FED8F0A9FED8F1A9FED82
:100B88008F2A00200021B4EE408AF1EE10FAB4EE6C
:100B9800418A98BF0120F1EE10FAB4EE429A9FED17
:100BA800882AA8BF012101EA00040020F1EE10FA0A
:100BB8004FF00001A8BF0120B4EE429AF1EE10FAFE
:100BC80098BF0121B4EE40AA01EA00050020F1EE29
:100BD80010FAB4EE41AA4FF0000198BF0120F1EEDF
:100BE80010FAA8BF012101EA0006012E02D10DB1B9
:100BF800744864B9744805F05BFF16B9734805F08A
:100C080057FF15B9724805F053FF72480CB905F043
:100C18004FFF304805F04CFF3D4C06F012FC02999E
:100C28002C20A04701992D20A04744F6206006F00B
:100C380033FC09E62F4805E6284803E600F0FFFFE5
:100C4800A407002027740000FD700000F188000050
:100C5800B96A00006579000098780000CC8000002F
:100C6800AD840000816E00005887000020830000DA
:100C78007484000048870000D9870000878400003A
:100C88005C8200009A840000C08400003881000063
:100C9800087F0000CE7C0000707700005C810000B7
:100CA800F7830000DD780000717D000022790000E4
:100CB800DA7D0000057D0000B07400007389000033
:100CC800948900003A890000888800002284000086
:100CD800268700000E780000208200000D840000A6
:100CE800EA82000006830000917F00005483000020
:100CF8007E81000038840000608400004C8400007D
:100D0800E67B00006C7A000053780000BB7F00008F
:100D1800695500006A880000CB830000E183000069
:100D28000C8800009D6E0000B4880000B4830000A9
:100D380094870000E57F0000957C00005C7C000043
:100D48003983000054880000367F0000E3880000E3
:100D580091880000248800007F8800003C880000FB
:100D6800F88800003088000018880000A67D000080
:100D7800EA7900005D800000CC8800000000803D1A
:100D8800055E00000D890000148900002B7B00001F
:100D980037800000EC7A0000A287000000007A4348
:100DA80014810000B0870000F0800000BE870000BA
:100DB8003E82000033333340CDCC4C3E333333C016
:100DC800CDCC4CBE647F0000A67E00009682000059
:100DD800CE820000B2820000828000009C89000060
:100DE80028890000408900007588000048880000B4
:100DF8005F880000CC870000698900000088000037
:100E0800DC8800009A880000C17600005089000044
:100E1800828900007D890000FF8800007889000031
:100E28005F89000090890000A0860100007D70475E
:100E38002DE9F04FADF5077DD0F8009006469B46AA
:100E480015468691484606F00FFA4FF0000A09EB5E
:100E580000044FF0FF300027CDF814A2A14580F020
:100E6800C580A04609F101048DF810A28390CDE950
:100E780081AA14F8010C002800F0B880252805D0B4
:100E880029463460D84701340137F2E73460859742
:100E980081AC3146204600F0AEF82046314686AA9D
:100EA80000F0CAF830680278411C7A2A2AD0682AE9
:100EB80044461CD06A2A09D06C2A0FD0742A09D05B
:100EC8004C2A2CD1819840F0800025E0819840F48C
:100ED800006021E0819840F400501DE00146819AAD
:100EE80011F8013F6C2B12D142F4807107E00146E2
:100EF800819A11F8013F682B0CD142F4007181915D
:100F080002300BE08198444640F4805004E042F0FF
:100F1800400001E042F0200081900846027800F18C
:100F28000109732A8DF81022C6F800901FD06E2A86
:100F38002AD1819843F660710840411E80EA010277
:100F48008A420ED990FAA0F0B0FA80F0411F082921
:100F580007D8F817DFE801F04405053940053905D9
:100F68000500869850F8041B0F60869026E09DF8CF
:100F7800040240061AD4CDF800B081A886AA2946F2
:100F880085AB00F01CF919E00DF1060881A986AAC5
:100F9800404600F069F9909B02464046294698472A
:100FA800411C18BF38448590074608E0CDF800B0CA
:100FB80081A886AA294685AB00F09CF8859F781CF5
:100FC8004FF0FF307FF44AAF0EE0869951F8042BBA
:100FD800C2E900708691F1E7869802C80F70C4E7ED
:100FE800869802C80F80C0E74FF0FF3738460DF5E6
:100FF800077DBDE8F08F10B50A680124E30708BF34
:1010080010BD1378302B0CD0232B0CD02B2B0CD0ED
:101018002D2B04D00024202BF0D1042306E001233B
:1010280004E0102302E0082300E0022304680132F0
:101038000A6023430360E0E7FEB5044608681646E5
:101048000D4603782A2B11D13068011D31600068E4
:10105800B0F1FF3F606005DC40426060206840F00E
:10106800010020602868471C2F6017E000210DF15F
:101078000202303B4718092B06D87B1C2B60435CC7
:1010880053547B780131F4E7002050549DF8020056
:1010980020B10DF1020004F0C9FF606038782E28F5
:1010A80027D1781C28607A782A2A08D13068011D4F
:1010B80031600068A060286801302860FEBD00200B
:1010C8000DF10201303A092A07D83A18931C2B600F
:1010D800537892780B540130F4E700220A549DF8B3
:1010E800020028B10DF1020004F0A0FFA060FEBDCF
:1010F800A260FEBD2DE9FE4F054610680C46011D95
:10110800116007680C9AD7B3AE6898469146002ECE
:1011180004D4384606F06EF8864203D3384606F003
:1011280069F80646D5F804A0B3460195B245C8BF8C
:10113800D346D8F80000CDF808805844C8F8000015
:101148000FDD01980078C0070BD1ABEB06054FF017
:101158000008A84505DA20202146C84708F10108FB
:10116800F7E7DDF808800025B5420EDA57F82500C4
:10117800B0F5807F19D22146C8470135F4E7002031
:10118800214603B0BDE8F04F1047B24515DD019880
:101198000078C00711D0ABEB06050026AE420CDA8A
:1011A80020202146C8470136F8E74FF0FF30C8F83D
:1011B800000006F029F958210160BDE8FE8F2DE9ED
:1011C800F84F054610680C46011D116006680A9A1A
:1011D800C6B3AF689B469046002F04D4304606F04D
:1011E80043F8874203D3304606F03EF80746D5F861
:1011F80004A0B9460095BA45C8BFD146DBF800003F
:101208004844CBF800000DDD00980078C00709D1EC
:10121800A9EB070B00255D4504DA20202146C047CD
:101228000135F8E70025BD4204DA705D2146C04764
:101238000135F8E7BA4503DD00980078C00706D104
:10124800BDE8F88F00202146BDE8F84F1047A9EB0C
:1012580007050026AE42F3DA20202146C0470136B2
:10126800F8E700BF00BF00BF2DE9FE4F1646002774
:101278008B46D1F8048040F2FD11202204460197E4
:1012880005F01EFF04F5FE7084F8FD7102909BF8CE
:101298000C00A0F16101172929D80122BA4B8A4014
:1012A8001A4209D001A902AA5846334600F070F93B
:1012B80000274FF0000991E012F0710F25D10229A3
:1012C80015D130680027011D3160006884F8FC01E1
:1012D800C0B2DBF80010B0FA80F04FEA501921F0E4
:1012E8000201CBF8001004F2FB11029176E0A0F1A4
:1012F8004501032909D3252800F08A80412804D014
:101308005828CFD04FF000096AE03068073020F045
:10131800070000F10801316090ED000B9BF80C50BC
:1013280056EC107BA5F17B09384631463A463346E0
:1013380005F01AFA002840F00C8194499FED900BB3
:1013480026F00040414053EC102B394315D003F0F0
:1013580000414FF00009084440EC107BF70FA5F15D
:101368004100062829D9A5F16100062836D8DFE80A
:1013780000F02A353535DCD7D2006E20314619F118
:101388001A0F38BF4E2084F8FB014FF0660038BFB3
:10139800462084F8FC014FF0690038BF492084F8E2
:1013A800FA0104F5FC700290384603F04CFE78B15F
:1013B8002D204FF0000904270EE0DFE800F0040FAD
:1013C8000F0FB6B1AC0002A9584600F075FB70E7E4
:1013D8002B204FF00009032784F8F9019BF80C0033
:1013E800A0F16F014FF0010A092905D80AFA01F1A5
:1013F80040F24322114221D158281FD06FB1012F4A
:101408001CD101200190DBF8000000F002000CE084
:10141800252020800120BDE8FE8FDBF80010019A0E
:1014280001F00200002A00F0858002992D22B0FA0E
:1014380080F04FEA501A01F8012902919BF8000048
:1014480004EB08072646C007029809D104F2FD11EB
:10145800DBF804202646091A9142DCBF791A4E1C93
:10146800411C304600224FF4FF73002505F02FFC85
:10147800B9F1000F02901CBF00F8015B0290B8425E
:1014880007D8391A01382022013105F019FE002049
:1014980038709BF80000C00605D4311B2046202276
:1014A80005F00EFE31E0A6422FD0311B2046302237
:1014B800302505F005FE0198B0FA80F0400900EAF1
:1014C8000A00012805D19BF80000400701D42046F6
:1014D80005E03178204600F8011B06F8015B9BF80F
:1014E8000C1041290DD0582905D0612909D0782937
:1014F80001D0702909D19BF80020120701D4612975
:1015080003D17178417030207070204605F0ACFE30
:101518004844BDE8FE8F02A9584600F019FCC8E609
:1015280002A9584604F09DFAC3E602A9584601F0FC
:1015380037FEBEE628B948077FF580AF029820211C
:1015480003E002982B214FF0000A00F801190290DD
:1015580074E7612019F11A0F38BF412084F8FB01A4
:101568004FF000094FF06E0038BF4E2084F8FC01A0
:1015780084F8FA01022704F2F91002902EE700BF5E
:10158800000000000000000008C190000000F07F8B
:10159800F8B50546806814460F46B0F1FF3F04DDF4
:1015A800286820F01000286001E00120A860287B4E
:1015B8001026582807D0782805D0702803D06F281F
:1015C80014BF0A2608262846194600F053F8AA68C8
:1015D8004AB950EA010206D12878000749D52B7B81
:1015E8000020002112E02B7B642B04D16423B1F18D
:1015F800FF3F05DD0AE0692B08D1002906D56923DC
:1016080001223A600022404262EB01013246009416
:1016180000F0ACF83021AA68904205DA226801305F
:10162800531E23601170F6E7287B582818BF7828C6
:1016380010D1297809070FD521684A1E2260702821
:1016480008BF782008702068411E21603021017091
:10165800287B01E07028ECD06F280AD12878000791
:1016680007D520684178302903D0411E21603021F8
:101678000170F8BD10B5027B702A2BD0006843F6C4
:1016880060731840431E80EA03049C420DD990FA07
:10169800A0F0B0FA80F00538082806D8DFE800F096
:1016A8004D050520390520050500A2F16400142820
:1016B8000ED8012303FA00F02B4B18420AD110F080
:1016C800210F05D00868021D0A600068C11710BD07
:1016D800582A46D10868021D0A600068002110BD1A
:1016E800A2F16400142808D8012303FA00F01E4B65
:1016F800184204D110F0210F01D1582A31D10868BD
:10170800073020F0070000F108020A60D0E9000164
:1017180010BDA2F16400142808D8012303FA00F0D0
:10172800114B184204D110F0210FCBD1582A18D1EF
:101738000868021D0A600078D0E7A2F16400142846
:1017480008D8012303FA00F0074B184204D110F01F
:10175800210FB7D1582A04D10868021D0A600088F1
:10176800BCE70020BAE700BF00081200F8B505463C
:101778001148124E582B069F144608BF064655EAD4
:10178800010011D13868421E3A60302202700BE025
:101798002846224600F014F83A68531E3B6000FBC6
:1017A80014530546F35C137055EA0100F0D138680C
:1017B80005F05AFD0138F8BDD38400005B850000B0
:1017C800102A06D0082A09D1C00840EA4170C90881
:1017D8007047000940EA01700909704719B9B0FB60
:1017E800F2F00021704780B5002305F04DFC80BD64
:1017F8002DE9FE4F074608680024B0B1D7E9018AF1
:101808000E4605F007FD8146D8F8E800082888BF8D
:101818000124B068204202D17068204208D0032019
:101828003074484605F0DBFD00242046BDE8FE8FF5
:10183800D8F8C01069B198F8F8100029EFD006213F
:101848003174D8F8C410C8F8C4604E6198F8FC1018
:101858000DE000210522C8E93066C8E93411C8E95D
:10186800361198F8FC10002908BF012232740022B2
:101878000129726109D102204FF4E02188F8FC00A7
:1018880098F8FB0004F028FF7068894901388842FD
:1018980005D8042004F038FF062004F035FF0220A4
:1018A80004F032FF98F8F80040B9DAF83C003168E3
:1018B800814203D298F8FC0000286CD0D8E9361091
:1018C80009B118B900E028B305F095FDDAF8000071
:1018D800416941F001014161484605F080FD98F8F1
:1018E800F80008B10124A0E708F16C05D8F8EC105D
:1018F800284603F031FA0028F4D0D8F8C0000321B4
:101908000174384603F0BEFA28460021002403F08B
:1019180023FA8AE79AF8040005F0DCFC654CDAF84B
:1019280010100222206991FAA1F1B1FA81F14368FD
:10193800D8F8CC004068006898472069DAF8141095
:1019480002224368D8F8CC0091FAA1F1B1FA81F1EA
:101958004068006898479AF8040005F0B5FC9AF8C2
:10196800040005F0BDFC05F046FD0020C8F8E000C5
:10197800D8F8C0000068B0F5806F01D905F03BFDCC
:1019880098F8FE000028A1D1DAF80000416841F07B
:10199800020141609AE798F8F90020B1D8F8EC0004
:1019A80001307FF48BAF484605F019FDB2683AB1B3
:1019B800D8F8E8000221092838BF0121009103E086
:1019C80008F1F40200200090746834B1D8F8E800F7
:1019D8000227092838BF012702E008F1F60400278A
:1019E800DAF80000334D416841F002014160D6F851
:1019F80000B0D946BBF1000F40D0D8F8E8000192FA
:101A080009284FF0010011D22A68B9F1000F1FD040
:101A1800C0071DD02178DAF80000926890470028A6
:101A28001EBF3C44A9F101090120EDE72A68B9F17C
:101A3800000F16D0C00714D02188DAF80000926889
:101A4800904700281EBF3C44A9F101090120EDE799
:101A5800DAF80000D26802A99047DDE90120107089
:101A680007E0DAF80000D26802A99047DDE9012012
:101A780010800098ABF1010B0244BBE7D8F8F000E6
:101A8800DAF80010CA680240102802D1002AF9D1F9
:101A980001E0002AF6D0706805F0D4F8D8F8C01034
:101AA8000020C8F8C400C8F8C00008741AE700BFCE
:101AB800FEFFFF0FC40100102DE9F84F2DED028B3A
:101AC800A6B058EC104B9FED9A0B074600208A46AB
:101AD8000B902046414656EC105B2A46334603F0ED
:101AE800BFFA9FED950B00281CBFB0462C46204638
:101AF800414648EC184B53EC102BCDE9053203F066
:101B080095FA48B9B0EE480A0BA8F0EE680A03F057
:101B1800FBFD0B9801380B908DED088B8B4A8A4999
:101B28009DF8270080F080008DF8270030208DF880
:101B38003000387B412808BF0A46059E069D07925B
:101B4800204641462A46334603F07DFA0899002884
:101B58002A46334608BF2146099808BF404640EC4C
:101B6800181B4146204603F061FA0DF1300BBD68A1
:101B780004970BF1010698B9B0EE480A25A8F0EED3
:101B8800680A03F0C1FD2598B0EE480AF0EE680A2D
:101B9800C0F1010001F0DCFFB0EE408AF0EE608A8F
:101BA80058EC189B4846414604F070F93146044603
:101BB80003F02CFF0746204604F07CFE02460B4645
:101BC8004846414600F0A4FC41EC100B0135CDE934
:101BD80002762DD39FED5A1B06EB070BCDF804A018
:101BE80058EC114B59EC10ABDDE90532504649462B
:101BF80003F01CFAC8B9504649462246434605F048
:101C080041FC05460E4604F041F9074604F052FE31
:101C180002460B462846314600F07AFC41EC100B90
:101C28000798C05D0BF8010BDCE7DDF804A039E08C
:101C38009FED431BBB4459EC118BD5B151EC100BF4
:101C480042464B4605F01EFC06460F4604F01EF9B8
:101C5800044604F02FFE02460B463046394600F093
:101C680057FC41EC100B0798013D005D0BF8010F84
:101C7800E3E75C46079D14F80119284605F0B2FA17
:101C8800401B08280EDB049EDDF80880079F00250E
:101C98002178384605F0A6FAC01B0E2806DD04F8A0
:101CA8000159F5E7049EDDF8088003E00799084428
:101CB800407820700020702152468BF80000307B5D
:101CC800412808BF50210B9803F06DFFB268039CB0
:101CD800501C04D1204605F0C7FA421EB2602046C7
:101CE8004146534604F0AEFCB06808B1012202E058
:101CF8003068C0F3C00220464146534603F0F8FB63
:101D0800DAF800007822411ECAF80010317B412918
:101D180008BF58220270DAF80000411ECAF8001005
:101D28003021017026B0BDEC028B01B0BDE8F08F08
:101D3800000000000000F0FF0000000000000000AC
:101D48000000000000003040D38400005B850000E4
:101D58002DE9F84F2DED028BA2B08046806820B1A6
:101D6800B0F1FF3F04DC062000E00120C8F80800BD
:101D7800029004918DED060B9FED7B1B55EC104BEB
:101D88009DF81F00294653EC112B80F080008DF838
:101D98001F003020019205938DF82400204603F09F
:101DA80052F99FED730B069900284FF0000A08BFFF
:101DB8002146079856EC109B9FED710B08BF2846EB
:101DC80040EC181B54EC10BB55EC187B4A463346C4
:101DD8003846294603F05EF950B1384629465A4636
:101DE800234605F04DFB41EC180B0AF1010AEBE71D
:101DF8009FED610B019F2546CDF80C8056EC104BEA
:101E080058EC189B059B3A464846414603F00EF9A4
:101E180088B9484641462246334603F014F950B182
:101E2800484641465A462B4605F02CFB41EC180B18
:101E3800AAF1010AE4E74846414604F027F80DF103
:101E4800240808F10106314603F0E0FD02998842B2
:101E580005DD013118F8012008EB010426E0C9432B
:101E680008EB0004A946059001EB000857EC185B45
:101E78002846394604F00AF804F01CFD02460B46D1
:101E88002846394600F044FB5A464B4605F0FAFA14
:101E980041EC180B03F0FAFF00F1300218F10108C9
:101EA80004F8012FE2D305980DF1240800EB0A0588
:101EB800D0B2039F35280CD3601E3021027801323E
:101EC8000270D2B23A2A02D300F80119F6E7404567
:101ED80044D000202070049C15F1030F02DBB86881
:101EE800854207DD397B681E22460239C9B203F0F4
:101EF8005AFE0125304605F0B7F9013800220121C4
:101F0800A8421ADB002801D4325C00E03022B2F18A
:101F1800300318BF012363EA0101C90705D13978E5
:101F2800090702D40022012105E021684B1E236025
:101F38000A70012200210138E2E738682946234661
:101F480000F008000243304618BF012203F0D0FA1F
:101F580022B0BDEC028B01B0BDE8F08F0020013546
:101F680004F8010C09AEB6E700000000000000000C
:101F78000000C0FFFFFFDF41000000000000F03F4D
:101F880000000000000024402DE9FC47D0E900587B
:101F98008246D8F80000D0F8409019F4F06FC0F8E5
:101FA800449035D05FEA495117D5D5E91401411A53
:101FB800504604F0C3FCD8F800008169C90605D46E
:101FC80001688DF807109DF80710F6E729680131B8
:101FD8002960A97B09B90121A973696C40684FF090
:101FE800004600F00F0404EA0100B0FA80F126FA76
:101FF80001F1014005D02F6C1FB12A68AB6C504627
:10200800B847B4FA84F026FA00F020404042A863AA
:10201800D5F85801D8F83C1009F040074068006826
:10202800D0F804251140394347D0DAE90064504616
:1020380003F036FBD7B1F07C90B90BE0316F69B192
:102048000068B16EB26F8854306FB16F01310138DA
:10205800B167306720688169C906EFD5F07C28B17F
:10206800D6E91401411A504604F068FC96F8640059
:10207800E0B13079022819D017B1B179012901D01E
:10208800316F99B90024B16E0128346786F864402D
:10209800B46607D1B36CB26FD6F8CC6050460094E2
:1020A800B04703E006F17C0004F042F8504602F025
:1020B80053F8D5F858014068006800F204500068E9
:1020C800D8F83810084228D0D5F8F80028B3DAE94B
:1020D8000076504602F0ECFF504602F035FB787966
:1020E800012812D1D7F8F40078B997F8E80060B160
:1020F800002087F8E800BB6CD7F8EC10D7F8FC2074
:10210800D7F8504100905046A047D7F8F80020B9BA
:102118003068816B41F4006181635FEA095023D51F
:10212800D8F8000081690907FCD4016B21F480719B
:102138000163297A91B10020287295F8440080063D
:1021480006D52C6C24B1AB6C504620210022A04748
:102158005046012104F033FCD8F80000816B21F4CB
:1021680000618163687908B1BDE8FC8705F5807076
:10217800BDE8FC4703F0DCBF2DE9FE4FD0F8008036
:10218800994614460E46824613B10020C9F800004D
:1021980005F040F8834698F8070038B198F86400CD
:1021A80048B105F048F96FF00805B4E005F043F9C7
:1021B8006FF00E05AFE0002C4AD0504603F070FADD
:1021C80000200121C8E91A64C8F87040C8F87800EE
:1021D800C8F8380088F80C0088F80A00504688F8D3
:1021E800641004F03BF9504601F0B6FF08F14C04C6
:1021F80002AD2046294604F037FDD8F87810D8F803
:1022080070707218B84238BF0746029910463A46AD
:1022180005F044F92046394604F01EFBD8F8700052
:10222800D8F87810C21B3944012FC8F87020C8F8B4
:10223800781001DBB842DCD198F8041002290CD1DF
:102248000020C8F8680088F86400C8F870001CE02E
:1022580005F0F1F86FF009055DE0B84215D10020EE
:10226800D8F86860012988F86400C8F868000CD1BB
:102278000124584688F8104005F0B1F898F80F0086
:1022880000284BD004F0C6FF834605F0D4F898F830
:10229800040008B100252FE0D8F8701008F17C0080
:1022A80031B30C9902F058FD10B1012088F80C00E8
:1022B80004F0B0FF0446504603F0F2F90020C8F8D5
:1022C8006800C8F8700088F86400504601F044FFC0
:1022D80098F80A6098F80C50204605F080F8002D10
:1022E80018BF6FF00C05002E18BF6FF00D0503E046
:1022F8000021002502F030FD04F08CFFB9F1000F39
:1023080007D098F8041001291CBFD8F87810C9F82C
:10231800001005F064F82846BDE8FE8F002598F8FF
:1023280010000028AED004F075FFA8F80F4005F0A3
:1023380056F8D8F84830D8F87820D8F8CC705046F5
:1023480031460095B84788F80F50E8E72DE9FE4F69
:10235800D0E90198D8F80010CA690A62D20740F09B
:10236800AF80D8E904014FF0000A4FF0000B084392
:10237800D9F8CC1049680968C1F8040509F130009A
:10238800029009F1C8000190BBF1010F00F2A18091
:10239800D9F8C000002800F09C80D9F8E010DC22B1
:1023A800D9F8CC702023002908BFD82208BF1823E9
:1023B80058F803404FF0240308BF1C237F68D8F85F
:1023C800146058F803303F68D7F80455354211D0E7
:1023D800A46864070ED10468D9F8D050A54209D181
:1023E80044693CB9D8F80040656A25F00205656281
:1023F800C7F804659B685B0702D00BF1010BC3E7C4
:1024080059F80230002BF8D049F802A0B1FA81F14E
:10241800D9E934424909006849011A448442C9F893
:10242800D420C9F8E01028BF82420CD24846414661
:1024380000F000FE99F8FE000028DED004F0F2FD5E
:1024480018BF8862D9E704F0E5FED9F8C820D9F8A2
:10245800C010019B81F810A022B113465269002ACE
:10246800FBD114331960C9F8D4A04A69C1F814A083
:10247800D9F8E01000294FF0DC01C9F8C02008BFE6
:10248800D82159F80110C9F8D01004F0A8FFD9F8DC
:10249800C00058B14846414600F0CCFD99F8FE000E
:1024A80050B104F0BFFD18BF886205E0D8F80000FD
:1024B800416A21F003014162029803F01FFA9CE788
:1024C800D9F8C0203AB103211174BDE8FE4F02F0DB
:1024D800D9BCBDE8FE8F486820F002004860486A11
:1024E80020F003004862D8E904021043D9F8CC2050
:1024F80052681268D062C2F80405486920F00100E9
:102508004861012008624046BDE8FE4F04F0F7BA72
:102518002DE9FC4F83F0004301E02DE9FC4F1F0338
:10252800FF0847EAD2574FEA42284FEA43095FEAD1
:10253800595906D147EA080A1CBF00210020BDE806
:10254800FC8F57F000575FF4E06E1EF1FF0EF14567
:1025580005D14FF00000190D0905BDE8FC8F002BCF
:1025680005D55FF0000AD8F100086AEB07070C03ED
:10257800E40844EAD0544FEA40254FEA4106760D74
:1025880008D144EA050A19BF00210020194610465F
:10259800BDE8FC8F44F00054764504D10020090DB5
:1025A8000905BDE8FC8F002904D55FF0000A6D42DB
:1025B8006AEB0404B6EB090E08D5A2463C4657461A
:1025C800AA464546D046CEF1000E4E46BEF1360F1D
:1025D8005CBF4FF0000B23E0BEF1000F04BF4FF0CB
:1025E800000B1AE0CEF1390ABAF120092EBF08FA19
:1025F80009FB07FA0AFB4BEA080BDEF1200A07FA87
:102608000AFA38BFBA4647FA0EF72DBF28FA0EF86D
:10261800AEF1200E4AFA0EF8D04415EB08057C41BD
:1026280054EA050A02BF00210020BDE8FC8F002CF7
:1026380058BF4FF0000A06D55FF0010A5FF0000EA0
:102648006D426EEB0404A6F101066D006441FAD5F3
:1026580015F4806E11D005F480794BEA090B15F555
:10266800806554F1000428BF761C0BD205F400796C
:102678005BEA090B08BF25F4006525F4E0656D00E9
:1026880044EB0404B61CDEBF00210020BDE8FC8F2B
:102698005FF4E06E1EF1FF0E76450AD34FF000009E
:1026A80013F00043FF21C900C91D09051943BDE8FE
:1026B800FC8F270547EA1530210B41EA065141EA0C
:1026C800CA71BDE8FC8F70472DE9F0412DED0A7BFA
:1026D800594804F0EDF9DFF864819FED598AB1EEAD
:1026E800009AB0EE000A574F0DF1020498F8050061
:1026F800B0EE48BAB0EE48AA012808BFB0EE409A3A
:10270800B7EE000A002808BFB0EE409A4026002E17
:1027180044D00E202146062202F06AFBC0B39DF881
:1027280007009DF8061041EA002100070A466FF3EA
:10273800DF2248BF41EA070200EE102A9DF8053063
:102748009DF802009DF803109DF80420B8EEC00A19
:1027580040EA012000EE098A42EA03251B072A46BF
:102768006FF3DF2248BF45EA070200EE102A090787
:102778000246B8EEC00A6FF3DF2200EE09BA48BF7E
:1027880040EA070200EE102AB8EEC00A00EE09AAD5
:1027980042F2107004F080FE013EB8E79FED2A0A6D
:1027A8009FED2B3A01209FED262A2D4E88F8080030
:1027B8002A482BEE001A88ED051A2AEE001A28EE90
:1027C800000A88ED041A9FED211AB4EE430A9FED22
:1027D800223AF1EE10FA30EE011A48BFB0EE412A63
:1027E800B4EE430A9FED1B1AF1EE10FA30EE011A0F
:1027F800C8BFB0EE412A88ED062AB0471948B0474D
:1028080098ED040A184F04F0D6FD184C2046B0473E
:102818001748B04798ED050A04F0CDFD2046B047AB
:102828001448B04798ED060A04F0C5FD1248B047B1
:10283800BDEC0A7BBDE8F081C2770000A407002048
:102848000000000000F0FFFF0000803C00007A4418
:102858000000FAC300007AC40000FA439F81000018
:10286800B96A0000768700009D6E00003489000078
:102878008587000067870000C48800008160704772
:102888002DE9F84F2DED085B90463022009101901C
:102898009FED591B55EC104B02708DED040B29462A
:1028A8009DF8170053EC112B80F080008DF817006D
:1028B8002046CDE9023202F0C6FB04999FED500B89
:1028C80000284FF0000908BF2146059808BF284690
:1028D80055EC10AB9FED4E0B40EC181B5BEC104B0E
:1028E80056EC187B52462B463846314602F0D2FB4E
:1028F80050B13846314622465B4604F0C1FD41ECF2
:10290800180B09F10109EBE79FED3F0B26464746F7
:1029180058EC104B55EC18ABDDE90232504629460D
:1029280002F084FB88B9504629462246434602F005
:102938008AFB50B15046294632465B4604F0A2FD58
:1029480041EC180BA9F10109E4E75046294603F0C8
:102958009DFA019901F10108414603F057F800EB8F
:102968000901BA46396008EB000700984844451C3D
:10297800012D1BDBB14656EC184B2046314603F0BF
:1029880085FA03F097FF02460B4620463146FFF7CB
:10299800BFFD4A465B4604F075FD41EC180B03F099
:1029A80075FA303007F8010B013DE4D117F8010C36
:1029B80035280DD3B81E3021027801320270D2B208
:1029C8003A2A02D300F80119F6E70199884208D09B
:1029D800002007F8010C4046BDEC085B01B0BDE8DB
:1029E800F08F0020DDF8048007F8010CDAF8000009
:1029F8000130CAF80000EEE7000000000000000007
:102A08000000C0FFFFFFDF41000000000000F03FB2
:102A18000000000000002440B0B560480021604C70
:102A2800016094F83A01032812D002282ED0012818
:102A380040F0AF8094F8400102F0AEFC002084F82A
:102A480040015948817B0220002908BF06209EE0EA
:102A580054480168B1F5C060C4F82C01B8BFC1F58D
:102A6800C060D4F81011002900D5494288422ADDF7
:102A7800D4F8140104F08CF8D4F8180104F09AF88A
:102A8800D4F8280104F0BAF801201DE0454805688B
:102A980004F050FBC4F8140104F054FBC4F8180106
:102AA80004F058FBB5F5C061C4F82801C4F810114A
:102AB80009D094F830215AB1D4F81401D4F820215F
:102AC800D4F82C110AE0002084F8300106205EE0DA
:102AD800C4F82401D4E94502C4F82C110223C4F82F
:102AE8001C01002901EB410148BF6FF001031944A3
:102AF800042391FBF3F111440029C4F820110FDDE0
:102B08001F2931D3D4F824212AB33E28A8BF3E2058
:102B180001302929A8BF2921C4F81C010B3909E073
:102B2800D4F82421032A09D111F1140FD8BF6FF06A
:102B380013011531C4F82011002113E00128D8BF72
:102B48000120013811F10A0FD8BF6FF00901C4F84C
:102B58001C010B3103E03329A8BF33211539C4F810
:102B680020110321C4F8241104F012F8012004F004
:102B780033F8D4F8200104F01DF8D4F8240104F047
:102B88003DF8A5F2FF510420032938BF0620C4F8F8
:102B98003C01BDE8B04000F053BF00BF3C500C40C2
:102BA8009004002008400C40248400002DE9FF47D1
:102BB800D0E901590E46044604F02CFB95F8FD10A7
:102BC80021B97169102901D8032906D804F007FC36
:102BD8000024204604B0BDE8F087012785F8FD7081
:102BE80004F0FDFB00204E4A85F8FC00C5E93000E2
:102BF800C5F8C80085F8FE003069C5F8E4007069BA
:102C0800C5F8E800307B85F8F9000028317885F8A8
:102C1800F8107168C5F8EC10B9F80E10A5F8F610A0
:102C2800317E52F8211085F8FA1008BF1027C5F830
:102C3800F07099F80C0001F03FFE204603F000F810
:102C480099F83B00374985F8FB008A46D4E90187A3
:102C58003A6B97F83A0001F0D7FD7A6B98F8FB00C9
:102C6800514601F0D1FD98F8F91097F8380001297C
:102C780015D1FA6A514601F0C7FDBA6A97F83900CA
:102C880046F2020101F0C0FD98F8FB00264904F065
:102C9800ADF898F8FB00214604F0A6F90AE0BA6AF4
:102CA80046F2020101F0B0FDFA6A97F83900514680
:102CB80001F0AAFDE846404604F0F0F999F805004D
:102CC8001A4A4346CDE90040284699F8041002F014
:102CD800ADFA404604F06EFAD9F8080014494246A5
:102CE8000094029005F1300001F0CCFC02F0A4FD44
:102CF800104AC5F8CC0005F11C000421234603F056
:102D08008FFF95F8F80008B1B06805E005F16C0090
:102D1800002104F03DF80848C5F8BC0059E700BF99
:102D28009C83000002600020693F000055230000DA
:102D3800E15C0000A973000019740000FEB50446A8
:102D48005A480078A04213D908780D46012801D1C5
:102D5800686868B16878012801D1A86840B1544F03
:102D680057F8346004F056FAF17921B104F037FBD2
:102D780000242046FEBD07EBC40401216768F171F9
:102D880004F02DFB002005F1040C7074F081B06094
:102D980030602988B180A98BC6E93D00C6E90E00DC
:102DA80086F86400B186297D2B69B1719CE806100C
:102DB800C6F85021BCF1000FC6E910C34FF0FF322E
:102DC800C6F8CC10A969C6E93B203163A97F86F80B
:102DD8003610296AC6E91A00C6E91C00B16486F8EB
:102DE800E800C6F8580102D13249C6E9101097F830
:102DF800400001F061FDD7E9031206F14C0004F030
:102E0800D1F9D7E9051206F1D00004F0CBF92A4927
:102E180038680968C96888477A6C97F8240046F2C8
:102E2800020101F0F1FC254DBA6C97F82000294603
:102E380001F0EAFCF86901280CD1FA6C97F828002F
:102E4800294601F0E1FC3A6D97F82C0046F20201A0
:102E580001F0DAFC02F0F0FCC6F85801204600F058
:102E6800FDFE174A06F5AE700421234603F0D8FE8E
:102E78006D46284604F012F9387A7968114A2B46CB
:102E88000094019006F1140002F0D0F906F17C00DC
:102E9800002103F07DFF06F58070002103F078FF24
:102EA8003868D7E90C121060486062E7A089000012
:102EB800B8750000BF5A0000D00100100260002061
:102EC80069700000911F00002DE9F84FD0E900B7A4
:102ED800984616468946054613B10020C8F80000F2
:102EE8008EB104F09EF9824604F094F904469BF8EA
:102EF800070060B19BF8E80078B104F099FA6FF028
:102F08000800BDE8F88F6FF00900BDE8F88F04F0FD
:102F18008FFA6FF00E00BDE8F88F00200121CBE991
:102F28003B96CBF8F460CBF8FC008BF8E810CBF8B4
:102F38003C008BF80D008BF80B000BF5807000211E
:102F4800009001F009FF384604F01EFABAF1000FAC
:102F580002D19BF8050070B3284601F0F5FB04F098
:102F680067FA9BF8050068B90A99009801F0F4FE21
:102F780010B101208BF80D00284602F099F80020C6
:102F88008BF8E800B8F1000F1CBFDBF8FC00C8F8AC
:102F980000009BF80B0030B100208BF80B006FF09D
:102FA8000D00BDE8F88F9BF80D00002818BF6FF0E2
:102FB8000C00BDE8F88F04F03BFAD5E9007497F8E7
:102FC8004400C00615D5D7F840C0BB6C2846102170
:102FD8000022E0470DE0D7F8FC00314609EB00027B
:102FE800204603F015FBD7F8FC10361A0144C7F841
:102FF800FC10002EEFD1204604F0ECF80028FAD09F
:10300800204604F0B5F997F84400800605D53C6CD5
:10301800BB6C284620210022A0470020B8F1000FF1
:1030280087F8E800C5D0D7F8FC00C8F800000020F1
:10303800BDE8F88F2DE9FC4FD0F8C080D0F8D0C09B
:10304800D0F8E820D8F80030C346E6469C4511D3AE
:10305800D8F814B0BBF1000F00F0898090F8FC306C
:1030680005244FF0000E002B08BF0124DBF80030C8
:103078008BF81040A3EB0E05A2F1080AB5F5806F96
:1030880028BF4FF48065D0F8D82032B101F1200371
:1030980001F12402C0F8DC5005E0C0F8D85001F175
:1030A800180301F11C020026BAF1000FC8BF01265F
:1030B800DBF8044012681F68CDF800E07CB1354B9E
:1030C80053F82630BB6005FA06F30126BAF1000F63
:1030D800C8BF02260EFB06332344013B05E02E4BF6
:1030E80053F82630BB6000F1F6033B6043F6F074FA
:1030F8000191D1F8009004EB0516264009F1080E5D
:10310800C7F804E0BC683443BC600024BAF1000F7F
:10311800C8BF0124DBF808709FB16146DFF87CC0A6
:103128005CF824308C46936005FA04F30124BAF164
:10313800000FC8BF0224009901FB043139444C1E1A
:1031480005E0154951F8241000F1F4049160546029
:10315800C2F800E0916831439160C34504BF05EBB4
:103168000C01C0F8D01090F8FE10019A09B1BDE822
:10317800FC8FD9F8241041F00301C9F82410D0F8C5
:10318800CC00D2E904124068114300688162BDE8AE
:10319800FC8F00BF848300008C83000094830000B0
:1031A8002DE9F84F2DED028B9CB054EC105B9FED90
:1031B8004C0BD0F808B0884681462846214657EC83
:1031C800106BBBF1FF3FDCBF4FF0060BC9F808B02E
:1031D80032463B4601F044FF9FED430B00281CBFDD
:1031E8003C4635462846214644EC185B53EC102BE8
:1031F80001F01CFFB8BB9FED3E0BCDE900B9474677
:103208004FF0000A5BEC106B9FED3B0B55EC104B3D
:1032180058EC189B32465B464846414601F013FF7E
:1032280050B14846414622462B4604F02BF941EC62
:10323800180BAAF1010AEBE7DDE900B9B84656EC2C
:10324800187B22462B463846314601F016FF60B1FE
:103258003846314622462B4604F012F941EC180B49
:103268000AF1010AEBE74FF0000AB0EE480A03A89A
:1032780002AA5946F0EE680AFFF702FB029D0446CF
:10328800022D09D1204603F0EFFF204400210AF166
:10329800010A012500F8011C99F80C105046424615
:1032A80002F081FCD9F8082020462946434603F05D
:1032B800C9F9204603F0D8FF854206BFD9F80000B7
:1032C800C0F3C002012229464346204602F010F905
:1032D8001CB0BDEC028B01B0BDE8F08F00BF00BF91
:1032E800000000000000F0FF0000000000000000E7
:1032F800000000000000F03F000000000000244033
:103308002DE9F047012816D1DFF830A1DAF83401A9
:10331800012813D10220CAF8340103F02BFF012041
:10332800012403F051FA60B1CAF8344104F002F8FC
:103338004FF0FF347FE06FF001047CE06FF004048D
:1033480079E09AF85A419AF859119AF85801002CDC
:1033580018BF0124002918BF0234002818BF0434FC
:10336800012003F0CFFF013818BF01209AF8381167
:10337800B1FA81F1490910EA010902D1002001F0EE
:1033880019F9DAF808002E4D10F0010807D12D4F71
:10339800286A8168384688470428F9D00646404696
:1033A80004F00EF8B8F1000F08D1012E04D1286AF4
:1033B800012142682348904703F0B4FE2868416918
:1033C800204688479AF8540118B14FF4806003F0FA
:1033D8009FFF9AF8530118B14FF4816003F098FFEA
:1033E80019480121016003200021CAF83401174857
:1033F8000160204602F0D6FD0128FAD1144E30684B
:10340800042003F0E1F9044612480125B9F1000F40
:103418000560306802D1012001F0CCF803F0E7FF25
:10342800082003F0D1F90443CAF8345118BF4FF00B
:10343800FF3403F07FFF2046BDE8F08790040020AA
:10344800B801001000400340282008600C20084004
:103458002C2009400C400940B0EEC01A10EE100AAA
:1034680011EE101AB1F1994F0CD3B1F1FF4F84BF8F
:1034780030EE000A70474CA10028C8BF043191ED16
:10348800000A70473F4A914210D29FED3F1AB7EEAB
:10349800002A4FF0FF3330EE011AB4EE421AF1EE73
:1034A80010FA38DDB1F1665F35D2704702F538039E
:1034B80099420DD202F5A00399421BD2B0EE000A40
:1034C800BFEE002A002331EE000A31EE011A18E09F
:1034D80002F19E73994219D2B7EE080AB7EE002A94
:1034E800022301EE002ABFEE080A31EE000A80EE40
:1034F800020A10E0B7EE000ABFEE002A012331EEFF
:10350800000A31EE021A81EE000A04E0BFEE000A5A
:10351800032380EE010A20EE002A9FED1C1A9FED7E
:103528001C4A9FED1D5A914222EE023A03EE014ACF
:1035380023EE041A9FED174A03EE045A9FED174A2B
:1035480003EE054A22EE042A31EE021A02D200EEF8
:10355800410A70471249002801EB830191ED002AC6
:10356800104910EE012A01EB830191ED001A32EEA9
:10357800400A31EE400AB1EE401A48BFB0EE410AA7
:10358800704700BF0000E03ECAF249714712DABD39
:1035980098CA4CBE25AC7C3D0DF5113EA9AAAA3EA1
:1035A8001082000000820000DB0FC9BFDB0FC93F9B
:1035B8002DE9FC4191EA03084CBF4FF000484FF059
:1035C80000084FEA03354FEA153556006D4176007D
:1035D8006D414FEA43075FEA575711BF45F480052D
:1035E80000210020BDE8FC8140F2007E1EF1FF0EA4
:1035F800774578D04FEA01334FEA133342005B41F5
:1036080052005B414FEA4104640D11BF43F480034B
:1036180000210020BDE8FC81744564D0E41B002132
:1036280000205FF0370EAB4200D1B24205D34041D3
:103638004941921B63EB050301E040414941BEF15A
:10364800010E05D053EA020702D052005B41EAE7B7
:10365800BEF1200F09D2BEF1170F0CD3CEF120070F
:1036680020FA07F100FA0EF00FE0AEF1200E00FA92
:103678000EF1002009E001FA0EF1CEF1200720FA40
:1036880007F741EA070100FA0EF011F4800F06D19E
:10369800401C51F1000140004941641E02E0801CB9
:1036A80051F1000111F4000F1ABF641C21F400014C
:1036B80021F4800140F20037FF37E419DEBF002112
:1036C8000020BDE8FC8107F58067BC420BD24908A1
:1036D8004FEA300049084FEA300041EA045141EA14
:1036E8000801BDE8FC810020FF214FEAC101C91D86
:1036F8004FEA015141EA0801BDE8FC812DE9FF418B
:103708003B4E96F8420100286AD1012086F8420112
:1037180003F004FE374F86F87001374D7868C6F815
:103728006C01387B86F84101A86810F4402F13D14A
:10373800386988B128686421C0F3066000FB01F489
:1037480003F0BCFDB4FBF0F22C4906F19400002311
:1037580002F0E8FA03F0DEFC01AC204603F026FE96
:103768002749A846002506F10C00002203F060FD59
:10377800204603F01BFE234906F15000082203F0FF
:1037880057FD214A06F1D8003221002301F04EFDF1
:103798001E4C1F4A06F1F4002C21002325604546E3
:1037A80001F044FDD8F80800797BC0F3815021B1BD
:1037B800032804BF012186F83911032803D040F0FB
:1037C8000200022810D1206840F04000206002204A
:1037D80002F09AFF6868400702D4002002F094FFC4
:1037E800002004B0BDE8F08102F0C8FDF2E700BF98
:1037F8009004002024840000AC4F00508D7200001B
:10380800EB68000079600000D55500009022084060
:10381800212A00002DE9FE4FD0E90085994614467B
:103828000F46834613B10020C9F8000074B103F0B5
:10383800F1FC064698F8070058B198F8E80070B10E
:10384800304603F0CCFD6FF008046CE06FF009041B
:1038580069E0304603F0C3FD6FF00E0463E000201A
:103868000121C8E93B74C8F8F440C8F8FC0088F89E
:10387800E810C8F83C0088F80D0088F80B002846C6
:10388800019503F081FD304603F0A9FD08F1D0064B
:103898000DF1080A03F0BEFC04463046514602F01A
:1038A800F2FFD8F8F450D8F8FC10A842394438BFD1
:1038B800054602982A4603F0F1FD3046294602F0F3
:1038C80079FDD8F8F400D8F8FC10401BC8F8F400CB
:1038D8004819C8F8FC00204603F081FD012D03DBE0
:1038E800D8F8F4000028D5D103F094FC0746D8F89E
:1038F800FC0050B1019803F047FD584600F024FF42
:10390800D8F8FC0010B1002402E000206FF00F048A
:10391800B9F1000F18BFC9F80000002088F8E800C6
:10392800384603F05CFD2046BDE8FE8F2DE9F041E6
:1039380088B03C4E3C4F0B20741C2146B8473B4D89
:103948000B200121A84712203146B8471220002138
:103958000026A8470F202146B8470F200121A84775
:10396800334C1A202146B8471B202146B84743F656
:10397800982003F091FD30482E4F6C460021804678
:103988000D46022943D085F001003871F86910B15D
:1039980003F05DFDFE61204603F0DEFC00202146B9
:1039A8008DF81860CDF810808DF80C6002F0A0FB3F
:1039B800F86108B102F0DCFB1F20522101F0D0FDB4
:1039C80047F2305003F068FD002001F0B1FB691C9C
:1039D800AD28D5D1AD20194C38700120A04778709A
:1039E80002200226A047B8700320A04740F2023107
:1039F800FE71F870A7F8051002F068FD2A20012171
:103A080001F0AEFD2B20402101F0AAFD03E00020CB
:103A180001F08EFB38700020022D38BF012008B05D
:103A2800BDE8F0810004002027740000FD7000004C
:103A380002400020A407002040420F003951000036
:103A48002DE9F84F3C4C3D4E3D4D42F62A294FF0AA
:103A5800010A4FF0030B00274FF00508D4F83C018A
:103A6800062833D8DFE800F00433183B203D4B002C
:103A78000F20F060C6F8109002F0D6FB45F804ACB1
:103A880055F8040C8007FBD5C6F81CA094F839013A
:103A980090B10120EF6210E02F60C4F83CB12868B3
:103AA8008007FCD40320DBE72F60C4F83C8128683A
:103AB8008007FCD40520D3E70320C6F800B0C4F87B
:103AC8003C012F6029688907FCD4C9E7FEE7012675
:103AD800022084F83A6102F0EBFA2E6009E0022035
:103AE80000E0032084F83A01002002F0E1FA012006
:103AF800286004F15000BDE8F84F01F0C1BC002077
:103B080045F8040C286055F8040C8007FBD4286895
:103B18008007FCD40B480025012105600A48016094
:103B28000D2000F0D1FF022002F03EFDC4F83C5108
:103B380084F83B51BDE8F88F9004002000400C4009
:103B480058600C403C500C4004800C4000BF70474B
:103B580010B52DED028B044651EC100B40F2FF73AB
:103B6800C1F30A529A4216D0B0EE408AF0EE608A4B
:103B7800D2B921F00042024353D09FED2D0B53ECF4
:103B8800102B03F07FFC344A41EC180B944207DCFD
:103B98009FED290B3FE002460B46FEF7BEFC3EE0D8
:103BA800C1F30A50A0F13602101940F2FF72904298
:103BB8000FDB03F029FC222101609FED250B53EC5C
:103BC800182B51EC100BDA0F62F3DF7141EC100B7C
:103BD8002BE0012808DB6FF31E5141EA005052EC3C
:103BE800181B40EC181B1CE010F1360F0ADC03F020
:103BF8000BFC222101604CF251308442DDDA9FED4A
:103C0800120BDCE736306FF31E519FED0D0B41EAC6
:103C1800005152EC180B53EC102B03F033FC41EC21
:103C2800180BB0EE480AF0EE680ABDEC028B10BD26
:103C3800000000000000504359F3F8C21F6EA501B0
:103C4800000000000000903C0000000000000000A0
:103C5800000000000000F07FAF3CFFFFFEB5D0E998
:103C6800005401A803F036FA95F834003649374A6B
:103C7800384E085C95F83510515C354A084395F87C
:103C88003610515C2A6B40EA0103316820684F689E
:103C98000299B847206840F2F272E1692E4B2F4F23
:103CA800426494F854209A5C94F85530FB5C1A43AB
:103CB8000129426311D10146D4E90A2351F8307F22
:103CC800FF2A27F4004718BF07F50047FF2B0F60AE
:103CD80009D00A6842F4804208E0014651F8302FC2
:103CE80022F400420A600A6822F480420A60C16A2B
:103CF80041F01001C162016B41F001010163E16B08
:103D080009B3A16BF9B1012103F036F9D5F85801CF
:103D1800E16B40680068C162C0F8041591FAA1F12E
:103D28007268B1FA81F15368022298477068A16BF2
:103D380002224368D5F8580191FAA1F1B1FA81F14C
:103D4800406800689847FEBD8C89000052830000D7
:103D580046890000D0010010878900004B890000C7
:103D68002DE9F047A4B003F055FA33490A78012A3F
:103D780004D124B0BDE8F04703F031BB4FF001098E
:103D880081F8009003F02BFBFFF7B8FC082000F047
:103D980093FD21AC204603F081F9DFF8A0A0294A61
:103DA80010212346DAF80C002290254801F03EFA4B
:103DB8002548002501AE0478244890F8008047463D
:103DC800A74213D8DAF8000050F8271021F0FF00B6
:103DD80046F82700880707D4F8B201F0010103F07C
:103DE80089F909FA07F005430137E9E7184805603A
:103DF8001848C16801F44001B1F5800F07D1006887
:103E0800000E56F8201041F0070146F8201012481D
:103E1800A4EB0802042306EB880103EB820240EAC4
:103E2800880003F03BFB0D482022016862F30D2156
:103E3800016024B0BDE8F0872E0800202887000024
:103E480070040020255F0000A3880000A780000000
:103E5800D0200240A84F0050001008400030094010
:103E680010B510EE901A21F00042B2F1FF4F06D8BB
:103E780010EE100A20F00043B3F1FF4F02D930EEE4
:103E8800200A10BDB1F17E5F03D1BDE81040FFF7F5
:103E9800E3BA022404EA917444EAD07463B1B2F13B
:103EA800FF4F12D012B1B3F1FF4F18D1274961F378
:103EB8001E0000EE100A10BD022C0FD3032C14BFF5
:103EC8009FED250A9FED250A10BDB3F1FF4F14BFE2
:103ED8001C481D4800EB840090ED000A10BD9A1A9A
:103EE800D2151A2A03DD9FED190AC40F0EE0B1F1AD
:103EF800FF3FD8BF12F11A0F06DB80EE200AB0EEA2
:103F0800C00AFFF7A9FA01E09FED110A002CE5D0DD
:103F1800022C0DD0012C04BFB1EE400A10BD9FED5C
:103F28000D1A30EE010A9FED0D1A30EE010A10BD90
:103F38009FED081A30EE010A9FED071A31EE400A8C
:103F480010BD00BFF0810000E0810000DB0FC93F19
:103F5800000000002EBDBB33DB0F4940DB0F49C01A
:103F6800F8B5044603F0BEF807464568204603F056
:103F780031F8B8B1D7E9014603F04CF90546D4F851
:103F8800C000B8B104210174384600F095FED4F899
:103F9800C800B0B1014640690028FBD1D4F8C00080
:103FA800486112E003F036F90446D5F8C00078B34A
:103FB800103034E03068416821F002014160284641
:103FC80030E0D4F8C000C4F8C80041690027476150
:103FD800C4E93477C4E93677C4F8C01031B3204651
:103FE8003146FFF727F8D4F8C000C4F8E07000683D
:103FF800B0F5806F03D920463146FFF71BF894F8D7
:10400800FE0010BB3068416841F0020141601CE0CD
:1040180095F8FB00002102F05FFB05F1FC0001218F
:1040280001702046BDE8F84003F0D9B994F8FB00C8
:104038000021C4F8C47002F04FFB012084F8FC0092
:104048003068416A21F003014162284603F0C7F94C
:1040580004F13000BDE8F84001F050BC2DE9FC4106
:1040680091EA03084CBF4FF000484FF000084FEAB0
:10407800C32545EA52554FEAC2264FEA43077F0D4A
:1040880011BF45F0004500210020BDE8FC815FF428
:10409800E06E1EF1FF0E774555D04FEAC12343EA83
:1040A80050534FEAC0224FEA4104640D11BF43F058
:1040B800004300210020BDE8FC81744543D0E41989
:1040C800A3FB0501A3FB06E7A2FB06631EEB030E99
:1040D80057F1000751F10001A2FB05631EEB060E24
:1040E80057F1000751F10001FF1851F10001C01903
:1040F80051F100014CBF40F2004E40F2002E10EB8F
:104108000E0051F1000148BF641C01D44000494130
:104118005FF44077FF37E41BDEBF00210020BDE8D5
:10412800FC8117F58067BC420DD24FEAD02040EAE7
:1041380041504FEA41014FEA113141EA045141EA45
:104148000801BDE8FC810020FF21C900C91D09053F
:1041580051EA0801BDE8FC812DE9FC4706680446E0
:10416800707A00286BD0D4F80490D6F85801D0F8AB
:104178000480D9F83470204601F092FA706F20B3A9
:1041880006F14C05284603F079F9316F884221D2AF
:10419800307902281ED0B06E002850D0204601F099
:1041A8007FFA346F284603F069F9201AD6F868A018
:1041B800B46F7067284603F061F90021F1740AEBC7
:1041C800040108440190706F0CE0B06E10B1306FBC
:1041D8000028D5D106F14C0001A902F054FB0121B9
:1041E8007067F17458B30021B0F5806FB17384BF64
:1041F8004FF48060706701230199014401397960A7
:104208001049B96043F6F07101EB00100840B96835
:104218000843B860D9F83C10D9F8000091FAA1F227
:10422800B2FA82F203FA02F2D8F800309A61D6F8AC
:104238005821526812689162012102F0A9FEBDE876
:10424800FC8700BF0180000C2DE9F84315460C4699
:10425800804601F029F82C4800212D4F01602B4899
:10426800814600683868816927208847294E2A498D
:10427800306B08403063B06F20F48070B0673868E6
:10428800016B4FF4806088473868016B4FF4816098
:1042980088473868016B4FF4C06088471F48012180
:1042A80001601F48C6F8804131600168890704D45D
:1042B800691C08BF4FF04045C560D9F80000F06997
:1042C8008007FCD5072001F04BFE0228FAD1B8F18F
:1042D800000F13D1134C386A816820468847042898
:1042E800F9D0012804D1386A032142682046904752
:1042F800D6F8180220F00300C6F818023868806B58
:10430800BDE8F843004700BF0C4009402C20094095
:10431800B80100100C200840FFFFFEFE28200860AE
:10432800100009400040034070B52039062918D80C
:10433800DFE801F01A23042D3840480014780022E1
:104348002321FF2CF1D0D0E9015695F8FB0001F0AC
:104358002FFF726B2B49204685F8FB4000F054FA7A
:1043680049E06FF001044AE0406890F8F91001292B
:1043780043D1012180F8FC103DE04568002100246C
:1043880095F8FB0002F0A8F985F8FC4037E044688E
:1043980094F8FB00FF282ED001F00AFFFF2084F8D4
:1043A800FB0028E04068D0F8C01031BB012180F83C
:1043B800FE1020E04068D0F8C010F1B9002480F861
:1043C800FE401CE04168D1F8C020B2B191F8FE204F
:1043D8009AB180680268D0E90430546A184344F0FE
:1043E80003045462D1F8CC1049680968886250689F
:1043F80040F002005060002401E04FF0FF342046F6
:1044080070BD00BF026000202DE9F84302F002FFF2
:104418002F4F044697F84101002854D002F084FF3A
:1044280002F08EFF054600F00C000C2803D100BFF7
:1044380000BF30BF45E0680728D402F035F9DFF83F
:10444800948081460121D8F8000000FB09F601207C
:1044580002F0F6FC864219D9D8F80000F02107F1DD
:104468000C05B1FBF0F0A9EB00012846FEF706FAAF
:10447800284601F005F800BF00BF0120FEF740FF05
:1044880000BF00BF284602F0C7FF1CE000BF00BF06
:10449800280715D4104F114E386881683046884770
:1044A8000428F9D0B0FA80F005F01001400940EA7C
:1044B800111002F0DBFF0A4801210160006800E0EA
:1044C80030BF00BF00BF2046BDE8F84302F087BFF9
:1044D800900400201C080020D80100100040034070
:1044E8002C20094070B52548066802F0B9FA24481E
:1044F8000025244C0560206C806C804722480068A9
:1045080038B122480068B6F1FF3018BF304600F0D5
:104518002BFA1F4840F2391205601E48016862F301
:104528001B4101601C48016801F44051B1F5805FEE
:1045380006D10168194A114001F500320260016094
:10454800174D0126EE612068016A14208847154836
:10455800016841F4E021016013482E60006800F40E
:104568004000B0F5000F03D1206C416C0F4888471C
:104578000F4801680029FCD170BD00BF1C13005012
:1045880084046042B0010010800128438005204364
:104598008C2108404820034028000940EFFFFCFC1C
:1045A8000000244300200940B44F0050BD37860066
:1045B8000C00684270B5F8B1012858D1012002F00A
:1045C800A1FE012853D02D4C94F8380100284ED173
:1045D8002848294E0569306810F4402F30D17DB342
:1045E80002F0B6FB502002F01DFF0120A84704F19D
:1045F800940000F045FF25E002F036FF1E480068F1
:1046080010F4402F0AD11B4804693CB11B48943070
:1046180002F002FF02F08CFB0020A047174C94F830
:10462800380120B31648016821F08001016080211B
:104638008160032001F0B8FF002084F8380116E0FB
:1046480002F016FF012084F83801306810F4402F7A
:1046580000D14DB9207A800606D4094880218160AE
:10466800016841F080010160032002F04DF800204C
:1046780070BD00BF24840000B44F00509004002097
:10468800902208402DE9FE4F98B116468A4680468A
:1046980002F0C0FDDFF89C90834699F8000000BB4B
:1046A800254D2C274C2F06D0E81902F0CDFE0837EF
:1046B800F8E700263AE0002001276C466860A86009
:1046C800EF602870204602F0E9FCE0201C4A2346EF
:1046D80001901A48016805F1100000F0A7FD89F85B
:1046E8000070584602F07BFE164D002E18BF354666
:1046F800AF68781C08BF03270026032F16D840464A
:1047080002F0A2FE95E81E0008F10C001EC0C8F8D1
:1047180024604646C8F81470074800EBC7002C30E0
:10472800C8F80800D8F81800C8E907A03046BDE85E
:10473800FE8F00BF2C08002058070020F407002037
:10474800C76F000038870000F8B505680446D5F83B
:10475800F80000B1F8BD68796668022807D105F14C
:10476800D000694602F080FAC5F8F80009E0D5F8EB
:10477800EC10D5F8FC20D5F8F4001144C5F8F80081
:1047880000910028E6D031688A6B22F400628A63BF
:1047980095F84410C9060AD52F6C47B1297A31B962
:1047A800AB6C204610210022B847D5F8F800B0F5C8
:1047B800806F84BF4FF48060C5F8F8000099336BB0
:1047C80001444A1E3168B66B1A600E4A9A6043F675
:1047D800F07202EB001010409A6810439860D5F808
:1047E80058014068006886620846022102F0D0FB42
:1047F800287A0028AED120460121012602F06CF962
:104808002E72F8BD018000C02DE9F84FFF2831D085
:10481800264B0C4605464FF4BE21AF0004F00208B3
:1048280043EA80004158C9B2914227D121489A46AB
:104838004FEA142947EA0006834602F0EBFC0BF125
:104848000101220C86F8009039430A7046F00201F3
:10485800220E0A7002F0C3FDB8F1000F02BF45EA4C
:104868000A0004F0010101701148012181EA580190
:10487800384316E04FF0FF30BDE8F88F00F5BE2052
:1048880024F0FF0162B9B8F1000F02BF2B4304F016
:1048980001041C70064B012484EA58043B431C6045
:1048A800114301600020BDE8F88F00BF00200240DE
:1048B800001A4442011008402DE9F041254E0546F2
:1048C800371802F0A7FC044697F84A01411C87F8FC
:1048D8004A1128B1204602F082FD0020BDE8F0818F
:1048E800DFF8748018F8257007F03F00142898BF87
:1048F800FFF7E2FF08EB8500458878B2B0F1FF3F8B
:104908000CDD78061FD41548006841692846884799
:10491800284601F047FB0128FAD1DBE70F4E306843
:10492800C169284688473068416A28468847306800
:10493800C16A284688470A48012101600948016878
:104948008907FCD5C6E706EB8500D0F86011012081
:104958008847BFE7900400201C770000B8010010CA
:104968002820086028200840F8B505462248234E2C
:104978004168890705D40168F02242EA114186F8A6
:104988004D101F494FF001221F4F0A601D49098829
:1049980039680968846820468847A00105D4E00181
:1049A80003D5307840F002003070386821464268FC
:1049B8002846904702F040F81448154A0068C0F3AA
:1049C80005311170C1054FF0130158BF2321402351
:1049D8007354382101EA901000F56050A2F85C0089
:1049E8003868816820468847022001F057FC09484A
:1049F80001210160F8BD00BFAC4F005009620840BA
:104A080004A40C4000A00C40F00100100C1400504D
:104A18000EB00C40940460428B4208BF824207D912
:104A2800009A002A01D010605160002100207047D0
:104A3800002B08BF002A10D1009A002A01D010606C
:104A4800516002000B0000210020002B08BF002A43
:104A58001CBFC943C04301F064B9F0B51C461546F4
:104A68000B46024600200021B4FA84F6202E04BF2B
:104A7800B5FA85F62036B3FA83F7202F04BFB2FAC9
:104A880082F72037F61BB6F1200727BF05FA07F48F
:104A980000257F42B4403EBF25FA07F73C43B540A6
:104AA800A34208BFAA4201D3521BA3414041494136
:104AB8006D0845EAC4756408761EF1D5059F002F78
:104AC80001D03A607B60F0BDF8B5254F05463E1829
:104AD80002F0A0FB044696F84A01013886F84A011C
:104AE800000637D11F4810F9251000EB85004588CE
:104AF800CEB2B1F1FF3F0CDD70061FD41A48006832
:104B0800816928468847284601F02AFA0228FAD1FE
:104B18001AE0154F3868016A284688473868816A5C
:104B2800284688473868016B284688470F4801217E
:104B380001600F4801688907FCD505E007EB85008F
:104B4800D0F860110020884706F03F00142898BF6D
:104B5800FFF7BAFF204602F042FC0020F8BD00BF74
:104B6800900400201C770000B8010010282008607D
:104B7800282008402DE9F04102F04CFB254F8046E3
:104B880001210124D7F8900001F028FDA7F8A040E2
:104B98000646B868D7F89840B968711A201A88424A
:104BA80003D9002087F8A0002EE0404602F017FC49
:104BB800351B0026B54207D334440120AD1B2146DE
:104BC80000F03AFD0646F5E702F024FB804697F828
:104BD800A10020B10020214600F02EFD0646701CE1
:104BE80006D0D7F89C00711B814238BF084601E007
:104BF800D7F89C00011902F08BF8002087F8A00074
:104C0800012087F8A200BC604046BDE8F04102F0F0
:104C1800E6BB00BF700200202DE9FF470446E0B361
:104C280015460E4602F0F6FADFF87890074699F82E
:104C38000000A0B90DF10408404602F02FFADFF891
:104C480068A08020194A1421434602900AF1040002
:104C580000F0ECFA0120CAF8004089F80000384654
:104C680002F0BDFB0020E660124AE0626062C4E91F
:104C78000500E0610E48002D18BF28460023017882
:104C880021704168A1608168002002F0FDF9A062EE
:104C980020622061606002F0D9F9204604B0BDE8C6
:104CA800F08700BF2D080020C4070020516F0000C6
:104CB800F487000040420F00F8B5D0E901650446CA
:104CC800287902F007FBD6F8CC2069692868526871
:104CD8001268D16296F8F93013B9C368DB06FCD4C0
:104CE800436823F0020343602B69D3621943476A80
:104CF80027F003074762C2F80415416921F0010152
:104D0800416101210162D6E93512D6F8C00001607F
:104D18004AB1EB699B68C3F309139A4203D911445A
:104D2800DA4311440160D6F8DC204AB16B6A9B680B
:104D3800C3F309139A4203D9DB431A4411440160AF
:104D4800204600F07DFF287902F0BEFA2879BDE8F8
:104D5800F84002F0C5BAFEE72DE9F04391B00E46DF
:104D680021490446684600234FF00008324601F006
:104D7800BFFF701E10F1030F02D8684600F080FBD9
:104D880002F048FA194F054601200136E9467870C5
:104D9800E068A0B91EB14846FCF748F878B16068E9
:104DA80000B18047284602F01AFBB87818B102F023
:104DB800E9F987F8028002F02DFA0546E8E70020B5
:104DC8007870E06820B1E0680138E060002400E015
:104DD800FF24284602F003FB684602F077F860B229
:104DE80011B0BDE8F08300BF235F0000F807002082
:104DF8002DE9F04798B00027E9B3DFF884A006460C
:104E0800DAF81C00B8B391460D4601F0B1F909F182
:104E180002070FAC2046394602F057F90DF1180881
:104E28003946404602F051F90B2000218DF83D60CB
:104E3800CDE900748DF83C000020CDE90400CDE9EF
:104E480002800F2002F056F90A2002F025FBDAF85A
:104E58001C00694602F0FEFA07460A2002F01CFB15
:104E68000F20012102F046F92FB108F1020128466E
:104E78004A4602F013FB384618B0BDE8F08700BF79
:104E8800A4070020F8B5D0E90167054602F0C2F989
:104E98000446D6F8C00098B396F8F81019B9007C03
:104EA8000338012831D82846FFF706FFD6F8C00096
:104EB80000220223016805463DB12F7C033F022FE3
:104EC80028BF2B742A606D69F6E73246016052F8F4
:104ED800C81F21B10A4649690029FBD11432106064
:104EE8000020C6E93000C6E93400C6E9360020468D
:104EF80002F075FA06F13000BDE8F84000F0FEBC9B
:104F08003868416821F0020141602046BDE8F84058
:104F180002F065BA2DE9F84F214F83464FF001089A
:104F28004FF002094FF0000A7868A0B3F86801282A
:104F380031D178680324082121B1014203D14908FD
:104F4800013CF9E7002407EBC40000F12C063046C9
:104F580001F0C9FF0546304602F0F8F928B1796832
:104F680008FA04F021EA00007860A869296AC5F8FF
:104F7800249028625846B96002F031FAD5E9030155
:104F8800EA69904702F046F98346686A022808BF32
:104F9800C5F824A0C8E700203870BDE8F88F00BF26
:104FA8005807002010B51148114CA0471148A047D8
:104FB8001148A0471148A0471148A0471148A047E9
:104FC8001148A0471148A0471148A0471148A047D9
:104FD8001148A0471148A0471148A0471148A047C9
:104FE80011482146BDE81040084700BFDD780000A1
:104FF800B96A0000237C000022790000A87900002B
:10500800AC7A00003B7D00006A7B00000E7E000049
:10501800D77E0000A87B0000747E0000417E00005F
:105028000F800000798200000E78000010B541EC76
:10503800100B43EC112B00F031FC002801D00020AC
:1050480010BD012010BD10B541EC100B43EC112B25
:1050580000F024FC002801DB002010BD012010BD59
:1050680010B541EC100B43EC112B00F017FC002895
:1050780001DD002010BD012010BD10B541EC100B62
:1050880043EC112B00F068FC002801DA002010BD69
:10509800012010BD10B541EC100B43EC112B00F0B2
:1050A8005BFC002801DC002010BD012010BD70470A
:1050B80070B50568D5F8F81031B3D5F858214468AB
:1050C8005668A16B20683268D162022101F054FF52
:1050D800D5F85801A16B154A40680068C0F8041556
:1050E80091FAA1F112683068B1FA81F1926990479A
:1050F8000446D5F8F800011B6879022806D105F1A5
:10510800D00001F0A9FB0BE000240CE0D5F8F40076
:10511800D5F8FC200A44401AC5F8FC20C5F8F4006C
:105128000020C5F8F800204670BD00BFD40100106B
:10513800B0B588B01D4D0446E86990B301F018F881
:1051480000200B218DF81E408DF81F008DF81C00E3
:10515800ADF81A000590CDE903000DF11A008DF89D
:105168001D10002102900DF11D00019003200090F8
:105178000F2001F0BFFF0A2002F08EF9E8696946A6
:1051880002F068F904460A2002F086F90F2001218E
:1051980001F0B0FF9DF81C00002C08BF4FF0FF3055
:1051A80000E0FF20C0B208B0B0BD00BFA4070020D7
:1051B800F0B587B0194E307868BB194C204602F01C
:1051C80043F900200127A060C4E92670C4F89F00B5
:1051D800C4F8947003AD284601F0ECFF4FF0FF309F
:1051E80010492A46059004F10C00FFF74BFA6D466A
:1051F800A064284601F0E6FF70680B492A46029031
:1052080004F15000FFF708FDC4F8900001F03DFDDF
:10521800C4F89C00377007B0F0BD00BF1808002024
:10522800700200207D4B0000B9720000FEB568B125
:105238001E460D4604465BB17068C1B2FF2910D006
:1052480015490968A9420ED0E0280CD1002421E0B4
:1052580001206E468DF808004FF0FF3001900020C5
:105268000090C02070600D480D4940F82540306816
:10527800C4E90052A060284601F034FB094F317997
:105288003868826828469047307A18B138680169CA
:10529800284688472046FEBDF40700200406002063
:1052A8002D6E0000B001001010B51748016889077D
:1052B80026D417480468A00221D41648006800685C
:1052C8008047C0F13E000722C1100729B8BFC210AD
:1052D800012000EB24718A42D8BF0A460E490968AA
:1052E800C1F30321891A0F29A8BF0F210129D8BFAB
:1052F800014641F0F000094981F84D00087810BDD9
:105308000249C16010BD00BF10000940FD00004007
:10531800B44F0050EC0100100C1300500D6208400F
:105328002DE9F041D0E901480546D8F80000416868
:1053380021F002014160204601F066FDD4F8CC005E
:1053480001F0A8F804F1300001F050F894F8F800E2
:1053580018B904F16C00FFF7AAFED5E901750D4EE6
:1053680095F83800B04795F83900B04795F83A00F5
:10537800B04797F8FB00B04798F80C00FFF7A4FB7C
:1053880004F11C0001F0F4FC002084F8FD00BDE8E5
:10539800F08100BFB9610000F8B5054616484BF228
:1053A800F521174E006800FB01F714483C0A006815
:1053B80000F44020B0F5802F10D112480068800317
:1053C8000CD4F0680068804700F010FF3168C968A5
:1053D8008847C010390B484304EBE0342DB90A481C
:1053E800006820F07F40204444083069416C204622
:1053F800BDE8F840084700BF08400C40B44F0050D3
:10540800E00100108C13005010200940F0B540F660
:10541800FF7C10F8013B0024082CFAD00646DF0771
:1054280016F8015B0DD1477807F00F060336122EE8
:105438000DD190F90220D6B2B2F1FF3F09DD033059
:105448000DE001F8015B304601345B08E4E7023007
:1054580006E0C27806F07F06043046EAC216123625
:105468003F0947EA0512624508BFF0BD2A013A44E0
:10547800D543002EE8D04A5D013E0A700131F8E7B5
:10548800F8B5054601F0C6FE184E044696F8A20087
:1054980080B196F8A00068B9D6F8900001210127DC
:1054A80001F09CF8B168D6F89830B268411A9A1A97
:1054B80091420CD901F036FB01212975AA681044E4
:1054C800E86096F8A00060B186F8A11009E02F7591
:1054D800AA681118181A8242E96002D2104601F02F
:1054E80017FC2046BDE8F84001F079BF70020020A3
:1054F8002DE9F0411C4617468846054601F0B4FEE2
:10550800B8F1010F01DB804501DD002102E005EB68
:105518000801013927B12268531E23602E23137016
:1055280030224346834205DD2768013B7E1E266004
:105538003A70F7E74045B8BF8046B8F1010F08DB7D
:10554800A9420BD3226811F80109531E2360107079
:10555800F6E72068411E216030210170BDE8F08126
:1055680070B588B0184E0446F06958B30D4600F07F
:10557800FFFD0A2000218DF81F508DF81E408DF880
:105588001D0000208DF81C00ADF81A000590CDE92B
:1055980003000DF11A0002900DF11D000190032087
:1055A80000900F2001F0A6FD0A2001F075FFF069B8
:1055B800694601F04FFF0A2001F06EFF0F2001211C
:1055C80001F098FD08B070BDA4070020B0B5174CD5
:1055D8006068216801EA000521EA00026806226085
:1055E8001DD51348006800F44000B0F5000F03D142
:1055F8001048006800F0BEFF042001F083FE811E01
:10560800022905D200F0BAFE022000F0CDFF03E027
:10561800012808BF00F0B2FE202001F0D5F82806C6
:1056280048BF00F033FBA560B0BD00BF9022084022
:10563800B44F0050240800202DE9F047174E0546C6
:105648008946304601F016FF04464FF0FF384FF008
:10565800000AB4421FD02046274601F00DFF044639
:10566800387D0028F5D065B1F868484509D1386912
:1056780010B14844F86001E087F814A0D7E9061093
:105688008847387D0028E4D0F868A0EB0900404539
:1056980038BF8046DDE74046BDE8F087700200204D
:1056A80070B50468616F59B3D4F8582145685668D5
:1056B800E96B28683268D162012101F05DFCD4F8F9
:1056C8005801E96B0F4A40680068C0F8041591FA60
:1056D800A1F112683068B1FA81F192699047616F5F
:1056E800091AE07C20B104F14C0000F063FE05E0EB
:1056F800206FA26F401A20675018A06700206067CB
:1057080070BD00BFD4010010B0B504460020164D8E
:10571800206051EC100B21F00042AA421ED852EA38
:1057280000031BD00023B3EB125F0BD151EC100B1D
:105738009FED0B0B53EC102B01F0A4FE21F000425F
:105748006FF0350303EB1252A2F2FE32226005F528
:1057580000121140054A114341EC100BB0BD00BFC7
:105768000000000000005043FFFFEF7F0000E03F13
:10577800B0B5134D0124E86B016801208847012862
:105788001BD028683C21012200230024C5680D484D
:10579800A84790B100F0D6FD0B480C490068D1E944
:1057A80000238860C01A0A4BA2EB92025843B2EB5E
:1057B800104F98BF020C01240A602046B0BD00BFFC
:1057C800A401001000A00C4030200940E40700208C
:1057D80040420F00B0B51448144D807B95F839113C
:1057E800084306D001F016FD95F83B1121B101F0F0
:1057F800F6FD00242046B0BD012485F83B4101F0A8
:10580800EEFD022000F080FF0D20FFF755F8084854
:1058180001680029EED1074940220A604A60002148
:1058280085F83A11C461E4E724840000900400205C
:1058380004800C4038500C402DE9FF41144DD5E947
:1058480000673879FFF738F801F0E4FC044630784F
:10585800B0B90DF10408404601F020FCB879797917
:105868000C4A434601950290301DFFF7DFFC38686B
:105878004FF0FF31C16208498160012131704160F8
:10588800204601F0ACFD024804B0BDE8F08100BF3D
:10589800A4880000DD73000000180020F0B550EC6B
:1058A800101B154D20F000444A4275EB040206D344
:1058B80052EC113B22F000465F42B54101D2012073
:1058C800F0BD43EA010534432C4304BF0020F0BD7A
:1058D80012EA000406D4CC1A70EB020406DA4FF080
:1058E800FF30F0BD5C1A72EB0004F8DB5940504001
:1058F800084318BF0120F0BD0000F07FF8B5054649
:1059080001F088FC0446686A01280FD06869104FC6
:10591800012629466E6207EBC0002C3001F048FAD8
:105928006869796806FA00F008437860084D2878B5
:1059380040B9E868012805D10648006801F0D6FC9E
:10594800012028702046BDE8F84001F048BD00BF9E
:1059580058070020F4070020F0B550EC101B144D38
:1059680020F000444A4275EB040214D352EC113B78
:1059780022F000465F42B5410DD343EA01053443A6
:105988002C4304BF0020F0BD12EA000406D4CC1A50
:1059980070EB020406DA4FF0FF30F0BD5C1A72EBD0
:1059A8000004F8DB59405040084318BF0120F0BDFF
:1059B8000000F07F2DE9F0410646FFF7F9FB114F93
:1059C800D7F8900001F0CEFC04460F480D4641F28E
:1059D800C6084068C0EB0011B14207D8A0EBC0016F
:1059E80006EB4101B1FBF0F001F04EF8E6FB08458B
:1059F800D7F8900001F0B6FC001B71EB0500F7D357
:105A0800BDE8F0817002002018080020F0B585B0CC
:105A18000B4600216A460A2405468DF8131002F148
:105A2800120195FBF4F606EB8607A5EB4707002F56
:105A380048BF7F4230370935122D01F801793546C4
:105A4800EFD8B0F1FF3FDABF2D2008700131541AAA
:105A5800184604F1140201F021FD04F1130005B009
:105A6800F0BD2DE9F041ADF5027D0C468168054693
:105A78000DF10A00B1F1FF3FDCBF0621A960D4F89F
:105A8800008001AAFCF7FCFE019FAA68234606468F
:105A9800394600F0D7FD206839462346804506BFC1
:105AA8002868C0F3C00201223046FFF721FD0DF53A
:105AB800027DBDE8F0817047B0B500F0DDFD0E4C09
:105AC8000E4D1420611CA8470A202146A84709202A
