:100000000040012061470000D14C00000F4B000070
:10001000CB4C0000CB4C0000CB4C0000000000009B
:10002000000000000000000000000000CB4C0000B9
:10003000CB4C000000000000CB4C0000CB4C00007B
:10004000CB4C0000CB4C0000CB4C0000CB4C000054
:10005000CB4C0000CB4C0000CB4C0000CB4C000044
:10006000CB4C0000CB4C0000CB4C0000CB4C000034
:10007000CB4C0000CB4C0000CB4C0000CB4C000024
:10008000CB4C0000CB4C0000CB4C0000CB4C000014
:10009000CB4C0000CB4C0000CB4C0000CB4C000004
:1000A000CB4C0000CB4C0000CB4C0000CB4C0000F4
:1000B000CB4C0000CB4C0000CB4C0000CB4C0000E4
:1000C000CB4C0000CB4C0000CB4C0000CB4C0000D4
:0800D000CB4C0000CB4C0000FA
:1000D800A4B004F0B1FB04F0DEFD01F095FE03F0DE
:1000E800E7FCDFF8EC55152001210126A8471E2062
:1000F8000121A8470F200121A8470B200121A8476B
:1001080016200121A84718200121A847A64804F075
:10011800D6FD0EAC204604F063FD022021464FF0C8
:100128000008ADF838004FF4E1301490002001F0D9
:10013800E9F8DFF8A075DFF8A4A57860DFF898057E
:10014800D047DFF89C05D047DFF89805D047DFF89F
:100158009805D047DFF89405D04706AC204604F050
:1001680021FD924821468DF830608DF824800A9050
:10017800002003F0FFFC8E4C0028B86044D0162005
:100188000021A847DFF8686541F28830B04716209B
:100198000121A847DFF85C0504F0C4F92046B04700
:1001A80018200121A84744F62060B047DFF8480529
:1001B80004F0B8F9DFF844457E4D0027022F2BD014
:1001C800E65D2946304604F046FD3046012104F03C
:1001D800E3FB322004F073FDDFF8F80446701120C9
:1001E80003F00EFA642004F06AFD8DF87480012093
:1001F8001DA902F0E3FD9DF87400A0F1FF0111F1C3
:10020800FE0F18D20137D9E7DFF8800504F08AF924
:10021800204604F054FDFBE7DFF8F80404F082F907
:10022800DFF8B08498F8010003F064FADFF8A80456
:1002380004F078F921E0DFF89C8488F80200DFF800
:10024800C00488F80160D047304603F053FADFF85D
:10025800B404D04798F8020004F00CF898F802109B
:10026800DFF8A404DFF8A424532908BF0246DFF806
:10027800A004732918BF1046D04798F802005446C6
:100288004FF0000A0138FE284FF0000038BF012067
:1002980088F803000120039001F0B0FCDFF878042F
:1002A800A047DFF87804A047DFF87404A047DFF818
:1002B8007404A047DFF87004A047DFF87004A04773
:1002C800DFF86C04A047DFF86C04A0479FED3AAA5A
:1002D8009FED3ABA9FED3ACA1DA89FED3ADA9FED15
:1002E8003AEADFED3A8ADFED3A9ADFED3ABADFED26
:1002F8003ACADFED3ADA0DF1170542F6DF66F3EE9A
:1003080009AA4FF0000B4FF0000900F10D0100F1B0
:100318000C040020B0EE4C9AB0EE4B8AF0EE4AEA9C
:1003280000910190D8F804008DF817A0CDF810A01E
:100338002946012204AB04F029F920BB049810B324
:100348009DF81700A0F13101032905D8DFE801F075
:1003580002120E1001200EE0412801D061280CD1B4
:10036800DFF8D40304F0DEF8012007E0032002E000
:10037800042000E0022001F041FC0020714604F056
:10038800DEFA8E460390D8F80800002800F0C880EE
:100398000027172004F066FA10B3B74220D82820A7
:1003A80004F08DFC2837F4E7A086010090D0030004
:1003B80040420F00010400200050C3470050C3C74B
:1003C80000000000D9EF443D000048440000DCC2B2
:1003D800E17A143E0000964300606A460000FA4540
:1003E8008DF870A0CDE91AAAC4E900AAC4F808A03B
:1003F80017A800211F901AA88DF864A0CDE917AAA4
:100408001E9009201D9098F8010004F0C5FA0A20F2
:1004180004F055FCD8F808001DA904F02EFC074686
:100428000A2004F04CFC98F80100012104F0B4FA09
:10043800002F75D09DF95F009DF85C209DF8613014
:100448009DF8637009F10109C1B202929DF860201C
:10045800002843EA014141EA022848BF08F17F48E1
:1004680000EE108AB8EEC00A60EE0DFAF4EE48FA13
:10047800F1EE10FAF4EE6EFAC8BFB0EE6F8AF1EE44
:1004880010FA48BFF0EE6FEA9DF962009DF864200B
:10049800C1B2002842EA014141EA072748BF07F1F3
:1004A8007F471420B9FBF0F000EB8000A9EB800037
:1004B800002866D1A14804F035F8F5EE40FAF1EECF
:1004C80010FA02DB9E4804F02DF8BDEEEF0A10EE9C
:1004D800100A04F0CDF89B4804F024F81DA81B214D
:1004E800202204F03FFA8FEE8E0A7C208DF88DA032
:1004F8008DF88000BDEEC00A10EE101A11F10C0F35
:100508000846D8BF6FF00B000C28A8BF0C200129A3
:100518000BDB0099232270B101F8012B0138FAE7AF
:100528004FF47A7004F0CBFBFCE6B1F1FF3F4FF0DB
:10053800230340F3A48000EE107A8348674FB8EE97
:10054800C00A20EE0DFAB8471DA8B8477F48B8473B
:100558007F48B847B5EE40FAF1EE10FA02DB78486A
:1005680003F0E0FFBDEECF0A10EE100A04F080F8A9
:10057800784803F0D7FF404604F07AF8564803F06D
:10058800D1FF4FF4FA7139EE2F9A0BF1010BB9FB39
:10059800F1F000FB119010B1DFF83881C2E66E4827
:1005A8004E4FB847DFF82C816C4998F8000051F895
:1005B8002000B8476A48B84738EE6E8AB0EE480A55
:1005C80002F090FE6748B84700EE10BABBF1000F82
:1005D800B8EE400A89EE009A08BFB0EE4C9AB0EE29
:1005E800490A02F07FFE6048B847029803F042FECD
:1005F8005E48B84798F8000003281CD0019F0228DD
:1006080012D001285A4827D15F4AB4EE6C8A5D4956
:10061800F1EE10FAB4EE6D8A104648BF0846F1EEC6
:1006280010FAD8BF104617E0B4EE6B8A5448F1EEC2
:1006380010FA11D412E04F4803F074FF9FED4E0AF0
:1006480089EE000A30EE280A80EE290A30EE2A0ADE
:1006580002F048FE4948019F03F064FF1E4803F07A
:1006680061FF0398C0071ED00F2F17D00A2F10D094
:10067800052F1DD1022001F0C1FA062012E00B213E
:10068800A1F10C028242FFF656AF1DAA535401395C
:10069800F6E7032001F0B2FA0B2003E0042001F092
:1006A800ADFA10200190704604F049F9864639E603
:1006B800172F02D201370197F5E7012001F09EFAC2
:1006C8000020714604F03BF98E4601902AE600BFEF
:1006D800A1490000C4070020C14F00002D450000BB
:1006E8007F4F0000AD51000072510000B54E000070
:1006F800C74C0000E251000004500000CA5200003C
:100708009C5300002855000090540000BC53000082
:10071800DB530000214E00003D4F000081500000D7
:1007280036510000FA500000BE500000435000004F
:1007380047520000F94E000015540000945500007F
:1007480001560000E7550000FD5500002E5400003A
:10075800C855000088550000FA530000BC5400003A
:10076800F554000038550000485500005655000063
:100778006D4E0000A452000000007A449F5500000E
:10078800804D0000D24D0000765200001552000046
:100798002DE9FE4F074608680024B0B1D7E9018A61
:1007A8000E4604F071F98146D8F8E800082888BF99
:1007B8000124B068204202D17068204208D003208A
:1007C8003074484604F02CFA00242046BDE8FE8F19
:1007D800D8F8C01069B198F8F8100029EFD00621B0
:1007E8003174D8F8C410C8F8C4604E6198F8FC1089
:1007F8000DE000210522C8E93066C8E93411C8E9CE
:10080800361198F8FC10002908BF01223274002222
:100818000129726109D102204FF4E02188F8FC0017
:1008280098F8FB0003F028FC706889490138884271
:1008380005D8042003F038FC062003F035FC02201C
:1008480003F032FC98F8F80040B9DAF83C00316857
:10085800814203D298F8FC0000286CD0D8E9361001
:1008680009B118B900E028B304F0E6F9DAF8000095
:10087800416941F001014161484604F0D1F998F815
:10088800F80008B10124A0E708F16C05D8F8EC10CD
:10089800284602F0B7F90028F4D0D8F8C0000321A0
:1008A8000174384602F0FAF928460021002402F0C3
:1008B800A9F98AE79AF8040004F038F9654CDAF8DF
:1008C80010100222206991FAA1F1B1FA81F143686E
:1008D800D8F8CC004068006898472069DAF8141006
:1008E80002224368D8F8CC0091FAA1F1B1FA81F15B
:1008F8004068006898479AF8040004F011F99AF8DB
:10090800040004F019F904F097F90020C8F8E00091
:10091800D8F8C0000068B0F5806F01D904F08CF9F0
:1009280098F8FE000028A1D1DAF80000416841F0EB
:10093800020141609AE798F8F90020B1D8F8EC0074
:1009480001307FF48BAF484604F06AF9B2683AB1D7
:10095800D8F8E8000221092838BF0121009103E0F6
:1009680008F1F40200200090746834B1D8F8E80067
:100978000227092838BF012702E008F1F6040027FA
:10098800DAF80000334D416841F002014160D6F8C1
:1009980000B0D946BBF1000F40D0D8F8E80001926A
:1009A80009284FF0010011D22A68B9F1000F1FD0B1
:1009B800C0071DD02178DAF8000092689047002817
:1009C8001EBF3C44A9F101090120EDE72A68B9F1ED
:1009D800000F16D0C00714D02188DAF800009268FA
:1009E800904700281EBF3C44A9F101090120EDE70A
:1009F800DAF80000D26802A99047DDE901201070FA
:100A080007E0DAF80000D26802A99047DDE9012082
:100A180010800098ABF1010B0244BBE7D8F8F00056
:100A2800DAF80010CA680240102802D1002AF9D169
:100A380001E0002AF6D0706803F062FDD8F8C01013
:100A48000020C8F8C400C8F8C00008741AE700BF3E
:100A5800FEFFFF0FC40100102DE9FC47D0E9005844
:100A68008246D8F80000D0F8409019F4F06FC0F82A
:100A7800449035D05FEA495117D5D5E91401411A98
:100A8800504603F0CBFBD8F800008169C90605D4AD
:100A980001688DF807109DF80710F6E729680131FD
:100AA8002960A97B09B90121A973696C40684FF0D5
:100AB800004600F00F0404EA0100B0FA80F126FABB
:100AC80001F1014005D02F6C1FB12A68AB6C50466C
:100AD800B847B4FA84F026FA00F020404042A863F0
:100AE800D5F85801D8F83C1009F04007406800686C
:100AF800D0F804251140394347D0DAE9006450465C
:100B080002F05AFCD7B1F07C90B90BE0316F69B1B3
:100B18000068B16EB26F8854306FB16F013101381F
:100B2800B167306720688169C906EFD5F07C28B1C4
:100B3800D6E91401411A504603F070FB96F8640098
:100B4800E0B13079022819D017B1B179012901D063
:100B5800316F99B90024B16E0128346786F8644072
:100B6800B46607D1B36CB26FD6F8CC605046009427
:100B7800B04703E006F17C0003F01CF8504601F092
:100B880041FAD5F858014068006800F2045000683E
:100B9800D8F83810084228D0D5F8F80028B3DAE990
:100BA8000076504602F052F9504601F023FD78795C
:100BB800012812D1D7F8F40078B997F8E80060B1A5
:100BC800002087F8E800BB6CD7F8EC10D7F8FC20B9
:100BD800D7F8504100905046A047D7F8F80020B900
:100BE8003068816B41F4006181635FEA095023D565
:100BF800D8F8000081690907FCD4016B21F48071E1
:100C08000163297A91B10020287295F84400800682
:100C180006D52C6C24B1AB6C504620210022A0478D
:100C28005046012103F051FBD8F80000816B21F4F4
:100C380000618163687908B1BDE8FC8705F58070BB
:100C4800BDE8FC4702F0B6BF2DE9FE4FD0F80080A2
:100C5800994614460E46824613B10020C9F8000092
:100C680003F012FF834698F8070038B198F864003B
:100C780048B103F0FCFF6FF00805B4E003F0F7FF9C
:100C88006FF00E05AFE0002C4AD0504602F094FBFE
:100C980000200121C8E91A64C8F87040C8F8780033
:100CA800C8F8380088F80C0088F80A00504688F818
:100CB800641003F0F5F8504601F0A4F908F14C046B
:100CC80002AD2046294603F03FFCD8F87810D8F842
:100CD80070707218B84238BF0746029910463A46F3
:100CE80003F0F0FF2046394603F03EFAD8F87000CA
:100CF800D8F87810C21B3944012FC8F87020C8F8FA
:100D0800781001DBB842DCD198F8041002290CD124
:100D18000020C8F8680088F86400C8F870001CE073
:100D280003F0A5FF6FF009055DE0B84215D100207A
:100D3800D8F86860012988F86400C8F868000CD100
:100D48000124584688F8104003F06AFF98F80F000D
:100D580000284BD003F098FE834603F088FF98F8EC
:100D6800040008B100252FE0D8F8701008F17C00C5
:100D780031B30C9901F046FF10B1012088F80C003E
:100D880003F082FE0446504602F016FB0020C8F825
:100D98006800C8F8700088F86400504601F032F91D
:100DA80098F80A6098F80C50204603F039FF002D97
:100DB80018BF6FF00C05002E18BF6FF00D0503E08B
:100DC8000021002501F01EFF03F05EFEB9F1000FBF
:100DD80007D098F8041001291CBFD8F87810C9F872
:100DE800001003F01DFF2846BDE8FE8F002598F887
:100DF80010000028AED003F047FEA8F80F4003F01B
:100E08000FFFD8F84830D8F87820D8F8CC7050467A
:100E180031460095B84788F80F50E8E72DE9FE4FAE
:100E2800D0E90198D8F80010CA690A62D20740F0E0
:100E3800AF80D8E904014FF0000A4FF0000B0843D7
:100E4800D9F8CC1049680968C1F8040509F13000DF
:100E5800029009F1C8000190BBF1010F00F2A180D6
:100E6800D9F8C000002800F09C80D9F8E010DC22F6
:100E7800D9F8CC702023002908BFD82208BF18232E
:100E880058F803404FF0240308BF1C237F68D8F8A4
:100E9800146058F803303F68D7F80455354211D02C
:100EA800A46864070ED10468D9F8D050A54209D1C6
:100EB80044693CB9D8F80040656A25F002056562C6
:100EC800C7F804659B685B0702D00BF1010BC3E709
:100ED80059F80230002BF8D049F802A0B1FA81F194
:100EE800D9E934424909006849011A448442C9F8D9
:100EF800D420C9F8E01028BF82420CD248464146A7
:100F080000F07CFB99F8FE000028DED003F0D2FC4C
:100F180018BF8862D9E703F0B7FDD9F8C820D9F817
:100F2800C010019B81F810A022B113465269002A13
:100F3800FBD114331960C9F8D4A04A69C1F814A0C8
:100F4800D9F8E01000294FF0DC01C9F8C02008BF2B
:100F5800D82159F80110C9F8D01003F061FED9F86A
:100F6800C00058B14846414600F048FB99F8FE00D9
:100F780050B103F09FFC18BF886205E0D8F8000064
:100F8800416A21F003014162029802F0DFFA9CE70E
:100F9800D9F8C0203AB103211174BDE8FE4F01F021
:100FA8007DBEBDE8FE8F486820F002004860486AB0
:100FB80020F003004862D8E904021043D9F8CC2095
:100FC80052681268D062C2F80405486920F001002E
:100FD8004861012008624046BDE8FE4F03F0EDB9C4
:100FE800B0B560480021604C016094F83A010328CC
:100FF80012D002282ED0012840F0AF8094F840018A
:1010080002F058F8002084F840015948817B0220FA
:10101800002908BF06209EE054480168B1F5C06069
:10102800C4F82C01B8BFC1F5C060D4F8101100296C
:1010380000D5494288422ADDD4F8140103F006FAA3
:10104800D4F8180103F014FAD4F8280103F034FA9C
:1010580001201DE04548056803F0B6FCC4F81401FA
:1010680003F0BAFCC4F8180103F0BEFCB5F5C06182
:10107800C4F82801C4F8101109D094F830215AB1E5
:10108800D4F81401D4F82021D4F82C110AE0002057
:1010980084F8300106205EE0C4F82401D4E9450252
:1010A800C4F82C110223C4F81C01002901EB4101EA
:1010B80048BF6FF001031944042391FBF3F1114475
:1010C8000029C4F820110FDD1F2931D3D4F82421B9
:1010D8002AB33E28A8BF3E2001302929A8BF2921CC
:1010E800C4F81C010B3909E0D4F82421032A09D1DA
:1010F80011F1140FD8BF6FF013011531C4F8201186
:10110800002113E00128D8BF0120013811F10A0F8E
:10111800D8BF6FF00901C4F81C010B3103E0332973
:10112800A8BF33211539C4F820110321C4F82411AC
:1011380003F08CF9012003F0ADF9D4F8200103F095
:1011480097F9D4F8240103F0B7F9A5F2FF51042068
:10115800032938BF0620C4F83C01BDE8B04000F0C0
:10116800C7BC00BF3C500C409004002008400C4015
:10117800D05400002DE9FF47D0E901590E46044636
:1011880003F082FC95F8FD1021B97169102901D886
:10119800032906D803F044FD0024204604B0BDE826
:1011A800F087012785F8FD7003F03AFD00204E4ACC
:1011B80085F8FC00C5E93000C5F8C80085F8FE00D0
:1011C8003069C5F8E4007069C5F8E800307B85F837
:1011D800F9000028317885F8F8107168C5F8EC1026
:1011E800B9F80E10A5F8F610317E52F8211085F8DE
:1011F800FA1008BF1027C5F8F07099F80C0001F034
:10120800B1FA204602F0ECFA99F83B00374985F824
:10121800FB008A46D4E901873A6B97F83A0001F057
:1012280049FA7A6B98F8FB00514601F043FA98F8AE
:10123800F91097F83800012915D1FA6A514601F0DA
:1012480039FABA6A97F8390046F2020101F032FA1F
:1012580098F8FB00264903F039FA98F8FB00214674
:1012680003F00AFB0AE0BA6A46F2020101F022FA28
:10127800FA6A97F83900514601F01CFAE8464046E8
:1012880003F054FB99F805001A4A4346CDE900409B
:10129800284699F8041001F057FE404603F0D4FBA5
:1012A800D9F80800144942460094029005F130002C
:1012B80001F03EF902F018F9104AC5F8CC0005F122
:1012C8001C000421234603F009F995F8F80008B139
:1012D800B06805E005F16C00002103F0B9F9084891
:1012E800C5F8BC0059E700BF605400000260002048
:1012F800111F0000250E000081380000F54B00008A
:10130800514C0000FEB504465A480078A04213D953
:1013180008780D46012801D1686868B16878012805
:1013280001D1A86840B1544F57F8346003F0ACFBC2
:10133800F17921B103F074FC00242046FEBD07EBCF
:10134800C40401216768F17103F06AFC002005F10B
:10135800040C7074F081B06030602988B180A98B6A
:10136800C6E93D00C6E90E0086F86400B186297D0D
:101378002B69B1719CE80610C6F85021BCF1000F2A
:10138800C6E910C34FF0FF32C6F8CC10A969C6E908
:101398003B203163A97F86F83610296AC6E91A000E
:1013A800C6E91C00B16486F8E800C6F8580102D105
:1013B8003249C6E9101097F8400001F0D3F9D7E98F
:1013C800031206F14C0003F037FBD7E9051206F1CA
:1013D800D00003F031FB2A4938680968C968884792
:1013E8007A6C97F8240046F2020101F063F9254D62
:1013F800BA6C97F82000294601F05CF9F8690128D1
:101408000CD1FA6C97F82800294601F053F93A6D87
:1014180097F82C0046F2020101F04CF902F064F84A
:10142800C6F85801204600F06DFC174A06F5AE7064
:101438000421234603F052F86D46284603F076FA55
:10144800387A7968114A2B460094019006F1140005
:1014580001F07AFD06F17C00002103F0F9F806F5A9
:101468008070002103F0F4F83868D7E90C12106096
:10147800486062E704560000A8550000EB390000F8
:10148800D001001002600020F9480000610A000045
:101498002DE9F84FD0E900B7984616468946054623
:1014A80013B10020C8F800008EB103F0F4FA8246A8
:1014B80003F0EAFA04469BF8070060B19BF8E800DD
:1014C80078B103F0D1FB6FF00800BDE8F88F6FF03A
:1014D8000900BDE8F88F03F0C7FB6FF00E00BDE808
:1014E800F88F00200121CBE93B96CBF8F460CBF8CC
:1014F800FC008BF8E810CBF83C008BF80D008BF85B
:101508000B000BF580700021009001F07BFB384642
:1015180003F060FBBAF1000F02D19BF8050070B32D
:10152800284601F067F803F09FFB9BF8050068B9AF
:101538000A99009801F066FB10B101208BF80D00A4
:10154800284601F083FC00208BF8E800B8F1000F72
:101558001CBFDBF8FC00C8F800009BF80B0030B19A
:1015680000208BF80B006FF00D00BDE8F88F9BF89A
:101578000D00002818BF6FF00C00BDE8F88F03F0CD
:1015880073FBD5E9007497F84400C00615D5D7F861
:1015980040C0BB6C284610210022E0470DE0D7F878
:1015A800FC00314609EB0002204602F01BFDD7F88B
:1015B800FC10361A0144C7F8FC10002EEFD1204663
:1015C80003F052FA0028FAD0204603F0F7FA97F809
:1015D8004400800605D53C6CBB6C284620210022BF
:1015E800A0470020B8F1000F87F8E800C5D0D7F869
:1015F800FC00C8F800000020BDE8F88F2DE9FC4F7A
:10160800D0F8C080D0F8D0C0D0F8E820D8F80030A2
:10161800C346E6469C4511D3D8F814B0BBF1000F79
:1016280000F0898090F8FC3005244FF0000E002B64
:1016380008BF0124DBF800308BF81040A3EB0E053F
:10164800A2F1080AB5F5806F28BF4FF48065D0F87D
:10165800D82032B101F1200301F12402C0F8DC5096
:1016680005E0C0F8D85001F1180301F11C0200266A
:10167800BAF1000FC8BF0126DBF8044012681F68E2
:10168800CDF800E07CB1354B53F82630BB6005FA45
:1016980006F30126BAF1000FC8BF02260EFB063377
:1016A8002344013B05E02E4B53F82630BB6000F184
:1016B800F6033B6043F6F0740191D1F8009004EB17
:1016C8000516264009F1080EC7F804E0BC68344343
:1016D800BC600024BAF1000FC8BF0124DBF8087011
:1016E8009FB16146DFF87CC05CF824308C4693607B
:1016F80005FA04F30124BAF1000FC8BF02240099C7
:1017080001FB043139444C1E05E0154951F82410F9
:1017180000F1F40491605460C2F800E0916831432C
:101728009160C34504BF05EB0C01C0F8D01090F8D8
:10173800FE10019A09B1BDE8FC8FD9F8241041F0D8
:101748000301C9F82410D0F8CC00D2E9041240688B
:10175800114300688162BDE8FC8F00BF4854000057
:1017680050540000585400002DE9F047012816D1C4
:10177800DFF830A1DAF83401012813D10220CAF8C1
:10178800340103F041F90120012402F0BDFC60B1ED
:10179800CAF8344103F0F4F94FF0FF347FE06FF0FA
:1017A80001047CE06FF0040479E09AF85A419AF851
:1017B80059119AF85801002C18BF0124002918BFA4
:1017C8000234002818BF0434012003F0C1F901389D
:1017D80018BF01209AF83811B1FA81F1490910EAC5
:1017E800010902D1002000F03BFEDAF808002E4D76
:1017F80010F0010807D12D4F286A816838468847BC
:101808000428F9D00646404603F0FBF9B8F1000F6A
:1018180008D1012E04D1286A012142682348904743
:1018280003F0CAF828684169204688479AF85401A5
:1018380018B14FF4806003F091F99AF8530118B188
:101848004FF4816003F08AF91948012101600320EF
:101858000021CAF8340117480160204602F006F951
:101868000128FAD1144E3068042002F04DFC0446D9
:1018780012480125B9F1000F0560306802D1012036
:1018880000F0EEFD03F0D4F9082002F03DFC04431B
:10189800CAF8345118BF4FF0FF3403F071F92046ED
:1018A800BDE8F08790040020B80100100040034014
:1018B800282008600C2008402C2009400C400940D2
:1018C8002DE9FF413B4E96F8420100286AD10120DC
:1018D80086F8420103F048F9374F86F87001374D12
:1018E8007868C6F86C01387B86F84101A86810F45E
:1018F800402F13D1386988B128686421C0F3066085
:1019080000FB01F403F006F9B4FBF0F22C4906F1F0
:101918009400002301F0D6FF03F046F801AC2046FE
:1019280003F06AF92749A846002506F10C000022B1
:1019380003F0B8F8204603F05FF9234906F1500098
:10194800082203F0AFF8214A06F1D800322100231B
:1019580001F0FAFA1E4C1F4A06F1F4002C2100236C
:101968002560454601F0F0FAD8F80800797BC0F305
:10197800815021B1032804BF012186F839110328B9
:1019880003D040F00200022810D1206840F0400047
:101998002060022002F088FB6868400702D400201B
:1019A80002F082FB002004B0BDE8F08102F008FAE2
:1019B800F2E700BF90040020D0540000AC4F005064
:1019C800E54A00007F490000FD3A0000813200002E
:1019D80090220840E90F00002DE9FE4FD0E900856C
:1019E800994614460F46834613B10020C9F80000F3
:1019F80074B103F049F8064698F8070058B198F80A
:101A0800E80070B1304603F00BF96FF008046CE0A1
:101A18006FF0090469E0304603F002F96FF00E0434
:101A280063E000200121C8E93B74C8F8F440C8F815
:101A3800FC0088F8E810C8F83C0088F80D0088F821
:101A48000B002846019503F0C5F8304603F0E8F886
:101A580008F1D0060DF1080A03F016F804463046DE
:101A6800514602F098FBD8F8F450D8F8FC10A84278
:101A7800394438BF054602982A4603F023F9304610
:101A8800294602F0B9F9D8F8F400D8F8FC10401B40
:101A9800C8F8F4004819C8F8FC00204603F0C0F85C
:101AA800012D03DBD8F8F4000028D5D102F0ECFFB3
:101AB8000746D8F8FC0050B1019803F08BF8584657
:101AC80000F098FDD8F8FC0010B1002402E00020D6
:101AD8006FF00F04B9F1000F18BFC9F8000000201B
:101AE80088F8E800384603F09BF82046BDE8FE8FEA
:101AF8002DE9F84F3C4C3D4E3D4D42F62A294FF01A
:101B0800010A4FF0030B00274FF00508D4F83C01F9
:101B1800062833D8DFE800F00433183B203D4B009B
:101B28000F20F060C6F8109002F0A0F845F804AC59
:101B380055F8040C8007FBD5C6F81CA094F83901A9
:101B480090B10120EF6210E02F60C4F83CB1286822
:101B58008007FCD40320DBE72F60C4F83C812868A9
:101B68008007FCD40520D3E70320C6F800B0C4F8EA
:101B78003C012F6029688907FCD4C9E7FEE70126E4
:101B8800022084F83A6101F0D5FF2E6009E00220B6
:101B980000E0032084F83A01002001F0CBFF012087
:101BA800286004F15000BDE8F84F01F0F7BA0020B2
:101BB80045F8040C286055F8040C8007FBD4286805
:101BC8008007FCD40B480025012105600A48016004
:101BD8000D2000F0CFFE022002F0D0F9C4F83C51ED
:101BE80084F83B51BDE8F88F9004002000400C4079
:101BF80058600C403C500C4004800C40F8B5334E03
:101C08000446F07810B9B07800285ED0112001F0B1
:101C1800F7FC642003F053F82D4F01200221B84748
:101C28000A208321B84706202C21B847032C08D85E
:101C3800E0002849C0B221FA00F5274921FA00F04E
:101C480001E00025A020C1B20220B847EDB204206F
:101C58002946B84705202946B8472048204DA847B7
:101C680006F10C010C2001F0A9F81820012102F05E
:101C780093FE42F21070A847102001F0C1FC42F216
:101C88001070A8471748184D3470A847204601F02F
:101C980031FD1648A847164850F82400A8471548AB
:101CA800A8471548A847154C0025062D08D07019D7
:101CB800007B02F0DFFA204602F034FC0135F4E73D
:101CC8000F48BDE8F84002F02DBCF8BDC40700205D
:101CD8001532000000050104A0A3A0A0A086010001
:101CE800C74C0000785400002D450000F555000051
:101CF800BC540000C14F0000A6540000FF5500006E
:101D0800E2550000FEB5D0E9005401A802F034FE07
:101D180095F834003649374A384E085C95F835103E
:101D2800515C354A084395F83610515C2A6B40EAF5
:101D38000103316820684F680299B847206840F26B
:101D4800F272E1692E4B2F4F426494F854209A5C4A
:101D580094F85530FB5C1A430129426311D10146BE
:101D6800D4E90A2351F8307FFF2A27F4004718BF27
:101D780007F50047FF2B0F6009D00A6842F480423C
:101D880008E0014651F8302F22F400420A600A6840
:101D980022F480420A60C16A41F01001C162016BFD
:101DA80041F001010163E16B09B3A16BF9B10121B4
:101DB80002F02AFDD5F85801E16B40680068C1625D
:101DC800C0F8041591FAA1F17268B1FA81F153686B
:101DD800022298477068A16B02224368D5F858011F
:101DE80091FAA1F1B1FA81F1406800689847FEBD07
:101DF800F15500005A530000D8550000D0010010DA
:101E0800EC550000DD5500002DE9F047A4B002F0C4
:101E18003BFE33490A78012A04D124B0BDE8F047D3
:101E280002F0FEBE4FF0010981F8009002F0F8FEC2
:101E3800FFF746FD082000F095FC21AC204602F093
:101E480075FDDFF8A0A0294A10212346DAF80C0016
:101E58002290254801F078F82548002501AE04783D
:101E6800244890F800804746A74213D8DAF80000C3
:101E780050F8271021F0FF0046F82700880707D4FC
:101E8800F8B201F0010102F087FD09FA07F00543F5
:101E98000137E9E7184805601848C16801F44001AE
:101EA800B1F5800F07D10068000E56F8201041F0F8
:101EB800070146F820101248A4EB0802042306EB99
:101EC800880103EB820240EA880002F0FBFE0D481D
:101ED8002022016862F30D21016024B0BDE8F0877B
:101EE800220800200855000070040020ED39000089
:101EF80063550000BB540000D0200240A84F00509A
:101F08000010084000300940F8B5044602F03CFDD6
:101F180007464568204602F0A5FCB8B1D7E9014656
:101F280002F0B2FD0546D4F8C000B8B1042101742E
:101F3800384600F017FED4F8C800B0B10146406931
:101F48000028FBD1D4F8C000486112E002F09CFDE3
:101F58000446D5F8C00078B3103034E030684168E2
:101F680021F002014160284630E0D4F8C000C4F8EE
:101F7800C800416900274761C4E93477C4E9367766
:101F8800C4F8C01031B320463146FFF737FBD4F808
:101F9800C000C4F8E0700068B0F5806F03D920462F
:101FA8003146FFF72BFB94F8FE0010BB3068416800
:101FB80041F0020141601CE095F8FB00002102F0AD
:101FC8005BF805F1FC00012101702046BDE8F840EE
:101FD80002F026BE94F8FB000021C4F8C47002F099
:101FE8004BF8012084F8FC003068416A21F00301B5
:101FF8004162284602F014FE04F13000BDE8F840C2
:1020080001F0A4BA2DE9FC4706680446707A002856
:102018006BD0D4F80490D6F85801D0F80480D9F8D9
:102028003470204601F0C8F9706F20B306F14C05F2
:10203800284602F03CFE316F884221D230790228CE
:102048001ED0B06E002850D0204601F0B5F9346F8C
:10205800284602F02CFE201AD6F868A0B46F7067E4
:10206800284602F024FE0021F1740AEB040108441A
:102078000190706F0CE0B06E10B1306F0028D5D1B0
:1020880006F14C0001A902F086F801217067F1748D
:1020980058B30021B0F5806FB17384BF4FF48060EE
:1020A8007067012301990144013979601049B960C9
:1020B80043F6F07101EB00100840B9680843B860B6
:1020C800D9F83C10D9F8000091FAA1F2B2FA82F2DC
:1020D80003FA02F2D8F800309A61D6F8582152680B
:1020E80012689162012102F09BFBBDE8FC8700BFEA
:1020F8000180000C2DE9F84315460C46804600F097
:1021080061FF2C4800212D4F01602B488146006853
:102118003868816927208847294E2A49306B08404A
:102128003063B06F20F48070B0673868016B4FF48B
:10213800806088473868016B4FF481608847386849
:10214800016B4FF4C06088471F48012101601F4898
:10215800C6F8804131600168890704D4691C08BF4A
:102168004FF04045C560D9F80000F0698007FCD5FC
:10217800072001F059FC0228FAD1B8F1000F13D159
:10218800134C386A8168204688470428F9D001280A
:1021980004D1386A0321426820469047D6F81802CD
:1021A80020F00300C6F818023868806BBDE8F843D1
:1021B800004700BF0C4009402C200940B80100101E
:1021C8000C200840FFFFFEFE282008601000094090
:1021D8000040034070B52039062918D8DFE801F01F
:1021E8001A23042D38404800147800222321FF2C9C
:1021F800F1D0D0E9015695F8FB0001F0FBFC726BB9
:102208002B49204685F8FB4000F054FA49E06FF06E
:1022180001044AE0406890F8F910012943D10121EE
:1022280080F8FC103DE045680021002495F8FB008B
:1022380001F022FF85F8FC4037E0446894F8FB0081
:10224800FF282ED001F0D6FCFF2084F8FB0028E000
:102258004068D0F8C01031BB012180F8FE1020E0A2
:102268004068D0F8C010F1B9002480F8FE401CE0A6
:102278004168D1F8C020B2B191F8FE209AB18068C7
:102288000268D0E90430546A184344F003045462E5
:10229800D1F8CC10496809688862506840F002009B
:1022A8005060002401E04FF0FF34204670BD00BFAD
:1022B800026000202DE9F84302F0E6FB2F4F0446A8
:1022C80097F84101002854D002F054FC02F05EFC5B
:1022D800054600F00C000C2803D100BF00BF30BF3A
:1022E80045E0680728D401F0AFFEDFF89480814606
:1022F8000121D8F8000000FB09F6012002F010FACD
:10230800864219D9D8F80000F02107F10C05B1FB75
:10231800F0F0A9EB0001284602F0B7FC284600F0CF
:102328003DFF00BF00BF0120FFF71EFA00BF00BF3E
:10233800284602F08DFC1CE000BF00BF280715D41A
:10234800104F114E38688168304688470428F9D004
:10235800B0FA80F005F01001400940EA111002F0CF
:102368009EFC0A4801210160006800E030BF00BF00
:1023780000BF2046BDE8F84302F052BC900400209C
:1023880014080020D8010010004003402C20094008
:1023980070B52548066801F0D5FF24480025244C6F
:1023A8000560206C806C80472248006838B122485C
:1023B8000068B6F1FF3018BF304600F02BFA1F480E
:1023C80040F2391205601E48016862F31B41016042
:1023D8001C48016801F44051B1F5805F06D10168DD
:1023E800194A114001F5003202600160174D0126BB
:1023F800EE612068016A142088471548016841F495
:10240800E021016013482E60006800F44000B0F538
:10241800000F03D1206C416C0F4888470F480168B2
:102428000029FCD170BD00BF1C1300508404604219
:10243800B001001080012843800520438C2108400A
:102448004820034028000940EFFFFCFC000024431B
:1024580000200940B44F0050BD3786000C00684288
:1024680070B5F8B1012858D1012002F071FB01289C
:1024780053D02D4C94F8380100284ED12848294EC5
:102488000569306810F4402F30D17DB302F0C0F8F0
:10249800502002F0E3FB0120A84704F1940000F06B
:1024A8007DFE25E002F0F9FB1E48006810F4402F7D
:1024B8000AD11B4804693CB11B48943002F0C8FBA0
:1024C80002F096F80020A047174C94F8380120B382
:1024D8001648016821F08001016080218160032095
:1024E80001F04CFD002084F8380116E002F0D9FB19
:1024F800012084F83801306810F4402F00D14DB91C
:10250800207A800606D4094880218160016841F05C
:1025180080010160032001F0C7FD002070BD00BFED
:10252800D0540000B44F005090040020902208407E
:102538002DE9FE4F98B116468A46804602F0A4FA65
:10254800DFF89C90834699F8000000BB254D2C27A6
:102558004C2F06D0E81902F08DFB0837F8E7002663
:102568003AE0002001276C466860A860EF60287098
:10257800204602F0DBF9E0201C4A234601901A4865
:10258800016805F1100000F0DFFC89F8007058467A
:1025980002F046FB164D002E18BF3546AF68781C72
:1025A80008BF03270026032F16D8404602F062FB17
:1025B80095E81E0008F10C001EC0C8F824604646C5
:1025C800C8F81470074800EBC7002C30C8F808009A
:1025D800D8F81800C8E907A03046BDE8FE8F00BF4C
:1025E8002008002058070020EC070020574800006A
:1025F80018550000F8B505680446D5F8F80000B18C
:10260800F8BD68796668022807D105F1D0006946E7
:1026180001F09AFFC5F8F80009E0D5F8EC10D5F8F4
:10262800FC20D5F8F4001144C5F8F8000091002802
:10263800E6D031688A6B22F400628A6395F8441008
:10264800C9060AD52F6C47B1297A31B9AB6C204637
:1026580010210022B847D5F8F800B0F5806F84BF84
:102668004FF48060C5F8F8000099336B01444A1EA6
:102678003168B66B1A600E4A9A6043F6F07202EB44
:10268800001010409A6810439860D5F858014068C7
:10269800006886620846022102F0C2F8287A0028FB
:1026A800AED120460121012601F074FE2E72F8BD3C
:1026B800018000C02DE9F84FFF2831D0264B0C4689
:1026C80005464FF4BE21AF0004F0020843EA80003B
:1026D8004158C9B2914227D121489A464FEA142954
:1026E80047EA0006834602F0CFF90BF10101220CFC
:1026F80086F8009039430A7046F00201220E0A70EB
:1027080002F08EFAB8F1000F02BF45EA0A0004F0A1
:10271800010101701148012181EA5801384316E08E
:102728004FF0FF30BDE8F88F00F5BE2024F0FF0120
:1027380062B9B8F1000F02BF2B4304F001041C700A
:10274800064B012484EA58043B431C601143016092
:102758000020BDE8F88F00BF00200240001A444264
:10276800011008402DE9F041254E0546371802F0C2
:102778008BF9044697F84A01411C87F84A1128B199
:10278800204602F04DFA0020BDE8F081DFF87480A1
:1027980018F8257007F03F00142898BFFFF7E2FFEC
:1027A80008EB8500458878B2B0F1FF3F0CDD78066C
:1027B8001FD415480068416928468847284601F013
:1027C80055F90128FAD1DBE70F4E3068C169284670
:1027D80088473068416A284688473068C16A284671
:1027E80088470A4801210160094801688907FCD522
:1027F800C6E706EB8500D0F8601101208847BFE7DF
:10280800900400202C4D0000B8010010282008601A
:1028180028200840F8B505462248234E4168890714
:1028280005D40168F02242EA114186F84D101F498B
:102838004FF001221F4F0A601D490988396809684D
:10284800846820468847A00105D4E00103D5307884
:1028580040F00200307038682146426828469047A8
:1028680001F05CFD1448154A0068C0F30531117089
:10287800C1054FF0130158BF232140237354382159
:1028880001EA901000F56050A2F85C003868816891
:1028980020468847022001F023FA094801210160F7
:1028A800F8BD00BFAC4F00500962084004A40C40BA
:1028B80000A00C40F00100100C1400500EB00C40A9
:1028C800940460428B4208BF824207D9009A002ACA
:1028D80001D010605160002100207047002B08BF14
:1028E800002A10D1009A002A01D01060516002001D
:1028F8000B0000210020002B08BF002A1CBFC94381
:10290800C04301F054BEF0B51C4615460B460246BE
:1029180000200021B4FA84F6202E04BFB5FA85F60B
:102928002036B3FA83F7202F04BFB2FA82F7203794
:10293800F61BB6F1200727BF05FA07F400257F42EA
:10294800B4403EBF25FA07F73C43B540A34208BF51
:10295800AA4201D3521BA341404149416D0845EAAF
:10296800C4756408761EF1D5059F002F01D03A6022
:102978007B60F0BDF8B5254F05463E1802F084F897
:10298800044696F84A01013886F84A01000637D10C
:102998001F4810F9251000EB85004588CEB2B1F12B
:1029A800FF3F0CDD70061FD41A480068816928466D
:1029B8008847284601F038F80228FAD11AE0154F5E
:1029C8003868016A284688473868816A28468847EF
:1029D8003868016B284688470F48012101600F4875
:1029E80001688907FCD505E007EB8500D0F8601180
:1029F8000020884706F03F00142898BFFFF7BAFF69
:102A0800204602F00DF90020F8BD00BF9004002018
:102A18002C4D0000B801001028200860282008402C
:102A28002DE9F04102F030F8254F804601210124BC
:102A3800D7F8900001F0BCFAA7F8A0400646B8689D
:102A4800D7F89840B968711A201A884203D900202B
:102A580087F8A0002EE0404602F0E2F8351B002679
:102A6800B54207D334440120AD1B214600F070FC69
:102A78000646F5E702F008F8804697F8A10020B16D
:102A88000020214600F064FC0646701C06D0D7F8EA
:102A98009C00711B814238BF084601E0D7F89C00B2
:102AA800011901F095FD002087F8A000012087F8A2
:102AB800A200BC604046BDE8F04102F0B1B800BFDA
:102AC800700200202DE9FF470446E0B315460E4684
:102AD80001F0DAFFDFF87890074699F80000A0B90E
:102AE8000DF10408404601F021FFDFF868A08020BE
:102AF800194A1421434602900AF1040000F024FA0E
:102B08000120CAF8004089F80000384602F088F829
:102B18000020E660124AE0626062C4E90500E061F4
:102B28000E48002D18BF28460023017821704168FF
:102B3800A1608168002001F0EFFEA06220622061A0
:102B4800606001F0CBFE204604B0BDE8F08700BF0E
:102B580021080020A4070020F94700007C55000048
:102B680040420F00F8B5D0E901650446287901F024
:102B7800DDFFD6F8CC206969286852681268D162EE
:102B880096F8F93013B9C368DB06FCD4436823F020
:102B9800020343602B69D3621943476A27F003078E
:102BA8004762C2F80415416921F001014161012120
:102BB8000162D6E93512D6F8C00001604AB1EB6966
:102BC8009B68C3F309139A4203D91144DA431144A9
:102BD8000160D6F8DC204AB16B6A9B68C3F309131D
:102BE8009A4203D9DB431A4411440160204600F09D
:102BF800F7FD287901F094FF2879BDE8F84001F045
:102C08009BBF70472DE9F04391B00E462149044619
:102C1800684600234FF00008324601F0C9FC701ED8
:102C280010F1030F02D8684600F0B8FA01F02CFF43
:102C3800194F054601200136E9467870E068A0B9C9
:102C48001EB1484602F01FF878B1606800B18047AD
:102C5800284601F0E5FFB87818B101F0DDFE87F8E5
:102C6800028001F011FF0546E8E700207870E0686F
:102C780020B1E0680138E060002400E0FF24284625
:102C880001F0CEFF684601F075FD60B211B0BDE8F5
:102C9800F08300BF6B490000F0070020F8B5D0E9C9
:102CA8000167054601F0F0FE0446D6F8C00098B367
:102CB80096F8F81019B9007C0338012831D828464D
:102CC800FFF750FFD6F8C00000220223016805462E
:102CD8003DB12F7C033F022F28BF2B742A606D69FA
:102CE800F6E73246016052F8C81F21B10A46496921
:102CF8000029FBD1143210600020C6E93000C6E973
:102D08003400C6E93600204601F08AFF06F130009B
:102D1800BDE8F84000F01ABC3868416821F00201AB
:102D280041602046BDE8F84001F07ABF2DE9F84F30
:102D3800214F83464FF001084FF002094FF0000A77
:102D48007868A0B3F868012831D17868032408218D
:102D580021B1014203D14908013CF9E7002407EBFE
:102D6800C40000F12C06304601F011FD054630463E
:102D780001F012FF28B1796808FA04F021EA00008E
:102D88007860A869296AC5F8249028625846B9600D
:102D980001F046FFD5E90301EA69904701F074FEA6
:102DA8008346686A022808BFC5F824A0C8E700203F
:102DB8003870BDE8F88F00BF580700202DE9F043B0
:102DC8008FB0204F0446B868C8B300200DF104083E
:102DD8008946ADF82200CDF81E00CDF81A00CDF8CE
:102DE8001600CDE90C000E90CDF82C8005A9CDE990
:102DF8000300CDE9010078780A91611E8DF815105D
:102E080020218DF81410A11C0991002101F0C4FDA6
:102E18000D4D0F20A847B86809A901F02EFF0646F6
:102E28000F20A8477878012101F0B6FD1920A8479E
:102E38002EB108F102014846224601F043FF0FB0C7
:102E4800BDE8F083C4070020C74C000070B50568D2
:102E5800D5F8F81031B3D5F8582144685668A16BF5
:102E680020683268D162022101F0CEFCD5F8580101
:102E7800A16B154A40680068C0F8041591FAA1F1E1
:102E880012683068B1FA81F1926990470446D5F822
:102E9800F800011B6879022806D105F1D00001F07D
:102EA80063F90BE000240CE0D5F8F400D5F8FC2019
:102EB8000A44401AC5F8FC20C5F8F4000020C5F8FB
:102EC800F800204670BD00BFD4010010F0B587B0EF
:102ED800194E307868BB194C204601F0CBFE002013
:102EE8000127A060C4E92670C4F89F00C4F8947054
:102EF80003AD284601F0A8FD4FF0FF3010492A46DF
:102F0800059004F10C00FFF713FB6D46A0642846FA
:102F180001F0A2FD70680B492A46029004F15000A6
:102F2800FFF7D0FDC4F8900001F01FFBC4F89C0027
:102F3800377007B0F0BD00BF1008002070020020F5
:102F4800292A0000114B0000FEB568B11E460D4647
:102F580004465BB17068C1B2FF2910D015490968F1
:102F6800A9420ED0E0280CD1002421E001206E46B1
:102F78008DF808004FF0FF30019000200090C0202D
:102F880070600D480D4940F825403068C4E900528A
:102F9800A060284601F016F9094F3179386882682F
:102FA80028469047307A18B138680169284688471A
:102FB8002046FEBDEC070020040600200D47000057
:102FC800B001001010B517480168890726D41748C2
:102FD8000468A00221D41648006800688047C0F140
:102FE8003E000722C1100729B8BFC210012000EB1C
:102FF80024718A42D8BF0A460E490968C1F30321E1
:10300800891A0F29A8BF0F210129D8BF014641F00D
:10301800F000094981F84D00087810BD0249C160E7
:1030280010BD00BF10000940FD000040B44F005023
:10303800EC0100100C1300500D6208402DE9F0411E
:10304800D0E901480546D8F80000416821F002019E
:103058004160204601F048FBD4F8CC0000F03CFF6A
:1030680004F1300000F0E4FE94F8F80018B904F117
:103078006C0000F026FCD5E901750D4E95F8380076
:10308800B04795F83900B04795F83A00B04797F837
:10309800FB00B04798F80C00FFF76CFC04F11C002B
:1030A80001F0C6FA002084F8FD00BDE8F08100BFF9
:1030B800FD3B0000F8B5054616484BF2F521174EC2
:1030C800006800FB01F714483C0A006800F440203F
:1030D800B0F5802F10D11248006880030CD4F06836
:1030E8000068804700F0A4FD3168C9688847C010AF
:1030F800390B484304EBE0342DB90A48006820F046
:103108007F40204444083069416C2046BDE8F840BF
:10311800084700BF08400C40B44F0050E0010010C1
:103128008C13005010200940F0B540F6FF7C10F8D1
:10313800013B0024082CFAD00646DF0716F8015B8D
:103148000DD1477807F00F060336122E0DD190F9EE
:103158000220D6B2B2F1FF3F09DD03300DE001F8DD
:10316800015B304601345B08E4E7023006E0C278D0
:1031780006F07F06043046EAC21612363F0947EACF
:103188000512624508BFF0BD2A013A44D543002E16
:10319800E8D04A5D013E0A700131F8E7F8B5054606
:1031A80001F072FC184E044696F8A20080B196F819
:1031B800A00068B9D6F890000121012700F0F8FEB8
:1031C800B168D6F89830B268411A9A1A91420CD967
:1031D80001F006F901212975AA681044E86096F8FB
:1031E800A00060B186F8A11009E02F75AA6811182F
:1031F800181A8242E96002D2104601F0E9F9204625
:10320800BDE8F84001F00CBD70020020B0B588B0F0
:10321800174CA2684AB340F040008DF8071000210F
:103228008DF805000DF102008DF80610CDE90511A5
:1032380007918DF80410ADF8021004900DF1050007
:10324800039003200290607801F0A6FB094D0F203F
:10325800A847A06802A901F010FD0F20A8476078D0
:10326800012101F099FB1920A84708B0B0BD00BFA3
:10327800C4070020C74C0000B0B5174C606821682F
:1032880001EA000521EA0002680622601DD51348FC
:10329800006800F44000B0F5000F03D11048006842
:1032A80000F052FE042001F053FC811E022905D2D1
:1032B80000F086FD022000F061FE03E0012808BF4F
:1032C80000F07EFD202000F01FFF280648BF00F018
:1032D800ADFAA560B0BD00BF90220840B44F0050C1
:1032E8001C08002010B52DED028BB5EE400AB0EE9B
:1032F800408AF1EE10FA04D5134801F013F9B1EE43
:10330800488ABCEEC80AB2EE041AB6EE002A10EEDD
:10331800100AB8EE400A38EE400A00EE012ABCEE68
:10332800C20A10EE104A092C84BF0024013000F0B4
:10333800E1F9064801F0F6F82046BDEC028BBDE83D
:10334800104000F0D7B900BF06550000FB5500003B
:103358002DE9F047174E05468946304601F0A3FC93
:1033680004464FF0FF384FF0000AB4421FD0204601
:10337800274601F09AFC0446387D0028F5D065B14F
:10338800F868484509D1386910B14844F86001E047
:1033980087F814A0D7E906108847387D0028E4D0BC
:1033A800F868A0EB0900404538BF8046DDE7404695
:1033B800BDE8F0877002002070B50468616F59B3EA
:1033C800D4F8582145685668E96B28683268D16294
:1033D800012101F019FAD4F85801E96B0F4A406845
:1033E8000068C0F8041591FAA1F112683068B1FAC2
:1033F80081F192699047616F091AE07C20B104F16C
:103408004C0000F0F9FC05E0206FA26F401A20671D
:103418005018A0670020606770BD00BFD40100107D
:10342800B0B5134D0124E86B0168012088470128D5
:103438001BD028683C21012200230024C5680D48C0
:10344800A84790B100F0A0FC0B480C490068D1E9EE
:1034580000238860C01A0A4BA2EB92025843B2EBD1
:10346800104F98BF020C01240A602046B0BD00BF6F
:10347800A401001000A00C4030200940DC07002007
:1034880040420F00B0B51448144D807B95F83911AF
:10349800084306D001F0F8FA95F83B1121B101F084
:1034A800BFFB00242046B0BD012485F83B4101F054
:1034B800B7FB022000F0F8FD0D20FFF753F908488C
:1034C80001680029EED1074940220A604A600021BC
:1034D80085F83A11C461E4E7D05400009004002054
:1034E80004800C4038500C402DE9FF41144DD5E9BB
:1034F80000673879FFF736F901F0C6FA04463078E4
:10350800B0B90DF10408404601F010FAB87979799C
:103518000C4A434601950290301DFFF715FD3868A7
:103528004FF0FF31C162084981600121317041606B
:10353800204601F075FB024804B0BDE8F08100BFE9
:10354800B05500001F4C000000180020F8B50546D3
:1035580001F09AFA0446686A01280FD06869104F8A
:10356800012629466E6207EBC0002C3001F090F866
:103578006869796806FA00F008437860084D287889
:1035880040B9E868012805D10648006801F0DAFA70
:10359800012028702046BDE8F84001F041BB00BF7B
:1035A80058070020EC0700202DE9F0410646FFF7F8
:1035B8008DFC114FD7F8900001F0FAFA04460F4835
:1035C8000D4641F2C6084068C0EB0011B14207D869
:1035D800A0EBC00106EB4101B1FBF0F000F0C6FE24
:1035E800E6FB0845D7F8900001F0E2FA001B71EB02
:1035F8000500F7D3BDE8F081700200201008002014
:10360800B0B588B0114C8DF81F00A068E0B100205B
:103618000021CDE90500CDE903000DF11F0002905E
:1036280001200190607801F0B7F9094D0F20A847F3
:10363800A06801A901F021FB0F20A84760780121AB
:1036480001F0AAF91920A84708B0B0BDC4070020A6
:10365800C74C0000B0B500F0DFFC0E4C0E4D142036
:10366800611CA8470A202146A84709202146A847E7
:103678000A490820A847B92000F064F8084C14202B
:10368800A0470A20A0470920A04708202146BDE8F6
:10369800B0400847006400205F4C00000220002072
:1036A800FD3B0000F8B5124F044616460D46387823
:1036B80018B9FFF70BFC01203870B4B12EB130787F
:1036C800207070686060307804E0D7E90201C4E9CE
:1036D8000001C0B228B10120A06005B90020E06057
:1036E80003E04FF6FF70A060E5602046F8BD00BF1C
:1036F800F007002008B3B0B586B000210A236A4657
:1037080058B1B0FBF3F404EB8405A0EB450040F09E
:103718003000505401312046F2E7013A002303A853
:10372800994204D0545C013AC4540133F8E70022AA
:10373800425400F0F7FE06B0B0BD014800F0F2BEFA
:10374800F9550000B0B504461420002101F024F911
:1037580007250A20002101F01FF9681C0FD024FA60
:1037680005F000F00101092001F016F90A200121F5
:1037780001F012F9082001F071FA013DE9E714207F
:10378800012101F009F94FF42F70BDE8B04001F0B4
:1037980065BAFEE70E480F4A0F4B01688258006869
:1037A8000340D0B20D4A7F2888BF0020934207D13A
:1037B800090F022906D307D0032901D1153004E0E7
:1037C800FF2002E00A2000E00B3040B2704700BF43
:1037D8001813005088FDFFFF00F0FF0F0010B40B16
:1037E8007FB5D0E90154204600F0E7FD2068416824
:1037F80021F002014160416921F00F01416103217B
:10380800016202A801F0B8F8074995F8F93095F86F
:10381800FA202068D5E9396509680C680399CDE96B
:103828000065A0477FBD00BFC4010010B0B501F01E
:103838002BF9044601F004FA0028FBD0032000F01D
:103848009DFB0B48002180F83811204601F0E8F96B
:103858000848816802200D4688470446102000F079
:1038680053FC24B103202946BDE8B0400847B0BD49
:1038780090040020D05400002DE9F0414768044628
:1038880001F002F905464FF00008D7F8C8609EB16C
:1038980071697068C6F81480C7F8C81000F030FE67
:1038A800284601F0BDF9D7F8BC202046314690479C
:1038B80001F0EAF80546E8E72846BDE8F04101F0DE
:1038C800AFB97047F8B50446C8B11D4616460F464D
:1038D800FFF7FCFA0020A6600A4EA761002D2075AC
:1038E80018BF2E46D6E9010120610748E16121464B
:1038F80000F0CEFE307810B12046FFF74FFC20468E
:10390800F8BD00BF645500007002002070B5044681
:1039180001F0BAF805460C480126C16A06606268DB
:10392800130CB2F5802F38BF0423194441610748AE
:103938002321006802680020904705480660284651
:10394800BDE8704001F06CB9042009408401001002
:10395800800224432DE9FC479846AAB115460E4635
:10396800074600244FF0FF3A0DF1040931192A1BCC
:1039780038464B46CDF800A0FDF766F901990C448E
:1039880028B96D1AF2D102E000246FF00900B8F1ED
:10399800000F18BFC8F80040BDE8FC8770B50D4699
:1039A800044601F071F8D4E901128A4204D101F009
:1039B80037F94FF0FF3070BDE36822680133B3FB7D
:1039C800F1F606FB11315554E160A16862690131D5
:1039D8009142A16088BF0A46626101F021F9A0689E
:1039E80070BD7047F8B50D480D4D0E4F012604689F
:1039F80004608CB1B4FA84F0696880F01F0006FA9C
:103A080000F251F8201094430029F2D057F82020F2
:103A18005203EED58847ECE7F8BD00BFE02002402E
:103A280008550000001008400F49C3070A68496D8F
:103A380001D1002106E001F0040102F00103C918D8
:103A480018BF0121830744BF02F0020341EA530172
:103A5800400744BF02F0040041EA90010220002917
:103A680018BF0120704700BF402108400F49C30715
:103A78000A68496D01D1012106E001F0040102F054
:103A88000103C91818BF0121830744BF02F00203CC
:103A980001EA5301400744BF02F0040001EA900123
:103AA8000220002918BF0120704700BF40210840AC
:103AB80070B500F0E9FF04460B48017821B12046B3
:103AC800BDE8704001F0ACB80121017007480578E5
:103AD8000748002DF3D0064656F80C1B896888471E
:103AE800013D3046F5E700BF2308002003560000DB
:103AF800705500000B4801688907FCD50A48012168
:103B08000A4AD0F83C0101284FF0010008BF2020E4
:103B1800082390610020106005480360436011602D
:103B2800704700BF58600C409004002000400C40D3
:103B380038500C4040F00201022918BF70477CB58C
:103B48000A4D0B4C80B27022042329684E680090FD
:103B580020460021B0472868002170227023D0F841
:103B68000CC0204602B0BDE870406047A4010010B8
:103B780000A00C400C4A1278012A11D1094A127887
:103B880082420DD9094A0029094B18BF0A4600EBA1
:103B9800400103EB810053F82110CB681146184708
:103BA8000020704703560000230800205C530000E3
:103BB80070550000B0B5054600F066FF0446A868D9
:103BC800E968814202D2E8680130E86000F05EFEF0
:103BD80040B1074D6878012804D1A87810B900F0E1
:103BE80073FEA8702046BDE8B04001F019B800BFC8
:103BF800F0070020FF2817D0B0B5044600F0D4FD28
:103C08000A4D286850F82410204601F024F8686806
:103C180050F8241011B1002140F82410A8680021A0
:103C280040F82410BDE8B040704700BF08550000B8
:103C380070B50D4B1B3800FB00F193E87000DB6892
:103C480001FB00F283FB0223C6FB0123C5FB002313
:103C58001009190940EA0370001941EBE471000CDE
:103C680040EA014070BD00BF000800207CB50C4D43
:103C78000C4C00214FF4C0720723286846680220C4
:103C880000902046B047286800214FF4C0720723EF
:103C9800D0F80CC0204602B0BDE87040604700BFB5
:103CA800A401001000A00C4010F1240FD8BF6FF041
:103CB80023001B28A8BF1B2003210F222430A1EBBF
:103CC800101122EA000022FA01F14FF6FF7222FADF
:103CD80000F040EA014001490860704718A00C4014
:103CE800B0B50A490A4A0B4B0C684D68AC42FCD186
:103CF800844208BFB0BD155C145DAC424FF0FF357F
:103D080038BF01252C441C5D0C60EDE700600C40B9
:103D1800B8550000BC55000010B50A4C00212068B9
:103D2800426801209047206801680120884708B14F
:103D380000F02AF804480068E068006880470349F2
:103D4800C86010BDE001001030200940DC070020E9
:103D580010B50A490A4C0860D1F8980040F00300F1
:103D6800C1F89800206881692020884705480068C4
:103D78002068806BBDE81040004700BF8C210840D8
:103D8800B80100102C20094010B50A480B4C0188D6
:103D9800C907094907D14FF0012222600088086845
:103DA800BDE810400047086880474FF080702060E9
:103DB80010BD00BF00A00C408000001004A40C40FF
:103DC8007CB50B4D0B4C00214FF040521C2328684A
:103DD8004668032000902046B047286800214FF429
:103DE800007209234568012000902046A8477CBD41
:103DF800A401001000A00C40F8B50C46054600F0E0
:103E080043FE2B1D6E690ECB8F1AA74238BF3C4666
:103E180022442344B24288BF16466E61B3FBF1F6D2
:103E280006FB1131C5E9022100F0FAFE2046F8BD73
:103E3800B0B5054600F028FE0446284600F039FED5
:103E4800A86800F0A9FE40B16869012101FA00F0F4
:103E580004494A6822EA000048602046BDE8B040AC
:103E680000F0DEBE5807002070B50B4E054600F086
:103E78000BFEF5600446012D706808D138B1307822
:103E880028B90648006800F05DFE01203070204621
:103E9800BDE8704000F0C4BE58070020EC070020C1
:103EA80070B50668054600F0EFFD0446707A70B9F3
:103EB80001207072284600F0C7F9686800F084FE97
:103EC8002846FEF79FF82846002100F063FA2046AE
:103ED800BDE8704000F0A4BEF8B5D0E9006500F078
:103EE800D3FD0446307870B1287900F09DFD012893
:103EF80006D1286800274760301D00F0F5FB3770B1
:103F08002879FEF737FD2046BDE8F84000F088BE66
:103F180070B50948094C84420BD0094D094EB54289
:103F280007D0F5E8020110F8012B54F82220904739
:103F3800F5E700BF00BF70BD84560000785600004A
:103F4800BC560000FC56000008490A4B42180849B4
:103F58009A42096808D801F44001B1F5000F03D16D
:103F680005490968496C0847704700BF5C8F82FFA4
:103F7800B44F0050B71E0500F001001070B50B4D8E
:103F880004462E1800F080FD96F84311013986F892
:103F98004311090605D10121AA68A14022EA0101BD
:103FA800A96000F03DFE002070BD00BF9004002015
:103FB800F8B504460A480F460068006B8047D4E904
:103FC80004562A46334600F0A7FC3FB1A0FB052360
:103FD80000FB063301FB0531C4E90621F8BD00BF2B
:103FE8008C0100102DE9F04106460A4815460C469A
:103FF80000278046BC4209D0D8F80020E95D306827
:104008009269904708B10137F4E73C462046BDE87D
:10401800F08100BFD001001080B50A49142000F0DB
:104028001AFE1420002100F0B7FC012000F016FE53
:104038001420012100F0B0FC4FF40C70BDE8804062
:1040480000F00CBE01640020F8B500F01DFD094E1B
:1040580004460021D6F89000FFF7AAFF0546D6E9E6
:104068002667204600F0DCFD701BB84288BF0020A0
:10407800F8BD00BF70020020FF2808BF7047B0B528
:104088000D46044600F000FD0649C5F3024311F849
:10409800242002F0F8021A4401F82420BDE8B040B8
:1040A80000F0BEBD02100840B0B50446012000FA79
:1040B80004F500F0E9FC07498A682A438A6021442C
:1040C80091F84321013281F8432100F0A9FD002035
:1040D800B0BD00BF9004002007480068C00608D49F
:1040E80006480749006808400649884204BF01207D
:1040F80070470020704700BFB04F00505013005069
:1041080000C4FF3F00C0071CB0B504460948056855
:1041180055B1A868204205D0D5E9033220460021D0
:10412800984718B92D68F3E70020B0BD4FF0FF306D
:10413800B0BD00BF90040020094880F308880948F2
:10414800016841F47001016000BF00BF00F0B1FDDB
:1041580008B1FFF7DDFE00F0D5FB012000F090FD6F
:104168000040012088ED00E0B0B50C46054600F09F
:104178008BFCD5E901122B69A24238BF1446121BE9
:10418800AA601A19B2FBF1F303FB1121296100F0AF
:1041980047FD2046B0BDF8B50C46054600F074FC56
:1041A800EA6895E8C2000132B2FBF6F303FB162574
:1041B8002944216000F034FD701BF11B814238BF97
:1041C8000846F8BD70B5084A084B14689C4208D0E8
:1041D80014680025D82D03D066595E510435F9E7D7
:1041E800136043F8201070BD08ED00E000090020BE
:1041F800094882698B1A0432B3F1004F09D8531A5F
:10420800B3F1FF3F0B46C8BF13468A4298BF0B461F
:104218001A460260704700BF18200940F8B50C46DE
:10422800D0E90016002701F14C053068013C47F140
:1042380000018269D20606D429B10068C1B22846B5
:10424800FFF7ACFBF1E7F8BDD0E900100A6C5AB1F2
:1042580091F84410090707D501684FF480624A6451
:104268008A6B42F480628A630068816B41F0400186
:1042780081637047E0B50021084A8DF8071000F007
:104288000F010009105C515C8DF805000DF1050067
:104298008DF8061000F046F98CBD00BFE45400000C
:1042A80070B50446006904F114052CCDA0FB010685
:1042B80002FB0161C6184D41300C002240EA05415D
:1042C800FFF796FFC4E9086570BDB0B50568022020
:1042D8000C46FFF753FE64B1D5F8EC000021B1EBB2
:1042E800107F06D10420FFF749FE4FF0FF30C5F8D4
:1042F800EC00B0BDB0B50D46044600F0C5FBD5E9ED
:10430800001211B14A606A6800E06260002A18BFB2
:1043180014462160BDE8B04000F082BC80B5FFF7CC
:10432800DBFE60B10648006881034FEA00414FF0A8
:10433800000058BF0816BDE88040FFF7B5BC80BD37
:10434800B44F005080B50648064900680840064941
:10435800884204D1FFF71EFA1328C8BF80BDFEE7C4
:104368001813005000F0FF0F0010B40B88B1B0B55F
:1043780094B06D460446002100222846FFF792F9C2
:104388002146FEF73FFC2846FFF79BFA14B0BDE82C
:10439800B0407047B0B5056802200C46FFF784FEB0
:1043A80054B1D5F8EC000021B1EB107F04D1042002
:1043B800BDE8B040FFF778BEB0BD0068C1684907E6
:1043C80001D58168FAE70221C0F88010C168C907E1
:1043D80002D1D0F88C10F9E70021C0F8801070479E
:1043E800B0B500F051FB044605480021D0F8900014
:1043F800FFF7DEFD0546204600F012FC2846B0BD5A
:1044080070020020B0B50C46054600F03DFB0021C7
:10441800216069680029616008BF29460C606C60EA
:10442800BDE8B04000F0FCBB80B50548012100683C
:10443800426801209047034803490068486080BDEE
:10444800E001001030200940DC0700201CB50649B7
:1044580080B24FF47F42082309684C6800900348F3
:104468003021A0471CBD00BFA401001000A00C40D3
:104478001CB5064980B24FF4F802122309684C684B
:10448800009003480421A0471CBD00BFA4010010F0
:1044980000A00C401CB5064980B24FF4003211232D
:1044A80009684C68009003480421A0471CBD00BF60
:1044B800A401001000A00C401CB5064980B24FF4BE
:1044C80040620A2309684C68009003482021A047ED
:1044D8001CBD00BFA401001000A00C4050B14AB19F
:1044E80010B5044608300EC021460448FFF78AFF7D
:1044F800002010BD6FF00200704700BF900400203C
:1045080080B507490138884205D80620FFF736FDEF
:104518000420FFF733FD0220BDE88040FFF72EBDE1
:10452800FEFFFF0FBCB504460648456845B1204666
:1045380000F0CDFA024601AB2846214600F0C0FA49
:10454800BCBD00BFC4070020F8B50C46054600F006
:104558009BFA95E8C2002D692944216000F060FBB0
:10456800701B874238BF3846F8BD80B5D0E90423B0
:1045780047F69160101A73F1000031BF4FF0FF3019
:10458800002047F6906100F0C7F980BDBCB504680B
:1045980025790DB9A4792CB14FF0FF340094FCF7BC
:1045A80053FBBCBD02B0BDE8B040FFF7D3B97047BC
:1045B80010B50446C0E9061382600020206120750A
:1045C80002482146BDE8104000F062B870020020A1
:1045D80070B5064E05460C462946D6F89000FFF7FA
:1045E8005FFEC6F89840C6F8945070BD700200206F
:1045F80005484FF4825100680028044848BF4FF42A
:1046080041510160704700BFAC4F005028A10C40D9
:1046180005484FF4805100680028044848BF4FF40B
:1046280040510160704700BFAC4F0050A8A00C403B
:10463800B0B5044600F028FA054604482146FFF7BD
:1046480059FE2846BDE8B04000F0EABA90040020C0
:10465800E0B5064AD2E90223CDE9002301228DF80C
:1046680000206A46FFF71EF88CBD00BFF007002047
:1046780010B50446B0F1FF3F03DC0448FFF752FFD2
:1046880064422046BDE81040FFF734B806550000E4
:10469800B0B50C46054600F0F7F925606968616019
:1046A80069680C606C60BDE8B04000F0B9BA1CB530
:1046B80004686479022C02D1FDF78EF91CBD049CB4
:1046C800049402B0BDE81040FCF7E2BEFF2807D012
:1046D800044A526852F820308B4218BF42F8201022
:1046E800704700BF0855000010B50549044600682A
:1046F8000968496988472068BDE8104000F0D0B8CB
:10470800B001001004480549007851F8200010B1A4
:10471800D0E901100847704704ED00E004060020C6
:10472800002201284FF0000004BF40F2EE204FF4B1
:104738007A72022908BF02461046704710B500F089
:10474800A3F904490022CC68CA6000F069FA20463F
:1047580010BD00BF5807002000F066FAFDF718FEEC
:104768000348016841F470010160FFF7E5BCFEE70A
:1047780088ED00E0B0B5044600F086F9054620460D
:1047880000F097F92846BDE8B04000F049BAB0B546
:10479800044600F079F925682968216029684C6089
:1047A80000F03EFA2846B0BDFF2806D0034911F8AC
:1047B800202002F0FB0201F8202070470210084078
:1047C800022807D0032804D180B5FDF791F900200D
:1047D80080BDFEE7FEF756BE044890F8411119B1B6
:1047E800D0F86C0100B10047704700BF900400206A
:1047F80003480121016003480068D0E90201084725
:1048080004200940A4070020B0B50C46054600F076
:104818003BF9A96CA143A964BDE8B04000F000BA17
:10482800B0B50C46054600F02FF9A96C2143A964E0
:10483800BDE8B04000F0F4B980B5FDF741F8FDF7E8
:10484800E3FAFEF707FFBDE88040FEF7DAB910B5D6
:1048580000F01AF90446FEF769FA2046BDE8104050
:1048680000F0DEB90349096821FA00F000F0010000
:10487800704700BFC0200240FF2803D0024A926858
:1048880042F82010704700BF085500000348008810
:104898006FF35F20002818BF0120704704ED00E087
:1048A8000249034A41F82020704700BF0009002050
:1048B8009B370000D9F8CC10D8F81400496809686B
:1048C800D1F80425024270470349002291F84101BA
:1048D80081F84121704700BF900400200348006818
:1048E80008B1017801B17047FFF710B8A40700209C
:1048F800042805D180B51046FDF704FABDE88040CC
:10490800002070470349002912BF01C90020002177
:10491800FBF7DEBB0856000040B584B002AE009637
:10492800FDF7D0FF029A039B04B040BD30B10121CE
:10493800002201724FF0FF31C0E9002170474FF0AB
:10494800000BB0EE4C9AB0EE4B8AF0EE4AEA704794
:1049580010B500239A4208BF10BDCC5CC454013383
:10496800F8E770470B4611461A4600F0BEB80A46EB
:10497800002100F0BAB87047024A0021C0E90012CD
:10498800704700BF006CDC020249896851F82000BA
:10499800704700BF08550000FF281CBF014A81541A
:1049A800704700BF0020024002484FF000410160FC
:1049B800704700BF00A10C400248016841F00301A4
:1049C800016070472422084002480068C0F30720AD
:1049D800704700BF30A00C4002480068C0F3844014
:1049E800704700BF04A00C4002480068C0F3812053
:1049F800704700BF20A00C40024840210160FFF72B
:104A080013BD00BFA8A00C4080B5FFF797FE014971
:104A1800086080BD8C0400200248012180F8411103
:104A2800704700BF900400200249084490F84A01EA
:104A3800704700BF9004002010B50023541E80E882
:104A48001E00C0E9043310BDB0B5024991E83C002E
:104A58003CC0B0BD1855000010B5024991E81C00D3
:104A68001CC010BD7C55000000680121806900F061
:104A7800080081EAD000704780B50A46D0F80310D4
:104A88001046FFF774FF80BD80B500F0CDF8002810
:104A980018BF012080BD80B500F0E3F8B0FA80F0BF
:104AA800400980BD234603958DF804500295FEF712
:104AB80009BF016842681160416800684160704739
:104AC8001CB54FF0FF340094FFF7F1FD1CBD002129
:104AD800425C0131002AFBD1481E704780B5FFF7C0
:104AE8008BFFBDE88040FEF7A1BE00239A4208BFB5
:104AF8007047C1540133F9E70B46D0F80320C11DB4
:104B0800184600F0DFB8FEE70148806CFEF71EBDCE
:104B18007002002001484068704700BF100800205C
:104B280001490968096A0847B00100100149096884
:104B380049690847B001001001490968096908472F
:104B4800B00100100149096889690847B0010010DF
:104B58000149096809680847E00100100149096826
:104B6800C96A0847B8010010014800680068004792
:104B7800E80100100148006840680047E80100109B
:104B880001480068FFF770B98C040020014880686C
:104B9800704700BF900400200168081AB0FA80F03E
:104BA800400970470149202200F08CB85C5300008E
:104BB80001480068006B00478C0100100068016B19
:104BC80021F48071016370470068016B41F4007142
:104BD800016370470068016B41F48071016370479D
:104BE8000149242200F06EB8CC52000080B510466E
:104BF800FEF7F6FD002080BD0021C0E900118160AC
:104C0800704700214FF0FF32FDF774BA4068002169
:104C180080F8FD107047406801210068C164704742
:104C280000B1704700F004B8EFF3108072B6704717
:104C3800EFF3108062B6704740465146FCF7DEBC81
:104C480080B5FEF7EDFB80BD40686C30FEF7B2BF63
:104C58000021017570470022FDF72CBD0138FDD1F8
:104C68007047EFF3108070472046FFF7D9BF5846CA
:104C7800FFF7D6BF406000607047026812691047AE
:104C880000F005F8FEE7007D70478160704700BFBF
:104C98007047FFF7CDBFFFF7FCBFFFF73DB8FFF741
:104CA80057B8FFF7C1BB0068704700687047806855
:104CB8007047012070470020704700207047FEF7BA
:0A4CC80073BCFEE7FFF744BEFEE7F1
:104CD40000B0004034000000FF0000001004002079
:104CE400200000003004002020000000000000002C
:104CF4000200000003000000FF000000FF000000AD
:104D0400601800205018002040000000200000001F
:104D14001300000014000000130000001500000040
:104D240016000000000200008E0000008E0001004A
:104D34008E0002008E0003008F0000018F0000022D
:104D44008F0000038E0001048E0000058E0008040D
:104D54008E00000489000006500000007F0001005E
:104D64003F0004003F0002003F0001007F000200FA
:104D74008E0002048E0001028E00010120202020FA
:104D84005B564552444943543A20504153535D20A5
:104D94004C6F77206E6F69736520666C6F6F72203D
:104DA40026206D696E696D616C206F66667365742B
:104DB4002120416E616C6F6720696E707574207379
:104DC400746167652071756965742E0D0A00202071
:104DD40020205B564552444943543A205041535392
:104DE4005D20436C65616E202B2F2D316D56207331
:104DF4007175617265207761766520646574656399
:104E04007465642120504741202620414443206694
:104E1400756E6374696F6E616C2E0D0A0020205BE1
:104E24005741524E494E475D2043686970204944BA
:104E340020646964206E6F7420726573706F6E6491
:104E4400206F6E207374616E646172642043532E0C
:104E54002053657474696E672064656661756C744B
:104E64002043533D44494F2000202020205B494EDD
:104E7400464F5D20546F7563682052412F4C41208A
:104E840070696E7320776974682062617265206648
:104E9400696E67657220746F207365652035302FE5
:104EA4003630487A2068756D206A756D70210D0A58
:104EB400003D3D3D3D3D3D3D3D3D3D3D3D3D3D3D5B
:104EC4003D3D3D3D3D3D3D3D3D3D3D3D3D3D3D3D0E
:104ED4003D3D3D3D3D3D3D3D3D3D3D3D3D3D3D3DFE
:104EE4003D3D3D3D3D3D3D3D3D3D3D3D3D3D3D3DEE
:104EF4000D0A0D0A002D2D2D2D2D2D2D2D2D2D2D91
:104F04002D2D2D2D2D2D2D2D2D2D2D2D2D2D2D2DCD
:104F14002D2D2D2D2D2D2D2D2D2D2D2D2D2D2D2DBD
:104F24002D2D2D2D2D2D2D2D2D2D2D2D2D2D2D2DAD
:104F34002D2D2D2D0D0A0D0A002D2D2D2D2D2D2D50
:104F44002D2D2D2D2D2D2D2D2D2D2D2D2D2D2D2D8D
:104F54002D2D2D2D2D2D2D2D2D2D2D2D2D2D2D2D7D
:104F64002D2D2D2D2D2D2D2D2D2D2D2D2D2D2D2D6D
:104F74002D2D2D2D2D2D2D2D0D0A003D3D3D3D3D7D
:104F84003D3D3D3D3D3D3D3D3D3D3D3D3D3D3D3D4D
:104F94003D3D3D3D3D3D3D3D3D3D3D3D3D3D3D3D3D
:104FA4003D3D3D3D3D3D3D3D3D3D3D3D3D3D3D3D2D
:104FB4003D3D3D3D3D3D3D3D3D3D0D0A000D0A005D
:104FC4000000004017FF0000000000000400FFFF85
:104FD40008000000100000004018002030180020D5
:104FE400401A0020301A00200A00000009000000C6
:104FF4000C0000000B00000009080AFF0A00000072
:1050040020205B494E49545D2050726F62696E677F
:105014002041445331323932522053504920696E71
:10502400746572666163652028323530206B487A76
:105034002C204D6F64652031292E2E2E0D0A002060
:105044002020205B345D202D3E204C697665204570
:105054006C656374726F646573204D6F646520289A
:10506400426F647920746F756368202F20696E74B1
:105074006572666572656E6365290D0A00202049B4
:105084006E74657261637469766520436F6D6D61DA
:105094006E6473202873656E642073696E676C6533
:1050A400206368617261637465722076696120733C
:1050B400657269616C293A0D0A00202020205B3357
:1050C4005D202D3E204469652054656D70657261D4
:1050D40074757265204D6F64652028496E7465721D
:1050E4006E616C20746865726D616C2073656E739B
:1050F4006F72290D0A00202020205B325D202D3E96
:1051040020496E7075742053686F72746564204D05
:105114006F646520284E6F69736520466C6F6F72EB
:105124002026204F66667365742054657374290DB8
:105134000A00202020205B315D202D3E20312048B4
:105144007A205371756172652057617665204D6FC1
:10515400646520282B2F2D31206D562074657374BF
:105164002067656E657261746F72290D0A002020D4
:1051740056616C69646174696E6720416E616C6F1D
:1051840067205369676E616C20436861696E20769D
:10519400696120496E7465726E616C205465737424
:1051A400204D6F6465730D0A002020536D61727485
:1051B40042414E204144533132393252204C6561D0
:1051C400646C65737320454347205665726966694C
:1051D400636174696F6E20546F6F6C0D0A00202038
:1051E4005B494E49545D2057616974696E6720318B
:1051F400303030206D7320666F7220646967697483
:10520400616C20636F726520504F522E2E2E0D0A52
:105214000020202A2A2A20464154414C3A20466143
:10522400696C656420746F206F70656E20535049FB
:1052340020636F6E74726F6C6C657221202A2A2A47
:105244000D0A00202020205B415D202D3E20417569
:10525400746F2D4379636C65207468726F75676829
:1052640020616C6C2074657374206D6F6465730DBC
:105274000A00202020205B4E4F54455D205472616B
:10528400636B696E672074657374207369676E61FC
:105294006C207472616E736974696F6E2E0D0A00EE
:1052A400202020205B564552444943543A20504123
:1052B40053535D204469652054656D706572617453
:1052C4007572653A20000B14000000000000000015
:1052D40000000000000000000000000001000000C9
:1052E40000C2010003000000000000004C495645C4
:1052F40020454C454354524F444553202846696E3B
:1053040067657220546F756368205465737429004F
:10531400494E5055542053484F5254454420284E2A
:105324006F6973652026204F666673657420546523
:1053340073742900494E5445524E414C2031487AE9
:1053440020535155415245205741564520282B2F73
:105354002D316D562900000800000000FFFFFFFFFB
:10536400000000000000000040420F0008000000A0
:105374000000000000000000494E5445524E414CCC
:10538400204449452054454D5045524154555245B9
:105394002053454E534F520020205B494E49545DE3
:1053A40020464F554E442041445331323932212056
:1053B40043533D44494F20002028436F6D7061746E
:1053C40069626C6520414453313239782066616DDD
:1053D400696C79290D0A002028414453313239324D
:1053E40052207769746820526573706972617469B8
:1053F4006F6E290D0A000D0A3E3E3E205B312D538F
:1054040045432053544154535D204D6F64653A2005
:10541400003E3E204175746F2D4379636C652045D1
:105424006E61626C6564210D0A005D004530000008
:10543400DD210000154C00007D11000099070000DB
:10544400A52C0000038000C0038000D5038000CC9D
:10545400038000DD0380000C0380005D0000000079
:105464000200000001000000030000001000000022
:10547400200000000D0A3E3E20537769746368657E
:105484006420746F204D6F6465205B0020284144C4
:105494005331323932205374616E64617264290D60
:1054A4000A002020205265672044756D70205B300F
:1054B4002E2E355D3A200000C05500003853000000
:1054C400145300007C530000F05200000000000060
:1054D400BD220000C94700000101010000000000D6
:1054E4003031323334353637383941424344454616
:1054F400000D0A2020202043483120567070203DA2
:1055040020002D00DC060020180300209403002056
:10551400FFFFFFFF0000000000000000FFFFFFFF8F
:1055240000000000207C2043686970204944203D2D
:1055340020307800207556207C204F666673657491
:10554400203D2000207556207C20537461743D302A
:105554007800207C20445244593D4F4B0D0A001ED4
:1055640000000000000000000000000030540000B3
:1055740070010020C44F0000000000000000000083
:105584000A000000207556207C205261773A2000E2
:10559400454347207C204348313D00206465672013
:1055A400430D0A0000000020D44C000050040020E9
:1055B400D05500000102000302000103554E4B4E7A
:1055C4004F574E00207C204348323D0000000240EB
:1055D4000929FF00000602868200081018200D0A1F
:1055E4000D0A00207556200000010203040020402B
:1055F400605D3A200030002E005B0020002B00018B
:0156040001A4
:0856080000000000000000009A
:1056100000E500000FA1020100BF0514BF02BF4C4E
:10562000003F0069240000C3007016BFCE01FB02DA
:105630006000342000200104CF002002400034012B
:105640007560004320000170003101F20177000015
:10565000F94001F9047104B5033F0606B11FFF5B71
:105660000B335F14AD0E35CCE14736DF040A384604
:10567000800038E2FFF0000031310000014B0000F3
:10568000814A00000200000010000000020000003B
:1056900010000000020000001000000002000000E6
:1056A00010000000020000001000000002000000D6
:1056B00010000000020000009004000010560000DE
:1056C0009004002084560000301A00208C56000000
:1056D0003018002094560000401A00209C5600000C
:1056E00040180020A456000050180020AC560000BE
:0C56F00060180020B456000000000020EC
:020000025000AC
:107FA80000008001100080FFFDFF5800FFFFBBF3B9
:107FB800FFFFFFFFFFFFFFFFFFFFFFFFFFFFFFFFC9
:107FC800FFFFFFFFFFFFFFFFFFFFFFFFFFFFFFFFB9
:107FD800FFFFFF00FFFFFFFF00FFFFFF00C5C5FF1A
:107FE800000000FF00000000FFFFFFFFFFFFFFFF92
:087FF800FFFFFFFFFFFFFFFF89
:00000001FF
