:100000000038012005D1000021D9000021D90000CD
:1000100021D9000021D9000021D9000021D90000F8
:1000200021D9000021D9000021D9000021D90000E8
:0C00300021D9000021D90000B1770000A8
:100040002DE9F84F2DED088BADF5C66D05AC2046BA
:100050000EF0C4FB4FF4E13021460B900020ADF8C8
:10006000140006F017F8DFF87CBCCBF81C0008B1D0
:100070000CF0DCFEDFF8700CDFF870ACD047DFF876
:10008000704C2046D047DFF86C0CD047DFF8680C86
:10009000D0472046D047DBF81C00002801F0C88478
:1000A000DFF8580CF1ADD0470CF028FFDFF8504CCA
:1000B0002046D047DFF84C0CD04709F009FD204618
:1000C000D047DFF8440CD0470AF09EFE2046D047C8
:1000D000DFF8380CD0470AF075FA2046D047DFF831
:1000E000300CD04709F058FC2046D047DFF8240CEC
:1000F000D047DFF8240C0DF07DFEDFF8200C0DF06A
:1001000089FEDFF81C0C002100224FF000080DF0E2
:10011000CBFBDFF8100C002100220DF0C5FB2046C0
:10012000D047DFF8040CD047DFF8000C0DF062FD7B
:100130002046D047DFF8F86B3046D047DFF8F40BA5
:10014000D047DFF8F40BD047DFF8F04B0020A04792
:100150009FEDFC1AB0EEC00A2820DFF8E49B0EF0F9
:10016000F8FB48BF24205BF8001001F101014BF8B7
:100170000010DBF82000DFF8CC1B00F101000F4677
:10018000CBF82000084648BF4846D047DFF8B80BF8
:10019000D04745F23E10A0479FEDEB1AB7EE00AAFC
:1001A0000EF0DAFA0EF0D0FB48BF24205BF8001006
:1001B00001F101014BF80010DBF8200000F1010013
:1001C000CBF82000384648BF4846D047DFF87C0BC4
:1001D000D047DE48A0479FEDDE1A0EF0BDFA0EF0C4
:1001E000B3FB48BF24205BF8001001F101014BF87C
:1001F0000010DBF8200000F10100CBF820003846A9
:1002000048BF4846D047DFF8480BD047D148A04701
:100210009FEDD11AB2EE049A0EF09EFAB4EE490A9E
:10022000F1EE10FA48BF24205BF8001001F1010143
:100230004BF80010DBF8200000F10100CBF82000A3
:10024000384648BF4846D047DFF8080BD0470EF085
:100250005DF9DFF8040BD0470EF058F9DFF8FC0A1F
:10026000D0470EF053F9DFF8F80AD0470EF04EF9F8
:10027000DFF8F00AD047B9484FF04041B84A4FF094
:100280001443CDE91288CDE92688CDF8C4841093B3
:10029000B44B0E91CDE918100F90B34811921792FC
:1002A0004FF0004245F6D811CDE9148316920DF2B5
:1002B000C4431B904FF008401A90AC481D904FF07B
:1002C00070401C90AA481F904FF060401E90A948B3
:1002D000CDE92080A848CDE92280A848CDE9248036
:1002E0000EAC45F2E470224606F072FE9FEDA40AC1
:1002F00095ED401A00210022B4EE401A9FEDA10AAC
:10030000F1EE10FA98BF01210EF000FBA8BF012208
:10031000114008424FF0280018BF24205BF800105D
:1003200001F101014BF80010DBF8200000F10100A1
:10033000CBF82000384618BF4846D047DFF8280AD7
:10034000D0476FF0640045F6D8116FF06402CDF825
:10035000C483CDE90045831C45F2E47003F008F93D
:100360009FED890A95ED001A00210022B4EE401A93
:100370009FED860AF1EE10FA98BF01210EF0C6FA41
:10038000A8BF0122114008424FF0280018BF2420C6
:100390005BF8001001F101014BF80010DBF82000C0
:1003A00000F10100CBF82000384618BF4846D0477E
:1003B000DFF8B809D047DFF8B84944F223104021EC
:1003C000A0479FED731A0EF0C7F90EF0BDFA48BFB3
:1003D00024205BF8001001F101014BF80010DBF85C
:1003E000200000F10100CBF82000384648BF484605
:1003F000D047DFF88009D0474FF458400021A0478C
:100400009FED641AB1EE048A0EF0A6F9B4EE480A24
:10041000F1EE10FA48BF24205BF8001001F1010151
:100420004BF80010DBF8200000F10100CBF82000B1
:10043000384648BF4846D047DFF83C09D0474FF41C
:1004400068400021A0479FED541A0EF085F9B4EEE4
:10045000490AF1EE10FA48BF24205BF8001001F1C0
:1004600001014BF80010DBF8200000F10100CBF88F
:100470002000384648BF4846D047DFF80009D0473B
:100480004FF6FF70FF21A0479FED441A282030EE61
:10049000010AB3EE041AB0EEC00A0EF05AFA48BFD1
:1004A00024205BF8001001F101014BF80010DBF88B
:1004B000200000F10100CBF82000384648BF484634
:1004C000D047DFF8BC08D0470EF020F8DFF8B408BA
:1004D000D0470EF01BF8DFF8B008D0470EF016F842
:1004E000DFF8A808D047DFF8A85828460EF0C6FA6B
:1004F000044628460CF06AFD20434FF0280008BF50
:1005000024205BF8001001F101014BF80010DBF82A
:10051000200000F10100CBF82000384608BF484613
:10052000D047DFF87008D047DFF86C4820460EF05F
:10053000A5FA054620460CF049FD28434FF0280057
:1005400000F02EB817B7D13800007AC4C2AEFFFF52
:1005500000007A44FFFF7F00AAF0C4C84040D740A3
:10056000EB735440000039401A83AA3EE0A83DBF17
:10057000C20240BF00002340000025400000F03FC1
:10058000AE47E3413D0AE3418FC2D9411F85D941BE
:1005900052782EC4AF5A19CAAF5A99CAA65A99CBE3
:1005A00008BF24205BF8001001F101014BF8001096
:1005B000DBF8200000F10100CBF82000384608BF2E
:1005C0004846D047DFF8D407D04730200DF02EF84A
:1005D0003F284FF028004C4608BF24205BF800104D
:1005E00001F101014BF80010DBF8200000F10100DF
:1005F000CBF82000384608BF4846D047DFF8A007B0
:10060000D04745200DF012F879284FF0280008BF98
:1006100024205BF8001001F101014BF80010DBF819
:10062000200000F10100CBF82000384608BF484602
:10063000D047DFF87007D0473046D047DFF868076B
:10064000D047DFF8F406D047DFF8CC9648460DF0E7
:10065000D1FB0EF07BF848460DF0E0FD0EF0DAF924
:1006600018BF24205BF8001001F101014BF80010C5
:10067000384618BF2046D047DFF83007D0470EF085
:1006800065F848460DF08AFC2421002818BF28216F
:100690005BF8010000F101004BF80100384608BF8B
:1006A0002046D047DFF80807D0470EF04FF84846FD
:1006B0000DF0EFFE0EF0AEF908BF24205BF800103D
:1006C00001F101014BF80010384608BF2046D04721
:1006D000DFF8E006D0470EF039F848460DF050FC40
:1006E00080284FF0280008BF24205BF8001001F19B
:1006F00001014BF80010384608BF2046D047DFF80C
:10070000B806D047DFF8B4C6D4A90A469CE8F90079
:10071000F9C248464E4609F08FFF0EF07BF9DFF82C
:100720002446DFF81C9618BF24205BF8001001F166
:1007300001014BF80010DBF8200000F10100CBF8BC
:100740002000204618BF4846D047DFF87406D0473F
:100750000DF0FCFF30460DF09CFE0EF05FF908BF77
:1007600024205BF8001001F101014BF80010204635
:1007700008BF4846D047DFF84C06D0470DF28451F9
:1007800030460BF0E3F8DDF88415DDF88825A1F597
:100790007A71B1FA81F14909084045F23E11511AC6
:1007A000B1FA81F1490908424FF0280018BF24200E
:1007B0005BF8001001F101014BF80010DBF820009C
:1007C00000F10100CBF82000204618BF4846D04772
:1007D000DFF8F405D0470DF0B9FF30460DF01EFDEF
:1007E0002821002818BF24215BF8010000F1010036
:1007F0004BF80100204618BF4846D047DFF8CC052B
:10080000D047C02400250027802F0CD0CDE91284CA
:10081000CDE90E77CDE9105830460EA909F00CFF4E
:100820000137013DF0E7DBF82000DFF8EC440EF083
:1008300011F920460DF0B2FB0EF0ECF8DFF804855C
:10084000DFF8FC5418BF24205BF80010C14601F10A
:1008500001014BF80010404618BF2846D047DFF88A
:100860007005D047DBF82000A0460EF0F3F82046D4
:100870000DF086FB0EF0CEF808BF24205BF80010C8
:1008800001F101014BF80010484608BF2846D04747
:10089000DFF84005D047DFF840050DF5657C61467F
:1008A00090E8FC004046FCC14546614609F0C4FEA4
:1008B00024214C46DFF88884002818BF28215BF8E3
:1008C000010000F101004BF80100DBF8200000F10D
:1008D0000100CBF82000484608BF4046D047DFF86B
:1008E000FC04D047CEA928460DF0F3FAD0980EF0BC
:1008F00095F808BF24205BF8001001F101014BF8C6
:100900000010DBF8200000F10100CBF82000484681
:1009100008BF4046D047DFF8C804D047CE988128AA
:100920004FF0280008BF24205BF8001001F10101FE
:100930004BF80010DBF8200000F10100CBF820009C
:10094000484608BF4046D047DFF89804D0470EAF6E
:1009500028462022394609F0CDFC0E9980F020006F
:100960000843C89981F01F0108434FF0280008BFD1
:1009700024205BF8001001F101014BF80010DBF8B6
:10098000200000F10100CBF82000484608BF404697
:10099000D047DFF85404D047DBF82000A9460DF01B
:1009A000E2FF0DF076FD60284FF02800264608BFD4
:1009B00024205BF8001001F101014BF800102046E3
:1009C000444608BF4046D047DFF82004D047D34D07
:1009D00028460DF01FFA0DF0B9FE28460DF0ECFA8E
:1009E00040284FF02800B04608BF24205BF80010D4
:1009F00001F101014BF800103046264608BF2046A1
:100A0000D047DFF8EC03D047F1ACDFF8E813202241
:100A100020460EF09DF8284621460AF01FFC0DF5F1
:100A2000B66128460BF0AFF9BDF8B815DDF8B00592
:100A300089B280F4FA7081F47A7108434FF028008B
:100A400008BF24205BF8001001F101014BF80010F1
:100A5000DBF8200000F10100CBF820004046B04652
:100A600008BF3046D047E448D047484656460DF0C8
:100A7000C1F928460DF0CEF90DF2644400210022A0
:100A8000002520460CF010FF20460DF099FF20466F
:100A90000DF0A0FA0DF0BEFFC14608BF24205BF8A0
:100AA000001001F101014BF80010DBF8200000F10B
:100AB0000100CBF82000A34808BF4046D047CF48EC
:100AC000D04720460DF077FF0DF02FFF0DF2C44404
:100AD000CB4ACDE90001204660210BF02DFA2046DB
:100AE000D0479348D047C748D0479348D047DBF812
:100AF0002000DFF814A30DF0ADFF0020D0470DF06B
:100B000089FFDFF8408208BF24205BF8001001F164
:100B100001014BF80010404608BF4846B047BB48AB
:100B2000B0470DF013FE0120D0470DF077FF08BF4E
:100B300024205BF8001001F101014BF80010404641
:100B400008BF4846B047DFF88408B0470DF0FEFD07
:100B50006420D0470A284FF0280008BF24205BF803
:100B6000001001F101014BF80010404608BF484653
:100B7000B047DFF85C08B0470DF0E8FD9020D047A3
:100B80000C284FF0280008BF24205BF8001001F16A
:100B900001014BF80010404608BF4846B047DFF857
:100BA0009C0FB0470DF0D2FD9948D047B0F57A7F41
:100BB0004FF0280008BF24205BF8001001F101016C
:100BC0004BF80010404608BF4846B047DFF8700FAA
:100BD000B0470EA800210AF091FE9DF8500228218E
:100BE000802808BF24215BF8010000F101004BF8C8
:100BF0000100DBF8200000F10100CBF8200008BF65
:100C0000C8464046E5ACB047DFF8380FB047C82DBE
:100C100009D0384644F620612A460023009402F0A9
:100C2000E1FA0435F3E7EA992820002908BF2420D7
:100C30005BF8001001F101014BF80010DBF8200017
:100C4000DFF8EC1E00F10100CBF82000DFF8E40E25
:100C500008BF08460CF0F0FEDFF8EC0E0CF0ECFEDE
:100C60006C4A6D4900204FF0010C4FF0070E4FF019
:100C70000508032600239246684A9346002200296D
:100C800000F0DC80DDB2DFF8A44EB5FBFEF90C44C9
:100C90002031C9EBC907C4F8802CC4F88CACC4F867
:100CA000900CC4F8940CC4F898BC84F89CCC0A321C
:100CB000EF1B07F2D137A4F8867CB5FBF8F707EBFA
:100CC0008707EF1BB5FBF6F5023F05EB4505A4F8DA
:100CD000847C5D1B01336B3D05F09F05A4F8885CA7
:100CE000CDE700BFC80300209C25010039DA0000D1
:100CF000F10B0100B70B0100090B01003F040100DB
:100D00003A250100A40101000F0D0100D00E0100E1
:100D100065090100BD030100C8670020F47F0020C1
:100D2000F4950020109600207D0B010061E8000082
:100D3000920A0100F10D0100430B0100D5E1000012
:100D400081240100B3240100CF1C01009211010095
:100D50008410010091140100E41B01007A190100C4
:100D6000F314010064120100F5FF0000CBFE000047
:100D7000F1BE00009D0C0100F6070100C711010043
:100D8000290E0100CC1201001618010066130100A3
:100D9000C0940020FD13010094940020CB130100A7
:100DA00070180100B11D0100810D0100A91C010096
:100DB000F21A01004E1901001B1B01000C21010059
:100DC000BA170100D01601007A070100A01A01002D
:100DD00034080100C91A0100F4200100F6180100CE
:100DE000430601003E0001001A0A01009D1801009F
:100DF000941B01002C1F010060140100E315010089
:100E00002B0C0100DE0901008BD700001C20010023
:100E100040420F00A4707D3F80F3FFFF0000C841F7
:100E2000000075C49A99193E6F12833A00000000C1
:100E300000007A440000B4C2CDCCCC3DDFF8EC0C0D
:100E4000D4AA642103F06AFA1FED0B0A9DEDD51AAE
:100E5000DFF8D0BC2820DFF8DC9CDFF8CCACDFF872
:100E6000D08C31EE000AB0EEC00AB4EE480AF1EEC2
:100E700010FA48BF24205BF8001001F101014BF883
:100E80000010DBF8200000F10100CBF820004846FC
:100E900048BF4046D047DFF8B40CD0471FED1F0ACB
:100EA0009DEDE11A28200DF031FD48BF24205BF8AC
:100EB000001001F101014BF80010DBF8200000F1F7
:100EC0000100CBF82000484648BF4046D047DFF835
:100ED000800CD0471FED2C0A9DEDDC1A28200DF068
:100EE00015FD48BF24205BF8001001F101014BF80B
:100EF0000010DBF8200000F10100CBF8200048468C
:100F000048BF4046D047DFF84C0CD0471FED398A28
:100F10001FED399A0DF0ABFAB0EE482AF0EE492AEF
:100F200008F022FE1FED3D1A1FED3DBA0DF014FC36
:100F3000B4EE4B0AF1EE10FA48BF24205BF8001023
:100F400001F101014BF80010DBF8200000F1010075
:100F5000CBF82000484648BF4046D047DFF8F80BA2
:100F6000D0470DF084FAB0EE492AF0EE482A08F096
:100F7000FBFDB0EEC00A2820B4EE4B0AF1EE10FAE9
:100F800048BF24205BF8001001F101014BF800106C
:100F9000DBF8200000F10100CBF82000484648BFF4
:100FA0004046D047DFF8B40BD0470DF2644600212D
:100FB0000024304609F098FCFC48D394CDE9D14494
:100FC0000DF28457DFF8984B002100220097D09053
:100FD000F748CF9040F20110ADF84D034FF4FA609E
:100FE000ADF844034FF47A70CE90CEAD30462B4628
:100FF000A0479DF89D050DF01DFD18BF28205BF84A
:10100000001001F101014BF80010DBF8200000F1A5
:101010000100CBF82000484608BF4046D047DFF823
:10102000440BD0479DF89F050DF0F8FC08BF242025
:101030005BF8001001F101014BF80010DBF8200013
:1010400000F10100CBF82000484608BF4046D047D9
:10105000DFF8140BD047BDF8AC0510F0100F4FF0BF
:10106000280008BF24205BF8001001F101014BF8B3
:101070000010DBF8200000F10100CBF8200048460A
:1010800008BF4046D047DFF8E40AD047C9480021EE
:1010900000222B460097D0904FF4FA50ADF844034D
:1010A0003046A0473046002100222B460097A0473B
:1010B0009DF89D050DF0AEFC18BF24205BF80010D4
:1010C00001F101014BF80010DBF8200000F10100F4
:1010D000CBF82000484618BF4046D047DFF8900ABA
:1010E000D0479DF89F0503284FF0280008BF242013
:1010F0005BF8001001F101014BF80010DBF8200053
:1011000000F10100CBF82000484608BF4046D04718
:10111000DFF8600AD0470DF2C4413846C02208F01B
:1011200095FE054601389F284FF0280038BF24203F
:101130005BF8001001F101014BF80010DBF8200012
:1011400000F10100CBF82000484638BF4046D047A8
:10115000DFF8240AD0479620602100224FF47573EF
:1011600000900DF5B660CDE901014FF47A7045F2BB
:101170003E110BF0DDFE01384F284FF0280038BF3C
:1011800024205BF8001001F101014BF80010DBF89E
:10119000200000F10100CBF82000484638BF40464F
:1011A000D047DFF8D809D04700EE105A9FED821AD9
:1011B0002820B8EE400A80EE010A9FED801A30EE3A
:1011C0000A0A20EE010A9FED7E1A0DF0C2FBC8BF8D
:1011D00024205BF8001001F101014BF80010DBF84E
:1011E000200000F10100CBF820004846C8BF40466F
:1011F000D047DFF88C09D047DFF830090CF0FAFD52
:101200000DF093FBDFF83029CDE90001F1AC60214E
:1012100020460AF091FE2046D047DFF86809D04703
:10122000DBF82000DFF860490DF014FC3020A04707
:101230003F284FF0280008BF24205BF8001001F180
:1012400001014BF80010484608BF4046D047DFF880
:101250003C09D0470DF07AFA4D20A04737284FF0CF
:10126000280008BF24205BF8001001F101014BF8B1
:101270000010484608BF4046D047DFF81409D04761
:101280000DF064FA5720A0473E284FF0280008BF11
:1012900024205BF8001001F101014BF800104846D2
:1012A00008BF4046D047DFF8EC08D0470DF04EFAB3
:1012B0005320A0476D284FF0280008BF24205BF87A
:1012C000001001F101014BF80010484608BF4046EC
:1012D000D047DFF8C408D0470DF038FA4520A047C2
:1012E00079284FF0280008BF24205BF8001001F196
:1012F00001014BF80010484608BF4046D047DFF8D0
:101300009C08D0470DF022FA4120A04777284FF0E3
:10131000280008BF24205BF8001001F101014BF800
:101320000010484608BF4046D047DFF87408D04751
:10133000381D28210DF0C5F84FF4D2700DF2C445C8
:10134000C022CDF8A8051F482946CDF8A0050120E8
:101350008DF89D052A20ADF890051B48CDF88C0529
:1013600048208DF88A054FF42050CDF88405384682
:1013700008F0B2FD553844464C284FF0280038BFDD
:1013800024205BF8001001F101014BF80010DBF89C
:10139000200000F10100CBF82000484638BF40464D
:1013A000D047DFF80008D04700F014B80000B4417F
:1013B0000000B04166661242006020C50000C842CD
:1013C0000000B4429A991142410326000020010016
:1013D0006B1F0100DBF82000DFF8CC17DFF8CC77BB
:1013E0000DF0C1FAB8470DF025FB08BF28205BF8C7
:1013F000001001F101014BF80010484618BF4046AB
:10140000D047DFF8AC07D047DBF82000DFF8A4179F
:101410000DF0A9FAB8470DF00DFB08BF28205BF8C6
:10142000001001F101014BF80010484618BF40467A
:10143000D047DFF88407D04740F2E6306FF08D01E7
:101440000C22CDE90006602002906FF0640000F1EC
:1014500043084FF4205043460BF0D2FD32381A288F
:101460004FF0280038BF24205BF8001001F1010183
:101470004BF80010DBF8200000F10100CBF8200051
:10148000484638BF2046D047DFF83007D047DBF862
:101490002000DFF82C170DF0DDFA3046B8470DF0CC
:1014A000C9FA08BF28205BF8001001F101014BF8D0
:1014B0000010484618BF2046D047DFF80807D0473D
:1014C000DFF80407E5A90D4690E8DC00A020DCC5A4
:1014D00040F2E6370C2243460097F1ADCDE90150CA
:1014E0004FF420500AF08EF85038DFF8444629288F
:1014F0004FF0280038BF24205BF8001001F10101F3
:101500004BF80010DBF8200000F10100CBF82000C0
:10151000484638BF2046D047DFF8B006D047DBF852
:101520002000DFF8AC16DFF884260DF01CFA904797
:101530000DF080FA08BF28205BF8001001F10101CE
:101540004BF80010484618BF2046D047DFF8840605
:10155000D047DBF81C000BF0DFF9DBF82000DFF8E8
:1015600078660DF077FAB0470DF054FA08BF2420E2
:101570005BF8001001F101014BF80010484608BF6C
:101580002046D047DFF85406D0470DF0DFF80DF2C3
:10159000845009F093FE0DF03DFA18BF24205BF84B
:1015A000001001F101014BF80010484618BF204619
:1015B000D047DFF82C06D0470DF0C8F8B0470DF043
:1015C0002DFA08BF24205BF8001001F101014BF84F
:1015D0000010484608BF2046D047DFF80806D0472D
:1015E000DBF820006FF08D010C22434600970DF0D0
:1015F00031FA4FF4205009F031FB0DF00BFAA04600
:1016000018BF24205BF8001001F101014BF8001015
:10161000484618BF2046D047DFF8CC05D0470DF02C
:1016200095F8B04702284FF0280008BF24205BF847
:10163000001001F101014BF80010484608BF204698
:10164000D047DFF8A805D047D4AEDFF8A415DFF8FF
:10165000A4553046A847DBF82000DFF89C454FF43E
:1016600000720DF0F7F90EAF30463946A0470DF085
:10167000D1F9C8BF24205BF8001001F101014BF83B
:1016800000104846C8BF4046D047DFF87005D04735
:10169000DFF86C153046A8470DF0D8F90DF056F874
:1016A0000DF0E4F80DF0BAF908BF24205BF8001043
:1016B00001F101014BF80010484608BF4046D047F1
:1016C000DFF84005D047DFF840153046A8470DF059
:1016D000BDF90DF03BF80DF0C9F80DF09BF908BF0E
:1016E00024205BF8001001F101014BF8001048467E
:1016F00008BF4046D047DFF81405D047DFF8101583
:101700003046A8470DF0A2F90DF020F80DF09CF836
:101710008C284FF0280008BF24205BF8001001F14E
:1017200001014BF80010484608BF4046D047DFF89B
:10173000E404D047DFF8E0143046A8470DF086F9FE
:101740000DF004F80DF080F88C284FF0280008BF49
:1017500024205BF8001001F101014BF8001048460D
:1017600008BF4046D047DFF8B404D047DFF8B014D4
:101770003046A8470DF06AF90CF0E8FF0DF094F838
:101780002421002818BF28215BF8010000F1010086
:101790004BF80100484608BF4046D047DFF88404B4
:1017A000D047DFF884143046A8470DF04FF90CF00D
:1017B000CDFF0DF079F80DF02DF918BF24205BF85E
:1017C000001001F101014BF80010484618BF4046D7
:1017D000D047DFF85804D04700200DF2C3350DF292
:1017E000C2360DF2C137DFF848448DF8C3038DF8D7
:1017F000C2038DF8C1030120294632463B46A0476B
:101800009DF8C2030DF00AF908BF24205BF8001010
:1018100001F101014BF80010DBF8200000F101009C
:10182000CBF82000484608BF4046D047DFF8040404
:10183000D0479DF8C3030DF0F1F808BF24205BF8F2
:10184000001001F101014BF80010DBF8200000F15D
:101850000100CBF82000484608BF4046D047DFF8DB
:10186000D803D0470DF084F89DF8C3039DF8C21348
:1018700080F00100C9B208434FF0280008BF2420BF
:101880005BF8001001F101014BF80010DBF82000BB
:1018900000F10100CBF82000484608BF4046D04781
:1018A000E648D0470DF064F80DF062F89DF8C103EA
:1018B0009DF8C313C0B280F0010008434FF0280028
:1018C00008BF24205BF8001001F101014BF8001063
:1018D000DBF8200000F10100CBF82000484608BFEB
:1018E0004046D047D648D047CEAD002128460BF021
:1018F000D4FD0CF02BFF28460DF067F80DF08AF8A8
:1019000008BF24205BF8001001F101014BF8001022
:10191000484608BF4046D047CA48D047DBF82000B9
:10192000C94C0DF020F8A0470DF078F808BF24202E
:101930005BF8001001F101014BF80010484608BFA8
:101940004046D047C148D0470CF000FF2846A0478A
:1019500002284FF0280008BF24205BF8001001F196
:1019600001014BF80010484608BF4046D047B84830
:10197000D0470CF0EBFE2846A0470DF04BF808BF0F
:1019800024205BF8001001F101014BF800104846DB
:1019900008BF4046D047AF48D0470020CDE9EE0011
:1019A000CDE9EC0001208DF8BC03ECA9284603F03A
:1019B0009FFA9DF839032821012808BF24215BF8EC
:1019C000010000F101004BF80100DBF8200000F1FC
:1019D0000100CBF8200008BFC1464846D0479E48CA
:1019E000D0470CF0A2FF0DF5B664534ACDE90001D3
:1019F000204680210AF0A0FA2046D0479748D047D9
:101A00000EAD0DF059F80DF001F80CF084FF042034
:101A10000DF2C4410CF084FF914C924A29460023F8
:101A2000204607F089F858B18F480CF005F8FEE71A
:101A3000984C06200CF086FC20460BF065FEF8E77B
:101A40000EAD0DF03FF80DF037F80CF0DFFF0CF0A5
:101A500099FF03260DF2C4410CF08FFF834A201D2D
:101A60000CF0D0FF18B182480BF0E6FFFEE70EAD98
:101A70000DF028F80DF020F80CF0C8FF0CF04BFF2B
:101A80000DF2C4410CF079FF7A4A04F108000CF021
:101A9000B9FF18B178480BF0CFFFFEE70EAD0DF09F
:101AA00011F80DF009F82846012101260CF0EAFE94
:101AB0000CF068FF02200DF2C4410CF031FF6F4AB8
:101AC00004F10C000CF09EFF18B16D480BF0B4FF50
:101AD000FEE70EAD0CF0F6FF0CF0EEFF0CF096FFFB
:101AE0000CF050FF0DF2C4410CF047FF654A04F1C1
:101AF00010000CF087FF18B163480BF09DFFFEE764
:101B00000EA80DF01DF861480BF096FF60480BF031
:101B100093FF00200DF5C66DBDEC088B01B0BDE84C
:101B2000F08F00BFC803002039DA0000C86700202A
:101B300081240100B32401002B0C01004C1F010083
:101B40005C1C01005C110100EEFC0000FF160100AE
:101B500022190100640C01007B03010084050100CF
:101B600089400000C21401003C0701007108010017
:101B700004060100FE06010073020100AE08010028
:101B8000F0FB00001701010061DA0000E20F010024
:101B9000A5190100CF1901000C1C0100441B010014
:101BA000341C0100261101008C23010059D60000CD
:101BB000BA10010012220100CE0A01003E0F0100FE
:101BC000A6230100B90D01003C220100480D0100CF
:101BD00056230100D60C01000DE40000441E010054
:101BE00098120100F9190100431601004D1A010075
:101BF000A625010093E60000C9900000771A0100B5
:101C0000D9240100431801003A230100070F010005
:101C100064220100231A01008C22010083150100B7
:101C200008240100F51C0100B32301001B1D010065
:101C300021A70000E4FD0000F01001007FFE00007D
:101C400082060100411D0100CBE000005315010098
:101C5000331301001316010042FD0000B807010014
:101C600030030020F1AB0000D61D010039B10000A7
:101C7000671D0100097100006C1B01000D8500004B
:101C80008C170100D14C0000E81701005D1701001E
:101C900030120100A08601002DE9F04FADF5077D5F
:101CA000D0F8009006469B461546869148460CF0B3
:101CB000FEFC4FF0000A09EB00044FF0FF30002754
:101CC000CDF814A2A14580F0C580A04609F1010419
:101CD0008DF810A28390CDE981AA14F8010C002898
:101CE00000F0B880252805D029463460D847013453
:101CF0000137F2E73460859781AC3146204600F029
:101D0000AEF82046314686AA00F0CAF8306802785C
:101D1000411C7A2A2AD0682A44461CD06A2A09D053
:101D20006C2A0FD0742A09D04C2A2CD1819840F00B
:101D3000800025E0819840F4006021E0819840F423
:101D400000501DE00146819A11F8013F6C2B12D121
:101D500042F4807107E00146819A11F8013F682B37
:101D60000CD142F40071819102300BE0819844461D
:101D700040F4805004E042F0400001E042F02000D6
:101D800081900846027800F10109732A8DF810222B
:101D9000C6F800901FD06E2A2AD1819843F6607150
:101DA0000840411E80EA01028A420ED990FAA0F052
:101DB000B0FA80F0411F082907D8F817DFE801F0D2
:101DC00044050539400539050500869850F8041B7F
:101DD0000F60869026E09DF8040240061AD4CDF8E4
:101DE00000B081A886AA294685AB00F01CF919E04D
:101DF0000DF1060881A986AA404600F069F9909B7A
:101E00000246404629469847411C18BF38448590F1
:101E1000074608E0CDF800B081A886AA294685AB20
:101E200000F09CF8859F781C4FF0FF307FF44AAF9C
:101E30000EE0869951F8042BC2E900708691F1E713
:101E4000869802C80F70C4E7869802C80F80C0E762
:101E50004FF0FF3738460DF5077DBDE8F08F10B520
:101E60000A680124E30708BF10BD1378302B0CD09B
:101E7000232B0CD02B2B0CD02D2B04D00024202B6B
:101E8000F0D1042306E0012304E0102302E008233C
:101E900000E00223046801320A6023430360E0E7A4
:101EA000FEB50446086816460D4603782A2B11D164
:101EB0003068011D31600068B0F1FF3F606005DCF3
:101EC00040426060206840F0010020602868471CA4
:101ED0002F6017E000210DF10202303B4718092B5B
:101EE00006D87B1C2B60435C53547B780131F4E7AC
:101EF000002050549DF8020020B10DF102000AF0BC
:101F000009FA606038782E2827D1781C28607A7802
:101F10002A2A08D13068011D31600068A060286855
:101F200001302860FEBD00200DF10201303A092A7F
:101F300007D83A18931C2B60537892780B540130D1
:101F4000F4E700220A549DF8020028B10DF10200C6
:101F50000AF0E0F9A060FEBDA260FEBD2DE9FE4FD3
:101F6000054610680C46011D116007680C9AD7B32E
:101F7000AE6898469146002E04D438460CF056FBC5
:101F8000864203D338460CF051FB0646D5F804A030
:101F9000B3460195B245C8BFD346D8F80000CDF886
:101FA00008805844C8F800000FDD01980078C00789
:101FB0000BD1ABEB06054FF00008A84505DA202051
:101FC0002146C84708F10108F7E7DDF80880002539
:101FD000B5420EDA57F82500B0F5807F19D22146B8
:101FE000C8470135F4E70020214603B0BDE8F04FB3
:101FF0001047B24515DD01980078C00711D0ABEB52
:1020000006050026AE420CDA20202146C8470136DC
:10201000F8E74FF0FF30C8F800000CF023FD58211E
:102020000160BDE8FE8F2DE9F84F054610680C46AB
:10203000011D116006680A9AC6B3AF689B469046B8
:10204000002F04D430460CF032FB874203D33046D5
:102050000CF02DFB0746D5F804A0B9460095BA450B
:10206000C8BFD146DBF800004844CBF800000DDDC6
:1020700000980078C00709D1A9EB070B00255D4542
:1020800004DA20202146C0470135F8E70025BD428B
:1020900004DA705D2146C0470135F8E7BA4503DD33
:1020A00000980078C00706D1BDE8F88F00202146CF
:1020B000BDE8F84F1047A9EB07050026AE42F3DA5A
:1020C00020202146C0470136F8E700BF00BF00BF0F
:1020D0002DE9FE4F164600278B46D1F8048040F2CA
:1020E000FD112022044601970CF0E6F904F5FE707C
:1020F00084F8FD7102909BF80C00A0F16101172992
:1021000029D80122BA4B8A401A4209D001A902AA51
:102110005846334600F070F900274FF0000991E06F
:1021200012F0710F25D1022915D130680027011D49
:102130003160006884F8FC01C0B2DBF80010B0FA2E
:1021400080F04FEA501921F00201CBF8001004F2A0
:10215000FB11029176E0A0F14501032909D325285E
:1021600000F08A80412804D05828CFD04FF00009D1
:102170006AE03068073020F0070000F108013160A4
:1021800090ED000B9BF80C5056EC107BA5F17B09F1
:10219000384631463A4633460BF092F8002840F074
:1021A0000C8194499FED900B26F00040414053EC88
:1021B000102B394315D003F000414FF000090844BB
:1021C00040EC107BF70FA5F14100062829D9A5F1B5
:1021D0006100062836D8DFE800F02A353535DCD72F
:1021E000D2006E20314619F11A0F38BF4E2084F804
:1021F000FB014FF0660038BF462084F8FC014FF029
:10220000690038BF492084F8FA0104F5FC70029097
:10221000384607F03AFF78B12D204FF00009042727
:102220000EE0DFE800F0040F0F0FB6B1AC0002A91A
:10223000584601F0DDFD70E72B204FF00009032721
:1022400084F8F9019BF80C00A0F16F014FF0010A2E
:10225000092905D80AFA01F140F24322114221D19D
:1022600058281FD06FB1012F1CD101200190DBF83D
:10227000000000F002000CE0252020800120BDE8D5
:10228000FE8FDBF80010019A01F00200002A00F036
:10229000858002992D22B0FA80F04FEA501A01F899
:1022A000012902919BF8000004EB08072646C007AD
:1022B000029809D104F2FD11DBF804202646091A20
:1022C0009142DCBF791A4E1C411C304600224FF46B
:1022D000FF7300250BF01CFDB9F1000F02901CBF2D
:1022E00000F8015B0290B84207D8391A0138202261
:1022F00001310CF0E1F8002038709BF80000C006B6
:1023000005D4311B204620220CF0D6F831E0A6423D
:102310002FD0311B2046302230250CF0CDF801980B
:10232000B0FA80F0400900EA0A00012805D19BF8C4
:102330000000400701D4204605E03178204600F82F
:10234000011B06F8015B9BF80C1041290DD05829A0
:1023500005D0612909D0782901D0702909D19BF8CD
:102360000020120701D4612903D171784170302017
:10237000707020460CF09BF94844BDE8FE8F02A91E
:10238000584602F089FBC8E602A9584609F0E8F968
:10239000C3E602A9584604F01FFABEE628B948076A
:1023A0007FF580AF0298202103E002982B214FF0A7
:1023B000000A00F80119029074E7612019F11A0F60
:1023C00038BF412084F8FB014FF000094FF06E0048
:1023D00038BF4E2084F8FC0184F8FA01022704F289
:1023E000F91002902EE700BF00000000000000007E
:1023F00008C190000000F07FF8B5054680681446DB
:102400000F46B0F1FF3F04DD286820F0100028607F
:1024100001E00120A860287B1026582807D07828E2
:1024200005D0702803D06F2814BF0A260826284636
:10243000194600F053F8AA684AB950EA010206D1D9
:102440002878000749D52B7B0020002112E02B7B48
:10245000642B04D16423B1F1FF3F05DD0AE0692B51
:1024600008D1002906D5692301223A6000224042A2
:1024700062EB01013246009400F0ACF83021AA680A
:10248000904205DA22680130531E23601170F6E78E
:10249000287B582818BF782810D1297809070FD52C
:1024A00021684A1E2260702808BF782008702068C2
:1024B000411E216030210170287B01E07028ECD0A2
:1024C0006F280AD12878000707D52068417830297D
:1024D00003D0411E216030210170F8BD10B5027B90
:1024E000702A2BD0006843F660731840431E80EAC0
:1024F00003049C420DD990FAA0F0B0FA80F00538A0
:10250000082806D8DFE800F04D050520390520052C
:102510000500A2F1640014280ED8012303FA00F08C
:102520002B4B18420AD110F0210F05D00868021D6C
:102530000A600068C11710BD582A46D10868021DFC
:102540000A600068002110BDA2F16400142808D8B8
:10255000012303FA00F01E4B184204D110F0210FA2
:1025600001D1582A31D10868073020F0070000F166
:1025700008020A60D0E9000110BDA2F1640014282D
:1025800008D8012303FA00F0114B184204D110F0CF
:10259000210FCBD1582A18D10868021D0A60007893
:1025A000D0E7A2F16400142808D8012303FA00F050
:1025B000074B184204D110F0210FB7D1582A04D18B
:1025C0000868021D0A600088BCE70020BAE700BF67
:1025D00000081200F8B505461148124E582B069F08
:1025E000144608BF064655EA010011D13868421E5C
:1025F0003A60302202700BE02846224600F014F8C0
:102600003A68531E3B6000FB14530546F35C13709D
:1026100055EA0100F0D138680CF049F80138F8BDEE
:10262000D8220100E9220100102A06D0082A09D187
:10263000C00840EA4170C9087047000940EA0170CB
:102640000909704719B9B0FBF2F00021704780B555
:1026500000230BF0F9FE80BD2DE9F84F2DED028B24
:10266000ADF6984D0027002800F0F2810E460029B3
:1026700000F0EE819246002A00F0EA8196ED038A8E
:102680008146B5EE408AF1EE10FA1DD8B6F9061073
:10269000B6F90400B6F9082001EE101A00EE100A8F
:1026A000B8EEC11AB8EEC00A21EE011A00EE001A07
:1026B00000EE102AB8EEC00A00EE001AB1EEC10A10
:1026C0009FEDE71A80EE018AB9F8A40CD6F80080D5
:1026D0003146202209F6B44409EB401024300CF0B6
:1026E00037FAB9F8A4CC64200CF10103B3FBF0F184
:1026F00001FB103BB9F8A60C6328A9F8A4BC07D8C5
:10270000411CB0F16307A9F8A61C18BF012700E01F
:102710000027B9F8A80C451C99F8F20CA9F8A85C98
:1027200068B3A8B2002632284FF0000038BF01205D
:10273000384340F0588105946424CDE903084FF4F0
:102740004861C84F0DF11808A9F8A86CB3FBF4F064
:102750004843C0EB4C10484400F14405B6F5486FBF
:1027600054D0BBFBF4F0202200FB075108EB06001D
:102770000CF0EEF920360BF1010B2035EEE799F85D
:10278000F00C052800F29B80DFE810F00600D10075
:102790009D009900F300090199ED000AB4EE408A0A
:1027A000F1EE10FA40F1A18199F8F30C99F80410B8
:1027B000013089F8F30CC0B28842B2D30120C9F8C5
:1027C000F48C89F8F00C0020606489F8F30C99F817
:1027D000DD0C002800F08D829FEDA30A0146224601
:1027E000B0EE401AB0EE402A002900F0428212ED0D
:1027F000023A12ED014A92ED005A01390C3230EEE4
:10280000050A31EE041A32EE032AEDE7059C06A80C
:10281000642104F16C0201F081FD99F8DC1C99F847
:10282000DD0C94ED1B2A94ED1C1A94ED1D0AB6EEF6
:10283000083A4A1C01EB410109EB810102F0030255
:10284000042801F6AC4189F8DC2C81ED002A81EDE9
:10285000011A81ED020A3CBF013089F8DD0C94EDCC
:10286000284ADDF81080B4EE434AF1EE10FA80F207
:10287000B18099F8EC0C94ED273A022800F0FA8028
:10288000012800F09080002840F00F819FED775ADA
:102890000CF064F8C0F243819FED754AB4EE443AFF
:1028A000F1EE10FAC0F23B8199F8EF0C012840F0EC
:1028B00096810BF0D2FE022880F0F38093E1002095
:1028C00089F8F00C2DE7D9F8FC0CA8EB0000A0F17A
:1028D000C801B1F5967F00F2EC80B9F8140D94EDC3
:1028E000150AB6F9061094ED161AB6F9082094EDFB
:1028F000172A0130A9F8140DB6F9040003EE100AE6
:10290000B8EEC33A30EE030A03EE101AB8EEC33A3B
:1029100084ED150A31EE031A03EE102AB8EEC33A1D
:1029200084ED161A32EE032A84ED172AF9E694EDA7
:10293000110AD9F8F40CB4EE408AA8EB0000F1EECD
:1029400010FAC8BF84ED118A99ED020AB9F80C108B
:10295000B4EE408AF1EE10FA04DB642802D3884218
:1029600040F228816431884284BF0020A9F8F00C2D
:10297000D7E6B9F8140D002800F0D48003EE100A51
:1029800094ED151A94ED162A94ED170AB8EE433A11
:1029900080EE030A82EE032A81EE031AC8E00120CA
:1029A00089F8F20CBDE69FEDE95A0BF0D7FFC0F2B3
:1029B000A0809FEDE75AB4EE453AF1EE10FAC0F26E
:1029C000988099F8EF0C022840F004810BF045FE46
:1029D000022804D30CF036F8022089F8EC0C002011
:1029E00089F8ED0C039880F001070AF1080009F559
:1029F00052614422CAF800808AF804700CF0A8F8EA
:102A0000B9F8EC0C9FEDD81AAAF84C0099F8F00C24
:102A100099F8F11C99F8F22C8AF84E108AF8502097
:102A20008AF84F0051466022606CCAF85400B9F829
:102A3000040D00EE100AB8EE400A20EE010A8AEDFD
:102A4000170AE06CCAF8580009F618500CF080F824
:102A500038460DF6984DBDEC028B01B0BDE8F08F05
:102A600000007A4480F3FFFF00000000EC51383E84
:102A7000CDCC4C3D9FEDB30AB4EE404AF1EE10FAD6
:102A800006D49FEDB10AB4EE403AF1EE10FA43D508
:102A900099F8EF0C012840F08A800BF0DEFD032846
:102AA0009DD30BF0CFFF012097E7002089F8EC0CB5
:102AB00099E0B0F5FA7F7FF634AEB9F8140DCDE9A0
:102AC000013C002800F0E68003EE100A94ED150AA0
:102AD00094ED161A94ED172AB8EE433AC2EE032A83
:102AE00081EE032AC0EE031AE6E0002089F8F30C19
:102AF00017E69FED985A0BF031FF0DD59FED964AE2
:102B0000B4EE443AF1EE10FA06D599F8EF0C00282D
:102B100000F00A8101205FE00BF094FF5FE70BF00B
:102B200091FF60E09FED852A9FED830AB0EE421A87
:102B3000B6F90610B6F90400B6F9082003EE101A2B
:102B4000B8EEC33A33EE422A03EE100AB8EEC33AA7
:102B5000B0EEC22A33EE411AB0EEC11A31EE021ABB
:102B600002EE102AB8EEC22A32EE400AB0EEC00AD7
:102B700031EE000A9FED721AB4EE410AF1EE10FA3E
:102B800002DD4FF440700FE0B9F8040DB9F81810E9
:102B90000130A9F8040D80B28842FFF4C2AD0120D3
:102BA00089F8F20C40F20520A9F8F00CB9E540F2E2
:102BB000011011E000204FF48171C9F8FC8CA9F8D4
:102BC000F01CC9F8080DC9F80C0DC9F8100DA9F8CA
:102BD000140DA6E540F20120A9F8EE0CFFE640F244
:102BE0000110A9F8EE0C9FED5D3AB0EEC22AB4EEEA
:102BF000431AF1EE10FA0EDD9FED594AB4EE442A65
:102C0000F1EE10FA07D5B0EEC05AB4EE445AF1EE28
:102C100010FA3FF5E4AEB4EE430AB0EEC11AF1EE9D
:102C200010FA08DD9FED4E4AB4EE441AF1EE10FAA8
:102C300001D50120D4E69FED4B4AB4EE440AF1EEF3
:102C400010FA08D59FED460AB4EE401AF1EE10FADC
:102C500001D50220C4E6B4EE432AF1EE10FA61DD9C
:102C60009FED3F0AB4EE401AF1EE10FA5AD5032058
:102C7000B6E603EE100AB8EE433A80EE030A81EEA0
:102C8000031A82EE032A84ED0B2A84ED0C1A84EDDC
:102C90000D0A46E5B6F90820B6F90610B6F90400A3
:102CA00000EE102AF8EEC02A00EE101AB8EEC02A84
:102CB00000EE100AF8EEC01A04F12C0090EC030AA2
:102CC00006F052FF99ED041A84ED130AB4EE410A9E
:102CD000F1EE10FA04DA4FF48060A9F8F00C05E088
:102CE0000020A9F8040D042089F8F00CDDE9013C6E
:102CF00017E5B6F90400B6F90610B6F9082000EE9B
:102D0000100A01EE101A02EE102AB8EEC00AB8EE50
:102D1000C11AB8EEC22A84ED0B0A84ED0C1A84EDB8
:102D20000D2AFEE404205BE60BF097FC0428FFF478
:102D300056AE0BF087FEB9E600007A4400000000B2
:102D400000803B44CDCC0C3FAE47613E6666263FDB
:102D5000295C8F3E8FC2F53D295C0F3D0000164473
:102D60000000FA43000016C40AD7233C0A2070472B
:102D70002DE9F84F2DED160BDFF85C440E460746A3
:102D800017F8015B61194978C906F9D42D2D18BFD0
:102D90002B2D02D13A78114602E0013F2A462946FE
:102DA000A1F161031A2B38BF203A4E2A41D0492A9B
:102DB0005BD179780BF022FE38BF20394E294DD1F6
:102DC000B9780BF01BFE38BF2039462946D10EB129
:102DD000F91C3160F9780BF011FE38BF2039492910
:102DE0001FD139790BF00AFE38BF20394E2918D18E
:102DF00079790BF003FE38BF2039492911D1B9790F
:102E00000BF0FCFD38BF203954290AD1F9790BF0B9
:102E1000F5FD38BF203926B1592904BF07F1080054
:102E200030600FF294302D2D08BF083090ED009BDC
:102E3000B0E179780BF0E2FD38BF203941290DD19E
:102E4000B9780BF0DBFD38BF20394E2906D19FED54
:102E5000D89B002E00F09E81F81C04E09FEDD29BD1
:102E6000002E00F09781306094E19FEDD78B3029E0
:102E70001CD179780BF0C2FD38BF2039582915D103
:102E8000394611F8022FA3185B789B070AD42E2A23
:102E90000CD1FA78B0EE480AF0EE680A2244527873
:102EA000920707D59FEDCA0B0F4603E0B0EE480A24
:102EB000F0EE680A9FEDBCAB9FEDC59B099000202A
:102EC000069607F1010957EC106B00244FF0000A39
:102ED0000C900B970D9619F8018CB8F12E0F06D1B6
:102EE000BAF1000F45D10D9E4FF0010A3EE053ECC0
:102EF000182B3046394607F0BBF8A8F1300B10B15B
:102F0000BBF1090F0ED90D9853EC192B394607F078
:102F1000AFF870B3B04840444078800729D5BBF182
:102F2000090F03D8AD4800EBCB040AE0A8F161001B
:102F30001A28AA4838BFA8F1200800EBC800A0F55D
:102F4000DC740D9E0B9F51EC1A0B32463B460BF086
:102F5000EDFD94ED000B53EC102B02F096FC0C9A57
:102F600041EC1A0B0124A2EB0A020C9209F10109AF
:102F7000B1E78DED0EAB2D2D53EC192B9DF83F00D5
:102F80000E9E80F080008DF83F0050EC1A1B0491DB
:102F900018BF0E460F9D0590394618BF0546DDF84F
:102FA00034B045EC186BCDE90732584607F060F8AD
:102FB000DDF830A00028504618BF4FEA8A000A907A
:102FC000A4B39FED810B58463946CDE9015653EC29
:102FD000102B0992039307F04BF838B1A8F1610068
:102FE0001A28404638BF2038452812D00B99DDE911
:102FF00007325846A9F1010707F03AF800285CD0DB
:10300000A8F161001A2838BFA8F12008B8F1500FC4
:1030100011D199F80080B8F12D0F18BFB8F12B0F1E
:103020000CD119F8010F4FF0FF3109E0B0EE489ACA
:10303000069E099FAAE04FEA8A0A3EE00021404628
:10304000A0F13002DDF80CA0092A29D80B9F002539
:10305000A0F13004092C28D82846B8F12D0F53468A
:1030600008BF40420A9946185846394648BF76423A
:10307000099A06F0FDFF10B1B6F59A7F0DD8DDE98B
:1030800007325846394606F0F3FF10B1B6F5806FA7
:1030900003D805EB850004EB400519F8010FD7E7CD
:1030A00009EB01000025471E00E04F46B8F12D0F47
:1030B00008BF6D420A9805EB000A9FED3B9BDDE9D6
:1030C000040153EC192B06F0D3FF069E00285BD1B8
:1030D0000B99099A039B584606F0CAFFA8B1BAF5A6
:1030E0009A7F1EDD0BF0BEFC22219FED2F0B0160AD
:1030F000DDE9011053EC102B06F0C7FF2EA10028CC
:1031000018BF083191ED009B42E0B0EE480A5046EE
:10311000F0EE680A04F094FDB0EE409AF0EE609A8A
:1031200036E01AF59A7F04DC0BF09CFC222101604A
:103130002EE0BAF1000F14D4294CBAF1000F23D0BD
:103140005FEACA7009D094ED000B51EC180B53ECF8
:10315000102B0BF0EBFC41EC180B08344FEA5A0A29
:10316000EBE71F4DCAF1000474B1E00709D095EDFB
:10317000000B51EC180B53EC102B0BF0D5FC41EC71
:10318000180B08356408EFE7B0EE489AF0EE689A3D
:1031900006B13760B0EE490AF0EE690A10B0BDEC36
:1031A000068B01B0BDE8F08F0000000000000000B9
:1031B000000000000000F87F000000000000F07F29
:1031C000000000000000F0FF0000000000002440AC
:1031D000000000000000304030F5000028FA000038
:1031E000880001002DE9FC470027002800F0B98184
:1031F000DDF828A0BAF1000F00F0B3819146054632
:10320000D0E96C02471C013295F81802C5E96C72CE
:1032100093B100F0C000002751461C222030CAE9BB
:1032200005778AF800708AF8100085F8180205F50D
:1032300007700BF08DFC94E195F83C2000F0DF0066
:1032400045F8221040F2ED218F4288BF40F0100077
:10325000696B85F81802D5F8C4C0531CA9630D2109
:10326000B3FBF1F707FB113385F83C3002F10C0397
:10327000B3FBF1F707FB1133171DB7FBF1F655F858
:10328000233006FB117655F82660334402F10D0613
:10329000B6FBF1F707FB1166D71CB7FBF1F055F849
:1032A000266000FB117055F82000304400EB43000D
:1032B00002F10B03B3FBF1F606FB1133561DB6FB0F
:1032C000F1F755F8233007FB116655F826603344B3
:1032D00003EB4303184402F10A03B3FBF1F606FBC8
:1032E0001133961DB6FBF1F755F8233007FB116635
:1032F00055F82660334400EB830002F10903B3FB69
:10330000F1F606FB1133D61D0832B6FBF1F755F87E
:10331000233007FB116655F82660334403EB830323
:103320001844B2FBF1F303FB1121212355F82110BE
:1033300001EB410100EB410095F8C81068634A1C9D
:1033400001F11104B2FBF3F6B4FBF3F346EA4616BF
:1033500003EB4313921B05F14006E31A56F8227063
:1033600056F8233085F8C820C71B6744C5F8C470D9
:1033700046F8210005F1CC06D5F8C410D5F8D800E0
:1033800054CEC5E93546A3EB6113C5F8DC00911BAB
:103390000026181AC5E9333295F8882101EB400060
:1033A000C01080FB0001000B40EA015005EB8201D8
:1033B000D1F8E440C1F8E400001BD5E9604766F1AC
:1033C000000100197941541CB5F83A22CAF81430AA
:1033D0000023CAF804908AF80060C5E96001B4FBD4
:1033E000F2F707FB124485F88841B5F8FE41AAF8C8
:1033F000084095F826428AF80A4095F827428AF84C
:103400000B40B5F82842AAF80C40B5F82A42AAF8B1
:103410000E400BF019F895F8B841D5E9631395F80B
:10342000182205F50777CAF81800012C8AF8102031
:10343000C5E9630126D1D5F8AC01814284BFC5F846
:10344000AC110846D5F8B411B1F5FA7F16D30021B6
:1034500005F5CA7485F8B811C5F8B01102F07F01FE
:10346000400885F8181208BF4FF47A700A21B0FBA3
:10347000F1F1421A01EB920253080FC40BF03CFA2F
:1034800000276EE0994218D9814216D3D5F8B021B1
:10349000B5F83C02824239D2D5E9650202EBD1018E
:1034A000A1EBD201401A0A4688BF02EB9002C5E99F
:1034B000661250084FF4D0716850B5F8FC0100282E
:1034C0004BD0A62148436421B0FBF1F1D5F8B001FF
:1034D000884242D9D5E9682191423ED3E9B3D5F873
:1034E000A821D5F8B431A3EB0208A0EB0802B5F887
:1034F0003C02824206D30120A9EB88030BF01AFAA2
:10350000C5F8B0810020C5F8A40126E0D5F89C01DB
:1035100081421AD2D5E96502D5F8A43102EBD10473
:10352000A4EBD202801A144688BF04EB9004600812
:10353000C5E966249942C5F8A001BED9D5F8B40101
:10354000C5F8A4114FF4D471B6E700204B460BF038
:10355000F1F99AF800000028AFD00BF0CDF99AF8F5
:10356000007007F00100BDE8FC870021017570477D
:103570002DE9F84F2DED181B229D0C460146002029
:10358000002D00F04081239E002E00F03C81084673
:103590000792099309F098FF9FEDA10B53EC102BB4
:1035A000069208930BF0C0FA95ED120B02460B46FB
:1035B000CDE90A3251EC100B0BF0B8FA0546204663
:1035C0000E4609F081FF04460F4628463146224642
:1035D0003B4602F05AF99FED940B82468B4655EC20
:1035E000100B9FED930BEE0F0D90504658EC109B77
:1035F00066F3DF714A46434606F047FD002840F077
:10360000018122984A46434690ED080B51EC100B7D
:10361000059166F3DF71049006F037FD002840F055
:10362000F1802298DDE90A3290ED140B51EC100B79
:103630000BF07CFA22463B4602F027F90F4666F370
:10364000DF714A464346044606F01FFD002840F05D
:10365000D980DDE90A1052465B460C960BF064FAFD
:103660009FED750B5AEC10BB5A4653460BF05EFAB1
:10367000DDF88880039798ED0A0B98ED0CBB98ED68
:103680000E9B98ED108B53EC102B02F0F9F8DDE94E
:1036900004230BF049FA9FED6AAB53EC1A2B02F0AE
:1036A000F4F89FED690B0591814653EC102B02F065
:1036B000ECF802460B46274604460E460BF036FA57
:1036C0000BF050F80BF04EF8CDE90A100998079965
:1036D000084409F0F9FE9FED5E0B0BF0A7F9069A7E
:1036E000089B0BF021FA039B3A460BF01DFA5A4651
:1036F00053460BF01BFA98ED160BCDE9081051EC70
:103700001B0B0BF093F99FED540BCDE906100599B7
:10371000484653EC102BCDE9043202F0B6F89FED89
:10372000500B9FED51BB9FED52CBCDE9021051ECF8
:10373000180B4FF0030BCDE9001059EC108BBBF1C7
:10374000000F65D0DDE9043251EC1A0B02F09DF850
:1037500002460B46DDE900100BF0E8F942464B4605
:1037600002F093F8DDE9023204468A4651EC190B67
:103770000BF0DCF92246534602F087F802460B466E
:10378000DDE906100BF0D2F904460C980E4653EC16
:103790001B2B60F3DF71204606F09EFC0746DDE937
:1037A0000810224633460BF0BFF902460B46002FA5
:1037B00008BF2B460D9C08BF2246DDE90A1002F027
:1037C00064F822462B4641EC180B06F085FCB0B19C
:1037D000B0EE480AF0EE680A02F04AFF02F048FF35
:1037E00053EC1C2B51EC100B02F04FF8229A92ED87
:1037F000180B53EC102B02F043F841EC1A0BABF111
:10380000010B9CE70020BDEC181B01B0BDE8F08F58
:1038100051EC1A0B07F048F9239908600120F2E7F0
:103820000000000000002840000000000000000030
:103830008DEDB5A0F7C6B03E0000000000002041AD
:10384000000000000000394066666666661271403E
:10385000000000000000E03F00000000000039C050
:10386000000000000000F03F11EA2D819997713DA2
:1038700066666666661271C02DE9FE4F07460868E7
:103880000024B0B1D7E9018A0E460AF04DFF814607
:10389000D8F8E800082888BF0124B068204202D187
:1038A0007068204208D00320307448460BF0F5F8C9
:1038B00000242046BDE8FE8FD8F8C01069B198F802
:1038C000F8100029EFD006213174D8F8C410C8F8D8
:1038D000C4604E6198F8FC100DE000210522C8E993
:1038E0003066C8E93411C8E9361198F8FC1000298F
:1038F00008BF0122327400220129726109D102201D
:103900004FF4E02188F8FC0098F8FB0009F090FCE7
:10391000706889490138884205D8042009F0A0FC64
:10392000062009F09DFC022009F09AFC98F8F800A6
:1039300040B9DAF83C003168814203D298F8FC00C3
:1039400000286CD0D8E9361009B118B900E028B3C6
:103950000BF068F8DAF80000416941F001014161BB
:1039600048460BF09AF898F8F80008B10124A0E74F
:1039700008F16C05D8F8EC1028460BF012F8002876
:10398000F4D0D8F8C00003210174384606F016FAC6
:103990002846002100240BF004F88AE79AF8040076
:1039A00004F04CF9654CDAF810100222206991FA03
:1039B000A1F1B1FA81F14368D8F8CC004068006801
:1039C00098472069DAF8141002224368D8F8CC002E
:1039D00091FAA1F1B1FA81F14068006898479AF82C
:1039E00004000AF0A7F99AF804000BF089F80BF02C
:1039F00019F80020C8F8E000D8F8C0000068B0F559
:103A0000806F01D90BF00EF898F8FE000028A1D1C4
:103A1000DAF80000416841F0020141609AE798F845
:103A2000F90020B1D8F8EC0001307FF48BAF4846A4
:103A30000BF033F8B2683AB1D8F8E800022109284F
:103A400038BF0121009103E008F1F402002000904A
:103A5000746834B1D8F8E8000227092838BF012774
:103A600002E008F1F6040027DAF80000334D41685F
:103A700041F002014160D6F800B0D946BBF1000F19
:103A800040D0D8F8E800019209284FF0010011D287
:103A90002A68B9F1000F1FD0C0071DD02178DAF8CD
:103AA00000009268904700281EBF3C44A9F101091C
:103AB0000120EDE72A68B9F1000F16D0C00714D035
:103AC0002188DAF800009268904700281EBF3C4425
:103AD000A9F101090120EDE7DAF80000D26802A996
:103AE0009047DDE90120107007E0DAF80000D268A5
:103AF00002A99047DDE9012010800098ABF1010B8D
:103B00000244BBE7D8F8F000DAF80010CA680240B7
:103B1000102802D1002AF9D101E0002AF6D07068FD
:103B20000AF07AF8D8F8C0100020C8F8C400C8F825
:103B3000C00008741AE700BFFEFFFF0FC4010010A9
:103B40002DE9FE4F4FEA820B814602930C9A0D9CA1
:103B50005FEA0B4008BF4FF4487B09F202251FFAC9
:103B60008BF399F8120225F810B0013000F007002D
:103B700089F812020320002A18BF0220D9E965261D
:103B800022FA00F721FA00F01044C01BC9F8940192
:103B9000801B88BF06EB90067008C9E967604EF687
:103BA000602000EB5300B0FBF3F1C8B2FA2888BFE5
:103BB0006FF0050199F81362072E9CBF013689F852
:103BC00013623746002027B135F8022B013F10441D
:103BD000F9E7B0FBF6F009F5DD7A99F8FB71CDB2A3
:103BE0001FFA80FEA9F8FE014FEA9E00A9F8FC0129
:103BF00099F8FA012AF810B0013000F01F00202FC8
:103C0000019089F8FA013CBF013789F8FB71B9F8D6
:103C10003E02A84211D2002099F8432289F81602E8
:103C200099F81402013089F81402C0B2904215D3F9
:103C300099F8180240F001000EE099F816020130E0
:103C400089F81602C0B2032808D3002089F81402AC
:103C500099F8180200F0FE0089F81802080615D03D
:103C6000B9F84002A84211D9002099F8432289F8F6
:103C7000170299F81502013089F81502C0B2904276
:103C800015D399F8180240F002000EE099F81702D7
:103C9000013089F81702C0B2032808D3002089F840
:103CA000150299F8180200F0FD0089F818025FFA71
:103CB00087F8B8F1040F37D3B9F8FE01A0B31A1A88
:103CC00048BF524299F8426299F818C264254643A7
:103CD000B6FBF5F42CF00406A24288BF0436B9F80E
:103CE00000C20D9C89F81862BCF1000F1CD04B2259
:103CF0004243B2FBF5F49C420ED8A3EB400212EB18
:103D00000C0248BF5242644509D9C0EB001064233D
:103D1000B0FBF3F0824202D846F0080001E006F062
:103D2000F7000D9C89F818020298A1720C99A4F86A
:103D300008B06060012020704EF66020B0FBFEF0FD
:103D4000E07299F8180220F0500061F38610207498
:103D500089F818020020B8F1020F01D2A0813DE0DD
:103D60004146524621B132F8023B01391844F9E785
:103D7000B0FBF8F2002043465646002133B136F836
:103D8000025B013BAD1AC5FB0501F7E74246002384
:103D900000260AF059FB09F0F8FCA0810198A8F16F
:103DA000010200210025D3B2C01BEFB29F420ED208
:103DB0002F18013507F01F04013707F01F073AF8E5
:103DC00014403AF817703C1BC4FB0461EDE7304621
:103DD00000230AF039FB09F0D8FC0D9CE08100209B
:103DE000A9F800B2C9F8B001C9F8A401BDE8FE8F76
:103DF0002DE9F84F2DED028BA6B058EC104B9FED3E
:103E00009A0B074600208A460B902046414656EC06
:103E1000105B2A46334606F045F99FED950B0028C6
:103E20001CBFB0462C462046414648EC184B53EC8C
:103E3000102BCDE9053206F01BF948B9B0EE480A5F
:103E40000BA8F0EE680A07F013F80B9801380B90F6
:103E50008DED088B8B4A8A499DF8270080F0800001
:103E60008DF8270030208DF83000387B412808BFBE
:103E70000A46059E069D0792204641462A4633463D
:103E800006F003F9089900282A46334608BF214660
:103E9000099808BF404640EC181B4146204606F0F2
:103EA000E7F80DF1300BBD6804970BF1010698B9E6
:103EB000B0EE480A25A8F0EE680A06F0D9FF25986A
:103EC000B0EE480AF0EE680AC0F1010003F0B8FE57
:103ED000B0EE408AF0EE608A58EC189B48464146A6
:103EE00008F026F93146044607F0E4FB0746204671
:103EF00009F0EAFA02460B464846414601F0C0FC8A
:103F000041EC100B0135CDE902762DD39FED5A1B04
:103F100006EB070BCDF804A058EC114B59EC10AB95
:103F2000DDE905325046494606F0A2F8C8B95046C8
:103F30004946224643460AF0F9FD05460E4608F07A
:103F4000F7F8074609F0C0FA02460B462846314604
:103F500001F096FC41EC100B0798C05D0BF8010BCB
:103F6000DCE7DDF804A039E09FED431BBB4459ECCE
:103F7000118BD5B151EC100B42464B460AF0D6FDE1
:103F800006460F4608F0D4F8044609F09DFA0246AA
:103F90000B463046394601F073FC41EC100B079894
:103FA000013D005D0BF8010FE3E75C46079D14F847
:103FB000011928460AF01AFB401B08280EDB049E54
:103FC000DDF80880079F0025217838460AF00EFBAF
:103FD000C01B0E2806DD04F80159F5E7049EDDF844
:103FE000088003E007990844407820700020702181
:103FF00052468BF80000307B412808BF50210B98B7
:1040000007F01BFDB268039C501C04D120460AF047
:104010004EFB421EB26020464146534608F020FF48
:10402000B06808B1012202E03068C0F3C002204647
:104030004146534606F020FCDAF800007822411E83
:10404000CAF80010317B412908BF58220270DAF803
:104050000000411ECAF800103021017026B0BDECEE
:10406000028B01B0BDE8F08F000000000000F0FFFF
:1040700000000000000000000000000000003040D0
:10408000D8220100E92201002DE9F04F85B0044655
:104090008A46002B1846214618BF0120002C18BF65
:1040A000012108400E9900290D4618BF012528401E
:1040B000012840F02D81049098892588277FA84207
:1040C00005D26588A8423D4698BF002500E001253D
:1040D000BD4203D10025A777657711E0A67FB542E1
:1040E0000BD1667F94F804C001366677F6B2664558
:1040F00006D3002625772F4601E00126A5776677AF
:10410000012F12D16425B0FBF5F5EEB242F20F7526
:10411000A84288BF642693ED020A94ED021A039622
:104120000AF0EFFB16D501201AE001254FF0000E32
:10413000A4F81F50BAF1000F84F821E093ED020AB1
:104140002FD09AF82C024FF04009002660F07F0E25
:1041500000202AE094ED031A0AF0D3FB02DB0020D2
:1041600084F8200094ED041A0AF0CBFB01DD012055
:1041700005E094ED051A0AF0C4FB02D8002084F88B
:10418000210094F82050012D03D102204FF0020CA1
:1041900018E094F82100012809D105204FF0050C02
:1041A00010E0002001264FF0000903902BE094ED71
:1041B000061A0AF0A6FBD9BF03204FF0030C042017
:1041C0004FF0040CE077BAFA8AF04609BAF1000F12
:1041D0000BD09AF82CE25FEA8E600AD40EF003004E
:1041E0001EF00C0F18BF043006E04FF0000E002048
:1041F00002E06EF07F0E402040EA051094F8215056
:1042000040EA45196546A7F1010CDAB102F65450AF
:1042100090ED033A90ED022A90ED001ABDEEC33AFC
:10422000BDEEC22A13EE100A019012EE100A02909F
:1042300092F8680D01280ED1032049F008094FF0CB
:1042400001080CE000209FED341A4FF000080290A6
:10425000CDE9000004E092F8640D4FF000080090F2
:104260005A7DBCFA8CF0012A01D19A7D0AB909F174
:1042700080094FEA501C18680860608C013019F002
:104280003F026084888018BF012236B100274FF4B6
:1042900048764B204FF0000B07E0BAF828B2BAF886
:1042A0002A72BAF824629AF82602CD76039D81F824
:1042B0002A2081ED070A81F819C081F8188081ED64
:1042C000041A81F80EE0A1F80CB04F810E818871BC
:1042D000A1F828902C228D76019DCD82029D8D82A1
:1042E000009DCD735868086204F1280093ED040A1C
:1042F000BCEEC00A81ED090A0AF02AFC606D0130AB
:1043000060655FEA8960049802D0A16D0131A16502
:1043100005B0BDE8F08F00BF00000000002800F0ED
:10432000248170B52DED108B0D46002900F0198108
:104330001446002A00F015810646204644210AF062
:10434000C0F89FED941AB01D9FED930A29460246CE
:10435000B0EE412AB0EE413AB0EE414A71B3B2F943
:10436000023005EE103AB2F90030B8EEC55A06EE4A
:10437000103A32F9023CB8EEC66A07EE103A931DC5
:10438000D3ED000AB8EEC77AF5EE400AF1EE10FA66
:1043900009D866EE060A47EE070A45EE050AF1EE71
:1043A000E00AC0EE800A31EE201A32EE052A33EE22
:1043B000063A34EE074A01392032CFE705EE105AAB
:1043C000B8EE45EA82EE0EDA81EE0E1A83EE0E8A20
:1043D00084EE0E9A9FED6F2AB0EE423AB0EE424A5A
:1043E000B0EE42FAF0EE428AB0EE425A84ED009A04
:1043F00084ED018A84ED02DA84ED031A002D52D097
:10440000B0F9021006EE101AB0F90010B8EEC66A44
:1044100007EE101A30F9021CB8EEC77A00EE901AB7
:10442000811DD1ED001AF8EEE00AF5EE401AF1EE2A
:1044300010FA09D867EE071A40EEA01A46EE061ADF
:10444000F1EEE11AC1EE801A77EE482A70EEC94A01
:10445000B0EEC77AF0EEE00A71EEC11A013D2030ED
:10446000F0EEE23AF0EEE45A30EE877A01EEA14A3D
:1044700002EEA22A04EEA45A75EEA33A76EE4D5A45
:10448000B0EEC66AF0EEE56A37EE066A05EEA53ACA
:1044900086EE006A73EEA63AC3EE803A78EE868A1C
:1044A0003FEE23FAAAE784EE0E1A82EE0ECA85EEDC
:1044B0000E0A83EE0EBA9FED393A3CEE002A84EDE7
:1044C000071AB1EEC01A84ED040A84ED05CA84ED22
:1044D00006BA3BEE022A82EE03AAB4EE411AF1EECE
:1044E00010FA84ED08AA41D6B1EECC0A84ED091A7F
:1044F0000AF025FA3FD684ED0A0AB1EECB0A0AF09B
:104500001EFA3DD684ED0B0AB1EECA0A0AF017FA7C
:104510003BD62DEE0DAA84ED0C0A88EE8E1A8FEE96
:104520000E2AB0EE4A0A08EE080AF1EEC00AB0EE12
:10453000490A84ED0D2A84ED0E1A03F009FD09EEF7
:1045400009AA9FED17BA20EE0B0AF1EECA0A84ED14
:104550000F0AB0EE480A03F0FBFC20EE0B0A84EDD4
:10456000100ABDEC108BBDE87040704705F062FA90
:10457000B0EE401AB8E7B0EE4C0A05F05BFABAE7C5
:10458000B0EE4B0A05F056FABCE7B0EE4A0A05F069
:1045900051FABEE70000000000007A44002474498C
:1045A000E02E6542002800F01481002900F01181FE
:1045B0002DE9F84F2DED068BADF53A7DCDE92B01B8
:1045C00084480DF1D40990E81E000069B5AD1EC500
:1045D000B99009F17D0040F2831109F072FF7E4924
:1045E00048467D220AF0B4FA7C4E7D4F7C254FF080
:1045F000000A0DF5357B6FF002044FF00008B8F1AA
:10460000050F35D05BF8280018EA040F4FF4C0619D
:1046100008BF4FF40061B8F1000F04D0B8F1030FE8
:1046200003D2032205E0042203E04FF0010208BF99
:10463000022240B1C06830B12DA908F0AFFD2D9A1B
:104640002F99349800E000200B1A38BF5346CDE96B
:104650000203CDE9002109EB0500C5F500713A46DA
:1046600056F8283007F068FC054408F10108C6E751
:104670002DA809F0D5FE0AF0F9F85B4A594900283F
:1046800008BF0A462A920AF0CDF8594A574901282C
:1046900008BF0A4629920AF007F9DFF85CA1002852
:1046A000544E504618BF3046289009F0AFFEDFF850
:1046B0004CB12590DBF808002790DBF80C00269021
:1046C000DBF81000DBF81440DBF81850BBF80210E0
:1046D00024919BF80010C90718BFB24608F020FBD0
:1046E00007462046884608F01BFBBBF80420444CD4
:1046F00041EC190B284648EC187B23922289229220
:1047000062892192A289209208F00AFB41EC1A0BDF
:10471000E07B309901281F9101D13A4F05E0E07B01
:104720003A4F3949022808BF0F46207E1E9094F860
:1047300019B0268D94F80E800AF086F804460AF027
:1047400077F805460AF07AF810EE100A08F0E8FA51
:10475000304BCDE91945CDE917682D4ABBF1000F63
:1047600041EC100B18BF13461E9C16932A4A2B4B84
:10477000002C18BF1346249A1593CDE90E2A239ACC
:104780001092229A1192219A1292209ACDE913271F
:1047900008AA299B2C998DED1C0BA2EC068B00938B
:1047A000289B40220193259BCDE902321F9ADDE927
:1047B0002A30CDE90429279A0692269A0792184AA8
:1047C00007F0BAFB0DF53A7DBDEC068B01B0BDE8F4
:1047D000F04F704730030020A8FA000028220100A3
:1047E000CA180100BE200100B42101001C230100F1
:1047F0009C210100D82501002DF50000C8030020F0
:104800003C94002064250100722301006324010010
:104810008B240100C72401009F24010033250100DF
:1048200060EB000009F064BD2DE9FF47012009F0AD
:10483000B9FC06F0E9FADFF850823A2042F20B4167
:1048400008F1020207F0E8FA8146002800F0F38040
:1048500000240DF10E023A2043F20101ADF80E40A2
:1048600007F0DAFA78B1BDF80E10012060F34201CA
:104870004FF6FB7001EA0002ADF80E103A2043F249
:10488000010107F0EFFF44F6206008F03DFF0294BD
:10489000ADF8064002AD7D4C42F20C402946A047DF
:1048A0000AF013F99FED680B56EC107B0AF0A2F8A2
:1048B00041EC100BDFF8D8A142F20E4029468AEDF8
:1048C000000BA0470AF001F99FED610B0AF0AEF86A
:1048D00041EC100B42F2104029468AED020BA04732
:1048E0000AF0F3F89FED5C0B0AF0A0F841EC100B16
:1048F00042F2124029468AED040BA0470AF0E5F87F
:104900000AF078F841EC100B42F2244029468AED77
:10491000060BA0470AF0D9F89FED510B0AF086F874
:1049200041EC100B42F2264029468AED080BA047C5
:104930000AF0CBF80AF05EF841EC100B42F2284086
:1049400029468AED0A0BA0470AF0BFF89FED460BF7
:104950000AF06CF841EC100B42F22A4029468AED2D
:104960000C0BA0470AF0B1F89FED410B56EC107B01
:104970000AF040F841EC100B42F22C4029468AED37
:104980000E0BA0470AF0A1F80AF034F841EC100B26
:104990000DF106053F4C3A2042F22E412A468AED9F
:1049A000100BA0470AF04AF89FED330B56EC107B32
:1049B0000AF020F841EC100B3A2042F22F412A462F
:1049C0008AED120BA0470AF039F80AF013F841EC0F
:1049D000100B3A2042F281412A468AED140BA0477F
:1049E0000AF02CF89FED260B0AF020F841EC100B92
:1049F0003A2042F282412A468AED160BA0470AF07D
:104A00001DF809F0F7FF41EC100B0DF10E023A20F2
:104A100043F201018AED180BA04750B1BDF80E001A
:104A200043F2010140F006023A20ADF80E2007F0F3
:104A300019FF012000E0002088F80000484604B07B
:104A4000BDE8F08700BF00BF000000000000703F1D
:104A5000000000000000B03E000000000000303DFB
:104A6000000000000000F03E000000000000103DCB
:104A7000000000000000B03D000000000000503FBA
:104A8000000000000000103F58040020DDC80000B6
:104A90006092002019BE00002DE9F84F2DED028B29
:104AA000A2B08046806820B1B0F1FF3F04DC062050
:104AB00000E00120C8F80800029004918DED060B7B
:104AC0009FED7B1B55EC104B9DF81F00294653ECC6
:104AD000112B80F080008DF81F003020019205938B
:104AE0008DF82400204605F0D0FA9FED730B06994F
:104AF00000284FF0000A08BF2146079856EC109B8B
:104B00009FED710B08BF284640EC181B54EC10BBFE
:104B100055EC187B4A4633463846294605F0DCFA00
:104B200050B1384629465A46234609F0FDFF41EC6C
:104B3000180B0AF1010AEBE79FED610B019F254677
:104B4000CDF80C8056EC104B58EC189B059B3A4660
:104B50004846414605F08CFA88B948464146224607
:104B6000334605F092FA50B1484641465A462B4624
:104B700009F0DCFF41EC180BAAF1010AE4E7484612
:104B8000414607F0D5FA0DF1240808F10106314637
:104B900006F090FD0299884205DD013118F80120E8
:104BA00008EB010426E0C94308EB0004A946059080
:104BB00001EB000857EC185B2846394607F0B8FAB5
:104BC00008F082FC02460B462846394600F058FEA3
:104BD0005A464B4609F0AAFF41EC180B07F0A8FA19
:104BE00000F1300218F1010804F8012FE2D3059812
:104BF0000DF1240800EB0A05D0B2039F35280CD331
:104C0000601E3021027801320270D2B23A2A02D3F9
:104C100000F80119F6E7404544D000202070049CBC
:104C200015F1030F02DBB868854207DD397B681E8A
:104C300022460239C9B206F000FF0125304609F0CC
:104C400036FD013800220121A8421ADB002801D4D8
:104C5000325C00E03022B2F1300318BF012363EA76
:104C60000101C90705D13978090702D400220121C1
:104C700005E021684B1E23600A70012200210138E3
:104C8000E2E738682946234600F008000243304630
:104C900018BF012205F0F0FD22B0BDEC028B01B07F
:104CA000BDE8F08F0020013504F8010C09AEB6E72D
:104CB00000000000000000000000C0FFFFFFDF4117
:104CC000000000000000F03F000000000000244051
:104CD00092B0794808F0B0FEDFF8E081D8F81C0007
:104CE00007F01AFED8F81C0008F05EFC744800219A
:104CF000002700F11404204608F0CFFB7B4D64260A
:104D00004FF0FF394FF0010B01946E4808F0FCFCA6
:104D10000520BBFBF0F000EB800010EB090002D196
:104D2000072009F00FFB06F0D5F9FF208DF84700AA
:104D300009F066FD202000210DF1470207F00CFB71
:104D4000824609F063FDBAF1000F4DD09DF847008F
:104D50003F218DF808708DF834708DF846700DF194
:104D6000460321EA000002A90DAA05F0D9FC9DF82E
:104D70003400C1071CD0204609F0A7F90446524868
:104D80005249B2462E463D460F468847012C5148AF
:104D90004F4908BF0846002C019C4F4908BF0846F0
:104DA000B8474E48B8479DF834002F46354656461A
:104DB000810710D509F00CFB88F8010006F076FD9C
:104DC00098F8010046490028464808BF084608F000
:104DD00033FE9DF83400800606D5434808F02CFECB
:104DE000287E80F001002876B8F804008DF83400A1
:104DF000D8F814000E9009F039FD8DF83C008DF8BC
:104E0000417098F800008DF83D00288DADF83E0007
:104E1000287E8DF8400009F0F3FC20460DA900F033
:104E200067F809F0F3FC09F0D1FBA8BB09F03CFDE1
:104E300090B309F01BFD60B12148816AB0F94020B0
:104E4000B0F94230B0F944000090304605F006FF5A
:104E500020E00A2029462C22BBFBF0F000EB80006A
:104E600009EB400402A809F073FEB8F80600BDF88B
:104E70003010A8F8061024B19DF832204AB18142C2
:104E800007D00296B8F804008DF80E0002A806F0CC
:104E900015FA019C02F0D4F9D8F81C0030B109F0E1
:104EA000C1FC18B9D8F81C0007F0C0FF0BF1010BCA
:104EB000A9F10109643628E79AFC0000C803002024
:104EC00030030020A0860100E421010039DA00004F
:104ED000F0230100642301003824010025FB0000B9
:104EE00099130100B31501002E1701003C94002016
:104EF000002800F092802DE9FC470D46002900F0C3
:104F00008A800446C068E1790130E0602079013090
:104F10002071C0B2884205D300202071607980F0F2
:104F200001006071687B10B1A079A07000E0A078EA
:104F300018B101380226A07000E0FF26287B08B1D6
:104F400001211AE06889C1070ED181070ED44107FB
:104F50000ED481060ED4C0060ED4E078002800F0EE
:104F60009580617801380AE0022106E0032104E01F
:104F7000042102E0062100E00521207A6170E07042
:104F8000671C062920D85048DFE801F004231A1CCA
:104F9000182022002078022852D001283ED0002874
:104FA0004CD12B78002B49D00DF10308514A052133
:104FB000404606F0C1FF71B240460FE0454808E0A8
:104FC000464806E0444804E04B4802E03F4800E021
:104FD0003F486179012904D14FF0FF3104F03CFCD6
:104FE00009E0424E34200021B04735200021B0476F
:104FF00036200021B047287A697A0222002808BFAB
:10500000012242EA8100397811B1617940EAC10098
:10501000C0B209F0EBF8BDE8FC47704795ED010A16
:10502000B2EE041AB4EE410AF1EE10FA06D49FED86
:105030002E2AB4EE420AF1EE10FA07DD2C48CBE737
:10504000287A002814BF26482648C5E7B6EE002A6D
:105050000A2200EE012ABDEEC20A10EE101A88B232
:10506000B0FBF2F303EB8303A0EB43096423B0FB33
:10507000F3F000FB1311C9B2B1FBF2F6010609D03F
:105080003030C0B208F0D2FA804605E0671C00203C
:1050900060707FE74FF0000846F0300008F0C6FA75
:1050A000064649F03000C0B208F0C0FADFF83CA074
:1050B000814634204146D04746F080013520D04714
:1050C00036204946D04796E7E8250100E025010053
:1050D000E4250100F0250100BC250100CC250100DC
:1050E000D0250100C8250100000048426DD4000011
:1050F000DC250100EC250100D42501002DE9F0415B
:105100002DED0A8B98B00025002800F0E380DFF831
:10511000D081044698F80000002800F0DB800220CF
:1051200002F07EFC0025002800F0D4800DF13E073F
:105130002021B81C09F0C5F907AE2221304609F03C
:10514000C0F940F60B600695CDE90455CDE902762D
:10515000ADF83E000A20019001A809F02FF805469D
:10516000022007F09DFB002D00F0B380DDF81E301B
:105170005C48DDF822109FED5C2AB3EE093A9FED02
:105180005C9A1A461D05F0EE490A6FF3DF2248BF0C
:1051900043EA000200EE102A98ED021AB8F8025015
:1051A00009F062FA10EE102A521B1D0EC3F30743DA
:1051B00045EA0125A28043EA05232D071E466FF329
:1051C000DF2648BF43EA000600EE106AB8F8045034
:1051D000B8EEC00AC1F3074621EE000ABDEEC00AD0
:1051E00010EE103A5B1B0D0E46EA05262D07E380F4
:1051F00037466FF3DF2748BF46EA0007A7F5AF75CC
:105200000E0A00EE105A0D463607B8EEC00A6FF3CC
:10521000DF2500EE023A84ED063A48BF41EA000578
:1052200000EE105AB8F8061009F01EFA10EE100A37
:10523000401A19B200EE101A11B2208100B2B8EE75
:10524000C08A00EE101A03EE100AB8EEC00AB8EEDB
:10525000C33A28EE081A20EE00AA23EE03BA9FED07
:10526000233A3AEE012A31EE0B1A3BEE022AB1EE56
:10527000C11AB1EEC22AB4EE491A82EE032AF1EE47
:1052800010FA84ED032AC8BFF0EE410A02F060FE76
:105290009FED18CA20EE0C0A84ED040A3AEE0B0AC0
:1052A000B1EEC00AB4EE490AF1EE10FAC8BFB0EE92
:1052B000409AB0EE480AF0EE490A02F049FE20EEAC
:1052C0000C0A0B2084ED050A05F098FF01252077D4
:1052D00000E00025284618B0BDEC0A8BBDE8F0813F
:1052E0006404002000F0FFFFB81E853D00007A44F2
:1052F00017B7D138E02E65422DE9FC47D0E90058B8
:105300008246D8F80000D0F8409019F4F06FC0F849
:10531000449035D05FEA495117D5D5E91401411AB7
:10532000504608F0FFF8D8F800008169C90605D496
:1053300001688DF807109DF80710F6E7296801311C
:105340002960A97B09B90121A973696C40684FF0F4
:10535000004600F00F0404EA0100B0FA80F126FADA
:1053600001F1014005D02F6C1FB12A68AB6C50468B
:10537000B847B4FA84F026FA00F020404042A8630F
:10538000D5F85801D8F83C1009F04007406800688B
:10539000D0F804251140394347D0DAE9006450467B
:1053A00005F0FEFCD7B1F07C90B90BE0316F69B12C
:1053B0000068B16EB26F8854306FB16F013101383F
:1053C000B167306720688169C906EFD5F07C28B1E4
:1053D000D6E91401411A504608F0A4F896F8640082
:1053E000E0B13079022819D017B1B179012901D083
:1053F000316F99B90024B16E0128346786F8644092
:10540000B46607D1B36CB26FD6F8CC605046009446
:10541000B04703E006F17C0009F080FB504602F043
:1054200013FFD5F858014068006800F20450006886
:10543000D8F83810084228D0D5F8F80028B3DAE9AF
:105440000076504604F056FE504603F0DDFD7879B4
:10545000012812D1D7F8F40078B997F8E80060B1C4
:10546000002087F8E800BB6CD7F8EC10D7F8FC20D8
:10547000D7F8504100905046A047D7F8F80020B91F
:105480003068816B41F4006181635FEA095023D584
:10549000D8F8000081690907FCD4016B21F4807100
:1054A0000163297A91B10020287295F844008006A2
:1054B00006D52C6C24B1AB6C504620210022A047AD
:1054C0005046012108F04CF9D8F80000816B21F416
:1054D00000618163687908B1BDE8FC8705F58070DB
:1054E000BDE8FC4709F01ABB2DE9FE4FD0F800805B
:1054F000994614460E46824613B10020C9F80000B2
:1055000009F012F9834698F8070038B198F864005A
:1055100048B109F0D4FA6FF00805B4E009F0CFFA09
:105520006FF00E05AFE0002C4AD0504605F038FC75
:1055300000200121C8E91A64C8F87040C8F8780052
:10554000C8F8380088F80C0088F80A00504688F837
:10555000641007F059FB504602F076FE08F14C0447
:1055600002AD2046294608F0B1FBD8F87810D8F8EB
:1055700070707218B84238BF0746029910463A4612
:1055800009F0E6FA2046394607F042FFD8F87000E5
:10559000D8F87810C21B3944012FC8F87020C8F819
:1055A000781001DBB842DCD198F8041002290CD144
:1055B0000020C8F8680088F86400C8F870001CE093
:1055C00009F07DFA6FF009055DE0B84215D10020C1
:1055D000D8F86860012988F86400C8F868000CD120
:1055E0000124584688F8104009F057FA98F80F003F
:1055F00000284BD009F098F8834609F060FA98F833
:10560000040008B100252FE0D8F8701008F17C00E4
:1056100031B30C9909F0C5F910B1012088F80C00DC
:1056200009F082F80446504605F0BAFB0020C8F89D
:105630006800C8F8700088F86400504602F004FE64
:1056400098F80A6098F80C50204609F026FA002DC8
:1056500018BF6FF00C05002E18BF6FF00D0503E0AA
:105660000021002509F09DF909F05EF8B9F1000F5D
:1056700007D098F8041001291CBFD8F87810C9F891
:10568000001009F00AFA2846BDE8FE8F002598F8B8
:1056900010000028AED009F047F8A8F80F4009F034
:1056A000FCF9D8F84830D8F87820D8F8CC705046B3
:1056B00031460095B84788F80F50E8E72DE9FE4FCE
:1056C000D0E90198D8F80010CA690A62D20740F000
:1056D000AF80D8E904014FF0000A4FF0000B0843F7
:1056E000D9F8CC1049680968C1F8040509F13000FF
:1056F000029009F1C8000190BBF1010F00F2A180F6
:10570000D9F8C000002800F09C80D9F8E010DC2215
:10571000D9F8CC702023002908BFD82208BF18234D
:1057200058F803404FF0240308BF1C237F68D8F8C3
:10573000146058F803303F68D7F80455354211D04B
:10574000A46864070ED10468D9F8D050A54209D1E5
:1057500044693CB9D8F80040656A25F002056562E5
:10576000C7F804659B685B0702D00BF1010BC3E728
:1057700059F80230002BF8D049F802A0B1FA81F1B3
:10578000D9E934424909006849011A448442C9F8F8
:10579000D420C9F8E01028BF82420CD248464146C6
:1057A00000F0B0FE99F8FE000028DED008F0DEFD23
:1057B00018BF8862D9E708F0B7FFD9F8C820D9F830
:1057C000C010019B81F810A022B113465269002A33
:1057D000FBD114331960C9F8D4A04A69C1F814A0E8
:1057E000D9F8E01000294FF0DC01C9F8C02008BF4B
:1057F000D82159F80110C9F8D01009F04EF9D9F89C
:10580000C00058B14846414600F07CFE99F8FE00C1
:1058100050B108F0ABFD18BF886205E0D8F8000071
:10582000416A21F003014162029809F07BF99CE78B
:10583000D9F8C0203AB103211174BDE8FE4F04F03D
:10584000BDBABDE8FE8F486820F002004860486A93
:1058500020F003004862D8E904021043D9F8CC20B4
:1058600052681268D062C2F80405486920F001004D
:105870004861012008624046BDE8FE4F08F017B9B4
:105880002DE9FC4F83F0004301E02DE9FC4F1F039D
:10589000FF0847EAD2574FEA42284FEA43095FEA36
:1058A000595906D147EA080A1CBF00210020BDE86B
:1058B000FC8F57F000575FF4E06E1EF1FF0EF145CC
:1058C00005D14FF00000190D0905BDE8FC8F002B34
:1058D00005D55FF0000AD8F100086AEB07070C0352
:1058E000E40844EAD0544FEA40254FEA4106760DD9
:1058F00008D144EA050A19BF0021002019461046C4
:10590000BDE8FC8F44F00054764504D10020090D19
:105910000905BDE8FC8F002904D55FF0000A6D423F
:105920006AEB0404B6EB090E08D5A2463C4657467E
:10593000AA464546D046CEF1000E4E46BEF1360F81
:105940005CBF4FF0000B23E0BEF1000F04BF4FF02F
:10595000000B1AE0CEF1390ABAF120092EBF08FA7D
:1059600009FB07FA0AFB4BEA080BDEF1200A07FAEB
:105970000AFA38BFBA4647FA0EF72DBF28FA0EF8D2
:10598000AEF1200E4AFA0EF8D04415EB08057C4122
:1059900054EA050A02BF00210020BDE8FC8F002C5C
:1059A00058BF4FF0000A06D55FF0010A5FF0000E05
:1059B0006D426EEB0404A6F101066D006441FAD558
:1059C00015F4806E11D005F480794BEA090B15F5BA
:1059D000806554F1000428BF761C0BD205F40079D1
:1059E0005BEA090B08BF25F4006525F4E0656D004E
:1059F00044EB0404B61CDEBF00210020BDE8FC8F90
:105A00005FF4E06E1EF1FF0E76450AD34FF0000002
:105A100013F00043FF21C900C91D09051943BDE862
:105A2000FC8F270547EA1530210B41EA065141EA70
:105A3000CA71BDE8FC8F704780B52DED048B10EE68
:105A4000100A20F00041B1F17E5F07D30FD15FA1B2
:105A50000028C8BF043191ED000A95E00A0E3E2AE5
:105A60000CD8B1F14A5F41D89FED540A8CE008F0A0
:105A7000F9FF21219FED540A016085E0B0F1FF3F5D
:105A800055DDB7EE009AB6EE001A39EE400A20EE68
:105A9000018AB1EEC80AB4EE400AF1EE10FA76D6E9
:105AA0009FED401A9FED412A10EE100A40F6FF715B
:105AB000884308EE019A9FED3C1A08EE012A9FEDFB
:105AC0003C1A08EE021A02EE100A30EE023A28EEF4
:105AD000011A02EE428A81EE091A88EE033A01EEBB
