:1000000000400120B53B0000B33D00001F3C000054
:100010009F3D00009F3D00009F3D0000000000004C
:100020000000000000000000000000009F3D0000F4
:100030009F3D0000000000009F3D00009F3D00002C
:100040009F3D00009F3D00009F3D00009F3D000040
:100050009F3D00009F3D00009F3D00009F3D000030
:100060009F3D00009F3D00009F3D00009F3D000020
:100070009F3D00009F3D00009F3D00009F3D000010
:100080009F3D00009F3D00009F3D00009F3D000000
:100090009F3D00009F3D00009F3D00009F3D0000F0
:1000A0009F3D00009F3D00009F3D00009F3D0000E0
:1000B0009F3D00009F3D00009F3D00009F3D0000D0
:1000C0009F3D00009F3D00009F3D00009F3D0000C0
:0800D0009F3D00009F3D000070
:1000D800A6B003F0E9FD03F0E1FF01F09FFA02F09A
:1000E800C0FE1520012103F069FE1E20012103F046
:1000F80065FE754803F0E6FF0AAC204603F074FF7E
:100108004FF4E1300025214610900020ADF828502A
:1001180000F00AFDDFF87C65DFF880753060DFF8F5
:100128007805B847DFF87805B847DFF87805B847A5
:10013800DFF87405B847DFF87405B84706AC204601
:1001480003F00AFF002021468DF8205000F014FF2C
:100158000028706068D0DFF85805B847DFF8540504
:10016800B84701F0B1FEDFF85005B847FF200DF1A0
:10017800170105228DF81700022003F0CDF9044677
:10018800DFF83805B84703F03FFFDFF83405B84714
:10019800204603F0F5FADFF82C05B847BAF1000F4E
:1001A8004BD0BAF1080F4BD1DFF82005B847DFF87C
:1001B8002005B847012000210022322303F0C6F9A8
:1001C8000446DFF81005B847204603F0D9FADFF8EF
:1001D800C8442046B8473D4803F074FF0DF11701A5
:1001E8000220052203F098F9DFF8EC04B84703F081
:1001F8000BFF2046B847BAF1080F2AD1DFF8DC0414
:1002080003F008FC01F060FE314803F05BFF0DF1DC
:1002180017010220052203F07FF9DFF8C40403F078
:10022800F9FB03F0F1FE11E0DFF8740503F0F2FBCF
:10023800264C204603F046FFFBE7DFF88C4405E038
:10024800DFF8A00403F0E6FBDFF89C44204603F047
:10025800E1FB40F2FF3002210423ADF81400FF2037
:1002680004900A20009005A804AA01F057FAC8B122
:100278009DF81000B0B9DFF87404B8479DF8110074
:10028800DFF86C54A847DFF86C442046B8479DF85F
:100298001200A8472046B8479DF81300A847DFF882
:1002A800F803B847BAF1000FCDF808A012D0DFF86C
:1002B8004804B847DFF84404B847DFF84404B847AF
:1002C800DFF84004B8470DE1A086010040420F0066
:1002D80020A10700DFF83004B847102000210122D0
:1002E8000A234FF0000903F031F90446DFF81C0433
:1002F800B847DFF81C842046C047DFF89C432046F7
:10030800B8471020012101220A2303F01FF90546EE
:10031800DFF80004B8472846C0472046B847DC48FD
:100328000DF10F02042101231590FF208DF80F0015
:10033800FA20009015A801F0F1F9DFF8DC03B847BE
:100348009DF80F00C0472046B847DFF8D003B847EC
:100358008DF894908DF8979025A9FF2002F05AFF08
:100368000646DFF8BC03B8479DF894402046C047CE
:10037800DFF84CA35046B8473046C047D14E304608
:10038800B8470DF19701FE2002F044FF0546DFF85B
:100398009403B8479DF89700C0475046B847284689
:1003A800C0473046B847362C08D0DF48B847204603
:1003B80003F0E6F9DD48B847DD48B847DD48B847F7
:1003C800DD4E0D200121B04742F2107003F07AFE95
:1003D8000D200221B0470DF15304D84D00202146CD
:1003E800A84701202146A84711200B21B047122019
:1003F8004021B0471320C021B04715200121B04744
:100408002A203F21B047CE48B84723202021B047B3
:1004180024202021B04725202021B0472020212159
:10042800B04721200321B04722200021B0470920EE
:100438000F21B0470A201221B04702204021B047BF
:1004480004200021B04705200021B04706200021E4
:10045800B047BC48B8470D200C21B0470DF15201F8
:1004680023208DF852908DF851908DF850908DF88A
:100478004F90A8470DF151012420A84714A9252021
:10048800A8470DF14F010D20A847AF48B8479DF880
:1004980052402046C047AD48B8479DF85100C04774
:1004A800AB48B8479DF85000C047AA48B8479DF8E0
:1004B8004F603046C0477848B847A74DA748202C1A
:1004C80009D1DDF808A00C2E07D1A54803F0A2FA3F
:1004D800A44DA54801E0DDF808A003F09BFA2846E2
:1004E80003F098FAA14803F095FAA14803F092FAAC
:1004F80015A8DFF84892A94D002719244FF0000BE2
:1005080001300190BAF1000F6DD18DF854700720B9
:1005180015A902F07FFE9DF854A0BAF1000F54D03F
:10052800BAF1240F28BF4FF0240A4FF00008002525
:1005380000240026F0B250452AD28DF894708DF828
:1005480097708DF85370082025A9C84708200DF129
:100558009701C84708200DF15301C8479DF894102A
:100568009DF8972001F00700C908000440EA02201E
:100578009DF853200329104407D0022903D00129EC
:1005880008BF804602E0054600E004460136D1E790
:10059800B8F1000F08BF002D15D076483F4EB04780
:1005A8004046DFF84C81C0477348B0472846C047EB
:1005B8007248B0472046C0477148B0475046C047C8
:1005C8007048B04701E0002CE7D112200DF19701E7
:1005D8000A228DF8977002F09FFFDDF808A06D4E93
:1005E800A8B16E4D19240BF1010BBBFBF4F000FB15
:1005F80014B040B9684803F00DFA584602F0E2FB1F
:10060800254803F007FA284603F05CFD7AE79DF8D1
:100618009740002CE5D04FF489700DF15408402123
:10062800ADF89400404603F0BCFB0A204246009017
:1006380004EBC4003F2828BF3F20451C25A8022101
:100648002B4601F06BF80028CBD04F48DFF84C80E0
:10065800C0479DF8540003F093F84C48C047204623
:1006680002F0B0FB4A48C047182D28BF18256C1E59
:10067800019D44B115F8010B03F082F8304603F0F0
:10068800C9F9013CF5E7044803F0C4F9A9E700BF3C
:1006980044000100440800205D4A00001D3A0000A3
:1006A800C643000004450000FF45000072420000F8
:1006B80091460000CE4500008B480000D14900005B
:1006C800BC4A0000004B000030460000EF46000026
:1006D800A247000058490000234900008E4300004B
:1006E800AD4800009D44000037450000AC490000BB
:1006F800CD2D00000C4B0000804100005643000047
:10070800FD410000E5420000EA4800004A470000B9
:1007180089370000CC480000844900006844000084
:10072800334A0000244A000033440000D44A000041
:10073800AC420000BF490000093800001D3200002B
:10074800F64700006A45000008490000504A0000CA
:10075800424A0000844A0000FE430000614600004F
:1007680076470000384200001E430000C0460000E3
:100778001D470000C44A0000F24A0000044B000074
:100788003D490000784A0000904A0000E24A000013
:10079800DB4A0000084B000098490000400D0300A8
:1007A8001C4800002DE9FC47D0E900588246D8F8DB
:1007B8000000D0F8409019F4F06FC0F8449035D09C
:1007C8005FEA495117D5D5E91401411A504602F09C
:1007D800C1FFD8F800008169C90605D401688DF801
:1007E80007109DF80710F6E7296801312960A97BF1
:1007F80009B90121A973696C40684FF0004600F0FF
:100808000F0404EA0100B0FA80F126FA01F1014070
:1008180005D02F6C1FB12A68AB6C5046B847B4FAA4
:1008280084F026FA00F020404042A863D5F8580129
:10083800D8F83C1009F0400740680068D0F8042553
:100848001140394347D0DAE90064504602F01CF9F8
:10085800D7B1F07C90B90BE0316F69B10068B16E27
:10086800B26F8854306FB16F01310138B1673067AA
:1008780020688169C906EFD5F07C28B1D6E9140152
:10088800411A504602F066FF96F86400E0B13079EC
:10089800022819D017B1B179012901D0316F99B95E
:1008A8000024B16E0128346786F86440B46607D125
:1008B800B36CB26FD6F8CC6050460094B04703E0F2
:1008C80006F17C0002F02CFC504600F0A3FFD5F89E
:1008D80058014068006800F204500068D8F83810E1
:1008E800084228D0D5F8F80028B3DAE9007650464F
:1008F80001F084FE504601F087FA7879012812D178
:10090800D7F8F40078B997F8E80060B1002087F8C4
:10091800E800BB6CD7F8EC10D7F8FC20D7F85041AA
:1009280000905046A047D7F8F80020B93068816B8E
:1009380041F4006181635FEA095023D5D8F80000CB
:1009480081690907FCD4016B21F480710163297A5C
:1009580091B10020287295F84400800606D52C6CC9
:1009680024B1AB6C504620210022A04750460121FB
:1009780002F031FFD8F80000816B21F40061816337
:10098800687908B1BDE8FC8705F58070BDE8FC47CB
:1009980002F0C6BBB0B560480021604C016094F815
:1009A8003A01032812D002282ED0012840F0AF8047
:1009B80094F8400101F01AFF002084F840015948DA
:1009C800817B0220002908BF06209EE05448016868
:1009D800B1F5C060C4F82C01B8BFC1F5C060D4F847
:1009E8001011002900D5494288422ADDD4F81401A3
:1009F80002F0B6FFD4F8180102F0C4FFD4F82801B9
:100A080002F0E4FF01201DE04548056803F0EEF917
:100A1800C4F8140103F0F2F9C4F8180103F0F6F968
:100A2800B5F5C061C4F82801C4F8101109D094F8CC
:100A380030215AB1D4F81401D4F82021D4F82C115B
:100A48000AE0002084F8300106205EE0C4F82401A2
:100A5800D4E94502C4F82C110223C4F81C0100296A
:100A680001EB410148BF6FF001031944042391FBD6
:100A7800F3F111440029C4F820110FDD1F2931D3E7
:100A8800D4F824212AB33E28A8BF3E2001302929C2
:100A9800A8BF2921C4F81C010B3909E0D4F8242186
:100AA800032A09D111F1140FD8BF6FF013011531C2
:100AB800C4F82011002113E00128D8BF0120013813
:100AC80011F10A0FD8BF6FF00901C4F81C010B31EE
:100AD80003E03329A8BF33211539C4F820110321B5
:100AE800C4F8241102F03CFF012002F05DFFD4F8A5
:100AF800200102F047FFD4F8240102F067FFA5F2B5
:100B0800FF510420032938BF0620C4F83C01BDE882
:100B1800B04000F07BBC00BF3C500C40D00400202B
:100B280008400C4070490000FEB504465A48007859
:100B3800A04213D908780D46012801D1686868B128
:100B48006878012801D1A86840B1544F57F834603B
:100B580003F0A4F9F17921B103F065FA00242046E5
:100B6800FEBD07EBC40401216768F17103F05BFA6D
:100B7800002005F1040C7074F081B06030602988A1
:100B8800B180A98BC6E93D00C6E90E0086F864006D
:100B9800B186297D2B69B1719CE80610C6F85021F1
:100BA800BCF1000FC6E910C34FF0FF32C6F8CC10F5
:100BB800A969C6E93B203163A97F86F83610296AFE
:100BC800C6E91A00C6E91C00B16486F8E800C6F850
:100BD800580102D13249C6E9101097F8400001F0D7
:100BE80029FAD7E9031206F14C0003F02FF9D7E9E7
:100BF800051206F1D00003F029F92A493868096876
:100C0800C96888477A6C97F8240046F2020101F017
:100C1800B9F9254DBA6C97F82000294601F0B2F9C8
:100C2800F86901280CD1FA6C97F82800294601F0D8
:100C3800A9F93A6D97F82C0046F2020101F0A2F9E1
:100C480001F0BAFFC6F85801204600F065FC174AC3
:100C580006F5AE700421234602F0CAFE6D4628460A
:100C680003F07EF8387A7968114A2B46009401908F
:100C780006F1140001F040FD06F17C00002102F0AD
:100C88003DFF06F58070002102F038FF3868D7E98B
:100C98000C121060486062E70F4B0000A44A000085
:100CA80057320000D0010010026000202D3D0000E6
:100CB800AD0700002DE9F84FD0E900B79846164671
:100CC8008946054613B10020C8F800008EB103F02C
:100CD800ECF8824603F0E2F804469BF8070060B19E
:100CE8009BF8E80078B103F0C8F96FF00800BDE898
:100CF800F88F6FF00900BDE8F88F03F0BEF96FF0C8
:100D08000E00BDE8F88F00200121CBE93B96CBF817
:100D1800F460CBF8FC008BF8E810CBF83C008BF8BB
:100D28000D008BF80B000BF580700021009001F08E
:100D3800D1FB384603F052F9BAF1000F02D19BF803
:100D4800050070B3284601F05FF803F096F99BF8A8
:100D5800050068B90A99009801F0BCFB10B10120A0
:100D68008BF80D00284601F049FC00208BF8E800BC
:100D7800B8F1000F1CBFDBF8FC00C8F800009BF8B6
:100D88000B0030B100208BF80B006FF00D00BDE8B0
:100D9800F88F9BF80D00002818BF6FF00C00BDE815
:100DA800F88F03F06AF9D5E9007497F84400C00693
:100DB80015D5D7F840C0BB6C284610210022E04763
:100DC8000DE0D7F8FC00314609EB0002204602F09E
:100DD80089FBD7F8FC10361A0144C7F8FC10002E1E
:100DE800EFD1204603F04AF80028FAD0204603F055
:100DF800EFF897F84400800605D53C6CBB6C284694
:100E080020210022A0470020B8F1000F87F8E80051
:100E1800C5D0D7F8FC00C8F800000020BDE8F88F5E
:100E28002DE9F047012816D1DFF830A1DAF83401AE
:100E3800012813D10220CAF8340102F0F7FF01207B
:100E4800012402F0FDFB60B1CAF8344103F0A8F8B0
:100E58004FF0FF347FE06FF001047CE06FF0040492
:100E680079E09AF85A419AF859119AF85801002CE1
:100E780018BF0124002918BF0234002818BF043401
:100E8800012003F075F8013818BF01209AF83811CD
:100E9800B1FA81F1490910EA010902D1002000F0F4
:100EA800E9FEDAF808002E4D10F0010807D12D4FA1
:100EB800286A8168384688470428F9D0064640469B
:100EC80003F0A7F8B8F1000F08D1012E04D1286A61
:100ED800012142682348904702F080FF2868416951
:100EE800204688479AF8540118B14FF4806003F0FF
:100EF80045F89AF8530118B14FF4816003F03EF8B1
:100F080019480121016003200021CAF8340117485B
:100F18000160204602F0A2F80128FAD1144E306888
:100F2800042002F08DFB044612480125B9F1000F98
:100F38000560306802D1012000F09CFE03F083F8C0
:100F4800082002F07DFB0443CAF8345118BF4FF063
:100F5800FF3403F025F82046BDE8F087D0040020D0
:100F6800B801001000400340282008600C20084009
:100F78002C2009400C4009402DE9FF47044645480C
:100F88000078A0420AD9444F0D4657F8346002F061
:100F980085FF96F8E01031B103F045F800242046AB
:100FA80004B0BDE8F08707EBC4044FF00109D4F89A
:100FB80004A086F8E09003F036F89AF8100001F0E3
:100FC80039F8364F002D18BF2F46354DF868411CAB
:100FD800002808BF0AF11301097808BF0AF11100B7
:100FE800007886F82511294686F824019AF81220F7
:100FF80000F0C8FF9AF8142096F82501294600F059
:10100800C1FFDAF800004FF000086D46C0F81088FC
:101018003978317079687160397AC6F82011C0F86A
:101028001C98284602F09CFEDAF808001D4A2B4658
:10103800CDE9004006F11400DAF8041001F05CFB79
:10104800284602F00BFFDAF80C0017492A460094EC
:10105800029006F1E40000F075FE06F1300001216F
:1010680002F04CFD307830B906F18000002102F022
:1010780045FD0E4870602046C6F81080C6F80C8002
:1010880001F026FE0A4A06F596700421234602F06E
:10109800AFFC84E70E4B00009C4A0000044A0000A5
:1010A800004000240D1900009D2300003740000077
:1010B800F13C00002DE9F04790460C4606464FF0FB
:1010C80001096068D6E9007A10B9E068002848D0BC
:1010D80002F0E4FE3978012901D1F968B9BBFC6056
:1010E8003C61C4F8149002F09EFF07F1300500211E
:1010F800284601F0EFF9013008D138780128E0D00E
:101108002846414601F0E6F9013030D0387820B958
:1011180007F18000002101F0DDF902F0A5FFDAF8FF
:10112800040002F007FF3046214601F00BFC81461F
:10113800DAF8040002F004FFB9F1000F02D002F05F
:1011480090FF44E0387808B34FF000093FE0F968B1
:1011580049690A3110D16FF00A016161D4F814901D
:1011680011E06FF00A006061D4F8149032E06FF07B
:101178000209C4F814902DE001214FF000096161C3
:1011880039693C61CC6102F04EFF23E007F1800928
:101198004146484601F09EF9013016D102F07EFE24
:1011A8008046F86870B1304602F03FFB404602F0D6
:1011B8003AFF48464FF0FF3101F08CF96FF002001A
:1011C800606102E0404602F02EFFD4F814902846F1
:1011D80001F0A6FF4846BDE8F08770472DE9FF41BA
:1011E8003B4E96F8420100286AD1012086F8420158
:1011F80002F0CAFE374F86F87001374D7868C6F896
:101208006C01387B86F84101A86810F4402F13D18F
:10121800386988B128686421C0F3066000FB01F4CE
:1012280002F082FEB4FBF0F22C4906F19400002390
:1012380001F064FE02F0CAFD01AC204602F0DAFEBD
:101248002749A846002506F10C00002202F034FECA
:10125800204602F0CFFE234906F15000082202F092
:101268002BFE214A06F1D8003221002301F044FA6E
:101278001E4C1F4A06F1F4002C2100232560454628
:1012880001F03AFAD8F80800797BC0F3815021B10F
:10129800032804BF012186F83911032803D040F040
:1012A8000200022810D1206840F04000206002208F
:1012B80002F096F96868400702D4002002F090F91D
:1012C800002004B0BDE8F08102F04EF8F2E700BF5C
:1012D800D004002070490000AC4F0050F93E0000D7
:1012E800FB380000A9300000BD290000902208400A
:1012F8009D0900002DE9FE4FD0E900859946144666
:101308000F46834613B10020C9F8000074B102F0FB
:10131800C5FD064698F8070058B198F8E80070B17E
:10132800304602F080FE6FF008046CE06FF00904AC
:1013380069E0304602F077FE6FF00E0463E00020AB
:101348000121C8E93B74C8F8F440C8F8FC0088F8E3
:10135800E810C8F83C0088F80D0088F80B0028460B
:10136800019502F03BFE304602F05DFE08F1D00622
:101378000DF1080A02F092FD04463046514602F08B
:10138800A6F9D8F8F450D8F8FC10A842394438BF68
:10139800054602982A4602F097FE3046294601F093
:1013A800FFFFD8F8F400D8F8FC10401BC8F8F40088
:1013B8004819C8F8FC00204602F035FE012D03DB71
:1013C800D8F8F4000028D5D102F068FD0746D8F80F
:1013D800FC0050B1019802F001FE584600F014FDDF
:1013E800D8F8FC0010B1002402E000206FF00F04D0
:1013F800B9F1000F18BFC9F80000002088F8E8000C
:10140800384602F010FE2046BDE8FE8F2DE9F84F61
:101418003C4C3D4E3D4D42F62A294FF0010A4FF013
:10142800030B00274FF00508D4F83C01062833D8F1
:10143800DFE800F00433183B203D4B000F20F0603C
:10144800C6F8109001F0C8FE45F804AC55F8040C35
:101458008007FBD5C6F81CA094F8390190B101208B
:10146800EF6210E02F60C4F83CB128688007FCD414
:101478000320DBE72F60C4F83C8128688007FCD490
:101488000520D3E70320C6F800B0C4F83C012F605C
:1014980029688907FCD4C9E7FEE70126022084F8F9
:1014A8003A6101F01DFE2E6009E0022000E00320F1
:1014B80084F83A01002001F013FE0120286004F1AD
:1014C8005000BDE8F84F01F005BA002045F8040CBB
:1014D800286055F8040C8007FBD428688007FCD4E2
:1014E8000B480025012105600A4801600D2000F025
:1014F800A9FE022001F0C2FFC4F83C5184F83B5118
:10150800BDE8F88FD004002000400C4058600C4023
:101518003C500C4004800C40FEB5D0E9005401A8B2
:1015280002F044FC95F834003649374A384E085CD6
:1015380095F83510515C354A084395F83610515CDA
:101548002A6B40EA0103316820684F680299B8475E
:10155800206840F2F272E1692E4B2F4F426494F8F2
:1015680054209A5C94F85530FB5C1A430129426375
:1015780011D10146D4E90A2351F8307FFF2A27F414
:10158800004718BF07F50047FF2B0F6009D00A680E
:1015980042F4804208E0014651F8302F22F400421C
:1015A8000A600A6822F480420A60C16A41F01001A8
:1015B800C162016B41F001010163E16B09B3A16BE9
:1015C800F9B1012102F058FBD5F85801E16B4068E8
:1015D8000068C162C0F8041591FAA1F17268B1FA05
:1015E80081F15368022298477068A16B0222436810
:1015F800D5F8580191FAA1F1B1FA81F14068006873
:101608009847FEBDFC4A000042480000E84A000036
:10161800D0010010F74A0000ED4A00002DE9F0471C
:10162800A4B002F03BFC33490A78012A04D124B063
:10163800BDE8F04702F0F7BC4FF0010981F80090CF
:1016480002F0F1FCFFF7CAFD082000F0F3FC21AC22
:10165800204602F085FBDFF8A0A0294A1021234686
:10166800DAF80C002290254801F046F825480025B4
:1016780001AE0478244890F800804746A74213D862
:10168800DAF8000050F8271021F0FF0046F827008C
:10169800880707D4F8B201F0010102F08FFB09FABC
:1016A80007F005430137E9E7184805601848C1689D
:1016B80001F44001B1F5800F07D10068000E56F81B
:1016C800201041F0070146F820101248A4EB080248
:1016D800042306EB880103EB820240EA880002F04B
:1016E800F3FC0D482022016862F30D21016024B04B
:1016F800BDE8F08752080020F4490000B00400203B
:10170800DD2F00009B4A0000F3490000D020024072
:10171800A84F005000100840003009402DE9F04F54
:1017280089B0DFF8DC9004460025D9F804000028C9
:1017380061D0344898460F46164600218246006814
:101748000368314800F500521C2098472F490120B2
:1017580008602F488B4605704FF4FA7002F0B2FC0F
:101768005520CDE90755CDE90555CDE90355CDE916
:101778000147ADF81C00D9F8040001A902F0F9FAF4
:10178800D0B112984FF47A711F4C484302F09AFC7A
:10179800EEB10020CDE90368CDE90700CDE90500E9
:1017A800CDE901005520ADF81C00D9F8040001A9C5
:1017B80002F0DFFA05460BE0DAF80000124A0021D1
:1017C800002503681C209847CBF8005013E001253A
:1017D80042F21070264602F075FCDAF8000000218B
:1017E8003246002403681C2098474FF49670CBF8C3
:1017F800004002F067FC284609B0BDE8F08F00BF42
:1018080044080020B401001000440024701A444227
:101818001C2002402DE9FC4706680446707A00281F
:101828006BD0D4F80490D6F85801D0F80480D9F8D1
:101838003470204601F028F9706F20B306F14C058A
:10184800284602F037FC316F884221D230790228CD
:101858001ED0B06E002850D0204601F015F9346F24
:10186800284602F027FC201AD6F868A0B46F7067E3
:10187800284602F01FFC0021F1740AEB0401084419
:101888000190706F0CE0B06E10B1306F0028D5D1A8
:1018980006F14C0001A901F01AFF01217067F174EB
:1018A80058B30021B0F5806FB17384BF4FF48060E6
:1018B8007067012301990144013979601049B960C1
:1018C80043F6F07101EB00100840B9680843B860AE
:1018D800D9F83C10D9F8000091FAA1F2B2FA82F2D4
:1018E80003FA02F2D8F800309A61D6F85821526803
:1018F80012689162012102F0CBF9BDE8FC8700BFB4
:101908000180000C70B5D0E900520446012110682E
:10191800C0F81C18D0F80418C90718BF70BDD0F853
:101928000438A9684E690A3614D0D5F8D46013F083
:10193800120F17D01EB903F01F060A2E21D05A071E
:101948006FF0040258BF6FF00502DB0648BF6FF066
:1019580006024A61042102F052FB2046BDE87040AD
:1019680002F03FB96EB1721EC5F8D4202CD0D5F85C
:10197800D0104A1CC5F8D0200978C0F808180121F1
:1019880017E0D5F8DC10C1B10139C5F8DC10D5F87D
:10199800D8104B1CC5F8D830D0F8080808700121B9
:1019A800D5F8DC00002808BF0421012888BF0921D8
:1019B8001068BDE8704002F022BB042102F01FFB52
:1019C800A86800214161C8E7D5F8DC2052B1098B2D
:1019D800012361F348030B21012AC0F8003808BF2E
:1019E8000321E6E70421E4E72DE9F84315460C4610
:1019F800804600F0BFFE2C4800212D4F01602B4887
:101A0800814600683868816927208847294E2A4915
:101A1800306B08403063B06F20F48070B06738686E
:101A2800016B4FF4806088473868016B4FF4816020
:101A380088473868016B4FF4C06088471F48012108
:101A480001601F48C6F8804131600168890704D4E5
:101A5800691C08BF4FF04045C560D9F80000F0691F
:101A68008007FCD5072001F0D7FA0228FAD1B8F18F
:101A7800000F13D1134C386A816820468847042820
:101A8800F9D0012804D1386A0321426820469047DA
:101A9800D6F8180220F00300C6F818023868806BE0
:101AA800BDE8F843004700BF0C4009402C2009401E
:101AB800B80100100C200840FFFFFEFE2820086037
:101AC80010000940004003402DE9F84302F0E6F910
:101AD8002F4F044697F84101002854D002F05AFAD3
:101AE80002F064FA054600F00C000C2803D100BF90
:101AF80000BF30BF45E0680728D401F059FDDFF882
:101B0800948081460121D8F8000000FB09F60120E5
:101B180002F030F8864219D9D8F80000F02107F110
:101B28000C05B1FBF0F0A9EB0001284602F0B0FA71
:101B3800284600F0CFFE00BF00BF0120FFF770F974
:101B480000BF00BF284602F086FA1CE000BF00BFB5
:101B5800280715D4104F114E3868816830468847D9
:101B68000428F9D0B0FA80F005F01001400940EAE5
:101B7800111002F097FA0A4801210160006800E09C
:101B880030BF00BF00BF2046BDE8F84302F04BBAA3
:101B9800D00400203C080020D80100100040034079
:101BA8002C20094070B52548066801F067FE2448D6
:101BB8000025244C0560206C806C80472248006812
:101BC80038B122480068B6F1FF3018BF304600F03F
:101BD80089FA1F4840F2391205601E48016862F30D
:101BE8001B4101601C48016801F44051B1F5805F58
:101BF80006D10168194A114001F5003202600160FE
:101C0800174D0126EE612068016A1420884715489F
:101C1800016841F4E021016013482E60006800F477
:101C28004000B0F5000F03D1206C416C0F48884785
:101C38000F4801680029FCD170BD00BF1C1300507B
:101C480084046042B00100108001284380052043CD
:101C58008C2108404820034028000940EFFFFCFC85
:101C68000000244300200940B44F0050BD378600CF
:101C78000C00684270B5F8B1012858D1012002F073
:101C880077F9012853D02D4C94F8380100284ED10B
:101C98002848294E0569306810F4402F30D17DB3AB
:101CA80001F01CFF502002F0E2F90120A84704F1DE
:101CB800940000F00FFE25E002F0F2F91E480068DB
:101CC80010F4402F0AD11B4804693CB11B489430DA
:101CD80002F0C1F901F0F2FE0020A047174C94F879
:101CE800380120B31648016821F080010160802185
:101CF8008160032001F0C2FB002084F8380116E05F
:101D080002F0D2F9012084F83801306810F4402F2D
:101D180000D14DB9207A800606D409488021816017
:101D2800016841F080010160032001F059FC0020A6
:101D380070BD00BF70490000B44F0050D0040020AF
:101D4800902208402DE9FE4F98B116468A468046F3
:101D580002F0A4F8DFF89C90834699F8000000BBD5
:101D6800254D2C274C2F06D0E81902F089F90837A1
:101D7800F8E700263AE0002001276C466860A86072
:101D8800EF602870204601F0EBFFE0201C4A234654
:101D980001901A48016805F1100000F0ADFC89F8BF
:101DA8000070584602F03FF9164D002E18BF354610
:101DB800AF68781C08BF03270026032F16D84046B3
:101DC80002F05EF995E81E0008F10C001EC0C8F884
:101DD80024604646C8F81470074800EBC7002C304A
:101DE800C8F80800D8F81800C8E907A03046BDE8C8
:101DF800FE8F00BF5008002098070020140800201C
:101E0800C73C0000144A0000F8B505680446D5F838
:101E1800F80000B1F8BD68796668022807D105F1B5
:101E2800D000694601F008FEC5F8F80009E0D5F8C9
:101E3800EC10D5F8FC20D5F8F4001144C5F8F800EA
:101E480000910028E6D031688A6B22F400628A6328
:101E580095F84410C9060AD52F6C47B1297A31B9CB
:101E6800AB6C204610210022B847D5F8F800B0F531
:101E7800806F84BF4FF48060C5F8F8000099336B19
:101E880001444A1E3168B66B1A600E4A9A6043F6DE
:101E9800F07202EB001010409A6810439860D5F871
:101EA80058014068006886620846022101F0F0FE89
:101EB800287A0028AED120460121012601F006FD2E
:101EC8002E72F8BD018000C02DE9F84F2148224C40
:101ED800A0472249224A4FF0000808688946002195
:101EE800924603681C2098471E4E01250021524641
:101EF8007562D9F800000368132098473560B34627
:101F0800194F1A4E42F210707D72B0471848A04718
:101F180046F2A81087F80080B04742F210707D7230
:101F2800B0471448A0474CF250303D70B0471248B3
:101F3800A0471248B047D9F80000AAF5005200217E
:101F480003681C2098470E48CBF824802146BDE83A
:101F5800F84F08479C4500001D3A0000B4010010E6
:101F6800006400244C1A444213200240CD40000073
:101F7800CC470000C1410000D1440000006A1800AD
:101F8800684800002DE9F84FFF2831D0264B0C4651
:101F980005464FF4BE21AF0004F0020843EA800072
:101FA8004158C9B2914227D121489A464FEA14298B
:101FB80047EA0006834601F071FF0BF10101220C8C
:101FC80086F8009039430A7046F00201220E0A7022
:101FD80002F029F8B8F1000F02BF45EA0A0004F040
:101FE800010101701148012181EA5801384316E0C6
:101FF8004FF0FF30BDE8F88F00F5BE2024F0FF0158
:1020080062B9B8F1000F02BF2B4304F001041C7041
:10201800064B012484EA58043B431C6011430160C9
:102028000020BDE8F88F00BF00200240001A44429B
:10203800011008402DE9F041254E0546371801F0FA
:102048002DFF044697F84A01411C87F84A1128B128
:10205800204601F0E8FF0020BDE8F081DFF8748039
:1020680018F8257007F03F00142898BFFFF7E2FF23
:1020780008EB8500458878B2B0F1FF3F0CDD7806A3
:102088001FD415480068416928468847284600F04B
:10209800E5FF0128FAD1DBE70F4E3068C169284611
:1020A80088473068416A284688473068C16A2846A8
:1020B80088470A4801210160094801688907FCD559
:1020C800C6E706EB8500D0F8601101208847BFE716
:1020D800D00400202C410000B8010010282008601E
:1020E80028200840F8B505462248234E416889074C
:1020F80005D40168F02242EA114186F84D101F49C3
:102108004FF001221F4F0A601D4909883968096884
:10211800846820468847A00105D4E00103D53078BB
:1021280040F00200307038682146426828469047DF
:1021380001F090FB1448154A0068C0F3053111708E
:10214800C1054FF0130158BF232140237354382190
:1021580001EA901000F56050A2F85C0038688168C8
:1021680020468847022001F08FF8094801210160C4
:10217800F8BD00BFAC4F00500962084004A40C40F1
:1021880000A00C40F00100100C1400500EB00C40E0
:10219800940460428B4208BF824207D9009A002A01
:1021A80001D010605160002100207047002B08BF4B
:1021B800002A10D1009A002A01D010605160020054
:1021C8000B0000210020002B08BF002A1CBFC943B8
:1021D800C04301F0D4B9F0B51C4615460B4602467B
:1021E80000200021B4FA84F6202E04BFB5FA85F643
:1021F8002036B3FA83F7202F04BFB2FA82F72037CC
:10220800F61BB6F1200727BF05FA07F400257F4221
:10221800B4403EBF25FA07F73C43B540A34208BF88
:10222800AA4201D3521BA341404149416D0845EAE6
:10223800C4756408761EF1D5059F002F01D03A6059
:102248007B60F0BDF8B5254F05463E1801F026FE27
:10225800044696F84A01013886F84A01000637D143
:102268001F4810F9251000EB85004588CEB2B1F162
:10227800FF3F0CDD70061FD41A48006881692846A4
:102288008847284600F0C8FE0228FAD11AE0154F00
:102298003868016A284688473868816A2846884726
:1022A8003868016B284688470F48012101600F48AC
:1022B80001688907FCD505E007EB8500D0F86011B7
:1022C8000020884706F03F00142898BFFFF7BAFFA0
:1022D800204601F0A8FE0020F8BD00BFD004002071
:1022E8002C410000B8010010282008602820084070
:1022F8002DE9F04101F0D2FD254F8046012101244E
:10230800D7F8900001F0D4F8A7F8A0400646B868BE
:10231800D7F89840B968711A201A884203D9002062
:1023280087F8A0002EE0404601F07DFE351B002610
:10233800B54207D334440120AD1B214600F070FBA1
:102348000646F5E701F0AAFD804697F8A10020B1FE
:102358000020214600F064FB0646701C06D0D7F822
:102368009C00711B814238BF084601E0D7F89C00E9
:10237800011901F093FB002087F8A000012087F8DD
:10238800A200BC604046BDE8F04101F04CBE00BF71
:10239800B002002070B505680446A96848690A308B
:1023A8001BD16B68204600229847A8686FF0090681
:1023B8004661022001F062F8E8682969884213D072
:1023C8006B68E8680022C069E860E86846612046F2
:1023D800E9689847E8684661EEE74869033008D13C
:1023E80000202861E86020E00020E860A8602861FB
:1023F80070BDE8682A69904211D06B68E868C069C6
:10240800E86001F0AFFDE968204600F09BFA00287B
:10241800EED005F1E400BDE8704000F0FFBB0020FD
:10242800E86028616B6801F09DFD0220BDE87040FE
:1024380001F024B82DE9FF470446E0B315460E46DF
:1024480001F02CFDDFF87890074699F80000A0B954
:102458000DF10408404601F083FCDFF868A08020F5
:10246800194A1421434602900AF1040000F044F985
:102478000120CAF8004089F80000384601F0D3FD71
:102488000020E660124AE0626062C4E90500E0618B
:102498000E48002D18BF2846002301782170416896
:1024A800A1608168002001F051FCA06220622061D7
:1024B800606001F02DFC204604B0BDE8F08700BF45
:1024C80051080020E4070020693C00006C4A000025
:1024D80040420F002DE9F04391B00E4621490446D1
:1024E800684600234FF00008324601F0C7FA701E14
:1024F80010F1030F02D8684600F0ECF901F0CEFCA9
:10250800194F054601200136E9467870E068A0B900
:102518001EB1484601F0BAFD78B1606800B1804745
:10252800284601F080FDB87818B101F087FC87F8DB
:10253800028001F0B3FC0546E8E700207870E06807
:1025480020B1E0680138E060002400E0FF2428465C
:1025580001F069FD684601F037FB60B211B0BDE8D3
:10256800F08300BF5B380000180800202DE9F84F01
:10257800214F83464FF001084FF002094FF0000A3F
:102588007868A0B3F868012831D178680324082155
:1025980021B1014203D14908013CF9E7002407EBC6
:1025A800C40000F12C06304601F028FB05463046F1
:1025B80001F002FD28B1796808FA04F021EA000068
:1025C8007860A869296AC5F8249028625846B960D5
:1025D80001F029FDD5E90301EA69904701F05EFCA5
:1025E8008346686A022808BFC5F824A0C8E7002007
:1025F8003870BDE8F88F00BF9807002070B50568EF
:10260800D5F8F81031B3D5F8582144685668A16B4D
:1026180020683268D162022101F02EFBD5F85801FA
:10262800A16B154A40680068C0F8041591FAA1F139
:1026380012683068B1FA81F1926990470446D5F87A
:10264800F800011B6879022806D105F1D00001F0D5
:1026580027F80BE000240CE0D5F8F400D5F8FC20AE
:102668000A44401AC5F8FC20C5F8F4000020C5F853
:10267800F800204670BD00BFD4010010F0B587B047
:10268800194E307868BB194C204601F0F9FC00203F
:102698000127A060C4E92670C4F89F00C4F89470AC
:1026A80003AD284601F0DAFB4FF0FF3010492A4607
:1026B800059004F10C00FFF745FB6D46A064284621
:1026C80001F0D4FB70680B492A46029004F15000CF
:1026D800FFF7B0FEC4F8900001F0BFF9C4F89C0001
:1026E800377007B0F0BD00BF38080020B0020020E6
:1026F800F9220000253F0000FEB568B11E460D46D0
:1027080004465BB17068C1B2FF2910D01549096849
:10271800A9420ED0E0280CD1002421E001206E4609
:102728008DF808004FF0FF30019000200090C02085
:1027380070600D480D4940F825403068C4E90052E2
:10274800A060284600F0DAFF094F317938688268BE
:1027580028469047307A18B1386801692846884772
:102768002046FEBD1408002044060020613B0000FE
:10277800B001001010B517480168890726D417481A
:102788000468A00221D41648006800688047C0F198
:102798003E000722C1100729B8BFC210012000EB74
:1027A80024718A42D8BF0A460E490968C1F3032139
:1027B800891A0F29A8BF0F210129D8BF014641F066
:1027C800F000094981F84D00087810BD0249C16040
:1027D80010BD00BF10000940FD000040B44F00507C
:1027E800EC0100100C1300500D620840F8B50546C6
:1027F80016484BF2F521174E006800FB01F7144804
:102808003C0A006800F44020B0F5802F10D112482F
:10281800006880030CD4F0680068804700F0BEFCB4
:102828003168C9688847C010390B484304EBE03465
:102838002DB90A48006820F07F40204444083069D8
:10284800416C2046BDE8F840084700BF08400C40EE
:10285800B44F0050E00100108C13005010200940C4
:10286800F0B540F6FF7C10F8013B0024082CFAD0A4
:102878000646DF0716F8015B0DD1477807F00F060B
:102888000336122E0DD190F90220D6B2B2F1FF3FD5
:1028980009DD03300DE001F8015B304601345B08C7
:1028A800E4E7023006E0C27806F07F06043046EA24
:1028B800C21612363F0947EA0512624508BFF0BD45
:1028C8002A013A44D543002EE8D04A5D013E0A70F9
:1028D8000131F8E7F8B5054601F0E0FA184E04466C
:1028E80096F8A20080B196F8A00068B9D6F89000D2
:1028F8000121012700F0DCFDB168D6F89830B268F4
:10290800411A9A1A91420CD900F0F4FF0121297555
:10291800AA681044E86096F8A00060B186F8A11093
:1029280009E02F75AA681118181A8242E96002D2C4
:10293800104601F0B3F82046BDE8F84001F073BB3B
:10294800B002002070B56FF007024A61D0E900209C
:10295800CC6891E8680002F1D00C00689160C2F878
:10296800DC40ACE86800D0F80468760642BF6FF037
:102978000800486170BD0126C0F810684FF4FF7662
:10298800098B06EA410145B1C0F80018591CC2F884
:10299800D0101978C0F8081805E041F00101012CA1
:1029A800C0F8001801D1032100E00B2101F027FB3A
:1029B800002070BDB0B5174C6068216801EA0005B9
:1029C80021EA0002680622601DD51348006800F459
:1029D8004000B0F5000F03D11048006800F034FD46
:1029E800042001F0C5FA811E022905D200F0BCFCC2
:1029F800022000F043FD03E0012808BF00F0B4FC0A
:102A0800202000F01DFE280648BF00F051FAA560FE
:102A1800B0BD00BF90220840B44F00504C080020C1
:102A28002DE9F047174E05468946304601F03EFB32
:102A380004464FF0FF384FF0000AB4421FD020463A
:102A4800274601F035FB0446387D0028F5D065B1EE
:102A5800F868484509D1386910B14844F86001E080
:102A680087F814A0D7E906108847387D0028E4D0F5
:102A7800F868A0EB0900404538BF8046DDE74046CE
:102A8800BDE8F087B002002070B50468616F59B3E3
:102A9800D4F8582145685668E96B28683268D162CD
:102AA800012101F0E9F8D4F85801E96B0F4A4068B0
:102AB8000068C0F8041591FAA1F112683068B1FAFB
:102AC80081F192699047616F091AE07C20B104F1A5
:102AD8004C0000F065FC05E0206FA26F401A2067EB
:102AE8005018A0670020606770BD00BFD4010010B7
:102AF800B0B5134D0124E86B01680120884701280F
:102B08001BD028683C21012200230024C5680D48F9
:102B1800A84790B100F00CFC0B480C490068D1E9BB
:102B280000238860C01A0A4BA2EB92025843B2EB0A
:102B3800104F98BF020C01240A602046B0BD00BFA8
:102B4800A401001000A00C40302009400408002017
:102B580040420F00B0B51448144D807B95F83911E8
:102B6800084306D001F09AF995F83B1121B101F01C
:102B78005AFA00242046B0BD012485F83B4101F0F3
:102B880052FA022000F02CFD0D20FFF753FA0848F6
:102B980001680029EED1074940220A604A600021F5
:102BA80085F83A11C461E4E770490000D0040020B8
:102BB80004800C4038500C402DE9FF41144DD5E9F4
:102BC80000673879FFF736FA01F068F9044630787B
:102BD800B0B90DF10408404601F0C2F8B879797926
:102BE8000C4A434601950290301DFFF785FD386871
:102BF8004FF0FF31C16208498160012131704160A5
:102C0800204601F010FA024804B0BDE8F08100BF88
:102C1800AC4A00002540000000180020F8B5054621
:102C280001F03CF90446686A01280FD06869104F22
:102C3800012629466E6207EBC0002C3000F06EFFBB
:102C48006869796806FA00F008437860084D2878C2
:102C580040B9E868012805D10648006801F076F90E
:102C6800012028702046BDE8F84001F0DCB900BF1B
:102C780098070020140800202DE9F0410646FFF7C8
:102C8800FDFC114FD7F8900001F09CF904460F485D
:102C98000D4641F2C6084068C0EB0011B14207D8A2
:102CA800A0EBC00106EB4101B1FBF0F000F0FAFD2A
:102CB800E6FB0845D7F8900001F084F9001B71EB9A
:102CC8000500F7D3BDE8F081B002002038080020E5
:102CD8007CB5D0E90056002101243068C0F81018EE
:102CE800C0F81C48684601F061F80C49D5F8202165
:102CF80030680968002A0B68019918BF01229847B3
:102D08003068074A00F5026102EA411301F0704198
:102D1800194411440C63C0F804487CBDAC01001090
:102D2800E0FFFF01B0B500F02BFC0E4C0E4D142057
:102D3800611CA8470A202146A84709202146A84720
:102D48000A490820A847B92000F064F8084C142064
:102D5800A0470A20A0470920A04708202146BDE82F
:102D6800B0400847006400206540000002200020B1
:102D780069310000F8B5124F044616460D463878FA
:102D880018B9FFF77BFC01203870B4B12EB1307848
:102D9800207070686060307804E0D7E90201C4E907
:102DA8000001C0B228B10120A06005B90020E06090
:102DB80003E04FF6FF70A060E5602046F8BD00BF55
:102DC8001808002008B3B0B586B000210A236A4667
:102DD80058B1B0FBF3F404EB8405A0EB450040F0D8
:102DE8003000505401312046F2E7013A002303A88D
:102DF800994204D0545C013AC4540133F8E70022E4
:102E0800425400F007FE06B0B0BD014800F002BE13
:102E18000A4B0000B0B504461420002100F0CEFF94
:102E280007250A20002100F0C9FF681C0FD024FAEA
:102E380005F000F00101092000F0C0FF0A2001217F
:102E480000F0BCFF082001F012F9013DE9E7142069
:102E5800012100F0B3FF4FF42F70BDE8B04001F03E
:102E680006B970470E480F4A0F4B01688258006830
:102E78000340D0B20D4A7F2888BF0020934207D173
:102E8800090F022906D307D0032901D1153004E020
:102E9800FF2002E00A2000E00B3040B2704700BF7C
:102EA8001813005088FDFFFF00F0FF0F0010B40B4F
:102EB800B0B500F0F3FF044601F0C9F80028FBD0D4
:102EC800032000F0DBFA0B48002180F83811204677
:102ED80001F0A9F80848816802200D468847044691
:102EE800102000F0ADFB24B103202946BDE8B04016
:102EF8000847B0BDD004002070490000F8B504466A
:102F0800C8B11D4616460F46FFF7B8FB0020A6605D
:102F18000A4EA761002D207518BF2E46D6E901017B
:102F280020610748E161214600F0F8FD307810B1D2
:102F38002046FFF7CFFC2046F8BD00BF604A0000DE
:102F4800B002002070B5044600F0A8FF05460C4802
:102F58000126C16A06606268130CB2F5802F38BF7B
:102F680004231944416107482321006802680020AE
:102F78009047054806602846BDE8704001F053B800
:102F880004200940840100108002244370B50D46D6
:102F9800044600F083FFD4E901128A4204D101F00B
:102FA80042F84FF0FF3070BDE36822680133B3FB8D
:102FB800F1F606FB11315554E160A16862690131EF
:102FC8009142A16088BF0A46626101F02CF8A068AE
:102FD80070BD7047F8B50D480D4D0E4F01260468B9
:102FE80004608CB1B4FA84F0696880F01F0006FAB6
:102FF80000F251F8201094430029F2D057F820200D
:103008005203EED58847ECE7F8BD00BFE020024048
:10301800F4490000001008400F49C3070A68496DC9
:1030280001D1002106E001F0040102F00103C918F2
:1030380018BF0121830744BF02F0020341EA53018C
:10304800400744BF02F0040041EA90010220002931
:1030580018BF0120704700BF402108400F49C3072F
:103068000A68496D01D1012106E001F0040102F06E
:103078000103C91818BF0121830744BF02F00203E6
:1030880001EA5301400744BF02F0040001EA90013D
:103098000220002918BF0120704700BF40210840C6
:1030A8000B4801688907FCD50A4801210A4AD0F86B
:1030B8003C0101284FF0010008BF2020082390613F
:1030C800002010600548036043601160704700BF2E
:1030D80058600C40D004002000400C4038500C4090
:1030E80040F00201022918BF70477CB50A4D0B4C0D
:1030F80080B27022042329684E680090204600217F
:10310800B0472868002170227023D0F80CC02046F0
:1031180002B0BDE870406047A401001000A00C4058
:10312800B0B5054600F0BAFE0446A868E9688142D1
:1031380002D2E8680130E86000F0CCFD40B1074DEC
:103148006878012804D1A87810B900F0D7FDA870D4
:103158002046BDE8B04000F066BF00BF1808002058
:10316800FF2817D0B0B5044600F056FD0A4D286870
:1031780050F82410204600F071FF686850F82410B9
:1031880011B1002140F82410A868002140F824104B
:10319800BDE8B040704700BFF449000070B50D4B62
:1031A8001B3800FB00F193E87000DB6801FB00F2BC
:1031B80083FB0223C6FB0123C5FB00231009190961
:1031C80040EA0370001941EBE471000C40EA014049
:1031D80070BD00BF280800207CB50C4D0C4C0021A8
:1031E8004FF4C072072328684668022000902046E2
:1031F800B047286800214FF4C0720723D0F80CC0EC
:10320800204602B0BDE87040604700BFA40100102E
:1032180000A00C40BFB58DF80F0041200C46FF25DB
:103228000DF10A0203210223ADF80D000F20ADF8BD
:103238000A5000900DF10D00FEF770FA20B19DF8CC
:103248000A509DF80B002070284604B0B0BD7047A6
:1032580010F1240FD8BF6FF023001B28A8BF1B2034
:1032680003210F222430A1EB101122EA000022FAD8
:1032780001F14FF6FF7222FA00F040EA01400149DD
:103288000860704718A00C40B0B50A490A4A0B4BB1
:103298000C684D68AC42FCD1844208BFB0BD155CD7
:1032A800145DAC424FF0FF3538BF01252C441C5D3E
:1032B8000C60EDE700600C40B44A0000B84A00001A
:1032C80010B50A4C00212068426801209047206808
:1032D80001680120884708B100F02AF8044800680E
:1032E800E068006880470349C86010BDE00100102D
:1032F800302009400408002010B50A490A4C08602B
:10330800D1F8980040F00300C1F89800206881695E
:1033180020208847054800682068806BBDE8104079
:10332800004700BF8C210840B80100102C2009403C
:1033380010B50A480B4C0188C907094907D14FF055
:103348000122226000880868BDE81040004708682C
:1033580080474FF08070206010BD00BF00A00C4077
:103368008000001004A40C407CB50B4D0B4C0021D0
:103378004FF040521C2328684668032000902046DE
:10338800B047286800214FF40072092345680120DE
:1033980000902046A8477CBDA401001000A00C4066
:1033A800F8B50C46054600F079FD2B1D6E690ECB6D
:1033B8008F1AA74238BF3C4622442344B24288BFF2
:1033C80016466E61B3FBF1F606FB1131C5E9022121
:1033D80000F029FE2046F8BD70B50B4E054600F0FA
:1033E8005DFDF5600446012D706808D138B130786C
:1033F80028B90648006800F0A9FD01203070204671
:10340800BDE8704000F00FBE9807002014080020A7
:1034180070B50948094C84420BD0094D094EB54294
:1034280007D0F5E8020110F8012B54F82220904744
:10343800F5E700BF00BF70BD884B00007C4B000063
:10344800C04B0000004C000008490A4B42180849CC
:103458009A42096808D801F44001B1F5000F03D178
:1034680005490968496C0847704700BF5C8F82FFAF
:10347800B44F0050B71E0500F001001070B50B4D99
:1034880004462E1800F00AFD96F84311013986F813
:103498004311090605D10121AA68A14022EA0101C8
:1034A800A96000F0C0FD002070BD00BFD00400205E
:1034B800F8B504460A480F460068006B8047D4E90F
:1034C80004562A46334600F041FC3FB1A0FB0523D1
:1034D80000FB063301FB0531C4E90621F8BD00BF36
:1034E8008C0100102DE9F04106460A4815460C46A5
:1034F80000278046BC4209D0D8F80020E95D306832
:103508009269904708B10137F4E73C462046BDE888
:10351800F08100BFD0010010BCB50C460021FF258A
:103528008DF8060000920DF1060002238DF80710B1
:10353800ADF8045001AA0221FEF7F0F820B19DF879
:1035480004509DF8050020702846BCBD1CB5FF241A
:103558008DF806108DF8050000938DF807200DF101
:103568000500032101238DF8044001AAFEF7D6F8CF
:103578009DF80410002808BF214608461CBD704766
:1035880080B50A49142000F069FD1420002100F0DC
:1035980015FC012000F06BFD1420012100F00EFC49
:1035A8004FF40C70BDE8804000F061BD016400205C
:1035B800F8B500F073FC094E04460021D6F89000D7
:1035C800FFF776FF0546D6E92667204600F02BFD73
:1035D800701BB84288BF0020F8BD00BFB0020020B1
:1035E800B0B50446012000FA04F500F057FC07497D
:1035F8008A682A438A60214491F84321013281F87C
:10360800432100F010FD0020B0BD00BFD004002011
:1036180007480068C00608D40648074900680840FB
:103628000649884204BF012070470020704700BF48
:10363800B04F00505013005000C4FF3F00C0071C9B
:10364800B0B504460948056855B1A868204205D0B8
:10365800D5E9033220460021984718B92D68F3E7C9
:103668000020B0BD4FF0FF30B0BD00BFD004002037
:10367800094880F308880948016841F4700101602D
:1036880000BF00BF00F018FD08B1FFF7C1FE00F051
:1036980053FB012000F0F7FC0040012088ED00E01A
:1036A800B0B50C46054600F0F9FBD5E901122B69C7
:1036B800A24238BF1446121BAA601A19B2FBF1F3D2
:1036C80003FB1121296100F0AEFC2046B0BDF8B51E
:1036D8000C46054600F0E2FBEA6895E8C2000132B4
:1036E800B2FBF6F303FB16252944216000F09BFC8E
:1036F800701BF11B814238BF0846F8BD70B5084AF7
:10370800084B14689C4208D014680025D82D03D0B3
:1037180066595E510435F9E7136043F8201070BD0F
:1037280008ED00E000090020094882698B1A04327C
:10373800B3F1004F09D8531AB3F1FF3F0B46C8BF86
:1037480013468A4298BF0B461A460260704700BF6C
:1037580018200940F8B50C46D0E90016002701F1F9
:103768004C053068013C47F100018269D20606D455
:1037780029B10068C1B22846FFF708FCF1E7F8BD97
:10378800E0B50021084A8DF8071000F00F01000984
:10379800105C515C8DF805000DF105008DF80610E0
:1037A80000F038F98CBD00BFE249000070B504464E
:1037B800006904F114052CCDA0FB010602FB016190
:1037C800C6184D41300C002240EA0541FFF7ACFF16
:1037D800C4E9086570BDB0B5056802200C46FFF75E
:1037E8004DFE64B1D5F8EC000021B1EB107F06D195
:1037F8000420FFF743FE4FF0FF30C5F8EC00B0BDE2
:10380800F8B58DF80E0040208DF80F100DF10B0261
:1038180004210123ADF80C00FF208DF80B000F20C8
:10382800009003A8FDF77AFF8FBD70B5D0E9006559
:1038380000F034FB0446F06830B1284600F0FBFB8A
:10384800B0686FF0090141612046BDE8704000F0A2
:10385800EABB704780B5FFF7DBFE60B10648006839
:1038680081034FEA00414FF0000058BF0816BDE839
:103878008040FFF7EDBC80BDB44F005080B50648CE
:103888000649006808400649884204D1FFF7EAFA69
:103898001328C8BF80BDFEE71813005000F0FF0FC3
:1038A8000010B40B88B1B0B594B06D460446002141
:1038B80000222846FFF75EFA2146FEF70BFE28464F
:1038C800FFF787FB14B0BDE8B0407047B0B5056896
:1038D80002200C46FFF784FE54B1D5F8EC00002115
:1038E800B1EB107F04D10420BDE8B040FFF778BEEB
:1038F800B0BD7047B0B500F0D1FA044605480021C4
:10390800D0F89000FFF7D4FD0546204600F08BFB69
:103918002846B0BDB0020020B0B50C46054600F000
:10392800BDFA0021216069680029616008BF294645
:103938000C606C60BDE8B04000F075BB80B5054810
:103948000121006842680120904703480349006844
:10395800486080BDE00100103020094004080020C4
:103968001CB5064980B24FF47F42082309684C68A9
:10397800009003483021A0471CBD00BFA4010010DF
:1039880000A00C401CB5064980B24FF4F80212237F
:1039980009684C68009003480421A0471CBD00BF7B
:1039A800A401001000A00C401CB5064980B24FF4D9
:1039B8000032112309684C68009003480421A0478D
:1039C8001CBD00BFA401001000A00C401CB5064996
:1039D80080B24FF440620A2309684C68009003489B
:1039E8002021A0471CBD00BFA401001000A00C406E
:1039F80050B14AB110B5044608300EC021460448FB
:103A0800FFF78AFF002010BD6FF00200704700BF6B
:103A1800D0040020BCB504460648056845B12046D8
:103A280000F05FFA024601AB2846214600F052FA40
:103A3800BCBD00BF44080020F8B50C46054600F0A0
:103A48002DFA95E8C2002D692944216000F0EBFAAF
:103A5800701B874238BF3846F8BD80B5D0E90423CB
:103A680047F69160101A73F1000031BF4FF0FF3034
:103A7800002047F6906100F069F980BD10B5044652
:103A8800C0E90613826000202061207502482146A3
:103A9800BDE8104000F042B8B002002070B5064EF4
:103AA80005460C462946D6F89000FFF77FFEC6F873
:103AB8009840C6F8945070BDB002002005484FF4F5
:103AC800825100680028044848BF4FF44151016002
:103AD800704700BFAC4F005028A10C4005484FF478
:103AE800805100680028044848BF4FF440510160E5
:103AF800704700BFAC4F0050A8A00C40E0B5064A84
:103B0800D2E90223CDE9002301228DF800206A467C
:103B1800FFF730F98CBD00BF18080020B0B50C467F
:103B2800054600F0BBF925606968616069680C604A
:103B38006C60BDE8B04000F076BA1CB504686479E2
:103B4800022C02D1FDF7D6FB1CBD049C049402B0E4
:103B5800BDE81040FDF7AEB804480549007851F8B3
:103B6800200010B1D0E901100847704704ED00E0CB
:103B780044060020002201284FF0000004BF40F254
:103B8800EE204FF47A72022908BF024610467047A9
:103B980010B500F083F904490022CC68CA6000F02F
:103BA80042FA204610BD00BF9807002000F047FAEF
:103BB800FDF7F8FF0348016841F470010160FFF761
:103BC80057BDFEE788ED00E0B0B5044600F066F9A1
:103BD8000546204600F077F92846BDE8B04000F0D9
:103BE80022BAD0E9001000220068C0F8102801228B
:103BF800C0F81C2801F1E400FFF710B8B0B504467E
:103C080000F04CF925682968216029684C6000F0AB
:103C18000AFA2846B0BDFEE7FF2806D0034911F886
:103C2800202002F0FB0201F8202070470210084013
:103C3800022807D0032804D180B5FDF7E7FB002050
:103C480080BDFEE7FEF786BF044890F8411119B120
:103C5800D0F86C0100B10047704700BFD0040020C5
:103C680003480121016003480068D0E902010847C0
:103C780004200940E4070020B0B50C46054600F0D2
:103C88000DF9A96CA143A964BDE8B04000F0CBB917
:103C9800B0B50C46054600F001F9A96C2143A964AA
:103CA800BDE8B04000F0BFB980B5FDF797FAFDF761
:103CB800B5FCFFF737F8BDE88040FDF78EBA10B5C0
:103CC80000F0ECF80446FEF751FC2046BDE8104031
:103CD80000F0A9B9034800886FF35F20002818BFD7
:103CE8000120704704ED00E0042805D180B5104696
:103CF800FEF7EEFFBDE88040002070470349002230
:103D080091F8410181F84121704700BFD00400209B
:103D18000348006808B1017801B17047FFF712B98C
:103D2800E4070020042805D180B51046FDF7F4FB10
:103D3800BDE88040002070470349002912BF01C92F
:103D480000200021FCF7C4B9104B000040B584B036
:103D580002AE0096FEF71EFA029A039B04B040BD1D
:103D680030B10121002201724FF0FF31C0E900217A
:103D7800704780B54FF0FF32FDF79CF9B0FA80F03C
:103D8800400980BD10B500239A4208BF10BDCC5C25
:103D9800C4540133F8E7FEE70B4611461A4600F013
:103DA800AEB80A46002100F0AAB8FEE7024A002190
:103DB800C0E90012704700BF006CDC02FF281CBF7E
:103DC800014A8154704700BF0020024002484FF06A
:103DD80000410160704700BF00A10C400248016823
:103DE80041F003010160704724220840024800683E
:103DF800C0F30720704700BF30A00C40024800689D
:103E0800C0F38440704700BF04A00C40024800681B
:103E1800C0F38120704700BF20A00C400248402119
:103E28000160FFF78BBD00BFA8A00C4080B5FFF76D
:103E3800AFFE0149086080BDCC0400200248012182
:103E480080F84111704700BFD004002010B500234E
:103E5800541E80E81E00C0E9043310BDB0B5024905
:103E680091E83C003CC0B0BD144A000010B50249BE
:103E780091E81C001CC010BD6C4A000000680121BC
:103E8800806900F0080081EAD000704780B50A46D2
:103E9800D0F803101046FFF784FF80BD80B500F00E
:103EA800CEF8002818BF012080BD80B500F0E2F8E8
:103EB800B0FA80F0400980BD234603958DF8045080
:103EC8000295FFF71BB801684268116041680068F5
:103ED800416070471CB54FF0FF340094FFF72DFE8A
:103EE8001CBD0021425C0131002AFBD1481E7047ED
:103EF80080B5FFF793FFBDE88040FEF7D9BF0023E8
:103F08009A4208BF7047C1540133F9E70B46D0F80D
:103F18000320C11D184600F0D7B800000148806C86
:103F2800FEF77CBEB002002001484068704700BF21
:103F3800380800200149096849690847B00100109C
:103F48000149096809690847B00100100149096871
:103F580089690847B00100100021C0E90011C0E9D3
:103F6800021170474869B0FA80F0420920461847A4
:103F78000149096809680847E00100100149096812
:103F8800C96A0847B801001001480068006800477E
:103F9800E80100100148006840680047E801001087
:103FA80001480068FFF718BACC040020014880686F
:103FB800704700BFD00400200168081AB0FA80F0EA
:103FC8004009704701480068006B00478C010010E9
:103FD8000068016B21F48071016370470068016B10
:103FE80041F48071016370470149242200F06CB8E4
:103FF800444800000021C0E9001181607047C0F802
:104008000418022000F033B89DF817A05046FFF7B7
:10401800B7BB00214FF0FF32FDF7E6BC4068012135
:104028000068C164704700B1704700F00CB80068C0
:104038008030FFF775B800680421FFF7E0BFEFF3A1
:10404800108072B67047EFF3108062B6704780B583
:10405800FEF74EFD80BD0021017570470022FDF777
:1040680091BF0220FFF70ABA0220FFF7B9BA013858
:10407800FDD17047EFF3108070472046FFF7D3BF9C
:1040880040600060704700F005F8FEE7007D70476B
:104098008160704700BF7047FFF7D5BFFFF7FCBFCF
:1040A800FFF70EB9FFF728B9FFF748BC006870475B
:1040B800006870478068704701207047002070478B
:0C40C80000207047FEF7D8BDFFF75CBE7B
:1040D40000B0004034000000FF0000005004002045
:1040E40020000000700400202000000000000000F8
:1040F4000200000003000000FF000000FF000000B9
:10410400601800205018002040000000200000002B
:10411400130000001400000013000000150000004C
:1041240016000000000200008E0000008E00010056
:104134008E0002008E0003008F0000018F00000239
:104144008F0000038E0001048E0000058E00080419
:104154008E00000489000006500000007F0001006A
:104164003F0004003F0002003F0001007F00020006
:104174008E0002048E0001028E0001010D0A2A2A1B
:104184002A2043616E6E6F7420636F6E6669677573
:1041940072652050504720E2809420687562206E3A
:1041A4006F7420696E204170706C69636174696F0B
:1041B4006E204D6F6465202A2A2A0D0A0020205B98
:1041C4005253545D2052656C656173696E67205269
:1041D40053544E204849474820286F70656E2D641B
:1041E4007261696E2C20312E38562070756C6C2DDE
:1041F4007570292E2E2E0D0A002A2A2A204966209F
:10420400737475636B20696E20307830382C2063AA
:104214006865636B20666F722065787465726E6181
:104224006C2070756C6C2D757073206F6E202A2A4B
:104234002A0D0A0020202A2A2A2055736520706836
:104244006F6E652063616D65726120746F207365A4
:1042540065204952204C45442028707572706C6565
:104264002F776869746529202A2A2A0D0A003D3DA2
:104274003D3D3D3D3D3D3D3D3D3D3D3D3D3D3D3D6A
:104284003D3D3D3D3D3D3D3D3D3D3D3D3D3D3D3D5A
:104294003D3D3D3D3D3D3D3D3D3D3D3D3D3D3D3D4A
:1042A4003D3D3D0D0A0D0A0020202A2A2A2043689C
:1042B40065636B20312E3856207261696C2C205254
:1042C40031372F5231392070756C6C2D7570732C09
:1042D40020553720736F6C646572202A2A2A0D0AD0
:1042E400002A2A2A204D46494F202844494F323873
:1042F4002920616E6420525354202844494F313997
:104304002920746F2074686520312E38562072611C
:10431400696C2E202A2A2A0D0A0020202A2A2A2003
:10432400596F752073686F756C64207365652061BF
:1043340020475245454E20676C6F772066726F6D3B
:10434400207468652073656E736F72202A2A2A0DA3
:104354000A002A2A2A20546865206F70656E2D642D
:104364007261696E206669782073686F756C642069
:1043740068617665207265736F6C76656420746815
:1043840069732E202A2A2A0D0A0020202A2A2A208C
:104394005354494C4C20696E20426F6F746C6F61AA
:1043A4006465722120547279696E67207365636F46
:1043B4006E642072657365742E2E2E202A2A2A0DAF
:1043C4000A003D3D3D3D3D3D3D3D3D3D3D3D3D3D89
:1043D4003D3D3D3D3D3D3D3D3D3D3D3D3D3D3D3D09
:1043E4003D3D3D3D3D3D3D3D3D3D3D3D3D3D3D3DF9
:1043F4003D3D3D3D3D3D3D0D0A0020202A2A2A2019
:104404004C454473206D6179206E6F742062652081
:104414006F6E20E2809420636865636B20636F6E27
:104424006E656374696F6E73202A2A2A0D0A002050
:10443400202A2A2A204552524F523A204578706544
:1044440063746564204D41584D38363136312050FF
:1044540061727420494420307833362C20676F749D
:10446400203078000D0A2D2D2D204D41584D383621
:1044740031363120436F6E66696775726174696F96
:104484006E2076696120506173732D5468726F7564
:104494006768202D2D2D0D0A0020202A2A2A205558
:1044A4006E6578706563746564206D6F6465212042
:1044B400493243206D6179206E6F742062652077E4
:1044C4006F726B696E67202A2A2A0D0A0020205B0E
:1044D4005253545D2057616974696E6720313630D8
:1044E40030206D7320666F72206875622066697271
:1044F4006D7761726520696E69742E2E2E0D0A0027
:104504002020505047204C4544204272696E677504
:104514007020E28094204D41584D38363136312098
:10452400766961204D4158333236363420487562FD
:104534000D0A002020436865636B3A20312E3856FB
:10454400204C4544206F6E3F204C6576656C20738B
:1045540068696674657220656E61626C65643F208B
:104564002A2A2A0D0A0020205374617274696E6726
:10457400204D41584D38363136312073616D706CA1
:10458400696E6720285379734374726C3D307830B8
:1045940043292E2E2E0D0A0020205B5253545D20F9
:1045A400436F6E6669677572696E67204D46494F41
:1045B400202620525354206173206F70656E2D6441
:1045C4007261696E2E2E2E0D0A000D0A2D2D2D20DE
:1045D4004D41583332363634204861726477617203
:1045E4006520526573657420284F70656E2D447282
:1045F40061696E29202D2D2D0D0A0020204F706534
:104604006E2D447261696E2046697820666F72204F
:104614004D46494F2F52535420566F6C7461676551
:10462400204D69736D617463680D0A0020202A2A85
:104634002A204170706C69636174696F6E204D6FDC
:1046440064652028307830302920E2809420434F5C
:10465400525245435421202A2A2A0D0A0020202A96
:104664002A2A205741524E494E473A2052656769DB
:104674007374657220726561646261636B206D6935
:10468400736D61746368202A2A2A0D0A0020204968
:104694003243206F70656E65642061742031303060
:1046A400206B487A202844494F343D53434C2C20F6
:1046B40044494F353D534441290D0A000D0A2D2D1F
:1046C4002D205374617274696E67205050472044E2
:1046D400617461204163717569736974696F6E20D7
:1046E4004C6F6F70202D2D2D0D0A0020202A2A2AB0
:1046F40020426F6F746C6F61646572204D6F6465E6
:104704002028307830382920E280942057524F4EA8
:104714004721202A2A2A0D0A002020466F726D6143
:10472400743A205050477C20473D3C677265656E63
:104734003E2049523D3C69723E20523D3C726564C4
:104744003E0D0A0D0A002020536574204F757470C5
:104754007574204D6F64652030783031202853659E
:104764006E736F72204F6E6C79293A2073743D30EA
:10477400780020202A2A2A20535543434553533A8C
:10478400204D41584D3836313631204C4544732044
:10479400617265204F4E21202A2A2A0D0A0020200A
:1047A400417474656D7074696E672045786974200E
:1047B400426F6F746C6F6164657220636F6D6D61BD
:1047C4006E642E2E2E0D0A0020205B5253545D2061
:1047D400417373657274696E67205253544E204C52
:1047E4004F5720666F72203235206D732E2E2E0D9A
:1047F4000A00202053657474696E67204C45442078
:1048040063757272656E747320746F207E31352007
:104814006D412E2E2E0D0A0020202A2A2A204641E0
:1048240054414C3A204661696C656420746F206F72
:1048340070656E20493243202A2A2A0D0A00000896
:104844000000000000000000000000000000000064
:10485400000000000100000000C20100030000008D
:104864000000000020205B5253545D2052657365A4
:10487400742073657175656E636520636F6D706C0C
:104884006574652E0D0A000D0A2D2D2D204D4158FD
:10489400333236363420537461747573204368653B
:1048A400636B202D2D2D0D0A002020487562204DAC
:1048B4006F646520616674657220326E642072656F
:1048C4007365743A2030780020205365742046497B
:1048D400464F205468726573686F6C6420313A20C7
:1048E40073743D3078000D0A2D2D2D2048756220FB
:1048F400436F6E66696775726174696F6E202D2DE2
:104904002D0D0A002020526561646261636B3A20B8
:104914004C45443128477265656E293D3078002046
:1049240020487562204D6F6465206166746572204D
:10493400657869743A20307800202800002000400F
:1049440011000000FFFFFFFF0000000006050D043A
:104954000E00000020204578697420426F6F746C4B
:104964006F616465722073743D307800000000004C
:10497400D11A0000393C00000101010000000000D0
:104984002020456E61626C65204146453A2073746F
:104994003D30780020205B686561727462656174E3
:1049A4005D206C6F6F703D00202048756220465773
:1049B4002056657273696F6E3A20002020536F662B
:1049C400742072657365742E2E2E0D0A0020204803
:1049D4007562204D6F646520203A203078003031B4
:1049E4003233343536373839414243444546000082
:1049F4001C07002058030020D4030020FFFFFFFF02
:104A040000000000000000000000000000000000A2
:104A14000000000000000000FFFFFFFF0000000096
:104A2400202052657620494420203A203078002006
:104A34002050617274204944203A20307800204C80
:104A440045443328526564293D307800204C454460
:104A540032284952293D3078000D0A000000000038
:104A64000000000000000000000000000000000042
:104A74000A0000002073616D706C6573290D0A00D3
:104A8400205379734374726C3D3078004855427CEE
:104A94002073743D3078001E7001002040490000EE
:104AA40000000020D440000090040020CC4A000004
:104AB4000102000302000103202873743D307800D2
:104AC4005050477C20473D00000002400929FF0068
:104AD400202A2A2A0D0A00207261773A20002063D6
:104AE4006E743D00000602868200081018202049DA
:104AF400523D00000102030400204060290D0A0019
:0C4B040020523D00200030002E00010176
:084B100000000000000000009D
:104B180000E500000FA1020100BF0514BF02C54057
:104B2800003F007D1C0000C9007016BFCE01FB02CB
:104B38006000342000200104CF002002400034012E
:104B48007560004320000170003101F20177000018
:104B5800F94001F9047104B5033F0606B12C7F6AD8
:104B68000E344C2B513C355F040A36CE8037E1FFBA
:104B7800F000000069280000153F0000953E000085
:104B880002000000100000000200000010000000F9
:104B980002000000100000000200000010000000E9
:104BA80002000000100000000200000010000000D9
:104BB80002000000D0040000184B0000D0040020C0
:104BC800884B0000301A0020904B0000301800205D
:104BD800984B0000401A0020A04B0000401800200D
:104BE800A84B000050180020B04B000060180020AF
:084BF800B84B00000000002092
:020000025000AC
:107FA80000008001100080FFFDFF5800FFFFBBF3B9
:107FB800FFFFFFFFFFFFFFFFFFFFFFFFFFFFFFFFC9
:107FC800FFFFFFFFFFFFFFFFFFFFFFFFFFFFFFFFB9
:107FD800FFFFFF00FFFFFFFF00FFFFFF00C5C5FF1A
:107FE800000000FF00000000FFFFFFFFFFFFFFFF92
:087FF800FFFFFFFFFFFFFFFF89
:00000001FF
